{"abi":[{"anonymous":false,"inputs":[{"indexed":true,"internalType":"address","name":"burner","type":"address"},{"indexed":false,"internalType":"uint256","name":"value","type":"uint256"}],"name":"Burn","type":"event"},{"anonymous":false,"inputs":[{"indexed":true,"internalType":"address","name":"from","type":"address"},{"indexed":true,"internalType":"address","name":"to","type":"address"},{"indexed":false,"internalType":"uint256","name":"value","type":"uint256"}],"name":"Transfer","type":"event"},{"constant":true,"inputs":[{"internalType":"address","name":"_owner","type":"address"}],"name":"balanceOf","outputs":[{"internalType":"uint256","name":"","type":"uint256"}],"payable":false,"stateMutability":"view","type":"function"},{"constant":false,"inputs":[{"internalType":"uint256","name":"_value","type":"uint256"}],"name":"burn","outputs":[],"payable":false,"stateMutability":"nonpayable","type":"function"},{"constant":true,"inputs":[],"name":"totalSupply","outputs":[{"internalType":"uint256","name":"","type":"uint256"}],"payable":false,"stateMutability":"view","type":"function"},{"constant":false,"inputs":[{"internalType":"address","name":"_to","type":"address"},{"internalType":"uint256","name":"_value","type":"uint256"}],"name":"transfer","outputs":[{"internalType":"bool","name":"","type":"bool"}],"payable":false,"stateMutability":"nonpayable","type":"function"}],"devdoc":{"methods":{"balanceOf(address)":{"details":"Gets the balance of the specified address.","params":{"_owner":"The address to query the the balance of."},"return":"An uint256 representing the amount owned by the passed address."},"burn(uint256)":{"details":"Burns a specific amount of tokens.","params":{"_value":"The amount of token to be burned."}},"totalSupply()":{"details":"Total number of tokens in existence"},"transfer(address,uint256)":{"details":"Transfer token for a specified address","params":{"_to":"The address to transfer to.","_value":"The amount to be transferred."}}}},"evm":{"assembly":"    /* \"Eraswap.sol\":1392:2115  contract BurnableToken is BasicToken {... */\n  mstore(0x40, 0x80)\n  callvalue\n    /* \"--CODEGEN--\":8:17   */\n  dup1\n    /* \"--CODEGEN--\":5:7   */\n  iszero\n  tag_1\n  jumpi\n    /* \"--CODEGEN--\":30:31   */\n  0x00\n    /* \"--CODEGEN--\":27:28   */\n  dup1\n    /* \"--CODEGEN--\":20:32   */\n  revert\n    /* \"--CODEGEN--\":5:7   */\ntag_1:\n    /* \"Eraswap.sol\":1392:2115  contract BurnableToken is BasicToken {... */\n  pop\n  dataSize(sub_0)\n  dup1\n  dataOffset(sub_0)\n  0x00\n  codecopy\n  0x00\n  return\nstop\n\nsub_0: assembly {\n        /* \"Eraswap.sol\":1392:2115  contract BurnableToken is BasicToken {... */\n      mstore(0x40, 0x80)\n      callvalue\n        /* \"--CODEGEN--\":8:17   */\n      dup1\n        /* \"--CODEGEN--\":5:7   */\n      iszero\n      tag_1\n      jumpi\n        /* \"--CODEGEN--\":30:31   */\n      0x00\n        /* \"--CODEGEN--\":27:28   */\n      dup1\n        /* \"--CODEGEN--\":20:32   */\n      revert\n        /* \"--CODEGEN--\":5:7   */\n    tag_1:\n        /* \"Eraswap.sol\":1392:2115  contract BurnableToken is BasicToken {... */\n      pop\n      jumpi(tag_2, lt(calldatasize, 0x04))\n      shr(0xe0, calldataload(0x00))\n      dup1\n      0x18160ddd\n      eq\n      tag_3\n      jumpi\n      dup1\n      0x42966c68\n      eq\n      tag_4\n      jumpi\n      dup1\n      0x70a08231\n      eq\n      tag_5\n      jumpi\n      dup1\n      0xa9059cbb\n      eq\n      tag_6\n      jumpi\n    tag_2:\n      0x00\n      dup1\n      revert\n        /* \"Eraswap.sol\":528:611  function totalSupply() public view returns (uint256) {... */\n    tag_3:\n      tag_7\n      tag_8\n      jump\t// in\n    tag_7:\n      mload(0x40)\n      dup1\n      dup3\n      dup2\n      mstore\n      0x20\n      add\n      swap2\n      pop\n      pop\n      mload(0x40)\n      dup1\n      swap2\n      sub\n      swap1\n      return\n        /* \"Eraswap.sol\":1598:1671  function burn(uint256 _value) public {... */\n    tag_4:\n      tag_9\n      0x04\n      dup1\n      calldatasize\n      sub\n        /* \"--CODEGEN--\":13:15   */\n      0x20\n        /* \"--CODEGEN--\":8:11   */\n      dup2\n        /* \"--CODEGEN--\":5:16   */\n      lt\n        /* \"--CODEGEN--\":2:4   */\n      iszero\n      tag_10\n      jumpi\n        /* \"--CODEGEN--\":29:30   */\n      0x00\n        /* \"--CODEGEN--\":26:27   */\n      dup1\n        /* \"--CODEGEN--\":19:31   */\n      revert\n        /* \"--CODEGEN--\":2:4   */\n    tag_10:\n        /* \"Eraswap.sol\":1598:1671  function burn(uint256 _value) public {... */\n      dup2\n      add\n      swap1\n      dup1\n      dup1\n      calldataload\n      swap1\n      0x20\n      add\n      swap1\n      swap3\n      swap2\n      swap1\n      pop\n      pop\n      pop\n      tag_11\n      jump\t// in\n    tag_9:\n      stop\n        /* \"Eraswap.sol\":1288:1387  function balanceOf(address _owner) public view returns (uint256) {... */\n    tag_5:\n      tag_12\n      0x04\n      dup1\n      calldatasize\n      sub\n        /* \"--CODEGEN--\":13:15   */\n      0x20\n        /* \"--CODEGEN--\":8:11   */\n      dup2\n        /* \"--CODEGEN--\":5:16   */\n      lt\n        /* \"--CODEGEN--\":2:4   */\n      iszero\n      tag_13\n      jumpi\n        /* \"--CODEGEN--\":29:30   */\n      0x00\n        /* \"--CODEGEN--\":26:27   */\n      dup1\n        /* \"--CODEGEN--\":19:31   */\n      revert\n        /* \"--CODEGEN--\":2:4   */\n    tag_13:\n        /* \"Eraswap.sol\":1288:1387  function balanceOf(address _owner) public view returns (uint256) {... */\n      dup2\n      add\n      swap1\n      dup1\n      dup1\n      calldataload\n      0xffffffffffffffffffffffffffffffffffffffff\n      and\n      swap1\n      0x20\n      add\n      swap1\n      swap3\n      swap2\n      swap1\n      pop\n      pop\n      pop\n      tag_14\n      jump\t// in\n    tag_12:\n      mload(0x40)\n      dup1\n      dup3\n      dup2\n      mstore\n      0x20\n      add\n      swap2\n      pop\n      pop\n      mload(0x40)\n      dup1\n      swap2\n      sub\n      swap1\n      return\n        /* \"Eraswap.sol\":765:1086  function transfer(address _to, uint256 _value) public returns (bool) {... */\n    tag_6:\n      tag_15\n      0x04\n      dup1\n      calldatasize\n      sub\n        /* \"--CODEGEN--\":13:15   */\n      0x40\n        /* \"--CODEGEN--\":8:11   */\n      dup2\n        /* \"--CODEGEN--\":5:16   */\n      lt\n        /* \"--CODEGEN--\":2:4   */\n      iszero\n      tag_16\n      jumpi\n        /* \"--CODEGEN--\":29:30   */\n      0x00\n        /* \"--CODEGEN--\":26:27   */\n      dup1\n        /* \"--CODEGEN--\":19:31   */\n      revert\n        /* \"--CODEGEN--\":2:4   */\n    tag_16:\n        /* \"Eraswap.sol\":765:1086  function transfer(address _to, uint256 _value) public returns (bool) {... */\n      dup2\n      add\n      swap1\n      dup1\n      dup1\n      calldataload\n      0xffffffffffffffffffffffffffffffffffffffff\n      and\n      swap1\n      0x20\n      add\n      swap1\n      swap3\n      swap2\n      swap1\n      dup1\n      calldataload\n      swap1\n      0x20\n      add\n      swap1\n      swap3\n      swap2\n      swap1\n      pop\n      pop\n      pop\n      tag_17\n      jump\t// in\n    tag_15:\n      mload(0x40)\n      dup1\n      dup3\n      iszero\n      iszero\n      iszero\n      iszero\n      dup2\n      mstore\n      0x20\n      add\n      swap2\n      pop\n      pop\n      mload(0x40)\n      dup1\n      swap2\n      sub\n      swap1\n      return\n        /* \"Eraswap.sol\":528:611  function totalSupply() public view returns (uint256) {... */\n    tag_8:\n        /* \"Eraswap.sol\":572:579  uint256 */\n      0x00\n        /* \"Eraswap.sol\":594:606  totalSupply_ */\n      sload(0x01)\n        /* \"Eraswap.sol\":587:606  return totalSupply_ */\n      swap1\n      pop\n        /* \"Eraswap.sol\":528:611  function totalSupply() public view returns (uint256) {... */\n      swap1\n      jump\t// out\n        /* \"Eraswap.sol\":1598:1671  function burn(uint256 _value) public {... */\n    tag_11:\n        /* \"Eraswap.sol\":1641:1666  _burn(msg.sender, _value) */\n      tag_20\n        /* \"Eraswap.sol\":1647:1657  msg.sender */\n      caller\n        /* \"Eraswap.sol\":1659:1665  _value */\n      dup3\n        /* \"Eraswap.sol\":1641:1646  _burn */\n      tag_21\n        /* \"Eraswap.sol\":1641:1666  _burn(msg.sender, _value) */\n      jump\t// in\n    tag_20:\n        /* \"Eraswap.sol\":1598:1671  function burn(uint256 _value) public {... */\n      pop\n      jump\t// out\n        /* \"Eraswap.sol\":1288:1387  function balanceOf(address _owner) public view returns (uint256) {... */\n    tag_14:\n        /* \"Eraswap.sol\":1344:1351  uint256 */\n      0x00\n        /* \"Eraswap.sol\":1366:1374  balances */\n      dup1\n        /* \"Eraswap.sol\":1366:1382  balances[_owner] */\n      0x00\n        /* \"Eraswap.sol\":1375:1381  _owner */\n      dup4\n        /* \"Eraswap.sol\":1366:1382  balances[_owner] */\n      0xffffffffffffffffffffffffffffffffffffffff\n      and\n      0xffffffffffffffffffffffffffffffffffffffff\n      and\n      dup2\n      mstore\n      0x20\n      add\n      swap1\n      dup2\n      mstore\n      0x20\n      add\n      0x00\n      keccak256\n      sload\n        /* \"Eraswap.sol\":1359:1382  return balances[_owner] */\n      swap1\n      pop\n        /* \"Eraswap.sol\":1288:1387  function balanceOf(address _owner) public view returns (uint256) {... */\n      swap2\n      swap1\n      pop\n      jump\t// out\n        /* \"Eraswap.sol\":765:1086  function transfer(address _to, uint256 _value) public returns (bool) {... */\n    tag_17:\n        /* \"Eraswap.sol\":828:832  bool */\n      0x00\n        /* \"Eraswap.sol\":858:866  balances */\n      dup1\n        /* \"Eraswap.sol\":858:878  balances[msg.sender] */\n      0x00\n        /* \"Eraswap.sol\":867:877  msg.sender */\n      caller\n        /* \"Eraswap.sol\":858:878  balances[msg.sender] */\n      0xffffffffffffffffffffffffffffffffffffffff\n      and\n      0xffffffffffffffffffffffffffffffffffffffff\n      and\n      dup2\n      mstore\n      0x20\n      add\n      swap1\n      dup2\n      mstore\n      0x20\n      add\n      0x00\n      keccak256\n      sload\n        /* \"Eraswap.sol\":848:854  _value */\n      dup3\n        /* \"Eraswap.sol\":848:878  _value <= balances[msg.sender] */\n      gt\n      iszero\n        /* \"Eraswap.sol\":840:879  require(_value <= balances[msg.sender]) */\n      tag_24\n      jumpi\n      0x00\n      dup1\n      revert\n    tag_24:\n        /* \"Eraswap.sol\":908:909  0 */\n      0x00\n        /* \"Eraswap.sol\":893:910  _to != address(0) */\n      0xffffffffffffffffffffffffffffffffffffffff\n      and\n        /* \"Eraswap.sol\":893:896  _to */\n      dup4\n        /* \"Eraswap.sol\":893:910  _to != address(0) */\n      0xffffffffffffffffffffffffffffffffffffffff\n      and\n      eq\n      iszero\n        /* \"Eraswap.sol\":885:911  require(_to != address(0)) */\n      tag_25\n      jumpi\n      0x00\n      dup1\n      revert\n    tag_25:\n        /* \"Eraswap.sol\":941:973  balances[msg.sender].sub(_value) */\n      tag_26\n        /* \"Eraswap.sol\":966:972  _value */\n      dup3\n        /* \"Eraswap.sol\":941:949  balances */\n      0x00\n        /* \"Eraswap.sol\":941:961  balances[msg.sender] */\n      dup1\n        /* \"Eraswap.sol\":950:960  msg.sender */\n      caller\n        /* \"Eraswap.sol\":941:961  balances[msg.sender] */\n      0xffffffffffffffffffffffffffffffffffffffff\n      and\n      0xffffffffffffffffffffffffffffffffffffffff\n      and\n      dup2\n      mstore\n      0x20\n      add\n      swap1\n      dup2\n      mstore\n      0x20\n      add\n      0x00\n      keccak256\n      sload\n        /* \"Eraswap.sol\":941:965  balances[msg.sender].sub */\n      tag_27\n      swap1\n        /* \"Eraswap.sol\":941:973  balances[msg.sender].sub(_value) */\n      swap2\n      swap1\n      0xffffffff\n      and\n      jump\t// in\n    tag_26:\n        /* \"Eraswap.sol\":918:926  balances */\n      0x00\n        /* \"Eraswap.sol\":918:938  balances[msg.sender] */\n      dup1\n        /* \"Eraswap.sol\":927:937  msg.sender */\n      caller\n        /* \"Eraswap.sol\":918:938  balances[msg.sender] */\n      0xffffffffffffffffffffffffffffffffffffffff\n      and\n      0xffffffffffffffffffffffffffffffffffffffff\n      and\n      dup2\n      mstore\n      0x20\n      add\n      swap1\n      dup2\n      mstore\n      0x20\n      add\n      0x00\n      keccak256\n        /* \"Eraswap.sol\":918:973  balances[msg.sender] = balances[msg.sender].sub(_value) */\n      dup2\n      swap1\n      sstore\n      pop\n        /* \"Eraswap.sol\":995:1020  balances[_to].add(_value) */\n      tag_28\n        /* \"Eraswap.sol\":1013:1019  _value */\n      dup3\n        /* \"Eraswap.sol\":995:1003  balances */\n      0x00\n        /* \"Eraswap.sol\":995:1008  balances[_to] */\n      dup1\n        /* \"Eraswap.sol\":1004:1007  _to */\n      dup7\n        /* \"Eraswap.sol\":995:1008  balances[_to] */\n      0xffffffffffffffffffffffffffffffffffffffff\n      and\n      0xffffffffffffffffffffffffffffffffffffffff\n      and\n      dup2\n      mstore\n      0x20\n      add\n      swap1\n      dup2\n      mstore\n      0x20\n      add\n      0x00\n      keccak256\n      sload\n        /* \"Eraswap.sol\":995:1012  balances[_to].add */\n      tag_29\n      swap1\n        /* \"Eraswap.sol\":995:1020  balances[_to].add(_value) */\n      swap2\n      swap1\n      0xffffffff\n      and\n      jump\t// in\n    tag_28:\n        /* \"Eraswap.sol\":979:987  balances */\n      0x00\n        /* \"Eraswap.sol\":979:992  balances[_to] */\n      dup1\n        /* \"Eraswap.sol\":988:991  _to */\n      dup6\n        /* \"Eraswap.sol\":979:992  balances[_to] */\n      0xffffffffffffffffffffffffffffffffffffffff\n      and\n      0xffffffffffffffffffffffffffffffffffffffff\n      and\n      dup2\n      mstore\n      0x20\n      add\n      swap1\n      dup2\n      mstore\n      0x20\n      add\n      0x00\n      keccak256\n        /* \"Eraswap.sol\":979:1020  balances[_to] = balances[_to].add(_value) */\n      dup2\n      swap1\n      sstore\n      pop\n        /* \"Eraswap.sol\":1052:1055  _to */\n      dup3\n        /* \"Eraswap.sol\":1031:1064  Transfer(msg.sender, _to, _value) */\n      0xffffffffffffffffffffffffffffffffffffffff\n      and\n        /* \"Eraswap.sol\":1040:1050  msg.sender */\n      caller\n        /* \"Eraswap.sol\":1031:1064  Transfer(msg.sender, _to, _value) */\n      0xffffffffffffffffffffffffffffffffffffffff\n      and\n      0xddf252ad1be2c89b69c2b068fc378daa952ba7f163c4a11628f55a4df523b3ef\n        /* \"Eraswap.sol\":1057:1063  _value */\n      dup5\n        /* \"Eraswap.sol\":1031:1064  Transfer(msg.sender, _to, _value) */\n      mload(0x40)\n      dup1\n      dup3\n      dup2\n      mstore\n      0x20\n      add\n      swap2\n      pop\n      pop\n      mload(0x40)\n      dup1\n      swap2\n      sub\n      swap1\n      log3\n        /* \"Eraswap.sol\":1077:1081  true */\n      0x01\n        /* \"Eraswap.sol\":1070:1081  return true */\n      swap1\n      pop\n        /* \"Eraswap.sol\":765:1086  function transfer(address _to, uint256 _value) public returns (bool) {... */\n      swap3\n      swap2\n      pop\n      pop\n      jump\t// out\n        /* \"Eraswap.sol\":1675:2113  function _burn(address _who, uint256 _value) internal {... */\n    tag_21:\n        /* \"Eraswap.sol\":1753:1761  balances */\n      0x00\n        /* \"Eraswap.sol\":1753:1767  balances[_who] */\n      dup1\n        /* \"Eraswap.sol\":1762:1766  _who */\n      dup4\n        /* \"Eraswap.sol\":1753:1767  balances[_who] */\n      0xffffffffffffffffffffffffffffffffffffffff\n      and\n      0xffffffffffffffffffffffffffffffffffffffff\n      and\n      dup2\n      mstore\n      0x20\n      add\n      swap1\n      dup2\n      mstore\n      0x20\n      add\n      0x00\n      keccak256\n      sload\n        /* \"Eraswap.sol\":1743:1749  _value */\n      dup2\n        /* \"Eraswap.sol\":1743:1767  _value <= balances[_who] */\n      gt\n      iszero\n        /* \"Eraswap.sol\":1735:1768  require(_value <= balances[_who]) */\n      tag_31\n      jumpi\n      0x00\n      dup1\n      revert\n    tag_31:\n        /* \"Eraswap.sol\":1963:1989  balances[_who].sub(_value) */\n      tag_32\n        /* \"Eraswap.sol\":1982:1988  _value */\n      dup2\n        /* \"Eraswap.sol\":1963:1971  balances */\n      0x00\n        /* \"Eraswap.sol\":1963:1977  balances[_who] */\n      dup1\n        /* \"Eraswap.sol\":1972:1976  _who */\n      dup6\n        /* \"Eraswap.sol\":1963:1977  balances[_who] */\n      0xffffffffffffffffffffffffffffffffffffffff\n      and\n      0xffffffffffffffffffffffffffffffffffffffff\n      and\n      dup2\n      mstore\n      0x20\n      add\n      swap1\n      dup2\n      mstore\n      0x20\n      add\n      0x00\n      keccak256\n      sload\n        /* \"Eraswap.sol\":1963:1981  balances[_who].sub */\n      tag_27\n      swap1\n        /* \"Eraswap.sol\":1963:1989  balances[_who].sub(_value) */\n      swap2\n      swap1\n      0xffffffff\n      and\n      jump\t// in\n    tag_32:\n        /* \"Eraswap.sol\":1946:1954  balances */\n      0x00\n        /* \"Eraswap.sol\":1946:1960  balances[_who] */\n      dup1\n        /* \"Eraswap.sol\":1955:1959  _who */\n      dup5\n        /* \"Eraswap.sol\":1946:1960  balances[_who] */\n      0xffffffffffffffffffffffffffffffffffffffff\n      and\n      0xffffffffffffffffffffffffffffffffffffffff\n      and\n      dup2\n      mstore\n      0x20\n      add\n      swap1\n      dup2\n      mstore\n      0x20\n      add\n      0x00\n      keccak256\n        /* \"Eraswap.sol\":1946:1989  balances[_who] = balances[_who].sub(_value) */\n      dup2\n      swap1\n      sstore\n      pop\n        /* \"Eraswap.sol\":2010:2034  totalSupply_.sub(_value) */\n      tag_33\n        /* \"Eraswap.sol\":2027:2033  _value */\n      dup2\n        /* \"Eraswap.sol\":2010:2022  totalSupply_ */\n      sload(0x01)\n        /* \"Eraswap.sol\":2010:2026  totalSupply_.sub */\n      tag_27\n      swap1\n        /* \"Eraswap.sol\":2010:2034  totalSupply_.sub(_value) */\n      swap2\n      swap1\n      0xffffffff\n      and\n      jump\t// in\n    tag_33:\n        /* \"Eraswap.sol\":1995:2007  totalSupply_ */\n      0x01\n        /* \"Eraswap.sol\":1995:2034  totalSupply_ = totalSupply_.sub(_value) */\n      dup2\n      swap1\n      sstore\n      pop\n        /* \"Eraswap.sol\":2050:2054  _who */\n      dup2\n        /* \"Eraswap.sol\":2045:2063  Burn(_who, _value) */\n      0xffffffffffffffffffffffffffffffffffffffff\n      and\n      0xcc16f5dbb4873280815c1ee09dbd06736cffcc184412cf7a71a0fdb75d397ca5\n        /* \"Eraswap.sol\":2056:2062  _value */\n      dup3\n        /* \"Eraswap.sol\":2045:2063  Burn(_who, _value) */\n      mload(0x40)\n      dup1\n      dup3\n      dup2\n      mstore\n      0x20\n      add\n      swap2\n      pop\n      pop\n      mload(0x40)\n      dup1\n      swap2\n      sub\n      swap1\n      log2\n        /* \"Eraswap.sol\":2097:2098  0 */\n      0x00\n        /* \"Eraswap.sol\":2074:2108  Transfer(_who, address(0), _value) */\n      0xffffffffffffffffffffffffffffffffffffffff\n      and\n        /* \"Eraswap.sol\":2083:2087  _who */\n      dup3\n        /* \"Eraswap.sol\":2074:2108  Transfer(_who, address(0), _value) */\n      0xffffffffffffffffffffffffffffffffffffffff\n      and\n      0xddf252ad1be2c89b69c2b068fc378daa952ba7f163c4a11628f55a4df523b3ef\n        /* \"Eraswap.sol\":2101:2107  _value */\n      dup4\n        /* \"Eraswap.sol\":2074:2108  Transfer(_who, address(0), _value) */\n      mload(0x40)\n      dup1\n      dup3\n      dup2\n      mstore\n      0x20\n      add\n      swap2\n      pop\n      pop\n      mload(0x40)\n      dup1\n      swap2\n      sub\n      swap1\n      log3\n        /* \"Eraswap.sol\":1675:2113  function _burn(address _who, uint256 _value) internal {... */\n      pop\n      pop\n      jump\t// out\n        /* \"Eraswap.sol\":5187:5303  function sub(uint256 _a, uint256 _b) internal pure returns (uint256) {... */\n    tag_27:\n        /* \"Eraswap.sol\":5247:5254  uint256 */\n      0x00\n        /* \"Eraswap.sol\":5275:5277  _a */\n      dup3\n        /* \"Eraswap.sol\":5269:5271  _b */\n      dup3\n        /* \"Eraswap.sol\":5269:5277  _b <= _a */\n      gt\n      iszero\n        /* \"Eraswap.sol\":5262:5278  assert(_b <= _a) */\n      tag_35\n      jumpi\n      invalid\n    tag_35:\n        /* \"Eraswap.sol\":5296:5298  _b */\n      dup2\n        /* \"Eraswap.sol\":5291:5293  _a */\n      dup4\n        /* \"Eraswap.sol\":5291:5298  _a - _b */\n      sub\n        /* \"Eraswap.sol\":5284:5298  return _a - _b */\n      swap1\n      pop\n        /* \"Eraswap.sol\":5187:5303  function sub(uint256 _a, uint256 _b) internal pure returns (uint256) {... */\n      swap3\n      swap2\n      pop\n      pop\n      jump\t// out\n        /* \"Eraswap.sol\":5365:5493  function add(uint256 _a, uint256 _b) internal pure returns (uint256 c) {... */\n    tag_29:\n        /* \"Eraswap.sol\":5425:5434  uint256 c */\n      0x00\n        /* \"Eraswap.sol\":5451:5453  _b */\n      dup2\n        /* \"Eraswap.sol\":5446:5448  _a */\n      dup4\n        /* \"Eraswap.sol\":5446:5453  _a + _b */\n      add\n        /* \"Eraswap.sol\":5442:5453  c = _a + _b */\n      swap1\n      pop\n        /* \"Eraswap.sol\":5471:5473  _a */\n      dup3\n        /* \"Eraswap.sol\":5466:5467  c */\n      dup2\n        /* \"Eraswap.sol\":5466:5473  c >= _a */\n      lt\n      iszero\n        /* \"Eraswap.sol\":5459:5474  assert(c >= _a) */\n      tag_37\n      jumpi\n      invalid\n    tag_37:\n        /* \"Eraswap.sol\":5487:5488  c */\n      dup1\n        /* \"Eraswap.sol\":5480:5488  return c */\n      swap1\n      pop\n        /* \"Eraswap.sol\":5365:5493  function add(uint256 _a, uint256 _b) internal pure returns (uint256 c) {... */\n      swap3\n      swap2\n      pop\n      pop\n      jump\t// out\n\n    auxdata: 0xa265627a7a723158209743738bee1ceb38555abcd510d0ca985a0c94128bede1f38d69d8885d73684c64736f6c634300050c0032\n}\n","bytecode":{"linkReferences":{},"object":"608060405234801561001057600080fd5b506105ed806100206000396000f3fe608060405234801561001057600080fd5b506004361061004c5760003560e01c806318160ddd1461005157806342966c681461006f57806370a082311461009d578063a9059cbb146100f5575b600080fd5b61005961015b565b6040518082815260200191505060405180910390f35b61009b6004803603602081101561008557600080fd5b8101908080359060200190929190505050610165565b005b6100df600480360360208110156100b357600080fd5b81019080803573ffffffffffffffffffffffffffffffffffffffff169060200190929190505050610172565b6040518082815260200191505060405180910390f35b6101416004803603604081101561010b57600080fd5b81019080803573ffffffffffffffffffffffffffffffffffffffff169060200190929190803590602001909291905050506101ba565b604051808215151515815260200191505060405180910390f35b6000600154905090565b61016f33826103d6565b50565b60008060008373ffffffffffffffffffffffffffffffffffffffff1673ffffffffffffffffffffffffffffffffffffffff168152602001908152602001600020549050919050565b60008060003373ffffffffffffffffffffffffffffffffffffffff1673ffffffffffffffffffffffffffffffffffffffff1681526020019081526020016000205482111561020757600080fd5b600073ffffffffffffffffffffffffffffffffffffffff168373ffffffffffffffffffffffffffffffffffffffff16141561024157600080fd5b610292826000803373ffffffffffffffffffffffffffffffffffffffff1673ffffffffffffffffffffffffffffffffffffffff1681526020019081526020016000205461058790919063ffffffff16565b6000803373ffffffffffffffffffffffffffffffffffffffff1673ffffffffffffffffffffffffffffffffffffffff16815260200190815260200160002081905550610325826000808673ffffffffffffffffffffffffffffffffffffffff1673ffffffffffffffffffffffffffffffffffffffff1681526020019081526020016000205461059e90919063ffffffff16565b6000808573ffffffffffffffffffffffffffffffffffffffff1673ffffffffffffffffffffffffffffffffffffffff168152602001908152602001600020819055508273ffffffffffffffffffffffffffffffffffffffff163373ffffffffffffffffffffffffffffffffffffffff167fddf252ad1be2c89b69c2b068fc378daa952ba7f163c4a11628f55a4df523b3ef846040518082815260200191505060405180910390a36001905092915050565b6000808373ffffffffffffffffffffffffffffffffffffffff1673ffffffffffffffffffffffffffffffffffffffff1681526020019081526020016000205481111561042157600080fd5b610472816000808573ffffffffffffffffffffffffffffffffffffffff1673ffffffffffffffffffffffffffffffffffffffff1681526020019081526020016000205461058790919063ffffffff16565b6000808473ffffffffffffffffffffffffffffffffffffffff1673ffffffffffffffffffffffffffffffffffffffff168152602001908152602001600020819055506104c98160015461058790919063ffffffff16565b6001819055508173ffffffffffffffffffffffffffffffffffffffff167fcc16f5dbb4873280815c1ee09dbd06736cffcc184412cf7a71a0fdb75d397ca5826040518082815260200191505060405180910390a2600073ffffffffffffffffffffffffffffffffffffffff168273ffffffffffffffffffffffffffffffffffffffff167fddf252ad1be2c89b69c2b068fc378daa952ba7f163c4a11628f55a4df523b3ef836040518082815260200191505060405180910390a35050565b60008282111561059357fe5b818303905092915050565b60008183019050828110156105af57fe5b8090509291505056fea265627a7a723158209743738bee1ceb38555abcd510d0ca985a0c94128bede1f38d69d8885d73684c64736f6c634300050c0032","opcodes":"PUSH1 0x80 PUSH1 0x40 MSTORE CALLVALUE DUP1 ISZERO PUSH2 0x10 JUMPI PUSH1 0x0 DUP1 REVERT JUMPDEST POP PUSH2 0x5ED DUP1 PUSH2 0x20 PUSH1 0x0 CODECOPY PUSH1 0x0 RETURN INVALID PUSH1 0x80 PUSH1 0x40 MSTORE CALLVALUE DUP1 ISZERO PUSH2 0x10 JUMPI PUSH1 0x0 DUP1 REVERT JUMPDEST POP PUSH1 0x4 CALLDATASIZE LT PUSH2 0x4C JUMPI PUSH1 0x0 CALLDATALOAD PUSH1 0xE0 SHR DUP1 PUSH4 0x18160DDD EQ PUSH2 0x51 JUMPI DUP1 PUSH4 0x42966C68 EQ PUSH2 0x6F JUMPI DUP1 PUSH4 0x70A08231 EQ PUSH2 0x9D JUMPI DUP1 PUSH4 0xA9059CBB EQ PUSH2 0xF5 JUMPI JUMPDEST PUSH1 0x0 DUP1 REVERT JUMPDEST PUSH2 0x59 PUSH2 0x15B JUMP JUMPDEST PUSH1 0x40 MLOAD DUP1 DUP3 DUP2 MSTORE PUSH1 0x20 ADD SWAP2 POP POP PUSH1 0x40 MLOAD DUP1 SWAP2 SUB SWAP1 RETURN JUMPDEST PUSH2 0x9B PUSH1 0x4 DUP1 CALLDATASIZE SUB PUSH1 0x20 DUP2 LT ISZERO PUSH2 0x85 JUMPI PUSH1 0x0 DUP1 REVERT JUMPDEST DUP2 ADD SWAP1 DUP1 DUP1 CALLDATALOAD SWAP1 PUSH1 0x20 ADD SWAP1 SWAP3 SWAP2 SWAP1 POP POP POP PUSH2 0x165 JUMP JUMPDEST STOP JUMPDEST PUSH2 0xDF PUSH1 0x4 DUP1 CALLDATASIZE SUB PUSH1 0x20 DUP2 LT ISZERO PUSH2 0xB3 JUMPI PUSH1 0x0 DUP1 REVERT JUMPDEST DUP2 ADD SWAP1 DUP1 DUP1 CALLDATALOAD PUSH20 0xFFFFFFFFFFFFFFFFFFFFFFFFFFFFFFFFFFFFFFFF AND SWAP1 PUSH1 0x20 ADD SWAP1 SWAP3 SWAP2 SWAP1 POP POP POP PUSH2 0x172 JUMP JUMPDEST PUSH1 0x40 MLOAD DUP1 DUP3 DUP2 MSTORE PUSH1 0x20 ADD SWAP2 POP POP PUSH1 0x40 MLOAD DUP1 SWAP2 SUB SWAP1 RETURN JUMPDEST PUSH2 0x141 PUSH1 0x4 DUP1 CALLDATASIZE SUB PUSH1 0x40 DUP2 LT ISZERO PUSH2 0x10B JUMPI PUSH1 0x0 DUP1 REVERT JUMPDEST DUP2 ADD SWAP1 DUP1 DUP1 CALLDATALOAD PUSH20 0xFFFFFFFFFFFFFFFFFFFFFFFFFFFFFFFFFFFFFFFF AND SWAP1 PUSH1 0x20 ADD SWAP1 SWAP3 SWAP2 SWAP1 DUP1 CALLDATALOAD SWAP1 PUSH1 0x20 ADD SWAP1 SWAP3 SWAP2 SWAP1 POP POP POP PUSH2 0x1BA JUMP JUMPDEST PUSH1 0x40 MLOAD DUP1 DUP3 ISZERO ISZERO ISZERO ISZERO DUP2 MSTORE PUSH1 0x20 ADD SWAP2 POP POP PUSH1 0x40 MLOAD DUP1 SWAP2 SUB SWAP1 RETURN JUMPDEST PUSH1 0x0 PUSH1 0x1 SLOAD SWAP1 POP SWAP1 JUMP JUMPDEST PUSH2 0x16F CALLER DUP3 PUSH2 0x3D6 JUMP JUMPDEST POP JUMP JUMPDEST PUSH1 0x0 DUP1 PUSH1 0x0 DUP4 PUSH20 0xFFFFFFFFFFFFFFFFFFFFFFFFFFFFFFFFFFFFFFFF AND PUSH20 0xFFFFFFFFFFFFFFFFFFFFFFFFFFFFFFFFFFFFFFFF AND DUP2 MSTORE PUSH1 0x20 ADD SWAP1 DUP2 MSTORE PUSH1 0x20 ADD PUSH1 0x0 KECCAK256 SLOAD SWAP1 POP SWAP2 SWAP1 POP JUMP JUMPDEST PUSH1 0x0 DUP1 PUSH1 0x0 CALLER PUSH20 0xFFFFFFFFFFFFFFFFFFFFFFFFFFFFFFFFFFFFFFFF AND PUSH20 0xFFFFFFFFFFFFFFFFFFFFFFFFFFFFFFFFFFFFFFFF AND DUP2 MSTORE PUSH1 0x20 ADD SWAP1 DUP2 MSTORE PUSH1 0x20 ADD PUSH1 0x0 KECCAK256 SLOAD DUP3 GT ISZERO PUSH2 0x207 JUMPI PUSH1 0x0 DUP1 REVERT JUMPDEST PUSH1 0x0 PUSH20 0xFFFFFFFFFFFFFFFFFFFFFFFFFFFFFFFFFFFFFFFF AND DUP4 PUSH20 0xFFFFFFFFFFFFFFFFFFFFFFFFFFFFFFFFFFFFFFFF AND EQ ISZERO PUSH2 0x241 JUMPI PUSH1 0x0 DUP1 REVERT JUMPDEST PUSH2 0x292 DUP3 PUSH1 0x0 DUP1 CALLER PUSH20 0xFFFFFFFFFFFFFFFFFFFFFFFFFFFFFFFFFFFFFFFF AND PUSH20 0xFFFFFFFFFFFFFFFFFFFFFFFFFFFFFFFFFFFFFFFF AND DUP2 MSTORE PUSH1 0x20 ADD SWAP1 DUP2 MSTORE PUSH1 0x20 ADD PUSH1 0x0 KECCAK256 SLOAD PUSH2 0x587 SWAP1 SWAP2 SWAP1 PUSH4 0xFFFFFFFF AND JUMP JUMPDEST PUSH1 0x0 DUP1 CALLER PUSH20 0xFFFFFFFFFFFFFFFFFFFFFFFFFFFFFFFFFFFFFFFF AND PUSH20 0xFFFFFFFFFFFFFFFFFFFFFFFFFFFFFFFFFFFFFFFF AND DUP2 MSTORE PUSH1 0x20 ADD SWAP1 DUP2 MSTORE PUSH1 0x20 ADD PUSH1 0x0 KECCAK256 DUP2 SWAP1 SSTORE POP PUSH2 0x325 DUP3 PUSH1 0x0 DUP1 DUP7 PUSH20 0xFFFFFFFFFFFFFFFFFFFFFFFFFFFFFFFFFFFFFFFF AND PUSH20 0xFFFFFFFFFFFFFFFFFFFFFFFFFFFFFFFFFFFFFFFF AND DUP2 MSTORE PUSH1 0x20 ADD SWAP1 DUP2 MSTORE PUSH1 0x20 ADD PUSH1 0x0 KECCAK256 SLOAD PUSH2 0x59E SWAP1 SWAP2 SWAP1 PUSH4 0xFFFFFFFF AND JUMP JUMPDEST PUSH1 0x0 DUP1 DUP6 PUSH20 0xFFFFFFFFFFFFFFFFFFFFFFFFFFFFFFFFFFFFFFFF AND PUSH20 0xFFFFFFFFFFFFFFFFFFFFFFFFFFFFFFFFFFFFFFFF AND DUP2 MSTORE PUSH1 0x20 ADD SWAP1 DUP2 MSTORE PUSH1 0x20 ADD PUSH1 0x0 KECCAK256 DUP2 SWAP1 SSTORE POP DUP3 PUSH20 0xFFFFFFFFFFFFFFFFFFFFFFFFFFFFFFFFFFFFFFFF AND CALLER PUSH20 0xFFFFFFFFFFFFFFFFFFFFFFFFFFFFFFFFFFFFFFFF AND PUSH32 0xDDF252AD1BE2C89B69C2B068FC378DAA952BA7F163C4A11628F55A4DF523B3EF DUP5 PUSH1 0x40 MLOAD DUP1 DUP3 DUP2 MSTORE PUSH1 0x20 ADD SWAP2 POP POP PUSH1 0x40 MLOAD DUP1 SWAP2 SUB SWAP1 LOG3 PUSH1 0x1 SWAP1 POP SWAP3 SWAP2 POP POP JUMP JUMPDEST PUSH1 0x0 DUP1 DUP4 PUSH20 0xFFFFFFFFFFFFFFFFFFFFFFFFFFFFFFFFFFFFFFFF AND PUSH20 0xFFFFFFFFFFFFFFFFFFFFFFFFFFFFFFFFFFFFFFFF AND DUP2 MSTORE PUSH1 0x20 ADD SWAP1 DUP2 MSTORE PUSH1 0x20 ADD PUSH1 0x0 KECCAK256 SLOAD DUP2 GT ISZERO PUSH2 0x421 JUMPI PUSH1 0x0 DUP1 REVERT JUMPDEST PUSH2 0x472 DUP2 PUSH1 0x0 DUP1 DUP6 PUSH20 0xFFFFFFFFFFFFFFFFFFFFFFFFFFFFFFFFFFFFFFFF AND PUSH20 0xFFFFFFFFFFFFFFFFFFFFFFFFFFFFFFFFFFFFFFFF AND DUP2 MSTORE PUSH1 0x20 ADD SWAP1 DUP2 MSTORE PUSH1 0x20 ADD PUSH1 0x0 KECCAK256 SLOAD PUSH2 0x587 SWAP1 SWAP2 SWAP1 PUSH4 0xFFFFFFFF AND JUMP JUMPDEST PUSH1 0x0 DUP1 DUP5 PUSH20 0xFFFFFFFFFFFFFFFFFFFFFFFFFFFFFFFFFFFFFFFF AND PUSH20 0xFFFFFFFFFFFFFFFFFFFFFFFFFFFFFFFFFFFFFFFF AND DUP2 MSTORE PUSH1 0x20 ADD SWAP1 DUP2 MSTORE PUSH1 0x20 ADD PUSH1 0x0 KECCAK256 DUP2 SWAP1 SSTORE POP PUSH2 0x4C9 DUP2 PUSH1 0x1 SLOAD PUSH2 0x587 SWAP1 SWAP2 SWAP1 PUSH4 0xFFFFFFFF AND JUMP JUMPDEST PUSH1 0x1 DUP2 SWAP1 SSTORE POP DUP2 PUSH20 0xFFFFFFFFFFFFFFFFFFFFFFFFFFFFFFFFFFFFFFFF AND PUSH32 0xCC16F5DBB4873280815C1EE09DBD06736CFFCC184412CF7A71A0FDB75D397CA5 DUP3 PUSH1 0x40 MLOAD DUP1 DUP3 DUP2 MSTORE PUSH1 0x20 ADD SWAP2 POP POP PUSH1 0x40 MLOAD DUP1 SWAP2 SUB SWAP1 LOG2 PUSH1 0x0 PUSH20 0xFFFFFFFFFFFFFFFFFFFFFFFFFFFFFFFFFFFFFFFF AND DUP3 PUSH20 0xFFFFFFFFFFFFFFFFFFFFFFFFFFFFFFFFFFFFFFFF AND PUSH32 0xDDF252AD1BE2C89B69C2B068FC378DAA952BA7F163C4A11628F55A4DF523B3EF DUP4 PUSH1 0x40 MLOAD DUP1 DUP3 DUP2 MSTORE PUSH1 0x20 ADD SWAP2 POP POP PUSH1 0x40 MLOAD DUP1 SWAP2 SUB SWAP1 LOG3 POP POP JUMP JUMPDEST PUSH1 0x0 DUP3 DUP3 GT ISZERO PUSH2 0x593 JUMPI INVALID JUMPDEST DUP2 DUP4 SUB SWAP1 POP SWAP3 SWAP2 POP POP JUMP JUMPDEST PUSH1 0x0 DUP2 DUP4 ADD SWAP1 POP DUP3 DUP2 LT ISZERO PUSH2 0x5AF JUMPI INVALID JUMPDEST DUP1 SWAP1 POP SWAP3 SWAP2 POP POP JUMP INVALID LOG2 PUSH6 0x627A7A723158 KECCAK256 SWAP8 NUMBER PUSH20 0x8BEE1CEB38555ABCD510D0CA985A0C94128BEDE1 RETURN DUP14 PUSH10 0xD8885D73684C64736F6C PUSH4 0x4300050C STOP ORIGIN "},"gasEstimates":{"creation":{"codeDepositCost":"303400","executionCost":"343","totalCost":"303743"},"external":{"balanceOf(address)":"618","burn(uint256)":"infinite","totalSupply()":"391","transfer(address,uint256)":"infinite"},"internal":{"_burn(address,uint256)":"infinite"}},"methodIdentifiers":{"balanceOf(address)":"70a08231","burn(uint256)":"42966c68","totalSupply()":"18160ddd","transfer(address,uint256)":"a9059cbb"}},"userdoc":{"methods":{}}}