{"abi":[{"inputs":[],"payable":false,"stateMutability":"nonpayable","type":"constructor"},{"anonymous":false,"inputs":[{"indexed":true,"internalType":"address","name":"owner","type":"address"},{"indexed":true,"internalType":"address","name":"spender","type":"address"},{"indexed":false,"internalType":"uint256","name":"value","type":"uint256"}],"name":"Approval","type":"event"},{"anonymous":false,"inputs":[{"indexed":true,"internalType":"address","name":"burner","type":"address"},{"indexed":false,"internalType":"uint256","name":"value","type":"uint256"}],"name":"Burn","type":"event"},{"anonymous":false,"inputs":[{"indexed":true,"internalType":"address","name":"to","type":"address"},{"indexed":false,"internalType":"uint256","name":"amount","type":"uint256"}],"name":"Mint","type":"event"},{"anonymous":false,"inputs":[],"name":"MintFinished","type":"event"},{"anonymous":false,"inputs":[{"indexed":false,"internalType":"uint256","name":"NRTReleased","type":"uint256"}],"name":"NRTDistributed","type":"event"},{"anonymous":false,"inputs":[{"indexed":false,"internalType":"string","name":"pool","type":"string"},{"indexed":false,"internalType":"address","name":"sendAddress","type":"address"},{"indexed":false,"internalType":"uint256","name":"value","type":"uint256"}],"name":"NRTTransfer","type":"event"},{"anonymous":false,"inputs":[{"indexed":true,"internalType":"address","name":"previousOwner","type":"address"}],"name":"OwnershipRenounced","type":"event"},{"anonymous":false,"inputs":[{"indexed":true,"internalType":"address","name":"previousOwner","type":"address"},{"indexed":true,"internalType":"address","name":"newOwner","type":"address"}],"name":"OwnershipTransferred","type":"event"},{"anonymous":false,"inputs":[{"indexed":false,"internalType":"uint256","name":"amount","type":"uint256"}],"name":"TokensBurned","type":"event"},{"anonymous":false,"inputs":[{"indexed":true,"internalType":"address","name":"from","type":"address"},{"indexed":true,"internalType":"address","name":"to","type":"address"},{"indexed":false,"internalType":"uint256","name":"value","type":"uint256"}],"name":"Transfer","type":"event"},{"constant":true,"inputs":[],"name":"AnnualNRTAmount","outputs":[{"internalType":"uint256","name":"","type":"uint256"}],"payable":false,"stateMutability":"view","type":"function"},{"constant":true,"inputs":[],"name":"LastNRTRelease","outputs":[{"internalType":"uint256","name":"","type":"uint256"}],"payable":false,"stateMutability":"view","type":"function"},{"constant":true,"inputs":[],"name":"MonthCount","outputs":[{"internalType":"uint256","name":"","type":"uint256"}],"payable":false,"stateMutability":"view","type":"function"},{"constant":true,"inputs":[],"name":"MonthlyNRTAmount","outputs":[{"internalType":"uint256","name":"","type":"uint256"}],"payable":false,"stateMutability":"view","type":"function"},{"constant":false,"inputs":[],"name":"MonthlyNRTRelease","outputs":[{"internalType":"bool","name":"","type":"bool"}],"payable":false,"stateMutability":"nonpayable","type":"function"},{"constant":true,"inputs":[],"name":"TimeAlly","outputs":[{"internalType":"address","name":"","type":"address"}],"payable":false,"stateMutability":"view","type":"function"},{"constant":true,"inputs":[],"name":"TimeAllyNRT","outputs":[{"internalType":"uint256","name":"","type":"uint256"}],"payable":false,"stateMutability":"view","type":"function"},{"constant":true,"inputs":[{"internalType":"address","name":"_owner","type":"address"},{"internalType":"address","name":"_spender","type":"address"}],"name":"allowance","outputs":[{"internalType":"uint256","name":"","type":"uint256"}],"payable":false,"stateMutability":"view","type":"function"},{"constant":false,"inputs":[{"internalType":"address","name":"_spender","type":"address"},{"internalType":"uint256","name":"_value","type":"uint256"}],"name":"approve","outputs":[{"internalType":"bool","name":"","type":"bool"}],"payable":false,"stateMutability":"nonpayable","type":"function"},{"constant":true,"inputs":[{"internalType":"address","name":"_owner","type":"address"}],"name":"balanceOf","outputs":[{"internalType":"uint256","name":"","type":"uint256"}],"payable":false,"stateMutability":"view","type":"function"},{"constant":false,"inputs":[{"internalType":"uint256","name":"_value","type":"uint256"}],"name":"burn","outputs":[],"payable":false,"stateMutability":"nonpayable","type":"function"},{"constant":true,"inputs":[],"name":"burnTokenBal","outputs":[{"internalType":"uint256","name":"","type":"uint256"}],"payable":false,"stateMutability":"view","type":"function"},{"constant":true,"inputs":[],"name":"buzzCafe","outputs":[{"internalType":"address","name":"","type":"address"}],"payable":false,"stateMutability":"view","type":"function"},{"constant":true,"inputs":[],"name":"buzzCafeNRT","outputs":[{"internalType":"uint256","name":"","type":"uint256"}],"payable":false,"stateMutability":"view","type":"function"},{"constant":true,"inputs":[],"name":"cap","outputs":[{"internalType":"uint256","name":"","type":"uint256"}],"payable":false,"stateMutability":"view","type":"function"},{"constant":true,"inputs":[],"name":"contingencyFunds","outputs":[{"internalType":"address","name":"","type":"address"}],"payable":false,"stateMutability":"view","type":"function"},{"constant":true,"inputs":[],"name":"contingencyFundsBal","outputs":[{"internalType":"uint256","name":"","type":"uint256"}],"payable":false,"stateMutability":"view","type":"function"},{"constant":true,"inputs":[],"name":"decimals","outputs":[{"internalType":"uint8","name":"","type":"uint8"}],"payable":false,"stateMutability":"view","type":"function"},{"constant":false,"inputs":[{"internalType":"address","name":"_spender","type":"address"},{"internalType":"uint256","name":"_subtractedValue","type":"uint256"}],"name":"decreaseApproval","outputs":[{"internalType":"bool","name":"","type":"bool"}],"payable":false,"stateMutability":"nonpayable","type":"function"},{"constant":false,"inputs":[],"name":"finishMinting","outputs":[{"internalType":"bool","name":"","type":"bool"}],"payable":false,"stateMutability":"nonpayable","type":"function"},{"constant":false,"inputs":[{"internalType":"address","name":"_spender","type":"address"},{"internalType":"uint256","name":"_addedValue","type":"uint256"}],"name":"increaseApproval","outputs":[{"internalType":"bool","name":"","type":"bool"}],"payable":false,"stateMutability":"nonpayable","type":"function"},{"constant":true,"inputs":[],"name":"kmPards","outputs":[{"internalType":"address","name":"","type":"address"}],"payable":false,"stateMutability":"view","type":"function"},{"constant":true,"inputs":[],"name":"kmPardsBal","outputs":[{"internalType":"uint256","name":"","type":"uint256"}],"payable":false,"stateMutability":"view","type":"function"},{"constant":true,"inputs":[],"name":"luckPoolBal","outputs":[{"internalType":"uint256","name":"","type":"uint256"}],"payable":false,"stateMutability":"view","type":"function"},{"constant":true,"inputs":[],"name":"marketingAndRNR","outputs":[{"internalType":"address","name":"","type":"address"}],"payable":false,"stateMutability":"view","type":"function"},{"constant":true,"inputs":[],"name":"marketingAndRNRBal","outputs":[{"internalType":"uint256","name":"","type":"uint256"}],"payable":false,"stateMutability":"view","type":"function"},{"constant":false,"inputs":[{"internalType":"address","name":"_to","type":"address"},{"internalType":"uint256","name":"_amount","type":"uint256"}],"name":"mint","outputs":[{"internalType":"bool","name":"","type":"bool"}],"payable":false,"stateMutability":"nonpayable","type":"function"},{"constant":true,"inputs":[],"name":"mintingFinished","outputs":[{"internalType":"bool","name":"","type":"bool"}],"payable":false,"stateMutability":"view","type":"function"},{"constant":true,"inputs":[],"name":"name","outputs":[{"internalType":"string","name":"","type":"string"}],"payable":false,"stateMutability":"view","type":"function"},{"constant":true,"inputs":[],"name":"newTalentsAndPartnerships","outputs":[{"internalType":"address","name":"","type":"address"}],"payable":false,"stateMutability":"view","type":"function"},{"constant":true,"inputs":[],"name":"newTalentsAndPartnershipsBal","outputs":[{"internalType":"uint256","name":"","type":"uint256"}],"payable":false,"stateMutability":"view","type":"function"},{"constant":true,"inputs":[],"name":"owner","outputs":[{"internalType":"address","name":"","type":"address"}],"payable":false,"stateMutability":"view","type":"function"},{"constant":true,"inputs":[],"name":"platformMaintenance","outputs":[{"internalType":"address","name":"","type":"address"}],"payable":false,"stateMutability":"view","type":"function"},{"constant":true,"inputs":[],"name":"platformMaintenanceBal","outputs":[{"internalType":"uint256","name":"","type":"uint256"}],"payable":false,"stateMutability":"view","type":"function"},{"constant":false,"inputs":[],"name":"renounceOwnership","outputs":[],"payable":false,"stateMutability":"nonpayable","type":"function"},{"constant":true,"inputs":[],"name":"researchAndDevelopment","outputs":[{"internalType":"address","name":"","type":"address"}],"payable":false,"stateMutability":"view","type":"function"},{"constant":true,"inputs":[],"name":"researchAndDevelopmentBal","outputs":[{"internalType":"uint256","name":"","type":"uint256"}],"payable":false,"stateMutability":"view","type":"function"},{"constant":true,"inputs":[],"name":"symbol","outputs":[{"internalType":"string","name":"","type":"string"}],"payable":false,"stateMutability":"view","type":"function"},{"constant":true,"inputs":[],"name":"timeSwappers","outputs":[{"internalType":"address","name":"","type":"address"}],"payable":false,"stateMutability":"view","type":"function"},{"constant":true,"inputs":[],"name":"timeSwappersNRT","outputs":[{"internalType":"uint256","name":"","type":"uint256"}],"payable":false,"stateMutability":"view","type":"function"},{"constant":true,"inputs":[],"name":"totalSupply","outputs":[{"internalType":"uint256","name":"","type":"uint256"}],"payable":false,"stateMutability":"view","type":"function"},{"constant":false,"inputs":[{"internalType":"address","name":"_to","type":"address"},{"internalType":"uint256","name":"_value","type":"uint256"}],"name":"transfer","outputs":[{"internalType":"bool","name":"","type":"bool"}],"payable":false,"stateMutability":"nonpayable","type":"function"},{"constant":false,"inputs":[{"internalType":"address","name":"_from","type":"address"},{"internalType":"address","name":"_to","type":"address"},{"internalType":"uint256","name":"_value","type":"uint256"}],"name":"transferFrom","outputs":[{"internalType":"bool","name":"","type":"bool"}],"payable":false,"stateMutability":"nonpayable","type":"function"},{"constant":false,"inputs":[{"internalType":"address","name":"_newOwner","type":"address"}],"name":"transferOwnership","outputs":[],"payable":false,"stateMutability":"nonpayable","type":"function"}],"devdoc":{"methods":{"MonthlyNRTRelease()":{"details":"To invoke monthly release","return":"true if success"},"allowance(address,address)":{"details":"Function to check the amount of tokens that an owner allowed to a spender.","params":{"_owner":"address The address which owns the funds.","_spender":"address The address which will spend the funds."},"return":"A uint256 specifying the amount of tokens still available for the spender."},"approve(address,uint256)":{"details":"Approve the passed address to spend the specified amount of tokens on behalf of msg.sender. Beware that changing an allowance with this method brings the risk that someone may use both the old and the new allowance by unfortunate transaction ordering. One possible solution to mitigate this race condition is to first reduce the spender's allowance to 0 and set the desired value afterwards: https://github.com/ethereum/EIPs/issues/20#issuecomment-263524729","params":{"_spender":"The address which will spend the funds.","_value":"The amount of tokens to be spent."}},"balanceOf(address)":{"details":"Gets the balance of the specified address.","params":{"_owner":"The address to query the the balance of."},"return":"An uint256 representing the amount owned by the passed address."},"burn(uint256)":{"details":"Burns a specific amount of tokens.","params":{"_value":"The amount of token to be burned."}},"constructor":{"details":"Constructor"},"decreaseApproval(address,uint256)":{"details":"Decrease the amount of tokens that an owner allowed to a spender. approve should be called when allowed[_spender] == 0. To decrement allowed value is better to use this function to avoid 2 calls (and wait until the first transaction is mined) From MonolithDAO Token.sol","params":{"_spender":"The address which will spend the funds.","_subtractedValue":"The amount of tokens to decrease the allowance by."}},"finishMinting()":{"details":"Function to stop minting new tokens.","return":"True if the operation was successful."},"increaseApproval(address,uint256)":{"details":"Increase the amount of tokens that an owner allowed to a spender. approve should be called when allowed[_spender] == 0. To increment allowed value is better to use this function to avoid 2 calls (and wait until the first transaction is mined) From MonolithDAO Token.sol","params":{"_addedValue":"The amount of tokens to increase the allowance by.","_spender":"The address which will spend the funds."}},"mint(address,uint256)":{"details":"Function to mint tokens","params":{"_amount":"The amount of tokens to mint.","_to":"The address that will receive the minted tokens."},"return":"A boolean that indicates if the operation was successful."},"renounceOwnership()":{"details":"Allows the current owner to relinquish control of the contract."},"totalSupply()":{"details":"Total number of tokens in existence"},"transfer(address,uint256)":{"details":"Transfer token for a specified address","params":{"_to":"The address to transfer to.","_value":"The amount to be transferred."}},"transferFrom(address,address,uint256)":{"details":"Transfer tokens from one address to another","params":{"_from":"address The address which you want to send tokens from","_to":"address The address which you want to transfer to","_value":"uint256 the amount of tokens to be transferred"}},"transferOwnership(address)":{"details":"Allows the current owner to transfer control of the contract to a newOwner.","params":{"_newOwner":"The address to transfer ownership to."}}}},"evm":{"assembly":"    /* \"Eraswap.sol\":11351:17271  contract NRTManager is Ownable, EraswapERC20{... */\n  mstore(0x40, 0x80)\n    /* \"Eraswap.sol\":9437:9442  false */\n  0x00\n    /* \"Eraswap.sol\":9407:9442  bool public mintingFinished = false */\n  0x06\n  exp(0x0100, 0x14)\n  dup2\n  sload\n  dup2\n  0xff\n  mul\n  not\n  and\n  swap1\n  dup4\n  iszero\n  iszero\n  mul\n  or\n  swap1\n  sstore\n  pop\n    /* \"Eraswap.sol\":11028:11059  string private name = \"Eraswap\" */\n  mload(0x40)\n  dup1\n  0x40\n  add\n  0x40\n  mstore\n  dup1\n  0x07\n  dup2\n  mstore\n  0x20\n  add\n  0x4572617377617000000000000000000000000000000000000000000000000000\n  dup2\n  mstore\n  pop\n  0x08\n  swap1\n  dup1\n  mload\n  swap1\n  0x20\n  add\n  swap1\n  tag_1\n  swap3\n  swap2\n  swap1\n  tag_2\n  jump\t// in\ntag_1:\n  pop\n    /* \"Eraswap.sol\":11063:11092  string private symbol = \"EST\" */\n  mload(0x40)\n  dup1\n  0x40\n  add\n  0x40\n  mstore\n  dup1\n  0x03\n  dup2\n  mstore\n  0x20\n  add\n  0x4553540000000000000000000000000000000000000000000000000000000000\n  dup2\n  mstore\n  pop\n  0x09\n  swap1\n  dup1\n  mload\n  swap1\n  0x20\n  add\n  swap1\n  tag_3\n  swap3\n  swap2\n  swap1\n  tag_2\n  jump\t// in\ntag_3:\n  pop\n    /* \"Eraswap.sol\":11121:11123  18 */\n  0x12\n    /* \"Eraswap.sol\":11096:11123  uint8 private decimals = 18 */\n  0x0a\n  exp(0x0100, 0x00)\n  dup2\n  sload\n  dup2\n  0xff\n  mul\n  not\n  and\n  swap1\n  dup4\n  0xff\n  and\n  mul\n  or\n  swap1\n  sstore\n  pop\n    /* \"Eraswap.sol\":11149:11177  9100000000000000000000000000 */\n  0x1d6757f47b1c8ef70c000000\n    /* \"Eraswap.sol\":11127:11177  uint256 private cap = 9100000000000000000000000000 */\n  0x0b\n  sstore\n    /* \"Eraswap.sol\":17089:17268  constructor() public{... */\n  callvalue\n    /* \"--CODEGEN--\":8:17   */\n  dup1\n    /* \"--CODEGEN--\":5:7   */\n  iszero\n  tag_4\n  jumpi\n    /* \"--CODEGEN--\":30:31   */\n  0x00\n    /* \"--CODEGEN--\":27:28   */\n  dup1\n    /* \"--CODEGEN--\":20:32   */\n  revert\n    /* \"--CODEGEN--\":5:7   */\ntag_4:\n    /* \"Eraswap.sol\":17089:17268  constructor() public{... */\n  pop\n    /* \"Eraswap.sol\":11286:11289  cap */\n  sload(0x0b)\n    /* \"Eraswap.sol\":2619:2770  constructor(string memory _name, string memory _symbol, uint8 _decimals) public {... */\n  mload(0x40)\n  dup1\n  0x40\n  add\n  0x40\n  mstore\n  dup1\n  0x07\n  dup2\n  mstore\n  0x20\n  add\n  0x4572617377617000000000000000000000000000000000000000000000000000\n  dup2\n  mstore\n  pop\n  mload(0x40)\n  dup1\n  0x40\n  add\n  0x40\n  mstore\n  dup1\n  0x03\n  dup2\n  mstore\n  0x20\n  add\n  0x4553540000000000000000000000000000000000000000000000000000000000\n  dup2\n  mstore\n  pop\n    /* \"Eraswap.sol\":11270:11272  18 */\n  0x12\n    /* \"Eraswap.sol\":2712:2717  _name */\n  dup3\n    /* \"Eraswap.sol\":2705:2709  name */\n  0x00\n    /* \"Eraswap.sol\":2705:2717  name = _name */\n  swap1\n  dup1\n  mload\n  swap1\n  0x20\n  add\n  swap1\n  tag_11\n  swap3\n  swap2\n  swap1\n  tag_2\n  jump\t// in\ntag_11:\n  pop\n    /* \"Eraswap.sol\":2732:2739  _symbol */\n  dup2\n    /* \"Eraswap.sol\":2723:2729  symbol */\n  0x01\n    /* \"Eraswap.sol\":2723:2739  symbol = _symbol */\n  swap1\n  dup1\n  mload\n  swap1\n  0x20\n  add\n  swap1\n  tag_12\n  swap3\n  swap2\n  swap1\n  tag_2\n  jump\t// in\ntag_12:\n  pop\n    /* \"Eraswap.sol\":2756:2765  _decimals */\n  dup1\n    /* \"Eraswap.sol\":2745:2753  decimals */\n  0x02\n  0x00\n    /* \"Eraswap.sol\":2745:2765  decimals = _decimals */\n  0x0100\n  exp\n  dup2\n  sload\n  dup2\n  0xff\n  mul\n  not\n  and\n  swap1\n  dup4\n  0xff\n  and\n  mul\n  or\n  swap1\n  sstore\n  pop\n    /* \"Eraswap.sol\":2619:2770  constructor(string memory _name, string memory _symbol, uint8 _decimals) public {... */\n  pop\n  pop\n  pop\n    /* \"Eraswap.sol\":3132:3142  msg.sender */\n  caller\n    /* \"Eraswap.sol\":3124:3129  owner */\n  0x06\n  0x00\n    /* \"Eraswap.sol\":3124:3142  owner = msg.sender */\n  0x0100\n  exp\n  dup2\n  sload\n  dup2\n  0xffffffffffffffffffffffffffffffffffffffff\n  mul\n  not\n  and\n  swap1\n  dup4\n  0xffffffffffffffffffffffffffffffffffffffff\n  and\n  mul\n  or\n  swap1\n  sstore\n  pop\n    /* \"Eraswap.sol\":10515:10516  0 */\n  0x00\n    /* \"Eraswap.sol\":10508:10512  _cap */\n  dup2\n    /* \"Eraswap.sol\":10508:10516  _cap > 0 */\n  gt\n    /* \"Eraswap.sol\":10500:10517  require(_cap > 0) */\n  tag_15\n  jumpi\n  0x00\n  dup1\n  revert\ntag_15:\n    /* \"Eraswap.sol\":10529:10533  _cap */\n  dup1\n    /* \"Eraswap.sol\":10523:10526  cap */\n  0x07\n    /* \"Eraswap.sol\":10523:10533  cap = _cap */\n  dup2\n  swap1\n  sstore\n  pop\n    /* \"Eraswap.sol\":10461:10538  constructor(uint256 _cap) public {... */\n  pop\n    /* \"Eraswap.sol\":11296:11341  mint(msg.sender, 910000000000000000000000000) */\n  tag_17\n    /* \"Eraswap.sol\":11301:11311  msg.sender */\n  caller\n    /* \"Eraswap.sol\":11313:11340  910000000000000000000000000 */\n  0x02f0bbfed91c74b24e000000\n    /* \"Eraswap.sol\":11296:11300  mint */\n  shl(0x20, tag_18)\n    /* \"Eraswap.sol\":11296:11341  mint(msg.sender, 910000000000000000000000000) */\n  0x20\n  shr\n  jump\t// in\ntag_17:\n  pop\n    /* \"Eraswap.sol\":17132:17135  now */\n  timestamp\n    /* \"Eraswap.sol\":17115:17129  LastNRTRelease */\n  0x0c\n    /* \"Eraswap.sol\":17115:17135  LastNRTRelease = now */\n  dup2\n  swap1\n  sstore\n  pop\n    /* \"Eraswap.sol\":17159:17186  819000000000000000000000000 */\n  0x02a575fef6999c3a13000000\n    /* \"Eraswap.sol\":17141:17156  AnnualNRTAmount */\n  0x0e\n    /* \"Eraswap.sol\":17141:17186  AnnualNRTAmount = 819000000000000000000000000 */\n  dup2\n  swap1\n  sstore\n  pop\n    /* \"Eraswap.sol\":17211:17243  AnnualNRTAmount.div(uint256(12)) */\n  tag_20\n    /* \"Eraswap.sol\":17239:17241  12 */\n  0x0c\n    /* \"Eraswap.sol\":17211:17226  AnnualNRTAmount */\n  sload(0x0e)\n    /* \"Eraswap.sol\":17211:17230  AnnualNRTAmount.div */\n  or(tag_0_210, shl(0x20, tag_21))\n  swap1\n    /* \"Eraswap.sol\":17211:17243  AnnualNRTAmount.div(uint256(12)) */\n  swap2\n  swap1\n  0x20\n  shr\n  jump\t// in\ntag_20:\n    /* \"Eraswap.sol\":17192:17208  MonthlyNRTAmount */\n  0x0d\n    /* \"Eraswap.sol\":17192:17243  MonthlyNRTAmount = AnnualNRTAmount.div(uint256(12)) */\n  dup2\n  swap1\n  sstore\n  pop\n    /* \"Eraswap.sol\":17262:17263  0 */\n  0x00\n    /* \"Eraswap.sol\":17249:17259  MonthCount */\n  0x0f\n    /* \"Eraswap.sol\":17249:17263  MonthCount = 0 */\n  dup2\n  swap1\n  sstore\n  pop\n    /* \"Eraswap.sol\":11351:17271  contract NRTManager is Ownable, EraswapERC20{... */\n  jump(tag_22)\n    /* \"Eraswap.sol\":10774:10952  function mint(... */\ntag_18:\n    /* \"Eraswap.sol\":10854:10858  bool */\n  0x00\n    /* \"Eraswap.sol\":10905:10908  cap */\n  sload(0x07)\n    /* \"Eraswap.sol\":10876:10901  totalSupply_.add(_amount) */\n  tag_24\n    /* \"Eraswap.sol\":10893:10900  _amount */\n  dup4\n    /* \"Eraswap.sol\":10876:10888  totalSupply_ */\n  sload(0x04)\n    /* \"Eraswap.sol\":10876:10892  totalSupply_.add */\n  or(tag_0_172, shl(0x20, tag_25))\n  swap1\n    /* \"Eraswap.sol\":10876:10901  totalSupply_.add(_amount) */\n  swap2\n  swap1\n  0x20\n  shr\n  jump\t// in\ntag_24:\n    /* \"Eraswap.sol\":10876:10908  totalSupply_.add(_amount) <= cap */\n  gt\n  iszero\n    /* \"Eraswap.sol\":10868:10909  require(totalSupply_.add(_amount) <= cap) */\n  tag_26\n  jumpi\n  0x00\n  dup1\n  revert\ntag_26:\n    /* \"Eraswap.sol\":10923:10947  super.mint(_to, _amount) */\n  tag_27\n    /* \"Eraswap.sol\":10934:10937  _to */\n  dup4\n    /* \"Eraswap.sol\":10939:10946  _amount */\n  dup4\n    /* \"Eraswap.sol\":10923:10933  super.mint */\n  or(tag_0_178, shl(0x20, tag_28))\n    /* \"Eraswap.sol\":10923:10947  super.mint(_to, _amount) */\n  0x20\n  shr\n  jump\t// in\ntag_27:\n    /* \"Eraswap.sol\":10916:10947  return super.mint(_to, _amount) */\n  swap1\n  pop\n    /* \"Eraswap.sol\":10774:10952  function mint(... */\n  swap3\n  swap2\n  pop\n  pop\n  jump\t// out\n    /* \"Eraswap.sol\":4792:5075  function div(uint256 _a, uint256 _b) internal pure returns (uint256) {... */\ntag_21:\n    /* \"Eraswap.sol\":4852:4859  uint256 */\n  0x00\n    /* \"Eraswap.sol\":5068:5070  _b */\n  dup2\n    /* \"Eraswap.sol\":5063:5065  _a */\n  dup4\n    /* \"Eraswap.sol\":5063:5070  _a / _b */\n  dup2\n  tag_30\n  jumpi\n  invalid\ntag_30:\n  div\n    /* \"Eraswap.sol\":5056:5070  return _a / _b */\n  swap1\n  pop\n    /* \"Eraswap.sol\":4792:5075  function div(uint256 _a, uint256 _b) internal pure returns (uint256) {... */\n  swap3\n  swap2\n  pop\n  pop\n  jump\t// out\n    /* \"Eraswap.sol\":5365:5493  function add(uint256 _a, uint256 _b) internal pure returns (uint256 c) {... */\ntag_25:\n    /* \"Eraswap.sol\":5425:5434  uint256 c */\n  0x00\n    /* \"Eraswap.sol\":5451:5453  _b */\n  dup2\n    /* \"Eraswap.sol\":5446:5448  _a */\n  dup4\n    /* \"Eraswap.sol\":5446:5453  _a + _b */\n  add\n    /* \"Eraswap.sol\":5442:5453  c = _a + _b */\n  swap1\n  pop\n    /* \"Eraswap.sol\":5471:5473  _a */\n  dup3\n    /* \"Eraswap.sol\":5466:5467  c */\n  dup2\n    /* \"Eraswap.sol\":5466:5473  c >= _a */\n  lt\n  iszero\n    /* \"Eraswap.sol\":5459:5474  assert(c >= _a) */\n  tag_32\n  jumpi\n  invalid\ntag_32:\n    /* \"Eraswap.sol\":5487:5488  c */\n  dup1\n    /* \"Eraswap.sol\":5480:5488  return c */\n  swap1\n  pop\n    /* \"Eraswap.sol\":5365:5493  function add(uint256 _a, uint256 _b) internal pure returns (uint256 c) {... */\n  swap3\n  swap2\n  pop\n  pop\n  jump\t// out\n    /* \"Eraswap.sol\":9825:10137  function mint(... */\ntag_28:\n    /* \"Eraswap.sol\":9939:9943  bool */\n  0x00\n    /* \"Eraswap.sol\":9571:9576  owner */\n  0x06\n  0x00\n  swap1\n  sload\n  swap1\n  0x0100\n  exp\n  swap1\n  div\n  0xffffffffffffffffffffffffffffffffffffffff\n  and\n    /* \"Eraswap.sol\":9557:9576  msg.sender == owner */\n  0xffffffffffffffffffffffffffffffffffffffff\n  and\n    /* \"Eraswap.sol\":9557:9567  msg.sender */\n  caller\n    /* \"Eraswap.sol\":9557:9576  msg.sender == owner */\n  0xffffffffffffffffffffffffffffffffffffffff\n  and\n  eq\n    /* \"Eraswap.sol\":9549:9577  require(msg.sender == owner) */\n  tag_34\n  jumpi\n  0x00\n  dup1\n  revert\ntag_34:\n    /* \"Eraswap.sol\":9482:9497  mintingFinished */\n  0x06\n  0x14\n  swap1\n  sload\n  swap1\n  0x0100\n  exp\n  swap1\n  div\n  0xff\n  and\n    /* \"Eraswap.sol\":9481:9497  !mintingFinished */\n  iszero\n    /* \"Eraswap.sol\":9473:9498  require(!mintingFinished) */\n  tag_36\n  jumpi\n  0x00\n  dup1\n  revert\ntag_36:\n    /* \"Eraswap.sol\":9968:9993  totalSupply_.add(_amount) */\n  tag_38\n    /* \"Eraswap.sol\":9985:9992  _amount */\n  dup3\n    /* \"Eraswap.sol\":9968:9980  totalSupply_ */\n  sload(0x04)\n    /* \"Eraswap.sol\":9968:9984  totalSupply_.add */\n  or(tag_0_172, shl(0x20, tag_25))\n  swap1\n    /* \"Eraswap.sol\":9968:9993  totalSupply_.add(_amount) */\n  swap2\n  swap1\n  0x20\n  shr\n  jump\t// in\ntag_38:\n    /* \"Eraswap.sol\":9953:9965  totalSupply_ */\n  0x04\n    /* \"Eraswap.sol\":9953:9993  totalSupply_ = totalSupply_.add(_amount) */\n  dup2\n  swap1\n  sstore\n  pop\n    /* \"Eraswap.sol\":10015:10041  balances[_to].add(_amount) */\n  tag_39\n    /* \"Eraswap.sol\":10033:10040  _amount */\n  dup3\n    /* \"Eraswap.sol\":10015:10023  balances */\n  0x03\n    /* \"Eraswap.sol\":10015:10028  balances[_to] */\n  0x00\n    /* \"Eraswap.sol\":10024:10027  _to */\n  dup7\n    /* \"Eraswap.sol\":10015:10028  balances[_to] */\n  0xffffffffffffffffffffffffffffffffffffffff\n  and\n  0xffffffffffffffffffffffffffffffffffffffff\n  and\n  dup2\n  mstore\n  0x20\n  add\n  swap1\n  dup2\n  mstore\n  0x20\n  add\n  0x00\n  keccak256\n  sload\n    /* \"Eraswap.sol\":10015:10032  balances[_to].add */\n  or(tag_0_172, shl(0x20, tag_25))\n  swap1\n    /* \"Eraswap.sol\":10015:10041  balances[_to].add(_amount) */\n  swap2\n  swap1\n  0x20\n  shr\n  jump\t// in\ntag_39:\n    /* \"Eraswap.sol\":9999:10007  balances */\n  0x03\n    /* \"Eraswap.sol\":9999:10012  balances[_to] */\n  0x00\n    /* \"Eraswap.sol\":10008:10011  _to */\n  dup6\n    /* \"Eraswap.sol\":9999:10012  balances[_to] */\n  0xffffffffffffffffffffffffffffffffffffffff\n  and\n  0xffffffffffffffffffffffffffffffffffffffff\n  and\n  dup2\n  mstore\n  0x20\n  add\n  swap1\n  dup2\n  mstore\n  0x20\n  add\n  0x00\n  keccak256\n    /* \"Eraswap.sol\":9999:10041  balances[_to] = balances[_to].add(_amount) */\n  dup2\n  swap1\n  sstore\n  pop\n    /* \"Eraswap.sol\":10057:10060  _to */\n  dup3\n    /* \"Eraswap.sol\":10052:10070  Mint(_to, _amount) */\n  0xffffffffffffffffffffffffffffffffffffffff\n  and\n  0x0f6798a560793a54c3bcfe86a93cde1e73087d944c0ea20544137d4121396885\n    /* \"Eraswap.sol\":10062:10069  _amount */\n  dup4\n    /* \"Eraswap.sol\":10052:10070  Mint(_to, _amount) */\n  mload(0x40)\n  dup1\n  dup3\n  dup2\n  mstore\n  0x20\n  add\n  swap2\n  pop\n  pop\n  mload(0x40)\n  dup1\n  swap2\n  sub\n  swap1\n  log2\n    /* \"Eraswap.sol\":10102:10105  _to */\n  dup3\n    /* \"Eraswap.sol\":10081:10115  Transfer(address(0), _to, _amount) */\n  0xffffffffffffffffffffffffffffffffffffffff\n  and\n    /* \"Eraswap.sol\":10098:10099  0 */\n  0x00\n    /* \"Eraswap.sol\":10081:10115  Transfer(address(0), _to, _amount) */\n  0xffffffffffffffffffffffffffffffffffffffff\n  and\n  0xddf252ad1be2c89b69c2b068fc378daa952ba7f163c4a11628f55a4df523b3ef\n    /* \"Eraswap.sol\":10107:10114  _amount */\n  dup5\n    /* \"Eraswap.sol\":10081:10115  Transfer(address(0), _to, _amount) */\n  mload(0x40)\n  dup1\n  dup3\n  dup2\n  mstore\n  0x20\n  add\n  swap2\n  pop\n  pop\n  mload(0x40)\n  dup1\n  swap2\n  sub\n  swap1\n  log3\n    /* \"Eraswap.sol\":10128:10132  true */\n  0x01\n    /* \"Eraswap.sol\":10121:10132  return true */\n  swap1\n  pop\n    /* \"Eraswap.sol\":9825:10137  function mint(... */\n  swap3\n  swap2\n  pop\n  pop\n  jump\t// out\n    /* \"Eraswap.sol\":11351:17271  contract NRTManager is Ownable, EraswapERC20{... */\ntag_2:\n  dup3\n  dup1\n  sload\n  0x01\n  dup2\n  0x01\n  and\n  iszero\n  0x0100\n  mul\n  sub\n  and\n  0x02\n  swap1\n  div\n  swap1\n  0x00\n  mstore\n  keccak256(0x00, 0x20)\n  swap1\n  0x1f\n  add\n  0x20\n  swap1\n  div\n  dup2\n  add\n  swap3\n  dup3\n  0x1f\n  lt\n  tag_41\n  jumpi\n  dup1\n  mload\n  not(0xff)\n  and\n  dup4\n  dup1\n  add\n  or\n  dup6\n  sstore\n  jump(tag_40)\ntag_41:\n  dup3\n  dup1\n  add\n  0x01\n  add\n  dup6\n  sstore\n  dup3\n  iszero\n  tag_40\n  jumpi\n  swap2\n  dup3\n  add\ntag_42:\n  dup3\n  dup2\n  gt\n  iszero\n  tag_43\n  jumpi\n  dup3\n  mload\n  dup3\n  sstore\n  swap2\n  0x20\n  add\n  swap2\n  swap1\n  0x01\n  add\n  swap1\n  jump(tag_42)\ntag_43:\ntag_40:\n  pop\n  swap1\n  pop\n  tag_44\n  swap2\n  swap1\n  tag_45\n  jump\t// in\ntag_44:\n  pop\n  swap1\n  jump\t// out\ntag_45:\n  tag_46\n  swap2\n  swap1\ntag_47:\n  dup1\n  dup3\n  gt\n  iszero\n  tag_48\n  jumpi\n  0x00\n  dup2\n  0x00\n  swap1\n  sstore\n  pop\n  0x01\n  add\n  jump(tag_47)\ntag_48:\n  pop\n  swap1\n  jump\ntag_46:\n  swap1\n  jump\t// out\ntag_22:\n  dataSize(sub_0)\n  dup1\n  dataOffset(sub_0)\n  0x00\n  codecopy\n  0x00\n  return\nstop\n\nsub_0: assembly {\n        /* \"Eraswap.sol\":11351:17271  contract NRTManager is Ownable, EraswapERC20{... */\n      mstore(0x40, 0x80)\n      callvalue\n        /* \"--CODEGEN--\":8:17   */\n      dup1\n        /* \"--CODEGEN--\":5:7   */\n      iszero\n      tag_1\n      jumpi\n        /* \"--CODEGEN--\":30:31   */\n      0x00\n        /* \"--CODEGEN--\":27:28   */\n      dup1\n        /* \"--CODEGEN--\":20:32   */\n      revert\n        /* \"--CODEGEN--\":5:7   */\n    tag_1:\n        /* \"Eraswap.sol\":11351:17271  contract NRTManager is Ownable, EraswapERC20{... */\n      pop\n      jumpi(tag_2, lt(calldatasize, 0x04))\n      shr(0xe0, calldataload(0x00))\n      dup1\n      0x6c6a0609\n      gt\n      tag_47\n      jumpi\n      dup1\n      0xbd27d361\n      gt\n      tag_48\n      jumpi\n      dup1\n      0xd37eb950\n      gt\n      tag_49\n      jumpi\n      dup1\n      0xd37eb950\n      eq\n      tag_41\n      jumpi\n      dup1\n      0xd73dd623\n      eq\n      tag_42\n      jumpi\n      dup1\n      0xdb2f2cb5\n      eq\n      tag_43\n      jumpi\n      dup1\n      0xdd62ed3e\n      eq\n      tag_44\n      jumpi\n      dup1\n      0xe71a3bfd\n      eq\n      tag_45\n      jumpi\n      dup1\n      0xf2fde38b\n      eq\n      tag_46\n      jumpi\n      jump(tag_2)\n    tag_49:\n      dup1\n      0xbd27d361\n      eq\n      tag_36\n      jumpi\n      dup1\n      0xbec074dc\n      eq\n      tag_37\n      jumpi\n      dup1\n      0xbfb3d6c8\n      eq\n      tag_38\n      jumpi\n      dup1\n      0xc3348a8b\n      eq\n      tag_39\n      jumpi\n      dup1\n      0xc6b2c536\n      eq\n      tag_40\n      jumpi\n      jump(tag_2)\n    tag_48:\n      dup1\n      0x8da5cb5b\n      gt\n      tag_50\n      jumpi\n      dup1\n      0x8da5cb5b\n      eq\n      tag_30\n      jumpi\n      dup1\n      0x95d89b41\n      eq\n      tag_31\n      jumpi\n      dup1\n      0x9cd417de\n      eq\n      tag_32\n      jumpi\n      dup1\n      0xa9059cbb\n      eq\n      tag_33\n      jumpi\n      dup1\n      0xa9e817a9\n      eq\n      tag_34\n      jumpi\n      dup1\n      0xb018abbd\n      eq\n      tag_35\n      jumpi\n      jump(tag_2)\n    tag_50:\n      dup1\n      0x6c6a0609\n      eq\n      tag_25\n      jumpi\n      dup1\n      0x70a08231\n      eq\n      tag_26\n      jumpi\n      dup1\n      0x715018a6\n      eq\n      tag_27\n      jumpi\n      dup1\n      0x7d53257a\n      eq\n      tag_28\n      jumpi\n      dup1\n      0x7d64bcb4\n      eq\n      tag_29\n      jumpi\n      jump(tag_2)\n    tag_47:\n      dup1\n      0x3a18a9fd\n      gt\n      tag_51\n      jumpi\n      dup1\n      0x4f0e8140\n      gt\n      tag_52\n      jumpi\n      dup1\n      0x4f0e8140\n      eq\n      tag_19\n      jumpi\n      dup1\n      0x51bd70b1\n      eq\n      tag_20\n      jumpi\n      dup1\n      0x5c12278d\n      eq\n      tag_21\n      jumpi\n      dup1\n      0x5f7ce89f\n      eq\n      tag_22\n      jumpi\n      dup1\n      0x65c00470\n      eq\n      tag_23\n      jumpi\n      dup1\n      0x66188463\n      eq\n      tag_24\n      jumpi\n      jump(tag_2)\n    tag_52:\n      dup1\n      0x3a18a9fd\n      eq\n      tag_14\n      jumpi\n      dup1\n      0x3e249c0e\n      eq\n      tag_15\n      jumpi\n      dup1\n      0x40c10f19\n      eq\n      tag_16\n      jumpi\n      dup1\n      0x42966c68\n      eq\n      tag_17\n      jumpi\n      dup1\n      0x4a4581aa\n      eq\n      tag_18\n      jumpi\n      jump(tag_2)\n    tag_51:\n      dup1\n      0x23b872dd\n      gt\n      tag_53\n      jumpi\n      dup1\n      0x23b872dd\n      eq\n      tag_8\n      jumpi\n      dup1\n      0x26b3bf2f\n      eq\n      tag_9\n      jumpi\n      dup1\n      0x2cfceb07\n      eq\n      tag_10\n      jumpi\n      dup1\n      0x313ce567\n      eq\n      tag_11\n      jumpi\n      dup1\n      0x355274ea\n      eq\n      tag_12\n      jumpi\n      dup1\n      0x37bfea18\n      eq\n      tag_13\n      jumpi\n      jump(tag_2)\n    tag_53:\n      dup1\n      0x05d2035b\n      eq\n      tag_3\n      jumpi\n      dup1\n      0x06fdde03\n      eq\n      tag_4\n      jumpi\n      dup1\n      0x095ea7b3\n      eq\n      tag_5\n      jumpi\n      dup1\n      0x0b3e29b8\n      eq\n      tag_6\n      jumpi\n      dup1\n      0x18160ddd\n      eq\n      tag_7\n      jumpi\n    tag_2:\n      0x00\n      dup1\n      revert\n        /* \"Eraswap.sol\":9407:9442  bool public mintingFinished = false */\n    tag_3:\n      tag_54\n      tag_55\n      jump\t// in\n    tag_54:\n      mload(0x40)\n      dup1\n      dup3\n      iszero\n      iszero\n      iszero\n      iszero\n      dup2\n      mstore\n      0x20\n      add\n      swap2\n      pop\n      pop\n      mload(0x40)\n      dup1\n      swap2\n      sub\n      swap1\n      return\n        /* \"Eraswap.sol\":2547:2565  string public name */\n    tag_4:\n      tag_56\n      tag_57\n      jump\t// in\n    tag_56:\n      mload(0x40)\n      dup1\n      dup1\n      0x20\n      add\n      dup3\n      dup2\n      sub\n      dup3\n      mstore\n      dup4\n      dup2\n      dup2\n      mload\n      dup2\n      mstore\n      0x20\n      add\n      swap2\n      pop\n      dup1\n      mload\n      swap1\n      0x20\n      add\n      swap1\n      dup1\n      dup4\n      dup4\n        /* \"--CODEGEN--\":23:24   */\n      0x00\n        /* \"--CODEGEN--\":8:108   */\n    tag_58:\n        /* \"--CODEGEN--\":33:36   */\n      dup4\n        /* \"--CODEGEN--\":30:31   */\n      dup2\n        /* \"--CODEGEN--\":27:37   */\n      lt\n        /* \"--CODEGEN--\":8:108   */\n      iszero\n      tag_60\n      jumpi\n        /* \"--CODEGEN--\":99:100   */\n      dup1\n        /* \"--CODEGEN--\":94:97   */\n      dup3\n        /* \"--CODEGEN--\":90:101   */\n      add\n        /* \"--CODEGEN--\":84:102   */\n      mload\n        /* \"--CODEGEN--\":80:81   */\n      dup2\n        /* \"--CODEGEN--\":75:78   */\n      dup5\n        /* \"--CODEGEN--\":71:82   */\n      add\n        /* \"--CODEGEN--\":64:103   */\n      mstore\n        /* \"--CODEGEN--\":52:54   */\n      0x20\n        /* \"--CODEGEN--\":49:50   */\n      dup2\n        /* \"--CODEGEN--\":45:55   */\n      add\n        /* \"--CODEGEN--\":40:55   */\n      swap1\n      pop\n        /* \"--CODEGEN--\":8:108   */\n      jump(tag_58)\n    tag_60:\n        /* \"--CODEGEN--\":12:26   */\n      pop\n        /* \"Eraswap.sol\":2547:2565  string public name */\n      pop\n      pop\n      pop\n      swap1\n      pop\n      swap1\n      dup2\n      add\n      swap1\n      0x1f\n      and\n      dup1\n      iszero\n      tag_61\n      jumpi\n      dup1\n      dup3\n      sub\n      dup1\n      mload\n      0x01\n      dup4\n      0x20\n      sub\n      0x0100\n      exp\n      sub\n      not\n      and\n      dup2\n      mstore\n      0x20\n      add\n      swap2\n      pop\n    tag_61:\n      pop\n      swap3\n      pop\n      pop\n      pop\n      mload(0x40)\n      dup1\n      swap2\n      sub\n      swap1\n      return\n        /* \"Eraswap.sol\":6977:7165  function approve(address _spender, uint256 _value) public returns (bool) {... */\n    tag_5:\n      tag_62\n      0x04\n      dup1\n      calldatasize\n      sub\n        /* \"--CODEGEN--\":13:15   */\n      0x40\n        /* \"--CODEGEN--\":8:11   */\n      dup2\n        /* \"--CODEGEN--\":5:16   */\n      lt\n        /* \"--CODEGEN--\":2:4   */\n      iszero\n      tag_63\n      jumpi\n        /* \"--CODEGEN--\":29:30   */\n      0x00\n        /* \"--CODEGEN--\":26:27   */\n      dup1\n        /* \"--CODEGEN--\":19:31   */\n      revert\n        /* \"--CODEGEN--\":2:4   */\n    tag_63:\n        /* \"Eraswap.sol\":6977:7165  function approve(address _spender, uint256 _value) public returns (bool) {... */\n      dup2\n      add\n      swap1\n      dup1\n      dup1\n      calldataload\n      0xffffffffffffffffffffffffffffffffffffffff\n      and\n      swap1\n      0x20\n      add\n      swap1\n      swap3\n      swap2\n      swap1\n      dup1\n      calldataload\n      swap1\n      0x20\n      add\n      swap1\n      swap3\n      swap2\n      swap1\n      pop\n      pop\n      pop\n      tag_64\n      jump\t// in\n    tag_62:\n      mload(0x40)\n      dup1\n      dup3\n      iszero\n      iszero\n      iszero\n      iszero\n      dup2\n      mstore\n      0x20\n      add\n      swap2\n      pop\n      pop\n      mload(0x40)\n      dup1\n      swap2\n      sub\n      swap1\n      return\n        /* \"Eraswap.sol\":12131:12162  address public contingencyFunds */\n    tag_6:\n      tag_65\n      tag_66\n      jump\t// in\n    tag_65:\n      mload(0x40)\n      dup1\n      dup3\n      0xffffffffffffffffffffffffffffffffffffffff\n      and\n      0xffffffffffffffffffffffffffffffffffffffff\n      and\n      dup2\n      mstore\n      0x20\n      add\n      swap2\n      pop\n      pop\n      mload(0x40)\n      dup1\n      swap2\n      sub\n      swap1\n      return\n        /* \"Eraswap.sol\":528:611  function totalSupply() public view returns (uint256) {... */\n    tag_7:\n      tag_67\n      tag_68\n      jump\t// in\n    tag_67:\n      mload(0x40)\n      dup1\n      dup3\n      dup2\n      mstore\n      0x20\n      add\n      swap2\n      pop\n      pop\n      mload(0x40)\n      dup1\n      swap2\n      sub\n      swap1\n      return\n        /* \"Eraswap.sol\":5889:6359  function transferFrom(... */\n    tag_8:\n      tag_69\n      0x04\n      dup1\n      calldatasize\n      sub\n        /* \"--CODEGEN--\":13:15   */\n      0x60\n        /* \"--CODEGEN--\":8:11   */\n      dup2\n        /* \"--CODEGEN--\":5:16   */\n      lt\n        /* \"--CODEGEN--\":2:4   */\n      iszero\n      tag_70\n      jumpi\n        /* \"--CODEGEN--\":29:30   */\n      0x00\n        /* \"--CODEGEN--\":26:27   */\n      dup1\n        /* \"--CODEGEN--\":19:31   */\n      revert\n        /* \"--CODEGEN--\":2:4   */\n    tag_70:\n        /* \"Eraswap.sol\":5889:6359  function transferFrom(... */\n      dup2\n      add\n      swap1\n      dup1\n      dup1\n      calldataload\n      0xffffffffffffffffffffffffffffffffffffffff\n      and\n      swap1\n      0x20\n      add\n      swap1\n      swap3\n      swap2\n      swap1\n      dup1\n      calldataload\n      0xffffffffffffffffffffffffffffffffffffffff\n      and\n      swap1\n      0x20\n      add\n      swap1\n      swap3\n      swap2\n      swap1\n      dup1\n      calldataload\n      swap1\n      0x20\n      add\n      swap1\n      swap3\n      swap2\n      swap1\n      pop\n      pop\n      pop\n      tag_71\n      jump\t// in\n    tag_69:\n      mload(0x40)\n      dup1\n      dup3\n      iszero\n      iszero\n      iszero\n      iszero\n      dup2\n      mstore\n      0x20\n      add\n      swap2\n      pop\n      pop\n      mload(0x40)\n      dup1\n      swap2\n      sub\n      swap1\n      return\n        /* \"Eraswap.sol\":11989:12029  address public newTalentsAndPartnerships */\n    tag_9:\n      tag_72\n      tag_73\n      jump\t// in\n    tag_72:\n      mload(0x40)\n      dup1\n      dup3\n      0xffffffffffffffffffffffffffffffffffffffff\n      and\n      0xffffffffffffffffffffffffffffffffffffffff\n      and\n      dup2\n      mstore\n      0x20\n      add\n      swap2\n      pop\n      pop\n      mload(0x40)\n      dup1\n      swap2\n      sub\n      swap1\n      return\n        /* \"Eraswap.sol\":12732:12757  uint256 public kmPardsBal */\n    tag_10:\n      tag_74\n      tag_75\n      jump\t// in\n    tag_74:\n      mload(0x40)\n      dup1\n      dup3\n      dup2\n      mstore\n      0x20\n      add\n      swap2\n      pop\n      pop\n      mload(0x40)\n      dup1\n      swap2\n      sub\n      swap1\n      return\n        /* \"Eraswap.sol\":2593:2614  uint8 public decimals */\n    tag_11:\n      tag_76\n      tag_77\n      jump\t// in\n    tag_76:\n      mload(0x40)\n      dup1\n      dup3\n      0xff\n      and\n      0xff\n      and\n      dup2\n      mstore\n      0x20\n      add\n      swap2\n      pop\n      pop\n      mload(0x40)\n      dup1\n      swap2\n      sub\n      swap1\n      return\n        /* \"Eraswap.sol\":10438:10456  uint256 public cap */\n    tag_12:\n      tag_78\n      tag_79\n      jump\t// in\n    tag_78:\n      mload(0x40)\n      dup1\n      dup3\n      dup2\n      mstore\n      0x20\n      add\n      swap2\n      pop\n      pop\n      mload(0x40)\n      dup1\n      swap2\n      sub\n      swap1\n      return\n        /* \"Eraswap.sol\":12347:12370  address public TimeAlly */\n    tag_13:\n      tag_80\n      tag_81\n      jump\t// in\n    tag_80:\n      mload(0x40)\n      dup1\n      dup3\n      0xffffffffffffffffffffffffffffffffffffffff\n      and\n      0xffffffffffffffffffffffffffffffffffffffff\n      and\n      dup2\n      mstore\n      0x20\n      add\n      swap2\n      pop\n      pop\n      mload(0x40)\n      dup1\n      swap2\n      sub\n      swap1\n      return\n        /* \"Eraswap.sol\":12033:12067  address public platformMaintenance */\n    tag_14:\n      tag_82\n      tag_83\n      jump\t// in\n    tag_82:\n      mload(0x40)\n      dup1\n      dup3\n      0xffffffffffffffffffffffffffffffffffffffff\n      and\n      0xffffffffffffffffffffffffffffffffffffffff\n      and\n      dup2\n      mstore\n      0x20\n      add\n      swap2\n      pop\n      pop\n      mload(0x40)\n      dup1\n      swap2\n      sub\n      swap1\n      return\n        /* \"Eraswap.sol\":11717:11742  uint256 public MonthCount */\n    tag_15:\n      tag_84\n      tag_85\n      jump\t// in\n    tag_84:\n      mload(0x40)\n      dup1\n      dup3\n      dup2\n      mstore\n      0x20\n      add\n      swap2\n      pop\n      pop\n      mload(0x40)\n      dup1\n      swap2\n      sub\n      swap1\n      return\n        /* \"Eraswap.sol\":10774:10952  function mint(... */\n    tag_16:\n      tag_86\n      0x04\n      dup1\n      calldatasize\n      sub\n        /* \"--CODEGEN--\":13:15   */\n      0x40\n        /* \"--CODEGEN--\":8:11   */\n      dup2\n        /* \"--CODEGEN--\":5:16   */\n      lt\n        /* \"--CODEGEN--\":2:4   */\n      iszero\n      tag_87\n      jumpi\n        /* \"--CODEGEN--\":29:30   */\n      0x00\n        /* \"--CODEGEN--\":26:27   */\n      dup1\n        /* \"--CODEGEN--\":19:31   */\n      revert\n        /* \"--CODEGEN--\":2:4   */\n    tag_87:\n        /* \"Eraswap.sol\":10774:10952  function mint(... */\n      dup2\n      add\n      swap1\n      dup1\n      dup1\n      calldataload\n      0xffffffffffffffffffffffffffffffffffffffff\n      and\n      swap1\n      0x20\n      add\n      swap1\n      swap3\n      swap2\n      swap1\n      dup1\n      calldataload\n      swap1\n      0x20\n      add\n      swap1\n      swap3\n      swap2\n      swap1\n      pop\n      pop\n      pop\n      tag_88\n      jump\t// in\n    tag_86:\n      mload(0x40)\n      dup1\n      dup3\n      iszero\n      iszero\n      iszero\n      iszero\n      dup2\n      mstore\n      0x20\n      add\n      swap2\n      pop\n      pop\n      mload(0x40)\n      dup1\n      swap2\n      sub\n      swap1\n      return\n        /* \"Eraswap.sol\":1598:1671  function burn(uint256 _value) public {... */\n    tag_17:\n      tag_89\n      0x04\n      dup1\n      calldatasize\n      sub\n        /* \"--CODEGEN--\":13:15   */\n      0x20\n        /* \"--CODEGEN--\":8:11   */\n      dup2\n        /* \"--CODEGEN--\":5:16   */\n      lt\n        /* \"--CODEGEN--\":2:4   */\n      iszero\n      tag_90\n      jumpi\n        /* \"--CODEGEN--\":29:30   */\n      0x00\n        /* \"--CODEGEN--\":26:27   */\n      dup1\n        /* \"--CODEGEN--\":19:31   */\n      revert\n        /* \"--CODEGEN--\":2:4   */\n    tag_90:\n        /* \"Eraswap.sol\":1598:1671  function burn(uint256 _value) public {... */\n      dup2\n      add\n      swap1\n      dup1\n      dup1\n      calldataload\n      swap1\n      0x20\n      add\n      swap1\n      swap3\n      swap2\n      swap1\n      pop\n      pop\n      pop\n      tag_91\n      jump\t// in\n    tag_89:\n      stop\n        /* \"Eraswap.sol\":11891:11918  uint256 public burnTokenBal */\n    tag_18:\n      tag_92\n      tag_93\n      jump\t// in\n    tag_92:\n      mload(0x40)\n      dup1\n      dup3\n      dup2\n      mstore\n      0x20\n      add\n      swap2\n      pop\n      pop\n      mload(0x40)\n      dup1\n      swap2\n      sub\n      swap1\n      return\n        /* \"Eraswap.sol\":11617:11647  uint256 public AnnualNRTAmount */\n    tag_19:\n      tag_94\n      tag_95\n      jump\t// in\n    tag_94:\n      mload(0x40)\n      dup1\n      dup3\n      dup2\n      mstore\n      0x20\n      add\n      swap2\n      pop\n      pop\n      mload(0x40)\n      dup1\n      swap2\n      sub\n      swap1\n      return\n        /* \"Eraswap.sol\":12071:12101  address public marketingAndRNR */\n    tag_20:\n      tag_96\n      tag_97\n      jump\t// in\n    tag_96:\n      mload(0x40)\n      dup1\n      dup3\n      0xffffffffffffffffffffffffffffffffffffffff\n      and\n      0xffffffffffffffffffffffffffffffffffffffff\n      and\n      dup2\n      mstore\n      0x20\n      add\n      swap2\n      pop\n      pop\n      mload(0x40)\n      dup1\n      swap2\n      sub\n      swap1\n      return\n        /* \"Eraswap.sol\":12166:12203  address public researchAndDevelopment */\n    tag_21:\n      tag_98\n      tag_99\n      jump\t// in\n    tag_98:\n      mload(0x40)\n      dup1\n      dup3\n      0xffffffffffffffffffffffffffffffffffffffff\n      and\n      0xffffffffffffffffffffffffffffffffffffffff\n      and\n      dup2\n      mstore\n      0x20\n      add\n      swap2\n      pop\n      pop\n      mload(0x40)\n      dup1\n      swap2\n      sub\n      swap1\n      return\n        /* \"Eraswap.sol\":12834:12868  uint256 public contingencyFundsBal */\n    tag_22:\n      tag_100\n      tag_101\n      jump\t// in\n    tag_100:\n      mload(0x40)\n      dup1\n      dup3\n      dup2\n      mstore\n      0x20\n      add\n      swap2\n      pop\n      pop\n      mload(0x40)\n      dup1\n      swap2\n      sub\n      swap1\n      return\n        /* \"Eraswap.sol\":12105:12127  address public kmPards */\n    tag_23:\n      tag_102\n      tag_103\n      jump\t// in\n    tag_102:\n      mload(0x40)\n      dup1\n      dup3\n      0xffffffffffffffffffffffffffffffffffffffff\n      and\n      0xffffffffffffffffffffffffffffffffffffffff\n      and\n      dup2\n      mstore\n      0x20\n      add\n      swap2\n      pop\n      pop\n      mload(0x40)\n      dup1\n      swap2\n      sub\n      swap1\n      return\n        /* \"Eraswap.sol\":8842:9274  function decreaseApproval(... */\n    tag_24:\n      tag_104\n      0x04\n      dup1\n      calldatasize\n      sub\n        /* \"--CODEGEN--\":13:15   */\n      0x40\n        /* \"--CODEGEN--\":8:11   */\n      dup2\n        /* \"--CODEGEN--\":5:16   */\n      lt\n        /* \"--CODEGEN--\":2:4   */\n      iszero\n      tag_105\n      jumpi\n        /* \"--CODEGEN--\":29:30   */\n      0x00\n        /* \"--CODEGEN--\":26:27   */\n      dup1\n        /* \"--CODEGEN--\":19:31   */\n      revert\n        /* \"--CODEGEN--\":2:4   */\n    tag_105:\n        /* \"Eraswap.sol\":8842:9274  function decreaseApproval(... */\n      dup2\n      add\n      swap1\n      dup1\n      dup1\n      calldataload\n      0xffffffffffffffffffffffffffffffffffffffff\n      and\n      swap1\n      0x20\n      add\n      swap1\n      swap3\n      swap2\n      swap1\n      dup1\n      calldataload\n      swap1\n      0x20\n      add\n      swap1\n      swap3\n      swap2\n      swap1\n      pop\n      pop\n      pop\n      tag_106\n      jump\t// in\n    tag_104:\n      mload(0x40)\n      dup1\n      dup3\n      iszero\n      iszero\n      iszero\n      iszero\n      dup2\n      mstore\n      0x20\n      add\n      swap2\n      pop\n      pop\n      mload(0x40)\n      dup1\n      swap2\n      sub\n      swap1\n      return\n        /* \"Eraswap.sol\":11431:11460  uint256 public LastNRTRelease */\n    tag_25:\n      tag_107\n      tag_108\n      jump\t// in\n    tag_107:\n      mload(0x40)\n      dup1\n      dup3\n      dup2\n      mstore\n      0x20\n      add\n      swap2\n      pop\n      pop\n      mload(0x40)\n      dup1\n      swap2\n      sub\n      swap1\n      return\n        /* \"Eraswap.sol\":1288:1387  function balanceOf(address _owner) public view returns (uint256) {... */\n    tag_26:\n      tag_109\n      0x04\n      dup1\n      calldatasize\n      sub\n        /* \"--CODEGEN--\":13:15   */\n      0x20\n        /* \"--CODEGEN--\":8:11   */\n      dup2\n        /* \"--CODEGEN--\":5:16   */\n      lt\n        /* \"--CODEGEN--\":2:4   */\n      iszero\n      tag_110\n      jumpi\n        /* \"--CODEGEN--\":29:30   */\n      0x00\n        /* \"--CODEGEN--\":26:27   */\n      dup1\n        /* \"--CODEGEN--\":19:31   */\n      revert\n        /* \"--CODEGEN--\":2:4   */\n    tag_110:\n        /* \"Eraswap.sol\":1288:1387  function balanceOf(address _owner) public view returns (uint256) {... */\n      dup2\n      add\n      swap1\n      dup1\n      dup1\n      calldataload\n      0xffffffffffffffffffffffffffffffffffffffff\n      and\n      swap1\n      0x20\n      add\n      swap1\n      swap3\n      swap2\n      swap1\n      pop\n      pop\n      pop\n      tag_111\n      jump\t// in\n    tag_109:\n      mload(0x40)\n      dup1\n      dup3\n      dup2\n      mstore\n      0x20\n      add\n      swap2\n      pop\n      pop\n      mload(0x40)\n      dup1\n      swap2\n      sub\n      swap1\n      return\n        /* \"Eraswap.sol\":3558:3669  function renounceOwnership() public onlyOwner {... */\n    tag_27:\n      tag_112\n      tag_113\n      jump\t// in\n    tag_112:\n      stop\n        /* \"Eraswap.sol\":12936:12976  uint256 public researchAndDevelopmentBal */\n    tag_28:\n      tag_114\n      tag_115\n      jump\t// in\n    tag_114:\n      mload(0x40)\n      dup1\n      dup3\n      dup2\n      mstore\n      0x20\n      add\n      swap2\n      pop\n      pop\n      mload(0x40)\n      dup1\n      swap2\n      sub\n      swap1\n      return\n        /* \"Eraswap.sol\":10251:10391  function finishMinting() public onlyOwner canMint returns (bool) {... */\n    tag_29:\n      tag_116\n      tag_117\n      jump\t// in\n    tag_116:\n      mload(0x40)\n      dup1\n      dup3\n      iszero\n      iszero\n      iszero\n      iszero\n      dup2\n      mstore\n      0x20\n      add\n      swap2\n      pop\n      pop\n      mload(0x40)\n      dup1\n      swap2\n      sub\n      swap1\n      return\n        /* \"Eraswap.sol\":2795:2815  address public owner */\n    tag_30:\n      tag_118\n      tag_119\n      jump\t// in\n    tag_118:\n      mload(0x40)\n      dup1\n      dup3\n      0xffffffffffffffffffffffffffffffffffffffff\n      and\n      0xffffffffffffffffffffffffffffffffffffffff\n      and\n      dup2\n      mstore\n      0x20\n      add\n      swap2\n      pop\n      pop\n      mload(0x40)\n      dup1\n      swap2\n      sub\n      swap1\n      return\n        /* \"Eraswap.sol\":2569:2589  string public symbol */\n    tag_31:\n      tag_120\n      tag_121\n      jump\t// in\n    tag_120:\n      mload(0x40)\n      dup1\n      dup1\n      0x20\n      add\n      dup3\n      dup2\n      sub\n      dup3\n      mstore\n      dup4\n      dup2\n      dup2\n      mload\n      dup2\n      mstore\n      0x20\n      add\n      swap2\n      pop\n      dup1\n      mload\n      swap1\n      0x20\n      add\n      swap1\n      dup1\n      dup4\n      dup4\n        /* \"--CODEGEN--\":23:24   */\n      0x00\n        /* \"--CODEGEN--\":8:108   */\n    tag_122:\n        /* \"--CODEGEN--\":33:36   */\n      dup4\n        /* \"--CODEGEN--\":30:31   */\n      dup2\n        /* \"--CODEGEN--\":27:37   */\n      lt\n        /* \"--CODEGEN--\":8:108   */\n      iszero\n      tag_124\n      jumpi\n        /* \"--CODEGEN--\":99:100   */\n      dup1\n        /* \"--CODEGEN--\":94:97   */\n      dup3\n        /* \"--CODEGEN--\":90:101   */\n      add\n        /* \"--CODEGEN--\":84:102   */\n      mload\n        /* \"--CODEGEN--\":80:81   */\n      dup2\n        /* \"--CODEGEN--\":75:78   */\n      dup5\n        /* \"--CODEGEN--\":71:82   */\n      add\n        /* \"--CODEGEN--\":64:103   */\n      mstore\n        /* \"--CODEGEN--\":52:54   */\n      0x20\n        /* \"--CODEGEN--\":49:50   */\n      dup2\n        /* \"--CODEGEN--\":45:55   */\n      add\n        /* \"--CODEGEN--\":40:55   */\n      swap1\n      pop\n        /* \"--CODEGEN--\":8:108   */\n      jump(tag_122)\n    tag_124:\n        /* \"--CODEGEN--\":12:26   */\n      pop\n        /* \"Eraswap.sol\":2569:2589  string public symbol */\n      pop\n      pop\n      pop\n      swap1\n      pop\n      swap1\n      dup2\n      add\n      swap1\n      0x1f\n      and\n      dup1\n      iszero\n      tag_125\n      jumpi\n      dup1\n      dup3\n      sub\n      dup1\n      mload\n      0x01\n      dup4\n      0x20\n      sub\n      0x0100\n      exp\n      sub\n      not\n      and\n      dup2\n      mstore\n      0x20\n      add\n      swap2\n      pop\n    tag_125:\n      pop\n      swap3\n      pop\n      pop\n      pop\n      mload(0x40)\n      dup1\n      swap2\n      sub\n      swap1\n      return\n        /* \"Eraswap.sol\":12234:12261  address public timeSwappers */\n    tag_32:\n      tag_126\n      tag_127\n      jump\t// in\n    tag_126:\n      mload(0x40)\n      dup1\n      dup3\n      0xffffffffffffffffffffffffffffffffffffffff\n      and\n      0xffffffffffffffffffffffffffffffffffffffff\n      and\n      dup2\n      mstore\n      0x20\n      add\n      swap2\n      pop\n      pop\n      mload(0x40)\n      dup1\n      swap2\n      sub\n      swap1\n      return\n        /* \"Eraswap.sol\":765:1086  function transfer(address _to, uint256 _value) public returns (bool) {... */\n    tag_33:\n      tag_128\n      0x04\n      dup1\n      calldatasize\n      sub\n        /* \"--CODEGEN--\":13:15   */\n      0x40\n        /* \"--CODEGEN--\":8:11   */\n      dup2\n        /* \"--CODEGEN--\":5:16   */\n      lt\n        /* \"--CODEGEN--\":2:4   */\n      iszero\n      tag_129\n      jumpi\n        /* \"--CODEGEN--\":29:30   */\n      0x00\n        /* \"--CODEGEN--\":26:27   */\n      dup1\n        /* \"--CODEGEN--\":19:31   */\n      revert\n        /* \"--CODEGEN--\":2:4   */\n    tag_129:\n        /* \"Eraswap.sol\":765:1086  function transfer(address _to, uint256 _value) public returns (bool) {... */\n      dup2\n      add\n      swap1\n      dup1\n      dup1\n      calldataload\n      0xffffffffffffffffffffffffffffffffffffffff\n      and\n      swap1\n      0x20\n      add\n      swap1\n      swap3\n      swap2\n      swap1\n      dup1\n      calldataload\n      swap1\n      0x20\n      add\n      swap1\n      swap3\n      swap2\n      swap1\n      pop\n      pop\n      pop\n      tag_130\n      jump\t// in\n    tag_128:\n      mload(0x40)\n      dup1\n      dup3\n      iszero\n      iszero\n      iszero\n      iszero\n      dup2\n      mstore\n      0x20\n      add\n      swap2\n      pop\n      pop\n      mload(0x40)\n      dup1\n      swap2\n      sub\n      swap1\n      return\n        /* \"Eraswap.sol\":12207:12230  address public buzzCafe */\n    tag_34:\n      tag_131\n      tag_132\n      jump\t// in\n    tag_131:\n      mload(0x40)\n      dup1\n      dup3\n      0xffffffffffffffffffffffffffffffffffffffff\n      and\n      0xffffffffffffffffffffffffffffffffffffffff\n      and\n      dup2\n      mstore\n      0x20\n      add\n      swap2\n      pop\n      pop\n      mload(0x40)\n      dup1\n      swap2\n      sub\n      swap1\n      return\n        /* \"Eraswap.sol\":14562:17051  function MonthlyNRTRelease() external returns (bool) {... */\n    tag_35:\n      tag_133\n      tag_134\n      jump\t// in\n    tag_133:\n      mload(0x40)\n      dup1\n      dup3\n      iszero\n      iszero\n      iszero\n      iszero\n      dup2\n      mstore\n      0x20\n      add\n      swap2\n      pop\n      pop\n      mload(0x40)\n      dup1\n      swap2\n      sub\n      swap1\n      return\n        /* \"Eraswap.sol\":12528:12565  uint256 public platformMaintenanceBal */\n    tag_36:\n      tag_135\n      tag_136\n      jump\t// in\n    tag_135:\n      mload(0x40)\n      dup1\n      dup3\n      dup2\n      mstore\n      0x20\n      add\n      swap2\n      pop\n      pop\n      mload(0x40)\n      dup1\n      swap2\n      sub\n      swap1\n      return\n        /* \"Eraswap.sol\":11516:11547  uint256 public MonthlyNRTAmount */\n    tag_37:\n      tag_137\n      tag_138\n      jump\t// in\n    tag_137:\n      mload(0x40)\n      dup1\n      dup3\n      dup2\n      mstore\n      0x20\n      add\n      swap2\n      pop\n      pop\n      mload(0x40)\n      dup1\n      swap2\n      sub\n      swap1\n      return\n        /* \"Eraswap.sol\":13243:13273  uint256 public timeSwappersNRT */\n    tag_38:\n      tag_139\n      tag_140\n      jump\t// in\n    tag_139:\n      mload(0x40)\n      dup1\n      dup3\n      dup2\n      mstore\n      0x20\n      add\n      swap2\n      pop\n      pop\n      mload(0x40)\n      dup1\n      swap2\n      sub\n      swap1\n      return\n        /* \"Eraswap.sol\":11825:11851  uint256 public luckPoolBal */\n    tag_39:\n      tag_141\n      tag_142\n      jump\t// in\n    tag_141:\n      mload(0x40)\n      dup1\n      dup3\n      dup2\n      mstore\n      0x20\n      add\n      swap2\n      pop\n      pop\n      mload(0x40)\n      dup1\n      swap2\n      sub\n      swap1\n      return\n        /* \"Eraswap.sol\":13140:13166  uint256 public TimeAllyNRT */\n    tag_40:\n      tag_143\n      tag_144\n      jump\t// in\n    tag_143:\n      mload(0x40)\n      dup1\n      dup3\n      dup2\n      mstore\n      0x20\n      add\n      swap2\n      pop\n      pop\n      mload(0x40)\n      dup1\n      swap2\n      sub\n      swap1\n      return\n        /* \"Eraswap.sol\":12630:12663  uint256 public marketingAndRNRBal */\n    tag_41:\n      tag_145\n      tag_146\n      jump\t// in\n    tag_145:\n      mload(0x40)\n      dup1\n      dup3\n      dup2\n      mstore\n      0x20\n      add\n      swap2\n      pop\n      pop\n      mload(0x40)\n      dup1\n      swap2\n      sub\n      swap1\n      return\n        /* \"Eraswap.sol\":8089:8385  function increaseApproval(... */\n    tag_42:\n      tag_147\n      0x04\n      dup1\n      calldatasize\n      sub\n        /* \"--CODEGEN--\":13:15   */\n      0x40\n        /* \"--CODEGEN--\":8:11   */\n      dup2\n        /* \"--CODEGEN--\":5:16   */\n      lt\n        /* \"--CODEGEN--\":2:4   */\n      iszero\n      tag_148\n      jumpi\n        /* \"--CODEGEN--\":29:30   */\n      0x00\n        /* \"--CODEGEN--\":26:27   */\n      dup1\n        /* \"--CODEGEN--\":19:31   */\n      revert\n        /* \"--CODEGEN--\":2:4   */\n    tag_148:\n        /* \"Eraswap.sol\":8089:8385  function increaseApproval(... */\n      dup2\n      add\n      swap1\n      dup1\n      dup1\n      calldataload\n      0xffffffffffffffffffffffffffffffffffffffff\n      and\n      swap1\n      0x20\n      add\n      swap1\n      swap3\n      swap2\n      swap1\n      dup1\n      calldataload\n      swap1\n      0x20\n      add\n      swap1\n      swap3\n      swap2\n      swap1\n      pop\n      pop\n      pop\n      tag_149\n      jump\t// in\n    tag_147:\n      mload(0x40)\n      dup1\n      dup3\n      iszero\n      iszero\n      iszero\n      iszero\n      dup2\n      mstore\n      0x20\n      add\n      swap2\n      pop\n      pop\n      mload(0x40)\n      dup1\n      swap2\n      sub\n      swap1\n      return\n        /* \"Eraswap.sol\":13038:13064  uint256 public buzzCafeNRT */\n    tag_43:\n      tag_150\n      tag_151\n      jump\t// in\n    tag_150:\n      mload(0x40)\n      dup1\n      dup3\n      dup2\n      mstore\n      0x20\n      add\n      swap2\n      pop\n      pop\n      mload(0x40)\n      dup1\n      swap2\n      sub\n      swap1\n      return\n        /* \"Eraswap.sol\":7484:7637  function allowance(... */\n    tag_44:\n      tag_152\n      0x04\n      dup1\n      calldatasize\n      sub\n        /* \"--CODEGEN--\":13:15   */\n      0x40\n        /* \"--CODEGEN--\":8:11   */\n      dup2\n        /* \"--CODEGEN--\":5:16   */\n      lt\n        /* \"--CODEGEN--\":2:4   */\n      iszero\n      tag_153\n      jumpi\n        /* \"--CODEGEN--\":29:30   */\n      0x00\n        /* \"--CODEGEN--\":26:27   */\n      dup1\n        /* \"--CODEGEN--\":19:31   */\n      revert\n        /* \"--CODEGEN--\":2:4   */\n    tag_153:\n        /* \"Eraswap.sol\":7484:7637  function allowance(... */\n      dup2\n      add\n      swap1\n      dup1\n      dup1\n      calldataload\n      0xffffffffffffffffffffffffffffffffffffffff\n      and\n      swap1\n      0x20\n      add\n      swap1\n      swap3\n      swap2\n      swap1\n      dup1\n      calldataload\n      0xffffffffffffffffffffffffffffffffffffffff\n      and\n      swap1\n      0x20\n      add\n      swap1\n      swap3\n      swap2\n      swap1\n      pop\n      pop\n      pop\n      tag_154\n      jump\t// in\n    tag_152:\n      mload(0x40)\n      dup1\n      dup3\n      dup2\n      mstore\n      0x20\n      add\n      swap2\n      pop\n      pop\n      mload(0x40)\n      dup1\n      swap2\n      sub\n      swap1\n      return\n        /* \"Eraswap.sol\":12426:12469  uint256 public newTalentsAndPartnershipsBal */\n    tag_45:\n      tag_155\n      tag_156\n      jump\t// in\n    tag_155:\n      mload(0x40)\n      dup1\n      dup3\n      dup2\n      mstore\n      0x20\n      add\n      swap2\n      pop\n      pop\n      mload(0x40)\n      dup1\n      swap2\n      sub\n      swap1\n      return\n        /* \"Eraswap.sol\":3831:3934  function transferOwnership(address _newOwner) public onlyOwner {... */\n    tag_46:\n      tag_157\n      0x04\n      dup1\n      calldatasize\n      sub\n        /* \"--CODEGEN--\":13:15   */\n      0x20\n        /* \"--CODEGEN--\":8:11   */\n      dup2\n        /* \"--CODEGEN--\":5:16   */\n      lt\n        /* \"--CODEGEN--\":2:4   */\n      iszero\n      tag_158\n      jumpi\n        /* \"--CODEGEN--\":29:30   */\n      0x00\n        /* \"--CODEGEN--\":26:27   */\n      dup1\n        /* \"--CODEGEN--\":19:31   */\n      revert\n        /* \"--CODEGEN--\":2:4   */\n    tag_158:\n        /* \"Eraswap.sol\":3831:3934  function transferOwnership(address _newOwner) public onlyOwner {... */\n      dup2\n      add\n      swap1\n      dup1\n      dup1\n      calldataload\n      0xffffffffffffffffffffffffffffffffffffffff\n      and\n      swap1\n      0x20\n      add\n      swap1\n      swap3\n      swap2\n      swap1\n      pop\n      pop\n      pop\n      tag_159\n      jump\t// in\n    tag_157:\n      stop\n        /* \"Eraswap.sol\":9407:9442  bool public mintingFinished = false */\n    tag_55:\n      0x06\n      0x14\n      swap1\n      sload\n      swap1\n      0x0100\n      exp\n      swap1\n      div\n      0xff\n      and\n      dup2\n      jump\t// out\n        /* \"Eraswap.sol\":2547:2565  string public name */\n    tag_57:\n      0x00\n      dup1\n      sload\n      0x01\n      dup2\n      0x01\n      and\n      iszero\n      0x0100\n      mul\n      sub\n      and\n      0x02\n      swap1\n      div\n      dup1\n      0x1f\n      add\n      0x20\n      dup1\n      swap2\n      div\n      mul\n      0x20\n      add\n      mload(0x40)\n      swap1\n      dup2\n      add\n      0x40\n      mstore\n      dup1\n      swap3\n      swap2\n      swap1\n      dup2\n      dup2\n      mstore\n      0x20\n      add\n      dup3\n      dup1\n      sload\n      0x01\n      dup2\n      0x01\n      and\n      iszero\n      0x0100\n      mul\n      sub\n      and\n      0x02\n      swap1\n      div\n      dup1\n      iszero\n      tag_160\n      jumpi\n      dup1\n      0x1f\n      lt\n      tag_161\n      jumpi\n      0x0100\n      dup1\n      dup4\n      sload\n      div\n      mul\n      dup4\n      mstore\n      swap2\n      0x20\n      add\n      swap2\n      jump(tag_160)\n    tag_161:\n      dup3\n      add\n      swap2\n      swap1\n      0x00\n      mstore\n      keccak256(0x00, 0x20)\n      swap1\n    tag_162:\n      dup2\n      sload\n      dup2\n      mstore\n      swap1\n      0x01\n      add\n      swap1\n      0x20\n      add\n      dup1\n      dup4\n      gt\n      tag_162\n      jumpi\n      dup3\n      swap1\n      sub\n      0x1f\n      and\n      dup3\n      add\n      swap2\n    tag_160:\n      pop\n      pop\n      pop\n      pop\n      pop\n      dup2\n      jump\t// out\n        /* \"Eraswap.sol\":6977:7165  function approve(address _spender, uint256 _value) public returns (bool) {... */\n    tag_64:\n        /* \"Eraswap.sol\":7044:7048  bool */\n      0x00\n        /* \"Eraswap.sol\":7088:7094  _value */\n      dup2\n        /* \"Eraswap.sol\":7056:7063  allowed */\n      0x05\n        /* \"Eraswap.sol\":7056:7075  allowed[msg.sender] */\n      0x00\n        /* \"Eraswap.sol\":7064:7074  msg.sender */\n      caller\n        /* \"Eraswap.sol\":7056:7075  allowed[msg.sender] */\n      0xffffffffffffffffffffffffffffffffffffffff\n      and\n      0xffffffffffffffffffffffffffffffffffffffff\n      and\n      dup2\n      mstore\n      0x20\n      add\n      swap1\n      dup2\n      mstore\n      0x20\n      add\n      0x00\n      keccak256\n        /* \"Eraswap.sol\":7056:7085  allowed[msg.sender][_spender] */\n      0x00\n        /* \"Eraswap.sol\":7076:7084  _spender */\n      dup6\n        /* \"Eraswap.sol\":7056:7085  allowed[msg.sender][_spender] */\n      0xffffffffffffffffffffffffffffffffffffffff\n      and\n      0xffffffffffffffffffffffffffffffffffffffff\n      and\n      dup2\n      mstore\n      0x20\n      add\n      swap1\n      dup2\n      mstore\n      0x20\n      add\n      0x00\n      keccak256\n        /* \"Eraswap.sol\":7056:7094  allowed[msg.sender][_spender] = _value */\n      dup2\n      swap1\n      sstore\n      pop\n        /* \"Eraswap.sol\":7126:7134  _spender */\n      dup3\n        /* \"Eraswap.sol\":7105:7143  Approval(msg.sender, _spender, _value) */\n      0xffffffffffffffffffffffffffffffffffffffff\n      and\n        /* \"Eraswap.sol\":7114:7124  msg.sender */\n      caller\n        /* \"Eraswap.sol\":7105:7143  Approval(msg.sender, _spender, _value) */\n      0xffffffffffffffffffffffffffffffffffffffff\n      and\n      0x8c5be1e5ebec7d5bd14f71427d1e84f3dd0314c0f7b2291e5b200ac8c7c3b925\n        /* \"Eraswap.sol\":7136:7142  _value */\n      dup5\n        /* \"Eraswap.sol\":7105:7143  Approval(msg.sender, _spender, _value) */\n      mload(0x40)\n      dup1\n      dup3\n      dup2\n      mstore\n      0x20\n      add\n      swap2\n      pop\n      pop\n      mload(0x40)\n      dup1\n      swap2\n      sub\n      swap1\n      log3\n        /* \"Eraswap.sol\":7156:7160  true */\n      0x01\n        /* \"Eraswap.sol\":7149:7160  return true */\n      swap1\n      pop\n        /* \"Eraswap.sol\":6977:7165  function approve(address _spender, uint256 _value) public returns (bool) {... */\n      swap3\n      swap2\n      pop\n      pop\n      jump\t// out\n        /* \"Eraswap.sol\":12131:12162  address public contingencyFunds */\n    tag_66:\n      0x16\n      0x00\n      swap1\n      sload\n      swap1\n      0x0100\n      exp\n      swap1\n      div\n      0xffffffffffffffffffffffffffffffffffffffff\n      and\n      dup2\n      jump\t// out\n        /* \"Eraswap.sol\":528:611  function totalSupply() public view returns (uint256) {... */\n    tag_68:\n        /* \"Eraswap.sol\":572:579  uint256 */\n      0x00\n        /* \"Eraswap.sol\":594:606  totalSupply_ */\n      sload(0x04)\n        /* \"Eraswap.sol\":587:606  return totalSupply_ */\n      swap1\n      pop\n        /* \"Eraswap.sol\":528:611  function totalSupply() public view returns (uint256) {... */\n      swap1\n      jump\t// out\n        /* \"Eraswap.sol\":5889:6359  function transferFrom(... */\n    tag_71:\n        /* \"Eraswap.sol\":5995:5999  bool */\n      0x00\n        /* \"Eraswap.sol\":6027:6035  balances */\n      0x03\n        /* \"Eraswap.sol\":6027:6042  balances[_from] */\n      0x00\n        /* \"Eraswap.sol\":6036:6041  _from */\n      dup6\n        /* \"Eraswap.sol\":6027:6042  balances[_from] */\n      0xffffffffffffffffffffffffffffffffffffffff\n      and\n      0xffffffffffffffffffffffffffffffffffffffff\n      and\n      dup2\n      mstore\n      0x20\n      add\n      swap1\n      dup2\n      mstore\n      0x20\n      add\n      0x00\n      keccak256\n      sload\n        /* \"Eraswap.sol\":6017:6023  _value */\n      dup3\n        /* \"Eraswap.sol\":6017:6042  _value <= balances[_from] */\n      gt\n      iszero\n        /* \"Eraswap.sol\":6009:6043  require(_value <= balances[_from]) */\n      tag_166\n      jumpi\n      0x00\n      dup1\n      revert\n    tag_166:\n        /* \"Eraswap.sol\":6067:6074  allowed */\n      0x05\n        /* \"Eraswap.sol\":6067:6081  allowed[_from] */\n      0x00\n        /* \"Eraswap.sol\":6075:6080  _from */\n      dup6\n        /* \"Eraswap.sol\":6067:6081  allowed[_from] */\n      0xffffffffffffffffffffffffffffffffffffffff\n      and\n      0xffffffffffffffffffffffffffffffffffffffff\n      and\n      dup2\n      mstore\n      0x20\n      add\n      swap1\n      dup2\n      mstore\n      0x20\n      add\n      0x00\n      keccak256\n        /* \"Eraswap.sol\":6067:6093  allowed[_from][msg.sender] */\n      0x00\n        /* \"Eraswap.sol\":6082:6092  msg.sender */\n      caller\n        /* \"Eraswap.sol\":6067:6093  allowed[_from][msg.sender] */\n      0xffffffffffffffffffffffffffffffffffffffff\n      and\n      0xffffffffffffffffffffffffffffffffffffffff\n      and\n      dup2\n      mstore\n      0x20\n      add\n      swap1\n      dup2\n      mstore\n      0x20\n      add\n      0x00\n      keccak256\n      sload\n        /* \"Eraswap.sol\":6057:6063  _value */\n      dup3\n        /* \"Eraswap.sol\":6057:6093  _value <= allowed[_from][msg.sender] */\n      gt\n      iszero\n        /* \"Eraswap.sol\":6049:6094  require(_value <= allowed[_from][msg.sender]) */\n      tag_167\n      jumpi\n      0x00\n      dup1\n      revert\n    tag_167:\n        /* \"Eraswap.sol\":6123:6124  0 */\n      0x00\n        /* \"Eraswap.sol\":6108:6125  _to != address(0) */\n      0xffffffffffffffffffffffffffffffffffffffff\n      and\n        /* \"Eraswap.sol\":6108:6111  _to */\n      dup4\n        /* \"Eraswap.sol\":6108:6125  _to != address(0) */\n      0xffffffffffffffffffffffffffffffffffffffff\n      and\n      eq\n      iszero\n        /* \"Eraswap.sol\":6100:6126  require(_to != address(0)) */\n      tag_168\n      jumpi\n      0x00\n      dup1\n      revert\n    tag_168:\n        /* \"Eraswap.sol\":6151:6178  balances[_from].sub(_value) */\n      tag_169\n        /* \"Eraswap.sol\":6171:6177  _value */\n      dup3\n        /* \"Eraswap.sol\":6151:6159  balances */\n      0x03\n        /* \"Eraswap.sol\":6151:6166  balances[_from] */\n      0x00\n        /* \"Eraswap.sol\":6160:6165  _from */\n      dup8\n        /* \"Eraswap.sol\":6151:6166  balances[_from] */\n      0xffffffffffffffffffffffffffffffffffffffff\n      and\n      0xffffffffffffffffffffffffffffffffffffffff\n      and\n      dup2\n      mstore\n      0x20\n      add\n      swap1\n      dup2\n      mstore\n      0x20\n      add\n      0x00\n      keccak256\n      sload\n        /* \"Eraswap.sol\":6151:6170  balances[_from].sub */\n      tag_170\n      swap1\n        /* \"Eraswap.sol\":6151:6178  balances[_from].sub(_value) */\n      swap2\n      swap1\n      0xffffffff\n      and\n      jump\t// in\n    tag_169:\n        /* \"Eraswap.sol\":6133:6141  balances */\n      0x03\n        /* \"Eraswap.sol\":6133:6148  balances[_from] */\n      0x00\n        /* \"Eraswap.sol\":6142:6147  _from */\n      dup7\n        /* \"Eraswap.sol\":6133:6148  balances[_from] */\n      0xffffffffffffffffffffffffffffffffffffffff\n      and\n      0xffffffffffffffffffffffffffffffffffffffff\n      and\n      dup2\n      mstore\n      0x20\n      add\n      swap1\n      dup2\n      mstore\n      0x20\n      add\n      0x00\n      keccak256\n        /* \"Eraswap.sol\":6133:6178  balances[_from] = balances[_from].sub(_value) */\n      dup2\n      swap1\n      sstore\n      pop\n        /* \"Eraswap.sol\":6200:6225  balances[_to].add(_value) */\n      tag_171\n        /* \"Eraswap.sol\":6218:6224  _value */\n      dup3\n        /* \"Eraswap.sol\":6200:6208  balances */\n      0x03\n        /* \"Eraswap.sol\":6200:6213  balances[_to] */\n      0x00\n        /* \"Eraswap.sol\":6209:6212  _to */\n      dup7\n        /* \"Eraswap.sol\":6200:6213  balances[_to] */\n      0xffffffffffffffffffffffffffffffffffffffff\n      and\n      0xffffffffffffffffffffffffffffffffffffffff\n      and\n      dup2\n      mstore\n      0x20\n      add\n      swap1\n      dup2\n      mstore\n      0x20\n      add\n      0x00\n      keccak256\n      sload\n        /* \"Eraswap.sol\":6200:6217  balances[_to].add */\n      tag_172\n      swap1\n        /* \"Eraswap.sol\":6200:6225  balances[_to].add(_value) */\n      swap2\n      swap1\n      0xffffffff\n      and\n      jump\t// in\n    tag_171:\n        /* \"Eraswap.sol\":6184:6192  balances */\n      0x03\n        /* \"Eraswap.sol\":6184:6197  balances[_to] */\n      0x00\n        /* \"Eraswap.sol\":6193:6196  _to */\n      dup6\n        /* \"Eraswap.sol\":6184:6197  balances[_to] */\n      0xffffffffffffffffffffffffffffffffffffffff\n      and\n      0xffffffffffffffffffffffffffffffffffffffff\n      and\n      dup2\n      mstore\n      0x20\n      add\n      swap1\n      dup2\n      mstore\n      0x20\n      add\n      0x00\n      keccak256\n        /* \"Eraswap.sol\":6184:6225  balances[_to] = balances[_to].add(_value) */\n      dup2\n      swap1\n      sstore\n      pop\n        /* \"Eraswap.sol\":6260:6298  allowed[_from][msg.sender].sub(_value) */\n      tag_173\n        /* \"Eraswap.sol\":6291:6297  _value */\n      dup3\n        /* \"Eraswap.sol\":6260:6267  allowed */\n      0x05\n        /* \"Eraswap.sol\":6260:6274  allowed[_from] */\n      0x00\n        /* \"Eraswap.sol\":6268:6273  _from */\n      dup8\n        /* \"Eraswap.sol\":6260:6274  allowed[_from] */\n      0xffffffffffffffffffffffffffffffffffffffff\n      and\n      0xffffffffffffffffffffffffffffffffffffffff\n      and\n      dup2\n      mstore\n      0x20\n      add\n      swap1\n      dup2\n      mstore\n      0x20\n      add\n      0x00\n      keccak256\n        /* \"Eraswap.sol\":6260:6286  allowed[_from][msg.sender] */\n      0x00\n        /* \"Eraswap.sol\":6275:6285  msg.sender */\n      caller\n        /* \"Eraswap.sol\":6260:6286  allowed[_from][msg.sender] */\n      0xffffffffffffffffffffffffffffffffffffffff\n      and\n      0xffffffffffffffffffffffffffffffffffffffff\n      and\n      dup2\n      mstore\n      0x20\n      add\n      swap1\n      dup2\n      mstore\n      0x20\n      add\n      0x00\n      keccak256\n      sload\n        /* \"Eraswap.sol\":6260:6290  allowed[_from][msg.sender].sub */\n      tag_170\n      swap1\n        /* \"Eraswap.sol\":6260:6298  allowed[_from][msg.sender].sub(_value) */\n      swap2\n      swap1\n      0xffffffff\n      and\n      jump\t// in\n    tag_173:\n        /* \"Eraswap.sol\":6231:6238  allowed */\n      0x05\n        /* \"Eraswap.sol\":6231:6245  allowed[_from] */\n      0x00\n        /* \"Eraswap.sol\":6239:6244  _from */\n      dup7\n        /* \"Eraswap.sol\":6231:6245  allowed[_from] */\n      0xffffffffffffffffffffffffffffffffffffffff\n      and\n      0xffffffffffffffffffffffffffffffffffffffff\n      and\n      dup2\n      mstore\n      0x20\n      add\n      swap1\n      dup2\n      mstore\n      0x20\n      add\n      0x00\n      keccak256\n        /* \"Eraswap.sol\":6231:6257  allowed[_from][msg.sender] */\n      0x00\n        /* \"Eraswap.sol\":6246:6256  msg.sender */\n      caller\n        /* \"Eraswap.sol\":6231:6257  allowed[_from][msg.sender] */\n      0xffffffffffffffffffffffffffffffffffffffff\n      and\n      0xffffffffffffffffffffffffffffffffffffffff\n      and\n      dup2\n      mstore\n      0x20\n      add\n      swap1\n      dup2\n      mstore\n      0x20\n      add\n      0x00\n      keccak256\n        /* \"Eraswap.sol\":6231:6298  allowed[_from][msg.sender] = allowed[_from][msg.sender].sub(_value) */\n      dup2\n      swap1\n      sstore\n      pop\n        /* \"Eraswap.sol\":6325:6328  _to */\n      dup3\n        /* \"Eraswap.sol\":6309:6337  Transfer(_from, _to, _value) */\n      0xffffffffffffffffffffffffffffffffffffffff\n      and\n        /* \"Eraswap.sol\":6318:6323  _from */\n      dup5\n        /* \"Eraswap.sol\":6309:6337  Transfer(_from, _to, _value) */\n      0xffffffffffffffffffffffffffffffffffffffff\n      and\n      0xddf252ad1be2c89b69c2b068fc378daa952ba7f163c4a11628f55a4df523b3ef\n        /* \"Eraswap.sol\":6330:6336  _value */\n      dup5\n        /* \"Eraswap.sol\":6309:6337  Transfer(_from, _to, _value) */\n      mload(0x40)\n      dup1\n      dup3\n      dup2\n      mstore\n      0x20\n      add\n      swap2\n      pop\n      pop\n      mload(0x40)\n      dup1\n      swap2\n      sub\n      swap1\n      log3\n        /* \"Eraswap.sol\":6350:6354  true */\n      0x01\n        /* \"Eraswap.sol\":6343:6354  return true */\n      swap1\n      pop\n        /* \"Eraswap.sol\":5889:6359  function transferFrom(... */\n      swap4\n      swap3\n      pop\n      pop\n      pop\n      jump\t// out\n        /* \"Eraswap.sol\":11989:12029  address public newTalentsAndPartnerships */\n    tag_73:\n      0x12\n      0x00\n      swap1\n      sload\n      swap1\n      0x0100\n      exp\n      swap1\n      div\n      0xffffffffffffffffffffffffffffffffffffffff\n      and\n      dup2\n      jump\t// out\n        /* \"Eraswap.sol\":12732:12757  uint256 public kmPardsBal */\n    tag_75:\n      sload(0x1e)\n      dup2\n      jump\t// out\n        /* \"Eraswap.sol\":2593:2614  uint8 public decimals */\n    tag_77:\n      0x02\n      0x00\n      swap1\n      sload\n      swap1\n      0x0100\n      exp\n      swap1\n      div\n      0xff\n      and\n      dup2\n      jump\t// out\n        /* \"Eraswap.sol\":10438:10456  uint256 public cap */\n    tag_79:\n      sload(0x07)\n      dup2\n      jump\t// out\n        /* \"Eraswap.sol\":12347:12370  address public TimeAlly */\n    tag_81:\n      0x1a\n      0x00\n      swap1\n      sload\n      swap1\n      0x0100\n      exp\n      swap1\n      div\n      0xffffffffffffffffffffffffffffffffffffffff\n      and\n      dup2\n      jump\t// out\n        /* \"Eraswap.sol\":12033:12067  address public platformMaintenance */\n    tag_83:\n      0x13\n      0x00\n      swap1\n      sload\n      swap1\n      0x0100\n      exp\n      swap1\n      div\n      0xffffffffffffffffffffffffffffffffffffffff\n      and\n      dup2\n      jump\t// out\n        /* \"Eraswap.sol\":11717:11742  uint256 public MonthCount */\n    tag_85:\n      sload(0x0f)\n      dup2\n      jump\t// out\n        /* \"Eraswap.sol\":10774:10952  function mint(... */\n    tag_88:\n        /* \"Eraswap.sol\":10854:10858  bool */\n      0x00\n        /* \"Eraswap.sol\":10905:10908  cap */\n      sload(0x07)\n        /* \"Eraswap.sol\":10876:10901  totalSupply_.add(_amount) */\n      tag_175\n        /* \"Eraswap.sol\":10893:10900  _amount */\n      dup4\n        /* \"Eraswap.sol\":10876:10888  totalSupply_ */\n      sload(0x04)\n        /* \"Eraswap.sol\":10876:10892  totalSupply_.add */\n      tag_172\n      swap1\n        /* \"Eraswap.sol\":10876:10901  totalSupply_.add(_amount) */\n      swap2\n      swap1\n      0xffffffff\n      and\n      jump\t// in\n    tag_175:\n        /* \"Eraswap.sol\":10876:10908  totalSupply_.add(_amount) <= cap */\n      gt\n      iszero\n        /* \"Eraswap.sol\":10868:10909  require(totalSupply_.add(_amount) <= cap) */\n      tag_176\n      jumpi\n      0x00\n      dup1\n      revert\n    tag_176:\n        /* \"Eraswap.sol\":10923:10947  super.mint(_to, _amount) */\n      tag_177\n        /* \"Eraswap.sol\":10934:10937  _to */\n      dup4\n        /* \"Eraswap.sol\":10939:10946  _amount */\n      dup4\n        /* \"Eraswap.sol\":10923:10933  super.mint */\n      tag_178\n        /* \"Eraswap.sol\":10923:10947  super.mint(_to, _amount) */\n      jump\t// in\n    tag_177:\n        /* \"Eraswap.sol\":10916:10947  return super.mint(_to, _amount) */\n      swap1\n      pop\n        /* \"Eraswap.sol\":10774:10952  function mint(... */\n      swap3\n      swap2\n      pop\n      pop\n      jump\t// out\n        /* \"Eraswap.sol\":1598:1671  function burn(uint256 _value) public {... */\n    tag_91:\n        /* \"Eraswap.sol\":1641:1666  _burn(msg.sender, _value) */\n      tag_180\n        /* \"Eraswap.sol\":1647:1657  msg.sender */\n      caller\n        /* \"Eraswap.sol\":1659:1665  _value */\n      dup3\n        /* \"Eraswap.sol\":1641:1646  _burn */\n      tag_181\n        /* \"Eraswap.sol\":1641:1666  _burn(msg.sender, _value) */\n      jump\t// in\n    tag_180:\n        /* \"Eraswap.sol\":1598:1671  function burn(uint256 _value) public {... */\n      pop\n      jump\t// out\n        /* \"Eraswap.sol\":11891:11918  uint256 public burnTokenBal */\n    tag_93:\n      sload(0x11)\n      dup2\n      jump\t// out\n        /* \"Eraswap.sol\":11617:11647  uint256 public AnnualNRTAmount */\n    tag_95:\n      sload(0x0e)\n      dup2\n      jump\t// out\n        /* \"Eraswap.sol\":12071:12101  address public marketingAndRNR */\n    tag_97:\n      0x14\n      0x00\n      swap1\n      sload\n      swap1\n      0x0100\n      exp\n      swap1\n      div\n      0xffffffffffffffffffffffffffffffffffffffff\n      and\n      dup2\n      jump\t// out\n        /* \"Eraswap.sol\":12166:12203  address public researchAndDevelopment */\n    tag_99:\n      0x17\n      0x00\n      swap1\n      sload\n      swap1\n      0x0100\n      exp\n      swap1\n      div\n      0xffffffffffffffffffffffffffffffffffffffff\n      and\n      dup2\n      jump\t// out\n        /* \"Eraswap.sol\":12834:12868  uint256 public contingencyFundsBal */\n    tag_101:\n      sload(0x1f)\n      dup2\n      jump\t// out\n        /* \"Eraswap.sol\":12105:12127  address public kmPards */\n    tag_103:\n      0x15\n      0x00\n      swap1\n      sload\n      swap1\n      0x0100\n      exp\n      swap1\n      div\n      0xffffffffffffffffffffffffffffffffffffffff\n      and\n      dup2\n      jump\t// out\n        /* \"Eraswap.sol\":8842:9274  function decreaseApproval(... */\n    tag_106:\n        /* \"Eraswap.sol\":8948:8952  bool */\n      0x00\n        /* \"Eraswap.sol\":8962:8978  uint256 oldValue */\n      dup1\n        /* \"Eraswap.sol\":8981:8988  allowed */\n      0x05\n        /* \"Eraswap.sol\":8981:9000  allowed[msg.sender] */\n      0x00\n        /* \"Eraswap.sol\":8989:8999  msg.sender */\n      caller\n        /* \"Eraswap.sol\":8981:9000  allowed[msg.sender] */\n      0xffffffffffffffffffffffffffffffffffffffff\n      and\n      0xffffffffffffffffffffffffffffffffffffffff\n      and\n      dup2\n      mstore\n      0x20\n      add\n      swap1\n      dup2\n      mstore\n      0x20\n      add\n      0x00\n      keccak256\n        /* \"Eraswap.sol\":8981:9010  allowed[msg.sender][_spender] */\n      0x00\n        /* \"Eraswap.sol\":9001:9009  _spender */\n      dup6\n        /* \"Eraswap.sol\":8981:9010  allowed[msg.sender][_spender] */\n      0xffffffffffffffffffffffffffffffffffffffff\n      and\n      0xffffffffffffffffffffffffffffffffffffffff\n      and\n      dup2\n      mstore\n      0x20\n      add\n      swap1\n      dup2\n      mstore\n      0x20\n      add\n      0x00\n      keccak256\n      sload\n        /* \"Eraswap.sol\":8962:9010  uint256 oldValue = allowed[msg.sender][_spender] */\n      swap1\n      pop\n        /* \"Eraswap.sol\":9040:9048  oldValue */\n      dup1\n        /* \"Eraswap.sol\":9020:9036  _subtractedValue */\n      dup4\n        /* \"Eraswap.sol\":9020:9048  _subtractedValue >= oldValue */\n      lt\n        /* \"Eraswap.sol\":9016:9181  if (_subtractedValue >= oldValue) {... */\n      tag_183\n      jumpi\n        /* \"Eraswap.sol\":9090:9091  0 */\n      0x00\n        /* \"Eraswap.sol\":9058:9065  allowed */\n      0x05\n        /* \"Eraswap.sol\":9058:9077  allowed[msg.sender] */\n      0x00\n        /* \"Eraswap.sol\":9066:9076  msg.sender */\n      caller\n        /* \"Eraswap.sol\":9058:9077  allowed[msg.sender] */\n      0xffffffffffffffffffffffffffffffffffffffff\n      and\n      0xffffffffffffffffffffffffffffffffffffffff\n      and\n      dup2\n      mstore\n      0x20\n      add\n      swap1\n      dup2\n      mstore\n      0x20\n      add\n      0x00\n      keccak256\n        /* \"Eraswap.sol\":9058:9087  allowed[msg.sender][_spender] */\n      0x00\n        /* \"Eraswap.sol\":9078:9086  _spender */\n      dup7\n        /* \"Eraswap.sol\":9058:9087  allowed[msg.sender][_spender] */\n      0xffffffffffffffffffffffffffffffffffffffff\n      and\n      0xffffffffffffffffffffffffffffffffffffffff\n      and\n      dup2\n      mstore\n      0x20\n      add\n      swap1\n      dup2\n      mstore\n      0x20\n      add\n      0x00\n      keccak256\n        /* \"Eraswap.sol\":9058:9091  allowed[msg.sender][_spender] = 0 */\n      dup2\n      swap1\n      sstore\n      pop\n        /* \"Eraswap.sol\":9016:9181  if (_subtractedValue >= oldValue) {... */\n      jump(tag_184)\n    tag_183:\n        /* \"Eraswap.sol\":9144:9174  oldValue.sub(_subtractedValue) */\n      tag_185\n        /* \"Eraswap.sol\":9157:9173  _subtractedValue */\n      dup4\n        /* \"Eraswap.sol\":9144:9152  oldValue */\n      dup3\n        /* \"Eraswap.sol\":9144:9156  oldValue.sub */\n      tag_170\n      swap1\n        /* \"Eraswap.sol\":9144:9174  oldValue.sub(_subtractedValue) */\n      swap2\n      swap1\n      0xffffffff\n      and\n      jump\t// in\n    tag_185:\n        /* \"Eraswap.sol\":9112:9119  allowed */\n      0x05\n        /* \"Eraswap.sol\":9112:9131  allowed[msg.sender] */\n      0x00\n        /* \"Eraswap.sol\":9120:9130  msg.sender */\n      caller\n        /* \"Eraswap.sol\":9112:9131  allowed[msg.sender] */\n      0xffffffffffffffffffffffffffffffffffffffff\n      and\n      0xffffffffffffffffffffffffffffffffffffffff\n      and\n      dup2\n      mstore\n      0x20\n      add\n      swap1\n      dup2\n      mstore\n      0x20\n      add\n      0x00\n      keccak256\n        /* \"Eraswap.sol\":9112:9141  allowed[msg.sender][_spender] */\n      0x00\n        /* \"Eraswap.sol\":9132:9140  _spender */\n      dup7\n        /* \"Eraswap.sol\":9112:9141  allowed[msg.sender][_spender] */\n      0xffffffffffffffffffffffffffffffffffffffff\n      and\n      0xffffffffffffffffffffffffffffffffffffffff\n      and\n      dup2\n      mstore\n      0x20\n      add\n      swap1\n      dup2\n      mstore\n      0x20\n      add\n      0x00\n      keccak256\n        /* \"Eraswap.sol\":9112:9174  allowed[msg.sender][_spender] = oldValue.sub(_subtractedValue) */\n      dup2\n      swap1\n      sstore\n      pop\n        /* \"Eraswap.sol\":9016:9181  if (_subtractedValue >= oldValue) {... */\n    tag_184:\n        /* \"Eraswap.sol\":9212:9220  _spender */\n      dup4\n        /* \"Eraswap.sol\":9191:9252  Approval(msg.sender, _spender, allowed[msg.sender][_spender]) */\n      0xffffffffffffffffffffffffffffffffffffffff\n      and\n        /* \"Eraswap.sol\":9200:9210  msg.sender */\n      caller\n        /* \"Eraswap.sol\":9191:9252  Approval(msg.sender, _spender, allowed[msg.sender][_spender]) */\n      0xffffffffffffffffffffffffffffffffffffffff\n      and\n      0x8c5be1e5ebec7d5bd14f71427d1e84f3dd0314c0f7b2291e5b200ac8c7c3b925\n        /* \"Eraswap.sol\":9222:9229  allowed */\n      0x05\n        /* \"Eraswap.sol\":9222:9241  allowed[msg.sender] */\n      0x00\n        /* \"Eraswap.sol\":9230:9240  msg.sender */\n      caller\n        /* \"Eraswap.sol\":9222:9241  allowed[msg.sender] */\n      0xffffffffffffffffffffffffffffffffffffffff\n      and\n      0xffffffffffffffffffffffffffffffffffffffff\n      and\n      dup2\n      mstore\n      0x20\n      add\n      swap1\n      dup2\n      mstore\n      0x20\n      add\n      0x00\n      keccak256\n        /* \"Eraswap.sol\":9222:9251  allowed[msg.sender][_spender] */\n      0x00\n        /* \"Eraswap.sol\":9242:9250  _spender */\n      dup9\n        /* \"Eraswap.sol\":9222:9251  allowed[msg.sender][_spender] */\n      0xffffffffffffffffffffffffffffffffffffffff\n      and\n      0xffffffffffffffffffffffffffffffffffffffff\n      and\n      dup2\n      mstore\n      0x20\n      add\n      swap1\n      dup2\n      mstore\n      0x20\n      add\n      0x00\n      keccak256\n      sload\n        /* \"Eraswap.sol\":9191:9252  Approval(msg.sender, _spender, allowed[msg.sender][_spender]) */\n      mload(0x40)\n      dup1\n      dup3\n      dup2\n      mstore\n      0x20\n      add\n      swap2\n      pop\n      pop\n      mload(0x40)\n      dup1\n      swap2\n      sub\n      swap1\n      log3\n        /* \"Eraswap.sol\":9265:9269  true */\n      0x01\n        /* \"Eraswap.sol\":9258:9269  return true */\n      swap2\n      pop\n      pop\n        /* \"Eraswap.sol\":8842:9274  function decreaseApproval(... */\n      swap3\n      swap2\n      pop\n      pop\n      jump\t// out\n        /* \"Eraswap.sol\":11431:11460  uint256 public LastNRTRelease */\n    tag_108:\n      sload(0x0c)\n      dup2\n      jump\t// out\n        /* \"Eraswap.sol\":1288:1387  function balanceOf(address _owner) public view returns (uint256) {... */\n    tag_111:\n        /* \"Eraswap.sol\":1344:1351  uint256 */\n      0x00\n        /* \"Eraswap.sol\":1366:1374  balances */\n      0x03\n        /* \"Eraswap.sol\":1366:1382  balances[_owner] */\n      0x00\n        /* \"Eraswap.sol\":1375:1381  _owner */\n      dup4\n        /* \"Eraswap.sol\":1366:1382  balances[_owner] */\n      0xffffffffffffffffffffffffffffffffffffffff\n      and\n      0xffffffffffffffffffffffffffffffffffffffff\n      and\n      dup2\n      mstore\n      0x20\n      add\n      swap1\n      dup2\n      mstore\n      0x20\n      add\n      0x00\n      keccak256\n      sload\n        /* \"Eraswap.sol\":1359:1382  return balances[_owner] */\n      swap1\n      pop\n        /* \"Eraswap.sol\":1288:1387  function balanceOf(address _owner) public view returns (uint256) {... */\n      swap2\n      swap1\n      pop\n      jump\t// out\n        /* \"Eraswap.sol\":3558:3669  function renounceOwnership() public onlyOwner {... */\n    tag_113:\n        /* \"Eraswap.sol\":3276:3281  owner */\n      0x06\n      0x00\n      swap1\n      sload\n      swap1\n      0x0100\n      exp\n      swap1\n      div\n      0xffffffffffffffffffffffffffffffffffffffff\n      and\n        /* \"Eraswap.sol\":3262:3281  msg.sender == owner */\n      0xffffffffffffffffffffffffffffffffffffffff\n      and\n        /* \"Eraswap.sol\":3262:3272  msg.sender */\n      caller\n        /* \"Eraswap.sol\":3262:3281  msg.sender == owner */\n      0xffffffffffffffffffffffffffffffffffffffff\n      and\n      eq\n        /* \"Eraswap.sol\":3254:3282  require(msg.sender == owner) */\n      tag_188\n      jumpi\n      0x00\n      dup1\n      revert\n    tag_188:\n        /* \"Eraswap.sol\":3634:3639  owner */\n      0x06\n      0x00\n      swap1\n      sload\n      swap1\n      0x0100\n      exp\n      swap1\n      div\n      0xffffffffffffffffffffffffffffffffffffffff\n      and\n        /* \"Eraswap.sol\":3615:3640  OwnershipRenounced(owner) */\n      0xffffffffffffffffffffffffffffffffffffffff\n      and\n      0xf8df31144d9c2f0f6b59d69b8b98abd5459d07f2742c4df920b25aae33c64820\n      mload(0x40)\n      mload(0x40)\n      dup1\n      swap2\n      sub\n      swap1\n      log2\n        /* \"Eraswap.sol\":3662:3663  0 */\n      0x00\n        /* \"Eraswap.sol\":3646:3651  owner */\n      0x06\n      0x00\n        /* \"Eraswap.sol\":3646:3664  owner = address(0) */\n      0x0100\n      exp\n      dup2\n      sload\n      dup2\n      0xffffffffffffffffffffffffffffffffffffffff\n      mul\n      not\n      and\n      swap1\n      dup4\n      0xffffffffffffffffffffffffffffffffffffffff\n      and\n      mul\n      or\n      swap1\n      sstore\n      pop\n        /* \"Eraswap.sol\":3558:3669  function renounceOwnership() public onlyOwner {... */\n      jump\t// out\n        /* \"Eraswap.sol\":12936:12976  uint256 public researchAndDevelopmentBal */\n    tag_115:\n      sload(0x20)\n      dup2\n      jump\t// out\n        /* \"Eraswap.sol\":10251:10391  function finishMinting() public onlyOwner canMint returns (bool) {... */\n    tag_117:\n        /* \"Eraswap.sol\":10310:10314  bool */\n      0x00\n        /* \"Eraswap.sol\":3276:3281  owner */\n      0x06\n      0x00\n      swap1\n      sload\n      swap1\n      0x0100\n      exp\n      swap1\n      div\n      0xffffffffffffffffffffffffffffffffffffffff\n      and\n        /* \"Eraswap.sol\":3262:3281  msg.sender == owner */\n      0xffffffffffffffffffffffffffffffffffffffff\n      and\n        /* \"Eraswap.sol\":3262:3272  msg.sender */\n      caller\n        /* \"Eraswap.sol\":3262:3281  msg.sender == owner */\n      0xffffffffffffffffffffffffffffffffffffffff\n      and\n      eq\n        /* \"Eraswap.sol\":3254:3282  require(msg.sender == owner) */\n      tag_191\n      jumpi\n      0x00\n      dup1\n      revert\n    tag_191:\n        /* \"Eraswap.sol\":9482:9497  mintingFinished */\n      0x06\n      0x14\n      swap1\n      sload\n      swap1\n      0x0100\n      exp\n      swap1\n      div\n      0xff\n      and\n        /* \"Eraswap.sol\":9481:9497  !mintingFinished */\n      iszero\n        /* \"Eraswap.sol\":9473:9498  require(!mintingFinished) */\n      tag_193\n      jumpi\n      0x00\n      dup1\n      revert\n    tag_193:\n        /* \"Eraswap.sol\":10340:10344  true */\n      0x01\n        /* \"Eraswap.sol\":10322:10337  mintingFinished */\n      0x06\n      0x14\n        /* \"Eraswap.sol\":10322:10344  mintingFinished = true */\n      0x0100\n      exp\n      dup2\n      sload\n      dup2\n      0xff\n      mul\n      not\n      and\n      swap1\n      dup4\n      iszero\n      iszero\n      mul\n      or\n      swap1\n      sstore\n      pop\n        /* \"Eraswap.sol\":10355:10369  MintFinished() */\n      0xae5184fba832cb2b1f702aca6117b8d265eaf03ad33eb133f19dde0f5920fa08\n      mload(0x40)\n      mload(0x40)\n      dup1\n      swap2\n      sub\n      swap1\n      log1\n        /* \"Eraswap.sol\":10382:10386  true */\n      0x01\n        /* \"Eraswap.sol\":10375:10386  return true */\n      swap1\n      pop\n        /* \"Eraswap.sol\":10251:10391  function finishMinting() public onlyOwner canMint returns (bool) {... */\n      swap1\n      jump\t// out\n        /* \"Eraswap.sol\":2795:2815  address public owner */\n    tag_119:\n      0x06\n      0x00\n      swap1\n      sload\n      swap1\n      0x0100\n      exp\n      swap1\n      div\n      0xffffffffffffffffffffffffffffffffffffffff\n      and\n      dup2\n      jump\t// out\n        /* \"Eraswap.sol\":2569:2589  string public symbol */\n    tag_121:\n      0x01\n      dup1\n      sload\n      0x01\n      dup2\n      0x01\n      and\n      iszero\n      0x0100\n      mul\n      sub\n      and\n      0x02\n      swap1\n      div\n      dup1\n      0x1f\n      add\n      0x20\n      dup1\n      swap2\n      div\n      mul\n      0x20\n      add\n      mload(0x40)\n      swap1\n      dup2\n      add\n      0x40\n      mstore\n      dup1\n      swap3\n      swap2\n      swap1\n      dup2\n      dup2\n      mstore\n      0x20\n      add\n      dup3\n      dup1\n      sload\n      0x01\n      dup2\n      0x01\n      and\n      iszero\n      0x0100\n      mul\n      sub\n      and\n      0x02\n      swap1\n      div\n      dup1\n      iszero\n      tag_195\n      jumpi\n      dup1\n      0x1f\n      lt\n      tag_196\n      jumpi\n      0x0100\n      dup1\n      dup4\n      sload\n      div\n      mul\n      dup4\n      mstore\n      swap2\n      0x20\n      add\n      swap2\n      jump(tag_195)\n    tag_196:\n      dup3\n      add\n      swap2\n      swap1\n      0x00\n      mstore\n      keccak256(0x00, 0x20)\n      swap1\n    tag_197:\n      dup2\n      sload\n      dup2\n      mstore\n      swap1\n      0x01\n      add\n      swap1\n      0x20\n      add\n      dup1\n      dup4\n      gt\n      tag_197\n      jumpi\n      dup3\n      swap1\n      sub\n      0x1f\n      and\n      dup3\n      add\n      swap2\n    tag_195:\n      pop\n      pop\n      pop\n      pop\n      pop\n      dup2\n      jump\t// out\n        /* \"Eraswap.sol\":12234:12261  address public timeSwappers */\n    tag_127:\n      0x19\n      0x00\n      swap1\n      sload\n      swap1\n      0x0100\n      exp\n      swap1\n      div\n      0xffffffffffffffffffffffffffffffffffffffff\n      and\n      dup2\n      jump\t// out\n        /* \"Eraswap.sol\":765:1086  function transfer(address _to, uint256 _value) public returns (bool) {... */\n    tag_130:\n        /* \"Eraswap.sol\":828:832  bool */\n      0x00\n        /* \"Eraswap.sol\":858:866  balances */\n      0x03\n        /* \"Eraswap.sol\":858:878  balances[msg.sender] */\n      0x00\n        /* \"Eraswap.sol\":867:877  msg.sender */\n      caller\n        /* \"Eraswap.sol\":858:878  balances[msg.sender] */\n      0xffffffffffffffffffffffffffffffffffffffff\n      and\n      0xffffffffffffffffffffffffffffffffffffffff\n      and\n      dup2\n      mstore\n      0x20\n      add\n      swap1\n      dup2\n      mstore\n      0x20\n      add\n      0x00\n      keccak256\n      sload\n        /* \"Eraswap.sol\":848:854  _value */\n      dup3\n        /* \"Eraswap.sol\":848:878  _value <= balances[msg.sender] */\n      gt\n      iszero\n        /* \"Eraswap.sol\":840:879  require(_value <= balances[msg.sender]) */\n      tag_199\n      jumpi\n      0x00\n      dup1\n      revert\n    tag_199:\n        /* \"Eraswap.sol\":908:909  0 */\n      0x00\n        /* \"Eraswap.sol\":893:910  _to != address(0) */\n      0xffffffffffffffffffffffffffffffffffffffff\n      and\n        /* \"Eraswap.sol\":893:896  _to */\n      dup4\n        /* \"Eraswap.sol\":893:910  _to != address(0) */\n      0xffffffffffffffffffffffffffffffffffffffff\n      and\n      eq\n      iszero\n        /* \"Eraswap.sol\":885:911  require(_to != address(0)) */\n      tag_200\n      jumpi\n      0x00\n      dup1\n      revert\n    tag_200:\n        /* \"Eraswap.sol\":941:973  balances[msg.sender].sub(_value) */\n      tag_201\n        /* \"Eraswap.sol\":966:972  _value */\n      dup3\n        /* \"Eraswap.sol\":941:949  balances */\n      0x03\n        /* \"Eraswap.sol\":941:961  balances[msg.sender] */\n      0x00\n        /* \"Eraswap.sol\":950:960  msg.sender */\n      caller\n        /* \"Eraswap.sol\":941:961  balances[msg.sender] */\n      0xffffffffffffffffffffffffffffffffffffffff\n      and\n      0xffffffffffffffffffffffffffffffffffffffff\n      and\n      dup2\n      mstore\n      0x20\n      add\n      swap1\n      dup2\n      mstore\n      0x20\n      add\n      0x00\n      keccak256\n      sload\n        /* \"Eraswap.sol\":941:965  balances[msg.sender].sub */\n      tag_170\n      swap1\n        /* \"Eraswap.sol\":941:973  balances[msg.sender].sub(_value) */\n      swap2\n      swap1\n      0xffffffff\n      and\n      jump\t// in\n    tag_201:\n        /* \"Eraswap.sol\":918:926  balances */\n      0x03\n        /* \"Eraswap.sol\":918:938  balances[msg.sender] */\n      0x00\n        /* \"Eraswap.sol\":927:937  msg.sender */\n      caller\n        /* \"Eraswap.sol\":918:938  balances[msg.sender] */\n      0xffffffffffffffffffffffffffffffffffffffff\n      and\n      0xffffffffffffffffffffffffffffffffffffffff\n      and\n      dup2\n      mstore\n      0x20\n      add\n      swap1\n      dup2\n      mstore\n      0x20\n      add\n      0x00\n      keccak256\n        /* \"Eraswap.sol\":918:973  balances[msg.sender] = balances[msg.sender].sub(_value) */\n      dup2\n      swap1\n      sstore\n      pop\n        /* \"Eraswap.sol\":995:1020  balances[_to].add(_value) */\n      tag_202\n        /* \"Eraswap.sol\":1013:1019  _value */\n      dup3\n        /* \"Eraswap.sol\":995:1003  balances */\n      0x03\n        /* \"Eraswap.sol\":995:1008  balances[_to] */\n      0x00\n        /* \"Eraswap.sol\":1004:1007  _to */\n      dup7\n        /* \"Eraswap.sol\":995:1008  balances[_to] */\n      0xffffffffffffffffffffffffffffffffffffffff\n      and\n      0xffffffffffffffffffffffffffffffffffffffff\n      and\n      dup2\n      mstore\n      0x20\n      add\n      swap1\n      dup2\n      mstore\n      0x20\n      add\n      0x00\n      keccak256\n      sload\n        /* \"Eraswap.sol\":995:1012  balances[_to].add */\n      tag_172\n      swap1\n        /* \"Eraswap.sol\":995:1020  balances[_to].add(_value) */\n      swap2\n      swap1\n      0xffffffff\n      and\n      jump\t// in\n    tag_202:\n        /* \"Eraswap.sol\":979:987  balances */\n      0x03\n        /* \"Eraswap.sol\":979:992  balances[_to] */\n      0x00\n        /* \"Eraswap.sol\":988:991  _to */\n      dup6\n        /* \"Eraswap.sol\":979:992  balances[_to] */\n      0xffffffffffffffffffffffffffffffffffffffff\n      and\n      0xffffffffffffffffffffffffffffffffffffffff\n      and\n      dup2\n      mstore\n      0x20\n      add\n      swap1\n      dup2\n      mstore\n      0x20\n      add\n      0x00\n      keccak256\n        /* \"Eraswap.sol\":979:1020  balances[_to] = balances[_to].add(_value) */\n      dup2\n      swap1\n      sstore\n      pop\n        /* \"Eraswap.sol\":1052:1055  _to */\n      dup3\n        /* \"Eraswap.sol\":1031:1064  Transfer(msg.sender, _to, _value) */\n      0xffffffffffffffffffffffffffffffffffffffff\n      and\n        /* \"Eraswap.sol\":1040:1050  msg.sender */\n      caller\n        /* \"Eraswap.sol\":1031:1064  Transfer(msg.sender, _to, _value) */\n      0xffffffffffffffffffffffffffffffffffffffff\n      and\n      0xddf252ad1be2c89b69c2b068fc378daa952ba7f163c4a11628f55a4df523b3ef\n        /* \"Eraswap.sol\":1057:1063  _value */\n      dup5\n        /* \"Eraswap.sol\":1031:1064  Transfer(msg.sender, _to, _value) */\n      mload(0x40)\n      dup1\n      dup3\n      dup2\n      mstore\n      0x20\n      add\n      swap2\n      pop\n      pop\n      mload(0x40)\n      dup1\n      swap2\n      sub\n      swap1\n      log3\n        /* \"Eraswap.sol\":1077:1081  true */\n      0x01\n        /* \"Eraswap.sol\":1070:1081  return true */\n      swap1\n      pop\n        /* \"Eraswap.sol\":765:1086  function transfer(address _to, uint256 _value) public returns (bool) {... */\n      swap3\n      swap2\n      pop\n      pop\n      jump\t// out\n        /* \"Eraswap.sol\":12207:12230  address public buzzCafe */\n    tag_132:\n      0x18\n      0x00\n      swap1\n      sload\n      swap1\n      0x0100\n      exp\n      swap1\n      div\n      0xffffffffffffffffffffffffffffffffffffffff\n      and\n      dup2\n      jump\t// out\n        /* \"Eraswap.sol\":14562:17051  function MonthlyNRTRelease() external returns (bool) {... */\n    tag_134:\n        /* \"Eraswap.sol\":14609:14613  bool */\n      0x00\n        /* \"Eraswap.sol\":14656:14663  2592000 */\n      0x278d00\n        /* \"Eraswap.sol\":14631:14654  now.sub(LastNRTRelease) */\n      tag_204\n        /* \"Eraswap.sol\":14639:14653  LastNRTRelease */\n      sload(0x0c)\n        /* \"Eraswap.sol\":14631:14634  now */\n      timestamp\n        /* \"Eraswap.sol\":14631:14638  now.sub */\n      tag_170\n      swap1\n        /* \"Eraswap.sol\":14631:14654  now.sub(LastNRTRelease) */\n      swap2\n      swap1\n      0xffffffff\n      and\n      jump\t// in\n    tag_204:\n        /* \"Eraswap.sol\":14631:14663  now.sub(LastNRTRelease)> 2592000 */\n      gt\n        /* \"Eraswap.sol\":14623:14664  require(now.sub(LastNRTRelease)> 2592000) */\n      tag_205\n      jumpi\n      0x00\n      dup1\n      revert\n    tag_205:\n        /* \"Eraswap.sol\":14672:14686  uint256 NRTBal */\n      0x00\n        /* \"Eraswap.sol\":14689:14722  MonthlyNRTAmount.add(luckPoolBal) */\n      tag_206\n        /* \"Eraswap.sol\":14710:14721  luckPoolBal */\n      sload(0x10)\n        /* \"Eraswap.sol\":14689:14705  MonthlyNRTAmount */\n      sload(0x0d)\n        /* \"Eraswap.sol\":14689:14709  MonthlyNRTAmount.add */\n      tag_172\n      swap1\n        /* \"Eraswap.sol\":14689:14722  MonthlyNRTAmount.add(luckPoolBal) */\n      swap2\n      swap1\n      0xffffffff\n      and\n      jump\t// in\n    tag_206:\n        /* \"Eraswap.sol\":14672:14722  uint256 NRTBal = MonthlyNRTAmount.add(luckPoolBal) */\n      swap1\n      pop\n        /* \"Eraswap.sol\":14854:14878  (NRTBal.mul(5)).div(100) */\n      tag_207\n        /* \"Eraswap.sol\":14874:14877  100 */\n      0x64\n        /* \"Eraswap.sol\":14855:14868  NRTBal.mul(5) */\n      tag_208\n        /* \"Eraswap.sol\":14866:14867  5 */\n      0x05\n        /* \"Eraswap.sol\":14855:14861  NRTBal */\n      dup5\n        /* \"Eraswap.sol\":14855:14865  NRTBal.mul */\n      tag_209\n      swap1\n        /* \"Eraswap.sol\":14855:14868  NRTBal.mul(5) */\n      swap2\n      swap1\n      0xffffffff\n      and\n      jump\t// in\n    tag_208:\n        /* \"Eraswap.sol\":14854:14873  (NRTBal.mul(5)).div */\n      tag_210\n      swap1\n        /* \"Eraswap.sol\":14854:14878  (NRTBal.mul(5)).div(100) */\n      swap2\n      swap1\n      0xffffffff\n      and\n      jump\t// in\n    tag_207:\n        /* \"Eraswap.sol\":14823:14851  newTalentsAndPartnershipsBal */\n      0x1b\n        /* \"Eraswap.sol\":14823:14878  newTalentsAndPartnershipsBal = (NRTBal.mul(5)).div(100) */\n      dup2\n      swap1\n      sstore\n      pop\n        /* \"Eraswap.sol\":14911:14936  (NRTBal.mul(10)).div(100) */\n      tag_211\n        /* \"Eraswap.sol\":14932:14935  100 */\n      0x64\n        /* \"Eraswap.sol\":14912:14926  NRTBal.mul(10) */\n      tag_212\n        /* \"Eraswap.sol\":14923:14925  10 */\n      0x0a\n        /* \"Eraswap.sol\":14912:14918  NRTBal */\n      dup5\n        /* \"Eraswap.sol\":14912:14922  NRTBal.mul */\n      tag_209\n      swap1\n        /* \"Eraswap.sol\":14912:14926  NRTBal.mul(10) */\n      swap2\n      swap1\n      0xffffffff\n      and\n      jump\t// in\n    tag_212:\n        /* \"Eraswap.sol\":14911:14931  (NRTBal.mul(10)).div */\n      tag_210\n      swap1\n        /* \"Eraswap.sol\":14911:14936  (NRTBal.mul(10)).div(100) */\n      swap2\n      swap1\n      0xffffffff\n      and\n      jump\t// in\n    tag_211:\n        /* \"Eraswap.sol\":14886:14908  platformMaintenanceBal */\n      0x1c\n        /* \"Eraswap.sol\":14886:14936  platformMaintenanceBal = (NRTBal.mul(10)).div(100) */\n      dup2\n      swap1\n      sstore\n      pop\n        /* \"Eraswap.sol\":14965:14990  (NRTBal.mul(10)).div(100) */\n      tag_213\n        /* \"Eraswap.sol\":14986:14989  100 */\n      0x64\n        /* \"Eraswap.sol\":14966:14980  NRTBal.mul(10) */\n      tag_214\n        /* \"Eraswap.sol\":14977:14979  10 */\n      0x0a\n        /* \"Eraswap.sol\":14966:14972  NRTBal */\n      dup5\n        /* \"Eraswap.sol\":14966:14976  NRTBal.mul */\n      tag_209\n      swap1\n        /* \"Eraswap.sol\":14966:14980  NRTBal.mul(10) */\n      swap2\n      swap1\n      0xffffffff\n      and\n      jump\t// in\n    tag_214:\n        /* \"Eraswap.sol\":14965:14985  (NRTBal.mul(10)).div */\n      tag_210\n      swap1\n        /* \"Eraswap.sol\":14965:14990  (NRTBal.mul(10)).div(100) */\n      swap2\n      swap1\n      0xffffffff\n      and\n      jump\t// in\n    tag_213:\n        /* \"Eraswap.sol\":14944:14962  marketingAndRNRBal */\n      0x1d\n        /* \"Eraswap.sol\":14944:14990  marketingAndRNRBal = (NRTBal.mul(10)).div(100) */\n      dup2\n      swap1\n      sstore\n      pop\n        /* \"Eraswap.sol\":15011:15036  (NRTBal.mul(10)).div(100) */\n      tag_215\n        /* \"Eraswap.sol\":15032:15035  100 */\n      0x64\n        /* \"Eraswap.sol\":15012:15026  NRTBal.mul(10) */\n      tag_216\n        /* \"Eraswap.sol\":15023:15025  10 */\n      0x0a\n        /* \"Eraswap.sol\":15012:15018  NRTBal */\n      dup5\n        /* \"Eraswap.sol\":15012:15022  NRTBal.mul */\n      tag_209\n      swap1\n        /* \"Eraswap.sol\":15012:15026  NRTBal.mul(10) */\n      swap2\n      swap1\n      0xffffffff\n      and\n      jump\t// in\n    tag_216:\n        /* \"Eraswap.sol\":15011:15031  (NRTBal.mul(10)).div */\n      tag_210\n      swap1\n        /* \"Eraswap.sol\":15011:15036  (NRTBal.mul(10)).div(100) */\n      swap2\n      swap1\n      0xffffffff\n      and\n      jump\t// in\n    tag_215:\n        /* \"Eraswap.sol\":14998:15008  kmPardsBal */\n      0x1e\n        /* \"Eraswap.sol\":14998:15036  kmPardsBal = (NRTBal.mul(10)).div(100) */\n      dup2\n      swap1\n      sstore\n      pop\n        /* \"Eraswap.sol\":15066:15091  (NRTBal.mul(10)).div(100) */\n      tag_217\n        /* \"Eraswap.sol\":15087:15090  100 */\n      0x64\n        /* \"Eraswap.sol\":15067:15081  NRTBal.mul(10) */\n      tag_218\n        /* \"Eraswap.sol\":15078:15080  10 */\n      0x0a\n        /* \"Eraswap.sol\":15067:15073  NRTBal */\n      dup5\n        /* \"Eraswap.sol\":15067:15077  NRTBal.mul */\n      tag_209\n      swap1\n        /* \"Eraswap.sol\":15067:15081  NRTBal.mul(10) */\n      swap2\n      swap1\n      0xffffffff\n      and\n      jump\t// in\n    tag_218:\n        /* \"Eraswap.sol\":15066:15086  (NRTBal.mul(10)).div */\n      tag_210\n      swap1\n        /* \"Eraswap.sol\":15066:15091  (NRTBal.mul(10)).div(100) */\n      swap2\n      swap1\n      0xffffffff\n      and\n      jump\t// in\n    tag_217:\n        /* \"Eraswap.sol\":15044:15063  contingencyFundsBal */\n      0x1f\n        /* \"Eraswap.sol\":15044:15091  contingencyFundsBal = (NRTBal.mul(10)).div(100) */\n      dup2\n      swap1\n      sstore\n      pop\n        /* \"Eraswap.sol\":15127:15151  (NRTBal.mul(5)).div(100) */\n      tag_219\n        /* \"Eraswap.sol\":15147:15150  100 */\n      0x64\n        /* \"Eraswap.sol\":15128:15141  NRTBal.mul(5) */\n      tag_220\n        /* \"Eraswap.sol\":15139:15140  5 */\n      0x05\n        /* \"Eraswap.sol\":15128:15134  NRTBal */\n      dup5\n        /* \"Eraswap.sol\":15128:15138  NRTBal.mul */\n      tag_209\n      swap1\n        /* \"Eraswap.sol\":15128:15141  NRTBal.mul(5) */\n      swap2\n      swap1\n      0xffffffff\n      and\n      jump\t// in\n    tag_220:\n        /* \"Eraswap.sol\":15127:15146  (NRTBal.mul(5)).div */\n      tag_210\n      swap1\n        /* \"Eraswap.sol\":15127:15151  (NRTBal.mul(5)).div(100) */\n      swap2\n      swap1\n      0xffffffff\n      and\n      jump\t// in\n    tag_219:\n        /* \"Eraswap.sol\":15099:15124  researchAndDevelopmentBal */\n      0x20\n        /* \"Eraswap.sol\":15099:15151  researchAndDevelopmentBal = (NRTBal.mul(5)).div(100) */\n      dup2\n      swap1\n      sstore\n      pop\n        /* \"Eraswap.sol\":15173:15199  (NRTBal.mul(25)).div(1000) */\n      tag_221\n        /* \"Eraswap.sol\":15194:15198  1000 */\n      0x03e8\n        /* \"Eraswap.sol\":15174:15188  NRTBal.mul(25) */\n      tag_222\n        /* \"Eraswap.sol\":15185:15187  25 */\n      0x19\n        /* \"Eraswap.sol\":15174:15180  NRTBal */\n      dup5\n        /* \"Eraswap.sol\":15174:15184  NRTBal.mul */\n      tag_209\n      swap1\n        /* \"Eraswap.sol\":15174:15188  NRTBal.mul(25) */\n      swap2\n      swap1\n      0xffffffff\n      and\n      jump\t// in\n    tag_222:\n        /* \"Eraswap.sol\":15173:15193  (NRTBal.mul(25)).div */\n      tag_210\n      swap1\n        /* \"Eraswap.sol\":15173:15199  (NRTBal.mul(25)).div(1000) */\n      swap2\n      swap1\n      0xffffffff\n      and\n      jump\t// in\n    tag_221:\n        /* \"Eraswap.sol\":15159:15170  buzzCafeNRT */\n      0x21\n        /* \"Eraswap.sol\":15159:15199  buzzCafeNRT = (NRTBal.mul(25)).div(1000) */\n      dup2\n      swap1\n      sstore\n      pop\n        /* \"Eraswap.sol\":15221:15246  (NRTBal.mul(15)).div(100) */\n      tag_223\n        /* \"Eraswap.sol\":15242:15245  100 */\n      0x64\n        /* \"Eraswap.sol\":15222:15236  NRTBal.mul(15) */\n      tag_224\n        /* \"Eraswap.sol\":15233:15235  15 */\n      0x0f\n        /* \"Eraswap.sol\":15222:15228  NRTBal */\n      dup5\n        /* \"Eraswap.sol\":15222:15232  NRTBal.mul */\n      tag_209\n      swap1\n        /* \"Eraswap.sol\":15222:15236  NRTBal.mul(15) */\n      swap2\n      swap1\n      0xffffffff\n      and\n      jump\t// in\n    tag_224:\n        /* \"Eraswap.sol\":15221:15241  (NRTBal.mul(15)).div */\n      tag_210\n      swap1\n        /* \"Eraswap.sol\":15221:15246  (NRTBal.mul(15)).div(100) */\n      swap2\n      swap1\n      0xffffffff\n      and\n      jump\t// in\n    tag_223:\n        /* \"Eraswap.sol\":15207:15218  TimeAllyNRT */\n      0x22\n        /* \"Eraswap.sol\":15207:15246  TimeAllyNRT = (NRTBal.mul(15)).div(100) */\n      dup2\n      swap1\n      sstore\n      pop\n        /* \"Eraswap.sol\":15272:15299  (NRTBal.mul(325)).div(1000) */\n      tag_225\n        /* \"Eraswap.sol\":15294:15298  1000 */\n      0x03e8\n        /* \"Eraswap.sol\":15273:15288  NRTBal.mul(325) */\n      tag_226\n        /* \"Eraswap.sol\":15284:15287  325 */\n      0x0145\n        /* \"Eraswap.sol\":15273:15279  NRTBal */\n      dup5\n        /* \"Eraswap.sol\":15273:15283  NRTBal.mul */\n      tag_209\n      swap1\n        /* \"Eraswap.sol\":15273:15288  NRTBal.mul(325) */\n      swap2\n      swap1\n      0xffffffff\n      and\n      jump\t// in\n    tag_226:\n        /* \"Eraswap.sol\":15272:15293  (NRTBal.mul(325)).div */\n      tag_210\n      swap1\n        /* \"Eraswap.sol\":15272:15299  (NRTBal.mul(325)).div(1000) */\n      swap2\n      swap1\n      0xffffffff\n      and\n      jump\t// in\n    tag_225:\n        /* \"Eraswap.sol\":15254:15269  timeSwappersNRT */\n      0x23\n        /* \"Eraswap.sol\":15254:15299  timeSwappersNRT = (NRTBal.mul(325)).div(1000) */\n      dup2\n      swap1\n      sstore\n      pop\n        /* \"Eraswap.sol\":15374:15434  mint(newTalentsAndPartnerships,newTalentsAndPartnershipsBal) */\n      tag_227\n        /* \"Eraswap.sol\":15379:15404  newTalentsAndPartnerships */\n      0x12\n      0x00\n      swap1\n      sload\n      swap1\n      0x0100\n      exp\n      swap1\n      div\n      0xffffffffffffffffffffffffffffffffffffffff\n      and\n        /* \"Eraswap.sol\":15405:15433  newTalentsAndPartnershipsBal */\n      sload(0x1b)\n        /* \"Eraswap.sol\":15374:15378  mint */\n      tag_88\n        /* \"Eraswap.sol\":15374:15434  mint(newTalentsAndPartnerships,newTalentsAndPartnershipsBal) */\n      jump\t// in\n    tag_227:\n      pop\n        /* \"Eraswap.sol\":15447:15544  NRTTransfer(\"newTalentsAndPartnerships\", newTalentsAndPartnerships, newTalentsAndPartnershipsBal) */\n      0x8470ec6072093abfec912969ee9fd5273eed1d3202eac51a1fd83c236ee9bea8\n        /* \"Eraswap.sol\":15488:15513  newTalentsAndPartnerships */\n      0x12\n      0x00\n      swap1\n      sload\n      swap1\n      0x0100\n      exp\n      swap1\n      div\n      0xffffffffffffffffffffffffffffffffffffffff\n      and\n        /* \"Eraswap.sol\":15515:15543  newTalentsAndPartnershipsBal */\n      sload(0x1b)\n        /* \"Eraswap.sol\":15447:15544  NRTTransfer(\"newTalentsAndPartnerships\", newTalentsAndPartnerships, newTalentsAndPartnershipsBal) */\n      mload(0x40)\n      dup1\n      dup1\n      0x20\n      add\n      dup5\n      0xffffffffffffffffffffffffffffffffffffffff\n      and\n      0xffffffffffffffffffffffffffffffffffffffff\n      and\n      dup2\n      mstore\n      0x20\n      add\n      dup4\n      dup2\n      mstore\n      0x20\n      add\n      dup3\n      dup2\n      sub\n      dup3\n      mstore\n      0x19\n      dup2\n      mstore\n      0x20\n      add\n      dup1\n      0x6e657754616c656e7473416e64506172746e6572736869707300000000000000\n      dup2\n      mstore\n      pop\n      0x20\n      add\n      swap4\n      pop\n      pop\n      pop\n      pop\n      mload(0x40)\n      dup1\n      swap2\n      sub\n      swap1\n      log1\n        /* \"Eraswap.sol\":15552:15600  mint(platformMaintenance,platformMaintenanceBal) */\n      tag_228\n        /* \"Eraswap.sol\":15557:15576  platformMaintenance */\n      0x13\n      0x00\n      swap1\n      sload\n      swap1\n      0x0100\n      exp\n      swap1\n      div\n      0xffffffffffffffffffffffffffffffffffffffff\n      and\n        /* \"Eraswap.sol\":15577:15599  platformMaintenanceBal */\n      sload(0x1c)\n        /* \"Eraswap.sol\":15552:15556  mint */\n      tag_88\n        /* \"Eraswap.sol\":15552:15600  mint(platformMaintenance,platformMaintenanceBal) */\n      jump\t// in\n    tag_228:\n      pop\n        /* \"Eraswap.sol\":15613:15692  NRTTransfer(\"platformMaintenance\", platformMaintenance, platformMaintenanceBal) */\n      0x8470ec6072093abfec912969ee9fd5273eed1d3202eac51a1fd83c236ee9bea8\n        /* \"Eraswap.sol\":15648:15667  platformMaintenance */\n      0x13\n      0x00\n      swap1\n      sload\n      swap1\n      0x0100\n      exp\n      swap1\n      div\n      0xffffffffffffffffffffffffffffffffffffffff\n      and\n        /* \"Eraswap.sol\":15669:15691  platformMaintenanceBal */\n      sload(0x1c)\n        /* \"Eraswap.sol\":15613:15692  NRTTransfer(\"platformMaintenance\", platformMaintenance, platformMaintenanceBal) */\n      mload(0x40)\n      dup1\n      dup1\n      0x20\n      add\n      dup5\n      0xffffffffffffffffffffffffffffffffffffffff\n      and\n      0xffffffffffffffffffffffffffffffffffffffff\n      and\n      dup2\n      mstore\n      0x20\n      add\n      dup4\n      dup2\n      mstore\n      0x20\n      add\n      dup3\n      dup2\n      sub\n      dup3\n      mstore\n      0x13\n      dup2\n      mstore\n      0x20\n      add\n      dup1\n      0x706c6174666f726d4d61696e74656e616e636500000000000000000000000000\n      dup2\n      mstore\n      pop\n      0x20\n      add\n      swap4\n      pop\n      pop\n      pop\n      pop\n      mload(0x40)\n      dup1\n      swap2\n      sub\n      swap1\n      log1\n        /* \"Eraswap.sol\":15700:15740  mint(marketingAndRNR,marketingAndRNRBal) */\n      tag_229\n        /* \"Eraswap.sol\":15705:15720  marketingAndRNR */\n      0x14\n      0x00\n      swap1\n      sload\n      swap1\n      0x0100\n      exp\n      swap1\n      div\n      0xffffffffffffffffffffffffffffffffffffffff\n      and\n        /* \"Eraswap.sol\":15721:15739  marketingAndRNRBal */\n      sload(0x1d)\n        /* \"Eraswap.sol\":15700:15704  mint */\n      tag_88\n        /* \"Eraswap.sol\":15700:15740  mint(marketingAndRNR,marketingAndRNRBal) */\n      jump\t// in\n    tag_229:\n      pop\n        /* \"Eraswap.sol\":15753:15820  NRTTransfer(\"marketingAndRNR\", marketingAndRNR, marketingAndRNRBal) */\n      0x8470ec6072093abfec912969ee9fd5273eed1d3202eac51a1fd83c236ee9bea8\n        /* \"Eraswap.sol\":15784:15799  marketingAndRNR */\n      0x14\n      0x00\n      swap1\n      sload\n      swap1\n      0x0100\n      exp\n      swap1\n      div\n      0xffffffffffffffffffffffffffffffffffffffff\n      and\n        /* \"Eraswap.sol\":15801:15819  marketingAndRNRBal */\n      sload(0x1d)\n        /* \"Eraswap.sol\":15753:15820  NRTTransfer(\"marketingAndRNR\", marketingAndRNR, marketingAndRNRBal) */\n      mload(0x40)\n      dup1\n      dup1\n      0x20\n      add\n      dup5\n      0xffffffffffffffffffffffffffffffffffffffff\n      and\n      0xffffffffffffffffffffffffffffffffffffffff\n      and\n      dup2\n      mstore\n      0x20\n      add\n      dup4\n      dup2\n      mstore\n      0x20\n      add\n      dup3\n      dup2\n      sub\n      dup3\n      mstore\n      0x0f\n      dup2\n      mstore\n      0x20\n      add\n      dup1\n      0x6d61726b6574696e67416e64524e520000000000000000000000000000000000\n      dup2\n      mstore\n      pop\n      0x20\n      add\n      swap4\n      pop\n      pop\n      pop\n      pop\n      mload(0x40)\n      dup1\n      swap2\n      sub\n      swap1\n      log1\n        /* \"Eraswap.sol\":15828:15852  mint(kmPards,kmPardsBal) */\n      tag_230\n        /* \"Eraswap.sol\":15833:15840  kmPards */\n      0x15\n      0x00\n      swap1\n      sload\n      swap1\n      0x0100\n      exp\n      swap1\n      div\n      0xffffffffffffffffffffffffffffffffffffffff\n      and\n        /* \"Eraswap.sol\":15841:15851  kmPardsBal */\n      sload(0x1e)\n        /* \"Eraswap.sol\":15828:15832  mint */\n      tag_88\n        /* \"Eraswap.sol\":15828:15852  mint(kmPards,kmPardsBal) */\n      jump\t// in\n    tag_230:\n      pop\n        /* \"Eraswap.sol\":15865:15908  NRTTransfer(\"kmPards\", kmPards, kmPardsBal) */\n      0x8470ec6072093abfec912969ee9fd5273eed1d3202eac51a1fd83c236ee9bea8\n        /* \"Eraswap.sol\":15888:15895  kmPards */\n      0x15\n      0x00\n      swap1\n      sload\n      swap1\n      0x0100\n      exp\n      swap1\n      div\n      0xffffffffffffffffffffffffffffffffffffffff\n      and\n        /* \"Eraswap.sol\":15897:15907  kmPardsBal */\n      sload(0x1e)\n        /* \"Eraswap.sol\":15865:15908  NRTTransfer(\"kmPards\", kmPards, kmPardsBal) */\n      mload(0x40)\n      dup1\n      dup1\n      0x20\n      add\n      dup5\n      0xffffffffffffffffffffffffffffffffffffffff\n      and\n      0xffffffffffffffffffffffffffffffffffffffff\n      and\n      dup2\n      mstore\n      0x20\n      add\n      dup4\n      dup2\n      mstore\n      0x20\n      add\n      dup3\n      dup2\n      sub\n      dup3\n      mstore\n      0x07\n      dup2\n      mstore\n      0x20\n      add\n      dup1\n      0x6b6d506172647300000000000000000000000000000000000000000000000000\n      dup2\n      mstore\n      pop\n      0x20\n      add\n      swap4\n      pop\n      pop\n      pop\n      pop\n      mload(0x40)\n      dup1\n      swap2\n      sub\n      swap1\n      log1\n        /* \"Eraswap.sol\":15916:15958  mint(contingencyFunds,contingencyFundsBal) */\n      tag_231\n        /* \"Eraswap.sol\":15921:15937  contingencyFunds */\n      0x16\n      0x00\n      swap1\n      sload\n      swap1\n      0x0100\n      exp\n      swap1\n      div\n      0xffffffffffffffffffffffffffffffffffffffff\n      and\n        /* \"Eraswap.sol\":15938:15957  contingencyFundsBal */\n      sload(0x1f)\n        /* \"Eraswap.sol\":15916:15920  mint */\n      tag_88\n        /* \"Eraswap.sol\":15916:15958  mint(contingencyFunds,contingencyFundsBal) */\n      jump\t// in\n    tag_231:\n      pop\n        /* \"Eraswap.sol\":15971:16041  NRTTransfer(\"contingencyFunds\", contingencyFunds, contingencyFundsBal) */\n      0x8470ec6072093abfec912969ee9fd5273eed1d3202eac51a1fd83c236ee9bea8\n        /* \"Eraswap.sol\":16003:16019  contingencyFunds */\n      0x16\n      0x00\n      swap1\n      sload\n      swap1\n      0x0100\n      exp\n      swap1\n      div\n      0xffffffffffffffffffffffffffffffffffffffff\n      and\n        /* \"Eraswap.sol\":16021:16040  contingencyFundsBal */\n      sload(0x1f)\n        /* \"Eraswap.sol\":15971:16041  NRTTransfer(\"contingencyFunds\", contingencyFunds, contingencyFundsBal) */\n      mload(0x40)\n      dup1\n      dup1\n      0x20\n      add\n      dup5\n      0xffffffffffffffffffffffffffffffffffffffff\n      and\n      0xffffffffffffffffffffffffffffffffffffffff\n      and\n      dup2\n      mstore\n      0x20\n      add\n      dup4\n      dup2\n      mstore\n      0x20\n      add\n      dup3\n      dup2\n      sub\n      dup3\n      mstore\n      0x10\n      dup2\n      mstore\n      0x20\n      add\n      dup1\n      0x636f6e74696e67656e637946756e647300000000000000000000000000000000\n      dup2\n      mstore\n      pop\n      0x20\n      add\n      swap4\n      pop\n      pop\n      pop\n      pop\n      mload(0x40)\n      dup1\n      swap2\n      sub\n      swap1\n      log1\n        /* \"Eraswap.sol\":16049:16103  mint(researchAndDevelopment,researchAndDevelopmentBal) */\n      tag_232\n        /* \"Eraswap.sol\":16054:16076  researchAndDevelopment */\n      0x17\n      0x00\n      swap1\n      sload\n      swap1\n      0x0100\n      exp\n      swap1\n      div\n      0xffffffffffffffffffffffffffffffffffffffff\n      and\n        /* \"Eraswap.sol\":16077:16102  researchAndDevelopmentBal */\n      sload(0x20)\n        /* \"Eraswap.sol\":16049:16053  mint */\n      tag_88\n        /* \"Eraswap.sol\":16049:16103  mint(researchAndDevelopment,researchAndDevelopmentBal) */\n      jump\t// in\n    tag_232:\n      pop\n        /* \"Eraswap.sol\":16116:16204  NRTTransfer(\"researchAndDevelopment\", researchAndDevelopment, researchAndDevelopmentBal) */\n      0x8470ec6072093abfec912969ee9fd5273eed1d3202eac51a1fd83c236ee9bea8\n        /* \"Eraswap.sol\":16154:16176  researchAndDevelopment */\n      0x17\n      0x00\n      swap1\n      sload\n      swap1\n      0x0100\n      exp\n      swap1\n      div\n      0xffffffffffffffffffffffffffffffffffffffff\n      and\n        /* \"Eraswap.sol\":16178:16203  researchAndDevelopmentBal */\n      sload(0x20)\n        /* \"Eraswap.sol\":16116:16204  NRTTransfer(\"researchAndDevelopment\", researchAndDevelopment, researchAndDevelopmentBal) */\n      mload(0x40)\n      dup1\n      dup1\n      0x20\n      add\n      dup5\n      0xffffffffffffffffffffffffffffffffffffffff\n      and\n      0xffffffffffffffffffffffffffffffffffffffff\n      and\n      dup2\n      mstore\n      0x20\n      add\n      dup4\n      dup2\n      mstore\n      0x20\n      add\n      dup3\n      dup2\n      sub\n      dup3\n      mstore\n      0x16\n      dup2\n      mstore\n      0x20\n      add\n      dup1\n      0x7265736561726368416e64446576656c6f706d656e7400000000000000000000\n      dup2\n      mstore\n      pop\n      0x20\n      add\n      swap4\n      pop\n      pop\n      pop\n      pop\n      mload(0x40)\n      dup1\n      swap2\n      sub\n      swap1\n      log1\n        /* \"Eraswap.sol\":16212:16238  mint(buzzCafe,buzzCafeNRT) */\n      tag_233\n        /* \"Eraswap.sol\":16217:16225  buzzCafe */\n      0x18\n      0x00\n      swap1\n      sload\n      swap1\n      0x0100\n      exp\n      swap1\n      div\n      0xffffffffffffffffffffffffffffffffffffffff\n      and\n        /* \"Eraswap.sol\":16226:16237  buzzCafeNRT */\n      sload(0x21)\n        /* \"Eraswap.sol\":16212:16216  mint */\n      tag_88\n        /* \"Eraswap.sol\":16212:16238  mint(buzzCafe,buzzCafeNRT) */\n      jump\t// in\n    tag_233:\n      pop\n        /* \"Eraswap.sol\":16251:16297  NRTTransfer(\"buzzCafe\", buzzCafe, buzzCafeNRT) */\n      0x8470ec6072093abfec912969ee9fd5273eed1d3202eac51a1fd83c236ee9bea8\n        /* \"Eraswap.sol\":16275:16283  buzzCafe */\n      0x18\n      0x00\n      swap1\n      sload\n      swap1\n      0x0100\n      exp\n      swap1\n      div\n      0xffffffffffffffffffffffffffffffffffffffff\n      and\n        /* \"Eraswap.sol\":16285:16296  buzzCafeNRT */\n      sload(0x21)\n        /* \"Eraswap.sol\":16251:16297  NRTTransfer(\"buzzCafe\", buzzCafe, buzzCafeNRT) */\n      mload(0x40)\n      dup1\n      dup1\n      0x20\n      add\n      dup5\n      0xffffffffffffffffffffffffffffffffffffffff\n      and\n      0xffffffffffffffffffffffffffffffffffffffff\n      and\n      dup2\n      mstore\n      0x20\n      add\n      dup4\n      dup2\n      mstore\n      0x20\n      add\n      dup3\n      dup2\n      sub\n      dup3\n      mstore\n      0x08\n      dup2\n      mstore\n      0x20\n      add\n      dup1\n      0x62757a7a43616665000000000000000000000000000000000000000000000000\n      dup2\n      mstore\n      pop\n      0x20\n      add\n      swap4\n      pop\n      pop\n      pop\n      pop\n      mload(0x40)\n      dup1\n      swap2\n      sub\n      swap1\n      log1\n        /* \"Eraswap.sol\":16305:16331  mint(TimeAlly,TimeAllyNRT) */\n      tag_234\n        /* \"Eraswap.sol\":16310:16318  TimeAlly */\n      0x1a\n      0x00\n      swap1\n      sload\n      swap1\n      0x0100\n      exp\n      swap1\n      div\n      0xffffffffffffffffffffffffffffffffffffffff\n      and\n        /* \"Eraswap.sol\":16319:16330  TimeAllyNRT */\n      sload(0x22)\n        /* \"Eraswap.sol\":16305:16309  mint */\n      tag_88\n        /* \"Eraswap.sol\":16305:16331  mint(TimeAlly,TimeAllyNRT) */\n      jump\t// in\n    tag_234:\n      pop\n        /* \"Eraswap.sol\":16344:16397  NRTTransfer(\"stakingContract\", TimeAlly, TimeAllyNRT) */\n      0x8470ec6072093abfec912969ee9fd5273eed1d3202eac51a1fd83c236ee9bea8\n        /* \"Eraswap.sol\":16375:16383  TimeAlly */\n      0x1a\n      0x00\n      swap1\n      sload\n      swap1\n      0x0100\n      exp\n      swap1\n      div\n      0xffffffffffffffffffffffffffffffffffffffff\n      and\n        /* \"Eraswap.sol\":16385:16396  TimeAllyNRT */\n      sload(0x22)\n        /* \"Eraswap.sol\":16344:16397  NRTTransfer(\"stakingContract\", TimeAlly, TimeAllyNRT) */\n      mload(0x40)\n      dup1\n      dup1\n      0x20\n      add\n      dup5\n      0xffffffffffffffffffffffffffffffffffffffff\n      and\n      0xffffffffffffffffffffffffffffffffffffffff\n      and\n      dup2\n      mstore\n      0x20\n      add\n      dup4\n      dup2\n      mstore\n      0x20\n      add\n      dup3\n      dup2\n      sub\n      dup3\n      mstore\n      0x0f\n      dup2\n      mstore\n      0x20\n      add\n      dup1\n      0x7374616b696e67436f6e74726163740000000000000000000000000000000000\n      dup2\n      mstore\n      pop\n      0x20\n      add\n      swap4\n      pop\n      pop\n      pop\n      pop\n      mload(0x40)\n      dup1\n      swap2\n      sub\n      swap1\n      log1\n        /* \"Eraswap.sol\":16405:16439  mint(timeSwappers,timeSwappersNRT) */\n      tag_235\n        /* \"Eraswap.sol\":16410:16422  timeSwappers */\n      0x19\n      0x00\n      swap1\n      sload\n      swap1\n      0x0100\n      exp\n      swap1\n      div\n      0xffffffffffffffffffffffffffffffffffffffff\n      and\n        /* \"Eraswap.sol\":16423:16438  timeSwappersNRT */\n      sload(0x23)\n        /* \"Eraswap.sol\":16405:16409  mint */\n      tag_88\n        /* \"Eraswap.sol\":16405:16439  mint(timeSwappers,timeSwappersNRT) */\n      jump\t// in\n    tag_235:\n      pop\n        /* \"Eraswap.sol\":16452:16510  NRTTransfer(\"timeSwappers\", timeSwappers, timeSwappersNRT) */\n      0x8470ec6072093abfec912969ee9fd5273eed1d3202eac51a1fd83c236ee9bea8\n        /* \"Eraswap.sol\":16480:16492  timeSwappers */\n      0x19\n      0x00\n      swap1\n      sload\n      swap1\n      0x0100\n      exp\n      swap1\n      div\n      0xffffffffffffffffffffffffffffffffffffffff\n      and\n        /* \"Eraswap.sol\":16494:16509  timeSwappersNRT */\n      sload(0x23)\n        /* \"Eraswap.sol\":16452:16510  NRTTransfer(\"timeSwappers\", timeSwappers, timeSwappersNRT) */\n      mload(0x40)\n      dup1\n      dup1\n      0x20\n      add\n      dup5\n      0xffffffffffffffffffffffffffffffffffffffff\n      and\n      0xffffffffffffffffffffffffffffffffffffffff\n      and\n      dup2\n      mstore\n      0x20\n      add\n      dup4\n      dup2\n      mstore\n      0x20\n      add\n      dup3\n      dup2\n      sub\n      dup3\n      mstore\n      0x0c\n      dup2\n      mstore\n      0x20\n      add\n      dup1\n      0x74696d6553776170706572730000000000000000000000000000000000000000\n      dup2\n      mstore\n      pop\n      0x20\n      add\n      swap4\n      pop\n      pop\n      pop\n      pop\n      mload(0x40)\n      dup1\n      swap2\n      sub\n      swap1\n      log1\n        /* \"Eraswap.sol\":16546:16568  NRTDistributed(NRTBal) */\n      0x31a2c82874744c38fa6d0d7bacb6ff098de6c1ecc98899f39f5b9ea32108765b\n        /* \"Eraswap.sol\":16561:16567  NRTBal */\n      dup2\n        /* \"Eraswap.sol\":16546:16568  NRTDistributed(NRTBal) */\n      mload(0x40)\n      dup1\n      dup3\n      dup2\n      mstore\n      0x20\n      add\n      swap2\n      pop\n      pop\n      mload(0x40)\n      dup1\n      swap2\n      sub\n      swap1\n      log1\n        /* \"Eraswap.sol\":16590:16591  0 */\n      0x00\n        /* \"Eraswap.sol\":16576:16587  luckPoolBal */\n      0x10\n        /* \"Eraswap.sol\":16576:16591  luckPoolBal = 0 */\n      dup2\n      swap1\n      sstore\n      pop\n        /* \"Eraswap.sol\":16616:16643  LastNRTRelease.add(30 days) */\n      tag_236\n        /* \"Eraswap.sol\":16635:16642  30 days */\n      0x278d00\n        /* \"Eraswap.sol\":16616:16630  LastNRTRelease */\n      sload(0x0c)\n        /* \"Eraswap.sol\":16616:16634  LastNRTRelease.add */\n      tag_172\n      swap1\n        /* \"Eraswap.sol\":16616:16643  LastNRTRelease.add(30 days) */\n      swap2\n      swap1\n      0xffffffff\n      and\n      jump\t// in\n    tag_236:\n        /* \"Eraswap.sol\":16599:16613  LastNRTRelease */\n      0x0c\n        /* \"Eraswap.sol\":16599:16643  LastNRTRelease = LastNRTRelease.add(30 days) */\n      dup2\n      swap1\n      sstore\n      pop\n        /* \"Eraswap.sol\":16683:16695  burnTokens() */\n      tag_237\n        /* \"Eraswap.sol\":16683:16693  burnTokens */\n      tag_238\n        /* \"Eraswap.sol\":16683:16695  burnTokens() */\n      jump\t// in\n    tag_237:\n      pop\n        /* \"Eraswap.sol\":16764:16790  TokensBurned(burnTokenBal) */\n      0x6ef4855b666dcc7884561072e4358b28dfe01feb1b7f4dcebc00e62d50394ac7\n        /* \"Eraswap.sol\":16777:16789  burnTokenBal */\n      sload(0x11)\n        /* \"Eraswap.sol\":16764:16790  TokensBurned(burnTokenBal) */\n      mload(0x40)\n      dup1\n      dup3\n      dup2\n      mstore\n      0x20\n      add\n      swap2\n      pop\n      pop\n      mload(0x40)\n      dup1\n      swap2\n      sub\n      swap1\n      log1\n        /* \"Eraswap.sol\":16817:16819  11 */\n      0x0b\n        /* \"Eraswap.sol\":16803:16813  MonthCount */\n      sload(0x0f)\n        /* \"Eraswap.sol\":16803:16819  MonthCount == 11 */\n      eq\n        /* \"Eraswap.sol\":16800:17026  if(MonthCount == 11){... */\n      iszero\n      tag_239\n      jumpi\n        /* \"Eraswap.sol\":16843:16844  0 */\n      0x00\n        /* \"Eraswap.sol\":16830:16840  MonthCount */\n      0x0f\n        /* \"Eraswap.sol\":16830:16844  MonthCount = 0 */\n      dup2\n      swap1\n      sstore\n      pop\n        /* \"Eraswap.sol\":16872:16904  (AnnualNRTAmount.mul(9)).div(10) */\n      tag_240\n        /* \"Eraswap.sol\":16901:16903  10 */\n      0x0a\n        /* \"Eraswap.sol\":16873:16895  AnnualNRTAmount.mul(9) */\n      tag_241\n        /* \"Eraswap.sol\":16893:16894  9 */\n      0x09\n        /* \"Eraswap.sol\":16873:16888  AnnualNRTAmount */\n      sload(0x0e)\n        /* \"Eraswap.sol\":16873:16892  AnnualNRTAmount.mul */\n      tag_209\n      swap1\n        /* \"Eraswap.sol\":16873:16895  AnnualNRTAmount.mul(9) */\n      swap2\n      swap1\n      0xffffffff\n      and\n      jump\t// in\n    tag_241:\n        /* \"Eraswap.sol\":16872:16900  (AnnualNRTAmount.mul(9)).div */\n      tag_210\n      swap1\n        /* \"Eraswap.sol\":16872:16904  (AnnualNRTAmount.mul(9)).div(10) */\n      swap2\n      swap1\n      0xffffffff\n      and\n      jump\t// in\n    tag_240:\n        /* \"Eraswap.sol\":16854:16869  AnnualNRTAmount */\n      0x0e\n        /* \"Eraswap.sol\":16854:16904  AnnualNRTAmount = (AnnualNRTAmount.mul(9)).div(10) */\n      dup2\n      swap1\n      sstore\n      pop\n        /* \"Eraswap.sol\":16933:16957  MonthlyNRTAmount.div(12) */\n      tag_242\n        /* \"Eraswap.sol\":16954:16956  12 */\n      0x0c\n        /* \"Eraswap.sol\":16933:16949  MonthlyNRTAmount */\n      sload(0x0d)\n        /* \"Eraswap.sol\":16933:16953  MonthlyNRTAmount.div */\n      tag_210\n      swap1\n        /* \"Eraswap.sol\":16933:16957  MonthlyNRTAmount.div(12) */\n      swap2\n      swap1\n      0xffffffff\n      and\n      jump\t// in\n    tag_242:\n        /* \"Eraswap.sol\":16914:16930  MonthlyNRTAmount */\n      0x0d\n        /* \"Eraswap.sol\":16914:16957  MonthlyNRTAmount = MonthlyNRTAmount.div(12) */\n      dup2\n      swap1\n      sstore\n      pop\n        /* \"Eraswap.sol\":16800:17026  if(MonthCount == 11){... */\n      jump(tag_243)\n    tag_239:\n        /* \"Eraswap.sol\":17000:17017  MonthCount.add(1) */\n      tag_244\n        /* \"Eraswap.sol\":17015:17016  1 */\n      0x01\n        /* \"Eraswap.sol\":17000:17010  MonthCount */\n      sload(0x0f)\n        /* \"Eraswap.sol\":17000:17014  MonthCount.add */\n      tag_172\n      swap1\n        /* \"Eraswap.sol\":17000:17017  MonthCount.add(1) */\n      swap2\n      swap1\n      0xffffffff\n      and\n      jump\t// in\n    tag_244:\n        /* \"Eraswap.sol\":16987:16997  MonthCount */\n      0x0f\n        /* \"Eraswap.sol\":16987:17017  MonthCount = MonthCount.add(1) */\n      dup2\n      swap1\n      sstore\n      pop\n        /* \"Eraswap.sol\":16800:17026  if(MonthCount == 11){... */\n    tag_243:\n        /* \"Eraswap.sol\":17040:17044  true */\n      0x01\n        /* \"Eraswap.sol\":17033:17044  return true */\n      swap2\n      pop\n      pop\n        /* \"Eraswap.sol\":14562:17051  function MonthlyNRTRelease() external returns (bool) {... */\n      swap1\n      jump\t// out\n        /* \"Eraswap.sol\":12528:12565  uint256 public platformMaintenanceBal */\n    tag_136:\n      sload(0x1c)\n      dup2\n      jump\t// out\n        /* \"Eraswap.sol\":11516:11547  uint256 public MonthlyNRTAmount */\n    tag_138:\n      sload(0x0d)\n      dup2\n      jump\t// out\n        /* \"Eraswap.sol\":13243:13273  uint256 public timeSwappersNRT */\n    tag_140:\n      sload(0x23)\n      dup2\n      jump\t// out\n        /* \"Eraswap.sol\":11825:11851  uint256 public luckPoolBal */\n    tag_142:\n      sload(0x10)\n      dup2\n      jump\t// out\n        /* \"Eraswap.sol\":13140:13166  uint256 public TimeAllyNRT */\n    tag_144:\n      sload(0x22)\n      dup2\n      jump\t// out\n        /* \"Eraswap.sol\":12630:12663  uint256 public marketingAndRNRBal */\n    tag_146:\n      sload(0x1d)\n      dup2\n      jump\t// out\n        /* \"Eraswap.sol\":8089:8385  function increaseApproval(... */\n    tag_149:\n        /* \"Eraswap.sol\":8190:8194  bool */\n      0x00\n        /* \"Eraswap.sol\":8244:8290  allowed[msg.sender][_spender].add(_addedValue) */\n      tag_246\n        /* \"Eraswap.sol\":8278:8289  _addedValue */\n      dup3\n        /* \"Eraswap.sol\":8244:8251  allowed */\n      0x05\n        /* \"Eraswap.sol\":8244:8263  allowed[msg.sender] */\n      0x00\n        /* \"Eraswap.sol\":8252:8262  msg.sender */\n      caller\n        /* \"Eraswap.sol\":8244:8263  allowed[msg.sender] */\n      0xffffffffffffffffffffffffffffffffffffffff\n      and\n      0xffffffffffffffffffffffffffffffffffffffff\n      and\n      dup2\n      mstore\n      0x20\n      add\n      swap1\n      dup2\n      mstore\n      0x20\n      add\n      0x00\n      keccak256\n        /* \"Eraswap.sol\":8244:8273  allowed[msg.sender][_spender] */\n      0x00\n        /* \"Eraswap.sol\":8264:8272  _spender */\n      dup7\n        /* \"Eraswap.sol\":8244:8273  allowed[msg.sender][_spender] */\n      0xffffffffffffffffffffffffffffffffffffffff\n      and\n      0xffffffffffffffffffffffffffffffffffffffff\n      and\n      dup2\n      mstore\n      0x20\n      add\n      swap1\n      dup2\n      mstore\n      0x20\n      add\n      0x00\n      keccak256\n      sload\n        /* \"Eraswap.sol\":8244:8277  allowed[msg.sender][_spender].add */\n      tag_172\n      swap1\n        /* \"Eraswap.sol\":8244:8290  allowed[msg.sender][_spender].add(_addedValue) */\n      swap2\n      swap1\n      0xffffffff\n      and\n      jump\t// in\n    tag_246:\n        /* \"Eraswap.sol\":8204:8211  allowed */\n      0x05\n        /* \"Eraswap.sol\":8204:8223  allowed[msg.sender] */\n      0x00\n        /* \"Eraswap.sol\":8212:8222  msg.sender */\n      caller\n        /* \"Eraswap.sol\":8204:8223  allowed[msg.sender] */\n      0xffffffffffffffffffffffffffffffffffffffff\n      and\n      0xffffffffffffffffffffffffffffffffffffffff\n      and\n      dup2\n      mstore\n      0x20\n      add\n      swap1\n      dup2\n      mstore\n      0x20\n      add\n      0x00\n      keccak256\n        /* \"Eraswap.sol\":8204:8233  allowed[msg.sender][_spender] */\n      0x00\n        /* \"Eraswap.sol\":8224:8232  _spender */\n      dup6\n        /* \"Eraswap.sol\":8204:8233  allowed[msg.sender][_spender] */\n      0xffffffffffffffffffffffffffffffffffffffff\n      and\n      0xffffffffffffffffffffffffffffffffffffffff\n      and\n      dup2\n      mstore\n      0x20\n      add\n      swap1\n      dup2\n      mstore\n      0x20\n      add\n      0x00\n      keccak256\n        /* \"Eraswap.sol\":8204:8291  allowed[msg.sender][_spender] = (... */\n      dup2\n      swap1\n      sstore\n      pop\n        /* \"Eraswap.sol\":8323:8331  _spender */\n      dup3\n        /* \"Eraswap.sol\":8302:8363  Approval(msg.sender, _spender, allowed[msg.sender][_spender]) */\n      0xffffffffffffffffffffffffffffffffffffffff\n      and\n        /* \"Eraswap.sol\":8311:8321  msg.sender */\n      caller\n        /* \"Eraswap.sol\":8302:8363  Approval(msg.sender, _spender, allowed[msg.sender][_spender]) */\n      0xffffffffffffffffffffffffffffffffffffffff\n      and\n      0x8c5be1e5ebec7d5bd14f71427d1e84f3dd0314c0f7b2291e5b200ac8c7c3b925\n        /* \"Eraswap.sol\":8333:8340  allowed */\n      0x05\n        /* \"Eraswap.sol\":8333:8352  allowed[msg.sender] */\n      0x00\n        /* \"Eraswap.sol\":8341:8351  msg.sender */\n      caller\n        /* \"Eraswap.sol\":8333:8352  allowed[msg.sender] */\n      0xffffffffffffffffffffffffffffffffffffffff\n      and\n      0xffffffffffffffffffffffffffffffffffffffff\n      and\n      dup2\n      mstore\n      0x20\n      add\n      swap1\n      dup2\n      mstore\n      0x20\n      add\n      0x00\n      keccak256\n        /* \"Eraswap.sol\":8333:8362  allowed[msg.sender][_spender] */\n      0x00\n        /* \"Eraswap.sol\":8353:8361  _spender */\n      dup8\n        /* \"Eraswap.sol\":8333:8362  allowed[msg.sender][_spender] */\n      0xffffffffffffffffffffffffffffffffffffffff\n      and\n      0xffffffffffffffffffffffffffffffffffffffff\n      and\n      dup2\n      mstore\n      0x20\n      add\n      swap1\n      dup2\n      mstore\n      0x20\n      add\n      0x00\n      keccak256\n      sload\n        /* \"Eraswap.sol\":8302:8363  Approval(msg.sender, _spender, allowed[msg.sender][_spender]) */\n      mload(0x40)\n      dup1\n      dup3\n      dup2\n      mstore\n      0x20\n      add\n      swap2\n      pop\n      pop\n      mload(0x40)\n      dup1\n      swap2\n      sub\n      swap1\n      log3\n        /* \"Eraswap.sol\":8376:8380  true */\n      0x01\n        /* \"Eraswap.sol\":8369:8380  return true */\n      swap1\n      pop\n        /* \"Eraswap.sol\":8089:8385  function increaseApproval(... */\n      swap3\n      swap2\n      pop\n      pop\n      jump\t// out\n        /* \"Eraswap.sol\":13038:13064  uint256 public buzzCafeNRT */\n    tag_151:\n      sload(0x21)\n      dup2\n      jump\t// out\n        /* \"Eraswap.sol\":7484:7637  function allowance(... */\n    tag_154:\n        /* \"Eraswap.sol\":7583:7590  uint256 */\n      0x00\n        /* \"Eraswap.sol\":7607:7614  allowed */\n      0x05\n        /* \"Eraswap.sol\":7607:7622  allowed[_owner] */\n      0x00\n        /* \"Eraswap.sol\":7615:7621  _owner */\n      dup5\n        /* \"Eraswap.sol\":7607:7622  allowed[_owner] */\n      0xffffffffffffffffffffffffffffffffffffffff\n      and\n      0xffffffffffffffffffffffffffffffffffffffff\n      and\n      dup2\n      mstore\n      0x20\n      add\n      swap1\n      dup2\n      mstore\n      0x20\n      add\n      0x00\n      keccak256\n        /* \"Eraswap.sol\":7607:7632  allowed[_owner][_spender] */\n      0x00\n        /* \"Eraswap.sol\":7623:7631  _spender */\n      dup4\n        /* \"Eraswap.sol\":7607:7632  allowed[_owner][_spender] */\n      0xffffffffffffffffffffffffffffffffffffffff\n      and\n      0xffffffffffffffffffffffffffffffffffffffff\n      and\n      dup2\n      mstore\n      0x20\n      add\n      swap1\n      dup2\n      mstore\n      0x20\n      add\n      0x00\n      keccak256\n      sload\n        /* \"Eraswap.sol\":7600:7632  return allowed[_owner][_spender] */\n      swap1\n      pop\n        /* \"Eraswap.sol\":7484:7637  function allowance(... */\n      swap3\n      swap2\n      pop\n      pop\n      jump\t// out\n        /* \"Eraswap.sol\":12426:12469  uint256 public newTalentsAndPartnershipsBal */\n    tag_156:\n      sload(0x1b)\n      dup2\n      jump\t// out\n        /* \"Eraswap.sol\":3831:3934  function transferOwnership(address _newOwner) public onlyOwner {... */\n    tag_159:\n        /* \"Eraswap.sol\":3276:3281  owner */\n      0x06\n      0x00\n      swap1\n      sload\n      swap1\n      0x0100\n      exp\n      swap1\n      div\n      0xffffffffffffffffffffffffffffffffffffffff\n      and\n        /* \"Eraswap.sol\":3262:3281  msg.sender == owner */\n      0xffffffffffffffffffffffffffffffffffffffff\n      and\n        /* \"Eraswap.sol\":3262:3272  msg.sender */\n      caller\n        /* \"Eraswap.sol\":3262:3281  msg.sender == owner */\n      0xffffffffffffffffffffffffffffffffffffffff\n      and\n      eq\n        /* \"Eraswap.sol\":3254:3282  require(msg.sender == owner) */\n      tag_249\n      jumpi\n      0x00\n      dup1\n      revert\n    tag_249:\n        /* \"Eraswap.sol\":3900:3929  _transferOwnership(_newOwner) */\n      tag_251\n        /* \"Eraswap.sol\":3919:3928  _newOwner */\n      dup2\n        /* \"Eraswap.sol\":3900:3918  _transferOwnership */\n      tag_252\n        /* \"Eraswap.sol\":3900:3929  _transferOwnership(_newOwner) */\n      jump\t// in\n    tag_251:\n        /* \"Eraswap.sol\":3831:3934  function transferOwnership(address _newOwner) public onlyOwner {... */\n      pop\n      jump\t// out\n        /* \"Eraswap.sol\":5187:5303  function sub(uint256 _a, uint256 _b) internal pure returns (uint256) {... */\n    tag_170:\n        /* \"Eraswap.sol\":5247:5254  uint256 */\n      0x00\n        /* \"Eraswap.sol\":5275:5277  _a */\n      dup3\n        /* \"Eraswap.sol\":5269:5271  _b */\n      dup3\n        /* \"Eraswap.sol\":5269:5277  _b <= _a */\n      gt\n      iszero\n        /* \"Eraswap.sol\":5262:5278  assert(_b <= _a) */\n      tag_254\n      jumpi\n      invalid\n    tag_254:\n        /* \"Eraswap.sol\":5296:5298  _b */\n      dup2\n        /* \"Eraswap.sol\":5291:5293  _a */\n      dup4\n        /* \"Eraswap.sol\":5291:5298  _a - _b */\n      sub\n        /* \"Eraswap.sol\":5284:5298  return _a - _b */\n      swap1\n      pop\n        /* \"Eraswap.sol\":5187:5303  function sub(uint256 _a, uint256 _b) internal pure returns (uint256) {... */\n      swap3\n      swap2\n      pop\n      pop\n      jump\t// out\n        /* \"Eraswap.sol\":5365:5493  function add(uint256 _a, uint256 _b) internal pure returns (uint256 c) {... */\n    tag_172:\n        /* \"Eraswap.sol\":5425:5434  uint256 c */\n      0x00\n        /* \"Eraswap.sol\":5451:5453  _b */\n      dup2\n        /* \"Eraswap.sol\":5446:5448  _a */\n      dup4\n        /* \"Eraswap.sol\":5446:5453  _a + _b */\n      add\n        /* \"Eraswap.sol\":5442:5453  c = _a + _b */\n      swap1\n      pop\n        /* \"Eraswap.sol\":5471:5473  _a */\n      dup3\n        /* \"Eraswap.sol\":5466:5467  c */\n      dup2\n        /* \"Eraswap.sol\":5466:5473  c >= _a */\n      lt\n      iszero\n        /* \"Eraswap.sol\":5459:5474  assert(c >= _a) */\n      tag_256\n      jumpi\n      invalid\n    tag_256:\n        /* \"Eraswap.sol\":5487:5488  c */\n      dup1\n        /* \"Eraswap.sol\":5480:5488  return c */\n      swap1\n      pop\n        /* \"Eraswap.sol\":5365:5493  function add(uint256 _a, uint256 _b) internal pure returns (uint256 c) {... */\n      swap3\n      swap2\n      pop\n      pop\n      jump\t// out\n        /* \"Eraswap.sol\":9825:10137  function mint(... */\n    tag_178:\n        /* \"Eraswap.sol\":9939:9943  bool */\n      0x00\n        /* \"Eraswap.sol\":9571:9576  owner */\n      0x06\n      0x00\n      swap1\n      sload\n      swap1\n      0x0100\n      exp\n      swap1\n      div\n      0xffffffffffffffffffffffffffffffffffffffff\n      and\n        /* \"Eraswap.sol\":9557:9576  msg.sender == owner */\n      0xffffffffffffffffffffffffffffffffffffffff\n      and\n        /* \"Eraswap.sol\":9557:9567  msg.sender */\n      caller\n        /* \"Eraswap.sol\":9557:9576  msg.sender == owner */\n      0xffffffffffffffffffffffffffffffffffffffff\n      and\n      eq\n        /* \"Eraswap.sol\":9549:9577  require(msg.sender == owner) */\n      tag_258\n      jumpi\n      0x00\n      dup1\n      revert\n    tag_258:\n        /* \"Eraswap.sol\":9482:9497  mintingFinished */\n      0x06\n      0x14\n      swap1\n      sload\n      swap1\n      0x0100\n      exp\n      swap1\n      div\n      0xff\n      and\n        /* \"Eraswap.sol\":9481:9497  !mintingFinished */\n      iszero\n        /* \"Eraswap.sol\":9473:9498  require(!mintingFinished) */\n      tag_260\n      jumpi\n      0x00\n      dup1\n      revert\n    tag_260:\n        /* \"Eraswap.sol\":9968:9993  totalSupply_.add(_amount) */\n      tag_262\n        /* \"Eraswap.sol\":9985:9992  _amount */\n      dup3\n        /* \"Eraswap.sol\":9968:9980  totalSupply_ */\n      sload(0x04)\n        /* \"Eraswap.sol\":9968:9984  totalSupply_.add */\n      tag_172\n      swap1\n        /* \"Eraswap.sol\":9968:9993  totalSupply_.add(_amount) */\n      swap2\n      swap1\n      0xffffffff\n      and\n      jump\t// in\n    tag_262:\n        /* \"Eraswap.sol\":9953:9965  totalSupply_ */\n      0x04\n        /* \"Eraswap.sol\":9953:9993  totalSupply_ = totalSupply_.add(_amount) */\n      dup2\n      swap1\n      sstore\n      pop\n        /* \"Eraswap.sol\":10015:10041  balances[_to].add(_amount) */\n      tag_263\n        /* \"Eraswap.sol\":10033:10040  _amount */\n      dup3\n        /* \"Eraswap.sol\":10015:10023  balances */\n      0x03\n        /* \"Eraswap.sol\":10015:10028  balances[_to] */\n      0x00\n        /* \"Eraswap.sol\":10024:10027  _to */\n      dup7\n        /* \"Eraswap.sol\":10015:10028  balances[_to] */\n      0xffffffffffffffffffffffffffffffffffffffff\n      and\n      0xffffffffffffffffffffffffffffffffffffffff\n      and\n      dup2\n      mstore\n      0x20\n      add\n      swap1\n      dup2\n      mstore\n      0x20\n      add\n      0x00\n      keccak256\n      sload\n        /* \"Eraswap.sol\":10015:10032  balances[_to].add */\n      tag_172\n      swap1\n        /* \"Eraswap.sol\":10015:10041  balances[_to].add(_amount) */\n      swap2\n      swap1\n      0xffffffff\n      and\n      jump\t// in\n    tag_263:\n        /* \"Eraswap.sol\":9999:10007  balances */\n      0x03\n        /* \"Eraswap.sol\":9999:10012  balances[_to] */\n      0x00\n        /* \"Eraswap.sol\":10008:10011  _to */\n      dup6\n        /* \"Eraswap.sol\":9999:10012  balances[_to] */\n      0xffffffffffffffffffffffffffffffffffffffff\n      and\n      0xffffffffffffffffffffffffffffffffffffffff\n      and\n      dup2\n      mstore\n      0x20\n      add\n      swap1\n      dup2\n      mstore\n      0x20\n      add\n      0x00\n      keccak256\n        /* \"Eraswap.sol\":9999:10041  balances[_to] = balances[_to].add(_amount) */\n      dup2\n      swap1\n      sstore\n      pop\n        /* \"Eraswap.sol\":10057:10060  _to */\n      dup3\n        /* \"Eraswap.sol\":10052:10070  Mint(_to, _amount) */\n      0xffffffffffffffffffffffffffffffffffffffff\n      and\n      0x0f6798a560793a54c3bcfe86a93cde1e73087d944c0ea20544137d4121396885\n        /* \"Eraswap.sol\":10062:10069  _amount */\n      dup4\n        /* \"Eraswap.sol\":10052:10070  Mint(_to, _amount) */\n      mload(0x40)\n      dup1\n      dup3\n      dup2\n      mstore\n      0x20\n      add\n      swap2\n      pop\n      pop\n      mload(0x40)\n      dup1\n      swap2\n      sub\n      swap1\n      log2\n        /* \"Eraswap.sol\":10102:10105  _to */\n      dup3\n        /* \"Eraswap.sol\":10081:10115  Transfer(address(0), _to, _amount) */\n      0xffffffffffffffffffffffffffffffffffffffff\n      and\n        /* \"Eraswap.sol\":10098:10099  0 */\n      0x00\n        /* \"Eraswap.sol\":10081:10115  Transfer(address(0), _to, _amount) */\n      0xffffffffffffffffffffffffffffffffffffffff\n      and\n      0xddf252ad1be2c89b69c2b068fc378daa952ba7f163c4a11628f55a4df523b3ef\n        /* \"Eraswap.sol\":10107:10114  _amount */\n      dup5\n        /* \"Eraswap.sol\":10081:10115  Transfer(address(0), _to, _amount) */\n      mload(0x40)\n      dup1\n      dup3\n      dup2\n      mstore\n      0x20\n      add\n      swap2\n      pop\n      pop\n      mload(0x40)\n      dup1\n      swap2\n      sub\n      swap1\n      log3\n        /* \"Eraswap.sol\":10128:10132  true */\n      0x01\n        /* \"Eraswap.sol\":10121:10132  return true */\n      swap1\n      pop\n        /* \"Eraswap.sol\":9825:10137  function mint(... */\n      swap3\n      swap2\n      pop\n      pop\n      jump\t// out\n        /* \"Eraswap.sol\":1675:2113  function _burn(address _who, uint256 _value) internal {... */\n    tag_181:\n        /* \"Eraswap.sol\":1753:1761  balances */\n      0x03\n        /* \"Eraswap.sol\":1753:1767  balances[_who] */\n      0x00\n        /* \"Eraswap.sol\":1762:1766  _who */\n      dup4\n        /* \"Eraswap.sol\":1753:1767  balances[_who] */\n      0xffffffffffffffffffffffffffffffffffffffff\n      and\n      0xffffffffffffffffffffffffffffffffffffffff\n      and\n      dup2\n      mstore\n      0x20\n      add\n      swap1\n      dup2\n      mstore\n      0x20\n      add\n      0x00\n      keccak256\n      sload\n        /* \"Eraswap.sol\":1743:1749  _value */\n      dup2\n        /* \"Eraswap.sol\":1743:1767  _value <= balances[_who] */\n      gt\n      iszero\n        /* \"Eraswap.sol\":1735:1768  require(_value <= balances[_who]) */\n      tag_265\n      jumpi\n      0x00\n      dup1\n      revert\n    tag_265:\n        /* \"Eraswap.sol\":1963:1989  balances[_who].sub(_value) */\n      tag_266\n        /* \"Eraswap.sol\":1982:1988  _value */\n      dup2\n        /* \"Eraswap.sol\":1963:1971  balances */\n      0x03\n        /* \"Eraswap.sol\":1963:1977  balances[_who] */\n      0x00\n        /* \"Eraswap.sol\":1972:1976  _who */\n      dup6\n        /* \"Eraswap.sol\":1963:1977  balances[_who] */\n      0xffffffffffffffffffffffffffffffffffffffff\n      and\n      0xffffffffffffffffffffffffffffffffffffffff\n      and\n      dup2\n      mstore\n      0x20\n      add\n      swap1\n      dup2\n      mstore\n      0x20\n      add\n      0x00\n      keccak256\n      sload\n        /* \"Eraswap.sol\":1963:1981  balances[_who].sub */\n      tag_170\n      swap1\n        /* \"Eraswap.sol\":1963:1989  balances[_who].sub(_value) */\n      swap2\n      swap1\n      0xffffffff\n      and\n      jump\t// in\n    tag_266:\n        /* \"Eraswap.sol\":1946:1954  balances */\n      0x03\n        /* \"Eraswap.sol\":1946:1960  balances[_who] */\n      0x00\n        /* \"Eraswap.sol\":1955:1959  _who */\n      dup5\n        /* \"Eraswap.sol\":1946:1960  balances[_who] */\n      0xffffffffffffffffffffffffffffffffffffffff\n      and\n      0xffffffffffffffffffffffffffffffffffffffff\n      and\n      dup2\n      mstore\n      0x20\n      add\n      swap1\n      dup2\n      mstore\n      0x20\n      add\n      0x00\n      keccak256\n        /* \"Eraswap.sol\":1946:1989  balances[_who] = balances[_who].sub(_value) */\n      dup2\n      swap1\n      sstore\n      pop\n        /* \"Eraswap.sol\":2010:2034  totalSupply_.sub(_value) */\n      tag_267\n        /* \"Eraswap.sol\":2027:2033  _value */\n      dup2\n        /* \"Eraswap.sol\":2010:2022  totalSupply_ */\n      sload(0x04)\n        /* \"Eraswap.sol\":2010:2026  totalSupply_.sub */\n      tag_170\n      swap1\n        /* \"Eraswap.sol\":2010:2034  totalSupply_.sub(_value) */\n      swap2\n      swap1\n      0xffffffff\n      and\n      jump\t// in\n    tag_267:\n        /* \"Eraswap.sol\":1995:2007  totalSupply_ */\n      0x04\n        /* \"Eraswap.sol\":1995:2034  totalSupply_ = totalSupply_.sub(_value) */\n      dup2\n      swap1\n      sstore\n      pop\n        /* \"Eraswap.sol\":2050:2054  _who */\n      dup2\n        /* \"Eraswap.sol\":2045:2063  Burn(_who, _value) */\n      0xffffffffffffffffffffffffffffffffffffffff\n      and\n      0xcc16f5dbb4873280815c1ee09dbd06736cffcc184412cf7a71a0fdb75d397ca5\n        /* \"Eraswap.sol\":2056:2062  _value */\n      dup3\n        /* \"Eraswap.sol\":2045:2063  Burn(_who, _value) */\n      mload(0x40)\n      dup1\n      dup3\n      dup2\n      mstore\n      0x20\n      add\n      swap2\n      pop\n      pop\n      mload(0x40)\n      dup1\n      swap2\n      sub\n      swap1\n      log2\n        /* \"Eraswap.sol\":2097:2098  0 */\n      0x00\n        /* \"Eraswap.sol\":2074:2108  Transfer(_who, address(0), _value) */\n      0xffffffffffffffffffffffffffffffffffffffff\n      and\n        /* \"Eraswap.sol\":2083:2087  _who */\n      dup3\n        /* \"Eraswap.sol\":2074:2108  Transfer(_who, address(0), _value) */\n      0xffffffffffffffffffffffffffffffffffffffff\n      and\n      0xddf252ad1be2c89b69c2b068fc378daa952ba7f163c4a11628f55a4df523b3ef\n        /* \"Eraswap.sol\":2101:2107  _value */\n      dup4\n        /* \"Eraswap.sol\":2074:2108  Transfer(_who, address(0), _value) */\n      mload(0x40)\n      dup1\n      dup3\n      dup2\n      mstore\n      0x20\n      add\n      swap2\n      pop\n      pop\n      mload(0x40)\n      dup1\n      swap2\n      sub\n      swap1\n      log3\n        /* \"Eraswap.sol\":1675:2113  function _burn(address _who, uint256 _value) internal {... */\n      pop\n      pop\n      jump\t// out\n        /* \"Eraswap.sol\":4330:4710  function mul(uint256 _a, uint256 _b) internal pure returns (uint256 c) {... */\n    tag_209:\n        /* \"Eraswap.sol\":4390:4399  uint256 c */\n      0x00\n        /* \"Eraswap.sol\":4622:4623  0 */\n      dup1\n        /* \"Eraswap.sol\":4616:4618  _a */\n      dup4\n        /* \"Eraswap.sol\":4616:4623  _a == 0 */\n      eq\n        /* \"Eraswap.sol\":4612:4648  if (_a == 0) {... */\n      iszero\n      tag_269\n      jumpi\n        /* \"Eraswap.sol\":4640:4641  0 */\n      0x00\n        /* \"Eraswap.sol\":4633:4641  return 0 */\n      swap1\n      pop\n      jump(tag_268)\n        /* \"Eraswap.sol\":4612:4648  if (_a == 0) {... */\n    tag_269:\n        /* \"Eraswap.sol\":4663:4665  _b */\n      dup2\n        /* \"Eraswap.sol\":4658:4660  _a */\n      dup4\n        /* \"Eraswap.sol\":4658:4665  _a * _b */\n      mul\n        /* \"Eraswap.sol\":4654:4665  c = _a * _b */\n      swap1\n      pop\n        /* \"Eraswap.sol\":4688:4690  _b */\n      dup2\n        /* \"Eraswap.sol\":4682:4684  _a */\n      dup4\n        /* \"Eraswap.sol\":4678:4679  c */\n      dup3\n        /* \"Eraswap.sol\":4678:4684  c / _a */\n      dup2\n      tag_270\n      jumpi\n      invalid\n    tag_270:\n      div\n        /* \"Eraswap.sol\":4678:4690  c / _a == _b */\n      eq\n        /* \"Eraswap.sol\":4671:4691  assert(c / _a == _b) */\n      tag_271\n      jumpi\n      invalid\n    tag_271:\n        /* \"Eraswap.sol\":4704:4705  c */\n      dup1\n        /* \"Eraswap.sol\":4697:4705  return c */\n      swap1\n      pop\n        /* \"Eraswap.sol\":4330:4710  function mul(uint256 _a, uint256 _b) internal pure returns (uint256 c) {... */\n    tag_268:\n      swap3\n      swap2\n      pop\n      pop\n      jump\t// out\n        /* \"Eraswap.sol\":4792:5075  function div(uint256 _a, uint256 _b) internal pure returns (uint256) {... */\n    tag_210:\n        /* \"Eraswap.sol\":4852:4859  uint256 */\n      0x00\n        /* \"Eraswap.sol\":5068:5070  _b */\n      dup2\n        /* \"Eraswap.sol\":5063:5065  _a */\n      dup4\n        /* \"Eraswap.sol\":5063:5070  _a / _b */\n      dup2\n      tag_273\n      jumpi\n      invalid\n    tag_273:\n      div\n        /* \"Eraswap.sol\":5056:5070  return _a / _b */\n      swap1\n      pop\n        /* \"Eraswap.sol\":4792:5075  function div(uint256 _a, uint256 _b) internal pure returns (uint256) {... */\n      swap3\n      swap2\n      pop\n      pop\n      jump\t// out\n        /* \"Eraswap.sol\":14004:14473  function burnTokens() internal returns (bool){... */\n    tag_238:\n        /* \"Eraswap.sol\":14044:14048  bool */\n      0x00\n        /* \"Eraswap.sol\":14076:14077  0 */\n      dup1\n        /* \"Eraswap.sol\":14060:14072  burnTokenBal */\n      sload(0x11)\n        /* \"Eraswap.sol\":14060:14077  burnTokenBal == 0 */\n      eq\n        /* \"Eraswap.sol\":14057:14467  if(burnTokenBal == 0){... */\n      iszero\n      tag_275\n      jumpi\n        /* \"Eraswap.sol\":14095:14099  true */\n      0x01\n        /* \"Eraswap.sol\":14088:14099  return true */\n      swap1\n      pop\n      jump(tag_274)\n        /* \"Eraswap.sol\":14057:14467  if(burnTokenBal == 0){... */\n    tag_275:\n        /* \"Eraswap.sol\":14129:14143  uint MaxAmount */\n      0x00\n        /* \"Eraswap.sol\":14146:14179  ((totalSupply()).mul(2)).div(100) */\n      tag_277\n        /* \"Eraswap.sol\":14175:14178  100 */\n      0x64\n        /* \"Eraswap.sol\":14147:14169  (totalSupply()).mul(2) */\n      tag_278\n        /* \"Eraswap.sol\":14167:14168  2 */\n      0x02\n        /* \"Eraswap.sol\":14148:14161  totalSupply() */\n      tag_279\n        /* \"Eraswap.sol\":14148:14159  totalSupply */\n      tag_68\n        /* \"Eraswap.sol\":14148:14161  totalSupply() */\n      jump\t// in\n    tag_279:\n        /* \"Eraswap.sol\":14147:14166  (totalSupply()).mul */\n      tag_209\n      swap1\n        /* \"Eraswap.sol\":14147:14169  (totalSupply()).mul(2) */\n      swap2\n      swap1\n      0xffffffff\n      and\n      jump\t// in\n    tag_278:\n        /* \"Eraswap.sol\":14146:14174  ((totalSupply()).mul(2)).div */\n      tag_210\n      swap1\n        /* \"Eraswap.sol\":14146:14179  ((totalSupply()).mul(2)).div(100) */\n      swap2\n      swap1\n      0xffffffff\n      and\n      jump\t// in\n    tag_277:\n        /* \"Eraswap.sol\":14129:14179  uint MaxAmount = ((totalSupply()).mul(2)).div(100) */\n      swap1\n      pop\n        /* \"Eraswap.sol\":14250:14262  burnTokenBal */\n      sload(0x11)\n        /* \"Eraswap.sol\":14237:14246  MaxAmount */\n      dup2\n        /* \"Eraswap.sol\":14237:14262  MaxAmount >= burnTokenBal */\n      lt\n        /* \"Eraswap.sol\":14234:14438  if(MaxAmount >= burnTokenBal ){... */\n      tag_280\n      jumpi\n        /* \"Eraswap.sol\":14276:14294  burn(burnTokenBal) */\n      tag_281\n        /* \"Eraswap.sol\":14281:14293  burnTokenBal */\n      sload(0x11)\n        /* \"Eraswap.sol\":14276:14280  burn */\n      tag_91\n        /* \"Eraswap.sol\":14276:14294  burn(burnTokenBal) */\n      jump\t// in\n    tag_281:\n        /* \"Eraswap.sol\":14321:14322  0 */\n      0x00\n        /* \"Eraswap.sol\":14306:14318  burnTokenBal */\n      0x11\n        /* \"Eraswap.sol\":14306:14322  burnTokenBal = 0 */\n      dup2\n      swap1\n      sstore\n      pop\n        /* \"Eraswap.sol\":14234:14438  if(MaxAmount >= burnTokenBal ){... */\n      jump(tag_282)\n    tag_280:\n        /* \"Eraswap.sol\":14373:14400  burnTokenBal.sub(MaxAmount) */\n      tag_283\n        /* \"Eraswap.sol\":14390:14399  MaxAmount */\n      dup2\n        /* \"Eraswap.sol\":14373:14385  burnTokenBal */\n      sload(0x11)\n        /* \"Eraswap.sol\":14373:14389  burnTokenBal.sub */\n      tag_170\n      swap1\n        /* \"Eraswap.sol\":14373:14400  burnTokenBal.sub(MaxAmount) */\n      swap2\n      swap1\n      0xffffffff\n      and\n      jump\t// in\n    tag_283:\n        /* \"Eraswap.sol\":14358:14370  burnTokenBal */\n      0x11\n        /* \"Eraswap.sol\":14358:14400  burnTokenBal = burnTokenBal.sub(MaxAmount) */\n      dup2\n      swap1\n      sstore\n      pop\n        /* \"Eraswap.sol\":14412:14427  burn(MaxAmount) */\n      tag_284\n        /* \"Eraswap.sol\":14417:14426  MaxAmount */\n      dup2\n        /* \"Eraswap.sol\":14412:14416  burn */\n      tag_91\n        /* \"Eraswap.sol\":14412:14427  burn(MaxAmount) */\n      jump\t// in\n    tag_284:\n        /* \"Eraswap.sol\":14234:14438  if(MaxAmount >= burnTokenBal ){... */\n    tag_282:\n        /* \"Eraswap.sol\":14454:14458  true */\n      0x01\n        /* \"Eraswap.sol\":14447:14458  return true */\n      swap2\n      pop\n      pop\n        /* \"Eraswap.sol\":14004:14473  function burnTokens() internal returns (bool){... */\n    tag_274:\n      swap1\n      jump\t// out\n        /* \"Eraswap.sol\":4069:4240  function _transferOwnership(address _newOwner) internal {... */\n    tag_252:\n        /* \"Eraswap.sol\":4160:4161  0 */\n      0x00\n        /* \"Eraswap.sol\":4139:4162  _newOwner != address(0) */\n      0xffffffffffffffffffffffffffffffffffffffff\n      and\n        /* \"Eraswap.sol\":4139:4148  _newOwner */\n      dup2\n        /* \"Eraswap.sol\":4139:4162  _newOwner != address(0) */\n      0xffffffffffffffffffffffffffffffffffffffff\n      and\n      eq\n      iszero\n        /* \"Eraswap.sol\":4131:4163  require(_newOwner != address(0)) */\n      tag_286\n      jumpi\n      0x00\n      dup1\n      revert\n    tag_286:\n        /* \"Eraswap.sol\":4202:4211  _newOwner */\n      dup1\n        /* \"Eraswap.sol\":4174:4212  OwnershipTransferred(owner, _newOwner) */\n      0xffffffffffffffffffffffffffffffffffffffff\n      and\n        /* \"Eraswap.sol\":4195:4200  owner */\n      0x06\n      0x00\n      swap1\n      sload\n      swap1\n      0x0100\n      exp\n      swap1\n      div\n      0xffffffffffffffffffffffffffffffffffffffff\n      and\n        /* \"Eraswap.sol\":4174:4212  OwnershipTransferred(owner, _newOwner) */\n      0xffffffffffffffffffffffffffffffffffffffff\n      and\n      0x8be0079c531659141344cd1fd0a4f28419497f9722a3daafe3b4186f6b6457e0\n      mload(0x40)\n      mload(0x40)\n      dup1\n      swap2\n      sub\n      swap1\n      log3\n        /* \"Eraswap.sol\":4226:4235  _newOwner */\n      dup1\n        /* \"Eraswap.sol\":4218:4223  owner */\n      0x06\n      0x00\n        /* \"Eraswap.sol\":4218:4235  owner = _newOwner */\n      0x0100\n      exp\n      dup2\n      sload\n      dup2\n      0xffffffffffffffffffffffffffffffffffffffff\n      mul\n      not\n      and\n      swap1\n      dup4\n      0xffffffffffffffffffffffffffffffffffffffff\n      and\n      mul\n      or\n      swap1\n      sstore\n      pop\n        /* \"Eraswap.sol\":4069:4240  function _transferOwnership(address _newOwner) internal {... */\n      pop\n      jump\t// out\n\n    auxdata: 0xa265627a7a723158209e842980b771f000b2f719983760fa764ff278ddcfad7db1930de6927b135a4564736f6c634300050c0032\n}\n","bytecode":{"linkReferences":{},"object":"60806040526000600660146101000a81548160ff0219169083151502179055506040518060400160405280600781526020017f4572617377617000000000000000000000000000000000000000000000000000815250600890805190602001906200006c929190620004e7565b506040518060400160405280600381526020017f455354000000000000000000000000000000000000000000000000000000000081525060099080519060200190620000ba929190620004e7565b506012600a60006101000a81548160ff021916908360ff1602179055506b1d6757f47b1c8ef70c000000600b55348015620000f457600080fd5b50600b546040518060400160405280600781526020017f45726173776170000000000000000000000000000000000000000000000000008152506040518060400160405280600381526020017f4553540000000000000000000000000000000000000000000000000000000000815250601282600090805190602001906200017e929190620004e7565b50816001908051906020019062000197929190620004e7565b5080600260006101000a81548160ff021916908360ff16021790555050505033600660006101000a81548173ffffffffffffffffffffffffffffffffffffffff021916908373ffffffffffffffffffffffffffffffffffffffff160217905550600081116200020557600080fd5b80600781905550506200022b336b02f0bbfed91c74b24e0000006200027760201b60201c565b5042600c819055506b02a575fef6999c3a13000000600e8190555062000263600c600e54620002c360201b62002e481790919060201c565b600d819055506000600f8190555062000596565b60006007546200029883600454620002d860201b62002a621790919060201c565b1115620002a457600080fd5b620002bb8383620002f360201b62002a7c1760201c565b905092915050565b6000818381620002cf57fe5b04905092915050565b6000818301905082811015620002ea57fe5b80905092915050565b6000600660009054906101000a900473ffffffffffffffffffffffffffffffffffffffff1673ffffffffffffffffffffffffffffffffffffffff163373ffffffffffffffffffffffffffffffffffffffff16146200035057600080fd5b600660149054906101000a900460ff16156200036b57600080fd5b6200038782600454620002d860201b62002a621790919060201c565b600481905550620003e682600360008673ffffffffffffffffffffffffffffffffffffffff1673ffffffffffffffffffffffffffffffffffffffff16815260200190815260200160002054620002d860201b62002a621790919060201c565b600360008573ffffffffffffffffffffffffffffffffffffffff1673ffffffffffffffffffffffffffffffffffffffff168152602001908152602001600020819055508273ffffffffffffffffffffffffffffffffffffffff167f0f6798a560793a54c3bcfe86a93cde1e73087d944c0ea20544137d4121396885836040518082815260200191505060405180910390a28273ffffffffffffffffffffffffffffffffffffffff16600073ffffffffffffffffffffffffffffffffffffffff167fddf252ad1be2c89b69c2b068fc378daa952ba7f163c4a11628f55a4df523b3ef846040518082815260200191505060405180910390a36001905092915050565b828054600181600116156101000203166002900490600052602060002090601f016020900481019282601f106200052a57805160ff19168380011785556200055b565b828001600101855582156200055b579182015b828111156200055a5782518255916020019190600101906200053d565b5b5090506200056a91906200056e565b5090565b6200059391905b808211156200058f57600081600090555060010162000575565b5090565b90565b61302180620005a66000396000f3fe608060405234801561001057600080fd5b50600436106102745760003560e01c80636c6a060911610151578063bd27d361116100c3578063d37eb95011610087578063d37eb95014610b3f578063d73dd62314610b5d578063db2f2cb514610bc3578063dd62ed3e14610be1578063e71a3bfd14610c59578063f2fde38b14610c7757610274565b8063bd27d36114610aa9578063bec074dc14610ac7578063bfb3d6c814610ae5578063c3348a8b14610b03578063c6b2c53614610b2157610274565b80638da5cb5b116101155780638da5cb5b146108c057806395d89b411461090a5780639cd417de1461098d578063a9059cbb146109d7578063a9e817a914610a3d578063b018abbd14610a8757610274565b80636c6a06091461080057806370a082311461081e578063715018a6146108765780637d53257a146108805780637d64bcb41461089e57610274565b80633a18a9fd116101ea5780634f0e8140116101ae5780634f0e81401461068057806351bd70b11461069e5780635c12278d146106e85780635f7ce89f1461073257806365c0047014610750578063661884631461079a57610274565b80633a18a9fd146105665780633e249c0e146105b057806340c10f19146105ce57806342966c68146106345780634a4581aa1461066257610274565b806323b872dd1161023c57806323b872dd146103ec57806326b3bf2f146104725780632cfceb07146104bc578063313ce567146104da578063355274ea146104fe57806337bfea181461051c57610274565b806305d2035b1461027957806306fdde031461029b578063095ea7b31461031e5780630b3e29b81461038457806318160ddd146103ce575b600080fd5b610281610cbb565b604051808215151515815260200191505060405180910390f35b6102a3610cce565b6040518080602001828103825283818151815260200191508051906020019080838360005b838110156102e35780820151818401526020810190506102c8565b50505050905090810190601f1680156103105780820380516001836020036101000a031916815260200191505b509250505060405180910390f35b61036a6004803603604081101561033457600080fd5b81019080803573ffffffffffffffffffffffffffffffffffffffff16906020019092919080359060200190929190505050610d6c565b604051808215151515815260200191505060405180910390f35b61038c610e5e565b604051808273ffffffffffffffffffffffffffffffffffffffff1673ffffffffffffffffffffffffffffffffffffffff16815260200191505060405180910390f35b6103d6610e84565b6040518082815260200191505060405180910390f35b6104586004803603606081101561040257600080fd5b81019080803573ffffffffffffffffffffffffffffffffffffffff169060200190929190803573ffffffffffffffffffffffffffffffffffffffff16906020019092919080359060200190929190505050610e8e565b604051808215151515815260200191505060405180910390f35b61047a611248565b604051808273ffffffffffffffffffffffffffffffffffffffff1673ffffffffffffffffffffffffffffffffffffffff16815260200191505060405180910390f35b6104c461126e565b6040518082815260200191505060405180910390f35b6104e2611274565b604051808260ff1660ff16815260200191505060405180910390f35b610506611287565b6040518082815260200191505060405180910390f35b61052461128d565b604051808273ffffffffffffffffffffffffffffffffffffffff1673ffffffffffffffffffffffffffffffffffffffff16815260200191505060405180910390f35b61056e6112b3565b604051808273ffffffffffffffffffffffffffffffffffffffff1673ffffffffffffffffffffffffffffffffffffffff16815260200191505060405180910390f35b6105b86112d9565b6040518082815260200191505060405180910390f35b61061a600480360360408110156105e457600080fd5b81019080803573ffffffffffffffffffffffffffffffffffffffff169060200190929190803590602001909291905050506112df565b604051808215151515815260200191505060405180910390f35b6106606004803603602081101561064a57600080fd5b8101908080359060200190929190505050611316565b005b61066a611323565b6040518082815260200191505060405180910390f35b610688611329565b6040518082815260200191505060405180910390f35b6106a661132f565b604051808273ffffffffffffffffffffffffffffffffffffffff1673ffffffffffffffffffffffffffffffffffffffff16815260200191505060405180910390f35b6106f0611355565b604051808273ffffffffffffffffffffffffffffffffffffffff1673ffffffffffffffffffffffffffffffffffffffff16815260200191505060405180910390f35b61073a61137b565b6040518082815260200191505060405180910390f35b610758611381565b604051808273ffffffffffffffffffffffffffffffffffffffff1673ffffffffffffffffffffffffffffffffffffffff16815260200191505060405180910390f35b6107e6600480360360408110156107b057600080fd5b81019080803573ffffffffffffffffffffffffffffffffffffffff169060200190929190803590602001909291905050506113a7565b604051808215151515815260200191505060405180910390f35b610808611637565b6040518082815260200191505060405180910390f35b6108606004803603602081101561083457600080fd5b81019080803573ffffffffffffffffffffffffffffffffffffffff16906020019092919050505061163d565b6040518082815260200191505060405180910390f35b61087e611686565b005b610888611789565b6040518082815260200191505060405180910390f35b6108a661178f565b604051808215151515815260200191505060405180910390f35b6108c8611853565b604051808273ffffffffffffffffffffffffffffffffffffffff1673ffffffffffffffffffffffffffffffffffffffff16815260200191505060405180910390f35b610912611879565b6040518080602001828103825283818151815260200191508051906020019080838360005b83811015610952578082015181840152602081019050610937565b50505050905090810190601f16801561097f5780820380516001836020036101000a031916815260200191505b509250505060405180910390f35b610995611917565b604051808273ffffffffffffffffffffffffffffffffffffffff1673ffffffffffffffffffffffffffffffffffffffff16815260200191505060405180910390f35b610a23600480360360408110156109ed57600080fd5b81019080803573ffffffffffffffffffffffffffffffffffffffff1690602001909291908035906020019092919050505061193d565b604051808215151515815260200191505060405180910390f35b610a45611b5e565b604051808273ffffffffffffffffffffffffffffffffffffffff1673ffffffffffffffffffffffffffffffffffffffff16815260200191505060405180910390f35b610a8f611b84565b604051808215151515815260200191505060405180910390f35b610ab1612732565b6040518082815260200191505060405180910390f35b610acf612738565b6040518082815260200191505060405180910390f35b610aed61273e565b6040518082815260200191505060405180910390f35b610b0b612744565b6040518082815260200191505060405180910390f35b610b2961274a565b6040518082815260200191505060405180910390f35b610b47612750565b6040518082815260200191505060405180910390f35b610ba960048036036040811015610b7357600080fd5b81019080803573ffffffffffffffffffffffffffffffffffffffff16906020019092919080359060200190929190505050612756565b604051808215151515815260200191505060405180910390f35b610bcb612952565b6040518082815260200191505060405180910390f35b610c4360048036036040811015610bf757600080fd5b81019080803573ffffffffffffffffffffffffffffffffffffffff169060200190929190803573ffffffffffffffffffffffffffffffffffffffff169060200190929190505050612958565b6040518082815260200191505060405180910390f35b610c616129df565b6040518082815260200191505060405180910390f35b610cb960048036036020811015610c8d57600080fd5b81019080803573ffffffffffffffffffffffffffffffffffffffff1690602001909291905050506129e5565b005b600660149054906101000a900460ff1681565b60008054600181600116156101000203166002900480601f016020809104026020016040519081016040528092919081815260200182805460018160011615610100020316600290048015610d645780601f10610d3957610100808354040283529160200191610d64565b820191906000526020600020905b815481529060010190602001808311610d4757829003601f168201915b505050505081565b600081600560003373ffffffffffffffffffffffffffffffffffffffff1673ffffffffffffffffffffffffffffffffffffffff16815260200190815260200160002060008573ffffffffffffffffffffffffffffffffffffffff1673ffffffffffffffffffffffffffffffffffffffff168152602001908152602001600020819055508273ffffffffffffffffffffffffffffffffffffffff163373ffffffffffffffffffffffffffffffffffffffff167f8c5be1e5ebec7d5bd14f71427d1e84f3dd0314c0f7b2291e5b200ac8c7c3b925846040518082815260200191505060405180910390a36001905092915050565b601660009054906101000a900473ffffffffffffffffffffffffffffffffffffffff1681565b6000600454905090565b6000600360008573ffffffffffffffffffffffffffffffffffffffff1673ffffffffffffffffffffffffffffffffffffffff16815260200190815260200160002054821115610edc57600080fd5b600560008573ffffffffffffffffffffffffffffffffffffffff1673ffffffffffffffffffffffffffffffffffffffff16815260200190815260200160002060003373ffffffffffffffffffffffffffffffffffffffff1673ffffffffffffffffffffffffffffffffffffffff16815260200190815260200160002054821115610f6557600080fd5b600073ffffffffffffffffffffffffffffffffffffffff168373ffffffffffffffffffffffffffffffffffffffff161415610f9f57600080fd5b610ff182600360008773ffffffffffffffffffffffffffffffffffffffff1673ffffffffffffffffffffffffffffffffffffffff16815260200190815260200160002054612a4b90919063ffffffff16565b600360008673ffffffffffffffffffffffffffffffffffffffff1673ffffffffffffffffffffffffffffffffffffffff1681526020019081526020016000208190555061108682600360008673ffffffffffffffffffffffffffffffffffffffff1673ffffffffffffffffffffffffffffffffffffffff16815260200190815260200160002054612a6290919063ffffffff16565b600360008573ffffffffffffffffffffffffffffffffffffffff1673ffffffffffffffffffffffffffffffffffffffff1681526020019081526020016000208190555061115882600560008773ffffffffffffffffffffffffffffffffffffffff1673ffffffffffffffffffffffffffffffffffffffff16815260200190815260200160002060003373ffffffffffffffffffffffffffffffffffffffff1673ffffffffffffffffffffffffffffffffffffffff16815260200190815260200160002054612a4b90919063ffffffff16565b600560008673ffffffffffffffffffffffffffffffffffffffff1673ffffffffffffffffffffffffffffffffffffffff16815260200190815260200160002060003373ffffffffffffffffffffffffffffffffffffffff1673ffffffffffffffffffffffffffffffffffffffff168152602001908152602001600020819055508273ffffffffffffffffffffffffffffffffffffffff168473ffffffffffffffffffffffffffffffffffffffff167fddf252ad1be2c89b69c2b068fc378daa952ba7f163c4a11628f55a4df523b3ef846040518082815260200191505060405180910390a3600190509392505050565b601260009054906101000a900473ffffffffffffffffffffffffffffffffffffffff1681565b601e5481565b600260009054906101000a900460ff1681565b60075481565b601a60009054906101000a900473ffffffffffffffffffffffffffffffffffffffff1681565b601360009054906101000a900473ffffffffffffffffffffffffffffffffffffffff1681565b600f5481565b60006007546112f983600454612a6290919063ffffffff16565b111561130457600080fd5b61130e8383612a7c565b905092915050565b6113203382612c60565b50565b60115481565b600e5481565b601460009054906101000a900473ffffffffffffffffffffffffffffffffffffffff1681565b601760009054906101000a900473ffffffffffffffffffffffffffffffffffffffff1681565b601f5481565b601560009054906101000a900473ffffffffffffffffffffffffffffffffffffffff1681565b600080600560003373ffffffffffffffffffffffffffffffffffffffff1673ffffffffffffffffffffffffffffffffffffffff16815260200190815260200160002060008573ffffffffffffffffffffffffffffffffffffffff1673ffffffffffffffffffffffffffffffffffffffff1681526020019081526020016000205490508083106114b7576000600560003373ffffffffffffffffffffffffffffffffffffffff1673ffffffffffffffffffffffffffffffffffffffff16815260200190815260200160002060008673ffffffffffffffffffffffffffffffffffffffff1673ffffffffffffffffffffffffffffffffffffffff1681526020019081526020016000208190555061154b565b6114ca8382612a4b90919063ffffffff16565b600560003373ffffffffffffffffffffffffffffffffffffffff1673ffffffffffffffffffffffffffffffffffffffff16815260200190815260200160002060008673ffffffffffffffffffffffffffffffffffffffff1673ffffffffffffffffffffffffffffffffffffffff168152602001908152602001600020819055505b8373ffffffffffffffffffffffffffffffffffffffff163373ffffffffffffffffffffffffffffffffffffffff167f8c5be1e5ebec7d5bd14f71427d1e84f3dd0314c0f7b2291e5b200ac8c7c3b925600560003373ffffffffffffffffffffffffffffffffffffffff1673ffffffffffffffffffffffffffffffffffffffff16815260200190815260200160002060008873ffffffffffffffffffffffffffffffffffffffff1673ffffffffffffffffffffffffffffffffffffffff168152602001908152602001600020546040518082815260200191505060405180910390a3600191505092915050565b600c5481565b6000600360008373ffffffffffffffffffffffffffffffffffffffff1673ffffffffffffffffffffffffffffffffffffffff168152602001908152602001600020549050919050565b600660009054906101000a900473ffffffffffffffffffffffffffffffffffffffff1673ffffffffffffffffffffffffffffffffffffffff163373ffffffffffffffffffffffffffffffffffffffff16146116e057600080fd5b600660009054906101000a900473ffffffffffffffffffffffffffffffffffffffff1673ffffffffffffffffffffffffffffffffffffffff167ff8df31144d9c2f0f6b59d69b8b98abd5459d07f2742c4df920b25aae33c6482060405160405180910390a26000600660006101000a81548173ffffffffffffffffffffffffffffffffffffffff021916908373ffffffffffffffffffffffffffffffffffffffff160217905550565b60205481565b6000600660009054906101000a900473ffffffffffffffffffffffffffffffffffffffff1673ffffffffffffffffffffffffffffffffffffffff163373ffffffffffffffffffffffffffffffffffffffff16146117eb57600080fd5b600660149054906101000a900460ff161561180557600080fd5b6001600660146101000a81548160ff0219169083151502179055507fae5184fba832cb2b1f702aca6117b8d265eaf03ad33eb133f19dde0f5920fa0860405160405180910390a16001905090565b600660009054906101000a900473ffffffffffffffffffffffffffffffffffffffff1681565b60018054600181600116156101000203166002900480601f01602080910402602001604051908101604052809291908181526020018280546001816001161561010002031660029004801561190f5780601f106118e45761010080835404028352916020019161190f565b820191906000526020600020905b8154815290600101906020018083116118f257829003601f168201915b505050505081565b601960009054906101000a900473ffffffffffffffffffffffffffffffffffffffff1681565b6000600360003373ffffffffffffffffffffffffffffffffffffffff1673ffffffffffffffffffffffffffffffffffffffff1681526020019081526020016000205482111561198b57600080fd5b600073ffffffffffffffffffffffffffffffffffffffff168373ffffffffffffffffffffffffffffffffffffffff1614156119c557600080fd5b611a1782600360003373ffffffffffffffffffffffffffffffffffffffff1673ffffffffffffffffffffffffffffffffffffffff16815260200190815260200160002054612a4b90919063ffffffff16565b600360003373ffffffffffffffffffffffffffffffffffffffff1673ffffffffffffffffffffffffffffffffffffffff16815260200190815260200160002081905550611aac82600360008673ffffffffffffffffffffffffffffffffffffffff1673ffffffffffffffffffffffffffffffffffffffff16815260200190815260200160002054612a6290919063ffffffff16565b600360008573ffffffffffffffffffffffffffffffffffffffff1673ffffffffffffffffffffffffffffffffffffffff168152602001908152602001600020819055508273ffffffffffffffffffffffffffffffffffffffff163373ffffffffffffffffffffffffffffffffffffffff167fddf252ad1be2c89b69c2b068fc378daa952ba7f163c4a11628f55a4df523b3ef846040518082815260200191505060405180910390a36001905092915050565b601860009054906101000a900473ffffffffffffffffffffffffffffffffffffffff1681565b600062278d00611b9f600c5442612a4b90919063ffffffff16565b11611ba957600080fd5b6000611bc2601054600d54612a6290919063ffffffff16565b9050611beb6064611bdd600584612e1490919063ffffffff16565b612e4890919063ffffffff16565b601b81905550611c186064611c0a600a84612e1490919063ffffffff16565b612e4890919063ffffffff16565b601c81905550611c456064611c37600a84612e1490919063ffffffff16565b612e4890919063ffffffff16565b601d81905550611c726064611c64600a84612e1490919063ffffffff16565b612e4890919063ffffffff16565b601e81905550611c9f6064611c91600a84612e1490919063ffffffff16565b612e4890919063ffffffff16565b601f81905550611ccc6064611cbe600584612e1490919063ffffffff16565b612e4890919063ffffffff16565b602081905550611cfa6103e8611cec601984612e1490919063ffffffff16565b612e4890919063ffffffff16565b602181905550611d276064611d19600f84612e1490919063ffffffff16565b612e4890919063ffffffff16565b602281905550611d566103e8611d4861014584612e1490919063ffffffff16565b612e4890919063ffffffff16565b602381905550611d8a601260009054906101000a900473ffffffffffffffffffffffffffffffffffffffff16601b546112df565b507f8470ec6072093abfec912969ee9fd5273eed1d3202eac51a1fd83c236ee9bea8601260009054906101000a900473ffffffffffffffffffffffffffffffffffffffff16601b5460405180806020018473ffffffffffffffffffffffffffffffffffffffff1673ffffffffffffffffffffffffffffffffffffffff168152602001838152602001828103825260198152602001807f6e657754616c656e7473416e64506172746e6572736869707300000000000000815250602001935050505060405180910390a1611e81601360009054906101000a900473ffffffffffffffffffffffffffffffffffffffff16601c546112df565b507f8470ec6072093abfec912969ee9fd5273eed1d3202eac51a1fd83c236ee9bea8601360009054906101000a900473ffffffffffffffffffffffffffffffffffffffff16601c5460405180806020018473ffffffffffffffffffffffffffffffffffffffff1673ffffffffffffffffffffffffffffffffffffffff168152602001838152602001828103825260138152602001807f706c6174666f726d4d61696e74656e616e636500000000000000000000000000815250602001935050505060405180910390a1611f78601460009054906101000a900473ffffffffffffffffffffffffffffffffffffffff16601d546112df565b507f8470ec6072093abfec912969ee9fd5273eed1d3202eac51a1fd83c236ee9bea8601460009054906101000a900473ffffffffffffffffffffffffffffffffffffffff16601d5460405180806020018473ffffffffffffffffffffffffffffffffffffffff1673ffffffffffffffffffffffffffffffffffffffff1681526020018381526020018281038252600f8152602001807f6d61726b6574696e67416e64524e520000000000000000000000000000000000815250602001935050505060405180910390a161206f601560009054906101000a900473ffffffffffffffffffffffffffffffffffffffff16601e546112df565b507f8470ec6072093abfec912969ee9fd5273eed1d3202eac51a1fd83c236ee9bea8601560009054906101000a900473ffffffffffffffffffffffffffffffffffffffff16601e5460405180806020018473ffffffffffffffffffffffffffffffffffffffff1673ffffffffffffffffffffffffffffffffffffffff168152602001838152602001828103825260078152602001807f6b6d506172647300000000000000000000000000000000000000000000000000815250602001935050505060405180910390a1612166601660009054906101000a900473ffffffffffffffffffffffffffffffffffffffff16601f546112df565b507f8470ec6072093abfec912969ee9fd5273eed1d3202eac51a1fd83c236ee9bea8601660009054906101000a900473ffffffffffffffffffffffffffffffffffffffff16601f5460405180806020018473ffffffffffffffffffffffffffffffffffffffff1673ffffffffffffffffffffffffffffffffffffffff168152602001838152602001828103825260108152602001807f636f6e74696e67656e637946756e647300000000000000000000000000000000815250602001935050505060405180910390a161225d601760009054906101000a900473ffffffffffffffffffffffffffffffffffffffff166020546112df565b507f8470ec6072093abfec912969ee9fd5273eed1d3202eac51a1fd83c236ee9bea8601760009054906101000a900473ffffffffffffffffffffffffffffffffffffffff1660205460405180806020018473ffffffffffffffffffffffffffffffffffffffff1673ffffffffffffffffffffffffffffffffffffffff168152602001838152602001828103825260168152602001807f7265736561726368416e64446576656c6f706d656e7400000000000000000000815250602001935050505060405180910390a1612354601860009054906101000a900473ffffffffffffffffffffffffffffffffffffffff166021546112df565b507f8470ec6072093abfec912969ee9fd5273eed1d3202eac51a1fd83c236ee9bea8601860009054906101000a900473ffffffffffffffffffffffffffffffffffffffff1660215460405180806020018473ffffffffffffffffffffffffffffffffffffffff1673ffffffffffffffffffffffffffffffffffffffff168152602001838152602001828103825260088152602001807f62757a7a43616665000000000000000000000000000000000000000000000000815250602001935050505060405180910390a161244b601a60009054906101000a900473ffffffffffffffffffffffffffffffffffffffff166022546112df565b507f8470ec6072093abfec912969ee9fd5273eed1d3202eac51a1fd83c236ee9bea8601a60009054906101000a900473ffffffffffffffffffffffffffffffffffffffff1660225460405180806020018473ffffffffffffffffffffffffffffffffffffffff1673ffffffffffffffffffffffffffffffffffffffff1681526020018381526020018281038252600f8152602001807f7374616b696e67436f6e74726163740000000000000000000000000000000000815250602001935050505060405180910390a1612542601960009054906101000a900473ffffffffffffffffffffffffffffffffffffffff166023546112df565b507f8470ec6072093abfec912969ee9fd5273eed1d3202eac51a1fd83c236ee9bea8601960009054906101000a900473ffffffffffffffffffffffffffffffffffffffff1660235460405180806020018473ffffffffffffffffffffffffffffffffffffffff1673ffffffffffffffffffffffffffffffffffffffff1681526020018381526020018281038252600c8152602001807f74696d6553776170706572730000000000000000000000000000000000000000815250602001935050505060405180910390a17f31a2c82874744c38fa6d0d7bacb6ff098de6c1ecc98899f39f5b9ea32108765b816040518082815260200191505060405180910390a1600060108190555061266262278d00600c54612a6290919063ffffffff16565b600c81905550612670612e5c565b507f6ef4855b666dcc7884561072e4358b28dfe01feb1b7f4dcebc00e62d50394ac76011546040518082815260200191505060405180910390a1600b600f54141561270d576000600f819055506126e6600a6126d86009600e54612e1490919063ffffffff16565b612e4890919063ffffffff16565b600e81905550612702600c600d54612e4890919063ffffffff16565b600d8190555061272a565b6127236001600f54612a6290919063ffffffff16565b600f819055505b600191505090565b601c5481565b600d5481565b60235481565b60105481565b60225481565b601d5481565b60006127e782600560003373ffffffffffffffffffffffffffffffffffffffff1673ffffffffffffffffffffffffffffffffffffffff16815260200190815260200160002060008673ffffffffffffffffffffffffffffffffffffffff1673ffffffffffffffffffffffffffffffffffffffff16815260200190815260200160002054612a6290919063ffffffff16565b600560003373ffffffffffffffffffffffffffffffffffffffff1673ffffffffffffffffffffffffffffffffffffffff16815260200190815260200160002060008573ffffffffffffffffffffffffffffffffffffffff1673ffffffffffffffffffffffffffffffffffffffff168152602001908152602001600020819055508273ffffffffffffffffffffffffffffffffffffffff163373ffffffffffffffffffffffffffffffffffffffff167f8c5be1e5ebec7d5bd14f71427d1e84f3dd0314c0f7b2291e5b200ac8c7c3b925600560003373ffffffffffffffffffffffffffffffffffffffff1673ffffffffffffffffffffffffffffffffffffffff16815260200190815260200160002060008773ffffffffffffffffffffffffffffffffffffffff1673ffffffffffffffffffffffffffffffffffffffff168152602001908152602001600020546040518082815260200191505060405180910390a36001905092915050565b60215481565b6000600560008473ffffffffffffffffffffffffffffffffffffffff1673ffffffffffffffffffffffffffffffffffffffff16815260200190815260200160002060008373ffffffffffffffffffffffffffffffffffffffff1673ffffffffffffffffffffffffffffffffffffffff16815260200190815260200160002054905092915050565b601b5481565b600660009054906101000a900473ffffffffffffffffffffffffffffffffffffffff1673ffffffffffffffffffffffffffffffffffffffff163373ffffffffffffffffffffffffffffffffffffffff1614612a3f57600080fd5b612a4881612ef2565b50565b600082821115612a5757fe5b818303905092915050565b6000818301905082811015612a7357fe5b80905092915050565b6000600660009054906101000a900473ffffffffffffffffffffffffffffffffffffffff1673ffffffffffffffffffffffffffffffffffffffff163373ffffffffffffffffffffffffffffffffffffffff1614612ad857600080fd5b600660149054906101000a900460ff1615612af257600080fd5b612b0782600454612a6290919063ffffffff16565b600481905550612b5f82600360008673ffffffffffffffffffffffffffffffffffffffff1673ffffffffffffffffffffffffffffffffffffffff16815260200190815260200160002054612a6290919063ffffffff16565b600360008573ffffffffffffffffffffffffffffffffffffffff1673ffffffffffffffffffffffffffffffffffffffff168152602001908152602001600020819055508273ffffffffffffffffffffffffffffffffffffffff167f0f6798a560793a54c3bcfe86a93cde1e73087d944c0ea20544137d4121396885836040518082815260200191505060405180910390a28273ffffffffffffffffffffffffffffffffffffffff16600073ffffffffffffffffffffffffffffffffffffffff167fddf252ad1be2c89b69c2b068fc378daa952ba7f163c4a11628f55a4df523b3ef846040518082815260200191505060405180910390a36001905092915050565b600360008373ffffffffffffffffffffffffffffffffffffffff1673ffffffffffffffffffffffffffffffffffffffff16815260200190815260200160002054811115612cac57600080fd5b612cfe81600360008573ffffffffffffffffffffffffffffffffffffffff1673ffffffffffffffffffffffffffffffffffffffff16815260200190815260200160002054612a4b90919063ffffffff16565b600360008473ffffffffffffffffffffffffffffffffffffffff1673ffffffffffffffffffffffffffffffffffffffff16815260200190815260200160002081905550612d5681600454612a4b90919063ffffffff16565b6004819055508173ffffffffffffffffffffffffffffffffffffffff167fcc16f5dbb4873280815c1ee09dbd06736cffcc184412cf7a71a0fdb75d397ca5826040518082815260200191505060405180910390a2600073ffffffffffffffffffffffffffffffffffffffff168273ffffffffffffffffffffffffffffffffffffffff167fddf252ad1be2c89b69c2b068fc378daa952ba7f163c4a11628f55a4df523b3ef836040518082815260200191505060405180910390a35050565b600080831415612e275760009050612e42565b818302905081838281612e3657fe5b0414612e3e57fe5b8090505b92915050565b6000818381612e5357fe5b04905092915050565b6000806011541415612e715760019050612eef565b6000612ea16064612e936002612e85610e84565b612e1490919063ffffffff16565b612e4890919063ffffffff16565b90506011548110612ec457612eb7601154611316565b6000601181905550612ee9565b612ed981601154612a4b90919063ffffffff16565b601181905550612ee881611316565b5b60019150505b90565b600073ffffffffffffffffffffffffffffffffffffffff168173ffffffffffffffffffffffffffffffffffffffff161415612f2c57600080fd5b8073ffffffffffffffffffffffffffffffffffffffff16600660009054906101000a900473ffffffffffffffffffffffffffffffffffffffff1673ffffffffffffffffffffffffffffffffffffffff167f8be0079c531659141344cd1fd0a4f28419497f9722a3daafe3b4186f6b6457e060405160405180910390a380600660006101000a81548173ffffffffffffffffffffffffffffffffffffffff021916908373ffffffffffffffffffffffffffffffffffffffff1602179055505056fea265627a7a723158209e842980b771f000b2f719983760fa764ff278ddcfad7db1930de6927b135a4564736f6c634300050c0032","opcodes":"PUSH1 0x80 PUSH1 0x40 MSTORE PUSH1 0x0 PUSH1 0x6 PUSH1 0x14 PUSH2 0x100 EXP DUP2 SLOAD DUP2 PUSH1 0xFF MUL NOT AND SWAP1 DUP4 ISZERO ISZERO MUL OR SWAP1 SSTORE POP PUSH1 0x40 MLOAD DUP1 PUSH1 0x40 ADD PUSH1 0x40 MSTORE DUP1 PUSH1 0x7 DUP2 MSTORE PUSH1 0x20 ADD PUSH32 0x4572617377617000000000000000000000000000000000000000000000000000 DUP2 MSTORE POP PUSH1 0x8 SWAP1 DUP1 MLOAD SWAP1 PUSH1 0x20 ADD SWAP1 PUSH3 0x6C SWAP3 SWAP2 SWAP1 PUSH3 0x4E7 JUMP JUMPDEST POP PUSH1 0x40 MLOAD DUP1 PUSH1 0x40 ADD PUSH1 0x40 MSTORE DUP1 PUSH1 0x3 DUP2 MSTORE PUSH1 0x20 ADD PUSH32 0x4553540000000000000000000000000000000000000000000000000000000000 DUP2 MSTORE POP PUSH1 0x9 SWAP1 DUP1 MLOAD SWAP1 PUSH1 0x20 ADD SWAP1 PUSH3 0xBA SWAP3 SWAP2 SWAP1 PUSH3 0x4E7 JUMP JUMPDEST POP PUSH1 0x12 PUSH1 0xA PUSH1 0x0 PUSH2 0x100 EXP DUP2 SLOAD DUP2 PUSH1 0xFF MUL NOT AND SWAP1 DUP4 PUSH1 0xFF AND MUL OR SWAP1 SSTORE POP PUSH12 0x1D6757F47B1C8EF70C000000 PUSH1 0xB SSTORE CALLVALUE DUP1 ISZERO PUSH3 0xF4 JUMPI PUSH1 0x0 DUP1 REVERT JUMPDEST POP PUSH1 0xB SLOAD PUSH1 0x40 MLOAD DUP1 PUSH1 0x40 ADD PUSH1 0x40 MSTORE DUP1 PUSH1 0x7 DUP2 MSTORE PUSH1 0x20 ADD PUSH32 0x4572617377617000000000000000000000000000000000000000000000000000 DUP2 MSTORE POP PUSH1 0x40 MLOAD DUP1 PUSH1 0x40 ADD PUSH1 0x40 MSTORE DUP1 PUSH1 0x3 DUP2 MSTORE PUSH1 0x20 ADD PUSH32 0x4553540000000000000000000000000000000000000000000000000000000000 DUP2 MSTORE POP PUSH1 0x12 DUP3 PUSH1 0x0 SWAP1 DUP1 MLOAD SWAP1 PUSH1 0x20 ADD SWAP1 PUSH3 0x17E SWAP3 SWAP2 SWAP1 PUSH3 0x4E7 JUMP JUMPDEST POP DUP2 PUSH1 0x1 SWAP1 DUP1 MLOAD SWAP1 PUSH1 0x20 ADD SWAP1 PUSH3 0x197 SWAP3 SWAP2 SWAP1 PUSH3 0x4E7 JUMP JUMPDEST POP DUP1 PUSH1 0x2 PUSH1 0x0 PUSH2 0x100 EXP DUP2 SLOAD DUP2 PUSH1 0xFF MUL NOT AND SWAP1 DUP4 PUSH1 0xFF AND MUL OR SWAP1 SSTORE POP POP POP POP CALLER PUSH1 0x6 PUSH1 0x0 PUSH2 0x100 EXP DUP2 SLOAD DUP2 PUSH20 0xFFFFFFFFFFFFFFFFFFFFFFFFFFFFFFFFFFFFFFFF MUL NOT AND SWAP1 DUP4 PUSH20 0xFFFFFFFFFFFFFFFFFFFFFFFFFFFFFFFFFFFFFFFF AND MUL OR SWAP1 SSTORE POP PUSH1 0x0 DUP2 GT PUSH3 0x205 JUMPI PUSH1 0x0 DUP1 REVERT JUMPDEST DUP1 PUSH1 0x7 DUP2 SWAP1 SSTORE POP POP PUSH3 0x22B CALLER PUSH12 0x2F0BBFED91C74B24E000000 PUSH3 0x277 PUSH1 0x20 SHL PUSH1 0x20 SHR JUMP JUMPDEST POP TIMESTAMP PUSH1 0xC DUP2 SWAP1 SSTORE POP PUSH12 0x2A575FEF6999C3A13000000 PUSH1 0xE DUP2 SWAP1 SSTORE POP PUSH3 0x263 PUSH1 0xC PUSH1 0xE SLOAD PUSH3 0x2C3 PUSH1 0x20 SHL PUSH3 0x2E48 OR SWAP1 SWAP2 SWAP1 PUSH1 0x20 SHR JUMP JUMPDEST PUSH1 0xD DUP2 SWAP1 SSTORE POP PUSH1 0x0 PUSH1 0xF DUP2 SWAP1 SSTORE POP PUSH3 0x596 JUMP JUMPDEST PUSH1 0x0 PUSH1 0x7 SLOAD PUSH3 0x298 DUP4 PUSH1 0x4 SLOAD PUSH3 0x2D8 PUSH1 0x20 SHL PUSH3 0x2A62 OR SWAP1 SWAP2 SWAP1 PUSH1 0x20 SHR JUMP JUMPDEST GT ISZERO PUSH3 0x2A4 JUMPI PUSH1 0x0 DUP1 REVERT JUMPDEST PUSH3 0x2BB DUP4 DUP4 PUSH3 0x2F3 PUSH1 0x20 SHL PUSH3 0x2A7C OR PUSH1 0x20 SHR JUMP JUMPDEST SWAP1 POP SWAP3 SWAP2 POP POP JUMP JUMPDEST PUSH1 0x0 DUP2 DUP4 DUP2 PUSH3 0x2CF JUMPI INVALID JUMPDEST DIV SWAP1 POP SWAP3 SWAP2 POP POP JUMP JUMPDEST PUSH1 0x0 DUP2 DUP4 ADD SWAP1 POP DUP3 DUP2 LT ISZERO PUSH3 0x2EA JUMPI INVALID JUMPDEST DUP1 SWAP1 POP SWAP3 SWAP2 POP POP JUMP JUMPDEST PUSH1 0x0 PUSH1 0x6 PUSH1 0x0 SWAP1 SLOAD SWAP1 PUSH2 0x100 EXP SWAP1 DIV PUSH20 0xFFFFFFFFFFFFFFFFFFFFFFFFFFFFFFFFFFFFFFFF AND PUSH20 0xFFFFFFFFFFFFFFFFFFFFFFFFFFFFFFFFFFFFFFFF AND CALLER PUSH20 0xFFFFFFFFFFFFFFFFFFFFFFFFFFFFFFFFFFFFFFFF AND EQ PUSH3 0x350 JUMPI PUSH1 0x0 DUP1 REVERT JUMPDEST PUSH1 0x6 PUSH1 0x14 SWAP1 SLOAD SWAP1 PUSH2 0x100 EXP SWAP1 DIV PUSH1 0xFF AND ISZERO PUSH3 0x36B JUMPI PUSH1 0x0 DUP1 REVERT JUMPDEST PUSH3 0x387 DUP3 PUSH1 0x4 SLOAD PUSH3 0x2D8 PUSH1 0x20 SHL PUSH3 0x2A62 OR SWAP1 SWAP2 SWAP1 PUSH1 0x20 SHR JUMP JUMPDEST PUSH1 0x4 DUP2 SWAP1 SSTORE POP PUSH3 0x3E6 DUP3 PUSH1 0x3 PUSH1 0x0 DUP7 PUSH20 0xFFFFFFFFFFFFFFFFFFFFFFFFFFFFFFFFFFFFFFFF AND PUSH20 0xFFFFFFFFFFFFFFFFFFFFFFFFFFFFFFFFFFFFFFFF AND DUP2 MSTORE PUSH1 0x20 ADD SWAP1 DUP2 MSTORE PUSH1 0x20 ADD PUSH1 0x0 KECCAK256 SLOAD PUSH3 0x2D8 PUSH1 0x20 SHL PUSH3 0x2A62 OR SWAP1 SWAP2 SWAP1 PUSH1 0x20 SHR JUMP JUMPDEST PUSH1 0x3 PUSH1 0x0 DUP6 PUSH20 0xFFFFFFFFFFFFFFFFFFFFFFFFFFFFFFFFFFFFFFFF AND PUSH20 0xFFFFFFFFFFFFFFFFFFFFFFFFFFFFFFFFFFFFFFFF AND DUP2 MSTORE PUSH1 0x20 ADD SWAP1 DUP2 MSTORE PUSH1 0x20 ADD PUSH1 0x0 KECCAK256 DUP2 SWAP1 SSTORE POP DUP3 PUSH20 0xFFFFFFFFFFFFFFFFFFFFFFFFFFFFFFFFFFFFFFFF AND PUSH32 0xF6798A560793A54C3BCFE86A93CDE1E73087D944C0EA20544137D4121396885 DUP4 PUSH1 0x40 MLOAD DUP1 DUP3 DUP2 MSTORE PUSH1 0x20 ADD SWAP2 POP POP PUSH1 0x40 MLOAD DUP1 SWAP2 SUB SWAP1 LOG2 DUP3 PUSH20 0xFFFFFFFFFFFFFFFFFFFFFFFFFFFFFFFFFFFFFFFF AND PUSH1 0x0 PUSH20 0xFFFFFFFFFFFFFFFFFFFFFFFFFFFFFFFFFFFFFFFF AND PUSH32 0xDDF252AD1BE2C89B69C2B068FC378DAA952BA7F163C4A11628F55A4DF523B3EF DUP5 PUSH1 0x40 MLOAD DUP1 DUP3 DUP2 MSTORE PUSH1 0x20 ADD SWAP2 POP POP PUSH1 0x40 MLOAD DUP1 SWAP2 SUB SWAP1 LOG3 PUSH1 0x1 SWAP1 POP SWAP3 SWAP2 POP POP JUMP JUMPDEST DUP3 DUP1 SLOAD PUSH1 0x1 DUP2 PUSH1 0x1 AND ISZERO PUSH2 0x100 MUL SUB AND PUSH1 0x2 SWAP1 DIV SWAP1 PUSH1 0x0 MSTORE PUSH1 0x20 PUSH1 0x0 KECCAK256 SWAP1 PUSH1 0x1F ADD PUSH1 0x20 SWAP1 DIV DUP2 ADD SWAP3 DUP3 PUSH1 0x1F LT PUSH3 0x52A JUMPI DUP1 MLOAD PUSH1 0xFF NOT AND DUP4 DUP1 ADD OR DUP6 SSTORE PUSH3 0x55B JUMP JUMPDEST DUP3 DUP1 ADD PUSH1 0x1 ADD DUP6 SSTORE DUP3 ISZERO PUSH3 0x55B JUMPI SWAP2 DUP3 ADD JUMPDEST DUP3 DUP2 GT ISZERO PUSH3 0x55A JUMPI DUP3 MLOAD DUP3 SSTORE SWAP2 PUSH1 0x20 ADD SWAP2 SWAP1 PUSH1 0x1 ADD SWAP1 PUSH3 0x53D JUMP JUMPDEST JUMPDEST POP SWAP1 POP PUSH3 0x56A SWAP2 SWAP1 PUSH3 0x56E JUMP JUMPDEST POP SWAP1 JUMP JUMPDEST PUSH3 0x593 SWAP2 SWAP1 JUMPDEST DUP1 DUP3 GT ISZERO PUSH3 0x58F JUMPI PUSH1 0x0 DUP2 PUSH1 0x0 SWAP1 SSTORE POP PUSH1 0x1 ADD PUSH3 0x575 JUMP JUMPDEST POP SWAP1 JUMP JUMPDEST SWAP1 JUMP JUMPDEST PUSH2 0x3021 DUP1 PUSH3 0x5A6 PUSH1 0x0 CODECOPY PUSH1 0x0 RETURN INVALID PUSH1 0x80 PUSH1 0x40 MSTORE CALLVALUE DUP1 ISZERO PUSH2 0x10 JUMPI PUSH1 0x0 DUP1 REVERT JUMPDEST POP PUSH1 0x4 CALLDATASIZE LT PUSH2 0x274 JUMPI PUSH1 0x0 CALLDATALOAD PUSH1 0xE0 SHR DUP1 PUSH4 0x6C6A0609 GT PUSH2 0x151 JUMPI DUP1 PUSH4 0xBD27D361 GT PUSH2 0xC3 JUMPI DUP1 PUSH4 0xD37EB950 GT PUSH2 0x87 JUMPI DUP1 PUSH4 0xD37EB950 EQ PUSH2 0xB3F JUMPI DUP1 PUSH4 0xD73DD623 EQ PUSH2 0xB5D JUMPI DUP1 PUSH4 0xDB2F2CB5 EQ PUSH2 0xBC3 JUMPI DUP1 PUSH4 0xDD62ED3E EQ PUSH2 0xBE1 JUMPI DUP1 PUSH4 0xE71A3BFD EQ PUSH2 0xC59 JUMPI DUP1 PUSH4 0xF2FDE38B EQ PUSH2 0xC77 JUMPI PUSH2 0x274 JUMP JUMPDEST DUP1 PUSH4 0xBD27D361 EQ PUSH2 0xAA9 JUMPI DUP1 PUSH4 0xBEC074DC EQ PUSH2 0xAC7 JUMPI DUP1 PUSH4 0xBFB3D6C8 EQ PUSH2 0xAE5 JUMPI DUP1 PUSH4 0xC3348A8B EQ PUSH2 0xB03 JUMPI DUP1 PUSH4 0xC6B2C536 EQ PUSH2 0xB21 JUMPI PUSH2 0x274 JUMP JUMPDEST DUP1 PUSH4 0x8DA5CB5B GT PUSH2 0x115 JUMPI DUP1 PUSH4 0x8DA5CB5B EQ PUSH2 0x8C0 JUMPI DUP1 PUSH4 0x95D89B41 EQ PUSH2 0x90A JUMPI DUP1 PUSH4 0x9CD417DE EQ PUSH2 0x98D JUMPI DUP1 PUSH4 0xA9059CBB EQ PUSH2 0x9D7 JUMPI DUP1 PUSH4 0xA9E817A9 EQ PUSH2 0xA3D JUMPI DUP1 PUSH4 0xB018ABBD EQ PUSH2 0xA87 JUMPI PUSH2 0x274 JUMP JUMPDEST DUP1 PUSH4 0x6C6A0609 EQ PUSH2 0x800 JUMPI DUP1 PUSH4 0x70A08231 EQ PUSH2 0x81E JUMPI DUP1 PUSH4 0x715018A6 EQ PUSH2 0x876 JUMPI DUP1 PUSH4 0x7D53257A EQ PUSH2 0x880 JUMPI DUP1 PUSH4 0x7D64BCB4 EQ PUSH2 0x89E JUMPI PUSH2 0x274 JUMP JUMPDEST DUP1 PUSH4 0x3A18A9FD GT PUSH2 0x1EA JUMPI DUP1 PUSH4 0x4F0E8140 GT PUSH2 0x1AE JUMPI DUP1 PUSH4 0x4F0E8140 EQ PUSH2 0x680 JUMPI DUP1 PUSH4 0x51BD70B1 EQ PUSH2 0x69E JUMPI DUP1 PUSH4 0x5C12278D EQ PUSH2 0x6E8 JUMPI DUP1 PUSH4 0x5F7CE89F EQ PUSH2 0x732 JUMPI DUP1 PUSH4 0x65C00470 EQ PUSH2 0x750 JUMPI DUP1 PUSH4 0x66188463 EQ PUSH2 0x79A JUMPI PUSH2 0x274 JUMP JUMPDEST DUP1 PUSH4 0x3A18A9FD EQ PUSH2 0x566 JUMPI DUP1 PUSH4 0x3E249C0E EQ PUSH2 0x5B0 JUMPI DUP1 PUSH4 0x40C10F19 EQ PUSH2 0x5CE JUMPI DUP1 PUSH4 0x42966C68 EQ PUSH2 0x634 JUMPI DUP1 PUSH4 0x4A4581AA EQ PUSH2 0x662 JUMPI PUSH2 0x274 JUMP JUMPDEST DUP1 PUSH4 0x23B872DD GT PUSH2 0x23C JUMPI DUP1 PUSH4 0x23B872DD EQ PUSH2 0x3EC JUMPI DUP1 PUSH4 0x26B3BF2F EQ PUSH2 0x472 JUMPI DUP1 PUSH4 0x2CFCEB07 EQ PUSH2 0x4BC JUMPI DUP1 PUSH4 0x313CE567 EQ PUSH2 0x4DA JUMPI DUP1 PUSH4 0x355274EA EQ PUSH2 0x4FE JUMPI DUP1 PUSH4 0x37BFEA18 EQ PUSH2 0x51C JUMPI PUSH2 0x274 JUMP JUMPDEST DUP1 PUSH4 0x5D2035B EQ PUSH2 0x279 JUMPI DUP1 PUSH4 0x6FDDE03 EQ PUSH2 0x29B JUMPI DUP1 PUSH4 0x95EA7B3 EQ PUSH2 0x31E JUMPI DUP1 PUSH4 0xB3E29B8 EQ PUSH2 0x384 JUMPI DUP1 PUSH4 0x18160DDD EQ PUSH2 0x3CE JUMPI JUMPDEST PUSH1 0x0 DUP1 REVERT JUMPDEST PUSH2 0x281 PUSH2 0xCBB JUMP JUMPDEST PUSH1 0x40 MLOAD DUP1 DUP3 ISZERO ISZERO ISZERO ISZERO DUP2 MSTORE PUSH1 0x20 ADD SWAP2 POP POP PUSH1 0x40 MLOAD DUP1 SWAP2 SUB SWAP1 RETURN JUMPDEST PUSH2 0x2A3 PUSH2 0xCCE JUMP JUMPDEST PUSH1 0x40 MLOAD DUP1 DUP1 PUSH1 0x20 ADD DUP3 DUP2 SUB DUP3 MSTORE DUP4 DUP2 DUP2 MLOAD DUP2 MSTORE PUSH1 0x20 ADD SWAP2 POP DUP1 MLOAD SWAP1 PUSH1 0x20 ADD SWAP1 DUP1 DUP4 DUP4 PUSH1 0x0 JUMPDEST DUP4 DUP2 LT ISZERO PUSH2 0x2E3 JUMPI DUP1 DUP3 ADD MLOAD DUP2 DUP5 ADD MSTORE PUSH1 0x20 DUP2 ADD SWAP1 POP PUSH2 0x2C8 JUMP JUMPDEST POP POP POP POP SWAP1 POP SWAP1 DUP2 ADD SWAP1 PUSH1 0x1F AND DUP1 ISZERO PUSH2 0x310 JUMPI DUP1 DUP3 SUB DUP1 MLOAD PUSH1 0x1 DUP4 PUSH1 0x20 SUB PUSH2 0x100 EXP SUB NOT AND DUP2 MSTORE PUSH1 0x20 ADD SWAP2 POP JUMPDEST POP SWAP3 POP POP POP PUSH1 0x40 MLOAD DUP1 SWAP2 SUB SWAP1 RETURN JUMPDEST PUSH2 0x36A PUSH1 0x4 DUP1 CALLDATASIZE SUB PUSH1 0x40 DUP2 LT ISZERO PUSH2 0x334 JUMPI PUSH1 0x0 DUP1 REVERT JUMPDEST DUP2 ADD SWAP1 DUP1 DUP1 CALLDATALOAD PUSH20 0xFFFFFFFFFFFFFFFFFFFFFFFFFFFFFFFFFFFFFFFF AND SWAP1 PUSH1 0x20 ADD SWAP1 SWAP3 SWAP2 SWAP1 DUP1 CALLDATALOAD SWAP1 PUSH1 0x20 ADD SWAP1 SWAP3 SWAP2 SWAP1 POP POP POP PUSH2 0xD6C JUMP JUMPDEST PUSH1 0x40 MLOAD DUP1 DUP3 ISZERO ISZERO ISZERO ISZERO DUP2 MSTORE PUSH1 0x20 ADD SWAP2 POP POP PUSH1 0x40 MLOAD DUP1 SWAP2 SUB SWAP1 RETURN JUMPDEST PUSH2 0x38C PUSH2 0xE5E JUMP JUMPDEST PUSH1 0x40 MLOAD DUP1 DUP3 PUSH20 0xFFFFFFFFFFFFFFFFFFFFFFFFFFFFFFFFFFFFFFFF AND PUSH20 0xFFFFFFFFFFFFFFFFFFFFFFFFFFFFFFFFFFFFFFFF AND DUP2 MSTORE PUSH1 0x20 ADD SWAP2 POP POP PUSH1 0x40 MLOAD DUP1 SWAP2 SUB SWAP1 RETURN JUMPDEST PUSH2 0x3D6 PUSH2 0xE84 JUMP JUMPDEST PUSH1 0x40 MLOAD DUP1 DUP3 DUP2 MSTORE PUSH1 0x20 ADD SWAP2 POP POP PUSH1 0x40 MLOAD DUP1 SWAP2 SUB SWAP1 RETURN JUMPDEST PUSH2 0x458 PUSH1 0x4 DUP1 CALLDATASIZE SUB PUSH1 0x60 DUP2 LT ISZERO PUSH2 0x402 JUMPI PUSH1 0x0 DUP1 REVERT JUMPDEST DUP2 ADD SWAP1 DUP1 DUP1 CALLDATALOAD PUSH20 0xFFFFFFFFFFFFFFFFFFFFFFFFFFFFFFFFFFFFFFFF AND SWAP1 PUSH1 0x20 ADD SWAP1 SWAP3 SWAP2 SWAP1 DUP1 CALLDATALOAD PUSH20 0xFFFFFFFFFFFFFFFFFFFFFFFFFFFFFFFFFFFFFFFF AND SWAP1 PUSH1 0x20 ADD SWAP1 SWAP3 SWAP2 SWAP1 DUP1 CALLDATALOAD SWAP1 PUSH1 0x20 ADD SWAP1 SWAP3 SWAP2 SWAP1 POP POP POP PUSH2 0xE8E JUMP JUMPDEST PUSH1 0x40 MLOAD DUP1 DUP3 ISZERO ISZERO ISZERO ISZERO DUP2 MSTORE PUSH1 0x20 ADD SWAP2 POP POP PUSH1 0x40 MLOAD DUP1 SWAP2 SUB SWAP1 RETURN JUMPDEST PUSH2 0x47A PUSH2 0x1248 JUMP JUMPDEST PUSH1 0x40 MLOAD DUP1 DUP3 PUSH20 0xFFFFFFFFFFFFFFFFFFFFFFFFFFFFFFFFFFFFFFFF AND PUSH20 0xFFFFFFFFFFFFFFFFFFFFFFFFFFFFFFFFFFFFFFFF AND DUP2 MSTORE PUSH1 0x20 ADD SWAP2 POP POP PUSH1 0x40 MLOAD DUP1 SWAP2 SUB SWAP1 RETURN JUMPDEST PUSH2 0x4C4 PUSH2 0x126E JUMP JUMPDEST PUSH1 0x40 MLOAD DUP1 DUP3 DUP2 MSTORE PUSH1 0x20 ADD SWAP2 POP POP PUSH1 0x40 MLOAD DUP1 SWAP2 SUB SWAP1 RETURN JUMPDEST PUSH2 0x4E2 PUSH2 0x1274 JUMP JUMPDEST PUSH1 0x40 MLOAD DUP1 DUP3 PUSH1 0xFF AND PUSH1 0xFF AND DUP2 MSTORE PUSH1 0x20 ADD SWAP2 POP POP PUSH1 0x40 MLOAD DUP1 SWAP2 SUB SWAP1 RETURN JUMPDEST PUSH2 0x506 PUSH2 0x1287 JUMP JUMPDEST PUSH1 0x40 MLOAD DUP1 DUP3 DUP2 MSTORE PUSH1 0x20 ADD SWAP2 POP POP PUSH1 0x40 MLOAD DUP1 SWAP2 SUB SWAP1 RETURN JUMPDEST PUSH2 0x524 PUSH2 0x128D JUMP JUMPDEST PUSH1 0x40 MLOAD DUP1 DUP3 PUSH20 0xFFFFFFFFFFFFFFFFFFFFFFFFFFFFFFFFFFFFFFFF AND PUSH20 0xFFFFFFFFFFFFFFFFFFFFFFFFFFFFFFFFFFFFFFFF AND DUP2 MSTORE PUSH1 0x20 ADD SWAP2 POP POP PUSH1 0x40 MLOAD DUP1 SWAP2 SUB SWAP1 RETURN JUMPDEST PUSH2 0x56E PUSH2 0x12B3 JUMP JUMPDEST PUSH1 0x40 MLOAD DUP1 DUP3 PUSH20 0xFFFFFFFFFFFFFFFFFFFFFFFFFFFFFFFFFFFFFFFF AND PUSH20 0xFFFFFFFFFFFFFFFFFFFFFFFFFFFFFFFFFFFFFFFF AND DUP2 MSTORE PUSH1 0x20 ADD SWAP2 POP POP PUSH1 0x40 MLOAD DUP1 SWAP2 SUB SWAP1 RETURN JUMPDEST PUSH2 0x5B8 PUSH2 0x12D9 JUMP JUMPDEST PUSH1 0x40 MLOAD DUP1 DUP3 DUP2 MSTORE PUSH1 0x20 ADD SWAP2 POP POP PUSH1 0x40 MLOAD DUP1 SWAP2 SUB SWAP1 RETURN JUMPDEST PUSH2 0x61A PUSH1 0x4 DUP1 CALLDATASIZE SUB PUSH1 0x40 DUP2 LT ISZERO PUSH2 0x5E4 JUMPI PUSH1 0x0 DUP1 REVERT JUMPDEST DUP2 ADD SWAP1 DUP1 DUP1 CALLDATALOAD PUSH20 0xFFFFFFFFFFFFFFFFFFFFFFFFFFFFFFFFFFFFFFFF AND SWAP1 PUSH1 0x20 ADD SWAP1 SWAP3 SWAP2 SWAP1 DUP1 CALLDATALOAD SWAP1 PUSH1 0x20 ADD SWAP1 SWAP3 SWAP2 SWAP1 POP POP POP PUSH2 0x12DF JUMP JUMPDEST PUSH1 0x40 MLOAD DUP1 DUP3 ISZERO ISZERO ISZERO ISZERO DUP2 MSTORE PUSH1 0x20 ADD SWAP2 POP POP PUSH1 0x40 MLOAD DUP1 SWAP2 SUB SWAP1 RETURN JUMPDEST PUSH2 0x660 PUSH1 0x4 DUP1 CALLDATASIZE SUB PUSH1 0x20 DUP2 LT ISZERO PUSH2 0x64A JUMPI PUSH1 0x0 DUP1 REVERT JUMPDEST DUP2 ADD SWAP1 DUP1 DUP1 CALLDATALOAD SWAP1 PUSH1 0x20 ADD SWAP1 SWAP3 SWAP2 SWAP1 POP POP POP PUSH2 0x1316 JUMP JUMPDEST STOP JUMPDEST PUSH2 0x66A PUSH2 0x1323 JUMP JUMPDEST PUSH1 0x40 MLOAD DUP1 DUP3 DUP2 MSTORE PUSH1 0x20 ADD SWAP2 POP POP PUSH1 0x40 MLOAD DUP1 SWAP2 SUB SWAP1 RETURN JUMPDEST PUSH2 0x688 PUSH2 0x1329 JUMP JUMPDEST PUSH1 0x40 MLOAD DUP1 DUP3 DUP2 MSTORE PUSH1 0x20 ADD SWAP2 POP POP PUSH1 0x40 MLOAD DUP1 SWAP2 SUB SWAP1 RETURN JUMPDEST PUSH2 0x6A6 PUSH2 0x132F JUMP JUMPDEST PUSH1 0x40 MLOAD DUP1 DUP3 PUSH20 0xFFFFFFFFFFFFFFFFFFFFFFFFFFFFFFFFFFFFFFFF AND PUSH20 0xFFFFFFFFFFFFFFFFFFFFFFFFFFFFFFFFFFFFFFFF AND DUP2 MSTORE PUSH1 0x20 ADD SWAP2 POP POP PUSH1 0x40 MLOAD DUP1 SWAP2 SUB SWAP1 RETURN JUMPDEST PUSH2 0x6F0 PUSH2 0x1355 JUMP JUMPDEST PUSH1 0x40 MLOAD DUP1 DUP3 PUSH20 0xFFFFFFFFFFFFFFFFFFFFFFFFFFFFFFFFFFFFFFFF AND PUSH20 0xFFFFFFFFFFFFFFFFFFFFFFFFFFFFFFFFFFFFFFFF AND DUP2 MSTORE PUSH1 0x20 ADD SWAP2 POP POP PUSH1 0x40 MLOAD DUP1 SWAP2 SUB SWAP1 RETURN JUMPDEST PUSH2 0x73A PUSH2 0x137B JUMP JUMPDEST PUSH1 0x40 MLOAD DUP1 DUP3 DUP2 MSTORE PUSH1 0x20 ADD SWAP2 POP POP PUSH1 0x40 MLOAD DUP1 SWAP2 SUB SWAP1 RETURN JUMPDEST PUSH2 0x758 PUSH2 0x1381 JUMP JUMPDEST PUSH1 0x40 MLOAD DUP1 DUP3 PUSH20 0xFFFFFFFFFFFFFFFFFFFFFFFFFFFFFFFFFFFFFFFF AND PUSH20 0xFFFFFFFFFFFFFFFFFFFFFFFFFFFFFFFFFFFFFFFF AND DUP2 MSTORE PUSH1 0x20 ADD SWAP2 POP POP PUSH1 0x40 MLOAD DUP1 SWAP2 SUB SWAP1 RETURN JUMPDEST PUSH2 0x7E6 PUSH1 0x4 DUP1 CALLDATASIZE SUB PUSH1 0x40 DUP2 LT ISZERO PUSH2 0x7B0 JUMPI PUSH1 0x0 DUP1 REVERT JUMPDEST DUP2 ADD SWAP1 DUP1 DUP1 CALLDATALOAD PUSH20 0xFFFFFFFFFFFFFFFFFFFFFFFFFFFFFFFFFFFFFFFF AND SWAP1 PUSH1 0x20 ADD SWAP1 SWAP3 SWAP2 SWAP1 DUP1 CALLDATALOAD SWAP1 PUSH1 0x20 ADD SWAP1 SWAP3 SWAP2 SWAP1 POP POP POP PUSH2 0x13A7 JUMP JUMPDEST PUSH1 0x40 MLOAD DUP1 DUP3 ISZERO ISZERO ISZERO ISZERO DUP2 MSTORE PUSH1 0x20 ADD SWAP2 POP POP PUSH1 0x40 MLOAD DUP1 SWAP2 SUB SWAP1 RETURN JUMPDEST PUSH2 0x808 PUSH2 0x1637 JUMP JUMPDEST PUSH1 0x40 MLOAD DUP1 DUP3 DUP2 MSTORE PUSH1 0x20 ADD SWAP2 POP POP PUSH1 0x40 MLOAD DUP1 SWAP2 SUB SWAP1 RETURN JUMPDEST PUSH2 0x860 PUSH1 0x4 DUP1 CALLDATASIZE SUB PUSH1 0x20 DUP2 LT ISZERO PUSH2 0x834 JUMPI PUSH1 0x0 DUP1 REVERT JUMPDEST DUP2 ADD SWAP1 DUP1 DUP1 CALLDATALOAD PUSH20 0xFFFFFFFFFFFFFFFFFFFFFFFFFFFFFFFFFFFFFFFF AND SWAP1 PUSH1 0x20 ADD SWAP1 SWAP3 SWAP2 SWAP1 POP POP POP PUSH2 0x163D JUMP JUMPDEST PUSH1 0x40 MLOAD DUP1 DUP3 DUP2 MSTORE PUSH1 0x20 ADD SWAP2 POP POP PUSH1 0x40 MLOAD DUP1 SWAP2 SUB SWAP1 RETURN JUMPDEST PUSH2 0x87E PUSH2 0x1686 JUMP JUMPDEST STOP JUMPDEST PUSH2 0x888 PUSH2 0x1789 JUMP JUMPDEST PUSH1 0x40 MLOAD DUP1 DUP3 DUP2 MSTORE PUSH1 0x20 ADD SWAP2 POP POP PUSH1 0x40 MLOAD DUP1 SWAP2 SUB SWAP1 RETURN JUMPDEST PUSH2 0x8A6 PUSH2 0x178F JUMP JUMPDEST PUSH1 0x40 MLOAD DUP1 DUP3 ISZERO ISZERO ISZERO ISZERO DUP2 MSTORE PUSH1 0x20 ADD SWAP2 POP POP PUSH1 0x40 MLOAD DUP1 SWAP2 SUB SWAP1 RETURN JUMPDEST PUSH2 0x8C8 PUSH2 0x1853 JUMP JUMPDEST PUSH1 0x40 MLOAD DUP1 DUP3 PUSH20 0xFFFFFFFFFFFFFFFFFFFFFFFFFFFFFFFFFFFFFFFF AND PUSH20 0xFFFFFFFFFFFFFFFFFFFFFFFFFFFFFFFFFFFFFFFF AND DUP2 MSTORE PUSH1 0x20 ADD SWAP2 POP POP PUSH1 0x40 MLOAD DUP1 SWAP2 SUB SWAP1 RETURN JUMPDEST PUSH2 0x912 PUSH2 0x1879 JUMP JUMPDEST PUSH1 0x40 MLOAD DUP1 DUP1 PUSH1 0x20 ADD DUP3 DUP2 SUB DUP3 MSTORE DUP4 DUP2 DUP2 MLOAD DUP2 MSTORE PUSH1 0x20 ADD SWAP2 POP DUP1 MLOAD SWAP1 PUSH1 0x20 ADD SWAP1 DUP1 DUP4 DUP4 PUSH1 0x0 JUMPDEST DUP4 DUP2 LT ISZERO PUSH2 0x952 JUMPI DUP1 DUP3 ADD MLOAD DUP2 DUP5 ADD MSTORE PUSH1 0x20 DUP2 ADD SWAP1 POP PUSH2 0x937 JUMP JUMPDEST POP POP POP POP SWAP1 POP SWAP1 DUP2 ADD SWAP1 PUSH1 0x1F AND DUP1 ISZERO PUSH2 0x97F JUMPI DUP1 DUP3 SUB DUP1 MLOAD PUSH1 0x1 DUP4 PUSH1 0x20 SUB PUSH2 0x100 EXP SUB NOT AND DUP2 MSTORE PUSH1 0x20 ADD SWAP2 POP JUMPDEST POP SWAP3 POP POP POP PUSH1 0x40 MLOAD DUP1 SWAP2 SUB SWAP1 RETURN JUMPDEST PUSH2 0x995 PUSH2 0x1917 JUMP JUMPDEST PUSH1 0x40 MLOAD DUP1 DUP3 PUSH20 0xFFFFFFFFFFFFFFFFFFFFFFFFFFFFFFFFFFFFFFFF AND PUSH20 0xFFFFFFFFFFFFFFFFFFFFFFFFFFFFFFFFFFFFFFFF AND DUP2 MSTORE PUSH1 0x20 ADD SWAP2 POP POP PUSH1 0x40 MLOAD DUP1 SWAP2 SUB SWAP1 RETURN JUMPDEST PUSH2 0xA23 PUSH1 0x4 DUP1 CALLDATASIZE SUB PUSH1 0x40 DUP2 LT ISZERO PUSH2 0x9ED JUMPI PUSH1 0x0 DUP1 REVERT JUMPDEST DUP2 ADD SWAP1 DUP1 DUP1 CALLDATALOAD PUSH20 0xFFFFFFFFFFFFFFFFFFFFFFFFFFFFFFFFFFFFFFFF AND SWAP1 PUSH1 0x20 ADD SWAP1 SWAP3 SWAP2 SWAP1 DUP1 CALLDATALOAD SWAP1 PUSH1 0x20 ADD SWAP1 SWAP3 SWAP2 SWAP1 POP POP POP PUSH2 0x193D JUMP JUMPDEST PUSH1 0x40 MLOAD DUP1 DUP3 ISZERO ISZERO ISZERO ISZERO DUP2 MSTORE PUSH1 0x20 ADD SWAP2 POP POP PUSH1 0x40 MLOAD DUP1 SWAP2 SUB SWAP1 RETURN JUMPDEST PUSH2 0xA45 PUSH2 0x1B5E JUMP JUMPDEST PUSH1 0x40 MLOAD DUP1 DUP3 PUSH20 0xFFFFFFFFFFFFFFFFFFFFFFFFFFFFFFFFFFFFFFFF AND PUSH20 0xFFFFFFFFFFFFFFFFFFFFFFFFFFFFFFFFFFFFFFFF AND DUP2 MSTORE PUSH1 0x20 ADD SWAP2 POP POP PUSH1 0x40 MLOAD DUP1 SWAP2 SUB SWAP1 RETURN JUMPDEST PUSH2 0xA8F PUSH2 0x1B84 JUMP JUMPDEST PUSH1 0x40 MLOAD DUP1 DUP3 ISZERO ISZERO ISZERO ISZERO DUP2 MSTORE PUSH1 0x20 ADD SWAP2 POP POP PUSH1 0x40 MLOAD DUP1 SWAP2 SUB SWAP1 RETURN JUMPDEST PUSH2 0xAB1 PUSH2 0x2732 JUMP JUMPDEST PUSH1 0x40 MLOAD DUP1 DUP3 DUP2 MSTORE PUSH1 0x20 ADD SWAP2 POP POP PUSH1 0x40 MLOAD DUP1 SWAP2 SUB SWAP1 RETURN JUMPDEST PUSH2 0xACF PUSH2 0x2738 JUMP JUMPDEST PUSH1 0x40 MLOAD DUP1 DUP3 DUP2 MSTORE PUSH1 0x20 ADD SWAP2 POP POP PUSH1 0x40 MLOAD DUP1 SWAP2 SUB SWAP1 RETURN JUMPDEST PUSH2 0xAED PUSH2 0x273E JUMP JUMPDEST PUSH1 0x40 MLOAD DUP1 DUP3 DUP2 MSTORE PUSH1 0x20 ADD SWAP2 POP POP PUSH1 0x40 MLOAD DUP1 SWAP2 SUB SWAP1 RETURN JUMPDEST PUSH2 0xB0B PUSH2 0x2744 JUMP JUMPDEST PUSH1 0x40 MLOAD DUP1 DUP3 DUP2 MSTORE PUSH1 0x20 ADD SWAP2 POP POP PUSH1 0x40 MLOAD DUP1 SWAP2 SUB SWAP1 RETURN JUMPDEST PUSH2 0xB29 PUSH2 0x274A JUMP JUMPDEST PUSH1 0x40 MLOAD DUP1 DUP3 DUP2 MSTORE PUSH1 0x20 ADD SWAP2 POP POP PUSH1 0x40 MLOAD DUP1 SWAP2 SUB SWAP1 RETURN JUMPDEST PUSH2 0xB47 PUSH2 0x2750 JUMP JUMPDEST PUSH1 0x40 MLOAD DUP1 DUP3 DUP2 MSTORE PUSH1 0x20 ADD SWAP2 POP POP PUSH1 0x40 MLOAD DUP1 SWAP2 SUB SWAP1 RETURN JUMPDEST PUSH2 0xBA9 PUSH1 0x4 DUP1 CALLDATASIZE SUB PUSH1 0x40 DUP2 LT ISZERO PUSH2 0xB73 JUMPI PUSH1 0x0 DUP1 REVERT JUMPDEST DUP2 ADD SWAP1 DUP1 DUP1 CALLDATALOAD PUSH20 0xFFFFFFFFFFFFFFFFFFFFFFFFFFFFFFFFFFFFFFFF AND SWAP1 PUSH1 0x20 ADD SWAP1 SWAP3 SWAP2 SWAP1 DUP1 CALLDATALOAD SWAP1 PUSH1 0x20 ADD SWAP1 SWAP3 SWAP2 SWAP1 POP POP POP PUSH2 0x2756 JUMP JUMPDEST PUSH1 0x40 MLOAD DUP1 DUP3 ISZERO ISZERO ISZERO ISZERO DUP2 MSTORE PUSH1 0x20 ADD SWAP2 POP POP PUSH1 0x40 MLOAD DUP1 SWAP2 SUB SWAP1 RETURN JUMPDEST PUSH2 0xBCB PUSH2 0x2952 JUMP JUMPDEST PUSH1 0x40 MLOAD DUP1 DUP3 DUP2 MSTORE PUSH1 0x20 ADD SWAP2 POP POP PUSH1 0x40 MLOAD DUP1 SWAP2 SUB SWAP1 RETURN JUMPDEST PUSH2 0xC43 PUSH1 0x4 DUP1 CALLDATASIZE SUB PUSH1 0x40 DUP2 LT ISZERO PUSH2 0xBF7 JUMPI PUSH1 0x0 DUP1 REVERT JUMPDEST DUP2 ADD SWAP1 DUP1 DUP1 CALLDATALOAD PUSH20 0xFFFFFFFFFFFFFFFFFFFFFFFFFFFFFFFFFFFFFFFF AND SWAP1 PUSH1 0x20 ADD SWAP1 SWAP3 SWAP2 SWAP1 DUP1 CALLDATALOAD PUSH20 0xFFFFFFFFFFFFFFFFFFFFFFFFFFFFFFFFFFFFFFFF AND SWAP1 PUSH1 0x20 ADD SWAP1 SWAP3 SWAP2 SWAP1 POP POP POP PUSH2 0x2958 JUMP JUMPDEST PUSH1 0x40 MLOAD DUP1 DUP3 DUP2 MSTORE PUSH1 0x20 ADD SWAP2 POP POP PUSH1 0x40 MLOAD DUP1 SWAP2 SUB SWAP1 RETURN JUMPDEST PUSH2 0xC61 PUSH2 0x29DF JUMP JUMPDEST PUSH1 0x40 MLOAD DUP1 DUP3 DUP2 MSTORE PUSH1 0x20 ADD SWAP2 POP POP PUSH1 0x40 MLOAD DUP1 SWAP2 SUB SWAP1 RETURN JUMPDEST PUSH2 0xCB9 PUSH1 0x4 DUP1 CALLDATASIZE SUB PUSH1 0x20 DUP2 LT ISZERO PUSH2 0xC8D JUMPI PUSH1 0x0 DUP1 REVERT JUMPDEST DUP2 ADD SWAP1 DUP1 DUP1 CALLDATALOAD PUSH20 0xFFFFFFFFFFFFFFFFFFFFFFFFFFFFFFFFFFFFFFFF AND SWAP1 PUSH1 0x20 ADD SWAP1 SWAP3 SWAP2 SWAP1 POP POP POP PUSH2 0x29E5 JUMP JUMPDEST STOP JUMPDEST PUSH1 0x6 PUSH1 0x14 SWAP1 SLOAD SWAP1 PUSH2 0x100 EXP SWAP1 DIV PUSH1 0xFF AND DUP2 JUMP JUMPDEST PUSH1 0x0 DUP1 SLOAD PUSH1 0x1 DUP2 PUSH1 0x1 AND ISZERO PUSH2 0x100 MUL SUB AND PUSH1 0x2 SWAP1 DIV DUP1 PUSH1 0x1F ADD PUSH1 0x20 DUP1 SWAP2 DIV MUL PUSH1 0x20 ADD PUSH1 0x40 MLOAD SWAP1 DUP2 ADD PUSH1 0x40 MSTORE DUP1 SWAP3 SWAP2 SWAP1 DUP2 DUP2 MSTORE PUSH1 0x20 ADD DUP3 DUP1 SLOAD PUSH1 0x1 DUP2 PUSH1 0x1 AND ISZERO PUSH2 0x100 MUL SUB AND PUSH1 0x2 SWAP1 DIV DUP1 ISZERO PUSH2 0xD64 JUMPI DUP1 PUSH1 0x1F LT PUSH2 0xD39 JUMPI PUSH2 0x100 DUP1 DUP4 SLOAD DIV MUL DUP4 MSTORE SWAP2 PUSH1 0x20 ADD SWAP2 PUSH2 0xD64 JUMP JUMPDEST DUP3 ADD SWAP2 SWAP1 PUSH1 0x0 MSTORE PUSH1 0x20 PUSH1 0x0 KECCAK256 SWAP1 JUMPDEST DUP2 SLOAD DUP2 MSTORE SWAP1 PUSH1 0x1 ADD SWAP1 PUSH1 0x20 ADD DUP1 DUP4 GT PUSH2 0xD47 JUMPI DUP3 SWAP1 SUB PUSH1 0x1F AND DUP3 ADD SWAP2 JUMPDEST POP POP POP POP POP DUP2 JUMP JUMPDEST PUSH1 0x0 DUP2 PUSH1 0x5 PUSH1 0x0 CALLER PUSH20 0xFFFFFFFFFFFFFFFFFFFFFFFFFFFFFFFFFFFFFFFF AND PUSH20 0xFFFFFFFFFFFFFFFFFFFFFFFFFFFFFFFFFFFFFFFF AND DUP2 MSTORE PUSH1 0x20 ADD SWAP1 DUP2 MSTORE PUSH1 0x20 ADD PUSH1 0x0 KECCAK256 PUSH1 0x0 DUP6 PUSH20 0xFFFFFFFFFFFFFFFFFFFFFFFFFFFFFFFFFFFFFFFF AND PUSH20 0xFFFFFFFFFFFFFFFFFFFFFFFFFFFFFFFFFFFFFFFF AND DUP2 MSTORE PUSH1 0x20 ADD SWAP1 DUP2 MSTORE PUSH1 0x20 ADD PUSH1 0x0 KECCAK256 DUP2 SWAP1 SSTORE POP DUP3 PUSH20 0xFFFFFFFFFFFFFFFFFFFFFFFFFFFFFFFFFFFFFFFF AND CALLER PUSH20 0xFFFFFFFFFFFFFFFFFFFFFFFFFFFFFFFFFFFFFFFF AND PUSH32 0x8C5BE1E5EBEC7D5BD14F71427D1E84F3DD0314C0F7B2291E5B200AC8C7C3B925 DUP5 PUSH1 0x40 MLOAD DUP1 DUP3 DUP2 MSTORE PUSH1 0x20 ADD SWAP2 POP POP PUSH1 0x40 MLOAD DUP1 SWAP2 SUB SWAP1 LOG3 PUSH1 0x1 SWAP1 POP SWAP3 SWAP2 POP POP JUMP JUMPDEST PUSH1 0x16 PUSH1 0x0 SWAP1 SLOAD SWAP1 PUSH2 0x100 EXP SWAP1 DIV PUSH20 0xFFFFFFFFFFFFFFFFFFFFFFFFFFFFFFFFFFFFFFFF AND DUP2 JUMP JUMPDEST PUSH1 0x0 PUSH1 0x4 SLOAD SWAP1 POP SWAP1 JUMP JUMPDEST PUSH1 0x0 PUSH1 0x3 PUSH1 0x0 DUP6 PUSH20 0xFFFFFFFFFFFFFFFFFFFFFFFFFFFFFFFFFFFFFFFF AND PUSH20 0xFFFFFFFFFFFFFFFFFFFFFFFFFFFFFFFFFFFFFFFF AND DUP2 MSTORE PUSH1 0x20 ADD SWAP1 DUP2 MSTORE PUSH1 0x20 ADD PUSH1 0x0 KECCAK256 SLOAD DUP3 GT ISZERO PUSH2 0xEDC JUMPI PUSH1 0x0 DUP1 REVERT JUMPDEST PUSH1 0x5 PUSH1 0x0 DUP6 PUSH20 0xFFFFFFFFFFFFFFFFFFFFFFFFFFFFFFFFFFFFFFFF AND PUSH20 0xFFFFFFFFFFFFFFFFFFFFFFFFFFFFFFFFFFFFFFFF AND DUP2 MSTORE PUSH1 0x20 ADD SWAP1 DUP2 MSTORE PUSH1 0x20 ADD PUSH1 0x0 KECCAK256 PUSH1 0x0 CALLER PUSH20 0xFFFFFFFFFFFFFFFFFFFFFFFFFFFFFFFFFFFFFFFF AND PUSH20 0xFFFFFFFFFFFFFFFFFFFFFFFFFFFFFFFFFFFFFFFF AND DUP2 MSTORE PUSH1 0x20 ADD SWAP1 DUP2 MSTORE PUSH1 0x20 ADD PUSH1 0x0 KECCAK256 SLOAD DUP3 GT ISZERO PUSH2 0xF65 JUMPI PUSH1 0x0 DUP1 REVERT JUMPDEST PUSH1 0x0 PUSH20 0xFFFFFFFFFFFFFFFFFFFFFFFFFFFFFFFFFFFFFFFF AND DUP4 PUSH20 0xFFFFFFFFFFFFFFFFFFFFFFFFFFFFFFFFFFFFFFFF AND EQ ISZERO PUSH2 0xF9F JUMPI PUSH1 0x0 DUP1 REVERT JUMPDEST PUSH2 0xFF1 DUP3 PUSH1 0x3 PUSH1 0x0 DUP8 PUSH20 0xFFFFFFFFFFFFFFFFFFFFFFFFFFFFFFFFFFFFFFFF AND PUSH20 0xFFFFFFFFFFFFFFFFFFFFFFFFFFFFFFFFFFFFFFFF AND DUP2 MSTORE PUSH1 0x20 ADD SWAP1 DUP2 MSTORE PUSH1 0x20 ADD PUSH1 0x0 KECCAK256 SLOAD PUSH2 0x2A4B SWAP1 SWAP2 SWAP1 PUSH4 0xFFFFFFFF AND JUMP JUMPDEST PUSH1 0x3 PUSH1 0x0 DUP7 PUSH20 0xFFFFFFFFFFFFFFFFFFFFFFFFFFFFFFFFFFFFFFFF AND PUSH20 0xFFFFFFFFFFFFFFFFFFFFFFFFFFFFFFFFFFFFFFFF AND DUP2 MSTORE PUSH1 0x20 ADD SWAP1 DUP2 MSTORE PUSH1 0x20 ADD PUSH1 0x0 KECCAK256 DUP2 SWAP1 SSTORE POP PUSH2 0x1086 DUP3 PUSH1 0x3 PUSH1 0x0 DUP7 PUSH20 0xFFFFFFFFFFFFFFFFFFFFFFFFFFFFFFFFFFFFFFFF AND PUSH20 0xFFFFFFFFFFFFFFFFFFFFFFFFFFFFFFFFFFFFFFFF AND DUP2 MSTORE PUSH1 0x20 ADD SWAP1 DUP2 MSTORE PUSH1 0x20 ADD PUSH1 0x0 KECCAK256 SLOAD PUSH2 0x2A62 SWAP1 SWAP2 SWAP1 PUSH4 0xFFFFFFFF AND JUMP JUMPDEST PUSH1 0x3 PUSH1 0x0 DUP6 PUSH20 0xFFFFFFFFFFFFFFFFFFFFFFFFFFFFFFFFFFFFFFFF AND PUSH20 0xFFFFFFFFFFFFFFFFFFFFFFFFFFFFFFFFFFFFFFFF AND DUP2 MSTORE PUSH1 0x20 ADD SWAP1 DUP2 MSTORE PUSH1 0x20 ADD PUSH1 0x0 KECCAK256 DUP2 SWAP1 SSTORE POP PUSH2 0x1158 DUP3 PUSH1 0x5 PUSH1 0x0 DUP8 PUSH20 0xFFFFFFFFFFFFFFFFFFFFFFFFFFFFFFFFFFFFFFFF AND PUSH20 0xFFFFFFFFFFFFFFFFFFFFFFFFFFFFFFFFFFFFFFFF AND DUP2 MSTORE PUSH1 0x20 ADD SWAP1 DUP2 MSTORE PUSH1 0x20 ADD PUSH1 0x0 KECCAK256 PUSH1 0x0 CALLER PUSH20 0xFFFFFFFFFFFFFFFFFFFFFFFFFFFFFFFFFFFFFFFF AND PUSH20 0xFFFFFFFFFFFFFFFFFFFFFFFFFFFFFFFFFFFFFFFF AND DUP2 MSTORE PUSH1 0x20 ADD SWAP1 DUP2 MSTORE PUSH1 0x20 ADD PUSH1 0x0 KECCAK256 SLOAD PUSH2 0x2A4B SWAP1 SWAP2 SWAP1 PUSH4 0xFFFFFFFF AND JUMP JUMPDEST PUSH1 0x5 PUSH1 0x0 DUP7 PUSH20 0xFFFFFFFFFFFFFFFFFFFFFFFFFFFFFFFFFFFFFFFF AND PUSH20 0xFFFFFFFFFFFFFFFFFFFFFFFFFFFFFFFFFFFFFFFF AND DUP2 MSTORE PUSH1 0x20 ADD SWAP1 DUP2 MSTORE PUSH1 0x20 ADD PUSH1 0x0 KECCAK256 PUSH1 0x0 CALLER PUSH20 0xFFFFFFFFFFFFFFFFFFFFFFFFFFFFFFFFFFFFFFFF AND PUSH20 0xFFFFFFFFFFFFFFFFFFFFFFFFFFFFFFFFFFFFFFFF AND DUP2 MSTORE PUSH1 0x20 ADD SWAP1 DUP2 MSTORE PUSH1 0x20 ADD PUSH1 0x0 KECCAK256 DUP2 SWAP1 SSTORE POP DUP3 PUSH20 0xFFFFFFFFFFFFFFFFFFFFFFFFFFFFFFFFFFFFFFFF AND DUP5 PUSH20 0xFFFFFFFFFFFFFFFFFFFFFFFFFFFFFFFFFFFFFFFF AND PUSH32 0xDDF252AD1BE2C89B69C2B068FC378DAA952BA7F163C4A11628F55A4DF523B3EF DUP5 PUSH1 0x40 MLOAD DUP1 DUP3 DUP2 MSTORE PUSH1 0x20 ADD SWAP2 POP POP PUSH1 0x40 MLOAD DUP1 SWAP2 SUB SWAP1 LOG3 PUSH1 0x1 SWAP1 POP SWAP4 SWAP3 POP POP POP JUMP JUMPDEST PUSH1 0x12 PUSH1 0x0 SWAP1 SLOAD SWAP1 PUSH2 0x100 EXP SWAP1 DIV PUSH20 0xFFFFFFFFFFFFFFFFFFFFFFFFFFFFFFFFFFFFFFFF AND DUP2 JUMP JUMPDEST PUSH1 0x1E SLOAD DUP2 JUMP JUMPDEST PUSH1 0x2 PUSH1 0x0 SWAP1 SLOAD SWAP1 PUSH2 0x100 EXP SWAP1 DIV PUSH1 0xFF AND DUP2 JUMP JUMPDEST PUSH1 0x7 SLOAD DUP2 JUMP JUMPDEST PUSH1 0x1A PUSH1 0x0 SWAP1 SLOAD SWAP1 PUSH2 0x100 EXP SWAP1 DIV PUSH20 0xFFFFFFFFFFFFFFFFFFFFFFFFFFFFFFFFFFFFFFFF AND DUP2 JUMP JUMPDEST PUSH1 0x13 PUSH1 0x0 SWAP1 SLOAD SWAP1 PUSH2 0x100 EXP SWAP1 DIV PUSH20 0xFFFFFFFFFFFFFFFFFFFFFFFFFFFFFFFFFFFFFFFF AND DUP2 JUMP JUMPDEST PUSH1 0xF SLOAD DUP2 JUMP JUMPDEST PUSH1 0x0 PUSH1 0x7 SLOAD PUSH2 0x12F9 DUP4 PUSH1 0x4 SLOAD PUSH2 0x2A62 SWAP1 SWAP2 SWAP1 PUSH4 0xFFFFFFFF AND JUMP JUMPDEST GT ISZERO PUSH2 0x1304 JUMPI PUSH1 0x0 DUP1 REVERT JUMPDEST PUSH2 0x130E DUP4 DUP4 PUSH2 0x2A7C JUMP JUMPDEST SWAP1 POP SWAP3 SWAP2 POP POP JUMP JUMPDEST PUSH2 0x1320 CALLER DUP3 PUSH2 0x2C60 JUMP JUMPDEST POP JUMP JUMPDEST PUSH1 0x11 SLOAD DUP2 JUMP JUMPDEST PUSH1 0xE SLOAD DUP2 JUMP JUMPDEST PUSH1 0x14 PUSH1 0x0 SWAP1 SLOAD SWAP1 PUSH2 0x100 EXP SWAP1 DIV PUSH20 0xFFFFFFFFFFFFFFFFFFFFFFFFFFFFFFFFFFFFFFFF AND DUP2 JUMP JUMPDEST PUSH1 0x17 PUSH1 0x0 SWAP1 SLOAD SWAP1 PUSH2 0x100 EXP SWAP1 DIV PUSH20 0xFFFFFFFFFFFFFFFFFFFFFFFFFFFFFFFFFFFFFFFF AND DUP2 JUMP JUMPDEST PUSH1 0x1F SLOAD DUP2 JUMP JUMPDEST PUSH1 0x15 PUSH1 0x0 SWAP1 SLOAD SWAP1 PUSH2 0x100 EXP SWAP1 DIV PUSH20 0xFFFFFFFFFFFFFFFFFFFFFFFFFFFFFFFFFFFFFFFF AND DUP2 JUMP JUMPDEST PUSH1 0x0 DUP1 PUSH1 0x5 PUSH1 0x0 CALLER PUSH20 0xFFFFFFFFFFFFFFFFFFFFFFFFFFFFFFFFFFFFFFFF AND PUSH20 0xFFFFFFFFFFFFFFFFFFFFFFFFFFFFFFFFFFFFFFFF AND DUP2 MSTORE PUSH1 0x20 ADD SWAP1 DUP2 MSTORE PUSH1 0x20 ADD PUSH1 0x0 KECCAK256 PUSH1 0x0 DUP6 PUSH20 0xFFFFFFFFFFFFFFFFFFFFFFFFFFFFFFFFFFFFFFFF AND PUSH20 0xFFFFFFFFFFFFFFFFFFFFFFFFFFFFFFFFFFFFFFFF AND DUP2 MSTORE PUSH1 0x20 ADD SWAP1 DUP2 MSTORE PUSH1 0x20 ADD PUSH1 0x0 KECCAK256 SLOAD SWAP1 POP DUP1 DUP4 LT PUSH2 0x14B7 JUMPI PUSH1 0x0 PUSH1 0x5 PUSH1 0x0 CALLER PUSH20 0xFFFFFFFFFFFFFFFFFFFFFFFFFFFFFFFFFFFFFFFF AND PUSH20 0xFFFFFFFFFFFFFFFFFFFFFFFFFFFFFFFFFFFFFFFF AND DUP2 MSTORE PUSH1 0x20 ADD SWAP1 DUP2 MSTORE PUSH1 0x20 ADD PUSH1 0x0 KECCAK256 PUSH1 0x0 DUP7 PUSH20 0xFFFFFFFFFFFFFFFFFFFFFFFFFFFFFFFFFFFFFFFF AND PUSH20 0xFFFFFFFFFFFFFFFFFFFFFFFFFFFFFFFFFFFFFFFF AND DUP2 MSTORE PUSH1 0x20 ADD SWAP1 DUP2 MSTORE PUSH1 0x20 ADD PUSH1 0x0 KECCAK256 DUP2 SWAP1 SSTORE POP PUSH2 0x154B JUMP JUMPDEST PUSH2 0x14CA DUP4 DUP3 PUSH2 0x2A4B SWAP1 SWAP2 SWAP1 PUSH4 0xFFFFFFFF AND JUMP JUMPDEST PUSH1 0x5 PUSH1 0x0 CALLER PUSH20 0xFFFFFFFFFFFFFFFFFFFFFFFFFFFFFFFFFFFFFFFF AND PUSH20 0xFFFFFFFFFFFFFFFFFFFFFFFFFFFFFFFFFFFFFFFF AND DUP2 MSTORE PUSH1 0x20 ADD SWAP1 DUP2 MSTORE PUSH1 0x20 ADD PUSH1 0x0 KECCAK256 PUSH1 0x0 DUP7 PUSH20 0xFFFFFFFFFFFFFFFFFFFFFFFFFFFFFFFFFFFFFFFF AND PUSH20 0xFFFFFFFFFFFFFFFFFFFFFFFFFFFFFFFFFFFFFFFF AND DUP2 MSTORE PUSH1 0x20 ADD SWAP1 DUP2 MSTORE PUSH1 0x20 ADD PUSH1 0x0 KECCAK256 DUP2 SWAP1 SSTORE POP JUMPDEST DUP4 PUSH20 0xFFFFFFFFFFFFFFFFFFFFFFFFFFFFFFFFFFFFFFFF AND CALLER PUSH20 0xFFFFFFFFFFFFFFFFFFFFFFFFFFFFFFFFFFFFFFFF AND PUSH32 0x8C5BE1E5EBEC7D5BD14F71427D1E84F3DD0314C0F7B2291E5B200AC8C7C3B925 PUSH1 0x5 PUSH1 0x0 CALLER PUSH20 0xFFFFFFFFFFFFFFFFFFFFFFFFFFFFFFFFFFFFFFFF AND PUSH20 0xFFFFFFFFFFFFFFFFFFFFFFFFFFFFFFFFFFFFFFFF AND DUP2 MSTORE PUSH1 0x20 ADD SWAP1 DUP2 MSTORE PUSH1 0x20 ADD PUSH1 0x0 KECCAK256 PUSH1 0x0 DUP9 PUSH20 0xFFFFFFFFFFFFFFFFFFFFFFFFFFFFFFFFFFFFFFFF AND PUSH20 0xFFFFFFFFFFFFFFFFFFFFFFFFFFFFFFFFFFFFFFFF AND DUP2 MSTORE PUSH1 0x20 ADD SWAP1 DUP2 MSTORE PUSH1 0x20 ADD PUSH1 0x0 KECCAK256 SLOAD PUSH1 0x40 MLOAD DUP1 DUP3 DUP2 MSTORE PUSH1 0x20 ADD SWAP2 POP POP PUSH1 0x40 MLOAD DUP1 SWAP2 SUB SWAP1 LOG3 PUSH1 0x1 SWAP2 POP POP SWAP3 SWAP2 POP POP JUMP JUMPDEST PUSH1 0xC SLOAD DUP2 JUMP JUMPDEST PUSH1 0x0 PUSH1 0x3 PUSH1 0x0 DUP4 PUSH20 0xFFFFFFFFFFFFFFFFFFFFFFFFFFFFFFFFFFFFFFFF AND PUSH20 0xFFFFFFFFFFFFFFFFFFFFFFFFFFFFFFFFFFFFFFFF AND DUP2 MSTORE PUSH1 0x20 ADD SWAP1 DUP2 MSTORE PUSH1 0x20 ADD PUSH1 0x0 KECCAK256 SLOAD SWAP1 POP SWAP2 SWAP1 POP JUMP JUMPDEST PUSH1 0x6 PUSH1 0x0 SWAP1 SLOAD SWAP1 PUSH2 0x100 EXP SWAP1 DIV PUSH20 0xFFFFFFFFFFFFFFFFFFFFFFFFFFFFFFFFFFFFFFFF AND PUSH20 0xFFFFFFFFFFFFFFFFFFFFFFFFFFFFFFFFFFFFFFFF AND CALLER PUSH20 0xFFFFFFFFFFFFFFFFFFFFFFFFFFFFFFFFFFFFFFFF AND EQ PUSH2 0x16E0 JUMPI PUSH1 0x0 DUP1 REVERT JUMPDEST PUSH1 0x6 PUSH1 0x0 SWAP1 SLOAD SWAP1 PUSH2 0x100 EXP SWAP1 DIV PUSH20 0xFFFFFFFFFFFFFFFFFFFFFFFFFFFFFFFFFFFFFFFF AND PUSH20 0xFFFFFFFFFFFFFFFFFFFFFFFFFFFFFFFFFFFFFFFF AND PUSH32 0xF8DF31144D9C2F0F6B59D69B8B98ABD5459D07F2742C4DF920B25AAE33C64820 PUSH1 0x40 MLOAD PUSH1 0x40 MLOAD DUP1 SWAP2 SUB SWAP1 LOG2 PUSH1 0x0 PUSH1 0x6 PUSH1 0x0 PUSH2 0x100 EXP DUP2 SLOAD DUP2 PUSH20 0xFFFFFFFFFFFFFFFFFFFFFFFFFFFFFFFFFFFFFFFF MUL NOT AND SWAP1 DUP4 PUSH20 0xFFFFFFFFFFFFFFFFFFFFFFFFFFFFFFFFFFFFFFFF AND MUL OR SWAP1 SSTORE POP JUMP JUMPDEST PUSH1 0x20 SLOAD DUP2 JUMP JUMPDEST PUSH1 0x0 PUSH1 0x6 PUSH1 0x0 SWAP1 SLOAD SWAP1 PUSH2 0x100 EXP SWAP1 DIV PUSH20 0xFFFFFFFFFFFFFFFFFFFFFFFFFFFFFFFFFFFFFFFF AND PUSH20 0xFFFFFFFFFFFFFFFFFFFFFFFFFFFFFFFFFFFFFFFF AND CALLER PUSH20 0xFFFFFFFFFFFFFFFFFFFFFFFFFFFFFFFFFFFFFFFF AND EQ PUSH2 0x17EB JUMPI PUSH1 0x0 DUP1 REVERT JUMPDEST PUSH1 0x6 PUSH1 0x14 SWAP1 SLOAD SWAP1 PUSH2 0x100 EXP SWAP1 DIV PUSH1 0xFF AND ISZERO PUSH2 0x1805 JUMPI PUSH1 0x0 DUP1 REVERT JUMPDEST PUSH1 0x1 PUSH1 0x6 PUSH1 0x14 PUSH2 0x100 EXP DUP2 SLOAD DUP2 PUSH1 0xFF MUL NOT AND SWAP1 DUP4 ISZERO ISZERO MUL OR SWAP1 SSTORE POP PUSH32 0xAE5184FBA832CB2B1F702ACA6117B8D265EAF03AD33EB133F19DDE0F5920FA08 PUSH1 0x40 MLOAD PUSH1 0x40 MLOAD DUP1 SWAP2 SUB SWAP1 LOG1 PUSH1 0x1 SWAP1 POP SWAP1 JUMP JUMPDEST PUSH1 0x6 PUSH1 0x0 SWAP1 SLOAD SWAP1 PUSH2 0x100 EXP SWAP1 DIV PUSH20 0xFFFFFFFFFFFFFFFFFFFFFFFFFFFFFFFFFFFFFFFF AND DUP2 JUMP JUMPDEST PUSH1 0x1 DUP1 SLOAD PUSH1 0x1 DUP2 PUSH1 0x1 AND ISZERO PUSH2 0x100 MUL SUB AND PUSH1 0x2 SWAP1 DIV DUP1 PUSH1 0x1F ADD PUSH1 0x20 DUP1 SWAP2 DIV MUL PUSH1 0x20 ADD PUSH1 0x40 MLOAD SWAP1 DUP2 ADD PUSH1 0x40 MSTORE DUP1 SWAP3 SWAP2 SWAP1 DUP2 DUP2 MSTORE PUSH1 0x20 ADD DUP3 DUP1 SLOAD PUSH1 0x1 DUP2 PUSH1 0x1 AND ISZERO PUSH2 0x100 MUL SUB AND PUSH1 0x2 SWAP1 DIV DUP1 ISZERO PUSH2 0x190F JUMPI DUP1 PUSH1 0x1F LT PUSH2 0x18E4 JUMPI PUSH2 0x100 DUP1 DUP4 SLOAD DIV MUL DUP4 MSTORE SWAP2 PUSH1 0x20 ADD SWAP2 PUSH2 0x190F JUMP JUMPDEST DUP3 ADD SWAP2 SWAP1 PUSH1 0x0 MSTORE PUSH1 0x20 PUSH1 0x0 KECCAK256 SWAP1 JUMPDEST DUP2 SLOAD DUP2 MSTORE SWAP1 PUSH1 0x1 ADD SWAP1 PUSH1 0x20 ADD DUP1 DUP4 GT PUSH2 0x18F2 JUMPI DUP3 SWAP1 SUB PUSH1 0x1F AND DUP3 ADD SWAP2 JUMPDEST POP POP POP POP POP DUP2 JUMP JUMPDEST PUSH1 0x19 PUSH1 0x0 SWAP1 SLOAD SWAP1 PUSH2 0x100 EXP SWAP1 DIV PUSH20 0xFFFFFFFFFFFFFFFFFFFFFFFFFFFFFFFFFFFFFFFF AND DUP2 JUMP JUMPDEST PUSH1 0x0 PUSH1 0x3 PUSH1 0x0 CALLER PUSH20 0xFFFFFFFFFFFFFFFFFFFFFFFFFFFFFFFFFFFFFFFF AND PUSH20 0xFFFFFFFFFFFFFFFFFFFFFFFFFFFFFFFFFFFFFFFF AND DUP2 MSTORE PUSH1 0x20 ADD SWAP1 DUP2 MSTORE PUSH1 0x20 ADD PUSH1 0x0 KECCAK256 SLOAD DUP3 GT ISZERO PUSH2 0x198B JUMPI PUSH1 0x0 DUP1 REVERT JUMPDEST PUSH1 0x0 PUSH20 0xFFFFFFFFFFFFFFFFFFFFFFFFFFFFFFFFFFFFFFFF AND DUP4 PUSH20 0xFFFFFFFFFFFFFFFFFFFFFFFFFFFFFFFFFFFFFFFF AND EQ ISZERO PUSH2 0x19C5 JUMPI PUSH1 0x0 DUP1 REVERT JUMPDEST PUSH2 0x1A17 DUP3 PUSH1 0x3 PUSH1 0x0 CALLER PUSH20 0xFFFFFFFFFFFFFFFFFFFFFFFFFFFFFFFFFFFFFFFF AND PUSH20 0xFFFFFFFFFFFFFFFFFFFFFFFFFFFFFFFFFFFFFFFF AND DUP2 MSTORE PUSH1 0x20 ADD SWAP1 DUP2 MSTORE PUSH1 0x20 ADD PUSH1 0x0 KECCAK256 SLOAD PUSH2 0x2A4B SWAP1 SWAP2 SWAP1 PUSH4 0xFFFFFFFF AND JUMP JUMPDEST PUSH1 0x3 PUSH1 0x0 CALLER PUSH20 0xFFFFFFFFFFFFFFFFFFFFFFFFFFFFFFFFFFFFFFFF AND PUSH20 0xFFFFFFFFFFFFFFFFFFFFFFFFFFFFFFFFFFFFFFFF AND DUP2 MSTORE PUSH1 0x20 ADD SWAP1 DUP2 MSTORE PUSH1 0x20 ADD PUSH1 0x0 KECCAK256 DUP2 SWAP1 SSTORE POP PUSH2 0x1AAC DUP3 PUSH1 0x3 PUSH1 0x0 DUP7 PUSH20 0xFFFFFFFFFFFFFFFFFFFFFFFFFFFFFFFFFFFFFFFF AND PUSH20 0xFFFFFFFFFFFFFFFFFFFFFFFFFFFFFFFFFFFFFFFF AND DUP2 MSTORE PUSH1 0x20 ADD SWAP1 DUP2 MSTORE PUSH1 0x20 ADD PUSH1 0x0 KECCAK256 SLOAD PUSH2 0x2A62 SWAP1 SWAP2 SWAP1 PUSH4 0xFFFFFFFF AND JUMP JUMPDEST PUSH1 0x3 PUSH1 0x0 DUP6 PUSH20 0xFFFFFFFFFFFFFFFFFFFFFFFFFFFFFFFFFFFFFFFF AND PUSH20 0xFFFFFFFFFFFFFFFFFFFFFFFFFFFFFFFFFFFFFFFF AND DUP2 MSTORE PUSH1 0x20 ADD SWAP1 DUP2 MSTORE PUSH1 0x20 ADD PUSH1 0x0 KECCAK256 DUP2 SWAP1 SSTORE POP DUP3 PUSH20 0xFFFFFFFFFFFFFFFFFFFFFFFFFFFFFFFFFFFFFFFF AND CALLER PUSH20 0xFFFFFFFFFFFFFFFFFFFFFFFFFFFFFFFFFFFFFFFF AND PUSH32 0xDDF252AD1BE2C89B69C2B068FC378DAA952BA7F163C4A11628F55A4DF523B3EF DUP5 PUSH1 0x40 MLOAD DUP1 DUP3 DUP2 MSTORE PUSH1 0x20 ADD SWAP2 POP POP PUSH1 0x40 MLOAD DUP1 SWAP2 SUB SWAP1 LOG3 PUSH1 0x1 SWAP1 POP SWAP3 SWAP2 POP POP JUMP JUMPDEST PUSH1 0x18 PUSH1 0x0 SWAP1 SLOAD SWAP1 PUSH2 0x100 EXP SWAP1 DIV PUSH20 0xFFFFFFFFFFFFFFFFFFFFFFFFFFFFFFFFFFFFFFFF AND DUP2 JUMP JUMPDEST PUSH1 0x0 PUSH3 0x278D00 PUSH2 0x1B9F PUSH1 0xC SLOAD TIMESTAMP PUSH2 0x2A4B SWAP1 SWAP2 SWAP1 PUSH4 0xFFFFFFFF AND JUMP JUMPDEST GT PUSH2 0x1BA9 JUMPI PUSH1 0x0 DUP1 REVERT JUMPDEST PUSH1 0x0 PUSH2 0x1BC2 PUSH1 0x10 SLOAD PUSH1 0xD SLOAD PUSH2 0x2A62 SWAP1 SWAP2 SWAP1 PUSH4 0xFFFFFFFF AND JUMP JUMPDEST SWAP1 POP PUSH2 0x1BEB PUSH1 0x64 PUSH2 0x1BDD PUSH1 0x5 DUP5 PUSH2 0x2E14 SWAP1 SWAP2 SWAP1 PUSH4 0xFFFFFFFF AND JUMP JUMPDEST PUSH2 0x2E48 SWAP1 SWAP2 SWAP1 PUSH4 0xFFFFFFFF AND JUMP JUMPDEST PUSH1 0x1B DUP2 SWAP1 SSTORE POP PUSH2 0x1C18 PUSH1 0x64 PUSH2 0x1C0A PUSH1 0xA DUP5 PUSH2 0x2E14 SWAP1 SWAP2 SWAP1 PUSH4 0xFFFFFFFF AND JUMP JUMPDEST PUSH2 0x2E48 SWAP1 SWAP2 SWAP1 PUSH4 0xFFFFFFFF AND JUMP JUMPDEST PUSH1 0x1C DUP2 SWAP1 SSTORE POP PUSH2 0x1C45 PUSH1 0x64 PUSH2 0x1C37 PUSH1 0xA DUP5 PUSH2 0x2E14 SWAP1 SWAP2 SWAP1 PUSH4 0xFFFFFFFF AND JUMP JUMPDEST PUSH2 0x2E48 SWAP1 SWAP2 SWAP1 PUSH4 0xFFFFFFFF AND JUMP JUMPDEST PUSH1 0x1D DUP2 SWAP1 SSTORE POP PUSH2 0x1C72 PUSH1 0x64 PUSH2 0x1C64 PUSH1 0xA DUP5 PUSH2 0x2E14 SWAP1 SWAP2 SWAP1 PUSH4 0xFFFFFFFF AND JUMP JUMPDEST PUSH2 0x2E48 SWAP1 SWAP2 SWAP1 PUSH4 0xFFFFFFFF AND JUMP JUMPDEST PUSH1 0x1E DUP2 SWAP1 SSTORE POP PUSH2 0x1C9F PUSH1 0x64 PUSH2 0x1C91 PUSH1 0xA DUP5 PUSH2 0x2E14 SWAP1 SWAP2 SWAP1 PUSH4 0xFFFFFFFF AND JUMP JUMPDEST PUSH2 0x2E48 SWAP1 SWAP2 SWAP1 PUSH4 0xFFFFFFFF AND JUMP JUMPDEST PUSH1 0x1F DUP2 SWAP1 SSTORE POP PUSH2 0x1CCC PUSH1 0x64 PUSH2 0x1CBE PUSH1 0x5 DUP5 PUSH2 0x2E14 SWAP1 SWAP2 SWAP1 PUSH4 0xFFFFFFFF AND JUMP JUMPDEST PUSH2 0x2E48 SWAP1 SWAP2 SWAP1 PUSH4 0xFFFFFFFF AND JUMP JUMPDEST PUSH1 0x20 DUP2 SWAP1 SSTORE POP PUSH2 0x1CFA PUSH2 0x3E8 PUSH2 0x1CEC PUSH1 0x19 DUP5 PUSH2 0x2E14 SWAP1 SWAP2 SWAP1 PUSH4 0xFFFFFFFF AND JUMP JUMPDEST PUSH2 0x2E48 SWAP1 SWAP2 SWAP1 PUSH4 0xFFFFFFFF AND JUMP JUMPDEST PUSH1 0x21 DUP2 SWAP1 SSTORE POP PUSH2 0x1D27 PUSH1 0x64 PUSH2 0x1D19 PUSH1 0xF DUP5 PUSH2 0x2E14 SWAP1 SWAP2 SWAP1 PUSH4 0xFFFFFFFF AND JUMP JUMPDEST PUSH2 0x2E48 SWAP1 SWAP2 SWAP1 PUSH4 0xFFFFFFFF AND JUMP JUMPDEST PUSH1 0x22 DUP2 SWAP1 SSTORE POP PUSH2 0x1D56 PUSH2 0x3E8 PUSH2 0x1D48 PUSH2 0x145 DUP5 PUSH2 0x2E14 SWAP1 SWAP2 SWAP1 PUSH4 0xFFFFFFFF AND JUMP JUMPDEST PUSH2 0x2E48 SWAP1 SWAP2 SWAP1 PUSH4 0xFFFFFFFF AND JUMP JUMPDEST PUSH1 0x23 DUP2 SWAP1 SSTORE POP PUSH2 0x1D8A PUSH1 0x12 PUSH1 0x0 SWAP1 SLOAD SWAP1 PUSH2 0x100 EXP SWAP1 DIV PUSH20 0xFFFFFFFFFFFFFFFFFFFFFFFFFFFFFFFFFFFFFFFF AND PUSH1 0x1B SLOAD PUSH2 0x12DF JUMP JUMPDEST POP PUSH32 0x8470EC6072093ABFEC912969EE9FD5273EED1D3202EAC51A1FD83C236EE9BEA8 PUSH1 0x12 PUSH1 0x0 SWAP1 SLOAD SWAP1 PUSH2 0x100 EXP SWAP1 DIV PUSH20 0xFFFFFFFFFFFFFFFFFFFFFFFFFFFFFFFFFFFFFFFF AND PUSH1 0x1B SLOAD PUSH1 0x40 MLOAD DUP1 DUP1 PUSH1 0x20 ADD DUP5 PUSH20 0xFFFFFFFFFFFFFFFFFFFFFFFFFFFFFFFFFFFFFFFF AND PUSH20 0xFFFFFFFFFFFFFFFFFFFFFFFFFFFFFFFFFFFFFFFF AND DUP2 MSTORE PUSH1 0x20 ADD DUP4 DUP2 MSTORE PUSH1 0x20 ADD DUP3 DUP2 SUB DUP3 MSTORE PUSH1 0x19 DUP2 MSTORE PUSH1 0x20 ADD DUP1 PUSH32 0x6E657754616C656E7473416E64506172746E6572736869707300000000000000 DUP2 MSTORE POP PUSH1 0x20 ADD SWAP4 POP POP POP POP PUSH1 0x40 MLOAD DUP1 SWAP2 SUB SWAP1 LOG1 PUSH2 0x1E81 PUSH1 0x13 PUSH1 0x0 SWAP1 SLOAD SWAP1 PUSH2 0x100 EXP SWAP1 DIV PUSH20 0xFFFFFFFFFFFFFFFFFFFFFFFFFFFFFFFFFFFFFFFF AND PUSH1 0x1C SLOAD PUSH2 0x12DF JUMP JUMPDEST POP PUSH32 0x8470EC6072093ABFEC912969EE9FD5273EED1D3202EAC51A1FD83C236EE9BEA8 PUSH1 0x13 PUSH1 0x0 SWAP1 SLOAD SWAP1 PUSH2 0x100 EXP SWAP1 DIV PUSH20 0xFFFFFFFFFFFFFFFFFFFFFFFFFFFFFFFFFFFFFFFF AND PUSH1 0x1C SLOAD PUSH1 0x40 MLOAD DUP1 DUP1 PUSH1 0x20 ADD DUP5 PUSH20 0xFFFFFFFFFFFFFFFFFFFFFFFFFFFFFFFFFFFFFFFF AND PUSH20 0xFFFFFFFFFFFFFFFFFFFFFFFFFFFFFFFFFFFFFFFF AND DUP2 MSTORE PUSH1 0x20 ADD DUP4 DUP2 MSTORE PUSH1 0x20 ADD DUP3 DUP2 SUB DUP3 MSTORE PUSH1 0x13 DUP2 MSTORE PUSH1 0x20 ADD DUP1 PUSH32 0x706C6174666F726D4D61696E74656E616E636500000000000000000000000000 DUP2 MSTORE POP PUSH1 0x20 ADD SWAP4 POP POP POP POP PUSH1 0x40 MLOAD DUP1 SWAP2 SUB SWAP1 LOG1 PUSH2 0x1F78 PUSH1 0x14 PUSH1 0x0 SWAP1 SLOAD SWAP1 PUSH2 0x100 EXP SWAP1 DIV PUSH20 0xFFFFFFFFFFFFFFFFFFFFFFFFFFFFFFFFFFFFFFFF AND PUSH1 0x1D SLOAD PUSH2 0x12DF JUMP JUMPDEST POP PUSH32 0x8470EC6072093ABFEC912969EE9FD5273EED1D3202EAC51A1FD83C236EE9BEA8 PUSH1 0x14 PUSH1 0x0 SWAP1 SLOAD SWAP1 PUSH2 0x100 EXP SWAP1 DIV PUSH20 0xFFFFFFFFFFFFFFFFFFFFFFFFFFFFFFFFFFFFFFFF AND PUSH1 0x1D SLOAD PUSH1 0x40 MLOAD DUP1 DUP1 PUSH1 0x20 ADD DUP5 PUSH20 0xFFFFFFFFFFFFFFFFFFFFFFFFFFFFFFFFFFFFFFFF AND PUSH20 0xFFFFFFFFFFFFFFFFFFFFFFFFFFFFFFFFFFFFFFFF AND DUP2 MSTORE PUSH1 0x20 ADD DUP4 DUP2 MSTORE PUSH1 0x20 ADD DUP3 DUP2 SUB DUP3 MSTORE PUSH1 0xF DUP2 MSTORE PUSH1 0x20 ADD DUP1 PUSH32 0x6D61726B6574696E67416E64524E520000000000000000000000000000000000 DUP2 MSTORE POP PUSH1 0x20 ADD SWAP4 POP POP POP POP PUSH1 0x40 MLOAD DUP1 SWAP2 SUB SWAP1 LOG1 PUSH2 0x206F PUSH1 0x15 PUSH1 0x0 SWAP1 SLOAD SWAP1 PUSH2 0x100 EXP SWAP1 DIV PUSH20 0xFFFFFFFFFFFFFFFFFFFFFFFFFFFFFFFFFFFFFFFF AND PUSH1 0x1E SLOAD PUSH2 0x12DF JUMP JUMPDEST POP PUSH32 0x8470EC6072093ABFEC912969EE9FD5273EED1D3202EAC51A1FD83C236EE9BEA8 PUSH1 0x15 PUSH1 0x0 SWAP1 SLOAD SWAP1 PUSH2 0x100 EXP SWAP1 DIV PUSH20 0xFFFFFFFFFFFFFFFFFFFFFFFFFFFFFFFFFFFFFFFF AND PUSH1 0x1E SLOAD PUSH1 0x40 MLOAD DUP1 DUP1 PUSH1 0x20 ADD DUP5 PUSH20 0xFFFFFFFFFFFFFFFFFFFFFFFFFFFFFFFFFFFFFFFF AND PUSH20 0xFFFFFFFFFFFFFFFFFFFFFFFFFFFFFFFFFFFFFFFF AND DUP2 MSTORE PUSH1 0x20 ADD DUP4 DUP2 MSTORE PUSH1 0x20 ADD DUP3 DUP2 SUB DUP3 MSTORE PUSH1 0x7 DUP2 MSTORE PUSH1 0x20 ADD DUP1 PUSH32 0x6B6D506172647300000000000000000000000000000000000000000000000000 DUP2 MSTORE POP PUSH1 0x20 ADD SWAP4 POP POP POP POP PUSH1 0x40 MLOAD DUP1 SWAP2 SUB SWAP1 LOG1 PUSH2 0x2166 PUSH1 0x16 PUSH1 0x0 SWAP1 SLOAD SWAP1 PUSH2 0x100 EXP SWAP1 DIV PUSH20 0xFFFFFFFFFFFFFFFFFFFFFFFFFFFFFFFFFFFFFFFF AND PUSH1 0x1F SLOAD PUSH2 0x12DF JUMP JUMPDEST POP PUSH32 0x8470EC6072093ABFEC912969EE9FD5273EED1D3202EAC51A1FD83C236EE9BEA8 PUSH1 0x16 PUSH1 0x0 SWAP1 SLOAD SWAP1 PUSH2 0x100 EXP SWAP1 DIV PUSH20 0xFFFFFFFFFFFFFFFFFFFFFFFFFFFFFFFFFFFFFFFF AND PUSH1 0x1F SLOAD PUSH1 0x40 MLOAD DUP1 DUP1 PUSH1 0x20 ADD DUP5 PUSH20 0xFFFFFFFFFFFFFFFFFFFFFFFFFFFFFFFFFFFFFFFF AND PUSH20 0xFFFFFFFFFFFFFFFFFFFFFFFFFFFFFFFFFFFFFFFF AND DUP2 MSTORE PUSH1 0x20 ADD DUP4 DUP2 MSTORE PUSH1 0x20 ADD DUP3 DUP2 SUB DUP3 MSTORE PUSH1 0x10 DUP2 MSTORE PUSH1 0x20 ADD DUP1 PUSH32 0x636F6E74696E67656E637946756E647300000000000000000000000000000000 DUP2 MSTORE POP PUSH1 0x20 ADD SWAP4 POP POP POP POP PUSH1 0x40 MLOAD DUP1 SWAP2 SUB SWAP1 LOG1 PUSH2 0x225D PUSH1 0x17 PUSH1 0x0 SWAP1 SLOAD SWAP1 PUSH2 0x100 EXP SWAP1 DIV PUSH20 0xFFFFFFFFFFFFFFFFFFFFFFFFFFFFFFFFFFFFFFFF AND PUSH1 0x20 SLOAD PUSH2 0x12DF JUMP JUMPDEST POP PUSH32 0x8470EC6072093ABFEC912969EE9FD5273EED1D3202EAC51A1FD83C236EE9BEA8 PUSH1 0x17 PUSH1 0x0 SWAP1 SLOAD SWAP1 PUSH2 0x100 EXP SWAP1 DIV PUSH20 0xFFFFFFFFFFFFFFFFFFFFFFFFFFFFFFFFFFFFFFFF AND PUSH1 0x20 SLOAD PUSH1 0x40 MLOAD DUP1 DUP1 PUSH1 0x20 ADD DUP5 PUSH20 0xFFFFFFFFFFFFFFFFFFFFFFFFFFFFFFFFFFFFFFFF AND PUSH20 0xFFFFFFFFFFFFFFFFFFFFFFFFFFFFFFFFFFFFFFFF AND DUP2 MSTORE PUSH1 0x20 ADD DUP4 DUP2 MSTORE PUSH1 0x20 ADD DUP3 DUP2 SUB DUP3 MSTORE PUSH1 0x16 DUP2 MSTORE PUSH1 0x20 ADD DUP1 PUSH32 0x7265736561726368416E64446576656C6F706D656E7400000000000000000000 DUP2 MSTORE POP PUSH1 0x20 ADD SWAP4 POP POP POP POP PUSH1 0x40 MLOAD DUP1 SWAP2 SUB SWAP1 LOG1 PUSH2 0x2354 PUSH1 0x18 PUSH1 0x0 SWAP1 SLOAD SWAP1 PUSH2 0x100 EXP SWAP1 DIV PUSH20 0xFFFFFFFFFFFFFFFFFFFFFFFFFFFFFFFFFFFFFFFF AND PUSH1 0x21 SLOAD PUSH2 0x12DF JUMP JUMPDEST POP PUSH32 0x8470EC6072093ABFEC912969EE9FD5273EED1D3202EAC51A1FD83C236EE9BEA8 PUSH1 0x18 PUSH1 0x0 SWAP1 SLOAD SWAP1 PUSH2 0x100 EXP SWAP1 DIV PUSH20 0xFFFFFFFFFFFFFFFFFFFFFFFFFFFFFFFFFFFFFFFF AND PUSH1 0x21 SLOAD PUSH1 0x40 MLOAD DUP1 DUP1 PUSH1 0x20 ADD DUP5 PUSH20 0xFFFFFFFFFFFFFFFFFFFFFFFFFFFFFFFFFFFFFFFF AND PUSH20 0xFFFFFFFFFFFFFFFFFFFFFFFFFFFFFFFFFFFFFFFF AND DUP2 MSTORE PUSH1 0x20 ADD DUP4 DUP2 MSTORE PUSH1 0x20 ADD DUP3 DUP2 SUB DUP3 MSTORE PUSH1 0x8 DUP2 MSTORE PUSH1 0x20 ADD DUP1 PUSH32 0x62757A7A43616665000000000000000000000000000000000000000000000000 DUP2 MSTORE POP PUSH1 0x20 ADD SWAP4 POP POP POP POP PUSH1 0x40 MLOAD DUP1 SWAP2 SUB SWAP1 LOG1 PUSH2 0x244B PUSH1 0x1A PUSH1 0x0 SWAP1 SLOAD SWAP1 PUSH2 0x100 EXP SWAP1 DIV PUSH20 0xFFFFFFFFFFFFFFFFFFFFFFFFFFFFFFFFFFFFFFFF AND PUSH1 0x22 SLOAD PUSH2 0x12DF JUMP JUMPDEST POP PUSH32 0x8470EC6072093ABFEC912969EE9FD5273EED1D3202EAC51A1FD83C236EE9BEA8 PUSH1 0x1A PUSH1 0x0 SWAP1 SLOAD SWAP1 PUSH2 0x100 EXP SWAP1 DIV PUSH20 0xFFFFFFFFFFFFFFFFFFFFFFFFFFFFFFFFFFFFFFFF AND PUSH1 0x22 SLOAD PUSH1 0x40 MLOAD DUP1 DUP1 PUSH1 0x20 ADD DUP5 PUSH20 0xFFFFFFFFFFFFFFFFFFFFFFFFFFFFFFFFFFFFFFFF AND PUSH20 0xFFFFFFFFFFFFFFFFFFFFFFFFFFFFFFFFFFFFFFFF AND DUP2 MSTORE PUSH1 0x20 ADD DUP4 DUP2 MSTORE PUSH1 0x20 ADD DUP3 DUP2 SUB DUP3 MSTORE PUSH1 0xF DUP2 MSTORE PUSH1 0x20 ADD DUP1 PUSH32 0x7374616B696E67436F6E74726163740000000000000000000000000000000000 DUP2 MSTORE POP PUSH1 0x20 ADD SWAP4 POP POP POP POP PUSH1 0x40 MLOAD DUP1 SWAP2 SUB SWAP1 LOG1 PUSH2 0x2542 PUSH1 0x19 PUSH1 0x0 SWAP1 SLOAD SWAP1 PUSH2 0x100 EXP SWAP1 DIV PUSH20 0xFFFFFFFFFFFFFFFFFFFFFFFFFFFFFFFFFFFFFFFF AND PUSH1 0x23 SLOAD PUSH2 0x12DF JUMP JUMPDEST POP PUSH32 0x8470EC6072093ABFEC912969EE9FD5273EED1D3202EAC51A1FD83C236EE9BEA8 PUSH1 0x19 PUSH1 0x0 SWAP1 SLOAD SWAP1 PUSH2 0x100 EXP SWAP1 DIV PUSH20 0xFFFFFFFFFFFFFFFFFFFFFFFFFFFFFFFFFFFFFFFF AND PUSH1 0x23 SLOAD PUSH1 0x40 MLOAD DUP1 DUP1 PUSH1 0x20 ADD DUP5 PUSH20 0xFFFFFFFFFFFFFFFFFFFFFFFFFFFFFFFFFFFFFFFF AND PUSH20 0xFFFFFFFFFFFFFFFFFFFFFFFFFFFFFFFFFFFFFFFF AND DUP2 MSTORE PUSH1 0x20 ADD DUP4 DUP2 MSTORE PUSH1 0x20 ADD DUP3 DUP2 SUB DUP3 MSTORE PUSH1 0xC DUP2 MSTORE PUSH1 0x20 ADD DUP1 PUSH32 0x74696D6553776170706572730000000000000000000000000000000000000000 DUP2 MSTORE POP PUSH1 0x20 ADD SWAP4 POP POP POP POP PUSH1 0x40 MLOAD DUP1 SWAP2 SUB SWAP1 LOG1 PUSH32 0x31A2C82874744C38FA6D0D7BACB6FF098DE6C1ECC98899F39F5B9EA32108765B DUP2 PUSH1 0x40 MLOAD DUP1 DUP3 DUP2 MSTORE PUSH1 0x20 ADD SWAP2 POP POP PUSH1 0x40 MLOAD DUP1 SWAP2 SUB SWAP1 LOG1 PUSH1 0x0 PUSH1 0x10 DUP2 SWAP1 SSTORE POP PUSH2 0x2662 PUSH3 0x278D00 PUSH1 0xC SLOAD PUSH2 0x2A62 SWAP1 SWAP2 SWAP1 PUSH4 0xFFFFFFFF AND JUMP JUMPDEST PUSH1 0xC DUP2 SWAP1 SSTORE POP PUSH2 0x2670 PUSH2 0x2E5C JUMP JUMPDEST POP PUSH32 0x6EF4855B666DCC7884561072E4358B28DFE01FEB1B7F4DCEBC00E62D50394AC7 PUSH1 0x11 SLOAD PUSH1 0x40 MLOAD DUP1 DUP3 DUP2 MSTORE PUSH1 0x20 ADD SWAP2 POP POP PUSH1 0x40 MLOAD DUP1 SWAP2 SUB SWAP1 LOG1 PUSH1 0xB PUSH1 0xF SLOAD EQ ISZERO PUSH2 0x270D JUMPI PUSH1 0x0 PUSH1 0xF DUP2 SWAP1 SSTORE POP PUSH2 0x26E6 PUSH1 0xA PUSH2 0x26D8 PUSH1 0x9 PUSH1 0xE SLOAD PUSH2 0x2E14 SWAP1 SWAP2 SWAP1 PUSH4 0xFFFFFFFF AND JUMP JUMPDEST PUSH2 0x2E48 SWAP1 SWAP2 SWAP1 PUSH4 0xFFFFFFFF AND JUMP JUMPDEST PUSH1 0xE DUP2 SWAP1 SSTORE POP PUSH2 0x2702 PUSH1 0xC PUSH1 0xD SLOAD PUSH2 0x2E48 SWAP1 SWAP2 SWAP1 PUSH4 0xFFFFFFFF AND JUMP JUMPDEST PUSH1 0xD DUP2 SWAP1 SSTORE POP PUSH2 0x272A JUMP JUMPDEST PUSH2 0x2723 PUSH1 0x1 PUSH1 0xF SLOAD PUSH2 0x2A62 SWAP1 SWAP2 SWAP1 PUSH4 0xFFFFFFFF AND JUMP JUMPDEST PUSH1 0xF DUP2 SWAP1 SSTORE POP JUMPDEST PUSH1 0x1 SWAP2 POP POP SWAP1 JUMP JUMPDEST PUSH1 0x1C SLOAD DUP2 JUMP JUMPDEST PUSH1 0xD SLOAD DUP2 JUMP JUMPDEST PUSH1 0x23 SLOAD DUP2 JUMP JUMPDEST PUSH1 0x10 SLOAD DUP2 JUMP JUMPDEST PUSH1 0x22 SLOAD DUP2 JUMP JUMPDEST PUSH1 0x1D SLOAD DUP2 JUMP JUMPDEST PUSH1 0x0 PUSH2 0x27E7 DUP3 PUSH1 0x5 PUSH1 0x0 CALLER PUSH20 0xFFFFFFFFFFFFFFFFFFFFFFFFFFFFFFFFFFFFFFFF AND PUSH20 0xFFFFFFFFFFFFFFFFFFFFFFFFFFFFFFFFFFFFFFFF AND DUP2 MSTORE PUSH1 0x20 ADD SWAP1 DUP2 MSTORE PUSH1 0x20 ADD PUSH1 0x0 KECCAK256 PUSH1 0x0 DUP7 PUSH20 0xFFFFFFFFFFFFFFFFFFFFFFFFFFFFFFFFFFFFFFFF AND PUSH20 0xFFFFFFFFFFFFFFFFFFFFFFFFFFFFFFFFFFFFFFFF AND DUP2 MSTORE PUSH1 0x20 ADD SWAP1 DUP2 MSTORE PUSH1 0x20 ADD PUSH1 0x0 KECCAK256 SLOAD PUSH2 0x2A62 SWAP1 SWAP2 SWAP1 PUSH4 0xFFFFFFFF AND JUMP JUMPDEST PUSH1 0x5 PUSH1 0x0 CALLER PUSH20 0xFFFFFFFFFFFFFFFFFFFFFFFFFFFFFFFFFFFFFFFF AND PUSH20 0xFFFFFFFFFFFFFFFFFFFFFFFFFFFFFFFFFFFFFFFF AND DUP2 MSTORE PUSH1 0x20 ADD SWAP1 DUP2 MSTORE PUSH1 0x20 ADD PUSH1 0x0 KECCAK256 PUSH1 0x0 DUP6 PUSH20 0xFFFFFFFFFFFFFFFFFFFFFFFFFFFFFFFFFFFFFFFF AND PUSH20 0xFFFFFFFFFFFFFFFFFFFFFFFFFFFFFFFFFFFFFFFF AND DUP2 MSTORE PUSH1 0x20 ADD SWAP1 DUP2 MSTORE PUSH1 0x20 ADD PUSH1 0x0 KECCAK256 DUP2 SWAP1 SSTORE POP DUP3 PUSH20 0xFFFFFFFFFFFFFFFFFFFFFFFFFFFFFFFFFFFFFFFF AND CALLER PUSH20 0xFFFFFFFFFFFFFFFFFFFFFFFFFFFFFFFFFFFFFFFF AND PUSH32 0x8C5BE1E5EBEC7D5BD14F71427D1E84F3DD0314C0F7B2291E5B200AC8C7C3B925 PUSH1 0x5 PUSH1 0x0 CALLER PUSH20 0xFFFFFFFFFFFFFFFFFFFFFFFFFFFFFFFFFFFFFFFF AND PUSH20 0xFFFFFFFFFFFFFFFFFFFFFFFFFFFFFFFFFFFFFFFF AND DUP2 MSTORE PUSH1 0x20 ADD SWAP1 DUP2 MSTORE PUSH1 0x20 ADD PUSH1 0x0 KECCAK256 PUSH1 0x0 DUP8 PUSH20 0xFFFFFFFFFFFFFFFFFFFFFFFFFFFFFFFFFFFFFFFF AND PUSH20 0xFFFFFFFFFFFFFFFFFFFFFFFFFFFFFFFFFFFFFFFF AND DUP2 MSTORE PUSH1 0x20 ADD SWAP1 DUP2 MSTORE PUSH1 0x20 ADD PUSH1 0x0 KECCAK256 SLOAD PUSH1 0x40 MLOAD DUP1 DUP3 DUP2 MSTORE PUSH1 0x20 ADD SWAP2 POP POP PUSH1 0x40 MLOAD DUP1 SWAP2 SUB SWAP1 LOG3 PUSH1 0x1 SWAP1 POP SWAP3 SWAP2 POP POP JUMP JUMPDEST PUSH1 0x21 SLOAD DUP2 JUMP JUMPDEST PUSH1 0x0 PUSH1 0x5 PUSH1 0x0 DUP5 PUSH20 0xFFFFFFFFFFFFFFFFFFFFFFFFFFFFFFFFFFFFFFFF AND PUSH20 0xFFFFFFFFFFFFFFFFFFFFFFFFFFFFFFFFFFFFFFFF AND DUP2 MSTORE PUSH1 0x20 ADD SWAP1 DUP2 MSTORE PUSH1 0x20 ADD PUSH1 0x0 KECCAK256 PUSH1 0x0 DUP4 PUSH20 0xFFFFFFFFFFFFFFFFFFFFFFFFFFFFFFFFFFFFFFFF AND PUSH20 0xFFFFFFFFFFFFFFFFFFFFFFFFFFFFFFFFFFFFFFFF AND DUP2 MSTORE PUSH1 0x20 ADD SWAP1 DUP2 MSTORE PUSH1 0x20 ADD PUSH1 0x0 KECCAK256 SLOAD SWAP1 POP SWAP3 SWAP2 POP POP JUMP JUMPDEST PUSH1 0x1B SLOAD DUP2 JUMP JUMPDEST PUSH1 0x6 PUSH1 0x0 SWAP1 SLOAD SWAP1 PUSH2 0x100 EXP SWAP1 DIV PUSH20 0xFFFFFFFFFFFFFFFFFFFFFFFFFFFFFFFFFFFFFFFF AND PUSH20 0xFFFFFFFFFFFFFFFFFFFFFFFFFFFFFFFFFFFFFFFF AND CALLER PUSH20 0xFFFFFFFFFFFFFFFFFFFFFFFFFFFFFFFFFFFFFFFF AND EQ PUSH2 0x2A3F JUMPI PUSH1 0x0 DUP1 REVERT JUMPDEST PUSH2 0x2A48 DUP2 PUSH2 0x2EF2 JUMP JUMPDEST POP JUMP JUMPDEST PUSH1 0x0 DUP3 DUP3 GT ISZERO PUSH2 0x2A57 JUMPI INVALID JUMPDEST DUP2 DUP4 SUB SWAP1 POP SWAP3 SWAP2 POP POP JUMP JUMPDEST PUSH1 0x0 DUP2 DUP4 ADD SWAP1 POP DUP3 DUP2 LT ISZERO PUSH2 0x2A73 JUMPI INVALID JUMPDEST DUP1 SWAP1 POP SWAP3 SWAP2 POP POP JUMP JUMPDEST PUSH1 0x0 PUSH1 0x6 PUSH1 0x0 SWAP1 SLOAD SWAP1 PUSH2 0x100 EXP SWAP1 DIV PUSH20 0xFFFFFFFFFFFFFFFFFFFFFFFFFFFFFFFFFFFFFFFF AND PUSH20 0xFFFFFFFFFFFFFFFFFFFFFFFFFFFFFFFFFFFFFFFF AND CALLER PUSH20 0xFFFFFFFFFFFFFFFFFFFFFFFFFFFFFFFFFFFFFFFF AND EQ PUSH2 0x2AD8 JUMPI PUSH1 0x0 DUP1 REVERT JUMPDEST PUSH1 0x6 PUSH1 0x14 SWAP1 SLOAD SWAP1 PUSH2 0x100 EXP SWAP1 DIV PUSH1 0xFF AND ISZERO PUSH2 0x2AF2 JUMPI PUSH1 0x0 DUP1 REVERT JUMPDEST PUSH2 0x2B07 DUP3 PUSH1 0x4 SLOAD PUSH2 0x2A62 SWAP1 SWAP2 SWAP1 PUSH4 0xFFFFFFFF AND JUMP JUMPDEST PUSH1 0x4 DUP2 SWAP1 SSTORE POP PUSH2 0x2B5F DUP3 PUSH1 0x3 PUSH1 0x0 DUP7 PUSH20 0xFFFFFFFFFFFFFFFFFFFFFFFFFFFFFFFFFFFFFFFF AND PUSH20 0xFFFFFFFFFFFFFFFFFFFFFFFFFFFFFFFFFFFFFFFF AND DUP2 MSTORE PUSH1 0x20 ADD SWAP1 DUP2 MSTORE PUSH1 0x20 ADD PUSH1 0x0 KECCAK256 SLOAD PUSH2 0x2A62 SWAP1 SWAP2 SWAP1 PUSH4 0xFFFFFFFF AND JUMP JUMPDEST PUSH1 0x3 PUSH1 0x0 DUP6 PUSH20 0xFFFFFFFFFFFFFFFFFFFFFFFFFFFFFFFFFFFFFFFF AND PUSH20 0xFFFFFFFFFFFFFFFFFFFFFFFFFFFFFFFFFFFFFFFF AND DUP2 MSTORE PUSH1 0x20 ADD SWAP1 DUP2 MSTORE PUSH1 0x20 ADD PUSH1 0x0 KECCAK256 DUP2 SWAP1 SSTORE POP DUP3 PUSH20 0xFFFFFFFFFFFFFFFFFFFFFFFFFFFFFFFFFFFFFFFF AND PUSH32 0xF6798A560793A54C3BCFE86A93CDE1E73087D944C0EA20544137D4121396885 DUP4 PUSH1 0x40 MLOAD DUP1 DUP3 DUP2 MSTORE PUSH1 0x20 ADD SWAP2 POP POP PUSH1 0x40 MLOAD DUP1 SWAP2 SUB SWAP1 LOG2 DUP3 PUSH20 0xFFFFFFFFFFFFFFFFFFFFFFFFFFFFFFFFFFFFFFFF AND PUSH1 0x0 PUSH20 0xFFFFFFFFFFFFFFFFFFFFFFFFFFFFFFFFFFFFFFFF AND PUSH32 0xDDF252AD1BE2C89B69C2B068FC378DAA952BA7F163C4A11628F55A4DF523B3EF DUP5 PUSH1 0x40 MLOAD DUP1 DUP3 DUP2 MSTORE PUSH1 0x20 ADD SWAP2 POP POP PUSH1 0x40 MLOAD DUP1 SWAP2 SUB SWAP1 LOG3 PUSH1 0x1 SWAP1 POP SWAP3 SWAP2 POP POP JUMP JUMPDEST PUSH1 0x3 PUSH1 0x0 DUP4 PUSH20 0xFFFFFFFFFFFFFFFFFFFFFFFFFFFFFFFFFFFFFFFF AND PUSH20 0xFFFFFFFFFFFFFFFFFFFFFFFFFFFFFFFFFFFFFFFF AND DUP2 MSTORE PUSH1 0x20 ADD SWAP1 DUP2 MSTORE PUSH1 0x20 ADD PUSH1 0x0 KECCAK256 SLOAD DUP2 GT ISZERO PUSH2 0x2CAC JUMPI PUSH1 0x0 DUP1 REVERT JUMPDEST PUSH2 0x2CFE DUP2 PUSH1 0x3 PUSH1 0x0 DUP6 PUSH20 0xFFFFFFFFFFFFFFFFFFFFFFFFFFFFFFFFFFFFFFFF AND PUSH20 0xFFFFFFFFFFFFFFFFFFFFFFFFFFFFFFFFFFFFFFFF AND DUP2 MSTORE PUSH1 0x20 ADD SWAP1 DUP2 MSTORE PUSH1 0x20 ADD PUSH1 0x0 KECCAK256 SLOAD PUSH2 0x2A4B SWAP1 SWAP2 SWAP1 PUSH4 0xFFFFFFFF AND JUMP JUMPDEST PUSH1 0x3 PUSH1 0x0 DUP5 PUSH20 0xFFFFFFFFFFFFFFFFFFFFFFFFFFFFFFFFFFFFFFFF AND PUSH20 0xFFFFFFFFFFFFFFFFFFFFFFFFFFFFFFFFFFFFFFFF AND DUP2 MSTORE PUSH1 0x20 ADD SWAP1 DUP2 MSTORE PUSH1 0x20 ADD PUSH1 0x0 KECCAK256 DUP2 SWAP1 SSTORE POP PUSH2 0x2D56 DUP2 PUSH1 0x4 SLOAD PUSH2 0x2A4B SWAP1 SWAP2 SWAP1 PUSH4 0xFFFFFFFF AND JUMP JUMPDEST PUSH1 0x4 DUP2 SWAP1 SSTORE POP DUP2 PUSH20 0xFFFFFFFFFFFFFFFFFFFFFFFFFFFFFFFFFFFFFFFF AND PUSH32 0xCC16F5DBB4873280815C1EE09DBD06736CFFCC184412CF7A71A0FDB75D397CA5 DUP3 PUSH1 0x40 MLOAD DUP1 DUP3 DUP2 MSTORE PUSH1 0x20 ADD SWAP2 POP POP PUSH1 0x40 MLOAD DUP1 SWAP2 SUB SWAP1 LOG2 PUSH1 0x0 PUSH20 0xFFFFFFFFFFFFFFFFFFFFFFFFFFFFFFFFFFFFFFFF AND DUP3 PUSH20 0xFFFFFFFFFFFFFFFFFFFFFFFFFFFFFFFFFFFFFFFF AND PUSH32 0xDDF252AD1BE2C89B69C2B068FC378DAA952BA7F163C4A11628F55A4DF523B3EF DUP4 PUSH1 0x40 MLOAD DUP1 DUP3 DUP2 MSTORE PUSH1 0x20 ADD SWAP2 POP POP PUSH1 0x40 MLOAD DUP1 SWAP2 SUB SWAP1 LOG3 POP POP JUMP JUMPDEST PUSH1 0x0 DUP1 DUP4 EQ ISZERO PUSH2 0x2E27 JUMPI PUSH1 0x0 SWAP1 POP PUSH2 0x2E42 JUMP JUMPDEST DUP2 DUP4 MUL SWAP1 POP DUP2 DUP4 DUP3 DUP2 PUSH2 0x2E36 JUMPI INVALID JUMPDEST DIV EQ PUSH2 0x2E3E JUMPI INVALID JUMPDEST DUP1 SWAP1 POP JUMPDEST SWAP3 SWAP2 POP POP JUMP JUMPDEST PUSH1 0x0 DUP2 DUP4 DUP2 PUSH2 0x2E53 JUMPI INVALID JUMPDEST DIV SWAP1 POP SWAP3 SWAP2 POP POP JUMP JUMPDEST PUSH1 0x0 DUP1 PUSH1 0x11 SLOAD EQ ISZERO PUSH2 0x2E71 JUMPI PUSH1 0x1 SWAP1 POP PUSH2 0x2EEF JUMP JUMPDEST PUSH1 0x0 PUSH2 0x2EA1 PUSH1 0x64 PUSH2 0x2E93 PUSH1 0x2 PUSH2 0x2E85 PUSH2 0xE84 JUMP JUMPDEST PUSH2 0x2E14 SWAP1 SWAP2 SWAP1 PUSH4 0xFFFFFFFF AND JUMP JUMPDEST PUSH2 0x2E48 SWAP1 SWAP2 SWAP1 PUSH4 0xFFFFFFFF AND JUMP JUMPDEST SWAP1 POP PUSH1 0x11 SLOAD DUP2 LT PUSH2 0x2EC4 JUMPI PUSH2 0x2EB7 PUSH1 0x11 SLOAD PUSH2 0x1316 JUMP JUMPDEST PUSH1 0x0 PUSH1 0x11 DUP2 SWAP1 SSTORE POP PUSH2 0x2EE9 JUMP JUMPDEST PUSH2 0x2ED9 DUP2 PUSH1 0x11 SLOAD PUSH2 0x2A4B SWAP1 SWAP2 SWAP1 PUSH4 0xFFFFFFFF AND JUMP JUMPDEST PUSH1 0x11 DUP2 SWAP1 SSTORE POP PUSH2 0x2EE8 DUP2 PUSH2 0x1316 JUMP JUMPDEST JUMPDEST PUSH1 0x1 SWAP2 POP POP JUMPDEST SWAP1 JUMP JUMPDEST PUSH1 0x0 PUSH20 0xFFFFFFFFFFFFFFFFFFFFFFFFFFFFFFFFFFFFFFFF AND DUP2 PUSH20 0xFFFFFFFFFFFFFFFFFFFFFFFFFFFFFFFFFFFFFFFF AND EQ ISZERO PUSH2 0x2F2C JUMPI PUSH1 0x0 DUP1 REVERT JUMPDEST DUP1 PUSH20 0xFFFFFFFFFFFFFFFFFFFFFFFFFFFFFFFFFFFFFFFF AND PUSH1 0x6 PUSH1 0x0 SWAP1 SLOAD SWAP1 PUSH2 0x100 EXP SWAP1 DIV PUSH20 0xFFFFFFFFFFFFFFFFFFFFFFFFFFFFFFFFFFFFFFFF AND PUSH20 0xFFFFFFFFFFFFFFFFFFFFFFFFFFFFFFFFFFFFFFFF AND PUSH32 0x8BE0079C531659141344CD1FD0A4F28419497F9722A3DAAFE3B4186F6B6457E0 PUSH1 0x40 MLOAD PUSH1 0x40 MLOAD DUP1 SWAP2 SUB SWAP1 LOG3 DUP1 PUSH1 0x6 PUSH1 0x0 PUSH2 0x100 EXP DUP2 SLOAD DUP2 PUSH20 0xFFFFFFFFFFFFFFFFFFFFFFFFFFFFFFFFFFFFFFFF MUL NOT AND SWAP1 DUP4 PUSH20 0xFFFFFFFFFFFFFFFFFFFFFFFFFFFFFFFFFFFFFFFF AND MUL OR SWAP1 SSTORE POP POP JUMP INVALID LOG2 PUSH6 0x627A7A723158 KECCAK256 SWAP15 DUP5 0x29 DUP1 0xb7 PUSH18 0xF000B2F719983760FA764FF278DDCFAD7DB1 SWAP4 0xd 0xe6 SWAP3 PUSH28 0x135A4564736F6C634300050C00320000000000000000000000000000 "},"gasEstimates":{"creation":{"codeDepositCost":"2464200","executionCost":"infinite","totalCost":"infinite"},"external":{"AnnualNRTAmount()":"450","LastNRTRelease()":"451","MonthCount()":"473","MonthlyNRTAmount()":"472","MonthlyNRTRelease()":"infinite","TimeAlly()":"609","TimeAllyNRT()":"538","allowance(address,address)":"831","approve(address,uint256)":"22459","balanceOf(address)":"664","burn(uint256)":"infinite","burnTokenBal()":"539","buzzCafe()":"586","buzzCafeNRT()":"493","cap()":"539","contingencyFunds()":"566","contingencyFundsBal()":"516","decimals()":"565","decreaseApproval(address,uint256)":"infinite","finishMinting()":"22029","increaseApproval(address,uint256)":"infinite","kmPards()":"586","kmPardsBal()":"495","luckPoolBal()":"516","marketingAndRNR()":"520","marketingAndRNRBal()":"449","mint(address,uint256)":"infinite","mintingFinished()":"550","name()":"infinite","newTalentsAndPartnerships()":"521","newTalentsAndPartnershipsBal()":"537","owner()":"498","platformMaintenance()":"499","platformMaintenanceBal()":"450","renounceOwnership()":"22168","researchAndDevelopment()":"542","researchAndDevelopmentBal()":"517","symbol()":"infinite","timeSwappers()":"542","timeSwappersNRT()":"494","totalSupply()":"548","transfer(address,uint256)":"infinite","transferFrom(address,address,uint256)":"infinite","transferOwnership(address)":"22773"},"internal":{"burnTokens()":"infinite"}},"methodIdentifiers":{"AnnualNRTAmount()":"4f0e8140","LastNRTRelease()":"6c6a0609","MonthCount()":"3e249c0e","MonthlyNRTAmount()":"bec074dc","MonthlyNRTRelease()":"b018abbd","TimeAlly()":"37bfea18","TimeAllyNRT()":"c6b2c536","allowance(address,address)":"dd62ed3e","approve(address,uint256)":"095ea7b3","balanceOf(address)":"70a08231","burn(uint256)":"42966c68","burnTokenBal()":"4a4581aa","buzzCafe()":"a9e817a9","buzzCafeNRT()":"db2f2cb5","cap()":"355274ea","contingencyFunds()":"0b3e29b8","contingencyFundsBal()":"5f7ce89f","decimals()":"313ce567","decreaseApproval(address,uint256)":"66188463","finishMinting()":"7d64bcb4","increaseApproval(address,uint256)":"d73dd623","kmPards()":"65c00470","kmPardsBal()":"2cfceb07","luckPoolBal()":"c3348a8b","marketingAndRNR()":"51bd70b1","marketingAndRNRBal()":"d37eb950","mint(address,uint256)":"40c10f19","mintingFinished()":"05d2035b","name()":"06fdde03","newTalentsAndPartnerships()":"26b3bf2f","newTalentsAndPartnershipsBal()":"e71a3bfd","owner()":"8da5cb5b","platformMaintenance()":"3a18a9fd","platformMaintenanceBal()":"bd27d361","renounceOwnership()":"715018a6","researchAndDevelopment()":"5c12278d","researchAndDevelopmentBal()":"7d53257a","symbol()":"95d89b41","timeSwappers()":"9cd417de","timeSwappersNRT()":"bfb3d6c8","totalSupply()":"18160ddd","transfer(address,uint256)":"a9059cbb","transferFrom(address,address,uint256)":"23b872dd","transferOwnership(address)":"f2fde38b"}},"userdoc":{"methods":{"renounceOwnership()":{"notice":"Renouncing to ownership will leave the contract without an owner. It will not be possible to call the functions with the `onlyOwner` modifier anymore."}}}}