{"abi":[{"inputs":[{"internalType":"contract ERC20","name":"_token","type":"address"}],"payable":false,"stateMutability":"nonpayable","type":"constructor"},{"anonymous":false,"inputs":[{"indexed":true,"internalType":"address","name":"_staker","type":"address"},{"indexed":true,"internalType":"uint256","name":"_sipId","type":"uint256"},{"indexed":true,"internalType":"address","name":"_appointeeAddress","type":"address"},{"indexed":false,"internalType":"bool","name":"_appointeeStatus","type":"bool"}],"name":"AppointeeUpdated","type":"event"},{"anonymous":false,"inputs":[{"indexed":true,"internalType":"address","name":"_staker","type":"address"},{"indexed":true,"internalType":"uint256","name":"_sipId","type":"uint256"},{"indexed":true,"internalType":"address","name":"_appointeeAddress","type":"address"}],"name":"AppointeeVoted","type":"event"},{"anonymous":false,"inputs":[{"indexed":true,"internalType":"address","name":"_staker","type":"address"},{"indexed":true,"internalType":"uint256","name":"_sipId","type":"uint256"},{"indexed":false,"internalType":"uint256","name":"_fromMonthId","type":"uint256"},{"indexed":false,"internalType":"uint256","name":"_toMonthId","type":"uint256"},{"indexed":false,"internalType":"uint256","name":"_withdrawlAmount","type":"uint256"},{"indexed":false,"internalType":"address","name":"_withdrawnBy","type":"address"}],"name":"BenefitWithdrawl","type":"event"},{"anonymous":false,"inputs":[{"indexed":false,"internalType":"uint256","name":"_depositAmount","type":"uint256"}],"name":"FundsDeposited","type":"event"},{"anonymous":false,"inputs":[{"indexed":false,"internalType":"uint256","name":"_withdrawlAmount","type":"uint256"}],"name":"FundsWithdrawn","type":"event"},{"anonymous":false,"inputs":[{"indexed":true,"internalType":"address","name":"_staker","type":"address"},{"indexed":true,"internalType":"uint256","name":"_sipId","type":"uint256"},{"indexed":false,"internalType":"uint256","name":"_monthId","type":"uint256"},{"indexed":false,"internalType":"uint256","name":"_depositAmount","type":"uint256"},{"indexed":false,"internalType":"uint256","name":"_benefitQueued","type":"uint256"},{"indexed":false,"internalType":"address","name":"_depositedBy","type":"address"}],"name":"NewDeposit","type":"event"},{"anonymous":false,"inputs":[{"indexed":true,"internalType":"address","name":"_staker","type":"address"},{"indexed":false,"internalType":"uint256","name":"_sipId","type":"uint256"},{"indexed":false,"internalType":"uint256","name":"_monthlyCommitmentAmount","type":"uint256"}],"name":"NewSIP","type":"event"},{"anonymous":false,"inputs":[{"indexed":true,"internalType":"address","name":"_staker","type":"address"},{"indexed":true,"internalType":"uint256","name":"_sipId","type":"uint256"},{"indexed":true,"internalType":"address","name":"_nomineeAddress","type":"address"},{"indexed":false,"internalType":"bool","name":"_nomineeStatus","type":"bool"}],"name":"NomineeUpdated","type":"event"},{"anonymous":false,"inputs":[{"indexed":true,"internalType":"address","name":"_staker","type":"address"},{"indexed":true,"internalType":"uint256","name":"_sipId","type":"uint256"},{"indexed":false,"internalType":"uint256","name":"_boosterSerial","type":"uint256"},{"indexed":false,"internalType":"uint256","name":"_withdrawlAmount","type":"uint256"},{"indexed":false,"internalType":"address","name":"_withdrawnBy","type":"address"}],"name":"PowerBoosterWithdrawl","type":"event"},{"constant":true,"inputs":[],"name":"EARTH_SECONDS_IN_MONTH","outputs":[{"internalType":"uint256","name":"","type":"uint256"}],"payable":false,"stateMutability":"view","type":"function"},{"constant":false,"inputs":[{"internalType":"uint256","name":"_depositAmount","type":"uint256"}],"name":"addFunds","outputs":[],"payable":false,"stateMutability":"nonpayable","type":"function"},{"constant":false,"inputs":[{"internalType":"address","name":"_stakerAddress","type":"address"},{"internalType":"uint256","name":"_sipId","type":"uint256"}],"name":"appointeeVote","outputs":[],"payable":false,"stateMutability":"nonpayable","type":"function"},{"constant":false,"inputs":[{"internalType":"uint256","name":"_minimumMonthlyCommitmentAmount","type":"uint256"},{"internalType":"uint256","name":"_accumulationPeriodMonths","type":"uint256"},{"internalType":"uint256","name":"_benefitPeriodYears","type":"uint256"},{"internalType":"uint256","name":"_gracePeriodSeconds","type":"uint256"},{"internalType":"uint256","name":"_monthlyBenefitFactor","type":"uint256"},{"internalType":"uint256","name":"_gracePenaltyFactor","type":"uint256"},{"internalType":"uint256","name":"_defaultPenaltyFactor","type":"uint256"}],"name":"createSIPPlan","outputs":[],"payable":false,"stateMutability":"nonpayable","type":"function"},{"constant":true,"inputs":[],"name":"fundsDeposit","outputs":[{"internalType":"uint256","name":"","type":"uint256"}],"payable":false,"stateMutability":"view","type":"function"},{"constant":true,"inputs":[{"internalType":"address","name":"_stakerAddress","type":"address"},{"internalType":"uint256","name":"_sipId","type":"uint256"},{"internalType":"uint256","name":"_monthId","type":"uint256"}],"name":"getDepositDoneStatus","outputs":[{"internalType":"uint256","name":"","type":"uint256"}],"payable":false,"stateMutability":"view","type":"function"},{"constant":true,"inputs":[{"internalType":"address","name":"_stakerAddress","type":"address"},{"internalType":"uint256","name":"_sipId","type":"uint256"},{"internalType":"uint256","name":"_monthId","type":"uint256"}],"name":"getDepositStatus","outputs":[{"internalType":"uint256","name":"","type":"uint256"}],"payable":false,"stateMutability":"view","type":"function"},{"constant":true,"inputs":[{"internalType":"address","name":"_stakerAddress","type":"address"},{"internalType":"uint256","name":"_sipId","type":"uint256"},{"internalType":"uint256","name":"_withdrawlMonthId","type":"uint256"},{"internalType":"bool","name":"_isNomineeWithdrawing","type":"bool"}],"name":"getPendingWithdrawlAmount","outputs":[{"internalType":"uint256","name":"","type":"uint256"}],"payable":false,"stateMutability":"view","type":"function"},{"constant":false,"inputs":[{"internalType":"address","name":"_stakerAddress","type":"address"},{"internalType":"uint256","name":"_sipId","type":"uint256"},{"internalType":"uint256","name":"_depositAmount","type":"uint256"},{"internalType":"uint256","name":"_monthId","type":"uint256"}],"name":"monthlyDeposit","outputs":[],"payable":false,"stateMutability":"nonpayable","type":"function"},{"constant":false,"inputs":[{"internalType":"uint256","name":"_planId","type":"uint256"},{"internalType":"uint256","name":"_monthlyCommitmentAmount","type":"uint256"}],"name":"newSIP","outputs":[],"payable":false,"stateMutability":"nonpayable","type":"function"},{"constant":true,"inputs":[],"name":"owner","outputs":[{"internalType":"address","name":"","type":"address"}],"payable":false,"stateMutability":"view","type":"function"},{"constant":true,"inputs":[],"name":"pendingBenefitAmountOfAllStakers","outputs":[{"internalType":"uint256","name":"","type":"uint256"}],"payable":false,"stateMutability":"view","type":"function"},{"constant":true,"inputs":[{"internalType":"uint256","name":"","type":"uint256"}],"name":"sipPlans","outputs":[{"internalType":"bool","name":"isPlanActive","type":"bool"},{"internalType":"uint256","name":"minimumMonthlyCommitmentAmount","type":"uint256"},{"internalType":"uint256","name":"accumulationPeriodMonths","type":"uint256"},{"internalType":"uint256","name":"benefitPeriodYears","type":"uint256"},{"internalType":"uint256","name":"gracePeriodSeconds","type":"uint256"},{"internalType":"uint256","name":"monthlyBenefitFactor","type":"uint256"},{"internalType":"uint256","name":"gracePenaltyFactor","type":"uint256"},{"internalType":"uint256","name":"defaultPenaltyFactor","type":"uint256"}],"payable":false,"stateMutability":"view","type":"function"},{"constant":true,"inputs":[{"internalType":"address","name":"","type":"address"},{"internalType":"uint256","name":"","type":"uint256"}],"name":"sips","outputs":[{"internalType":"uint256","name":"planId","type":"uint256"},{"internalType":"uint256","name":"stakingTimestamp","type":"uint256"},{"internalType":"uint256","name":"monthlyCommitmentAmount","type":"uint256"},{"internalType":"uint256","name":"totalDeposited","type":"uint256"},{"internalType":"uint256","name":"lastWithdrawlMonthId","type":"uint256"},{"internalType":"uint256","name":"powerBoosterWithdrawls","type":"uint256"},{"internalType":"uint256","name":"numberOfAppointees","type":"uint256"},{"internalType":"uint256","name":"appointeeVotes","type":"uint256"}],"payable":false,"stateMutability":"view","type":"function"},{"constant":true,"inputs":[],"name":"token","outputs":[{"internalType":"contract ERC20","name":"","type":"address"}],"payable":false,"stateMutability":"view","type":"function"},{"constant":false,"inputs":[{"internalType":"uint256","name":"_sipId","type":"uint256"},{"internalType":"address","name":"_appointeeAddress","type":"address"},{"internalType":"bool","name":"_newAppointeeStatus","type":"bool"}],"name":"toogleAppointee","outputs":[],"payable":false,"stateMutability":"nonpayable","type":"function"},{"constant":false,"inputs":[{"internalType":"uint256","name":"_sipId","type":"uint256"},{"internalType":"address","name":"_nomineeAddress","type":"address"},{"internalType":"bool","name":"_newNomineeStatus","type":"bool"}],"name":"toogleNominee","outputs":[],"payable":false,"stateMutability":"nonpayable","type":"function"},{"constant":false,"inputs":[{"internalType":"uint256","name":"_planId","type":"uint256"},{"internalType":"bool","name":"_newStatus","type":"bool"}],"name":"updatePlanStatus","outputs":[],"payable":false,"stateMutability":"nonpayable","type":"function"},{"constant":true,"inputs":[{"internalType":"address","name":"_stakerAddress","type":"address"},{"internalType":"uint256","name":"_sipId","type":"uint256"},{"internalType":"address","name":"_appointeeAddress","type":"address"}],"name":"viewAppointation","outputs":[{"internalType":"bool","name":"","type":"bool"}],"payable":false,"stateMutability":"view","type":"function"},{"constant":true,"inputs":[{"internalType":"address","name":"_stakerAddress","type":"address"},{"internalType":"uint256","name":"_sipId","type":"uint256"},{"internalType":"address","name":"_nomineeAddress","type":"address"}],"name":"viewNomination","outputs":[{"internalType":"bool","name":"","type":"bool"}],"payable":false,"stateMutability":"view","type":"function"},{"constant":false,"inputs":[{"internalType":"address","name":"_stakerAddress","type":"address"},{"internalType":"uint256","name":"_sipId","type":"uint256"},{"internalType":"uint256","name":"_withdrawlmonthId","type":"uint256"}],"name":"withdrawBenefit","outputs":[],"payable":false,"stateMutability":"nonpayable","type":"function"},{"constant":false,"inputs":[{"internalType":"uint256","name":"_withdrawlAmount","type":"uint256"}],"name":"withdrawFunds","outputs":[],"payable":false,"stateMutability":"nonpayable","type":"function"},{"constant":false,"inputs":[{"internalType":"address","name":"_stakerAddress","type":"address"},{"internalType":"uint256","name":"_sipId","type":"uint256"}],"name":"withdrawPowerBooster","outputs":[],"payable":false,"stateMutability":"nonpayable","type":"function"}],"devdoc":{"author":"The EraSwap Team","methods":{"addFunds(uint256)":{"details":"ERC20 approve is required to be done for this contract earlier","params":{"_depositAmount":": amount in exaES to deposit"}},"appointeeVote(address,uint256)":{"details":"need to be appointee, set by staker themselves","params":{"_sipId":": id of SIP in staker portfolio.","_stakerAddress":": address of initiater of this SIP."}},"constructor":{"params":{"_token":": is EraSwap ERC20 Smart Contract Address"}},"createSIPPlan(uint256,uint256,uint256,uint256,uint256,uint256,uint256)":{"params":{"_accumulationPeriodMonths":": number of months to deposit commitment amount","_benefitPeriodYears":": number of years of benefit","_defaultPenaltyFactor":": due to missing deposits, this is per 1000","_gracePenaltyFactor":": due to late deposits, this is per 1000","_gracePeriodSeconds":": grace allowance to stakers to deposit monthly","_minimumMonthlyCommitmentAmount":": minimum SIP monthly amount in exaES","_monthlyBenefitFactor":": this is per 1000; i.e 200 for 20%"}},"getDepositDoneStatus(address,uint256,uint256)":{"params":{"_monthId":": deposit month id starts from 1 upto as per plan","_sipId":": id of SIP in staker portfolio.","_stakerAddress":": address of initiater of this SIP."},"return":"0 => no deposit, 1 => grace deposit, 2 => on time deposit"},"getDepositStatus(address,uint256,uint256)":{"details":"it is used in deposit function require statement.","params":{"_monthId":": deposit month id to calculate status for","_sipId":": id of SIP in staker portfolio.","_stakerAddress":": address of initiater of this SIP."},"return":"0 => too late, 1 => its grace time, 2 => on time"},"getPendingWithdrawlAmount(address,uint256,uint256,bool)":{"params":{"_isNomineeWithdrawing":": different status in case of nominee withdrawl","_sipId":": id of SIP in staker portfolio.","_stakerAddress":": address of initiater of this SIP.","_withdrawlMonthId":": withdrawl month id upto which to calculate returns for"},"return":"gives available withdrawl amount upto the withdrawl month id"},"monthlyDeposit(address,uint256,uint256,uint256)":{"details":"ERC20 approve is required to be done for this contract earlier, also  fundsDeposit should be enough otherwise contract will not accept  Also, deposit can also be done by any nominee of this SIP.","params":{"_depositAmount":": amount to deposit,","_monthId":": specify the month to deposit","_sipId":": id of SIP in staker address portfolio","_stakerAddress":": address of staker who has an SIP"}},"newSIP(uint256,uint256)":{"details":"ERC20 approve is required to be done for this contract earlier, also  fundsDeposit should be enough otherwise contract will not accept","params":{"_monthlyCommitmentAmount":": needs to be more than minimum specified in plan.","_planId":": choose a SIP plan"}},"toogleAppointee(uint256,address,bool)":{"params":{"_appointeeAddress":": eth wallet address of appointee.","_newAppointeeStatus":": true or false, should this have appointee rights or not.","_sipId":": id of SIP in staker portfolio."}},"toogleNominee(uint256,address,bool)":{"params":{"_newNomineeStatus":": true or false, whether this should be a nominee or not.","_nomineeAddress":": eth wallet address of nominee.","_sipId":": id of SIP in staker portfolio."}},"viewAppointation(address,uint256,address)":{"params":{"_appointeeAddress":": eth wallet address of apointee.","_sipId":": id of SIP in staker portfolio.","_stakerAddress":": address of initiater of this SIP."},"return":"tells whether this address is a appointee or not"},"viewNomination(address,uint256,address)":{"params":{"_nomineeAddress":": eth wallet address of nominee.","_sipId":": id of SIP in staker portfolio.","_stakerAddress":": address of initiater of this SIP."},"return":"tells whether this address is a nominee or not"},"withdrawBenefit(address,uint256,uint256)":{"details":"withdraw can be done by any nominee of this SIP.","params":{"_sipId":": id of SIP in staker address portfolio.","_stakerAddress":": address of initiater of this SIP.","_withdrawlmonthId":": withdraw month id starts from 1 upto as per plan."}},"withdrawFunds(uint256)":{"params":{"_withdrawlAmount":": amount in exaES to withdraw"}},"withdrawPowerBooster(address,uint256)":{"details":"withdraw can be done by any nominee of this SIP.","params":{"_sipId":": id of SIP in staker address portfolio.","_stakerAddress":": address of initiater of this SIP."}}},"title":"TimeAlly Super Goal Achiever Plan (TSGAP)"},"evm":{"assembly":"    /* \"TimeAllySIP.sol\":1443:27301  contract TimeAllySIP {... */\n  mstore(0x40, 0x80)\n    /* \"TimeAllySIP.sol\":2737:2744  2629744 */\n  0x282070\n    /* \"TimeAllySIP.sol\":2697:2744  uint256 public EARTH_SECONDS_IN_MONTH = 2629744 */\n  0x02\n  sstore\n    /* \"TimeAllySIP.sol\":6067:6149  constructor(ERC20 _token) public {... */\n  callvalue\n    /* \"--CODEGEN--\":8:17   */\n  dup1\n    /* \"--CODEGEN--\":5:7   */\n  iszero\n  tag_1\n  jumpi\n    /* \"--CODEGEN--\":30:31   */\n  0x00\n    /* \"--CODEGEN--\":27:28   */\n  dup1\n    /* \"--CODEGEN--\":20:32   */\n  revert\n    /* \"--CODEGEN--\":5:7   */\ntag_1:\n    /* \"TimeAllySIP.sol\":6067:6149  constructor(ERC20 _token) public {... */\n  pop\n  mload(0x40)\n  sub(codesize, bytecodeSize)\n  dup1\n  bytecodeSize\n  dup4\n  codecopy\n  dup2\n  dup2\n  add\n  0x40\n  mstore\n    /* \"--CODEGEN--\":13:15   */\n  0x20\n    /* \"--CODEGEN--\":8:11   */\n  dup2\n    /* \"--CODEGEN--\":5:16   */\n  lt\n    /* \"--CODEGEN--\":2:4   */\n  iszero\n  tag_2\n  jumpi\n    /* \"--CODEGEN--\":29:30   */\n  0x00\n    /* \"--CODEGEN--\":26:27   */\n  dup1\n    /* \"--CODEGEN--\":19:31   */\n  revert\n    /* \"--CODEGEN--\":2:4   */\ntag_2:\n    /* \"TimeAllySIP.sol\":6067:6149  constructor(ERC20 _token) public {... */\n  dup2\n  add\n  swap1\n  dup1\n  dup1\n  mload\n  swap1\n  0x20\n  add\n  swap1\n  swap3\n  swap2\n  swap1\n  pop\n  pop\n  pop\n    /* \"TimeAllySIP.sol\":6114:6124  msg.sender */\n  caller\n    /* \"TimeAllySIP.sol\":6106:6111  owner */\n  0x00\n  dup1\n    /* \"TimeAllySIP.sol\":6106:6124  owner = msg.sender */\n  0x0100\n  exp\n  dup2\n  sload\n  dup2\n  0xffffffffffffffffffffffffffffffffffffffff\n  mul\n  not\n  and\n  swap1\n  dup4\n  0xffffffffffffffffffffffffffffffffffffffff\n  and\n  mul\n  or\n  swap1\n  sstore\n  pop\n    /* \"TimeAllySIP.sol\":6138:6144  _token */\n  dup1\n    /* \"TimeAllySIP.sol\":6130:6135  token */\n  0x01\n  0x00\n    /* \"TimeAllySIP.sol\":6130:6144  token = _token */\n  0x0100\n  exp\n  dup2\n  sload\n  dup2\n  0xffffffffffffffffffffffffffffffffffffffff\n  mul\n  not\n  and\n  swap1\n  dup4\n  0xffffffffffffffffffffffffffffffffffffffff\n  and\n  mul\n  or\n  swap1\n  sstore\n  pop\n    /* \"TimeAllySIP.sol\":6067:6149  constructor(ERC20 _token) public {... */\n  pop\n    /* \"TimeAllySIP.sol\":1443:27301  contract TimeAllySIP {... */\n  dataSize(sub_0)\n  dup1\n  dataOffset(sub_0)\n  0x00\n  codecopy\n  0x00\n  return\nstop\n\nsub_0: assembly {\n        /* \"TimeAllySIP.sol\":1443:27301  contract TimeAllySIP {... */\n      mstore(0x40, 0x80)\n      callvalue\n        /* \"--CODEGEN--\":8:17   */\n      dup1\n        /* \"--CODEGEN--\":5:7   */\n      iszero\n      tag_1\n      jumpi\n        /* \"--CODEGEN--\":30:31   */\n      0x00\n        /* \"--CODEGEN--\":27:28   */\n      dup1\n        /* \"--CODEGEN--\":20:32   */\n      revert\n        /* \"--CODEGEN--\":5:7   */\n    tag_1:\n        /* \"TimeAllySIP.sol\":1443:27301  contract TimeAllySIP {... */\n      pop\n      jumpi(tag_2, lt(calldatasize, 0x04))\n      shr(0xe0, calldataload(0x00))\n      dup1\n      0x7f13c7a1\n      gt\n      tag_26\n      jumpi\n      dup1\n      0xba50531a\n      gt\n      tag_27\n      jumpi\n      dup1\n      0xba50531a\n      eq\n      tag_20\n      jumpi\n      dup1\n      0xbe999705\n      eq\n      tag_21\n      jumpi\n      dup1\n      0xef4ffe57\n      eq\n      tag_22\n      jumpi\n      dup1\n      0xf29de4c3\n      eq\n      tag_23\n      jumpi\n      dup1\n      0xf926b17a\n      eq\n      tag_24\n      jumpi\n      dup1\n      0xfc0c546a\n      eq\n      tag_25\n      jumpi\n      jump(tag_2)\n    tag_27:\n      dup1\n      0x7f13c7a1\n      eq\n      tag_14\n      jumpi\n      dup1\n      0x81423a26\n      eq\n      tag_15\n      jumpi\n      dup1\n      0x8da5cb5b\n      eq\n      tag_16\n      jumpi\n      dup1\n      0x94bb9064\n      eq\n      tag_17\n      jumpi\n      dup1\n      0x9b3017c1\n      eq\n      tag_18\n      jumpi\n      dup1\n      0xa4003ad4\n      eq\n      tag_19\n      jumpi\n      jump(tag_2)\n    tag_26:\n      dup1\n      0x2393768d\n      gt\n      tag_28\n      jumpi\n      dup1\n      0x2393768d\n      eq\n      tag_8\n      jumpi\n      dup1\n      0x26d9767b\n      eq\n      tag_9\n      jumpi\n      dup1\n      0x295226c5\n      eq\n      tag_10\n      jumpi\n      dup1\n      0x2e9721b6\n      eq\n      tag_11\n      jumpi\n      dup1\n      0x53c0fb47\n      eq\n      tag_12\n      jumpi\n      dup1\n      0x7838e408\n      eq\n      tag_13\n      jumpi\n      jump(tag_2)\n    tag_28:\n      dup1\n      0x07f71149\n      eq\n      tag_3\n      jumpi\n      dup1\n      0x0ce57b46\n      eq\n      tag_4\n      jumpi\n      dup1\n      0x1272d8d4\n      eq\n      tag_5\n      jumpi\n      dup1\n      0x13dcc452\n      eq\n      tag_6\n      jumpi\n      dup1\n      0x155dd5ee\n      eq\n      tag_7\n      jumpi\n    tag_2:\n      0x00\n      dup1\n      revert\n        /* \"TimeAllySIP.sol\":14569:15813  function withdrawBenefit(... */\n    tag_3:\n      tag_29\n      0x04\n      dup1\n      calldatasize\n      sub\n        /* \"--CODEGEN--\":13:15   */\n      0x60\n        /* \"--CODEGEN--\":8:11   */\n      dup2\n        /* \"--CODEGEN--\":5:16   */\n      lt\n        /* \"--CODEGEN--\":2:4   */\n      iszero\n      tag_30\n      jumpi\n        /* \"--CODEGEN--\":29:30   */\n      0x00\n        /* \"--CODEGEN--\":26:27   */\n      dup1\n        /* \"--CODEGEN--\":19:31   */\n      revert\n        /* \"--CODEGEN--\":2:4   */\n    tag_30:\n        /* \"TimeAllySIP.sol\":14569:15813  function withdrawBenefit(... */\n      dup2\n      add\n      swap1\n      dup1\n      dup1\n      calldataload\n      0xffffffffffffffffffffffffffffffffffffffff\n      and\n      swap1\n      0x20\n      add\n      swap1\n      swap3\n      swap2\n      swap1\n      dup1\n      calldataload\n      swap1\n      0x20\n      add\n      swap1\n      swap3\n      swap2\n      swap1\n      dup1\n      calldataload\n      swap1\n      0x20\n      add\n      swap1\n      swap3\n      swap2\n      swap1\n      pop\n      pop\n      pop\n      tag_31\n      jump\t// in\n    tag_29:\n      stop\n        /* \"TimeAllySIP.sol\":19497:19872  function toogleNominee(... */\n    tag_4:\n      tag_32\n      0x04\n      dup1\n      calldatasize\n      sub\n        /* \"--CODEGEN--\":13:15   */\n      0x60\n        /* \"--CODEGEN--\":8:11   */\n      dup2\n        /* \"--CODEGEN--\":5:16   */\n      lt\n        /* \"--CODEGEN--\":2:4   */\n      iszero\n      tag_33\n      jumpi\n        /* \"--CODEGEN--\":29:30   */\n      0x00\n        /* \"--CODEGEN--\":26:27   */\n      dup1\n        /* \"--CODEGEN--\":19:31   */\n      revert\n        /* \"--CODEGEN--\":2:4   */\n    tag_33:\n        /* \"TimeAllySIP.sol\":19497:19872  function toogleNominee(... */\n      dup2\n      add\n      swap1\n      dup1\n      dup1\n      calldataload\n      swap1\n      0x20\n      add\n      swap1\n      swap3\n      swap2\n      swap1\n      dup1\n      calldataload\n      0xffffffffffffffffffffffffffffffffffffffff\n      and\n      swap1\n      0x20\n      add\n      swap1\n      swap3\n      swap2\n      swap1\n      dup1\n      calldataload\n      iszero\n      iszero\n      swap1\n      0x20\n      add\n      swap1\n      swap3\n      swap2\n      swap1\n      pop\n      pop\n      pop\n      tag_34\n      jump\t// in\n    tag_32:\n      stop\n        /* \"TimeAllySIP.sol\":2697:2744  uint256 public EARTH_SECONDS_IN_MONTH = 2629744 */\n    tag_5:\n      tag_35\n      tag_36\n      jump\t// in\n    tag_35:\n      mload(0x40)\n      dup1\n      dup3\n      dup2\n      mstore\n      0x20\n      add\n      swap2\n      pop\n      pop\n      mload(0x40)\n      dup1\n      swap2\n      sub\n      swap1\n      return\n        /* \"TimeAllySIP.sol\":3269:3296  uint256 public fundsDeposit */\n    tag_6:\n      tag_37\n      tag_38\n      jump\t// in\n    tag_37:\n      mload(0x40)\n      dup1\n      dup3\n      dup2\n      mstore\n      0x20\n      add\n      swap2\n      pop\n      pop\n      mload(0x40)\n      dup1\n      swap2\n      sub\n      swap1\n      return\n        /* \"TimeAllySIP.sol\":8494:9054  function withdrawFunds(uint256 _withdrawlAmount) public onlyOwner {... */\n    tag_7:\n      tag_39\n      0x04\n      dup1\n      calldatasize\n      sub\n        /* \"--CODEGEN--\":13:15   */\n      0x20\n        /* \"--CODEGEN--\":8:11   */\n      dup2\n        /* \"--CODEGEN--\":5:16   */\n      lt\n        /* \"--CODEGEN--\":2:4   */\n      iszero\n      tag_40\n      jumpi\n        /* \"--CODEGEN--\":29:30   */\n      0x00\n        /* \"--CODEGEN--\":26:27   */\n      dup1\n        /* \"--CODEGEN--\":19:31   */\n      revert\n        /* \"--CODEGEN--\":2:4   */\n    tag_40:\n        /* \"TimeAllySIP.sol\":8494:9054  function withdrawFunds(uint256 _withdrawlAmount) public onlyOwner {... */\n      dup2\n      add\n      swap1\n      dup1\n      dup1\n      calldataload\n      swap1\n      0x20\n      add\n      swap1\n      swap3\n      swap2\n      swap1\n      pop\n      pop\n      pop\n      tag_41\n      jump\t// in\n    tag_39:\n      stop\n        /* \"TimeAllySIP.sol\":2941:2988  uint256 public pendingBenefitAmountOfAllStakers */\n    tag_8:\n      tag_42\n      tag_43\n      jump\t// in\n    tag_42:\n      mload(0x40)\n      dup1\n      dup3\n      dup2\n      mstore\n      0x20\n      add\n      swap2\n      pop\n      pop\n      mload(0x40)\n      dup1\n      swap2\n      sub\n      swap1\n      return\n        /* \"TimeAllySIP.sol\":16060:19204  function withdrawPowerBooster(... */\n    tag_9:\n      tag_44\n      0x04\n      dup1\n      calldatasize\n      sub\n        /* \"--CODEGEN--\":13:15   */\n      0x40\n        /* \"--CODEGEN--\":8:11   */\n      dup2\n        /* \"--CODEGEN--\":5:16   */\n      lt\n        /* \"--CODEGEN--\":2:4   */\n      iszero\n      tag_45\n      jumpi\n        /* \"--CODEGEN--\":29:30   */\n      0x00\n        /* \"--CODEGEN--\":26:27   */\n      dup1\n        /* \"--CODEGEN--\":19:31   */\n      revert\n        /* \"--CODEGEN--\":2:4   */\n    tag_45:\n        /* \"TimeAllySIP.sol\":16060:19204  function withdrawPowerBooster(... */\n      dup2\n      add\n      swap1\n      dup1\n      dup1\n      calldataload\n      0xffffffffffffffffffffffffffffffffffffffff\n      and\n      swap1\n      0x20\n      add\n      swap1\n      swap3\n      swap2\n      swap1\n      dup1\n      calldataload\n      swap1\n      0x20\n      add\n      swap1\n      swap3\n      swap2\n      swap1\n      pop\n      pop\n      pop\n      tag_46\n      jump\t// in\n    tag_44:\n      stop\n        /* \"TimeAllySIP.sol\":6757:7561  function createSIPPlan(... */\n    tag_10:\n      tag_47\n      0x04\n      dup1\n      calldatasize\n      sub\n        /* \"--CODEGEN--\":13:16   */\n      0xe0\n        /* \"--CODEGEN--\":8:11   */\n      dup2\n        /* \"--CODEGEN--\":5:17   */\n      lt\n        /* \"--CODEGEN--\":2:4   */\n      iszero\n      tag_48\n      jumpi\n        /* \"--CODEGEN--\":30:31   */\n      0x00\n        /* \"--CODEGEN--\":27:28   */\n      dup1\n        /* \"--CODEGEN--\":20:32   */\n      revert\n        /* \"--CODEGEN--\":2:4   */\n    tag_48:\n        /* \"TimeAllySIP.sol\":6757:7561  function createSIPPlan(... */\n      dup2\n      add\n      swap1\n      dup1\n      dup1\n      calldataload\n      swap1\n      0x20\n      add\n      swap1\n      swap3\n      swap2\n      swap1\n      dup1\n      calldataload\n      swap1\n      0x20\n      add\n      swap1\n      swap3\n      swap2\n      swap1\n      dup1\n      calldataload\n      swap1\n      0x20\n      add\n      swap1\n      swap3\n      swap2\n      swap1\n      dup1\n      calldataload\n      swap1\n      0x20\n      add\n      swap1\n      swap3\n      swap2\n      swap1\n      dup1\n      calldataload\n      swap1\n      0x20\n      add\n      swap1\n      swap3\n      swap2\n      swap1\n      dup1\n      calldataload\n      swap1\n      0x20\n      add\n      swap1\n      swap3\n      swap2\n      swap1\n      dup1\n      calldataload\n      swap1\n      0x20\n      add\n      swap1\n      swap3\n      swap2\n      swap1\n      pop\n      pop\n      pop\n      tag_49\n      jump\t// in\n    tag_47:\n      stop\n        /* \"TimeAllySIP.sol\":26580:26784  function viewNomination(... */\n    tag_11:\n      tag_50\n      0x04\n      dup1\n      calldatasize\n      sub\n        /* \"--CODEGEN--\":13:15   */\n      0x60\n        /* \"--CODEGEN--\":8:11   */\n      dup2\n        /* \"--CODEGEN--\":5:16   */\n      lt\n        /* \"--CODEGEN--\":2:4   */\n      iszero\n      tag_51\n      jumpi\n        /* \"--CODEGEN--\":29:30   */\n      0x00\n        /* \"--CODEGEN--\":26:27   */\n      dup1\n        /* \"--CODEGEN--\":19:31   */\n      revert\n        /* \"--CODEGEN--\":2:4   */\n    tag_51:\n        /* \"TimeAllySIP.sol\":26580:26784  function viewNomination(... */\n      dup2\n      add\n      swap1\n      dup1\n      dup1\n      calldataload\n      0xffffffffffffffffffffffffffffffffffffffff\n      and\n      swap1\n      0x20\n      add\n      swap1\n      swap3\n      swap2\n      swap1\n      dup1\n      calldataload\n      swap1\n      0x20\n      add\n      swap1\n      swap3\n      swap2\n      swap1\n      dup1\n      calldataload\n      0xffffffffffffffffffffffffffffffffffffffff\n      and\n      swap1\n      0x20\n      add\n      swap1\n      swap3\n      swap2\n      swap1\n      pop\n      pop\n      pop\n      tag_52\n      jump\t// in\n    tag_50:\n      mload(0x40)\n      dup1\n      dup3\n      iszero\n      iszero\n      iszero\n      iszero\n      dup2\n      mstore\n      0x20\n      add\n      swap2\n      pop\n      pop\n      mload(0x40)\n      dup1\n      swap2\n      sub\n      swap1\n      return\n        /* \"TimeAllySIP.sol\":9421:11793  function newSIP(... */\n    tag_12:\n      tag_53\n      0x04\n      dup1\n      calldatasize\n      sub\n        /* \"--CODEGEN--\":13:15   */\n      0x40\n        /* \"--CODEGEN--\":8:11   */\n      dup2\n        /* \"--CODEGEN--\":5:16   */\n      lt\n        /* \"--CODEGEN--\":2:4   */\n      iszero\n      tag_54\n      jumpi\n        /* \"--CODEGEN--\":29:30   */\n      0x00\n        /* \"--CODEGEN--\":26:27   */\n      dup1\n        /* \"--CODEGEN--\":19:31   */\n      revert\n        /* \"--CODEGEN--\":2:4   */\n    tag_54:\n        /* \"TimeAllySIP.sol\":9421:11793  function newSIP(... */\n      dup2\n      add\n      swap1\n      dup1\n      dup1\n      calldataload\n      swap1\n      0x20\n      add\n      swap1\n      swap3\n      swap2\n      swap1\n      dup1\n      calldataload\n      swap1\n      0x20\n      add\n      swap1\n      swap3\n      swap2\n      swap1\n      pop\n      pop\n      pop\n      tag_55\n      jump\t// in\n    tag_53:\n      stop\n        /* \"TimeAllySIP.sol\":7565:7696  function updatePlanStatus(uint256 _planId, bool _newStatus) public onlyOwner {... */\n    tag_13:\n      tag_56\n      0x04\n      dup1\n      calldatasize\n      sub\n        /* \"--CODEGEN--\":13:15   */\n      0x40\n        /* \"--CODEGEN--\":8:11   */\n      dup2\n        /* \"--CODEGEN--\":5:16   */\n      lt\n        /* \"--CODEGEN--\":2:4   */\n      iszero\n      tag_57\n      jumpi\n        /* \"--CODEGEN--\":29:30   */\n      0x00\n        /* \"--CODEGEN--\":26:27   */\n      dup1\n        /* \"--CODEGEN--\":19:31   */\n      revert\n        /* \"--CODEGEN--\":2:4   */\n    tag_57:\n        /* \"TimeAllySIP.sol\":7565:7696  function updatePlanStatus(uint256 _planId, bool _newStatus) public onlyOwner {... */\n      dup2\n      add\n      swap1\n      dup1\n      dup1\n      calldataload\n      swap1\n      0x20\n      add\n      swap1\n      swap3\n      swap2\n      swap1\n      dup1\n      calldataload\n      iszero\n      iszero\n      swap1\n      0x20\n      add\n      swap1\n      swap3\n      swap2\n      swap1\n      pop\n      pop\n      pop\n      tag_58\n      jump\t// in\n    tag_56:\n      stop\n        /* \"TimeAllySIP.sol\":12312:14242  function monthlyDeposit(... */\n    tag_14:\n      tag_59\n      0x04\n      dup1\n      calldatasize\n      sub\n        /* \"--CODEGEN--\":13:16   */\n      0x80\n        /* \"--CODEGEN--\":8:11   */\n      dup2\n        /* \"--CODEGEN--\":5:17   */\n      lt\n        /* \"--CODEGEN--\":2:4   */\n      iszero\n      tag_60\n      jumpi\n        /* \"--CODEGEN--\":30:31   */\n      0x00\n        /* \"--CODEGEN--\":27:28   */\n      dup1\n        /* \"--CODEGEN--\":20:32   */\n      revert\n        /* \"--CODEGEN--\":2:4   */\n    tag_60:\n        /* \"TimeAllySIP.sol\":12312:14242  function monthlyDeposit(... */\n      dup2\n      add\n      swap1\n      dup1\n      dup1\n      calldataload\n      0xffffffffffffffffffffffffffffffffffffffff\n      and\n      swap1\n      0x20\n      add\n      swap1\n      swap3\n      swap2\n      swap1\n      dup1\n      calldataload\n      swap1\n      0x20\n      add\n      swap1\n      swap3\n      swap2\n      swap1\n      dup1\n      calldataload\n      swap1\n      0x20\n      add\n      swap1\n      swap3\n      swap2\n      swap1\n      dup1\n      calldataload\n      swap1\n      0x20\n      add\n      swap1\n      swap3\n      swap2\n      swap1\n      pop\n      pop\n      pop\n      tag_61\n      jump\t// in\n    tag_59:\n      stop\n        /* \"TimeAllySIP.sol\":27087:27299  function viewAppointation(... */\n    tag_15:\n      tag_62\n      0x04\n      dup1\n      calldatasize\n      sub\n        /* \"--CODEGEN--\":13:15   */\n      0x60\n        /* \"--CODEGEN--\":8:11   */\n      dup2\n        /* \"--CODEGEN--\":5:16   */\n      lt\n        /* \"--CODEGEN--\":2:4   */\n      iszero\n      tag_63\n      jumpi\n        /* \"--CODEGEN--\":29:30   */\n      0x00\n        /* \"--CODEGEN--\":26:27   */\n      dup1\n        /* \"--CODEGEN--\":19:31   */\n      revert\n        /* \"--CODEGEN--\":2:4   */\n    tag_63:\n        /* \"TimeAllySIP.sol\":27087:27299  function viewAppointation(... */\n      dup2\n      add\n      swap1\n      dup1\n      dup1\n      calldataload\n      0xffffffffffffffffffffffffffffffffffffffff\n      and\n      swap1\n      0x20\n      add\n      swap1\n      swap3\n      swap2\n      swap1\n      dup1\n      calldataload\n      swap1\n      0x20\n      add\n      swap1\n      swap3\n      swap2\n      swap1\n      dup1\n      calldataload\n      0xffffffffffffffffffffffffffffffffffffffff\n      and\n      swap1\n      0x20\n      add\n      swap1\n      swap3\n      swap2\n      swap1\n      pop\n      pop\n      pop\n      tag_64\n      jump\t// in\n    tag_62:\n      mload(0x40)\n      dup1\n      dup3\n      iszero\n      iszero\n      iszero\n      iszero\n      dup2\n      mstore\n      0x20\n      add\n      swap2\n      pop\n      pop\n      mload(0x40)\n      dup1\n      swap2\n      sub\n      swap1\n      return\n        /* \"TimeAllySIP.sol\":2587:2607  address public owner */\n    tag_16:\n      tag_65\n      tag_66\n      jump\t// in\n    tag_65:\n      mload(0x40)\n      dup1\n      dup3\n      0xffffffffffffffffffffffffffffffffffffffff\n      and\n      0xffffffffffffffffffffffffffffffffffffffff\n      and\n      dup2\n      mstore\n      0x20\n      add\n      swap2\n      pop\n      pop\n      mload(0x40)\n      dup1\n      swap2\n      sub\n      swap1\n      return\n        /* \"TimeAllySIP.sol\":22811:23882  function getDepositStatus(... */\n    tag_17:\n      tag_67\n      0x04\n      dup1\n      calldatasize\n      sub\n        /* \"--CODEGEN--\":13:15   */\n      0x60\n        /* \"--CODEGEN--\":8:11   */\n      dup2\n        /* \"--CODEGEN--\":5:16   */\n      lt\n        /* \"--CODEGEN--\":2:4   */\n      iszero\n      tag_68\n      jumpi\n        /* \"--CODEGEN--\":29:30   */\n      0x00\n        /* \"--CODEGEN--\":26:27   */\n      dup1\n        /* \"--CODEGEN--\":19:31   */\n      revert\n        /* \"--CODEGEN--\":2:4   */\n    tag_68:\n        /* \"TimeAllySIP.sol\":22811:23882  function getDepositStatus(... */\n      dup2\n      add\n      swap1\n      dup1\n      dup1\n      calldataload\n      0xffffffffffffffffffffffffffffffffffffffff\n      and\n      swap1\n      0x20\n      add\n      swap1\n      swap3\n      swap2\n      swap1\n      dup1\n      calldataload\n      swap1\n      0x20\n      add\n      swap1\n      swap3\n      swap2\n      swap1\n      dup1\n      calldataload\n      swap1\n      0x20\n      add\n      swap1\n      swap3\n      swap2\n      swap1\n      pop\n      pop\n      pop\n      tag_69\n      jump\t// in\n    tag_67:\n      mload(0x40)\n      dup1\n      dup3\n      dup2\n      mstore\n      0x20\n      add\n      swap2\n      pop\n      pop\n      mload(0x40)\n      dup1\n      swap2\n      sub\n      swap1\n      return\n        /* \"TimeAllySIP.sol\":24336:26284  function getPendingWithdrawlAmount(... */\n    tag_18:\n      tag_70\n      0x04\n      dup1\n      calldatasize\n      sub\n        /* \"--CODEGEN--\":13:16   */\n      0x80\n        /* \"--CODEGEN--\":8:11   */\n      dup2\n        /* \"--CODEGEN--\":5:17   */\n      lt\n        /* \"--CODEGEN--\":2:4   */\n      iszero\n      tag_71\n      jumpi\n        /* \"--CODEGEN--\":30:31   */\n      0x00\n        /* \"--CODEGEN--\":27:28   */\n      dup1\n        /* \"--CODEGEN--\":20:32   */\n      revert\n        /* \"--CODEGEN--\":2:4   */\n    tag_71:\n        /* \"TimeAllySIP.sol\":24336:26284  function getPendingWithdrawlAmount(... */\n      dup2\n      add\n      swap1\n      dup1\n      dup1\n      calldataload\n      0xffffffffffffffffffffffffffffffffffffffff\n      and\n      swap1\n      0x20\n      add\n      swap1\n      swap3\n      swap2\n      swap1\n      dup1\n      calldataload\n      swap1\n      0x20\n      add\n      swap1\n      swap3\n      swap2\n      swap1\n      dup1\n      calldataload\n      swap1\n      0x20\n      add\n      swap1\n      swap3\n      swap2\n      swap1\n      dup1\n      calldataload\n      iszero\n      iszero\n      swap1\n      0x20\n      add\n      swap1\n      swap3\n      swap2\n      swap1\n      pop\n      pop\n      pop\n      tag_72\n      jump\t// in\n    tag_70:\n      mload(0x40)\n      dup1\n      dup3\n      dup2\n      mstore\n      0x20\n      add\n      swap2\n      pop\n      pop\n      mload(0x40)\n      dup1\n      swap2\n      sub\n      swap1\n      return\n        /* \"TimeAllySIP.sol\":21267:21862  function appointeeVote(... */\n    tag_19:\n      tag_73\n      0x04\n      dup1\n      calldatasize\n      sub\n        /* \"--CODEGEN--\":13:15   */\n      0x40\n        /* \"--CODEGEN--\":8:11   */\n      dup2\n        /* \"--CODEGEN--\":5:16   */\n      lt\n        /* \"--CODEGEN--\":2:4   */\n      iszero\n      tag_74\n      jumpi\n        /* \"--CODEGEN--\":29:30   */\n      0x00\n        /* \"--CODEGEN--\":26:27   */\n      dup1\n        /* \"--CODEGEN--\":19:31   */\n      revert\n        /* \"--CODEGEN--\":2:4   */\n    tag_74:\n        /* \"TimeAllySIP.sol\":21267:21862  function appointeeVote(... */\n      dup2\n      add\n      swap1\n      dup1\n      dup1\n      calldataload\n      0xffffffffffffffffffffffffffffffffffffffff\n      and\n      swap1\n      0x20\n      add\n      swap1\n      swap3\n      swap2\n      swap1\n      dup1\n      calldataload\n      swap1\n      0x20\n      add\n      swap1\n      swap3\n      swap2\n      swap1\n      pop\n      pop\n      pop\n      tag_75\n      jump\t// in\n    tag_73:\n      stop\n        /* \"TimeAllySIP.sol\":20174:21000  function toogleAppointee(... */\n    tag_20:\n      tag_76\n      0x04\n      dup1\n      calldatasize\n      sub\n        /* \"--CODEGEN--\":13:15   */\n      0x60\n        /* \"--CODEGEN--\":8:11   */\n      dup2\n        /* \"--CODEGEN--\":5:16   */\n      lt\n        /* \"--CODEGEN--\":2:4   */\n      iszero\n      tag_77\n      jumpi\n        /* \"--CODEGEN--\":29:30   */\n      0x00\n        /* \"--CODEGEN--\":26:27   */\n      dup1\n        /* \"--CODEGEN--\":19:31   */\n      revert\n        /* \"--CODEGEN--\":2:4   */\n    tag_77:\n        /* \"TimeAllySIP.sol\":20174:21000  function toogleAppointee(... */\n      dup2\n      add\n      swap1\n      dup1\n      dup1\n      calldataload\n      swap1\n      0x20\n      add\n      swap1\n      swap3\n      swap2\n      swap1\n      dup1\n      calldataload\n      0xffffffffffffffffffffffffffffffffffffffff\n      and\n      swap1\n      0x20\n      add\n      swap1\n      swap3\n      swap2\n      swap1\n      dup1\n      calldataload\n      iszero\n      iszero\n      swap1\n      0x20\n      add\n      swap1\n      swap3\n      swap2\n      swap1\n      pop\n      pop\n      pop\n      tag_78\n      jump\t// in\n    tag_76:\n      stop\n        /* \"TimeAllySIP.sol\":7905:8346  function addFunds(uint256 _depositAmount) public {... */\n    tag_21:\n      tag_79\n      0x04\n      dup1\n      calldatasize\n      sub\n        /* \"--CODEGEN--\":13:15   */\n      0x20\n        /* \"--CODEGEN--\":8:11   */\n      dup2\n        /* \"--CODEGEN--\":5:16   */\n      lt\n        /* \"--CODEGEN--\":2:4   */\n      iszero\n      tag_80\n      jumpi\n        /* \"--CODEGEN--\":29:30   */\n      0x00\n        /* \"--CODEGEN--\":26:27   */\n      dup1\n        /* \"--CODEGEN--\":19:31   */\n      revert\n        /* \"--CODEGEN--\":2:4   */\n    tag_80:\n        /* \"TimeAllySIP.sol\":7905:8346  function addFunds(uint256 _depositAmount) public {... */\n      dup2\n      add\n      swap1\n      dup1\n      dup1\n      calldataload\n      swap1\n      0x20\n      add\n      swap1\n      swap3\n      swap2\n      swap1\n      pop\n      pop\n      pop\n      tag_81\n      jump\t// in\n    tag_79:\n      stop\n        /* \"TimeAllySIP.sol\":3357:3382  SIPPlan[] public sipPlans */\n    tag_22:\n      tag_82\n      0x04\n      dup1\n      calldatasize\n      sub\n        /* \"--CODEGEN--\":13:15   */\n      0x20\n        /* \"--CODEGEN--\":8:11   */\n      dup2\n        /* \"--CODEGEN--\":5:16   */\n      lt\n        /* \"--CODEGEN--\":2:4   */\n      iszero\n      tag_83\n      jumpi\n        /* \"--CODEGEN--\":29:30   */\n      0x00\n        /* \"--CODEGEN--\":26:27   */\n      dup1\n        /* \"--CODEGEN--\":19:31   */\n      revert\n        /* \"--CODEGEN--\":2:4   */\n    tag_83:\n        /* \"TimeAllySIP.sol\":3357:3382  SIPPlan[] public sipPlans */\n      dup2\n      add\n      swap1\n      dup1\n      dup1\n      calldataload\n      swap1\n      0x20\n      add\n      swap1\n      swap3\n      swap2\n      swap1\n      pop\n      pop\n      pop\n      tag_84\n      jump\t// in\n    tag_82:\n      mload(0x40)\n      dup1\n      dup10\n      iszero\n      iszero\n      iszero\n      iszero\n      dup2\n      mstore\n      0x20\n      add\n      dup9\n      dup2\n      mstore\n      0x20\n      add\n      dup8\n      dup2\n      mstore\n      0x20\n      add\n      dup7\n      dup2\n      mstore\n      0x20\n      add\n      dup6\n      dup2\n      mstore\n      0x20\n      add\n      dup5\n      dup2\n      mstore\n      0x20\n      add\n      dup4\n      dup2\n      mstore\n      0x20\n      add\n      dup3\n      dup2\n      mstore\n      0x20\n      add\n      swap9\n      pop\n      pop\n      pop\n      pop\n      pop\n      pop\n      pop\n      pop\n      pop\n      mload(0x40)\n      dup1\n      swap2\n      sub\n      swap1\n      return\n        /* \"TimeAllySIP.sol\":22210:22414  function getDepositDoneStatus(... */\n    tag_23:\n      tag_85\n      0x04\n      dup1\n      calldatasize\n      sub\n        /* \"--CODEGEN--\":13:15   */\n      0x60\n        /* \"--CODEGEN--\":8:11   */\n      dup2\n        /* \"--CODEGEN--\":5:16   */\n      lt\n        /* \"--CODEGEN--\":2:4   */\n      iszero\n      tag_86\n      jumpi\n        /* \"--CODEGEN--\":29:30   */\n      0x00\n        /* \"--CODEGEN--\":26:27   */\n      dup1\n        /* \"--CODEGEN--\":19:31   */\n      revert\n        /* \"--CODEGEN--\":2:4   */\n    tag_86:\n        /* \"TimeAllySIP.sol\":22210:22414  function getDepositDoneStatus(... */\n      dup2\n      add\n      swap1\n      dup1\n      dup1\n      calldataload\n      0xffffffffffffffffffffffffffffffffffffffff\n      and\n      swap1\n      0x20\n      add\n      swap1\n      swap3\n      swap2\n      swap1\n      dup1\n      calldataload\n      swap1\n      0x20\n      add\n      swap1\n      swap3\n      swap2\n      swap1\n      dup1\n      calldataload\n      swap1\n      0x20\n      add\n      swap1\n      swap3\n      swap2\n      swap1\n      pop\n      pop\n      pop\n      tag_87\n      jump\t// in\n    tag_85:\n      mload(0x40)\n      dup1\n      dup3\n      dup2\n      mstore\n      0x20\n      add\n      swap2\n      pop\n      pop\n      mload(0x40)\n      dup1\n      swap2\n      sub\n      swap1\n      return\n        /* \"TimeAllySIP.sol\":3456:3493  mapping(address => SIP[]) public sips */\n    tag_24:\n      tag_88\n      0x04\n      dup1\n      calldatasize\n      sub\n        /* \"--CODEGEN--\":13:15   */\n      0x40\n        /* \"--CODEGEN--\":8:11   */\n      dup2\n        /* \"--CODEGEN--\":5:16   */\n      lt\n        /* \"--CODEGEN--\":2:4   */\n      iszero\n      tag_89\n      jumpi\n        /* \"--CODEGEN--\":29:30   */\n      0x00\n        /* \"--CODEGEN--\":26:27   */\n      dup1\n        /* \"--CODEGEN--\":19:31   */\n      revert\n        /* \"--CODEGEN--\":2:4   */\n    tag_89:\n        /* \"TimeAllySIP.sol\":3456:3493  mapping(address => SIP[]) public sips */\n      dup2\n      add\n      swap1\n      dup1\n      dup1\n      calldataload\n      0xffffffffffffffffffffffffffffffffffffffff\n      and\n      swap1\n      0x20\n      add\n      swap1\n      swap3\n      swap2\n      swap1\n      dup1\n      calldataload\n      swap1\n      0x20\n      add\n      swap1\n      swap3\n      swap2\n      swap1\n      pop\n      pop\n      pop\n      tag_90\n      jump\t// in\n    tag_88:\n      mload(0x40)\n      dup1\n      dup10\n      dup2\n      mstore\n      0x20\n      add\n      dup9\n      dup2\n      mstore\n      0x20\n      add\n      dup8\n      dup2\n      mstore\n      0x20\n      add\n      dup7\n      dup2\n      mstore\n      0x20\n      add\n      dup6\n      dup2\n      mstore\n      0x20\n      add\n      dup5\n      dup2\n      mstore\n      0x20\n      add\n      dup4\n      dup2\n      mstore\n      0x20\n      add\n      dup3\n      dup2\n      mstore\n      0x20\n      add\n      swap9\n      pop\n      pop\n      pop\n      pop\n      pop\n      pop\n      pop\n      pop\n      pop\n      mload(0x40)\n      dup1\n      swap2\n      sub\n      swap1\n      return\n        /* \"TimeAllySIP.sol\":2611:2629  ERC20 public token */\n    tag_25:\n      tag_91\n      tag_92\n      jump\t// in\n    tag_91:\n      mload(0x40)\n      dup1\n      dup3\n      0xffffffffffffffffffffffffffffffffffffffff\n      and\n      0xffffffffffffffffffffffffffffffffffffffff\n      and\n      dup2\n      mstore\n      0x20\n      add\n      swap2\n      pop\n      pop\n      mload(0x40)\n      dup1\n      swap2\n      sub\n      swap1\n      return\n        /* \"TimeAllySIP.sol\":14569:15813  function withdrawBenefit(... */\n    tag_31:\n        /* \"TimeAllySIP.sol\":14696:14710  _stakerAddress */\n      dup3\n        /* \"TimeAllySIP.sol\":14712:14718  _sipId */\n      dup3\n        /* \"TimeAllySIP.sol\":5689:5705  SIP storage _sip */\n      0x00\n        /* \"TimeAllySIP.sol\":5708:5712  sips */\n      0x06\n        /* \"TimeAllySIP.sol\":5708:5728  sips[_stakerAddress] */\n      0x00\n        /* \"TimeAllySIP.sol\":5713:5727  _stakerAddress */\n      dup5\n        /* \"TimeAllySIP.sol\":5708:5728  sips[_stakerAddress] */\n      0xffffffffffffffffffffffffffffffffffffffff\n      and\n      0xffffffffffffffffffffffffffffffffffffffff\n      and\n      dup2\n      mstore\n      0x20\n      add\n      swap1\n      dup2\n      mstore\n      0x20\n      add\n      0x00\n      keccak256\n        /* \"TimeAllySIP.sol\":5729:5735  _sipId */\n      dup3\n        /* \"TimeAllySIP.sol\":5708:5736  sips[_stakerAddress][_sipId] */\n      dup2\n      sload\n      dup2\n      lt\n      tag_94\n      jumpi\n      invalid\n    tag_94:\n      swap1\n      0x00\n      mstore\n      keccak256(0x00, 0x20)\n      swap1\n      0x0b\n      mul\n      add\n        /* \"TimeAllySIP.sol\":5689:5736  SIP storage _sip = sips[_stakerAddress][_sipId] */\n      swap1\n      pop\n        /* \"TimeAllySIP.sol\":5839:5853  _stakerAddress */\n      dup3\n        /* \"TimeAllySIP.sol\":5825:5853  msg.sender != _stakerAddress */\n      0xffffffffffffffffffffffffffffffffffffffff\n      and\n        /* \"TimeAllySIP.sol\":5825:5835  msg.sender */\n      caller\n        /* \"TimeAllySIP.sol\":5825:5853  msg.sender != _stakerAddress */\n      0xffffffffffffffffffffffffffffffffffffffff\n      and\n      eq\n        /* \"TimeAllySIP.sol\":5822:5934  if(msg.sender != _stakerAddress) {... */\n      tag_96\n      jumpi\n        /* \"TimeAllySIP.sol\":5871:5875  _sip */\n      dup1\n        /* \"TimeAllySIP.sol\":5871:5884  _sip.nominees */\n      0x09\n      add\n        /* \"TimeAllySIP.sol\":5871:5896  _sip.nominees[msg.sender] */\n      0x00\n        /* \"TimeAllySIP.sol\":5885:5895  msg.sender */\n      caller\n        /* \"TimeAllySIP.sol\":5871:5896  _sip.nominees[msg.sender] */\n      0xffffffffffffffffffffffffffffffffffffffff\n      and\n      0xffffffffffffffffffffffffffffffffffffffff\n      and\n      dup2\n      mstore\n      0x20\n      add\n      swap1\n      dup2\n      mstore\n      0x20\n      add\n      0x00\n      keccak256\n      0x00\n      swap1\n      sload\n      swap1\n      0x0100\n      exp\n      swap1\n      div\n      0xff\n      and\n        /* \"TimeAllySIP.sol\":5863:5927  require(_sip.nominees[msg.sender], 'nomination should be there') */\n      tag_97\n      jumpi\n      mload(0x40)\n      0x08c379a000000000000000000000000000000000000000000000000000000000\n      dup2\n      mstore\n      0x04\n      add\n      dup1\n      dup1\n      0x20\n      add\n      dup3\n      dup2\n      sub\n      dup3\n      mstore\n      0x1a\n      dup2\n      mstore\n      0x20\n      add\n      dup1\n      0x6e6f6d696e6174696f6e2073686f756c64206265207468657265000000000000\n      dup2\n      mstore\n      pop\n      0x20\n      add\n      swap2\n      pop\n      pop\n      mload(0x40)\n      dup1\n      swap2\n      sub\n      swap1\n      revert\n    tag_97:\n        /* \"TimeAllySIP.sol\":5822:5934  if(msg.sender != _stakerAddress) {... */\n    tag_96:\n        /* \"TimeAllySIP.sol\":14809:14833  uint256 _withdrawlAmount */\n      0x00\n        /* \"TimeAllySIP.sol\":14836:14995  getPendingWithdrawlAmount(... */\n      tag_99\n        /* \"TimeAllySIP.sol\":14869:14883  _stakerAddress */\n      dup8\n        /* \"TimeAllySIP.sol\":14891:14897  _sipId */\n      dup8\n        /* \"TimeAllySIP.sol\":14905:14922  _withdrawlmonthId */\n      dup8\n        /* \"TimeAllySIP.sol\":14944:14958  _stakerAddress */\n      dup11\n        /* \"TimeAllySIP.sol\":14930:14958  msg.sender != _stakerAddress */\n      0xffffffffffffffffffffffffffffffffffffffff\n      and\n        /* \"TimeAllySIP.sol\":14930:14940  msg.sender */\n      caller\n        /* \"TimeAllySIP.sol\":14930:14958  msg.sender != _stakerAddress */\n      0xffffffffffffffffffffffffffffffffffffffff\n      and\n      eq\n      iszero\n        /* \"TimeAllySIP.sol\":14836:14861  getPendingWithdrawlAmount */\n      tag_72\n        /* \"TimeAllySIP.sol\":14836:14995  getPendingWithdrawlAmount(... */\n      jump\t// in\n    tag_99:\n        /* \"TimeAllySIP.sol\":14809:14995  uint256 _withdrawlAmount = getPendingWithdrawlAmount(... */\n      swap1\n      pop\n        /* \"TimeAllySIP.sol\":15002:15018  SIP storage _sip */\n      0x00\n        /* \"TimeAllySIP.sol\":15021:15025  sips */\n      0x06\n        /* \"TimeAllySIP.sol\":15021:15041  sips[_stakerAddress] */\n      0x00\n        /* \"TimeAllySIP.sol\":15026:15040  _stakerAddress */\n      dup10\n        /* \"TimeAllySIP.sol\":15021:15041  sips[_stakerAddress] */\n      0xffffffffffffffffffffffffffffffffffffffff\n      and\n      0xffffffffffffffffffffffffffffffffffffffff\n      and\n      dup2\n      mstore\n      0x20\n      add\n      swap1\n      dup2\n      mstore\n      0x20\n      add\n      0x00\n      keccak256\n        /* \"TimeAllySIP.sol\":15042:15048  _sipId */\n      dup8\n        /* \"TimeAllySIP.sol\":15021:15049  sips[_stakerAddress][_sipId] */\n      dup2\n      sload\n      dup2\n      lt\n      tag_100\n      jumpi\n      invalid\n    tag_100:\n      swap1\n      0x00\n      mstore\n      keccak256(0x00, 0x20)\n      swap1\n      0x0b\n      mul\n      add\n        /* \"TimeAllySIP.sol\":15002:15049  SIP storage _sip = sips[_stakerAddress][_sipId] */\n      swap1\n      pop\n        /* \"TimeAllySIP.sol\":15133:15162  uint256 _lastWithdrawlMonthId */\n      0x00\n        /* \"TimeAllySIP.sol\":15165:15169  _sip */\n      dup2\n        /* \"TimeAllySIP.sol\":15165:15190  _sip.lastWithdrawlMonthId */\n      0x04\n      add\n      sload\n        /* \"TimeAllySIP.sol\":15133:15190  uint256 _lastWithdrawlMonthId = _sip.lastWithdrawlMonthId */\n      swap1\n      pop\n        /* \"TimeAllySIP.sol\":15224:15241  _withdrawlmonthId */\n      dup7\n        /* \"TimeAllySIP.sol\":15196:15200  _sip */\n      dup3\n        /* \"TimeAllySIP.sol\":15196:15221  _sip.lastWithdrawlMonthId */\n      0x04\n      add\n        /* \"TimeAllySIP.sol\":15196:15241  _sip.lastWithdrawlMonthId = _withdrawlmonthId */\n      dup2\n      swap1\n      sstore\n      pop\n        /* \"TimeAllySIP.sol\":15325:15379  pendingBenefitAmountOfAllStakers.sub(_withdrawlAmount) */\n      tag_102\n        /* \"TimeAllySIP.sol\":15362:15378  _withdrawlAmount */\n      dup4\n        /* \"TimeAllySIP.sol\":15325:15357  pendingBenefitAmountOfAllStakers */\n      sload(0x03)\n        /* \"TimeAllySIP.sol\":15325:15361  pendingBenefitAmountOfAllStakers.sub */\n      tag_103\n      swap1\n        /* \"TimeAllySIP.sol\":15325:15379  pendingBenefitAmountOfAllStakers.sub(_withdrawlAmount) */\n      swap2\n      swap1\n      0xffffffff\n      and\n      jump\t// in\n    tag_102:\n        /* \"TimeAllySIP.sol\":15290:15322  pendingBenefitAmountOfAllStakers */\n      0x03\n        /* \"TimeAllySIP.sol\":15290:15379  pendingBenefitAmountOfAllStakers = pendingBenefitAmountOfAllStakers.sub(_withdrawlAmount) */\n      dup2\n      swap1\n      sstore\n      pop\n        /* \"TimeAllySIP.sol\":15439:15473  fundsDeposit.sub(_withdrawlAmount) */\n      tag_104\n        /* \"TimeAllySIP.sol\":15456:15472  _withdrawlAmount */\n      dup4\n        /* \"TimeAllySIP.sol\":15439:15451  fundsDeposit */\n      sload(0x04)\n        /* \"TimeAllySIP.sol\":15439:15455  fundsDeposit.sub */\n      tag_103\n      swap1\n        /* \"TimeAllySIP.sol\":15439:15473  fundsDeposit.sub(_withdrawlAmount) */\n      swap2\n      swap1\n      0xffffffff\n      and\n      jump\t// in\n    tag_104:\n        /* \"TimeAllySIP.sol\":15424:15436  fundsDeposit */\n      0x04\n        /* \"TimeAllySIP.sol\":15424:15473  fundsDeposit = fundsDeposit.sub(_withdrawlAmount) */\n      dup2\n      swap1\n      sstore\n      pop\n        /* \"TimeAllySIP.sol\":15542:15547  token */\n      0x01\n      0x00\n      swap1\n      sload\n      swap1\n      0x0100\n      exp\n      swap1\n      div\n      0xffffffffffffffffffffffffffffffffffffffff\n      and\n        /* \"TimeAllySIP.sol\":15542:15556  token.transfer */\n      0xffffffffffffffffffffffffffffffffffffffff\n      and\n      0xa9059cbb\n        /* \"TimeAllySIP.sol\":15557:15567  msg.sender */\n      caller\n        /* \"TimeAllySIP.sol\":15569:15585  _withdrawlAmount */\n      dup6\n        /* \"TimeAllySIP.sol\":15542:15586  token.transfer(msg.sender, _withdrawlAmount) */\n      mload(0x40)\n      dup4\n      0xffffffff\n      and\n      0xe0\n      shl\n      dup2\n      mstore\n      0x04\n      add\n      dup1\n      dup4\n      0xffffffffffffffffffffffffffffffffffffffff\n      and\n      0xffffffffffffffffffffffffffffffffffffffff\n      and\n      dup2\n      mstore\n      0x20\n      add\n      dup3\n      dup2\n      mstore\n      0x20\n      add\n      swap3\n      pop\n      pop\n      pop\n      0x20\n      mload(0x40)\n      dup1\n      dup4\n      sub\n      dup2\n      0x00\n      dup8\n      dup1\n      extcodesize\n      iszero\n        /* \"--CODEGEN--\":8:17   */\n      dup1\n        /* \"--CODEGEN--\":5:7   */\n      iszero\n      tag_105\n      jumpi\n        /* \"--CODEGEN--\":30:31   */\n      0x00\n        /* \"--CODEGEN--\":27:28   */\n      dup1\n        /* \"--CODEGEN--\":20:32   */\n      revert\n        /* \"--CODEGEN--\":5:7   */\n    tag_105:\n        /* \"TimeAllySIP.sol\":15542:15586  token.transfer(msg.sender, _withdrawlAmount) */\n      pop\n      gas\n      call\n      iszero\n        /* \"--CODEGEN--\":8:17   */\n      dup1\n        /* \"--CODEGEN--\":5:7   */\n      iszero\n      tag_106\n      jumpi\n        /* \"--CODEGEN--\":45:61   */\n      returndatasize\n        /* \"--CODEGEN--\":42:43   */\n      0x00\n        /* \"--CODEGEN--\":39:40   */\n      dup1\n        /* \"--CODEGEN--\":24:62   */\n      returndatacopy\n        /* \"--CODEGEN--\":77:93   */\n      returndatasize\n        /* \"--CODEGEN--\":74:75   */\n      0x00\n        /* \"--CODEGEN--\":67:94   */\n      revert\n        /* \"--CODEGEN--\":5:7   */\n    tag_106:\n        /* \"TimeAllySIP.sol\":15542:15586  token.transfer(msg.sender, _withdrawlAmount) */\n      pop\n      pop\n      pop\n      pop\n      mload(0x40)\n      returndatasize\n        /* \"--CODEGEN--\":13:15   */\n      0x20\n        /* \"--CODEGEN--\":8:11   */\n      dup2\n        /* \"--CODEGEN--\":5:16   */\n      lt\n        /* \"--CODEGEN--\":2:4   */\n      iszero\n      tag_107\n      jumpi\n        /* \"--CODEGEN--\":29:30   */\n      0x00\n        /* \"--CODEGEN--\":26:27   */\n      dup1\n        /* \"--CODEGEN--\":19:31   */\n      revert\n        /* \"--CODEGEN--\":2:4   */\n    tag_107:\n        /* \"TimeAllySIP.sol\":15542:15586  token.transfer(msg.sender, _withdrawlAmount) */\n      dup2\n      add\n      swap1\n      dup1\n      dup1\n      mload\n      swap1\n      0x20\n      add\n      swap1\n      swap3\n      swap2\n      swap1\n      pop\n      pop\n      pop\n      pop\n        /* \"TimeAllySIP.sol\":15696:15702  _sipId */\n      dup8\n        /* \"TimeAllySIP.sol\":15674:15688  _stakerAddress */\n      dup10\n        /* \"TimeAllySIP.sol\":15650:15808  BenefitWithdrawl(... */\n      0xffffffffffffffffffffffffffffffffffffffff\n      and\n      0x8f4915db3c6bafb045a8ca029a06c4d1638daddb07e111ed35abf34f81b6a855\n        /* \"TimeAllySIP.sol\":15734:15735  1 */\n      0x01\n        /* \"TimeAllySIP.sol\":15710:15731  _lastWithdrawlMonthId */\n      dup5\n        /* \"TimeAllySIP.sol\":15710:15735  _lastWithdrawlMonthId + 1 */\n      add\n        /* \"TimeAllySIP.sol\":15743:15760  _withdrawlmonthId */\n      dup11\n        /* \"TimeAllySIP.sol\":15768:15784  _withdrawlAmount */\n      dup8\n        /* \"TimeAllySIP.sol\":15792:15802  msg.sender */\n      caller\n        /* \"TimeAllySIP.sol\":15650:15808  BenefitWithdrawl(... */\n      mload(0x40)\n      dup1\n      dup6\n      dup2\n      mstore\n      0x20\n      add\n      dup5\n      dup2\n      mstore\n      0x20\n      add\n      dup4\n      dup2\n      mstore\n      0x20\n      add\n      dup3\n      0xffffffffffffffffffffffffffffffffffffffff\n      and\n      0xffffffffffffffffffffffffffffffffffffffff\n      and\n      dup2\n      mstore\n      0x20\n      add\n      swap5\n      pop\n      pop\n      pop\n      pop\n      pop\n      mload(0x40)\n      dup1\n      swap2\n      sub\n      swap1\n      log3\n        /* \"TimeAllySIP.sol\":5939:5940  _ */\n      pop\n      pop\n      pop\n        /* \"TimeAllySIP.sol\":14569:15813  function withdrawBenefit(... */\n      pop\n      pop\n      pop\n      pop\n      pop\n      pop\n      jump\t// out\n        /* \"TimeAllySIP.sol\":19497:19872  function toogleNominee(... */\n    tag_34:\n        /* \"TimeAllySIP.sol\":19708:19725  _newNomineeStatus */\n      dup1\n        /* \"TimeAllySIP.sol\":19655:19659  sips */\n      0x06\n        /* \"TimeAllySIP.sol\":19655:19671  sips[msg.sender] */\n      0x00\n        /* \"TimeAllySIP.sol\":19660:19670  msg.sender */\n      caller\n        /* \"TimeAllySIP.sol\":19655:19671  sips[msg.sender] */\n      0xffffffffffffffffffffffffffffffffffffffff\n      and\n      0xffffffffffffffffffffffffffffffffffffffff\n      and\n      dup2\n      mstore\n      0x20\n      add\n      swap1\n      dup2\n      mstore\n      0x20\n      add\n      0x00\n      keccak256\n        /* \"TimeAllySIP.sol\":19672:19678  _sipId */\n      dup5\n        /* \"TimeAllySIP.sol\":19655:19679  sips[msg.sender][_sipId] */\n      dup2\n      sload\n      dup2\n      lt\n      tag_109\n      jumpi\n      invalid\n    tag_109:\n      swap1\n      0x00\n      mstore\n      keccak256(0x00, 0x20)\n      swap1\n      0x0b\n      mul\n      add\n        /* \"TimeAllySIP.sol\":19655:19688  sips[msg.sender][_sipId].nominees */\n      0x09\n      add\n        /* \"TimeAllySIP.sol\":19655:19705  sips[msg.sender][_sipId].nominees[_nomineeAddress] */\n      0x00\n        /* \"TimeAllySIP.sol\":19689:19704  _nomineeAddress */\n      dup5\n        /* \"TimeAllySIP.sol\":19655:19705  sips[msg.sender][_sipId].nominees[_nomineeAddress] */\n      0xffffffffffffffffffffffffffffffffffffffff\n      and\n      0xffffffffffffffffffffffffffffffffffffffff\n      and\n      dup2\n      mstore\n      0x20\n      add\n      swap1\n      dup2\n      mstore\n      0x20\n      add\n      0x00\n      keccak256\n      0x00\n        /* \"TimeAllySIP.sol\":19655:19725  sips[msg.sender][_sipId].nominees[_nomineeAddress] = _newNomineeStatus */\n      0x0100\n      exp\n      dup2\n      sload\n      dup2\n      0xff\n      mul\n      not\n      and\n      swap1\n      dup4\n      iszero\n      iszero\n      mul\n      or\n      swap1\n      sstore\n      pop\n        /* \"TimeAllySIP.sol\":19832:19847  _nomineeAddress */\n      dup2\n        /* \"TimeAllySIP.sol\":19797:19867  NomineeUpdated(msg.sender, _sipId, _nomineeAddress, _newNomineeStatus) */\n      0xffffffffffffffffffffffffffffffffffffffff\n      and\n        /* \"TimeAllySIP.sol\":19824:19830  _sipId */\n      dup4\n        /* \"TimeAllySIP.sol\":19812:19822  msg.sender */\n      caller\n        /* \"TimeAllySIP.sol\":19797:19867  NomineeUpdated(msg.sender, _sipId, _nomineeAddress, _newNomineeStatus) */\n      0xffffffffffffffffffffffffffffffffffffffff\n      and\n      0x90e4568f920d8bb093366a04150aa0d04957a471196f5e1cdfb0db3cb83cc5b0\n        /* \"TimeAllySIP.sol\":19849:19866  _newNomineeStatus */\n      dup5\n        /* \"TimeAllySIP.sol\":19797:19867  NomineeUpdated(msg.sender, _sipId, _nomineeAddress, _newNomineeStatus) */\n      mload(0x40)\n      dup1\n      dup3\n      iszero\n      iszero\n      iszero\n      iszero\n      dup2\n      mstore\n      0x20\n      add\n      swap2\n      pop\n      pop\n      mload(0x40)\n      dup1\n      swap2\n      sub\n      swap1\n      log4\n        /* \"TimeAllySIP.sol\":19497:19872  function toogleNominee(... */\n      pop\n      pop\n      pop\n      jump\t// out\n        /* \"TimeAllySIP.sol\":2697:2744  uint256 public EARTH_SECONDS_IN_MONTH = 2629744 */\n    tag_36:\n      sload(0x02)\n      dup2\n      jump\t// out\n        /* \"TimeAllySIP.sol\":3269:3296  uint256 public fundsDeposit */\n    tag_38:\n      sload(0x04)\n      dup2\n      jump\t// out\n        /* \"TimeAllySIP.sol\":8494:9054  function withdrawFunds(uint256 _withdrawlAmount) public onlyOwner {... */\n    tag_41:\n        /* \"TimeAllySIP.sol\":5494:5499  owner */\n      0x00\n      dup1\n      swap1\n      sload\n      swap1\n      0x0100\n      exp\n      swap1\n      div\n      0xffffffffffffffffffffffffffffffffffffffff\n      and\n        /* \"TimeAllySIP.sol\":5480:5499  msg.sender == owner */\n      0xffffffffffffffffffffffffffffffffffffffff\n      and\n        /* \"TimeAllySIP.sol\":5480:5490  msg.sender */\n      caller\n        /* \"TimeAllySIP.sol\":5480:5499  msg.sender == owner */\n      0xffffffffffffffffffffffffffffffffffffffff\n      and\n      eq\n        /* \"TimeAllySIP.sol\":5472:5526  require(msg.sender == owner, 'only deployer can call') */\n      tag_112\n      jumpi\n      mload(0x40)\n      0x08c379a000000000000000000000000000000000000000000000000000000000\n      dup2\n      mstore\n      0x04\n      add\n      dup1\n      dup1\n      0x20\n      add\n      dup3\n      dup2\n      sub\n      dup3\n      mstore\n      0x16\n      dup2\n      mstore\n      0x20\n      add\n      dup1\n      0x6f6e6c79206465706c6f7965722063616e2063616c6c00000000000000000000\n      dup2\n      mstore\n      pop\n      0x20\n      add\n      swap2\n      pop\n      pop\n      mload(0x40)\n      dup1\n      swap2\n      sub\n      swap1\n      revert\n    tag_112:\n        /* \"TimeAllySIP.sol\":8696:8712  _withdrawlAmount */\n      dup1\n        /* \"TimeAllySIP.sol\":8642:8692  fundsDeposit.sub(pendingBenefitAmountOfAllStakers) */\n      tag_114\n        /* \"TimeAllySIP.sol\":8659:8691  pendingBenefitAmountOfAllStakers */\n      sload(0x03)\n        /* \"TimeAllySIP.sol\":8642:8654  fundsDeposit */\n      sload(0x04)\n        /* \"TimeAllySIP.sol\":8642:8658  fundsDeposit.sub */\n      tag_103\n      swap1\n        /* \"TimeAllySIP.sol\":8642:8692  fundsDeposit.sub(pendingBenefitAmountOfAllStakers) */\n      swap2\n      swap1\n      0xffffffff\n      and\n      jump\t// in\n    tag_114:\n        /* \"TimeAllySIP.sol\":8642:8712  fundsDeposit.sub(pendingBenefitAmountOfAllStakers) >= _withdrawlAmount */\n      lt\n      iszero\n        /* \"TimeAllySIP.sol\":8627:8757  require(... */\n      tag_115\n      jumpi\n      mload(0x40)\n      0x08c379a000000000000000000000000000000000000000000000000000000000\n      dup2\n      mstore\n      0x04\n      add\n      dup1\n      dup1\n      0x20\n      add\n      dup3\n      dup2\n      sub\n      dup3\n      mstore\n      0x1c\n      dup2\n      mstore\n      0x20\n      add\n      dup1\n      0x63616e6e6f74207769746864726177206578636573732066756e647300000000\n      dup2\n      mstore\n      pop\n      0x20\n      add\n      swap2\n      pop\n      pop\n      mload(0x40)\n      dup1\n      swap2\n      sub\n      swap1\n      revert\n    tag_115:\n        /* \"TimeAllySIP.sol\":8828:8862  fundsDeposit.sub(_withdrawlAmount) */\n      tag_116\n        /* \"TimeAllySIP.sol\":8845:8861  _withdrawlAmount */\n      dup2\n        /* \"TimeAllySIP.sol\":8828:8840  fundsDeposit */\n      sload(0x04)\n        /* \"TimeAllySIP.sol\":8828:8844  fundsDeposit.sub */\n      tag_103\n      swap1\n        /* \"TimeAllySIP.sol\":8828:8862  fundsDeposit.sub(_withdrawlAmount) */\n      swap2\n      swap1\n      0xffffffff\n      and\n      jump\t// in\n    tag_116:\n        /* \"TimeAllySIP.sol\":8813:8825  fundsDeposit */\n      0x04\n        /* \"TimeAllySIP.sol\":8813:8862  fundsDeposit = fundsDeposit.sub(_withdrawlAmount) */\n      dup2\n      swap1\n      sstore\n      pop\n        /* \"TimeAllySIP.sol\":8915:8920  token */\n      0x01\n      0x00\n      swap1\n      sload\n      swap1\n      0x0100\n      exp\n      swap1\n      div\n      0xffffffffffffffffffffffffffffffffffffffff\n      and\n        /* \"TimeAllySIP.sol\":8915:8929  token.transfer */\n      0xffffffffffffffffffffffffffffffffffffffff\n      and\n      0xa9059cbb\n        /* \"TimeAllySIP.sol\":8930:8940  msg.sender */\n      caller\n        /* \"TimeAllySIP.sol\":8942:8958  _withdrawlAmount */\n      dup4\n        /* \"TimeAllySIP.sol\":8915:8959  token.transfer(msg.sender, _withdrawlAmount) */\n      mload(0x40)\n      dup4\n      0xffffffff\n      and\n      0xe0\n      shl\n      dup2\n      mstore\n      0x04\n      add\n      dup1\n      dup4\n      0xffffffffffffffffffffffffffffffffffffffff\n      and\n      0xffffffffffffffffffffffffffffffffffffffff\n      and\n      dup2\n      mstore\n      0x20\n      add\n      dup3\n      dup2\n      mstore\n      0x20\n      add\n      swap3\n      pop\n      pop\n      pop\n      0x20\n      mload(0x40)\n      dup1\n      dup4\n      sub\n      dup2\n      0x00\n      dup8\n      dup1\n      extcodesize\n      iszero\n        /* \"--CODEGEN--\":8:17   */\n      dup1\n        /* \"--CODEGEN--\":5:7   */\n      iszero\n      tag_117\n      jumpi\n        /* \"--CODEGEN--\":30:31   */\n      0x00\n        /* \"--CODEGEN--\":27:28   */\n      dup1\n        /* \"--CODEGEN--\":20:32   */\n      revert\n        /* \"--CODEGEN--\":5:7   */\n    tag_117:\n        /* \"TimeAllySIP.sol\":8915:8959  token.transfer(msg.sender, _withdrawlAmount) */\n      pop\n      gas\n      call\n      iszero\n        /* \"--CODEGEN--\":8:17   */\n      dup1\n        /* \"--CODEGEN--\":5:7   */\n      iszero\n      tag_118\n      jumpi\n        /* \"--CODEGEN--\":45:61   */\n      returndatasize\n        /* \"--CODEGEN--\":42:43   */\n      0x00\n        /* \"--CODEGEN--\":39:40   */\n      dup1\n        /* \"--CODEGEN--\":24:62   */\n      returndatacopy\n        /* \"--CODEGEN--\":77:93   */\n      returndatasize\n        /* \"--CODEGEN--\":74:75   */\n      0x00\n        /* \"--CODEGEN--\":67:94   */\n      revert\n        /* \"--CODEGEN--\":5:7   */\n    tag_118:\n        /* \"TimeAllySIP.sol\":8915:8959  token.transfer(msg.sender, _withdrawlAmount) */\n      pop\n      pop\n      pop\n      pop\n      mload(0x40)\n      returndatasize\n        /* \"--CODEGEN--\":13:15   */\n      0x20\n        /* \"--CODEGEN--\":8:11   */\n      dup2\n        /* \"--CODEGEN--\":5:16   */\n      lt\n        /* \"--CODEGEN--\":2:4   */\n      iszero\n      tag_119\n      jumpi\n        /* \"--CODEGEN--\":29:30   */\n      0x00\n        /* \"--CODEGEN--\":26:27   */\n      dup1\n        /* \"--CODEGEN--\":19:31   */\n      revert\n        /* \"--CODEGEN--\":2:4   */\n    tag_119:\n        /* \"TimeAllySIP.sol\":8915:8959  token.transfer(msg.sender, _withdrawlAmount) */\n      dup2\n      add\n      swap1\n      dup1\n      dup1\n      mload\n      swap1\n      0x20\n      add\n      swap1\n      swap3\n      swap2\n      swap1\n      pop\n      pop\n      pop\n      pop\n        /* \"TimeAllySIP.sol\":9017:9049  FundsWithdrawn(_withdrawlAmount) */\n      0x4a37b25aab49761ecf63117fe82b98d750917451133cf797507bc9fb5b96044a\n        /* \"TimeAllySIP.sol\":9032:9048  _withdrawlAmount */\n      dup2\n        /* \"TimeAllySIP.sol\":9017:9049  FundsWithdrawn(_withdrawlAmount) */\n      mload(0x40)\n      dup1\n      dup3\n      dup2\n      mstore\n      0x20\n      add\n      swap2\n      pop\n      pop\n      mload(0x40)\n      dup1\n      swap2\n      sub\n      swap1\n      log1\n        /* \"TimeAllySIP.sol\":8494:9054  function withdrawFunds(uint256 _withdrawlAmount) public onlyOwner {... */\n      pop\n      jump\t// out\n        /* \"TimeAllySIP.sol\":2941:2988  uint256 public pendingBenefitAmountOfAllStakers */\n    tag_43:\n      sload(0x03)\n      dup2\n      jump\t// out\n        /* \"TimeAllySIP.sol\":16060:19204  function withdrawPowerBooster(... */\n    tag_46:\n        /* \"TimeAllySIP.sol\":16161:16175  _stakerAddress */\n      dup2\n        /* \"TimeAllySIP.sol\":16177:16183  _sipId */\n      dup2\n        /* \"TimeAllySIP.sol\":5689:5705  SIP storage _sip */\n      0x00\n        /* \"TimeAllySIP.sol\":5708:5712  sips */\n      0x06\n        /* \"TimeAllySIP.sol\":5708:5728  sips[_stakerAddress] */\n      0x00\n        /* \"TimeAllySIP.sol\":5713:5727  _stakerAddress */\n      dup5\n        /* \"TimeAllySIP.sol\":5708:5728  sips[_stakerAddress] */\n      0xffffffffffffffffffffffffffffffffffffffff\n      and\n      0xffffffffffffffffffffffffffffffffffffffff\n      and\n      dup2\n      mstore\n      0x20\n      add\n      swap1\n      dup2\n      mstore\n      0x20\n      add\n      0x00\n      keccak256\n        /* \"TimeAllySIP.sol\":5729:5735  _sipId */\n      dup3\n        /* \"TimeAllySIP.sol\":5708:5736  sips[_stakerAddress][_sipId] */\n      dup2\n      sload\n      dup2\n      lt\n      tag_121\n      jumpi\n      invalid\n    tag_121:\n      swap1\n      0x00\n      mstore\n      keccak256(0x00, 0x20)\n      swap1\n      0x0b\n      mul\n      add\n        /* \"TimeAllySIP.sol\":5689:5736  SIP storage _sip = sips[_stakerAddress][_sipId] */\n      swap1\n      pop\n        /* \"TimeAllySIP.sol\":5839:5853  _stakerAddress */\n      dup3\n        /* \"TimeAllySIP.sol\":5825:5853  msg.sender != _stakerAddress */\n      0xffffffffffffffffffffffffffffffffffffffff\n      and\n        /* \"TimeAllySIP.sol\":5825:5835  msg.sender */\n      caller\n        /* \"TimeAllySIP.sol\":5825:5853  msg.sender != _stakerAddress */\n      0xffffffffffffffffffffffffffffffffffffffff\n      and\n      eq\n        /* \"TimeAllySIP.sol\":5822:5934  if(msg.sender != _stakerAddress) {... */\n      tag_123\n      jumpi\n        /* \"TimeAllySIP.sol\":5871:5875  _sip */\n      dup1\n        /* \"TimeAllySIP.sol\":5871:5884  _sip.nominees */\n      0x09\n      add\n        /* \"TimeAllySIP.sol\":5871:5896  _sip.nominees[msg.sender] */\n      0x00\n        /* \"TimeAllySIP.sol\":5885:5895  msg.sender */\n      caller\n        /* \"TimeAllySIP.sol\":5871:5896  _sip.nominees[msg.sender] */\n      0xffffffffffffffffffffffffffffffffffffffff\n      and\n      0xffffffffffffffffffffffffffffffffffffffff\n      and\n      dup2\n      mstore\n      0x20\n      add\n      swap1\n      dup2\n      mstore\n      0x20\n      add\n      0x00\n      keccak256\n      0x00\n      swap1\n      sload\n      swap1\n      0x0100\n      exp\n      swap1\n      div\n      0xff\n      and\n        /* \"TimeAllySIP.sol\":5863:5927  require(_sip.nominees[msg.sender], 'nomination should be there') */\n      tag_124\n      jumpi\n      mload(0x40)\n      0x08c379a000000000000000000000000000000000000000000000000000000000\n      dup2\n      mstore\n      0x04\n      add\n      dup1\n      dup1\n      0x20\n      add\n      dup3\n      dup2\n      sub\n      dup3\n      mstore\n      0x1a\n      dup2\n      mstore\n      0x20\n      add\n      dup1\n      0x6e6f6d696e6174696f6e2073686f756c64206265207468657265000000000000\n      dup2\n      mstore\n      pop\n      0x20\n      add\n      swap2\n      pop\n      pop\n      mload(0x40)\n      dup1\n      swap2\n      sub\n      swap1\n      revert\n    tag_124:\n        /* \"TimeAllySIP.sol\":5822:5934  if(msg.sender != _stakerAddress) {... */\n    tag_123:\n        /* \"TimeAllySIP.sol\":16191:16207  SIP storage _sip */\n      0x00\n        /* \"TimeAllySIP.sol\":16210:16214  sips */\n      0x06\n        /* \"TimeAllySIP.sol\":16210:16230  sips[_stakerAddress] */\n      0x00\n        /* \"TimeAllySIP.sol\":16215:16229  _stakerAddress */\n      dup8\n        /* \"TimeAllySIP.sol\":16210:16230  sips[_stakerAddress] */\n      0xffffffffffffffffffffffffffffffffffffffff\n      and\n      0xffffffffffffffffffffffffffffffffffffffff\n      and\n      dup2\n      mstore\n      0x20\n      add\n      swap1\n      dup2\n      mstore\n      0x20\n      add\n      0x00\n      keccak256\n        /* \"TimeAllySIP.sol\":16231:16237  _sipId */\n      dup6\n        /* \"TimeAllySIP.sol\":16210:16238  sips[_stakerAddress][_sipId] */\n      dup2\n      sload\n      dup2\n      lt\n      tag_126\n      jumpi\n      invalid\n    tag_126:\n      swap1\n      0x00\n      mstore\n      keccak256(0x00, 0x20)\n      swap1\n      0x0b\n      mul\n      add\n        /* \"TimeAllySIP.sol\":16191:16238  SIP storage _sip = sips[_stakerAddress][_sipId] */\n      swap1\n      pop\n        /* \"TimeAllySIP.sol\":16366:16393  uint256 _powerBoosterSerial */\n      0x00\n        /* \"TimeAllySIP.sol\":16426:16427  1 */\n      0x01\n        /* \"TimeAllySIP.sol\":16396:16400  _sip */\n      dup3\n        /* \"TimeAllySIP.sol\":16396:16423  _sip.powerBoosterWithdrawls */\n      0x05\n      add\n      sload\n        /* \"TimeAllySIP.sol\":16396:16427  _sip.powerBoosterWithdrawls + 1 */\n      add\n        /* \"TimeAllySIP.sol\":16366:16427  uint256 _powerBoosterSerial = _sip.powerBoosterWithdrawls + 1 */\n      swap1\n      pop\n        /* \"TimeAllySIP.sol\":16521:16522  3 */\n      0x03\n        /* \"TimeAllySIP.sol\":16498:16517  _powerBoosterSerial */\n      dup2\n        /* \"TimeAllySIP.sol\":16498:16522  _powerBoosterSerial <= 3 */\n      gt\n      iszero\n        /* \"TimeAllySIP.sol\":16490:16548  require(_powerBoosterSerial <= 3, 'only 3 power boosters') */\n      tag_128\n      jumpi\n      mload(0x40)\n      0x08c379a000000000000000000000000000000000000000000000000000000000\n      dup2\n      mstore\n      0x04\n      add\n      dup1\n      dup1\n      0x20\n      add\n      dup3\n      dup2\n      sub\n      dup3\n      mstore\n      0x15\n      dup2\n      mstore\n      0x20\n      add\n      dup1\n      0x6f6e6c79203320706f77657220626f6f73746572730000000000000000000000\n      dup2\n      mstore\n      pop\n      0x20\n      add\n      swap2\n      pop\n      pop\n      mload(0x40)\n      dup1\n      swap2\n      sub\n      swap1\n      revert\n    tag_128:\n        /* \"TimeAllySIP.sol\":16658:16683  uint256 _allowedTimestamp */\n      0x00\n        /* \"TimeAllySIP.sol\":16899:16921  EARTH_SECONDS_IN_MONTH */\n      sload(0x02)\n        /* \"TimeAllySIP.sol\":16895:16896  3 */\n      0x03\n        /* \"TimeAllySIP.sol\":16873:16892  _powerBoosterSerial */\n      dup4\n        /* \"TimeAllySIP.sol\":16848:16870  EARTH_SECONDS_IN_MONTH */\n      sload(0x02)\n        /* \"TimeAllySIP.sol\":16843:16845  12 */\n      0x0c\n        /* \"TimeAllySIP.sol\":16798:16806  sipPlans */\n      0x05\n        /* \"TimeAllySIP.sol\":16808:16812  _sip */\n      dup9\n        /* \"TimeAllySIP.sol\":16808:16819  _sip.planId */\n      0x00\n      add\n      sload\n        /* \"TimeAllySIP.sol\":16798:16821  sipPlans[ _sip.planId ] */\n      dup2\n      sload\n      dup2\n      lt\n      tag_129\n      jumpi\n      invalid\n    tag_129:\n      swap1\n      0x00\n      mstore\n      keccak256(0x00, 0x20)\n      swap1\n      0x08\n      mul\n      add\n        /* \"TimeAllySIP.sol\":16798:16840  sipPlans[ _sip.planId ].benefitPeriodYears */\n      0x03\n      add\n      sload\n        /* \"TimeAllySIP.sol\":16798:16845  sipPlans[ _sip.planId ].benefitPeriodYears * 12 */\n      mul\n        /* \"TimeAllySIP.sol\":16798:16870  sipPlans[ _sip.planId ].benefitPeriodYears * 12 * EARTH_SECONDS_IN_MONTH */\n      mul\n        /* \"TimeAllySIP.sol\":16798:16892  sipPlans[ _sip.planId ].benefitPeriodYears * 12 * EARTH_SECONDS_IN_MONTH * _powerBoosterSerial */\n      mul\n        /* \"TimeAllySIP.sol\":16798:16896  sipPlans[ _sip.planId ].benefitPeriodYears * 12 * EARTH_SECONDS_IN_MONTH * _powerBoosterSerial / 3 */\n      dup2\n      tag_131\n      jumpi\n      invalid\n    tag_131:\n      div\n        /* \"TimeAllySIP.sol\":16767:16789  EARTH_SECONDS_IN_MONTH */\n      sload(0x02)\n        /* \"TimeAllySIP.sol\":16716:16724  sipPlans */\n      0x05\n        /* \"TimeAllySIP.sol\":16726:16730  _sip */\n      dup7\n        /* \"TimeAllySIP.sol\":16726:16737  _sip.planId */\n      0x00\n      add\n      sload\n        /* \"TimeAllySIP.sol\":16716:16739  sipPlans[ _sip.planId ] */\n      dup2\n      sload\n      dup2\n      lt\n      tag_132\n      jumpi\n      invalid\n    tag_132:\n      swap1\n      0x00\n      mstore\n      keccak256(0x00, 0x20)\n      swap1\n      0x08\n      mul\n      add\n        /* \"TimeAllySIP.sol\":16716:16764  sipPlans[ _sip.planId ].accumulationPeriodMonths */\n      0x02\n      add\n      sload\n        /* \"TimeAllySIP.sol\":16716:16789  sipPlans[ _sip.planId ].accumulationPeriodMonths * EARTH_SECONDS_IN_MONTH */\n      mul\n        /* \"TimeAllySIP.sol\":16686:16690  _sip */\n      dup6\n        /* \"TimeAllySIP.sol\":16686:16707  _sip.stakingTimestamp */\n      0x01\n      add\n      sload\n        /* \"TimeAllySIP.sol\":16686:16789  _sip.stakingTimestamp... */\n      add\n        /* \"TimeAllySIP.sol\":16686:16896  _sip.stakingTimestamp... */\n      add\n        /* \"TimeAllySIP.sol\":16686:16921  _sip.stakingTimestamp... */\n      sub\n        /* \"TimeAllySIP.sol\":16658:16921  uint256 _allowedTimestamp = _sip.stakingTimestamp... */\n      swap1\n      pop\n        /* \"TimeAllySIP.sol\":17003:17017  _stakerAddress */\n      dup8\n        /* \"TimeAllySIP.sol\":16989:17017  msg.sender != _stakerAddress */\n      0xffffffffffffffffffffffffffffffffffffffff\n      and\n        /* \"TimeAllySIP.sol\":16989:16999  msg.sender */\n      caller\n        /* \"TimeAllySIP.sol\":16989:17017  msg.sender != _stakerAddress */\n      0xffffffffffffffffffffffffffffffffffffffff\n      and\n      eq\n        /* \"TimeAllySIP.sol\":16986:17391  if(msg.sender != _stakerAddress) {... */\n      tag_134\n      jumpi\n        /* \"TimeAllySIP.sol\":17052:17082  _sip.numberOfAppointees.div(2) */\n      tag_135\n        /* \"TimeAllySIP.sol\":17080:17081  2 */\n      0x02\n        /* \"TimeAllySIP.sol\":17052:17056  _sip */\n      dup5\n        /* \"TimeAllySIP.sol\":17052:17075  _sip.numberOfAppointees */\n      0x06\n      add\n      sload\n        /* \"TimeAllySIP.sol\":17052:17079  _sip.numberOfAppointees.div */\n      tag_136\n      swap1\n        /* \"TimeAllySIP.sol\":17052:17082  _sip.numberOfAppointees.div(2) */\n      swap2\n      swap1\n      0xffffffff\n      and\n      jump\t// in\n    tag_135:\n        /* \"TimeAllySIP.sol\":17030:17034  _sip */\n      dup4\n        /* \"TimeAllySIP.sol\":17030:17049  _sip.appointeeVotes */\n      0x07\n      add\n      sload\n        /* \"TimeAllySIP.sol\":17030:17082  _sip.appointeeVotes > _sip.numberOfAppointees.div(2) */\n      gt\n        /* \"TimeAllySIP.sol\":17027:17385  if(_sip.appointeeVotes > _sip.numberOfAppointees.div(2)) {... */\n      iszero\n      tag_137\n      jumpi\n        /* \"TimeAllySIP.sol\":17222:17223  6 */\n      0x06\n        /* \"TimeAllySIP.sol\":17197:17219  EARTH_SECONDS_IN_MONTH */\n      sload(0x02)\n        /* \"TimeAllySIP.sol\":17197:17223  EARTH_SECONDS_IN_MONTH * 6 */\n      mul\n        /* \"TimeAllySIP.sol\":17176:17223  _allowedTimestamp += EARTH_SECONDS_IN_MONTH * 6 */\n      dup2\n      add\n      swap1\n      pop\n        /* \"TimeAllySIP.sol\":17027:17385  if(_sip.appointeeVotes > _sip.numberOfAppointees.div(2)) {... */\n      jump(tag_138)\n    tag_137:\n        /* \"TimeAllySIP.sol\":17374:17376  12 */\n      0x0c\n        /* \"TimeAllySIP.sol\":17349:17371  EARTH_SECONDS_IN_MONTH */\n      sload(0x02)\n        /* \"TimeAllySIP.sol\":17349:17376  EARTH_SECONDS_IN_MONTH * 12 */\n      mul\n        /* \"TimeAllySIP.sol\":17328:17376  _allowedTimestamp += EARTH_SECONDS_IN_MONTH * 12 */\n      dup2\n      add\n      swap1\n      pop\n        /* \"TimeAllySIP.sol\":17027:17385  if(_sip.appointeeVotes > _sip.numberOfAppointees.div(2)) {... */\n    tag_138:\n        /* \"TimeAllySIP.sol\":16986:17391  if(msg.sender != _stakerAddress) {... */\n    tag_134:\n        /* \"TimeAllySIP.sol\":17455:17472  _allowedTimestamp */\n      dup1\n        /* \"TimeAllySIP.sol\":17449:17452  now */\n      timestamp\n        /* \"TimeAllySIP.sol\":17449:17472  now > _allowedTimestamp */\n      gt\n        /* \"TimeAllySIP.sol\":17441:17498  require(now > _allowedTimestamp, 'cannot withdraw early') */\n      tag_139\n      jumpi\n      mload(0x40)\n      0x08c379a000000000000000000000000000000000000000000000000000000000\n      dup2\n      mstore\n      0x04\n      add\n      dup1\n      dup1\n      0x20\n      add\n      dup3\n      dup2\n      sub\n      dup3\n      mstore\n      0x15\n      dup2\n      mstore\n      0x20\n      add\n      dup1\n      0x63616e6e6f74207769746864726177206561726c790000000000000000000000\n      dup2\n      mstore\n      pop\n      0x20\n      add\n      swap2\n      pop\n      pop\n      mload(0x40)\n      dup1\n      swap2\n      sub\n      swap1\n      revert\n    tag_139:\n        /* \"TimeAllySIP.sol\":17591:17610  _powerBoosterSerial */\n      dup2\n        /* \"TimeAllySIP.sol\":17561:17565  _sip */\n      dup4\n        /* \"TimeAllySIP.sol\":17561:17588  _sip.powerBoosterWithdrawls */\n      0x05\n      add\n        /* \"TimeAllySIP.sol\":17561:17610  _sip.powerBoosterWithdrawls = _powerBoosterSerial */\n      dup2\n      swap1\n      sstore\n      pop\n        /* \"TimeAllySIP.sol\":17666:17693  uint256 _powerBoosterAmount */\n      0x00\n        /* \"TimeAllySIP.sol\":17696:17722  _sip.totalDeposited.div(3) */\n      tag_140\n        /* \"TimeAllySIP.sol\":17720:17721  3 */\n      0x03\n        /* \"TimeAllySIP.sol\":17696:17700  _sip */\n      dup6\n        /* \"TimeAllySIP.sol\":17696:17715  _sip.totalDeposited */\n      0x03\n      add\n      sload\n        /* \"TimeAllySIP.sol\":17696:17719  _sip.totalDeposited.div */\n      tag_136\n      swap1\n        /* \"TimeAllySIP.sol\":17696:17722  _sip.totalDeposited.div(3) */\n      swap2\n      swap1\n      0xffffffff\n      and\n      jump\t// in\n    tag_140:\n        /* \"TimeAllySIP.sol\":17666:17722  uint256 _powerBoosterAmount = _sip.totalDeposited.div(3) */\n      swap1\n      pop\n        /* \"TimeAllySIP.sol\":17849:17850  1 */\n      0x01\n        /* \"TimeAllySIP.sol\":17826:17845  _powerBoosterSerial */\n      dup4\n        /* \"TimeAllySIP.sol\":17826:17850  _powerBoosterSerial == 1 */\n      eq\n        /* \"TimeAllySIP.sol\":17823:18882  if(_powerBoosterSerial == 1) {... */\n      iszero\n      tag_141\n      jumpi\n        /* \"TimeAllySIP.sol\":17860:17887  uint256 _totalPenaltyFactor */\n      0x00\n        /* \"TimeAllySIP.sol\":17899:17908  uint256 i */\n      dup1\n        /* \"TimeAllySIP.sol\":17911:17912  1 */\n      0x01\n        /* \"TimeAllySIP.sol\":17899:17912  uint256 i = 1 */\n      swap1\n      pop\n        /* \"TimeAllySIP.sol\":17895:18327  for(uint256 i = 1; i <= sipPlans[ _sip.planId ].accumulationPeriodMonths; i++) {... */\n    tag_142:\n        /* \"TimeAllySIP.sol\":17919:17927  sipPlans */\n      0x05\n        /* \"TimeAllySIP.sol\":17929:17933  _sip */\n      dup7\n        /* \"TimeAllySIP.sol\":17929:17940  _sip.planId */\n      0x00\n      add\n      sload\n        /* \"TimeAllySIP.sol\":17919:17942  sipPlans[ _sip.planId ] */\n      dup2\n      sload\n      dup2\n      lt\n      tag_145\n      jumpi\n      invalid\n    tag_145:\n      swap1\n      0x00\n      mstore\n      keccak256(0x00, 0x20)\n      swap1\n      0x08\n      mul\n      add\n        /* \"TimeAllySIP.sol\":17919:17967  sipPlans[ _sip.planId ].accumulationPeriodMonths */\n      0x02\n      add\n      sload\n        /* \"TimeAllySIP.sol\":17914:17915  i */\n      dup2\n        /* \"TimeAllySIP.sol\":17914:17967  i <= sipPlans[ _sip.planId ].accumulationPeriodMonths */\n      gt\n        /* \"TimeAllySIP.sol\":17895:18327  for(uint256 i = 1; i <= sipPlans[ _sip.planId ].accumulationPeriodMonths; i++) {... */\n      tag_143\n      jumpi\n        /* \"TimeAllySIP.sol\":18012:18013  0 */\n      0x00\n        /* \"TimeAllySIP.sol\":17987:17991  _sip */\n      dup7\n        /* \"TimeAllySIP.sol\":17987:18005  _sip.depositStatus */\n      0x08\n      add\n        /* \"TimeAllySIP.sol\":17987:18008  _sip.depositStatus[i] */\n      0x00\n        /* \"TimeAllySIP.sol\":18006:18007  i */\n      dup4\n        /* \"TimeAllySIP.sol\":17987:18008  _sip.depositStatus[i] */\n      dup2\n      mstore\n      0x20\n      add\n      swap1\n      dup2\n      mstore\n      0x20\n      add\n      0x00\n      keccak256\n      sload\n        /* \"TimeAllySIP.sol\":17987:18013  _sip.depositStatus[i] == 0 */\n      eq\n        /* \"TimeAllySIP.sol\":17984:18319  if(_sip.depositStatus[i] == 0) {... */\n      iszero\n      tag_147\n      jumpi\n        /* \"TimeAllySIP.sol\":18093:18101  sipPlans */\n      0x05\n        /* \"TimeAllySIP.sol\":18103:18107  _sip */\n      dup7\n        /* \"TimeAllySIP.sol\":18103:18114  _sip.planId */\n      0x00\n      add\n      sload\n        /* \"TimeAllySIP.sol\":18093:18116  sipPlans[ _sip.planId ] */\n      dup2\n      sload\n      dup2\n      lt\n      tag_148\n      jumpi\n      invalid\n    tag_148:\n      swap1\n      0x00\n      mstore\n      keccak256(0x00, 0x20)\n      swap1\n      0x08\n      mul\n      add\n        /* \"TimeAllySIP.sol\":18093:18137  sipPlans[ _sip.planId ].defaultPenaltyFactor */\n      0x07\n      add\n      sload\n        /* \"TimeAllySIP.sol\":18070:18137  _totalPenaltyFactor += sipPlans[ _sip.planId ].defaultPenaltyFactor */\n      dup3\n      add\n      swap2\n      pop\n        /* \"TimeAllySIP.sol\":17984:18319  if(_sip.depositStatus[i] == 0) {... */\n      jump(tag_150)\n    tag_147:\n        /* \"TimeAllySIP.sol\":18182:18183  1 */\n      0x01\n        /* \"TimeAllySIP.sol\":18157:18161  _sip */\n      dup7\n        /* \"TimeAllySIP.sol\":18157:18175  _sip.depositStatus */\n      0x08\n      add\n        /* \"TimeAllySIP.sol\":18157:18178  _sip.depositStatus[i] */\n      0x00\n        /* \"TimeAllySIP.sol\":18176:18177  i */\n      dup4\n        /* \"TimeAllySIP.sol\":18157:18178  _sip.depositStatus[i] */\n      dup2\n      mstore\n      0x20\n      add\n      swap1\n      dup2\n      mstore\n      0x20\n      add\n      0x00\n      keccak256\n      sload\n        /* \"TimeAllySIP.sol\":18157:18183  _sip.depositStatus[i] == 1 */\n      eq\n        /* \"TimeAllySIP.sol\":18154:18319  if(_sip.depositStatus[i] == 1) {... */\n      iszero\n      tag_151\n      jumpi\n        /* \"TimeAllySIP.sol\":18266:18274  sipPlans */\n      0x05\n        /* \"TimeAllySIP.sol\":18276:18280  _sip */\n      dup7\n        /* \"TimeAllySIP.sol\":18276:18287  _sip.planId */\n      0x00\n      add\n      sload\n        /* \"TimeAllySIP.sol\":18266:18289  sipPlans[ _sip.planId ] */\n      dup2\n      sload\n      dup2\n      lt\n      tag_152\n      jumpi\n      invalid\n    tag_152:\n      swap1\n      0x00\n      mstore\n      keccak256(0x00, 0x20)\n      swap1\n      0x08\n      mul\n      add\n        /* \"TimeAllySIP.sol\":18266:18308  sipPlans[ _sip.planId ].gracePenaltyFactor */\n      0x06\n      add\n      sload\n        /* \"TimeAllySIP.sol\":18243:18308  _totalPenaltyFactor += sipPlans[ _sip.planId ].gracePenaltyFactor */\n      dup3\n      add\n      swap2\n      pop\n        /* \"TimeAllySIP.sol\":18154:18319  if(_sip.depositStatus[i] == 1) {... */\n    tag_151:\n        /* \"TimeAllySIP.sol\":17984:18319  if(_sip.depositStatus[i] == 0) {... */\n    tag_150:\n        /* \"TimeAllySIP.sol\":17969:17972  i++ */\n      dup1\n      dup1\n      0x01\n      add\n      swap2\n      pop\n      pop\n        /* \"TimeAllySIP.sol\":17895:18327  for(uint256 i = 1; i <= sipPlans[ _sip.planId ].accumulationPeriodMonths; i++) {... */\n      jump(tag_142)\n    tag_143:\n      pop\n        /* \"TimeAllySIP.sol\":18334:18356  uint256 _penaltyAmount */\n      0x00\n        /* \"TimeAllySIP.sol\":18359:18413  _powerBoosterAmount.mul(_totalPenaltyFactor).div(1000) */\n      tag_154\n        /* \"TimeAllySIP.sol\":18408:18412  1000 */\n      0x03e8\n        /* \"TimeAllySIP.sol\":18359:18403  _powerBoosterAmount.mul(_totalPenaltyFactor) */\n      tag_155\n        /* \"TimeAllySIP.sol\":18383:18402  _totalPenaltyFactor */\n      dup5\n        /* \"TimeAllySIP.sol\":18359:18378  _powerBoosterAmount */\n      dup7\n        /* \"TimeAllySIP.sol\":18359:18382  _powerBoosterAmount.mul */\n      tag_156\n      swap1\n        /* \"TimeAllySIP.sol\":18359:18403  _powerBoosterAmount.mul(_totalPenaltyFactor) */\n      swap2\n      swap1\n      0xffffffff\n      and\n      jump\t// in\n    tag_155:\n        /* \"TimeAllySIP.sol\":18359:18407  _powerBoosterAmount.mul(_totalPenaltyFactor).div */\n      tag_136\n      swap1\n        /* \"TimeAllySIP.sol\":18359:18413  _powerBoosterAmount.mul(_totalPenaltyFactor).div(1000) */\n      swap2\n      swap1\n      0xffffffff\n      and\n      jump\t// in\n    tag_154:\n        /* \"TimeAllySIP.sol\":18334:18413  uint256 _penaltyAmount = _powerBoosterAmount.mul(_totalPenaltyFactor).div(1000) */\n      swap1\n      pop\n        /* \"TimeAllySIP.sol\":18507:18508  0 */\n      0x00\n        /* \"TimeAllySIP.sol\":18490:18504  _penaltyAmount */\n      dup2\n        /* \"TimeAllySIP.sol\":18490:18508  _penaltyAmount > 0 */\n      gt\n        /* \"TimeAllySIP.sol\":18487:18876  if(_penaltyAmount > 0) {... */\n      iszero\n      tag_157\n      jumpi\n        /* \"TimeAllySIP.sol\":18591:18623  fundsDeposit.add(_penaltyAmount) */\n      tag_158\n        /* \"TimeAllySIP.sol\":18608:18622  _penaltyAmount */\n      dup2\n        /* \"TimeAllySIP.sol\":18591:18603  fundsDeposit */\n      sload(0x04)\n        /* \"TimeAllySIP.sol\":18591:18607  fundsDeposit.add */\n      tag_159\n      swap1\n        /* \"TimeAllySIP.sol\":18591:18623  fundsDeposit.add(_penaltyAmount) */\n      swap2\n      swap1\n      0xffffffff\n      and\n      jump\t// in\n    tag_158:\n        /* \"TimeAllySIP.sol\":18576:18588  fundsDeposit */\n      0x04\n        /* \"TimeAllySIP.sol\":18576:18623  fundsDeposit = fundsDeposit.add(_penaltyAmount) */\n      dup2\n      swap1\n      sstore\n      pop\n        /* \"TimeAllySIP.sol\":18699:18729  FundsDeposited(_penaltyAmount) */\n      0x7cb5d45c1071f219bd2da1ea101758715bd52f23f2a707f2d9a0387dea18d906\n        /* \"TimeAllySIP.sol\":18714:18728  _penaltyAmount */\n      dup2\n        /* \"TimeAllySIP.sol\":18699:18729  FundsDeposited(_penaltyAmount) */\n      mload(0x40)\n      dup1\n      dup3\n      dup2\n      mstore\n      0x20\n      add\n      swap2\n      pop\n      pop\n      mload(0x40)\n      dup1\n      swap2\n      sub\n      swap1\n      log1\n        /* \"TimeAllySIP.sol\":18828:18867  _powerBoosterAmount.sub(_penaltyAmount) */\n      tag_160\n        /* \"TimeAllySIP.sol\":18852:18866  _penaltyAmount */\n      dup2\n        /* \"TimeAllySIP.sol\":18828:18847  _powerBoosterAmount */\n      dup5\n        /* \"TimeAllySIP.sol\":18828:18851  _powerBoosterAmount.sub */\n      tag_103\n      swap1\n        /* \"TimeAllySIP.sol\":18828:18867  _powerBoosterAmount.sub(_penaltyAmount) */\n      swap2\n      swap1\n      0xffffffff\n      and\n      jump\t// in\n    tag_160:\n        /* \"TimeAllySIP.sol\":18806:18867  _powerBoosterAmount = _powerBoosterAmount.sub(_penaltyAmount) */\n      swap3\n      pop\n        /* \"TimeAllySIP.sol\":18487:18876  if(_penaltyAmount > 0) {... */\n    tag_157:\n        /* \"TimeAllySIP.sol\":17823:18882  if(_powerBoosterSerial == 1) {... */\n      pop\n      pop\n    tag_141:\n        /* \"TimeAllySIP.sol\":18947:18952  token */\n      0x01\n      0x00\n      swap1\n      sload\n      swap1\n      0x0100\n      exp\n      swap1\n      div\n      0xffffffffffffffffffffffffffffffffffffffff\n      and\n        /* \"TimeAllySIP.sol\":18947:18961  token.transfer */\n      0xffffffffffffffffffffffffffffffffffffffff\n      and\n      0xa9059cbb\n        /* \"TimeAllySIP.sol\":18962:18972  msg.sender */\n      caller\n        /* \"TimeAllySIP.sol\":18974:18993  _powerBoosterAmount */\n      dup4\n        /* \"TimeAllySIP.sol\":18947:18994  token.transfer(msg.sender, _powerBoosterAmount) */\n      mload(0x40)\n      dup4\n      0xffffffff\n      and\n      0xe0\n      shl\n      dup2\n      mstore\n      0x04\n      add\n      dup1\n      dup4\n      0xffffffffffffffffffffffffffffffffffffffff\n      and\n      0xffffffffffffffffffffffffffffffffffffffff\n      and\n      dup2\n      mstore\n      0x20\n      add\n      dup3\n      dup2\n      mstore\n      0x20\n      add\n      swap3\n      pop\n      pop\n      pop\n      0x20\n      mload(0x40)\n      dup1\n      dup4\n      sub\n      dup2\n      0x00\n      dup8\n      dup1\n      extcodesize\n      iszero\n        /* \"--CODEGEN--\":8:17   */\n      dup1\n        /* \"--CODEGEN--\":5:7   */\n      iszero\n      tag_161\n      jumpi\n        /* \"--CODEGEN--\":30:31   */\n      0x00\n        /* \"--CODEGEN--\":27:28   */\n      dup1\n        /* \"--CODEGEN--\":20:32   */\n      revert\n        /* \"--CODEGEN--\":5:7   */\n    tag_161:\n        /* \"TimeAllySIP.sol\":18947:18994  token.transfer(msg.sender, _powerBoosterAmount) */\n      pop\n      gas\n      call\n      iszero\n        /* \"--CODEGEN--\":8:17   */\n      dup1\n        /* \"--CODEGEN--\":5:7   */\n      iszero\n      tag_162\n      jumpi\n        /* \"--CODEGEN--\":45:61   */\n      returndatasize\n        /* \"--CODEGEN--\":42:43   */\n      0x00\n        /* \"--CODEGEN--\":39:40   */\n      dup1\n        /* \"--CODEGEN--\":24:62   */\n      returndatacopy\n        /* \"--CODEGEN--\":77:93   */\n      returndatasize\n        /* \"--CODEGEN--\":74:75   */\n      0x00\n        /* \"--CODEGEN--\":67:94   */\n      revert\n        /* \"--CODEGEN--\":5:7   */\n    tag_162:\n        /* \"TimeAllySIP.sol\":18947:18994  token.transfer(msg.sender, _powerBoosterAmount) */\n      pop\n      pop\n      pop\n      pop\n      mload(0x40)\n      returndatasize\n        /* \"--CODEGEN--\":13:15   */\n      0x20\n        /* \"--CODEGEN--\":8:11   */\n      dup2\n        /* \"--CODEGEN--\":5:16   */\n      lt\n        /* \"--CODEGEN--\":2:4   */\n      iszero\n      tag_163\n      jumpi\n        /* \"--CODEGEN--\":29:30   */\n      0x00\n        /* \"--CODEGEN--\":26:27   */\n      dup1\n        /* \"--CODEGEN--\":19:31   */\n      revert\n        /* \"--CODEGEN--\":2:4   */\n    tag_163:\n        /* \"TimeAllySIP.sol\":18947:18994  token.transfer(msg.sender, _powerBoosterAmount) */\n      dup2\n      add\n      swap1\n      dup1\n      dup1\n      mload\n      swap1\n      0x20\n      add\n      swap1\n      swap3\n      swap2\n      swap1\n      pop\n      pop\n      pop\n      pop\n        /* \"TimeAllySIP.sol\":19115:19121  _sipId */\n      dup8\n        /* \"TimeAllySIP.sol\":19093:19107  _stakerAddress */\n      dup10\n        /* \"TimeAllySIP.sol\":19064:19199  PowerBoosterWithdrawl(... */\n      0xffffffffffffffffffffffffffffffffffffffff\n      and\n      0xa1c568ef1602bc58c1e32ea2f1251b87874dce947f5d4f4df53677d06d5bf56d\n        /* \"TimeAllySIP.sol\":19129:19148  _powerBoosterSerial */\n      dup6\n        /* \"TimeAllySIP.sol\":19156:19175  _powerBoosterAmount */\n      dup5\n        /* \"TimeAllySIP.sol\":19183:19193  msg.sender */\n      caller\n        /* \"TimeAllySIP.sol\":19064:19199  PowerBoosterWithdrawl(... */\n      mload(0x40)\n      dup1\n      dup5\n      dup2\n      mstore\n      0x20\n      add\n      dup4\n      dup2\n      mstore\n      0x20\n      add\n      dup3\n      0xffffffffffffffffffffffffffffffffffffffff\n      and\n      0xffffffffffffffffffffffffffffffffffffffff\n      and\n      dup2\n      mstore\n      0x20\n      add\n      swap4\n      pop\n      pop\n      pop\n      pop\n      mload(0x40)\n      dup1\n      swap2\n      sub\n      swap1\n      log3\n        /* \"TimeAllySIP.sol\":5939:5940  _ */\n      pop\n      pop\n      pop\n      pop\n        /* \"TimeAllySIP.sol\":16060:19204  function withdrawPowerBooster(... */\n      pop\n      pop\n      pop\n      pop\n      pop\n      jump\t// out\n        /* \"TimeAllySIP.sol\":6757:7561  function createSIPPlan(... */\n    tag_49:\n        /* \"TimeAllySIP.sol\":5494:5499  owner */\n      0x00\n      dup1\n      swap1\n      sload\n      swap1\n      0x0100\n      exp\n      swap1\n      div\n      0xffffffffffffffffffffffffffffffffffffffff\n      and\n        /* \"TimeAllySIP.sol\":5480:5499  msg.sender == owner */\n      0xffffffffffffffffffffffffffffffffffffffff\n      and\n        /* \"TimeAllySIP.sol\":5480:5490  msg.sender */\n      caller\n        /* \"TimeAllySIP.sol\":5480:5499  msg.sender == owner */\n      0xffffffffffffffffffffffffffffffffffffffff\n      and\n      eq\n        /* \"TimeAllySIP.sol\":5472:5526  require(msg.sender == owner, 'only deployer can call') */\n      tag_165\n      jumpi\n      mload(0x40)\n      0x08c379a000000000000000000000000000000000000000000000000000000000\n      dup2\n      mstore\n      0x04\n      add\n      dup1\n      dup1\n      0x20\n      add\n      dup3\n      dup2\n      sub\n      dup3\n      mstore\n      0x16\n      dup2\n      mstore\n      0x20\n      add\n      dup1\n      0x6f6e6c79206465706c6f7965722063616e2063616c6c00000000000000000000\n      dup2\n      mstore\n      pop\n      0x20\n      add\n      swap2\n      pop\n      pop\n      mload(0x40)\n      dup1\n      swap2\n      sub\n      swap1\n      revert\n    tag_165:\n        /* \"TimeAllySIP.sol\":7127:7135  sipPlans */\n      0x05\n        /* \"TimeAllySIP.sol\":7141:7555  SIPPlan({... */\n      mload(0x40)\n      dup1\n      0x0100\n      add\n      0x40\n      mstore\n      dup1\n        /* \"TimeAllySIP.sol\":7171:7175  true */\n      0x01\n        /* \"TimeAllySIP.sol\":7141:7555  SIPPlan({... */\n      iszero\n      iszero\n      dup2\n      mstore\n      0x20\n      add\n        /* \"TimeAllySIP.sol\":7215:7246  _minimumMonthlyCommitmentAmount */\n      dup10\n        /* \"TimeAllySIP.sol\":7141:7555  SIPPlan({... */\n      dup2\n      mstore\n      0x20\n      add\n        /* \"TimeAllySIP.sol\":7280:7305  _accumulationPeriodMonths */\n      dup9\n        /* \"TimeAllySIP.sol\":7141:7555  SIPPlan({... */\n      dup2\n      mstore\n      0x20\n      add\n        /* \"TimeAllySIP.sol\":7333:7352  _benefitPeriodYears */\n      dup8\n        /* \"TimeAllySIP.sol\":7141:7555  SIPPlan({... */\n      dup2\n      mstore\n      0x20\n      add\n        /* \"TimeAllySIP.sol\":7380:7399  _gracePeriodSeconds */\n      dup7\n        /* \"TimeAllySIP.sol\":7141:7555  SIPPlan({... */\n      dup2\n      mstore\n      0x20\n      add\n        /* \"TimeAllySIP.sol\":7429:7450  _monthlyBenefitFactor */\n      dup6\n        /* \"TimeAllySIP.sol\":7141:7555  SIPPlan({... */\n      dup2\n      mstore\n      0x20\n      add\n        /* \"TimeAllySIP.sol\":7478:7497  _gracePenaltyFactor */\n      dup5\n        /* \"TimeAllySIP.sol\":7141:7555  SIPPlan({... */\n      dup2\n      mstore\n      0x20\n      add\n        /* \"TimeAllySIP.sol\":7527:7548  _defaultPenaltyFactor */\n      dup4\n        /* \"TimeAllySIP.sol\":7141:7555  SIPPlan({... */\n      dup2\n      mstore\n      pop\n        /* \"TimeAllySIP.sol\":7127:7556  sipPlans.push(SIPPlan({... */\n      swap1\n      dup1\n        /* \"--CODEGEN--\":39:40   */\n      0x01\n        /* \"--CODEGEN--\":33:36   */\n      dup2\n        /* \"--CODEGEN--\":27:37   */\n      sload\n        /* \"--CODEGEN--\":23:41   */\n      add\n        /* \"--CODEGEN--\":57:67   */\n      dup1\n        /* \"--CODEGEN--\":52:55   */\n      dup3\n        /* \"--CODEGEN--\":45:68   */\n      sstore\n        /* \"--CODEGEN--\":79:89   */\n      dup1\n        /* \"--CODEGEN--\":72:89   */\n      swap2\n      pop\n        /* \"--CODEGEN--\":0:93   */\n      pop\n        /* \"TimeAllySIP.sol\":7127:7556  sipPlans.push(SIPPlan({... */\n      swap1\n      0x01\n      dup3\n      sub\n      swap1\n      0x00\n      mstore\n      keccak256(0x00, 0x20)\n      swap1\n      0x08\n      mul\n      add\n      0x00\n      swap1\n      swap2\n      swap3\n      swap1\n      swap2\n      swap1\n      swap2\n      pop\n      0x00\n      dup3\n      add\n      mload\n      dup2\n      0x00\n      add\n      exp(0x0100, 0x00)\n      dup2\n      sload\n      dup2\n      0xff\n      mul\n      not\n      and\n      swap1\n      dup4\n      iszero\n      iszero\n      mul\n      or\n      swap1\n      sstore\n      pop\n      0x20\n      dup3\n      add\n      mload\n      dup2\n      0x01\n      add\n      sstore\n      0x40\n      dup3\n      add\n      mload\n      dup2\n      0x02\n      add\n      sstore\n      0x60\n      dup3\n      add\n      mload\n      dup2\n      0x03\n      add\n      sstore\n      0x80\n      dup3\n      add\n      mload\n      dup2\n      0x04\n      add\n      sstore\n      0xa0\n      dup3\n      add\n      mload\n      dup2\n      0x05\n      add\n      sstore\n      0xc0\n      dup3\n      add\n      mload\n      dup2\n      0x06\n      add\n      sstore\n      0xe0\n      dup3\n      add\n      mload\n      dup2\n      0x07\n      add\n      sstore\n      pop\n      pop\n      pop\n        /* \"TimeAllySIP.sol\":6757:7561  function createSIPPlan(... */\n      pop\n      pop\n      pop\n      pop\n      pop\n      pop\n      pop\n      jump\t// out\n        /* \"TimeAllySIP.sol\":26580:26784  function viewNomination(... */\n    tag_52:\n        /* \"TimeAllySIP.sol\":26706:26710  bool */\n      0x00\n        /* \"TimeAllySIP.sol\":26725:26729  sips */\n      0x06\n        /* \"TimeAllySIP.sol\":26725:26745  sips[_stakerAddress] */\n      0x00\n        /* \"TimeAllySIP.sol\":26730:26744  _stakerAddress */\n      dup6\n        /* \"TimeAllySIP.sol\":26725:26745  sips[_stakerAddress] */\n      0xffffffffffffffffffffffffffffffffffffffff\n      and\n      0xffffffffffffffffffffffffffffffffffffffff\n      and\n      dup2\n      mstore\n      0x20\n      add\n      swap1\n      dup2\n      mstore\n      0x20\n      add\n      0x00\n      keccak256\n        /* \"TimeAllySIP.sol\":26746:26752  _sipId */\n      dup4\n        /* \"TimeAllySIP.sol\":26725:26753  sips[_stakerAddress][_sipId] */\n      dup2\n      sload\n      dup2\n      lt\n      tag_169\n      jumpi\n      invalid\n    tag_169:\n      swap1\n      0x00\n      mstore\n      keccak256(0x00, 0x20)\n      swap1\n      0x0b\n      mul\n      add\n        /* \"TimeAllySIP.sol\":26725:26762  sips[_stakerAddress][_sipId].nominees */\n      0x09\n      add\n        /* \"TimeAllySIP.sol\":26725:26779  sips[_stakerAddress][_sipId].nominees[_nomineeAddress] */\n      0x00\n        /* \"TimeAllySIP.sol\":26763:26778  _nomineeAddress */\n      dup4\n        /* \"TimeAllySIP.sol\":26725:26779  sips[_stakerAddress][_sipId].nominees[_nomineeAddress] */\n      0xffffffffffffffffffffffffffffffffffffffff\n      and\n      0xffffffffffffffffffffffffffffffffffffffff\n      and\n      dup2\n      mstore\n      0x20\n      add\n      swap1\n      dup2\n      mstore\n      0x20\n      add\n      0x00\n      keccak256\n      0x00\n      swap1\n      sload\n      swap1\n      0x0100\n      exp\n      swap1\n      div\n      0xff\n      and\n        /* \"TimeAllySIP.sol\":26718:26779  return sips[_stakerAddress][_sipId].nominees[_nomineeAddress] */\n      swap1\n      pop\n        /* \"TimeAllySIP.sol\":26580:26784  function viewNomination(... */\n      swap4\n      swap3\n      pop\n      pop\n      pop\n      jump\t// out\n        /* \"TimeAllySIP.sol\":9421:11793  function newSIP(... */\n    tag_55:\n        /* \"TimeAllySIP.sol\":9581:9589  sipPlans */\n      0x05\n        /* \"TimeAllySIP.sol\":9590:9597  _planId */\n      dup3\n        /* \"TimeAllySIP.sol\":9581:9598  sipPlans[_planId] */\n      dup2\n      sload\n      dup2\n      lt\n      tag_172\n      jumpi\n      invalid\n    tag_172:\n      swap1\n      0x00\n      mstore\n      keccak256(0x00, 0x20)\n      swap1\n      0x08\n      mul\n      add\n        /* \"TimeAllySIP.sol\":9581:9611  sipPlans[_planId].isPlanActive */\n      0x00\n      add\n      0x00\n      swap1\n      sload\n      swap1\n      0x0100\n      exp\n      swap1\n      div\n      0xff\n      and\n        /* \"TimeAllySIP.sol\":9566:9650  require(... */\n      tag_174\n      jumpi\n      mload(0x40)\n      0x08c379a000000000000000000000000000000000000000000000000000000000\n      dup2\n      mstore\n      0x04\n      add\n      dup1\n      dup1\n      0x20\n      add\n      dup3\n      dup2\n      sub\n      dup3\n      mstore\n      0x16\n      dup2\n      mstore\n      0x20\n      add\n      dup1\n      0x73697020706c616e206973206e6f742061637469766500000000000000000000\n      dup2\n      mstore\n      pop\n      0x20\n      add\n      swap2\n      pop\n      pop\n      mload(0x40)\n      dup1\n      swap2\n      sub\n      swap1\n      revert\n    tag_174:\n        /* \"TimeAllySIP.sol\":9763:9771  sipPlans */\n      0x05\n        /* \"TimeAllySIP.sol\":9772:9779  _planId */\n      dup3\n        /* \"TimeAllySIP.sol\":9763:9780  sipPlans[_planId] */\n      dup2\n      sload\n      dup2\n      lt\n      tag_175\n      jumpi\n      invalid\n    tag_175:\n      swap1\n      0x00\n      mstore\n      keccak256(0x00, 0x20)\n      swap1\n      0x08\n      mul\n      add\n        /* \"TimeAllySIP.sol\":9763:9811  sipPlans[_planId].minimumMonthlyCommitmentAmount */\n      0x01\n      add\n      sload\n        /* \"TimeAllySIP.sol\":9735:9759  _monthlyCommitmentAmount */\n      dup2\n        /* \"TimeAllySIP.sol\":9735:9811  _monthlyCommitmentAmount >= sipPlans[_planId].minimumMonthlyCommitmentAmount */\n      lt\n      iszero\n        /* \"TimeAllySIP.sol\":9720:9860  require(... */\n      tag_177\n      jumpi\n      mload(0x40)\n      0x08c379a000000000000000000000000000000000000000000000000000000000\n      dup2\n      mstore\n      0x04\n      add\n      dup1\n      dup1\n      0x20\n      add\n      dup3\n      dup2\n      sub\n      dup3\n      mstore\n      0x20\n      dup2\n      mstore\n      0x20\n      add\n      dup1\n      0x616d6f756e742073686f756c642062652061746c65617374206d696e696d756d\n      dup2\n      mstore\n      pop\n      0x20\n      add\n      swap2\n      pop\n      pop\n      mload(0x40)\n      dup1\n      swap2\n      sub\n      swap1\n      revert\n    tag_177:\n        /* \"TimeAllySIP.sol\":9956:9982  uint256 _benefitsToBeGiven */\n      0x00\n        /* \"TimeAllySIP.sol\":9985:10130  _monthlyCommitmentAmount... */\n      tag_178\n        /* \"TimeAllySIP.sol\":10091:10099  sipPlans */\n      0x05\n        /* \"TimeAllySIP.sol\":10101:10108  _planId */\n      dup5\n        /* \"TimeAllySIP.sol\":10091:10110  sipPlans[ _planId ] */\n      dup2\n      sload\n      dup2\n      lt\n      tag_179\n      jumpi\n      invalid\n    tag_179:\n      swap1\n      0x00\n      mstore\n      keccak256(0x00, 0x20)\n      swap1\n      0x08\n      mul\n      add\n        /* \"TimeAllySIP.sol\":10091:10129  sipPlans[ _planId ].benefitPeriodYears */\n      0x03\n      add\n      sload\n        /* \"TimeAllySIP.sol\":9985:10079  _monthlyCommitmentAmount... */\n      tag_181\n        /* \"TimeAllySIP.sol\":10074:10078  1000 */\n      0x03e8\n        /* \"TimeAllySIP.sol\":9985:10062  _monthlyCommitmentAmount... */\n      tag_182\n        /* \"TimeAllySIP.sol\":10021:10029  sipPlans */\n      0x05\n        /* \"TimeAllySIP.sol\":10031:10038  _planId */\n      dup9\n        /* \"TimeAllySIP.sol\":10021:10040  sipPlans[ _planId ] */\n      dup2\n      sload\n      dup2\n      lt\n      tag_183\n      jumpi\n      invalid\n    tag_183:\n      swap1\n      0x00\n      mstore\n      keccak256(0x00, 0x20)\n      swap1\n      0x08\n      mul\n      add\n        /* \"TimeAllySIP.sol\":10021:10061  sipPlans[ _planId ].monthlyBenefitFactor */\n      0x05\n      add\n      sload\n        /* \"TimeAllySIP.sol\":9985:10009  _monthlyCommitmentAmount */\n      dup8\n        /* \"TimeAllySIP.sol\":9985:10020  _monthlyCommitmentAmount... */\n      tag_156\n      swap1\n        /* \"TimeAllySIP.sol\":9985:10062  _monthlyCommitmentAmount... */\n      swap2\n      swap1\n      0xffffffff\n      and\n      jump\t// in\n    tag_182:\n        /* \"TimeAllySIP.sol\":9985:10073  _monthlyCommitmentAmount... */\n      tag_136\n      swap1\n        /* \"TimeAllySIP.sol\":9985:10079  _monthlyCommitmentAmount... */\n      swap2\n      swap1\n      0xffffffff\n      and\n      jump\t// in\n    tag_181:\n        /* \"TimeAllySIP.sol\":9985:10090  _monthlyCommitmentAmount... */\n      tag_156\n      swap1\n        /* \"TimeAllySIP.sol\":9985:10130  _monthlyCommitmentAmount... */\n      swap2\n      swap1\n      0xffffffff\n      and\n      jump\t// in\n    tag_178:\n        /* \"TimeAllySIP.sol\":9956:10130  uint256 _benefitsToBeGiven = _monthlyCommitmentAmount... */\n      swap1\n      pop\n        /* \"TimeAllySIP.sol\":10243:10299  _benefitsToBeGiven.add(pendingBenefitAmountOfAllStakers) */\n      tag_185\n        /* \"TimeAllySIP.sol\":10266:10298  pendingBenefitAmountOfAllStakers */\n      sload(0x03)\n        /* \"TimeAllySIP.sol\":10243:10261  _benefitsToBeGiven */\n      dup3\n        /* \"TimeAllySIP.sol\":10243:10265  _benefitsToBeGiven.add */\n      tag_159\n      swap1\n        /* \"TimeAllySIP.sol\":10243:10299  _benefitsToBeGiven.add(pendingBenefitAmountOfAllStakers) */\n      swap2\n      swap1\n      0xffffffff\n      and\n      jump\t// in\n    tag_185:\n        /* \"TimeAllySIP.sol\":10227:10239  fundsDeposit */\n      sload(0x04)\n        /* \"TimeAllySIP.sol\":10227:10299  fundsDeposit >= _benefitsToBeGiven.add(pendingBenefitAmountOfAllStakers) */\n      lt\n      iszero\n        /* \"TimeAllySIP.sol\":10212:10369  require(... */\n      tag_186\n      jumpi\n      mload(0x40)\n      0x08c379a000000000000000000000000000000000000000000000000000000000\n      dup2\n      mstore\n      0x04\n      add\n      dup1\n      dup1\n      0x20\n      add\n      dup3\n      dup2\n      sub\n      dup3\n      mstore\n      0x35\n      dup2\n      mstore\n      0x20\n      add\n      dup1\n      data_5a7f347d75f88622755607b0e61ed343c96ad258fbc1be577e77f6e09bcd0a54\n      0x35\n      swap2\n      codecopy\n      0x40\n      add\n      swap2\n      pop\n      pop\n      mload(0x40)\n      dup1\n      swap2\n      sub\n      swap1\n      revert\n    tag_186:\n        /* \"TimeAllySIP.sol\":10476:10481  token */\n      0x01\n      0x00\n      swap1\n      sload\n      swap1\n      0x0100\n      exp\n      swap1\n      div\n      0xffffffffffffffffffffffffffffffffffffffff\n      and\n        /* \"TimeAllySIP.sol\":10476:10494  token.transferFrom */\n      0xffffffffffffffffffffffffffffffffffffffff\n      and\n      0x23b872dd\n        /* \"TimeAllySIP.sol\":10495:10505  msg.sender */\n      caller\n        /* \"TimeAllySIP.sol\":10515:10519  this */\n      address\n        /* \"TimeAllySIP.sol\":10522:10546  _monthlyCommitmentAmount */\n      dup6\n        /* \"TimeAllySIP.sol\":10476:10547  token.transferFrom(msg.sender, address(this), _monthlyCommitmentAmount) */\n      mload(0x40)\n      dup5\n      0xffffffff\n      and\n      0xe0\n      shl\n      dup2\n      mstore\n      0x04\n      add\n      dup1\n      dup5\n      0xffffffffffffffffffffffffffffffffffffffff\n      and\n      0xffffffffffffffffffffffffffffffffffffffff\n      and\n      dup2\n      mstore\n      0x20\n      add\n      dup4\n      0xffffffffffffffffffffffffffffffffffffffff\n      and\n      0xffffffffffffffffffffffffffffffffffffffff\n      and\n      dup2\n      mstore\n      0x20\n      add\n      dup3\n      dup2\n      mstore\n      0x20\n      add\n      swap4\n      pop\n      pop\n      pop\n      pop\n      0x20\n      mload(0x40)\n      dup1\n      dup4\n      sub\n      dup2\n      0x00\n      dup8\n      dup1\n      extcodesize\n      iszero\n        /* \"--CODEGEN--\":8:17   */\n      dup1\n        /* \"--CODEGEN--\":5:7   */\n      iszero\n      tag_187\n      jumpi\n        /* \"--CODEGEN--\":30:31   */\n      0x00\n        /* \"--CODEGEN--\":27:28   */\n      dup1\n        /* \"--CODEGEN--\":20:32   */\n      revert\n        /* \"--CODEGEN--\":5:7   */\n    tag_187:\n        /* \"TimeAllySIP.sol\":10476:10547  token.transferFrom(msg.sender, address(this), _monthlyCommitmentAmount) */\n      pop\n      gas\n      call\n      iszero\n        /* \"--CODEGEN--\":8:17   */\n      dup1\n        /* \"--CODEGEN--\":5:7   */\n      iszero\n      tag_188\n      jumpi\n        /* \"--CODEGEN--\":45:61   */\n      returndatasize\n        /* \"--CODEGEN--\":42:43   */\n      0x00\n        /* \"--CODEGEN--\":39:40   */\n      dup1\n        /* \"--CODEGEN--\":24:62   */\n      returndatacopy\n        /* \"--CODEGEN--\":77:93   */\n      returndatasize\n        /* \"--CODEGEN--\":74:75   */\n      0x00\n        /* \"--CODEGEN--\":67:94   */\n      revert\n        /* \"--CODEGEN--\":5:7   */\n    tag_188:\n        /* \"TimeAllySIP.sol\":10476:10547  token.transferFrom(msg.sender, address(this), _monthlyCommitmentAmount) */\n      pop\n      pop\n      pop\n      pop\n      mload(0x40)\n      returndatasize\n        /* \"--CODEGEN--\":13:15   */\n      0x20\n        /* \"--CODEGEN--\":8:11   */\n      dup2\n        /* \"--CODEGEN--\":5:16   */\n      lt\n        /* \"--CODEGEN--\":2:4   */\n      iszero\n      tag_189\n      jumpi\n        /* \"--CODEGEN--\":29:30   */\n      0x00\n        /* \"--CODEGEN--\":26:27   */\n      dup1\n        /* \"--CODEGEN--\":19:31   */\n      revert\n        /* \"--CODEGEN--\":2:4   */\n    tag_189:\n        /* \"TimeAllySIP.sol\":10476:10547  token.transferFrom(msg.sender, address(this), _monthlyCommitmentAmount) */\n      dup2\n      add\n      swap1\n      dup1\n      dup1\n      mload\n      swap1\n      0x20\n      add\n      swap1\n      swap3\n      swap2\n      swap1\n      pop\n      pop\n      pop\n        /* \"TimeAllySIP.sol\":10468:10548  require(token.transferFrom(msg.sender, address(this), _monthlyCommitmentAmount)) */\n      tag_190\n      jumpi\n      0x00\n      dup1\n      revert\n    tag_190:\n        /* \"TimeAllySIP.sol\":10612:10616  sips */\n      0x06\n        /* \"TimeAllySIP.sol\":10612:10628  sips[msg.sender] */\n      0x00\n        /* \"TimeAllySIP.sol\":10617:10627  msg.sender */\n      caller\n        /* \"TimeAllySIP.sol\":10612:10628  sips[msg.sender] */\n      0xffffffffffffffffffffffffffffffffffffffff\n      and\n      0xffffffffffffffffffffffffffffffffffffffff\n      and\n      dup2\n      mstore\n      0x20\n      add\n      swap1\n      dup2\n      mstore\n      0x20\n      add\n      0x00\n      keccak256\n        /* \"TimeAllySIP.sol\":10634:10961  SIP({... */\n      mload(0x40)\n      dup1\n      0x0100\n      add\n      0x40\n      mstore\n      dup1\n        /* \"TimeAllySIP.sol\":10654:10661  _planId */\n      dup6\n        /* \"TimeAllySIP.sol\":10634:10961  SIP({... */\n      dup2\n      mstore\n      0x20\n      add\n        /* \"TimeAllySIP.sol\":10687:10690  now */\n      timestamp\n        /* \"TimeAllySIP.sol\":10634:10961  SIP({... */\n      dup2\n      mstore\n      0x20\n      add\n        /* \"TimeAllySIP.sol\":10723:10747  _monthlyCommitmentAmount */\n      dup5\n        /* \"TimeAllySIP.sol\":10634:10961  SIP({... */\n      dup2\n      mstore\n      0x20\n      add\n        /* \"TimeAllySIP.sol\":10771:10795  _monthlyCommitmentAmount */\n      dup5\n        /* \"TimeAllySIP.sol\":10634:10961  SIP({... */\n      dup2\n      mstore\n      0x20\n      add\n        /* \"TimeAllySIP.sol\":10825:10826  0 */\n      0x00\n        /* \"TimeAllySIP.sol\":10634:10961  SIP({... */\n      dup2\n      mstore\n      0x20\n      add\n        /* \"TimeAllySIP.sol\":10899:10900  0 */\n      0x00\n        /* \"TimeAllySIP.sol\":10634:10961  SIP({... */\n      dup2\n      mstore\n      0x20\n      add\n        /* \"TimeAllySIP.sol\":10928:10929  0 */\n      0x00\n        /* \"TimeAllySIP.sol\":10634:10961  SIP({... */\n      dup2\n      mstore\n      0x20\n      add\n        /* \"TimeAllySIP.sol\":10953:10954  0 */\n      0x00\n        /* \"TimeAllySIP.sol\":10634:10961  SIP({... */\n      dup2\n      mstore\n      pop\n        /* \"TimeAllySIP.sol\":10612:10962  sips[msg.sender].push(SIP({... */\n      swap1\n      dup1\n        /* \"--CODEGEN--\":39:40   */\n      0x01\n        /* \"--CODEGEN--\":33:36   */\n      dup2\n        /* \"--CODEGEN--\":27:37   */\n      sload\n        /* \"--CODEGEN--\":23:41   */\n      add\n        /* \"--CODEGEN--\":57:67   */\n      dup1\n        /* \"--CODEGEN--\":52:55   */\n      dup3\n        /* \"--CODEGEN--\":45:68   */\n      sstore\n        /* \"--CODEGEN--\":79:89   */\n      dup1\n        /* \"--CODEGEN--\":72:89   */\n      swap2\n      pop\n        /* \"--CODEGEN--\":0:93   */\n      pop\n        /* \"TimeAllySIP.sol\":10612:10962  sips[msg.sender].push(SIP({... */\n      swap1\n      0x01\n      dup3\n      sub\n      swap1\n      0x00\n      mstore\n      keccak256(0x00, 0x20)\n      swap1\n      0x0b\n      mul\n      add\n      0x00\n      swap1\n      swap2\n      swap3\n      swap1\n      swap2\n      swap1\n      swap2\n      pop\n      0x00\n      dup3\n      add\n      mload\n      dup2\n      0x00\n      add\n      sstore\n      0x20\n      dup3\n      add\n      mload\n      dup2\n      0x01\n      add\n      sstore\n      0x40\n      dup3\n      add\n      mload\n      dup2\n      0x02\n      add\n      sstore\n      0x60\n      dup3\n      add\n      mload\n      dup2\n      0x03\n      add\n      sstore\n      0x80\n      dup3\n      add\n      mload\n      dup2\n      0x04\n      add\n      sstore\n      0xa0\n      dup3\n      add\n      mload\n      dup2\n      0x05\n      add\n      sstore\n      0xc0\n      dup3\n      add\n      mload\n      dup2\n      0x06\n      add\n      sstore\n      0xe0\n      dup3\n      add\n      mload\n      dup2\n      0x07\n      add\n      sstore\n      pop\n      pop\n      pop\n        /* \"TimeAllySIP.sol\":11058:11072  uint256 _sipId */\n      0x00\n        /* \"TimeAllySIP.sol\":11101:11102  1 */\n      0x01\n        /* \"TimeAllySIP.sol\":11075:11079  sips */\n      0x06\n        /* \"TimeAllySIP.sol\":11075:11091  sips[msg.sender] */\n      0x00\n        /* \"TimeAllySIP.sol\":11080:11090  msg.sender */\n      caller\n        /* \"TimeAllySIP.sol\":11075:11091  sips[msg.sender] */\n      0xffffffffffffffffffffffffffffffffffffffff\n      and\n      0xffffffffffffffffffffffffffffffffffffffff\n      and\n      dup2\n      mstore\n      0x20\n      add\n      swap1\n      dup2\n      mstore\n      0x20\n      add\n      0x00\n      keccak256\n        /* \"TimeAllySIP.sol\":11075:11098  sips[msg.sender].length */\n      dup1\n      sload\n      swap1\n      pop\n        /* \"TimeAllySIP.sol\":11075:11102  sips[msg.sender].length - 1 */\n      sub\n        /* \"TimeAllySIP.sol\":11058:11102  uint256 _sipId = sips[msg.sender].length - 1 */\n      swap1\n      pop\n        /* \"TimeAllySIP.sol\":11198:11199  2 */\n      0x02\n        /* \"TimeAllySIP.sol\":11154:11158  sips */\n      0x06\n        /* \"TimeAllySIP.sol\":11154:11170  sips[msg.sender] */\n      0x00\n        /* \"TimeAllySIP.sol\":11159:11169  msg.sender */\n      caller\n        /* \"TimeAllySIP.sol\":11154:11170  sips[msg.sender] */\n      0xffffffffffffffffffffffffffffffffffffffff\n      and\n      0xffffffffffffffffffffffffffffffffffffffff\n      and\n      dup2\n      mstore\n      0x20\n      add\n      swap1\n      dup2\n      mstore\n      0x20\n      add\n      0x00\n      keccak256\n        /* \"TimeAllySIP.sol\":11171:11177  _sipId */\n      dup3\n        /* \"TimeAllySIP.sol\":11154:11178  sips[msg.sender][_sipId] */\n      dup2\n      sload\n      dup2\n      lt\n      tag_192\n      jumpi\n      invalid\n    tag_192:\n      swap1\n      0x00\n      mstore\n      keccak256(0x00, 0x20)\n      swap1\n      0x0b\n      mul\n      add\n        /* \"TimeAllySIP.sol\":11154:11192  sips[msg.sender][_sipId].depositStatus */\n      0x08\n      add\n        /* \"TimeAllySIP.sol\":11154:11195  sips[msg.sender][_sipId].depositStatus[1] */\n      0x00\n        /* \"TimeAllySIP.sol\":11193:11194  1 */\n      0x01\n        /* \"TimeAllySIP.sol\":11154:11195  sips[msg.sender][_sipId].depositStatus[1] */\n      dup2\n      mstore\n      0x20\n      add\n      swap1\n      dup2\n      mstore\n      0x20\n      add\n      0x00\n      keccak256\n        /* \"TimeAllySIP.sol\":11154:11199  sips[msg.sender][_sipId].depositStatus[1] = 2 */\n      dup2\n      swap1\n      sstore\n      pop\n        /* \"TimeAllySIP.sol\":11371:11439  pendingBenefitAmountOfAllStakers.add(... */\n      tag_194\n        /* \"TimeAllySIP.sol\":11415:11433  _benefitsToBeGiven */\n      dup3\n        /* \"TimeAllySIP.sol\":11371:11403  pendingBenefitAmountOfAllStakers */\n      sload(0x03)\n        /* \"TimeAllySIP.sol\":11371:11407  pendingBenefitAmountOfAllStakers.add */\n      tag_159\n      swap1\n        /* \"TimeAllySIP.sol\":11371:11439  pendingBenefitAmountOfAllStakers.add(... */\n      swap2\n      swap1\n      0xffffffff\n      and\n      jump\t// in\n    tag_194:\n        /* \"TimeAllySIP.sol\":11336:11368  pendingBenefitAmountOfAllStakers */\n      0x03\n        /* \"TimeAllySIP.sol\":11336:11439  pendingBenefitAmountOfAllStakers = pendingBenefitAmountOfAllStakers.add(... */\n      dup2\n      swap1\n      sstore\n      pop\n        /* \"TimeAllySIP.sol\":11512:11522  msg.sender */\n      caller\n        /* \"TimeAllySIP.sol\":11498:11595  NewSIP(... */\n      0xffffffffffffffffffffffffffffffffffffffff\n      and\n      0x1dec97fc36aa6dfa81b208ec37b3ac8dae30717f0622f9cfb2e7223dc95326ec\n        /* \"TimeAllySIP.sol\":11556:11557  1 */\n      0x01\n        /* \"TimeAllySIP.sol\":11530:11534  sips */\n      0x06\n        /* \"TimeAllySIP.sol\":11530:11546  sips[msg.sender] */\n      0x00\n        /* \"TimeAllySIP.sol\":11535:11545  msg.sender */\n      caller\n        /* \"TimeAllySIP.sol\":11530:11546  sips[msg.sender] */\n      0xffffffffffffffffffffffffffffffffffffffff\n      and\n      0xffffffffffffffffffffffffffffffffffffffff\n      and\n      dup2\n      mstore\n      0x20\n      add\n      swap1\n      dup2\n      mstore\n      0x20\n      add\n      0x00\n      keccak256\n        /* \"TimeAllySIP.sol\":11530:11553  sips[msg.sender].length */\n      dup1\n      sload\n      swap1\n      pop\n        /* \"TimeAllySIP.sol\":11530:11557  sips[msg.sender].length - 1 */\n      sub\n        /* \"TimeAllySIP.sol\":11565:11589  _monthlyCommitmentAmount */\n      dup6\n        /* \"TimeAllySIP.sol\":11498:11595  NewSIP(... */\n      mload(0x40)\n      dup1\n      dup4\n      dup2\n      mstore\n      0x20\n      add\n      dup3\n      dup2\n      mstore\n      0x20\n      add\n      swap3\n      pop\n      pop\n      pop\n      mload(0x40)\n      dup1\n      swap2\n      sub\n      swap1\n      log2\n        /* \"TimeAllySIP.sol\":11691:11697  _sipId */\n      dup1\n        /* \"TimeAllySIP.sol\":11673:11683  msg.sender */\n      caller\n        /* \"TimeAllySIP.sol\":11655:11788  NewDeposit(... */\n      0xffffffffffffffffffffffffffffffffffffffff\n      and\n      0xbaf4c88598102708c4215d5d3767268130627355850b7ece9bdfdc32fd2941f0\n        /* \"TimeAllySIP.sol\":11705:11706  1 */\n      0x01\n        /* \"TimeAllySIP.sol\":11714:11738  _monthlyCommitmentAmount */\n      dup7\n        /* \"TimeAllySIP.sol\":11746:11764  _benefitsToBeGiven */\n      dup7\n        /* \"TimeAllySIP.sol\":11772:11782  msg.sender */\n      caller\n        /* \"TimeAllySIP.sol\":11655:11788  NewDeposit(... */\n      mload(0x40)\n      dup1\n      dup6\n      dup2\n      mstore\n      0x20\n      add\n      dup5\n      dup2\n      mstore\n      0x20\n      add\n      dup4\n      dup2\n      mstore\n      0x20\n      add\n      dup3\n      0xffffffffffffffffffffffffffffffffffffffff\n      and\n      0xffffffffffffffffffffffffffffffffffffffff\n      and\n      dup2\n      mstore\n      0x20\n      add\n      swap5\n      pop\n      pop\n      pop\n      pop\n      pop\n      mload(0x40)\n      dup1\n      swap2\n      sub\n      swap1\n      log3\n        /* \"TimeAllySIP.sol\":9421:11793  function newSIP(... */\n      pop\n      pop\n      pop\n      pop\n      jump\t// out\n        /* \"TimeAllySIP.sol\":7565:7696  function updatePlanStatus(uint256 _planId, bool _newStatus) public onlyOwner {... */\n    tag_58:\n        /* \"TimeAllySIP.sol\":5494:5499  owner */\n      0x00\n      dup1\n      swap1\n      sload\n      swap1\n      0x0100\n      exp\n      swap1\n      div\n      0xffffffffffffffffffffffffffffffffffffffff\n      and\n        /* \"TimeAllySIP.sol\":5480:5499  msg.sender == owner */\n      0xffffffffffffffffffffffffffffffffffffffff\n      and\n        /* \"TimeAllySIP.sol\":5480:5490  msg.sender */\n      caller\n        /* \"TimeAllySIP.sol\":5480:5499  msg.sender == owner */\n      0xffffffffffffffffffffffffffffffffffffffff\n      and\n      eq\n        /* \"TimeAllySIP.sol\":5472:5526  require(msg.sender == owner, 'only deployer can call') */\n      tag_196\n      jumpi\n      mload(0x40)\n      0x08c379a000000000000000000000000000000000000000000000000000000000\n      dup2\n      mstore\n      0x04\n      add\n      dup1\n      dup1\n      0x20\n      add\n      dup3\n      dup2\n      sub\n      dup3\n      mstore\n      0x16\n      dup2\n      mstore\n      0x20\n      add\n      dup1\n      0x6f6e6c79206465706c6f7965722063616e2063616c6c00000000000000000000\n      dup2\n      mstore\n      pop\n      0x20\n      add\n      swap2\n      pop\n      pop\n      mload(0x40)\n      dup1\n      swap2\n      sub\n      swap1\n      revert\n    tag_196:\n        /* \"TimeAllySIP.sol\":7681:7691  _newStatus */\n      dup1\n        /* \"TimeAllySIP.sol\":7648:7656  sipPlans */\n      0x05\n        /* \"TimeAllySIP.sol\":7657:7664  _planId */\n      dup4\n        /* \"TimeAllySIP.sol\":7648:7665  sipPlans[_planId] */\n      dup2\n      sload\n      dup2\n      lt\n      tag_198\n      jumpi\n      invalid\n    tag_198:\n      swap1\n      0x00\n      mstore\n      keccak256(0x00, 0x20)\n      swap1\n      0x08\n      mul\n      add\n        /* \"TimeAllySIP.sol\":7648:7678  sipPlans[_planId].isPlanActive */\n      0x00\n      add\n      0x00\n        /* \"TimeAllySIP.sol\":7648:7691  sipPlans[_planId].isPlanActive = _newStatus */\n      0x0100\n      exp\n      dup2\n      sload\n      dup2\n      0xff\n      mul\n      not\n      and\n      swap1\n      dup4\n      iszero\n      iszero\n      mul\n      or\n      swap1\n      sstore\n      pop\n        /* \"TimeAllySIP.sol\":7565:7696  function updatePlanStatus(uint256 _planId, bool _newStatus) public onlyOwner {... */\n      pop\n      pop\n      jump\t// out\n        /* \"TimeAllySIP.sol\":12312:14242  function monthlyDeposit(... */\n    tag_61:\n        /* \"TimeAllySIP.sol\":12457:12471  _stakerAddress */\n      dup4\n        /* \"TimeAllySIP.sol\":12473:12479  _sipId */\n      dup4\n        /* \"TimeAllySIP.sol\":5689:5705  SIP storage _sip */\n      0x00\n        /* \"TimeAllySIP.sol\":5708:5712  sips */\n      0x06\n        /* \"TimeAllySIP.sol\":5708:5728  sips[_stakerAddress] */\n      0x00\n        /* \"TimeAllySIP.sol\":5713:5727  _stakerAddress */\n      dup5\n        /* \"TimeAllySIP.sol\":5708:5728  sips[_stakerAddress] */\n      0xffffffffffffffffffffffffffffffffffffffff\n      and\n      0xffffffffffffffffffffffffffffffffffffffff\n      and\n      dup2\n      mstore\n      0x20\n      add\n      swap1\n      dup2\n      mstore\n      0x20\n      add\n      0x00\n      keccak256\n        /* \"TimeAllySIP.sol\":5729:5735  _sipId */\n      dup3\n        /* \"TimeAllySIP.sol\":5708:5736  sips[_stakerAddress][_sipId] */\n      dup2\n      sload\n      dup2\n      lt\n      tag_201\n      jumpi\n      invalid\n    tag_201:\n      swap1\n      0x00\n      mstore\n      keccak256(0x00, 0x20)\n      swap1\n      0x0b\n      mul\n      add\n        /* \"TimeAllySIP.sol\":5689:5736  SIP storage _sip = sips[_stakerAddress][_sipId] */\n      swap1\n      pop\n        /* \"TimeAllySIP.sol\":5839:5853  _stakerAddress */\n      dup3\n        /* \"TimeAllySIP.sol\":5825:5853  msg.sender != _stakerAddress */\n      0xffffffffffffffffffffffffffffffffffffffff\n      and\n        /* \"TimeAllySIP.sol\":5825:5835  msg.sender */\n      caller\n        /* \"TimeAllySIP.sol\":5825:5853  msg.sender != _stakerAddress */\n      0xffffffffffffffffffffffffffffffffffffffff\n      and\n      eq\n        /* \"TimeAllySIP.sol\":5822:5934  if(msg.sender != _stakerAddress) {... */\n      tag_203\n      jumpi\n        /* \"TimeAllySIP.sol\":5871:5875  _sip */\n      dup1\n        /* \"TimeAllySIP.sol\":5871:5884  _sip.nominees */\n      0x09\n      add\n        /* \"TimeAllySIP.sol\":5871:5896  _sip.nominees[msg.sender] */\n      0x00\n        /* \"TimeAllySIP.sol\":5885:5895  msg.sender */\n      caller\n        /* \"TimeAllySIP.sol\":5871:5896  _sip.nominees[msg.sender] */\n      0xffffffffffffffffffffffffffffffffffffffff\n      and\n      0xffffffffffffffffffffffffffffffffffffffff\n      and\n      dup2\n      mstore\n      0x20\n      add\n      swap1\n      dup2\n      mstore\n      0x20\n      add\n      0x00\n      keccak256\n      0x00\n      swap1\n      sload\n      swap1\n      0x0100\n      exp\n      swap1\n      div\n      0xff\n      and\n        /* \"TimeAllySIP.sol\":5863:5927  require(_sip.nominees[msg.sender], 'nomination should be there') */\n      tag_204\n      jumpi\n      mload(0x40)\n      0x08c379a000000000000000000000000000000000000000000000000000000000\n      dup2\n      mstore\n      0x04\n      add\n      dup1\n      dup1\n      0x20\n      add\n      dup3\n      dup2\n      sub\n      dup3\n      mstore\n      0x1a\n      dup2\n      mstore\n      0x20\n      add\n      dup1\n      0x6e6f6d696e6174696f6e2073686f756c64206265207468657265000000000000\n      dup2\n      mstore\n      pop\n      0x20\n      add\n      swap2\n      pop\n      pop\n      mload(0x40)\n      dup1\n      swap2\n      sub\n      swap1\n      revert\n    tag_204:\n        /* \"TimeAllySIP.sol\":5822:5934  if(msg.sender != _stakerAddress) {... */\n    tag_203:\n        /* \"TimeAllySIP.sol\":12487:12503  SIP storage _sip */\n      0x00\n        /* \"TimeAllySIP.sol\":12506:12510  sips */\n      0x06\n        /* \"TimeAllySIP.sol\":12506:12526  sips[_stakerAddress] */\n      0x00\n        /* \"TimeAllySIP.sol\":12511:12525  _stakerAddress */\n      dup10\n        /* \"TimeAllySIP.sol\":12506:12526  sips[_stakerAddress] */\n      0xffffffffffffffffffffffffffffffffffffffff\n      and\n      0xffffffffffffffffffffffffffffffffffffffff\n      and\n      dup2\n      mstore\n      0x20\n      add\n      swap1\n      dup2\n      mstore\n      0x20\n      add\n      0x00\n      keccak256\n        /* \"TimeAllySIP.sol\":12527:12533  _sipId */\n      dup8\n        /* \"TimeAllySIP.sol\":12506:12534  sips[_stakerAddress][_sipId] */\n      dup2\n      sload\n      dup2\n      lt\n      tag_206\n      jumpi\n      invalid\n    tag_206:\n      swap1\n      0x00\n      mstore\n      keccak256(0x00, 0x20)\n      swap1\n      0x0b\n      mul\n      add\n        /* \"TimeAllySIP.sol\":12487:12534  SIP storage _sip = sips[_stakerAddress][_sipId] */\n      swap1\n      pop\n        /* \"TimeAllySIP.sol\":12573:12577  _sip */\n      dup1\n        /* \"TimeAllySIP.sol\":12573:12601  _sip.monthlyCommitmentAmount */\n      0x02\n      add\n      sload\n        /* \"TimeAllySIP.sol\":12555:12569  _depositAmount */\n      dup7\n        /* \"TimeAllySIP.sol\":12555:12601  _depositAmount >= _sip.monthlyCommitmentAmount */\n      lt\n      iszero\n        /* \"TimeAllySIP.sol\":12540:12656  require(... */\n      tag_208\n      jumpi\n      mload(0x40)\n      0x08c379a000000000000000000000000000000000000000000000000000000000\n      dup2\n      mstore\n      0x04\n      add\n      dup1\n      dup1\n      0x20\n      add\n      dup3\n      dup2\n      sub\n      dup3\n      mstore\n      0x26\n      dup2\n      mstore\n      0x20\n      add\n      dup1\n      data_9c5671fbe7325ac18b46fc94e6063ecafd5a4a15681b363f5d37ce08ea0b8f61\n      0x26\n      swap2\n      codecopy\n      0x40\n      add\n      swap2\n      pop\n      pop\n      mload(0x40)\n      dup1\n      swap2\n      sub\n      swap1\n      revert\n    tag_208:\n        /* \"TimeAllySIP.sol\":12794:12795  0 */\n      0x00\n        /* \"TimeAllySIP.sol\":12762:12766  _sip */\n      dup2\n        /* \"TimeAllySIP.sol\":12762:12780  _sip.depositStatus */\n      0x08\n      add\n        /* \"TimeAllySIP.sol\":12762:12790  _sip.depositStatus[_monthId] */\n      0x00\n        /* \"TimeAllySIP.sol\":12781:12789  _monthId */\n      dup8\n        /* \"TimeAllySIP.sol\":12762:12790  _sip.depositStatus[_monthId] */\n      dup2\n      mstore\n      0x20\n      add\n      swap1\n      dup2\n      mstore\n      0x20\n      add\n      0x00\n      keccak256\n      sload\n        /* \"TimeAllySIP.sol\":12762:12795  _sip.depositStatus[_monthId] == 0 */\n      eq\n        /* \"TimeAllySIP.sol\":12747:12832  require(... */\n      tag_209\n      jumpi\n      mload(0x40)\n      0x08c379a000000000000000000000000000000000000000000000000000000000\n      dup2\n      mstore\n      0x04\n      add\n      dup1\n      dup1\n      0x20\n      add\n      dup3\n      dup2\n      sub\n      dup3\n      mstore\n      0x14\n      dup2\n      mstore\n      0x20\n      add\n      dup1\n      0x63616e6e6f74206465706f73697420616761696e000000000000000000000000\n      dup2\n      mstore\n      pop\n      0x20\n      add\n      swap2\n      pop\n      pop\n      mload(0x40)\n      dup1\n      swap2\n      sub\n      swap1\n      revert\n    tag_209:\n        /* \"TimeAllySIP.sol\":12922:12948  uint256 _benefitsToBeGiven */\n      0x00\n        /* \"TimeAllySIP.sol\":12951:13094  _depositAmount... */\n      tag_210\n        /* \"TimeAllySIP.sol\":13051:13059  sipPlans */\n      0x05\n        /* \"TimeAllySIP.sol\":13061:13065  _sip */\n      dup4\n        /* \"TimeAllySIP.sol\":13061:13072  _sip.planId */\n      0x00\n      add\n      sload\n        /* \"TimeAllySIP.sol\":13051:13074  sipPlans[ _sip.planId ] */\n      dup2\n      sload\n      dup2\n      lt\n      tag_211\n      jumpi\n      invalid\n    tag_211:\n      swap1\n      0x00\n      mstore\n      keccak256(0x00, 0x20)\n      swap1\n      0x08\n      mul\n      add\n        /* \"TimeAllySIP.sol\":13051:13093  sipPlans[ _sip.planId ].benefitPeriodYears */\n      0x03\n      add\n      sload\n        /* \"TimeAllySIP.sol\":12951:13039  _depositAmount... */\n      tag_213\n        /* \"TimeAllySIP.sol\":13034:13038  1000 */\n      0x03e8\n        /* \"TimeAllySIP.sol\":12951:13022  _depositAmount... */\n      tag_214\n        /* \"TimeAllySIP.sol\":12977:12985  sipPlans */\n      0x05\n        /* \"TimeAllySIP.sol\":12987:12991  _sip */\n      dup8\n        /* \"TimeAllySIP.sol\":12987:12998  _sip.planId */\n      0x00\n      add\n      sload\n        /* \"TimeAllySIP.sol\":12977:13000  sipPlans[ _sip.planId ] */\n      dup2\n      sload\n      dup2\n      lt\n      tag_215\n      jumpi\n      invalid\n    tag_215:\n      swap1\n      0x00\n      mstore\n      keccak256(0x00, 0x20)\n      swap1\n      0x08\n      mul\n      add\n        /* \"TimeAllySIP.sol\":12977:13021  sipPlans[ _sip.planId ].monthlyBenefitFactor */\n      0x05\n      add\n      sload\n        /* \"TimeAllySIP.sol\":12951:12965  _depositAmount */\n      dup13\n        /* \"TimeAllySIP.sol\":12951:12976  _depositAmount... */\n      tag_156\n      swap1\n        /* \"TimeAllySIP.sol\":12951:13022  _depositAmount... */\n      swap2\n      swap1\n      0xffffffff\n      and\n      jump\t// in\n    tag_214:\n        /* \"TimeAllySIP.sol\":12951:13033  _depositAmount... */\n      tag_136\n      swap1\n        /* \"TimeAllySIP.sol\":12951:13039  _depositAmount... */\n      swap2\n      swap1\n      0xffffffff\n      and\n      jump\t// in\n    tag_213:\n        /* \"TimeAllySIP.sol\":12951:13050  _depositAmount... */\n      tag_156\n      swap1\n        /* \"TimeAllySIP.sol\":12951:13094  _depositAmount... */\n      swap2\n      swap1\n      0xffffffff\n      and\n      jump\t// in\n    tag_210:\n        /* \"TimeAllySIP.sol\":12922:13094  uint256 _benefitsToBeGiven = _depositAmount... */\n      swap1\n      pop\n        /* \"TimeAllySIP.sol\":13199:13255  _benefitsToBeGiven.add(pendingBenefitAmountOfAllStakers) */\n      tag_217\n        /* \"TimeAllySIP.sol\":13222:13254  pendingBenefitAmountOfAllStakers */\n      sload(0x03)\n        /* \"TimeAllySIP.sol\":13199:13217  _benefitsToBeGiven */\n      dup3\n        /* \"TimeAllySIP.sol\":13199:13221  _benefitsToBeGiven.add */\n      tag_159\n      swap1\n        /* \"TimeAllySIP.sol\":13199:13255  _benefitsToBeGiven.add(pendingBenefitAmountOfAllStakers) */\n      swap2\n      swap1\n      0xffffffff\n      and\n      jump\t// in\n    tag_217:\n        /* \"TimeAllySIP.sol\":13183:13195  fundsDeposit */\n      sload(0x04)\n        /* \"TimeAllySIP.sol\":13183:13255  fundsDeposit >= _benefitsToBeGiven.add(pendingBenefitAmountOfAllStakers) */\n      lt\n      iszero\n        /* \"TimeAllySIP.sol\":13168:13307  require(... */\n      tag_218\n      jumpi\n      mload(0x40)\n      0x08c379a000000000000000000000000000000000000000000000000000000000\n      dup2\n      mstore\n      0x04\n      add\n      dup1\n      dup1\n      0x20\n      add\n      dup3\n      dup2\n      sub\n      dup3\n      mstore\n      0x23\n      dup2\n      mstore\n      0x20\n      add\n      dup1\n      data_1ed4c5a626955f79ae434eb1205332592ca7c398b87a33918d99477c1feef678\n      0x23\n      swap2\n      codecopy\n      0x40\n      add\n      swap2\n      pop\n      pop\n      mload(0x40)\n      dup1\n      swap2\n      sub\n      swap1\n      revert\n    tag_218:\n        /* \"TimeAllySIP.sol\":13384:13406  uint256 _depositStatus */\n      0x00\n        /* \"TimeAllySIP.sol\":13409:13459  getDepositStatus(_stakerAddress, _sipId, _monthId) */\n      tag_219\n        /* \"TimeAllySIP.sol\":13426:13440  _stakerAddress */\n      dup11\n        /* \"TimeAllySIP.sol\":13442:13448  _sipId */\n      dup11\n        /* \"TimeAllySIP.sol\":13450:13458  _monthId */\n      dup10\n        /* \"TimeAllySIP.sol\":13409:13425  getDepositStatus */\n      tag_69\n        /* \"TimeAllySIP.sol\":13409:13459  getDepositStatus(_stakerAddress, _sipId, _monthId) */\n      jump\t// in\n    tag_219:\n        /* \"TimeAllySIP.sol\":13384:13459  uint256 _depositStatus = getDepositStatus(_stakerAddress, _sipId, _monthId) */\n      swap1\n      pop\n        /* \"TimeAllySIP.sol\":13490:13491  0 */\n      0x00\n        /* \"TimeAllySIP.sol\":13473:13487  _depositStatus */\n      dup2\n        /* \"TimeAllySIP.sol\":13473:13491  _depositStatus > 0 */\n      gt\n        /* \"TimeAllySIP.sol\":13465:13529  require(_depositStatus > 0, 'grace period elapsed or too early') */\n      tag_220\n      jumpi\n      mload(0x40)\n      0x08c379a000000000000000000000000000000000000000000000000000000000\n      dup2\n      mstore\n      0x04\n      add\n      dup1\n      dup1\n      0x20\n      add\n      dup3\n      dup2\n      sub\n      dup3\n      mstore\n      0x21\n      dup2\n      mstore\n      0x20\n      add\n      dup1\n      data_03fd12cc1e83f0add881327c75791a0246e8ebc9eefe5c518ed172fe66fc682c\n      0x21\n      swap2\n      codecopy\n      0x40\n      add\n      swap2\n      pop\n      pop\n      mload(0x40)\n      dup1\n      swap2\n      sub\n      swap1\n      revert\n    tag_220:\n        /* \"TimeAllySIP.sol\":13602:13607  token */\n      0x01\n      0x00\n      swap1\n      sload\n      swap1\n      0x0100\n      exp\n      swap1\n      div\n      0xffffffffffffffffffffffffffffffffffffffff\n      and\n        /* \"TimeAllySIP.sol\":13602:13620  token.transferFrom */\n      0xffffffffffffffffffffffffffffffffffffffff\n      and\n      0x23b872dd\n        /* \"TimeAllySIP.sol\":13621:13631  msg.sender */\n      caller\n        /* \"TimeAllySIP.sol\":13641:13645  this */\n      address\n        /* \"TimeAllySIP.sol\":13648:13662  _depositAmount */\n      dup12\n        /* \"TimeAllySIP.sol\":13602:13663  token.transferFrom(msg.sender, address(this), _depositAmount) */\n      mload(0x40)\n      dup5\n      0xffffffff\n      and\n      0xe0\n      shl\n      dup2\n      mstore\n      0x04\n      add\n      dup1\n      dup5\n      0xffffffffffffffffffffffffffffffffffffffff\n      and\n      0xffffffffffffffffffffffffffffffffffffffff\n      and\n      dup2\n      mstore\n      0x20\n      add\n      dup4\n      0xffffffffffffffffffffffffffffffffffffffff\n      and\n      0xffffffffffffffffffffffffffffffffffffffff\n      and\n      dup2\n      mstore\n      0x20\n      add\n      dup3\n      dup2\n      mstore\n      0x20\n      add\n      swap4\n      pop\n      pop\n      pop\n      pop\n      0x20\n      mload(0x40)\n      dup1\n      dup4\n      sub\n      dup2\n      0x00\n      dup8\n      dup1\n      extcodesize\n      iszero\n        /* \"--CODEGEN--\":8:17   */\n      dup1\n        /* \"--CODEGEN--\":5:7   */\n      iszero\n      tag_221\n      jumpi\n        /* \"--CODEGEN--\":30:31   */\n      0x00\n        /* \"--CODEGEN--\":27:28   */\n      dup1\n        /* \"--CODEGEN--\":20:32   */\n      revert\n        /* \"--CODEGEN--\":5:7   */\n    tag_221:\n        /* \"TimeAllySIP.sol\":13602:13663  token.transferFrom(msg.sender, address(this), _depositAmount) */\n      pop\n      gas\n      call\n      iszero\n        /* \"--CODEGEN--\":8:17   */\n      dup1\n        /* \"--CODEGEN--\":5:7   */\n      iszero\n      tag_222\n      jumpi\n        /* \"--CODEGEN--\":45:61   */\n      returndatasize\n        /* \"--CODEGEN--\":42:43   */\n      0x00\n        /* \"--CODEGEN--\":39:40   */\n      dup1\n        /* \"--CODEGEN--\":24:62   */\n      returndatacopy\n        /* \"--CODEGEN--\":77:93   */\n      returndatasize\n        /* \"--CODEGEN--\":74:75   */\n      0x00\n        /* \"--CODEGEN--\":67:94   */\n      revert\n        /* \"--CODEGEN--\":5:7   */\n    tag_222:\n        /* \"TimeAllySIP.sol\":13602:13663  token.transferFrom(msg.sender, address(this), _depositAmount) */\n      pop\n      pop\n      pop\n      pop\n      mload(0x40)\n      returndatasize\n        /* \"--CODEGEN--\":13:15   */\n      0x20\n        /* \"--CODEGEN--\":8:11   */\n      dup2\n        /* \"--CODEGEN--\":5:16   */\n      lt\n        /* \"--CODEGEN--\":2:4   */\n      iszero\n      tag_223\n      jumpi\n        /* \"--CODEGEN--\":29:30   */\n      0x00\n        /* \"--CODEGEN--\":26:27   */\n      dup1\n        /* \"--CODEGEN--\":19:31   */\n      revert\n        /* \"--CODEGEN--\":2:4   */\n    tag_223:\n        /* \"TimeAllySIP.sol\":13602:13663  token.transferFrom(msg.sender, address(this), _depositAmount) */\n      dup2\n      add\n      swap1\n      dup1\n      dup1\n      mload\n      swap1\n      0x20\n      add\n      swap1\n      swap3\n      swap2\n      swap1\n      pop\n      pop\n      pop\n        /* \"TimeAllySIP.sol\":13594:13664  require(token.transferFrom(msg.sender, address(this), _depositAmount)) */\n      tag_224\n      jumpi\n      0x00\n      dup1\n      revert\n    tag_224:\n        /* \"TimeAllySIP.sol\":13742:13756  _depositStatus */\n      dup1\n        /* \"TimeAllySIP.sol\":13711:13715  _sip */\n      dup4\n        /* \"TimeAllySIP.sol\":13711:13729  _sip.depositStatus */\n      0x08\n      add\n        /* \"TimeAllySIP.sol\":13711:13739  _sip.depositStatus[_monthId] */\n      0x00\n        /* \"TimeAllySIP.sol\":13730:13738  _monthId */\n      dup10\n        /* \"TimeAllySIP.sol\":13711:13739  _sip.depositStatus[_monthId] */\n      dup2\n      mstore\n      0x20\n      add\n      swap1\n      dup2\n      mstore\n      0x20\n      add\n      0x00\n      keccak256\n        /* \"TimeAllySIP.sol\":13711:13756  _sip.depositStatus[_monthId] = _depositStatus */\n      dup2\n      swap1\n      sstore\n      pop\n        /* \"TimeAllySIP.sol\":13893:13932  _sip.totalDeposited.add(_depositAmount) */\n      tag_225\n        /* \"TimeAllySIP.sol\":13917:13931  _depositAmount */\n      dup9\n        /* \"TimeAllySIP.sol\":13893:13897  _sip */\n      dup5\n        /* \"TimeAllySIP.sol\":13893:13912  _sip.totalDeposited */\n      0x03\n      add\n      sload\n        /* \"TimeAllySIP.sol\":13893:13916  _sip.totalDeposited.add */\n      tag_159\n      swap1\n        /* \"TimeAllySIP.sol\":13893:13932  _sip.totalDeposited.add(_depositAmount) */\n      swap2\n      swap1\n      0xffffffff\n      and\n      jump\t// in\n    tag_225:\n        /* \"TimeAllySIP.sol\":13871:13875  _sip */\n      dup4\n        /* \"TimeAllySIP.sol\":13871:13890  _sip.totalDeposited */\n      0x03\n      add\n        /* \"TimeAllySIP.sol\":13871:13932  _sip.totalDeposited = _sip.totalDeposited.add(_depositAmount) */\n      dup2\n      swap1\n      sstore\n      pop\n        /* \"TimeAllySIP.sol\":14017:14085  pendingBenefitAmountOfAllStakers.add(... */\n      tag_226\n        /* \"TimeAllySIP.sol\":14061:14079  _benefitsToBeGiven */\n      dup3\n        /* \"TimeAllySIP.sol\":14017:14049  pendingBenefitAmountOfAllStakers */\n      sload(0x03)\n        /* \"TimeAllySIP.sol\":14017:14053  pendingBenefitAmountOfAllStakers.add */\n      tag_159\n      swap1\n        /* \"TimeAllySIP.sol\":14017:14085  pendingBenefitAmountOfAllStakers.add(... */\n      swap2\n      swap1\n      0xffffffff\n      and\n      jump\t// in\n    tag_226:\n        /* \"TimeAllySIP.sol\":13982:14014  pendingBenefitAmountOfAllStakers */\n      0x03\n        /* \"TimeAllySIP.sol\":13982:14085  pendingBenefitAmountOfAllStakers = pendingBenefitAmountOfAllStakers.add(... */\n      dup2\n      swap1\n      sstore\n      pop\n        /* \"TimeAllySIP.sol\":14172:14178  _sipId */\n      dup9\n        /* \"TimeAllySIP.sol\":14156:14170  _stakerAddress */\n      dup11\n        /* \"TimeAllySIP.sol\":14145:14237  NewDeposit(_stakerAddress, _sipId, _monthId, _depositAmount, _benefitsToBeGiven, msg.sender) */\n      0xffffffffffffffffffffffffffffffffffffffff\n      and\n      0xbaf4c88598102708c4215d5d3767268130627355850b7ece9bdfdc32fd2941f0\n        /* \"TimeAllySIP.sol\":14180:14188  _monthId */\n      dup10\n        /* \"TimeAllySIP.sol\":14190:14204  _depositAmount */\n      dup12\n        /* \"TimeAllySIP.sol\":14206:14224  _benefitsToBeGiven */\n      dup7\n        /* \"TimeAllySIP.sol\":14226:14236  msg.sender */\n      caller\n        /* \"TimeAllySIP.sol\":14145:14237  NewDeposit(_stakerAddress, _sipId, _monthId, _depositAmount, _benefitsToBeGiven, msg.sender) */\n      mload(0x40)\n      dup1\n      dup6\n      dup2\n      mstore\n      0x20\n      add\n      dup5\n      dup2\n      mstore\n      0x20\n      add\n      dup4\n      dup2\n      mstore\n      0x20\n      add\n      dup3\n      0xffffffffffffffffffffffffffffffffffffffff\n      and\n      0xffffffffffffffffffffffffffffffffffffffff\n      and\n      dup2\n      mstore\n      0x20\n      add\n      swap5\n      pop\n      pop\n      pop\n      pop\n      pop\n      mload(0x40)\n      dup1\n      swap2\n      sub\n      swap1\n      log3\n        /* \"TimeAllySIP.sol\":5939:5940  _ */\n      pop\n      pop\n      pop\n        /* \"TimeAllySIP.sol\":12312:14242  function monthlyDeposit(... */\n      pop\n      pop\n      pop\n      pop\n      pop\n      pop\n      pop\n      jump\t// out\n        /* \"TimeAllySIP.sol\":27087:27299  function viewAppointation(... */\n    tag_64:\n        /* \"TimeAllySIP.sol\":27217:27221  bool */\n      0x00\n        /* \"TimeAllySIP.sol\":27236:27240  sips */\n      0x06\n        /* \"TimeAllySIP.sol\":27236:27256  sips[_stakerAddress] */\n      0x00\n        /* \"TimeAllySIP.sol\":27241:27255  _stakerAddress */\n      dup6\n        /* \"TimeAllySIP.sol\":27236:27256  sips[_stakerAddress] */\n      0xffffffffffffffffffffffffffffffffffffffff\n      and\n      0xffffffffffffffffffffffffffffffffffffffff\n      and\n      dup2\n      mstore\n      0x20\n      add\n      swap1\n      dup2\n      mstore\n      0x20\n      add\n      0x00\n      keccak256\n        /* \"TimeAllySIP.sol\":27257:27263  _sipId */\n      dup4\n        /* \"TimeAllySIP.sol\":27236:27264  sips[_stakerAddress][_sipId] */\n      dup2\n      sload\n      dup2\n      lt\n      tag_228\n      jumpi\n      invalid\n    tag_228:\n      swap1\n      0x00\n      mstore\n      keccak256(0x00, 0x20)\n      swap1\n      0x0b\n      mul\n      add\n        /* \"TimeAllySIP.sol\":27236:27275  sips[_stakerAddress][_sipId].appointees */\n      0x0a\n      add\n        /* \"TimeAllySIP.sol\":27236:27294  sips[_stakerAddress][_sipId].appointees[_appointeeAddress] */\n      0x00\n        /* \"TimeAllySIP.sol\":27276:27293  _appointeeAddress */\n      dup4\n        /* \"TimeAllySIP.sol\":27236:27294  sips[_stakerAddress][_sipId].appointees[_appointeeAddress] */\n      0xffffffffffffffffffffffffffffffffffffffff\n      and\n      0xffffffffffffffffffffffffffffffffffffffff\n      and\n      dup2\n      mstore\n      0x20\n      add\n      swap1\n      dup2\n      mstore\n      0x20\n      add\n      0x00\n      keccak256\n      0x00\n      swap1\n      sload\n      swap1\n      0x0100\n      exp\n      swap1\n      div\n      0xff\n      and\n        /* \"TimeAllySIP.sol\":27229:27294  return sips[_stakerAddress][_sipId].appointees[_appointeeAddress] */\n      swap1\n      pop\n        /* \"TimeAllySIP.sol\":27087:27299  function viewAppointation(... */\n      swap4\n      swap3\n      pop\n      pop\n      pop\n      jump\t// out\n        /* \"TimeAllySIP.sol\":2587:2607  address public owner */\n    tag_66:\n      0x00\n      dup1\n      swap1\n      sload\n      swap1\n      0x0100\n      exp\n      swap1\n      div\n      0xffffffffffffffffffffffffffffffffffffffff\n      and\n      dup2\n      jump\t// out\n        /* \"TimeAllySIP.sol\":22811:23882  function getDepositStatus(... */\n    tag_69:\n        /* \"TimeAllySIP.sol\":22932:22939  uint256 */\n      0x00\n        /* \"TimeAllySIP.sol\":22947:22963  SIP storage _sip */\n      dup1\n        /* \"TimeAllySIP.sol\":22966:22970  sips */\n      0x06\n        /* \"TimeAllySIP.sol\":22966:22986  sips[_stakerAddress] */\n      0x00\n        /* \"TimeAllySIP.sol\":22971:22985  _stakerAddress */\n      dup7\n        /* \"TimeAllySIP.sol\":22966:22986  sips[_stakerAddress] */\n      0xffffffffffffffffffffffffffffffffffffffff\n      and\n      0xffffffffffffffffffffffffffffffffffffffff\n      and\n      dup2\n      mstore\n      0x20\n      add\n      swap1\n      dup2\n      mstore\n      0x20\n      add\n      0x00\n      keccak256\n        /* \"TimeAllySIP.sol\":22987:22993  _sipId */\n      dup5\n        /* \"TimeAllySIP.sol\":22966:22994  sips[_stakerAddress][_sipId] */\n      dup2\n      sload\n      dup2\n      lt\n      tag_231\n      jumpi\n      invalid\n    tag_231:\n      swap1\n      0x00\n      mstore\n      keccak256(0x00, 0x20)\n      swap1\n      0x0b\n      mul\n      add\n        /* \"TimeAllySIP.sol\":22947:22994  SIP storage _sip = sips[_stakerAddress][_sipId] */\n      swap1\n      pop\n        /* \"TimeAllySIP.sol\":23099:23100  1 */\n      0x01\n        /* \"TimeAllySIP.sol\":23087:23095  _monthId */\n      dup4\n        /* \"TimeAllySIP.sol\":23087:23100  _monthId >= 1 */\n      lt\n      iszero\n        /* \"TimeAllySIP.sol\":23087:23172  _monthId >= 1 && _monthId... */\n      dup1\n      iszero\n      tag_233\n      jumpi\n      pop\n        /* \"TimeAllySIP.sol\":23124:23132  sipPlans */\n      0x05\n        /* \"TimeAllySIP.sol\":23134:23138  _sip */\n      dup2\n        /* \"TimeAllySIP.sol\":23134:23145  _sip.planId */\n      0x00\n      add\n      sload\n        /* \"TimeAllySIP.sol\":23124:23147  sipPlans[ _sip.planId ] */\n      dup2\n      sload\n      dup2\n      lt\n      tag_234\n      jumpi\n      invalid\n    tag_234:\n      swap1\n      0x00\n      mstore\n      keccak256(0x00, 0x20)\n      swap1\n      0x08\n      mul\n      add\n        /* \"TimeAllySIP.sol\":23124:23172  sipPlans[ _sip.planId ].accumulationPeriodMonths */\n      0x02\n      add\n      sload\n        /* \"TimeAllySIP.sol\":23104:23112  _monthId */\n      dup4\n        /* \"TimeAllySIP.sol\":23104:23172  _monthId... */\n      gt\n      iszero\n        /* \"TimeAllySIP.sol\":23087:23172  _monthId >= 1 && _monthId... */\n    tag_233:\n        /* \"TimeAllySIP.sol\":23072:23210  require(... */\n      tag_236\n      jumpi\n      mload(0x40)\n      0x08c379a000000000000000000000000000000000000000000000000000000000\n      dup2\n      mstore\n      0x04\n      add\n      dup1\n      dup1\n      0x20\n      add\n      dup3\n      dup2\n      sub\n      dup3\n      mstore\n      0x15\n      dup2\n      mstore\n      0x20\n      add\n      dup1\n      0x696e76616c6964206465706f736974206d6f6e74680000000000000000000000\n      dup2\n      mstore\n      pop\n      0x20\n      add\n      swap2\n      pop\n      pop\n      mload(0x40)\n      dup1\n      swap2\n      sub\n      swap1\n      revert\n    tag_236:\n        /* \"TimeAllySIP.sol\":23278:23301  uint256 onTimeTimestamp */\n      0x00\n        /* \"TimeAllySIP.sol\":23365:23366  1 */\n      0x01\n        /* \"TimeAllySIP.sol\":23354:23362  _monthId */\n      dup5\n        /* \"TimeAllySIP.sol\":23354:23366  _monthId - 1 */\n      sub\n        /* \"TimeAllySIP.sol\":23328:23350  EARTH_SECONDS_IN_MONTH */\n      sload(0x02)\n        /* \"TimeAllySIP.sol\":23328:23367  EARTH_SECONDS_IN_MONTH * (_monthId - 1) */\n      mul\n        /* \"TimeAllySIP.sol\":23304:23308  _sip */\n      dup3\n        /* \"TimeAllySIP.sol\":23304:23325  _sip.stakingTimestamp */\n      0x01\n      add\n      sload\n        /* \"TimeAllySIP.sol\":23304:23367  _sip.stakingTimestamp + EARTH_SECONDS_IN_MONTH * (_monthId - 1) */\n      add\n        /* \"TimeAllySIP.sol\":23278:23367  uint256 onTimeTimestamp = _sip.stakingTimestamp + EARTH_SECONDS_IN_MONTH * (_monthId - 1) */\n      swap1\n      pop\n        /* \"TimeAllySIP.sol\":23464:23486  EARTH_SECONDS_IN_MONTH */\n      sload(0x02)\n        /* \"TimeAllySIP.sol\":23446:23461  onTimeTimestamp */\n      dup2\n        /* \"TimeAllySIP.sol\":23446:23486  onTimeTimestamp - EARTH_SECONDS_IN_MONTH */\n      sub\n        /* \"TimeAllySIP.sol\":23440:23443  now */\n      timestamp\n        /* \"TimeAllySIP.sol\":23440:23486  now < onTimeTimestamp - EARTH_SECONDS_IN_MONTH */\n      lt\n        /* \"TimeAllySIP.sol\":23437:23878  if(now < onTimeTimestamp - EARTH_SECONDS_IN_MONTH) {... */\n      iszero\n      tag_237\n      jumpi\n        /* \"TimeAllySIP.sol\":23503:23504  0 */\n      0x00\n        /* \"TimeAllySIP.sol\":23496:23504  return 0 */\n      swap3\n      pop\n      pop\n      pop\n      jump(tag_230)\n        /* \"TimeAllySIP.sol\":23437:23878  if(now < onTimeTimestamp - EARTH_SECONDS_IN_MONTH) {... */\n    tag_237:\n        /* \"TimeAllySIP.sol\":23592:23595  now */\n      timestamp\n        /* \"TimeAllySIP.sol\":23573:23588  onTimeTimestamp */\n      dup2\n        /* \"TimeAllySIP.sol\":23573:23595  onTimeTimestamp >= now */\n      lt\n        /* \"TimeAllySIP.sol\":23570:23878  if(onTimeTimestamp >= now) {... */\n      tag_239\n      jumpi\n        /* \"TimeAllySIP.sol\":23612:23613  2 */\n      0x02\n        /* \"TimeAllySIP.sol\":23605:23613  return 2 */\n      swap3\n      pop\n      pop\n      pop\n      jump(tag_230)\n        /* \"TimeAllySIP.sol\":23570:23878  if(onTimeTimestamp >= now) {... */\n    tag_239:\n        /* \"TimeAllySIP.sol\":23729:23732  now */\n      timestamp\n        /* \"TimeAllySIP.sol\":23683:23691  sipPlans */\n      0x05\n        /* \"TimeAllySIP.sol\":23693:23697  _sip */\n      dup4\n        /* \"TimeAllySIP.sol\":23693:23704  _sip.planId */\n      0x00\n      add\n      sload\n        /* \"TimeAllySIP.sol\":23683:23706  sipPlans[ _sip.planId ] */\n      dup2\n      sload\n      dup2\n      lt\n      tag_241\n      jumpi\n      invalid\n    tag_241:\n      swap1\n      0x00\n      mstore\n      keccak256(0x00, 0x20)\n      swap1\n      0x08\n      mul\n      add\n        /* \"TimeAllySIP.sol\":23683:23725  sipPlans[ _sip.planId ].gracePeriodSeconds */\n      0x04\n      add\n      sload\n        /* \"TimeAllySIP.sol\":23665:23680  onTimeTimestamp */\n      dup3\n        /* \"TimeAllySIP.sol\":23665:23725  onTimeTimestamp + sipPlans[ _sip.planId ].gracePeriodSeconds */\n      add\n        /* \"TimeAllySIP.sol\":23665:23732  onTimeTimestamp + sipPlans[ _sip.planId ].gracePeriodSeconds >= now */\n      lt\n        /* \"TimeAllySIP.sol\":23662:23878  if(onTimeTimestamp + sipPlans[ _sip.planId ].gracePeriodSeconds >= now) {... */\n      tag_243\n      jumpi\n        /* \"TimeAllySIP.sol\":23749:23750  1 */\n      0x01\n        /* \"TimeAllySIP.sol\":23742:23750  return 1 */\n      swap3\n      pop\n      pop\n      pop\n      jump(tag_230)\n        /* \"TimeAllySIP.sol\":23662:23878  if(onTimeTimestamp + sipPlans[ _sip.planId ].gracePeriodSeconds >= now) {... */\n    tag_243:\n        /* \"TimeAllySIP.sol\":23823:23824  0 */\n      0x00\n        /* \"TimeAllySIP.sol\":23816:23824  return 0 */\n      swap3\n      pop\n      pop\n      pop\n        /* \"TimeAllySIP.sol\":22811:23882  function getDepositStatus(... */\n    tag_230:\n      swap4\n      swap3\n      pop\n      pop\n      pop\n      jump\t// out\n        /* \"TimeAllySIP.sol\":24336:26284  function getPendingWithdrawlAmount(... */\n    tag_72:\n        /* \"TimeAllySIP.sol\":24507:24514  uint256 */\n      0x00\n        /* \"TimeAllySIP.sol\":24522:24538  SIP storage _sip */\n      dup1\n        /* \"TimeAllySIP.sol\":24541:24545  sips */\n      0x06\n        /* \"TimeAllySIP.sol\":24541:24561  sips[_stakerAddress] */\n      0x00\n        /* \"TimeAllySIP.sol\":24546:24560  _stakerAddress */\n      dup8\n        /* \"TimeAllySIP.sol\":24541:24561  sips[_stakerAddress] */\n      0xffffffffffffffffffffffffffffffffffffffff\n      and\n      0xffffffffffffffffffffffffffffffffffffffff\n      and\n      dup2\n      mstore\n      0x20\n      add\n      swap1\n      dup2\n      mstore\n      0x20\n      add\n      0x00\n      keccak256\n        /* \"TimeAllySIP.sol\":24562:24568  _sipId */\n      dup6\n        /* \"TimeAllySIP.sol\":24541:24569  sips[_stakerAddress][_sipId] */\n      dup2\n      sload\n      dup2\n      lt\n      tag_246\n      jumpi\n      invalid\n    tag_246:\n      swap1\n      0x00\n      mstore\n      keccak256(0x00, 0x20)\n      swap1\n      0x0b\n      mul\n      add\n        /* \"TimeAllySIP.sol\":24522:24569  SIP storage _sip = sips[_stakerAddress][_sipId] */\n      swap1\n      pop\n        /* \"TimeAllySIP.sol\":24672:24673  0 */\n      0x00\n        /* \"TimeAllySIP.sol\":24652:24669  _withdrawlMonthId */\n      dup5\n        /* \"TimeAllySIP.sol\":24652:24673  _withdrawlMonthId > 0 */\n      gt\n        /* \"TimeAllySIP.sol\":24652:24745  _withdrawlMonthId > 0 && _withdrawlMonthId <= sipPlans[ _sip.planId ].benefitPeriodYears * 12 */\n      dup1\n      iszero\n      tag_248\n      jumpi\n      pop\n        /* \"TimeAllySIP.sol\":24743:24745  12 */\n      0x0c\n        /* \"TimeAllySIP.sol\":24698:24706  sipPlans */\n      0x05\n        /* \"TimeAllySIP.sol\":24708:24712  _sip */\n      dup3\n        /* \"TimeAllySIP.sol\":24708:24719  _sip.planId */\n      0x00\n      add\n      sload\n        /* \"TimeAllySIP.sol\":24698:24721  sipPlans[ _sip.planId ] */\n      dup2\n      sload\n      dup2\n      lt\n      tag_249\n      jumpi\n      invalid\n    tag_249:\n      swap1\n      0x00\n      mstore\n      keccak256(0x00, 0x20)\n      swap1\n      0x08\n      mul\n      add\n        /* \"TimeAllySIP.sol\":24698:24740  sipPlans[ _sip.planId ].benefitPeriodYears */\n      0x03\n      add\n      sload\n        /* \"TimeAllySIP.sol\":24698:24745  sipPlans[ _sip.planId ].benefitPeriodYears * 12 */\n      mul\n        /* \"TimeAllySIP.sol\":24677:24694  _withdrawlMonthId */\n      dup5\n        /* \"TimeAllySIP.sol\":24677:24745  _withdrawlMonthId <= sipPlans[ _sip.planId ].benefitPeriodYears * 12 */\n      gt\n      iszero\n        /* \"TimeAllySIP.sol\":24652:24745  _withdrawlMonthId > 0 && _withdrawlMonthId <= sipPlans[ _sip.planId ].benefitPeriodYears * 12 */\n    tag_248:\n        /* \"TimeAllySIP.sol\":24637:24784  require(... */\n      tag_251\n      jumpi\n      mload(0x40)\n      0x08c379a000000000000000000000000000000000000000000000000000000000\n      dup2\n      mstore\n      0x04\n      add\n      dup1\n      dup1\n      0x20\n      add\n      dup3\n      dup2\n      sub\n      dup3\n      mstore\n      0x16\n      dup2\n      mstore\n      0x20\n      add\n      dup1\n      0x696e76616c6964207769746864726177206d6f6e746800000000000000000000\n      dup2\n      mstore\n      pop\n      0x20\n      add\n      swap2\n      pop\n      pop\n      mload(0x40)\n      dup1\n      swap2\n      sub\n      swap1\n      revert\n    tag_251:\n        /* \"TimeAllySIP.sol\":24899:24903  _sip */\n      dup1\n        /* \"TimeAllySIP.sol\":24899:24924  _sip.lastWithdrawlMonthId */\n      0x04\n      add\n      sload\n        /* \"TimeAllySIP.sol\":24879:24896  _withdrawlMonthId */\n      dup5\n        /* \"TimeAllySIP.sol\":24879:24924  _withdrawlMonthId > _sip.lastWithdrawlMonthId */\n      gt\n        /* \"TimeAllySIP.sol\":24864:24962  require(... */\n      tag_252\n      jumpi\n      mload(0x40)\n      0x08c379a000000000000000000000000000000000000000000000000000000000\n      dup2\n      mstore\n      0x04\n      add\n      dup1\n      dup1\n      0x20\n      add\n      dup3\n      dup2\n      sub\n      dup3\n      mstore\n      0x15\n      dup2\n      mstore\n      0x20\n      add\n      dup1\n      0x63616e6e6f7420776974686472617720616761696e0000000000000000000000\n      dup2\n      mstore\n      pop\n      0x20\n      add\n      swap2\n      pop\n      pop\n      mload(0x40)\n      dup1\n      swap2\n      sub\n      swap1\n      revert\n    tag_252:\n        /* \"TimeAllySIP.sol\":25019:25052  uint256 withdrawlAllowedTimestamp */\n      0x00\n        /* \"TimeAllySIP.sol\":25213:25214  1 */\n      0x01\n        /* \"TimeAllySIP.sol\":25193:25210  _withdrawlMonthId */\n      dup6\n        /* \"TimeAllySIP.sol\":25130:25138  sipPlans */\n      0x05\n        /* \"TimeAllySIP.sol\":25140:25144  _sip */\n      dup5\n        /* \"TimeAllySIP.sol\":25140:25151  _sip.planId */\n      0x00\n      add\n      sload\n        /* \"TimeAllySIP.sol\":25130:25153  sipPlans[ _sip.planId ] */\n      dup2\n      sload\n      dup2\n      lt\n      tag_253\n      jumpi\n      invalid\n    tag_253:\n      swap1\n      0x00\n      mstore\n      keccak256(0x00, 0x20)\n      swap1\n      0x08\n      mul\n      add\n        /* \"TimeAllySIP.sol\":25130:25178  sipPlans[ _sip.planId ].accumulationPeriodMonths */\n      0x02\n      add\n      sload\n        /* \"TimeAllySIP.sol\":25130:25210  sipPlans[ _sip.planId ].accumulationPeriodMonths... */\n      add\n        /* \"TimeAllySIP.sol\":25130:25214  sipPlans[ _sip.planId ].accumulationPeriodMonths... */\n      sub\n        /* \"TimeAllySIP.sol\":25093:25115  EARTH_SECONDS_IN_MONTH */\n      sload(0x02)\n        /* \"TimeAllySIP.sol\":25093:25224  EARTH_SECONDS_IN_MONTH * (... */\n      mul\n        /* \"TimeAllySIP.sol\":25061:25065  _sip */\n      dup3\n        /* \"TimeAllySIP.sol\":25061:25082  _sip.stakingTimestamp */\n      0x01\n      add\n      sload\n        /* \"TimeAllySIP.sol\":25061:25224  _sip.stakingTimestamp... */\n      add\n        /* \"TimeAllySIP.sol\":25019:25224  uint256 withdrawlAllowedTimestamp... */\n      swap1\n      pop\n        /* \"TimeAllySIP.sol\":25301:25322  _isNomineeWithdrawing */\n      dup4\n        /* \"TimeAllySIP.sol\":25298:25712  if(_isNomineeWithdrawing) {... */\n      iszero\n      tag_255\n      jumpi\n        /* \"TimeAllySIP.sol\":25357:25387  _sip.numberOfAppointees.div(2) */\n      tag_256\n        /* \"TimeAllySIP.sol\":25385:25386  2 */\n      0x02\n        /* \"TimeAllySIP.sol\":25357:25361  _sip */\n      dup4\n        /* \"TimeAllySIP.sol\":25357:25380  _sip.numberOfAppointees */\n      0x06\n      add\n      sload\n        /* \"TimeAllySIP.sol\":25357:25384  _sip.numberOfAppointees.div */\n      tag_136\n      swap1\n        /* \"TimeAllySIP.sol\":25357:25387  _sip.numberOfAppointees.div(2) */\n      swap2\n      swap1\n      0xffffffff\n      and\n      jump\t// in\n    tag_256:\n        /* \"TimeAllySIP.sol\":25335:25339  _sip */\n      dup3\n        /* \"TimeAllySIP.sol\":25335:25354  _sip.appointeeVotes */\n      0x07\n      add\n      sload\n        /* \"TimeAllySIP.sol\":25335:25387  _sip.appointeeVotes > _sip.numberOfAppointees.div(2) */\n      gt\n        /* \"TimeAllySIP.sol\":25332:25706  if(_sip.appointeeVotes > _sip.numberOfAppointees.div(2)) {... */\n      iszero\n      tag_257\n      jumpi\n        /* \"TimeAllySIP.sol\":25535:25536  6 */\n      0x06\n        /* \"TimeAllySIP.sol\":25510:25532  EARTH_SECONDS_IN_MONTH */\n      sload(0x02)\n        /* \"TimeAllySIP.sol\":25510:25536  EARTH_SECONDS_IN_MONTH * 6 */\n      mul\n        /* \"TimeAllySIP.sol\":25481:25536  withdrawlAllowedTimestamp += EARTH_SECONDS_IN_MONTH * 6 */\n      dup2\n      add\n      swap1\n      pop\n        /* \"TimeAllySIP.sol\":25332:25706  if(_sip.appointeeVotes > _sip.numberOfAppointees.div(2)) {... */\n      jump(tag_258)\n    tag_257:\n        /* \"TimeAllySIP.sol\":25695:25697  12 */\n      0x0c\n        /* \"TimeAllySIP.sol\":25670:25692  EARTH_SECONDS_IN_MONTH */\n      sload(0x02)\n        /* \"TimeAllySIP.sol\":25670:25697  EARTH_SECONDS_IN_MONTH * 12 */\n      mul\n        /* \"TimeAllySIP.sol\":25641:25697  withdrawlAllowedTimestamp += EARTH_SECONDS_IN_MONTH * 12 */\n      dup2\n      add\n      swap1\n      pop\n        /* \"TimeAllySIP.sol\":25332:25706  if(_sip.appointeeVotes > _sip.numberOfAppointees.div(2)) {... */\n    tag_258:\n        /* \"TimeAllySIP.sol\":25298:25712  if(_isNomineeWithdrawing) {... */\n    tag_255:\n        /* \"TimeAllySIP.sol\":25777:25802  withdrawlAllowedTimestamp */\n      dup1\n        /* \"TimeAllySIP.sol\":25770:25773  now */\n      timestamp\n        /* \"TimeAllySIP.sol\":25770:25802  now >= withdrawlAllowedTimestamp */\n      lt\n      iszero\n        /* \"TimeAllySIP.sol\":25762:25840  require(now >= withdrawlAllowedTimestamp... */\n      tag_259\n      jumpi\n      mload(0x40)\n      0x08c379a000000000000000000000000000000000000000000000000000000000\n      dup2\n      mstore\n      0x04\n      add\n      dup1\n      dup1\n      0x20\n      add\n      dup3\n      dup2\n      sub\n      dup3\n      mstore\n      0x15\n      dup2\n      mstore\n      0x20\n      add\n      dup1\n      0x63616e6e6f74207769746864726177206561726c790000000000000000000000\n      dup2\n      mstore\n      pop\n      0x20\n      add\n      swap2\n      pop\n      pop\n      mload(0x40)\n      dup1\n      swap2\n      sub\n      swap1\n      revert\n    tag_259:\n        /* \"TimeAllySIP.sol\":25889:25919  uint256 _averageMonthlyDeposit */\n      0x00\n        /* \"TimeAllySIP.sol\":25922:26002  _sip.totalDeposited... */\n      tag_260\n        /* \"TimeAllySIP.sol\":25953:25961  sipPlans */\n      0x05\n        /* \"TimeAllySIP.sol\":25963:25967  _sip */\n      dup5\n        /* \"TimeAllySIP.sol\":25963:25974  _sip.planId */\n      0x00\n      add\n      sload\n        /* \"TimeAllySIP.sol\":25953:25976  sipPlans[ _sip.planId ] */\n      dup2\n      sload\n      dup2\n      lt\n      tag_261\n      jumpi\n      invalid\n    tag_261:\n      swap1\n      0x00\n      mstore\n      keccak256(0x00, 0x20)\n      swap1\n      0x08\n      mul\n      add\n        /* \"TimeAllySIP.sol\":25953:26001  sipPlans[ _sip.planId ].accumulationPeriodMonths */\n      0x02\n      add\n      sload\n        /* \"TimeAllySIP.sol\":25922:25926  _sip */\n      dup5\n        /* \"TimeAllySIP.sol\":25922:25941  _sip.totalDeposited */\n      0x03\n      add\n      sload\n        /* \"TimeAllySIP.sol\":25922:25952  _sip.totalDeposited... */\n      tag_136\n      swap1\n        /* \"TimeAllySIP.sol\":25922:26002  _sip.totalDeposited... */\n      swap2\n      swap1\n      0xffffffff\n      and\n      jump\t// in\n    tag_260:\n        /* \"TimeAllySIP.sol\":25889:26002  uint256 _averageMonthlyDeposit = _sip.totalDeposited... */\n      swap1\n      pop\n        /* \"TimeAllySIP.sol\":26010:26037  uint256 _singleMonthBenefit */\n      0x00\n        /* \"TimeAllySIP.sol\":26040:26136  _averageMonthlyDeposit... */\n      tag_263\n        /* \"TimeAllySIP.sol\":26131:26135  1000 */\n      0x03e8\n        /* \"TimeAllySIP.sol\":26040:26119  _averageMonthlyDeposit... */\n      tag_264\n        /* \"TimeAllySIP.sol\":26074:26082  sipPlans */\n      0x05\n        /* \"TimeAllySIP.sol\":26084:26088  _sip */\n      dup8\n        /* \"TimeAllySIP.sol\":26084:26095  _sip.planId */\n      0x00\n      add\n      sload\n        /* \"TimeAllySIP.sol\":26074:26097  sipPlans[ _sip.planId ] */\n      dup2\n      sload\n      dup2\n      lt\n      tag_265\n      jumpi\n      invalid\n    tag_265:\n      swap1\n      0x00\n      mstore\n      keccak256(0x00, 0x20)\n      swap1\n      0x08\n      mul\n      add\n        /* \"TimeAllySIP.sol\":26074:26118  sipPlans[ _sip.planId ].monthlyBenefitFactor */\n      0x05\n      add\n      sload\n        /* \"TimeAllySIP.sol\":26040:26062  _averageMonthlyDeposit */\n      dup6\n        /* \"TimeAllySIP.sol\":26040:26073  _averageMonthlyDeposit... */\n      tag_156\n      swap1\n        /* \"TimeAllySIP.sol\":26040:26119  _averageMonthlyDeposit... */\n      swap2\n      swap1\n      0xffffffff\n      and\n      jump\t// in\n    tag_264:\n        /* \"TimeAllySIP.sol\":26040:26130  _averageMonthlyDeposit... */\n      tag_136\n      swap1\n        /* \"TimeAllySIP.sol\":26040:26136  _averageMonthlyDeposit... */\n      swap2\n      swap1\n      0xffffffff\n      and\n      jump\t// in\n    tag_263:\n        /* \"TimeAllySIP.sol\":26010:26136  uint256 _singleMonthBenefit = _averageMonthlyDeposit... */\n      swap1\n      pop\n        /* \"TimeAllySIP.sol\":26142:26164  uint256 _benefitToGive */\n      0x00\n        /* \"TimeAllySIP.sol\":26167:26252  _singleMonthBenefit.mul(... */\n      tag_267\n        /* \"TimeAllySIP.sol\":26198:26246  _withdrawlMonthId.sub(_sip.lastWithdrawlMonthId) */\n      tag_268\n        /* \"TimeAllySIP.sol\":26220:26224  _sip */\n      dup7\n        /* \"TimeAllySIP.sol\":26220:26245  _sip.lastWithdrawlMonthId */\n      0x04\n      add\n      sload\n        /* \"TimeAllySIP.sol\":26198:26215  _withdrawlMonthId */\n      dup11\n        /* \"TimeAllySIP.sol\":26198:26219  _withdrawlMonthId.sub */\n      tag_103\n      swap1\n        /* \"TimeAllySIP.sol\":26198:26246  _withdrawlMonthId.sub(_sip.lastWithdrawlMonthId) */\n      swap2\n      swap1\n      0xffffffff\n      and\n      jump\t// in\n    tag_268:\n        /* \"TimeAllySIP.sol\":26167:26186  _singleMonthBenefit */\n      dup4\n        /* \"TimeAllySIP.sol\":26167:26190  _singleMonthBenefit.mul */\n      tag_156\n      swap1\n        /* \"TimeAllySIP.sol\":26167:26252  _singleMonthBenefit.mul(... */\n      swap2\n      swap1\n      0xffffffff\n      and\n      jump\t// in\n    tag_267:\n        /* \"TimeAllySIP.sol\":26142:26252  uint256 _benefitToGive = _singleMonthBenefit.mul(... */\n      swap1\n      pop\n        /* \"TimeAllySIP.sol\":26265:26279  _benefitToGive */\n      dup1\n        /* \"TimeAllySIP.sol\":26258:26279  return _benefitToGive */\n      swap6\n      pop\n      pop\n      pop\n      pop\n      pop\n      pop\n        /* \"TimeAllySIP.sol\":24336:26284  function getPendingWithdrawlAmount(... */\n      swap5\n      swap4\n      pop\n      pop\n      pop\n      pop\n      jump\t// out\n        /* \"TimeAllySIP.sol\":21267:21862  function appointeeVote(... */\n    tag_75:\n        /* \"TimeAllySIP.sol\":21355:21371  SIP storage _sip */\n      0x00\n        /* \"TimeAllySIP.sol\":21374:21378  sips */\n      0x06\n        /* \"TimeAllySIP.sol\":21374:21394  sips[_stakerAddress] */\n      0x00\n        /* \"TimeAllySIP.sol\":21379:21393  _stakerAddress */\n      dup5\n        /* \"TimeAllySIP.sol\":21374:21394  sips[_stakerAddress] */\n      0xffffffffffffffffffffffffffffffffffffffff\n      and\n      0xffffffffffffffffffffffffffffffffffffffff\n      and\n      dup2\n      mstore\n      0x20\n      add\n      swap1\n      dup2\n      mstore\n      0x20\n      add\n      0x00\n      keccak256\n        /* \"TimeAllySIP.sol\":21395:21401  _sipId */\n      dup3\n        /* \"TimeAllySIP.sol\":21374:21402  sips[_stakerAddress][_sipId] */\n      dup2\n      sload\n      dup2\n      lt\n      tag_270\n      jumpi\n      invalid\n    tag_270:\n      swap1\n      0x00\n      mstore\n      keccak256(0x00, 0x20)\n      swap1\n      0x0b\n      mul\n      add\n        /* \"TimeAllySIP.sol\":21355:21402  SIP storage _sip = sips[_stakerAddress][_sipId] */\n      swap1\n      pop\n        /* \"TimeAllySIP.sol\":21481:21485  _sip */\n      dup1\n        /* \"TimeAllySIP.sol\":21481:21496  _sip.appointees */\n      0x0a\n      add\n        /* \"TimeAllySIP.sol\":21481:21508  _sip.appointees[msg.sender] */\n      0x00\n        /* \"TimeAllySIP.sol\":21497:21507  msg.sender */\n      caller\n        /* \"TimeAllySIP.sol\":21481:21508  _sip.appointees[msg.sender] */\n      0xffffffffffffffffffffffffffffffffffffffff\n      and\n      0xffffffffffffffffffffffffffffffffffffffff\n      and\n      dup2\n      mstore\n      0x20\n      add\n      swap1\n      dup2\n      mstore\n      0x20\n      add\n      0x00\n      keccak256\n      0x00\n      swap1\n      sload\n      swap1\n      0x0100\n      exp\n      swap1\n      div\n      0xff\n      and\n        /* \"TimeAllySIP.sol\":21473:21557  require(_sip.appointees[msg.sender]... */\n      tag_272\n      jumpi\n      mload(0x40)\n      0x08c379a000000000000000000000000000000000000000000000000000000000\n      dup2\n      mstore\n      0x04\n      add\n      dup1\n      dup1\n      0x20\n      add\n      dup3\n      dup2\n      sub\n      dup3\n      mstore\n      0x20\n      dup2\n      mstore\n      0x20\n      add\n      dup1\n      0x73686f756c64206265206170706f696e74656520746f206361737420766f7465\n      dup2\n      mstore\n      pop\n      0x20\n      add\n      swap2\n      pop\n      pop\n      mload(0x40)\n      dup1\n      swap2\n      sub\n      swap1\n      revert\n    tag_272:\n        /* \"TimeAllySIP.sol\":21652:21657  false */\n      0x00\n        /* \"TimeAllySIP.sol\":21622:21626  _sip */\n      dup2\n        /* \"TimeAllySIP.sol\":21622:21637  _sip.appointees */\n      0x0a\n      add\n        /* \"TimeAllySIP.sol\":21622:21649  _sip.appointees[msg.sender] */\n      0x00\n        /* \"TimeAllySIP.sol\":21638:21648  msg.sender */\n      caller\n        /* \"TimeAllySIP.sol\":21622:21649  _sip.appointees[msg.sender] */\n      0xffffffffffffffffffffffffffffffffffffffff\n      and\n      0xffffffffffffffffffffffffffffffffffffffff\n      and\n      dup2\n      mstore\n      0x20\n      add\n      swap1\n      dup2\n      mstore\n      0x20\n      add\n      0x00\n      keccak256\n      0x00\n        /* \"TimeAllySIP.sol\":21622:21657  _sip.appointees[msg.sender] = false */\n      0x0100\n      exp\n      dup2\n      sload\n      dup2\n      0xff\n      mul\n      not\n      and\n      swap1\n      dup4\n      iszero\n      iszero\n      mul\n      or\n      swap1\n      sstore\n      pop\n        /* \"TimeAllySIP.sol\":21723:21749  _sip.appointeeVotes.add(1) */\n      tag_273\n        /* \"TimeAllySIP.sol\":21747:21748  1 */\n      0x01\n        /* \"TimeAllySIP.sol\":21723:21727  _sip */\n      dup3\n        /* \"TimeAllySIP.sol\":21723:21742  _sip.appointeeVotes */\n      0x07\n      add\n      sload\n        /* \"TimeAllySIP.sol\":21723:21746  _sip.appointeeVotes.add */\n      tag_159\n      swap1\n        /* \"TimeAllySIP.sol\":21723:21749  _sip.appointeeVotes.add(1) */\n      swap2\n      swap1\n      0xffffffff\n      and\n      jump\t// in\n    tag_273:\n        /* \"TimeAllySIP.sol\":21701:21705  _sip */\n      dup2\n        /* \"TimeAllySIP.sol\":21701:21720  _sip.appointeeVotes */\n      0x07\n      add\n        /* \"TimeAllySIP.sol\":21701:21749  _sip.appointeeVotes = _sip.appointeeVotes.add(1) */\n      dup2\n      swap1\n      sstore\n      pop\n        /* \"TimeAllySIP.sol\":21846:21856  msg.sender */\n      caller\n        /* \"TimeAllySIP.sol\":21807:21857  AppointeeVoted(_stakerAddress, _sipId, msg.sender) */\n      0xffffffffffffffffffffffffffffffffffffffff\n      and\n        /* \"TimeAllySIP.sol\":21838:21844  _sipId */\n      dup3\n        /* \"TimeAllySIP.sol\":21822:21836  _stakerAddress */\n      dup5\n        /* \"TimeAllySIP.sol\":21807:21857  AppointeeVoted(_stakerAddress, _sipId, msg.sender) */\n      0xffffffffffffffffffffffffffffffffffffffff\n      and\n      0x57e90b4a498a7310fab91955c915f3f15a0d1a94b296f824da9443d524ea2e1b\n      mload(0x40)\n      mload(0x40)\n      dup1\n      swap2\n      sub\n      swap1\n      log4\n        /* \"TimeAllySIP.sol\":21267:21862  function appointeeVote(... */\n      pop\n      pop\n      pop\n      jump\t// out\n        /* \"TimeAllySIP.sol\":20174:21000  function toogleAppointee(... */\n    tag_78:\n        /* \"TimeAllySIP.sol\":20297:20313  SIP storage _sip */\n      0x00\n        /* \"TimeAllySIP.sol\":20316:20320  sips */\n      0x06\n        /* \"TimeAllySIP.sol\":20316:20332  sips[msg.sender] */\n      0x00\n        /* \"TimeAllySIP.sol\":20321:20331  msg.sender */\n      caller\n        /* \"TimeAllySIP.sol\":20316:20332  sips[msg.sender] */\n      0xffffffffffffffffffffffffffffffffffffffff\n      and\n      0xffffffffffffffffffffffffffffffffffffffff\n      and\n      dup2\n      mstore\n      0x20\n      add\n      swap1\n      dup2\n      mstore\n      0x20\n      add\n      0x00\n      keccak256\n        /* \"TimeAllySIP.sol\":20333:20339  _sipId */\n      dup5\n        /* \"TimeAllySIP.sol\":20316:20340  sips[msg.sender][_sipId] */\n      dup2\n      sload\n      dup2\n      lt\n      tag_275\n      jumpi\n      invalid\n    tag_275:\n      swap1\n      0x00\n      mstore\n      keccak256(0x00, 0x20)\n      swap1\n      0x0b\n      mul\n      add\n        /* \"TimeAllySIP.sol\":20297:20340  SIP storage _sip = sips[msg.sender][_sipId] */\n      swap1\n      pop\n        /* \"TimeAllySIP.sol\":20445:20449  _sip */\n      dup1\n        /* \"TimeAllySIP.sol\":20445:20460  _sip.appointees */\n      0x0a\n      add\n        /* \"TimeAllySIP.sol\":20445:20479  _sip.appointees[_appointeeAddress] */\n      0x00\n        /* \"TimeAllySIP.sol\":20461:20478  _appointeeAddress */\n      dup5\n        /* \"TimeAllySIP.sol\":20445:20479  _sip.appointees[_appointeeAddress] */\n      0xffffffffffffffffffffffffffffffffffffffff\n      and\n      0xffffffffffffffffffffffffffffffffffffffff\n      and\n      dup2\n      mstore\n      0x20\n      add\n      swap1\n      dup2\n      mstore\n      0x20\n      add\n      0x00\n      keccak256\n      0x00\n      swap1\n      sload\n      swap1\n      0x0100\n      exp\n      swap1\n      div\n      0xff\n      and\n        /* \"TimeAllySIP.sol\":20444:20479  !_sip.appointees[_appointeeAddress] */\n      iszero\n        /* \"TimeAllySIP.sol\":20444:20502  !_sip.appointees[_appointeeAddress] && _newAppointeeStatus */\n      dup1\n      iszero\n      tag_277\n      jumpi\n      pop\n        /* \"TimeAllySIP.sol\":20483:20502  _newAppointeeStatus */\n      dup2\n        /* \"TimeAllySIP.sol\":20444:20502  !_sip.appointees[_appointeeAddress] && _newAppointeeStatus */\n    tag_277:\n        /* \"TimeAllySIP.sol\":20441:20908  if(!_sip.appointees[_appointeeAddress] && _newAppointeeStatus) {... */\n      iszero\n      tag_278\n      jumpi\n        /* \"TimeAllySIP.sol\":20538:20568  _sip.numberOfAppointees.add(1) */\n      tag_279\n        /* \"TimeAllySIP.sol\":20566:20567  1 */\n      0x01\n        /* \"TimeAllySIP.sol\":20538:20542  _sip */\n      dup3\n        /* \"TimeAllySIP.sol\":20538:20561  _sip.numberOfAppointees */\n      0x06\n      add\n      sload\n        /* \"TimeAllySIP.sol\":20538:20565  _sip.numberOfAppointees.add */\n      tag_159\n      swap1\n        /* \"TimeAllySIP.sol\":20538:20568  _sip.numberOfAppointees.add(1) */\n      swap2\n      swap1\n      0xffffffff\n      and\n      jump\t// in\n    tag_279:\n        /* \"TimeAllySIP.sol\":20512:20516  _sip */\n      dup2\n        /* \"TimeAllySIP.sol\":20512:20535  _sip.numberOfAppointees */\n      0x06\n      add\n        /* \"TimeAllySIP.sol\":20512:20568  _sip.numberOfAppointees = _sip.numberOfAppointees.add(1) */\n      dup2\n      swap1\n      sstore\n      pop\n        /* \"TimeAllySIP.sol\":20611:20615  true */\n      0x01\n        /* \"TimeAllySIP.sol\":20576:20580  _sip */\n      dup2\n        /* \"TimeAllySIP.sol\":20576:20589  _sip.nominees */\n      0x09\n      add\n        /* \"TimeAllySIP.sol\":20576:20608  _sip.nominees[_appointeeAddress] */\n      0x00\n        /* \"TimeAllySIP.sol\":20590:20607  _appointeeAddress */\n      dup6\n        /* \"TimeAllySIP.sol\":20576:20608  _sip.nominees[_appointeeAddress] */\n      0xffffffffffffffffffffffffffffffffffffffff\n      and\n      0xffffffffffffffffffffffffffffffffffffffff\n      and\n      dup2\n      mstore\n      0x20\n      add\n      swap1\n      dup2\n      mstore\n      0x20\n      add\n      0x00\n      keccak256\n      0x00\n        /* \"TimeAllySIP.sol\":20576:20615  _sip.nominees[_appointeeAddress] = true */\n      0x0100\n      exp\n      dup2\n      sload\n      dup2\n      0xff\n      mul\n      not\n      and\n      swap1\n      dup4\n      iszero\n      iszero\n      mul\n      or\n      swap1\n      sstore\n      pop\n        /* \"TimeAllySIP.sol\":20441:20908  if(!_sip.appointees[_appointeeAddress] && _newAppointeeStatus) {... */\n      jump(tag_280)\n    tag_278:\n        /* \"TimeAllySIP.sol\":20729:20733  _sip */\n      dup1\n        /* \"TimeAllySIP.sol\":20729:20744  _sip.appointees */\n      0x0a\n      add\n        /* \"TimeAllySIP.sol\":20729:20763  _sip.appointees[_appointeeAddress] */\n      0x00\n        /* \"TimeAllySIP.sol\":20745:20762  _appointeeAddress */\n      dup5\n        /* \"TimeAllySIP.sol\":20729:20763  _sip.appointees[_appointeeAddress] */\n      0xffffffffffffffffffffffffffffffffffffffff\n      and\n      0xffffffffffffffffffffffffffffffffffffffff\n      and\n      dup2\n      mstore\n      0x20\n      add\n      swap1\n      dup2\n      mstore\n      0x20\n      add\n      0x00\n      keccak256\n      0x00\n      swap1\n      sload\n      swap1\n      0x0100\n      exp\n      swap1\n      div\n      0xff\n      and\n        /* \"TimeAllySIP.sol\":20729:20787  _sip.appointees[_appointeeAddress] && !_newAppointeeStatus */\n      dup1\n      iszero\n      tag_281\n      jumpi\n      pop\n        /* \"TimeAllySIP.sol\":20768:20787  _newAppointeeStatus */\n      dup2\n        /* \"TimeAllySIP.sol\":20767:20787  !_newAppointeeStatus */\n      iszero\n        /* \"TimeAllySIP.sol\":20729:20787  _sip.appointees[_appointeeAddress] && !_newAppointeeStatus */\n    tag_281:\n        /* \"TimeAllySIP.sol\":20726:20908  if(_sip.appointees[_appointeeAddress] && !_newAppointeeStatus) {... */\n      iszero\n      tag_282\n      jumpi\n        /* \"TimeAllySIP.sol\":20832:20837  false */\n      0x00\n        /* \"TimeAllySIP.sol\":20797:20801  _sip */\n      dup2\n        /* \"TimeAllySIP.sol\":20797:20810  _sip.nominees */\n      0x09\n      add\n        /* \"TimeAllySIP.sol\":20797:20829  _sip.nominees[_appointeeAddress] */\n      0x00\n        /* \"TimeAllySIP.sol\":20811:20828  _appointeeAddress */\n      dup6\n        /* \"TimeAllySIP.sol\":20797:20829  _sip.nominees[_appointeeAddress] */\n      0xffffffffffffffffffffffffffffffffffffffff\n      and\n      0xffffffffffffffffffffffffffffffffffffffff\n      and\n      dup2\n      mstore\n      0x20\n      add\n      swap1\n      dup2\n      mstore\n      0x20\n      add\n      0x00\n      keccak256\n      0x00\n        /* \"TimeAllySIP.sol\":20797:20837  _sip.nominees[_appointeeAddress] = false */\n      0x0100\n      exp\n      dup2\n      sload\n      dup2\n      0xff\n      mul\n      not\n      and\n      swap1\n      dup4\n      iszero\n      iszero\n      mul\n      or\n      swap1\n      sstore\n      pop\n        /* \"TimeAllySIP.sol\":20871:20901  _sip.numberOfAppointees.sub(1) */\n      tag_283\n        /* \"TimeAllySIP.sol\":20899:20900  1 */\n      0x01\n        /* \"TimeAllySIP.sol\":20871:20875  _sip */\n      dup3\n        /* \"TimeAllySIP.sol\":20871:20894  _sip.numberOfAppointees */\n      0x06\n      add\n      sload\n        /* \"TimeAllySIP.sol\":20871:20898  _sip.numberOfAppointees.sub */\n      tag_103\n      swap1\n        /* \"TimeAllySIP.sol\":20871:20901  _sip.numberOfAppointees.sub(1) */\n      swap2\n      swap1\n      0xffffffff\n      and\n      jump\t// in\n    tag_283:\n        /* \"TimeAllySIP.sol\":20845:20849  _sip */\n      dup2\n        /* \"TimeAllySIP.sol\":20845:20868  _sip.numberOfAppointees */\n      0x06\n      add\n        /* \"TimeAllySIP.sol\":20845:20901  _sip.numberOfAppointees = _sip.numberOfAppointees.sub(1) */\n      dup2\n      swap1\n      sstore\n      pop\n        /* \"TimeAllySIP.sol\":20726:20908  if(_sip.appointees[_appointeeAddress] && !_newAppointeeStatus) {... */\n    tag_282:\n        /* \"TimeAllySIP.sol\":20441:20908  if(!_sip.appointees[_appointeeAddress] && _newAppointeeStatus) {... */\n    tag_280:\n        /* \"TimeAllySIP.sol\":20956:20973  _appointeeAddress */\n      dup3\n        /* \"TimeAllySIP.sol\":20919:20995  AppointeeUpdated(msg.sender, _sipId, _appointeeAddress, _newAppointeeStatus) */\n      0xffffffffffffffffffffffffffffffffffffffff\n      and\n        /* \"TimeAllySIP.sol\":20948:20954  _sipId */\n      dup5\n        /* \"TimeAllySIP.sol\":20936:20946  msg.sender */\n      caller\n        /* \"TimeAllySIP.sol\":20919:20995  AppointeeUpdated(msg.sender, _sipId, _appointeeAddress, _newAppointeeStatus) */\n      0xffffffffffffffffffffffffffffffffffffffff\n      and\n      0xf7a6207b27953eff117f9b7c03e363d41370a45e2b626d2aa32c6a0ac6365782\n        /* \"TimeAllySIP.sol\":20975:20994  _newAppointeeStatus */\n      dup6\n        /* \"TimeAllySIP.sol\":20919:20995  AppointeeUpdated(msg.sender, _sipId, _appointeeAddress, _newAppointeeStatus) */\n      mload(0x40)\n      dup1\n      dup3\n      iszero\n      iszero\n      iszero\n      iszero\n      dup2\n      mstore\n      0x20\n      add\n      swap2\n      pop\n      pop\n      mload(0x40)\n      dup1\n      swap2\n      sub\n      swap1\n      log4\n        /* \"TimeAllySIP.sol\":20174:21000  function toogleAppointee(... */\n      pop\n      pop\n      pop\n      pop\n      jump\t// out\n        /* \"TimeAllySIP.sol\":7905:8346  function addFunds(uint256 _depositAmount) public {... */\n    tag_81:\n        /* \"TimeAllySIP.sol\":8035:8040  token */\n      0x01\n      0x00\n      swap1\n      sload\n      swap1\n      0x0100\n      exp\n      swap1\n      div\n      0xffffffffffffffffffffffffffffffffffffffff\n      and\n        /* \"TimeAllySIP.sol\":8035:8053  token.transferFrom */\n      0xffffffffffffffffffffffffffffffffffffffff\n      and\n      0x23b872dd\n        /* \"TimeAllySIP.sol\":8054:8064  msg.sender */\n      caller\n        /* \"TimeAllySIP.sol\":8074:8078  this */\n      address\n        /* \"TimeAllySIP.sol\":8081:8095  _depositAmount */\n      dup5\n        /* \"TimeAllySIP.sol\":8035:8096  token.transferFrom(msg.sender, address(this), _depositAmount) */\n      mload(0x40)\n      dup5\n      0xffffffff\n      and\n      0xe0\n      shl\n      dup2\n      mstore\n      0x04\n      add\n      dup1\n      dup5\n      0xffffffffffffffffffffffffffffffffffffffff\n      and\n      0xffffffffffffffffffffffffffffffffffffffff\n      and\n      dup2\n      mstore\n      0x20\n      add\n      dup4\n      0xffffffffffffffffffffffffffffffffffffffff\n      and\n      0xffffffffffffffffffffffffffffffffffffffff\n      and\n      dup2\n      mstore\n      0x20\n      add\n      dup3\n      dup2\n      mstore\n      0x20\n      add\n      swap4\n      pop\n      pop\n      pop\n      pop\n      0x20\n      mload(0x40)\n      dup1\n      dup4\n      sub\n      dup2\n      0x00\n      dup8\n      dup1\n      extcodesize\n      iszero\n        /* \"--CODEGEN--\":8:17   */\n      dup1\n        /* \"--CODEGEN--\":5:7   */\n      iszero\n      tag_285\n      jumpi\n        /* \"--CODEGEN--\":30:31   */\n      0x00\n        /* \"--CODEGEN--\":27:28   */\n      dup1\n        /* \"--CODEGEN--\":20:32   */\n      revert\n        /* \"--CODEGEN--\":5:7   */\n    tag_285:\n        /* \"TimeAllySIP.sol\":8035:8096  token.transferFrom(msg.sender, address(this), _depositAmount) */\n      pop\n      gas\n      call\n      iszero\n        /* \"--CODEGEN--\":8:17   */\n      dup1\n        /* \"--CODEGEN--\":5:7   */\n      iszero\n      tag_286\n      jumpi\n        /* \"--CODEGEN--\":45:61   */\n      returndatasize\n        /* \"--CODEGEN--\":42:43   */\n      0x00\n        /* \"--CODEGEN--\":39:40   */\n      dup1\n        /* \"--CODEGEN--\":24:62   */\n      returndatacopy\n        /* \"--CODEGEN--\":77:93   */\n      returndatasize\n        /* \"--CODEGEN--\":74:75   */\n      0x00\n        /* \"--CODEGEN--\":67:94   */\n      revert\n        /* \"--CODEGEN--\":5:7   */\n    tag_286:\n        /* \"TimeAllySIP.sol\":8035:8096  token.transferFrom(msg.sender, address(this), _depositAmount) */\n      pop\n      pop\n      pop\n      pop\n      mload(0x40)\n      returndatasize\n        /* \"--CODEGEN--\":13:15   */\n      0x20\n        /* \"--CODEGEN--\":8:11   */\n      dup2\n        /* \"--CODEGEN--\":5:16   */\n      lt\n        /* \"--CODEGEN--\":2:4   */\n      iszero\n      tag_287\n      jumpi\n        /* \"--CODEGEN--\":29:30   */\n      0x00\n        /* \"--CODEGEN--\":26:27   */\n      dup1\n        /* \"--CODEGEN--\":19:31   */\n      revert\n        /* \"--CODEGEN--\":2:4   */\n    tag_287:\n        /* \"TimeAllySIP.sol\":8035:8096  token.transferFrom(msg.sender, address(this), _depositAmount) */\n      dup2\n      add\n      swap1\n      dup1\n      dup1\n      mload\n      swap1\n      0x20\n      add\n      swap1\n      swap3\n      swap2\n      swap1\n      pop\n      pop\n      pop\n        /* \"TimeAllySIP.sol\":8020:8140  require(... */\n      tag_288\n      jumpi\n      mload(0x40)\n      0x08c379a000000000000000000000000000000000000000000000000000000000\n      dup2\n      mstore\n      0x04\n      add\n      dup1\n      dup1\n      0x20\n      add\n      dup3\n      dup2\n      sub\n      dup3\n      mstore\n      0x1b\n      dup2\n      mstore\n      0x20\n      add\n      dup1\n      0x746f6b656e732073686f756c64206265207472616e7366657265640000000000\n      dup2\n      mstore\n      pop\n      0x20\n      add\n      swap2\n      pop\n      pop\n      mload(0x40)\n      dup1\n      swap2\n      sub\n      swap1\n      revert\n    tag_288:\n        /* \"TimeAllySIP.sol\":8211:8243  fundsDeposit.add(_depositAmount) */\n      tag_289\n        /* \"TimeAllySIP.sol\":8228:8242  _depositAmount */\n      dup2\n        /* \"TimeAllySIP.sol\":8211:8223  fundsDeposit */\n      sload(0x04)\n        /* \"TimeAllySIP.sol\":8211:8227  fundsDeposit.add */\n      tag_159\n      swap1\n        /* \"TimeAllySIP.sol\":8211:8243  fundsDeposit.add(_depositAmount) */\n      swap2\n      swap1\n      0xffffffff\n      and\n      jump\t// in\n    tag_289:\n        /* \"TimeAllySIP.sol\":8196:8208  fundsDeposit */\n      0x04\n        /* \"TimeAllySIP.sol\":8196:8243  fundsDeposit = fundsDeposit.add(_depositAmount) */\n      dup2\n      swap1\n      sstore\n      pop\n        /* \"TimeAllySIP.sol\":8311:8341  FundsDeposited(_depositAmount) */\n      0x7cb5d45c1071f219bd2da1ea101758715bd52f23f2a707f2d9a0387dea18d906\n        /* \"TimeAllySIP.sol\":8326:8340  _depositAmount */\n      dup2\n        /* \"TimeAllySIP.sol\":8311:8341  FundsDeposited(_depositAmount) */\n      mload(0x40)\n      dup1\n      dup3\n      dup2\n      mstore\n      0x20\n      add\n      swap2\n      pop\n      pop\n      mload(0x40)\n      dup1\n      swap2\n      sub\n      swap1\n      log1\n        /* \"TimeAllySIP.sol\":7905:8346  function addFunds(uint256 _depositAmount) public {... */\n      pop\n      jump\t// out\n        /* \"TimeAllySIP.sol\":3357:3382  SIPPlan[] public sipPlans */\n    tag_84:\n      0x05\n      dup2\n      dup2\n      sload\n      dup2\n      lt\n      tag_290\n      jumpi\n      invalid\n    tag_290:\n      swap1\n      0x00\n      mstore\n      keccak256(0x00, 0x20)\n      swap1\n      0x08\n      mul\n      add\n      0x00\n      swap2\n      pop\n      swap1\n      pop\n      dup1\n      0x00\n      add\n      0x00\n      swap1\n      sload\n      swap1\n      0x0100\n      exp\n      swap1\n      div\n      0xff\n      and\n      swap1\n      dup1\n      0x01\n      add\n      sload\n      swap1\n      dup1\n      0x02\n      add\n      sload\n      swap1\n      dup1\n      0x03\n      add\n      sload\n      swap1\n      dup1\n      0x04\n      add\n      sload\n      swap1\n      dup1\n      0x05\n      add\n      sload\n      swap1\n      dup1\n      0x06\n      add\n      sload\n      swap1\n      dup1\n      0x07\n      add\n      sload\n      swap1\n      pop\n      dup9\n      jump\t// out\n        /* \"TimeAllySIP.sol\":22210:22414  function getDepositDoneStatus(... */\n    tag_87:\n        /* \"TimeAllySIP.sol\":22335:22342  uint256 */\n      0x00\n        /* \"TimeAllySIP.sol\":22357:22361  sips */\n      0x06\n        /* \"TimeAllySIP.sol\":22357:22377  sips[_stakerAddress] */\n      0x00\n        /* \"TimeAllySIP.sol\":22362:22376  _stakerAddress */\n      dup6\n        /* \"TimeAllySIP.sol\":22357:22377  sips[_stakerAddress] */\n      0xffffffffffffffffffffffffffffffffffffffff\n      and\n      0xffffffffffffffffffffffffffffffffffffffff\n      and\n      dup2\n      mstore\n      0x20\n      add\n      swap1\n      dup2\n      mstore\n      0x20\n      add\n      0x00\n      keccak256\n        /* \"TimeAllySIP.sol\":22378:22384  _sipId */\n      dup4\n        /* \"TimeAllySIP.sol\":22357:22385  sips[_stakerAddress][_sipId] */\n      dup2\n      sload\n      dup2\n      lt\n      tag_293\n      jumpi\n      invalid\n    tag_293:\n      swap1\n      0x00\n      mstore\n      keccak256(0x00, 0x20)\n      swap1\n      0x0b\n      mul\n      add\n        /* \"TimeAllySIP.sol\":22357:22399  sips[_stakerAddress][_sipId].depositStatus */\n      0x08\n      add\n        /* \"TimeAllySIP.sol\":22357:22409  sips[_stakerAddress][_sipId].depositStatus[_monthId] */\n      0x00\n        /* \"TimeAllySIP.sol\":22400:22408  _monthId */\n      dup4\n        /* \"TimeAllySIP.sol\":22357:22409  sips[_stakerAddress][_sipId].depositStatus[_monthId] */\n      dup2\n      mstore\n      0x20\n      add\n      swap1\n      dup2\n      mstore\n      0x20\n      add\n      0x00\n      keccak256\n      sload\n        /* \"TimeAllySIP.sol\":22350:22409  return sips[_stakerAddress][_sipId].depositStatus[_monthId] */\n      swap1\n      pop\n        /* \"TimeAllySIP.sol\":22210:22414  function getDepositDoneStatus(... */\n      swap4\n      swap3\n      pop\n      pop\n      pop\n      jump\t// out\n        /* \"TimeAllySIP.sol\":3456:3493  mapping(address => SIP[]) public sips */\n    tag_90:\n      mstore(0x20, 0x06)\n      dup2\n      0x00\n      mstore\n      keccak256(0x00, 0x40)\n      dup2\n      dup2\n      sload\n      dup2\n      lt\n      tag_295\n      jumpi\n      invalid\n    tag_295:\n      swap1\n      0x00\n      mstore\n      keccak256(0x00, 0x20)\n      swap1\n      0x0b\n      mul\n      add\n      0x00\n      swap2\n      pop\n      swap2\n      pop\n      pop\n      dup1\n      0x00\n      add\n      sload\n      swap1\n      dup1\n      0x01\n      add\n      sload\n      swap1\n      dup1\n      0x02\n      add\n      sload\n      swap1\n      dup1\n      0x03\n      add\n      sload\n      swap1\n      dup1\n      0x04\n      add\n      sload\n      swap1\n      dup1\n      0x05\n      add\n      sload\n      swap1\n      dup1\n      0x06\n      add\n      sload\n      swap1\n      dup1\n      0x07\n      add\n      sload\n      swap1\n      pop\n      dup9\n      jump\t// out\n        /* \"TimeAllySIP.sol\":2611:2629  ERC20 public token */\n    tag_92:\n      0x01\n      0x00\n      swap1\n      sload\n      swap1\n      0x0100\n      exp\n      swap1\n      div\n      0xffffffffffffffffffffffffffffffffffffffff\n      and\n      dup2\n      jump\t// out\n        /* \"SafeMath.sol\":1274:1408  function sub(uint256 a, uint256 b) internal pure returns (uint256) {... */\n    tag_103:\n        /* \"SafeMath.sol\":1332:1339  uint256 */\n      0x00\n        /* \"SafeMath.sol\":1358:1401  sub(a, b, \"SafeMath: subtraction overflow\") */\n      tag_298\n        /* \"SafeMath.sol\":1362:1363  a */\n      dup4\n        /* \"SafeMath.sol\":1365:1366  b */\n      dup4\n        /* \"SafeMath.sol\":1358:1401  sub(a, b, \"SafeMath: subtraction overflow\") */\n      mload(0x40)\n      dup1\n      0x40\n      add\n      0x40\n      mstore\n      dup1\n      0x1e\n      dup2\n      mstore\n      0x20\n      add\n      0x536166654d6174683a207375627472616374696f6e206f766572666c6f770000\n      dup2\n      mstore\n      pop\n        /* \"SafeMath.sol\":1358:1361  sub */\n      tag_299\n        /* \"SafeMath.sol\":1358:1401  sub(a, b, \"SafeMath: subtraction overflow\") */\n      jump\t// in\n    tag_298:\n        /* \"SafeMath.sol\":1351:1401  return sub(a, b, \"SafeMath: subtraction overflow\") */\n      swap1\n      pop\n        /* \"SafeMath.sol\":1274:1408  function sub(uint256 a, uint256 b) internal pure returns (uint256) {... */\n      swap3\n      swap2\n      pop\n      pop\n      jump\t// out\n        /* \"SafeMath.sol\":3185:3315  function div(uint256 a, uint256 b) internal pure returns (uint256) {... */\n    tag_136:\n        /* \"SafeMath.sol\":3243:3250  uint256 */\n      0x00\n        /* \"SafeMath.sol\":3269:3308  div(a, b, \"SafeMath: division by zero\") */\n      tag_301\n        /* \"SafeMath.sol\":3273:3274  a */\n      dup4\n        /* \"SafeMath.sol\":3276:3277  b */\n      dup4\n        /* \"SafeMath.sol\":3269:3308  div(a, b, \"SafeMath: division by zero\") */\n      mload(0x40)\n      dup1\n      0x40\n      add\n      0x40\n      mstore\n      dup1\n      0x1a\n      dup2\n      mstore\n      0x20\n      add\n      0x536166654d6174683a206469766973696f6e206279207a65726f000000000000\n      dup2\n      mstore\n      pop\n        /* \"SafeMath.sol\":3269:3272  div */\n      tag_302\n        /* \"SafeMath.sol\":3269:3308  div(a, b, \"SafeMath: division by zero\") */\n      jump\t// in\n    tag_301:\n        /* \"SafeMath.sol\":3262:3308  return div(a, b, \"SafeMath: division by zero\") */\n      swap1\n      pop\n        /* \"SafeMath.sol\":3185:3315  function div(uint256 a, uint256 b) internal pure returns (uint256) {... */\n      swap3\n      swap2\n      pop\n      pop\n      jump\t// out\n        /* \"SafeMath.sol\":2271:2730  function mul(uint256 a, uint256 b) internal pure returns (uint256) {... */\n    tag_156:\n        /* \"SafeMath.sol\":2329:2336  uint256 */\n      0x00\n        /* \"SafeMath.sol\":2575:2576  0 */\n      dup1\n        /* \"SafeMath.sol\":2570:2571  a */\n      dup4\n        /* \"SafeMath.sol\":2570:2576  a == 0 */\n      eq\n        /* \"SafeMath.sol\":2566:2611  if (a == 0) {... */\n      iszero\n      tag_304\n      jumpi\n        /* \"SafeMath.sol\":2599:2600  0 */\n      0x00\n        /* \"SafeMath.sol\":2592:2600  return 0 */\n      swap1\n      pop\n      jump(tag_303)\n        /* \"SafeMath.sol\":2566:2611  if (a == 0) {... */\n    tag_304:\n        /* \"SafeMath.sol\":2621:2630  uint256 c */\n      0x00\n        /* \"SafeMath.sol\":2637:2638  b */\n      dup3\n        /* \"SafeMath.sol\":2633:2634  a */\n      dup5\n        /* \"SafeMath.sol\":2633:2638  a * b */\n      mul\n        /* \"SafeMath.sol\":2621:2638  uint256 c = a * b */\n      swap1\n      pop\n        /* \"SafeMath.sol\":2665:2666  b */\n      dup3\n        /* \"SafeMath.sol\":2660:2661  a */\n      dup5\n        /* \"SafeMath.sol\":2656:2657  c */\n      dup3\n        /* \"SafeMath.sol\":2656:2661  c / a */\n      dup2\n      tag_305\n      jumpi\n      invalid\n    tag_305:\n      div\n        /* \"SafeMath.sol\":2656:2666  c / a == b */\n      eq\n        /* \"SafeMath.sol\":2648:2704  require(c / a == b, \"SafeMath: multiplication overflow\") */\n      tag_306\n      jumpi\n      mload(0x40)\n      0x08c379a000000000000000000000000000000000000000000000000000000000\n      dup2\n      mstore\n      0x04\n      add\n      dup1\n      dup1\n      0x20\n      add\n      dup3\n      dup2\n      sub\n      dup3\n      mstore\n      0x21\n      dup2\n      mstore\n      0x20\n      add\n      dup1\n      data_9113bb53c2876a3805b2c9242029423fc540a728243ce887ab24c82cf119fba3\n      0x21\n      swap2\n      codecopy\n      0x40\n      add\n      swap2\n      pop\n      pop\n      mload(0x40)\n      dup1\n      swap2\n      sub\n      swap1\n      revert\n    tag_306:\n        /* \"SafeMath.sol\":2722:2723  c */\n      dup1\n        /* \"SafeMath.sol\":2715:2723  return c */\n      swap2\n      pop\n      pop\n        /* \"SafeMath.sol\":2271:2730  function mul(uint256 a, uint256 b) internal pure returns (uint256) {... */\n    tag_303:\n      swap3\n      swap2\n      pop\n      pop\n      jump\t// out\n        /* \"SafeMath.sol\":834:1010  function add(uint256 a, uint256 b) internal pure returns (uint256) {... */\n    tag_159:\n        /* \"SafeMath.sol\":892:899  uint256 */\n      0x00\n        /* \"SafeMath.sol\":911:920  uint256 c */\n      dup1\n        /* \"SafeMath.sol\":927:928  b */\n      dup3\n        /* \"SafeMath.sol\":923:924  a */\n      dup5\n        /* \"SafeMath.sol\":923:928  a + b */\n      add\n        /* \"SafeMath.sol\":911:928  uint256 c = a + b */\n      swap1\n      pop\n        /* \"SafeMath.sol\":951:952  a */\n      dup4\n        /* \"SafeMath.sol\":946:947  c */\n      dup2\n        /* \"SafeMath.sol\":946:952  c >= a */\n      lt\n      iszero\n        /* \"SafeMath.sol\":938:984  require(c >= a, \"SafeMath: addition overflow\") */\n      tag_308\n      jumpi\n      mload(0x40)\n      0x08c379a000000000000000000000000000000000000000000000000000000000\n      dup2\n      mstore\n      0x04\n      add\n      dup1\n      dup1\n      0x20\n      add\n      dup3\n      dup2\n      sub\n      dup3\n      mstore\n      0x1b\n      dup2\n      mstore\n      0x20\n      add\n      dup1\n      0x536166654d6174683a206164646974696f6e206f766572666c6f770000000000\n      dup2\n      mstore\n      pop\n      0x20\n      add\n      swap2\n      pop\n      pop\n      mload(0x40)\n      dup1\n      swap2\n      sub\n      swap1\n      revert\n    tag_308:\n        /* \"SafeMath.sol\":1002:1003  c */\n      dup1\n        /* \"SafeMath.sol\":995:1003  return c */\n      swap2\n      pop\n      pop\n        /* \"SafeMath.sol\":834:1010  function add(uint256 a, uint256 b) internal pure returns (uint256) {... */\n      swap3\n      swap2\n      pop\n      pop\n      jump\t// out\n        /* \"SafeMath.sol\":1844:2031  function sub(uint256 a, uint256 b, string memory errorMessage) internal pure returns (uint256) {... */\n    tag_299:\n        /* \"SafeMath.sol\":1930:1937  uint256 */\n      0x00\n        /* \"SafeMath.sol\":1962:1963  a */\n      dup4\n        /* \"SafeMath.sol\":1957:1958  b */\n      dup4\n        /* \"SafeMath.sol\":1957:1963  b <= a */\n      gt\n      iszero\n        /* \"SafeMath.sol\":1965:1977  errorMessage */\n      dup3\n        /* \"SafeMath.sol\":1949:1978  require(b <= a, errorMessage) */\n      swap1\n      tag_310\n      jumpi\n      mload(0x40)\n      0x08c379a000000000000000000000000000000000000000000000000000000000\n      dup2\n      mstore\n      0x04\n      add\n      dup1\n      dup1\n      0x20\n      add\n      dup3\n      dup2\n      sub\n      dup3\n      mstore\n      dup4\n      dup2\n      dup2\n      mload\n      dup2\n      mstore\n      0x20\n      add\n      swap2\n      pop\n      dup1\n      mload\n      swap1\n      0x20\n      add\n      swap1\n      dup1\n      dup4\n      dup4\n        /* \"--CODEGEN--\":23:24   */\n      0x00\n        /* \"--CODEGEN--\":8:108   */\n    tag_311:\n        /* \"--CODEGEN--\":33:36   */\n      dup4\n        /* \"--CODEGEN--\":30:31   */\n      dup2\n        /* \"--CODEGEN--\":27:37   */\n      lt\n        /* \"--CODEGEN--\":8:108   */\n      iszero\n      tag_313\n      jumpi\n        /* \"--CODEGEN--\":99:100   */\n      dup1\n        /* \"--CODEGEN--\":94:97   */\n      dup3\n        /* \"--CODEGEN--\":90:101   */\n      add\n        /* \"--CODEGEN--\":84:102   */\n      mload\n        /* \"--CODEGEN--\":80:81   */\n      dup2\n        /* \"--CODEGEN--\":75:78   */\n      dup5\n        /* \"--CODEGEN--\":71:82   */\n      add\n        /* \"--CODEGEN--\":64:103   */\n      mstore\n        /* \"--CODEGEN--\":52:54   */\n      0x20\n        /* \"--CODEGEN--\":49:50   */\n      dup2\n        /* \"--CODEGEN--\":45:55   */\n      add\n        /* \"--CODEGEN--\":40:55   */\n      swap1\n      pop\n        /* \"--CODEGEN--\":8:108   */\n      jump(tag_311)\n    tag_313:\n        /* \"--CODEGEN--\":12:26   */\n      pop\n        /* \"SafeMath.sol\":1949:1978  require(b <= a, errorMessage) */\n      pop\n      pop\n      pop\n      swap1\n      pop\n      swap1\n      dup2\n      add\n      swap1\n      0x1f\n      and\n      dup1\n      iszero\n      tag_314\n      jumpi\n      dup1\n      dup3\n      sub\n      dup1\n      mload\n      0x01\n      dup4\n      0x20\n      sub\n      0x0100\n      exp\n      sub\n      not\n      and\n      dup2\n      mstore\n      0x20\n      add\n      swap2\n      pop\n    tag_314:\n      pop\n      swap3\n      pop\n      pop\n      pop\n      mload(0x40)\n      dup1\n      swap2\n      sub\n      swap1\n      revert\n    tag_310:\n      pop\n        /* \"SafeMath.sol\":1988:1997  uint256 c */\n      0x00\n        /* \"SafeMath.sol\":2004:2005  b */\n      dup4\n        /* \"SafeMath.sol\":2000:2001  a */\n      dup6\n        /* \"SafeMath.sol\":2000:2005  a - b */\n      sub\n        /* \"SafeMath.sol\":1988:2005  uint256 c = a - b */\n      swap1\n      pop\n        /* \"SafeMath.sol\":2023:2024  c */\n      dup1\n        /* \"SafeMath.sol\":2016:2024  return c */\n      swap2\n      pop\n      pop\n        /* \"SafeMath.sol\":1844:2031  function sub(uint256 a, uint256 b, string memory errorMessage) internal pure returns (uint256) {... */\n      swap4\n      swap3\n      pop\n      pop\n      pop\n      jump\t// out\n        /* \"SafeMath.sol\":3936:4274  function div(uint256 a, uint256 b, string memory errorMessage) internal pure returns (uint256) {... */\n    tag_302:\n        /* \"SafeMath.sol\":4022:4029  uint256 */\n      0x00\n        /* \"SafeMath.sol\":4119:4120  0 */\n      dup1\n        /* \"SafeMath.sol\":4115:4116  b */\n      dup4\n        /* \"SafeMath.sol\":4115:4120  b > 0 */\n      gt\n        /* \"SafeMath.sol\":4122:4134  errorMessage */\n      dup3\n        /* \"SafeMath.sol\":4107:4135  require(b > 0, errorMessage) */\n      swap1\n      tag_316\n      jumpi\n      mload(0x40)\n      0x08c379a000000000000000000000000000000000000000000000000000000000\n      dup2\n      mstore\n      0x04\n      add\n      dup1\n      dup1\n      0x20\n      add\n      dup3\n      dup2\n      sub\n      dup3\n      mstore\n      dup4\n      dup2\n      dup2\n      mload\n      dup2\n      mstore\n      0x20\n      add\n      swap2\n      pop\n      dup1\n      mload\n      swap1\n      0x20\n      add\n      swap1\n      dup1\n      dup4\n      dup4\n        /* \"--CODEGEN--\":23:24   */\n      0x00\n        /* \"--CODEGEN--\":8:108   */\n    tag_317:\n        /* \"--CODEGEN--\":33:36   */\n      dup4\n        /* \"--CODEGEN--\":30:31   */\n      dup2\n        /* \"--CODEGEN--\":27:37   */\n      lt\n        /* \"--CODEGEN--\":8:108   */\n      iszero\n      tag_319\n      jumpi\n        /* \"--CODEGEN--\":99:100   */\n      dup1\n        /* \"--CODEGEN--\":94:97   */\n      dup3\n        /* \"--CODEGEN--\":90:101   */\n      add\n        /* \"--CODEGEN--\":84:102   */\n      mload\n        /* \"--CODEGEN--\":80:81   */\n      dup2\n        /* \"--CODEGEN--\":75:78   */\n      dup5\n        /* \"--CODEGEN--\":71:82   */\n      add\n        /* \"--CODEGEN--\":64:103   */\n      mstore\n        /* \"--CODEGEN--\":52:54   */\n      0x20\n        /* \"--CODEGEN--\":49:50   */\n      dup2\n        /* \"--CODEGEN--\":45:55   */\n      add\n        /* \"--CODEGEN--\":40:55   */\n      swap1\n      pop\n        /* \"--CODEGEN--\":8:108   */\n      jump(tag_317)\n    tag_319:\n        /* \"--CODEGEN--\":12:26   */\n      pop\n        /* \"SafeMath.sol\":4107:4135  require(b > 0, errorMessage) */\n      pop\n      pop\n      pop\n      swap1\n      pop\n      swap1\n      dup2\n      add\n      swap1\n      0x1f\n      and\n      dup1\n      iszero\n      tag_320\n      jumpi\n      dup1\n      dup3\n      sub\n      dup1\n      mload\n      0x01\n      dup4\n      0x20\n      sub\n      0x0100\n      exp\n      sub\n      not\n      and\n      dup2\n      mstore\n      0x20\n      add\n      swap2\n      pop\n    tag_320:\n      pop\n      swap3\n      pop\n      pop\n      pop\n      mload(0x40)\n      dup1\n      swap2\n      sub\n      swap1\n      revert\n    tag_316:\n      pop\n        /* \"SafeMath.sol\":4145:4154  uint256 c */\n      0x00\n        /* \"SafeMath.sol\":4161:4162  b */\n      dup4\n        /* \"SafeMath.sol\":4157:4158  a */\n      dup6\n        /* \"SafeMath.sol\":4157:4162  a / b */\n      dup2\n      tag_321\n      jumpi\n      invalid\n    tag_321:\n      div\n        /* \"SafeMath.sol\":4145:4162  uint256 c = a / b */\n      swap1\n      pop\n        /* \"SafeMath.sol\":4266:4267  c */\n      dup1\n        /* \"SafeMath.sol\":4259:4267  return c */\n      swap2\n      pop\n      pop\n        /* \"SafeMath.sol\":3936:4274  function div(uint256 a, uint256 b, string memory errorMessage) internal pure returns (uint256) {... */\n      swap4\n      swap3\n      pop\n      pop\n      pop\n      jump\t// out\n    stop\n    data_03fd12cc1e83f0add881327c75791a0246e8ebc9eefe5c518ed172fe66fc682c 677261636520706572696f6420656c6170736564206f7220746f6f206561726c79\n    data_1ed4c5a626955f79ae434eb1205332592ca7c398b87a33918d99477c1feef678 656e6f7567682066756e64732073686f756c6420626520746865726520696e20534950\n    data_5a7f347d75f88622755607b0e61ed343c96ad258fbc1be577e77f6e09bcd0a54 656e6f7567682066756e647320666f722062656e65666974732073686f756c6420626520746865726520696e20636f6e7472616374\n    data_9113bb53c2876a3805b2c9242029423fc540a728243ce887ab24c82cf119fba3 536166654d6174683a206d756c7469706c69636174696f6e206f766572666c6f77\n    data_9c5671fbe7325ac18b46fc94e6063ecafd5a4a15681b363f5d37ce08ea0b8f61 6465706f7369742063616e6e6f74206265206c657373207468616e20636f6d6d69746d656e74\n\n    auxdata: 0xa265627a7a723158200c9814e3032950c97141e31efb9386c8bdeee973260c28100e633ad57299594464736f6c634300050c0032\n}\n","bytecode":{"linkReferences":{},"object":"60806040526228207060025534801561001757600080fd5b506040516138c93803806138c98339818101604052602081101561003a57600080fd5b8101908080519060200190929190505050336000806101000a81548173ffffffffffffffffffffffffffffffffffffffff021916908373ffffffffffffffffffffffffffffffffffffffff16021790555080600160006101000a81548173ffffffffffffffffffffffffffffffffffffffff021916908373ffffffffffffffffffffffffffffffffffffffff160217905550506137ed806100dc6000396000f3fe608060405234801561001057600080fd5b506004361061014d5760003560e01c80637f13c7a1116100c3578063ba50531a1161007c578063ba50531a146106a0578063be999705146106fa578063ef4ffe5714610728578063f29de4c31461079f578063f926b17a1461080b578063fc0c546a1461089e5761014d565b80637f13c7a11461043c57806381423a261461049e5780638da5cb5b1461052457806394bb90641461056e5780639b3017c1146105da578063a4003ad4146106525761014d565b80632393768d116101155780632393768d1461026e57806326d9767b1461028c578063295226c5146102da5780632e9721b61461034457806353c0fb47146103ca5780637838e408146104025761014d565b806307f71149146101525780630ce57b46146101aa5780631272d8d41461020457806313dcc45214610222578063155dd5ee14610240575b600080fd5b6101a86004803603606081101561016857600080fd5b81019080803573ffffffffffffffffffffffffffffffffffffffff16906020019092919080359060200190929190803590602001909291905050506108e8565b005b610202600480360360608110156101c057600080fd5b8101908080359060200190929190803573ffffffffffffffffffffffffffffffffffffffff169060200190929190803515159060200190929190505050610ca4565b005b61020c610dc3565b6040518082815260200191505060405180910390f35b61022a610dc9565b6040518082815260200191505060405180910390f35b61026c6004803603602081101561025657600080fd5b8101908080359060200190929190505050610dcf565b005b610276611057565b6040518082815260200191505060405180910390f35b6102d8600480360360408110156102a257600080fd5b81019080803573ffffffffffffffffffffffffffffffffffffffff1690602001909291908035906020019092919050505061105d565b005b610342600480360360e08110156102f057600080fd5b81019080803590602001909291908035906020019092919080359060200190929190803590602001909291908035906020019092919080359060200190929190803590602001909291905050506116f9565b005b6103b06004803603606081101561035a57600080fd5b81019080803573ffffffffffffffffffffffffffffffffffffffff16906020019092919080359060200190929190803573ffffffffffffffffffffffffffffffffffffffff169060200190929190505050611897565b604051808215151515815260200191505060405180910390f35b610400600480360360408110156103e057600080fd5b810190808035906020019092919080359060200190929190505050611948565b005b61043a6004803603604081101561041857600080fd5b8101908080359060200190929190803515159060200190929190505050611f8b565b005b61049c6004803603608081101561045257600080fd5b81019080803573ffffffffffffffffffffffffffffffffffffffff169060200190929190803590602001909291908035906020019092919080359060200190929190505050612087565b005b61050a600480360360608110156104b457600080fd5b81019080803573ffffffffffffffffffffffffffffffffffffffff16906020019092919080359060200190929190803573ffffffffffffffffffffffffffffffffffffffff16906020019092919050505061268a565b604051808215151515815260200191505060405180910390f35b61052c61273b565b604051808273ffffffffffffffffffffffffffffffffffffffff1673ffffffffffffffffffffffffffffffffffffffff16815260200191505060405180910390f35b6105c46004803603606081101561058457600080fd5b81019080803573ffffffffffffffffffffffffffffffffffffffff1690602001909291908035906020019092919080359060200190929190505050612760565b6040518082815260200191505060405180910390f35b61063c600480360360808110156105f057600080fd5b81019080803573ffffffffffffffffffffffffffffffffffffffff16906020019092919080359060200190929190803590602001909291908035151590602001909291905050506128e1565b6040518082815260200191505060405180910390f35b61069e6004803603604081101561066857600080fd5b81019080803573ffffffffffffffffffffffffffffffffffffffff16906020019092919080359060200190929190505050612c15565b005b6106f8600480360360608110156106b657600080fd5b8101908080359060200190929190803573ffffffffffffffffffffffffffffffffffffffff169060200190929190803515159060200190929190505050612e0c565b005b6107266004803603602081101561071057600080fd5b810190808035906020019092919050505061308f565b005b6107546004803603602081101561073e57600080fd5b810190808035906020019092919050505061326e565b60405180891515151581526020018881526020018781526020018681526020018581526020018481526020018381526020018281526020019850505050505050505060405180910390f35b6107f5600480360360608110156107b557600080fd5b81019080803573ffffffffffffffffffffffffffffffffffffffff16906020019092919080359060200190929190803590602001909291905050506132d0565b6040518082815260200191505060405180910390f35b6108576004803603604081101561082157600080fd5b81019080803573ffffffffffffffffffffffffffffffffffffffff16906020019092919080359060200190929190505050613348565b604051808981526020018881526020018781526020018681526020018581526020018481526020018381526020018281526020019850505050505050505060405180910390f35b6108a66133aa565b604051808273ffffffffffffffffffffffffffffffffffffffff1673ffffffffffffffffffffffffffffffffffffffff16815260200191505060405180910390f35b82826000600660008473ffffffffffffffffffffffffffffffffffffffff1673ffffffffffffffffffffffffffffffffffffffff168152602001908152602001600020828154811061093657fe5b90600052602060002090600b020190508273ffffffffffffffffffffffffffffffffffffffff163373ffffffffffffffffffffffffffffffffffffffff1614610a3b578060090160003373ffffffffffffffffffffffffffffffffffffffff1673ffffffffffffffffffffffffffffffffffffffff16815260200190815260200160002060009054906101000a900460ff16610a3a576040517f08c379a000000000000000000000000000000000000000000000000000000000815260040180806020018281038252601a8152602001807f6e6f6d696e6174696f6e2073686f756c6420626520746865726500000000000081525060200191505060405180910390fd5b5b6000610a788787878a73ffffffffffffffffffffffffffffffffffffffff163373ffffffffffffffffffffffffffffffffffffffff1614156128e1565b90506000600660008973ffffffffffffffffffffffffffffffffffffffff1673ffffffffffffffffffffffffffffffffffffffff1681526020019081526020016000208781548110610ac657fe5b90600052602060002090600b02019050600081600401549050868260040181905550610afd836003546133d090919063ffffffff16565b600381905550610b18836004546133d090919063ffffffff16565b600481905550600160009054906101000a900473ffffffffffffffffffffffffffffffffffffffff1673ffffffffffffffffffffffffffffffffffffffff1663a9059cbb33856040518363ffffffff1660e01b8152600401808373ffffffffffffffffffffffffffffffffffffffff1673ffffffffffffffffffffffffffffffffffffffff16815260200182815260200192505050602060405180830381600087803b158015610bc757600080fd5b505af1158015610bdb573d6000803e3d6000fd5b505050506040513d6020811015610bf157600080fd5b810190808051906020019092919050505050878973ffffffffffffffffffffffffffffffffffffffff167f8f4915db3c6bafb045a8ca029a06c4d1638daddb07e111ed35abf34f81b6a855600184018a8733604051808581526020018481526020018381526020018273ffffffffffffffffffffffffffffffffffffffff1673ffffffffffffffffffffffffffffffffffffffff16815260200194505050505060405180910390a3505050505050505050565b80600660003373ffffffffffffffffffffffffffffffffffffffff1673ffffffffffffffffffffffffffffffffffffffff1681526020019081526020016000208481548110610cef57fe5b90600052602060002090600b020160090160008473ffffffffffffffffffffffffffffffffffffffff1673ffffffffffffffffffffffffffffffffffffffff16815260200190815260200160002060006101000a81548160ff0219169083151502179055508173ffffffffffffffffffffffffffffffffffffffff16833373ffffffffffffffffffffffffffffffffffffffff167f90e4568f920d8bb093366a04150aa0d04957a471196f5e1cdfb0db3cb83cc5b084604051808215151515815260200191505060405180910390a4505050565b60025481565b60045481565b6000809054906101000a900473ffffffffffffffffffffffffffffffffffffffff1673ffffffffffffffffffffffffffffffffffffffff163373ffffffffffffffffffffffffffffffffffffffff1614610e91576040517f08c379a00000000000000000000000000000000000000000000000000000000081526004018080602001828103825260168152602001807f6f6e6c79206465706c6f7965722063616e2063616c6c0000000000000000000081525060200191505060405180910390fd5b80610ea96003546004546133d090919063ffffffff16565b1015610f1d576040517f08c379a000000000000000000000000000000000000000000000000000000000815260040180806020018281038252601c8152602001807f63616e6e6f74207769746864726177206578636573732066756e64730000000081525060200191505060405180910390fd5b610f32816004546133d090919063ffffffff16565b600481905550600160009054906101000a900473ffffffffffffffffffffffffffffffffffffffff1673ffffffffffffffffffffffffffffffffffffffff1663a9059cbb33836040518363ffffffff1660e01b8152600401808373ffffffffffffffffffffffffffffffffffffffff1673ffffffffffffffffffffffffffffffffffffffff16815260200182815260200192505050602060405180830381600087803b158015610fe157600080fd5b505af1158015610ff5573d6000803e3d6000fd5b505050506040513d602081101561100b57600080fd5b8101908080519060200190929190505050507f4a37b25aab49761ecf63117fe82b98d750917451133cf797507bc9fb5b96044a816040518082815260200191505060405180910390a150565b60035481565b81816000600660008473ffffffffffffffffffffffffffffffffffffffff1673ffffffffffffffffffffffffffffffffffffffff16815260200190815260200160002082815481106110ab57fe5b90600052602060002090600b020190508273ffffffffffffffffffffffffffffffffffffffff163373ffffffffffffffffffffffffffffffffffffffff16146111b0578060090160003373ffffffffffffffffffffffffffffffffffffffff1673ffffffffffffffffffffffffffffffffffffffff16815260200190815260200160002060009054906101000a900460ff166111af576040517f08c379a000000000000000000000000000000000000000000000000000000000815260040180806020018281038252601a8152602001807f6e6f6d696e6174696f6e2073686f756c6420626520746865726500000000000081525060200191505060405180910390fd5b5b6000600660008773ffffffffffffffffffffffffffffffffffffffff1673ffffffffffffffffffffffffffffffffffffffff16815260200190815260200160002085815481106111fc57fe5b90600052602060002090600b02019050600060018260050154019050600381111561128f576040517f08c379a00000000000000000000000000000000000000000000000000000000081526004018080602001828103825260158152602001807f6f6e6c79203320706f77657220626f6f7374657273000000000000000000000081525060200191505060405180910390fd5b6000600254600383600254600c60058860000154815481106112ad57fe5b906000526020600020906008020160030154020202816112c957fe5b0460025460058660000154815481106112de57fe5b90600052602060002090600802016002015402856001015401010390508773ffffffffffffffffffffffffffffffffffffffff163373ffffffffffffffffffffffffffffffffffffffff161461136c576113466002846006015461341a90919063ffffffff16565b83600701541115611360576006600254028101905061136b565b600c60025402810190505b5b8042116113e1576040517f08c379a00000000000000000000000000000000000000000000000000000000081526004018080602001828103825260158152602001807f63616e6e6f74207769746864726177206561726c79000000000000000000000081525060200191505060405180910390fd5b81836005018190555060006114046003856003015461341a90919063ffffffff16565b9050600183141561157e57600080600190505b600586600001548154811061142857fe5b90600052602060002090600802016002015481116114de57600086600801600083815260200190815260200160002054141561148a57600586600001548154811061146f57fe5b906000526020600020906008020160070154820191506114d1565b60018660080160008381526020019081526020016000205414156114d05760058660000154815481106114b957fe5b906000526020600020906008020160060154820191505b5b8080600101915050611417565b5060006115086103e86114fa848661346490919063ffffffff16565b61341a90919063ffffffff16565b9050600081111561157b57611528816004546134ea90919063ffffffff16565b6004819055507f7cb5d45c1071f219bd2da1ea101758715bd52f23f2a707f2d9a0387dea18d906816040518082815260200191505060405180910390a161157881846133d090919063ffffffff16565b92505b50505b600160009054906101000a900473ffffffffffffffffffffffffffffffffffffffff1673ffffffffffffffffffffffffffffffffffffffff1663a9059cbb33836040518363ffffffff1660e01b8152600401808373ffffffffffffffffffffffffffffffffffffffff1673ffffffffffffffffffffffffffffffffffffffff16815260200182815260200192505050602060405180830381600087803b15801561162757600080fd5b505af115801561163b573d6000803e3d6000fd5b505050506040513d602081101561165157600080fd5b810190808051906020019092919050505050878973ffffffffffffffffffffffffffffffffffffffff167fa1c568ef1602bc58c1e32ea2f1251b87874dce947f5d4f4df53677d06d5bf56d858433604051808481526020018381526020018273ffffffffffffffffffffffffffffffffffffffff1673ffffffffffffffffffffffffffffffffffffffff168152602001935050505060405180910390a3505050505050505050565b6000809054906101000a900473ffffffffffffffffffffffffffffffffffffffff1673ffffffffffffffffffffffffffffffffffffffff163373ffffffffffffffffffffffffffffffffffffffff16146117bb576040517f08c379a00000000000000000000000000000000000000000000000000000000081526004018080602001828103825260168152602001807f6f6e6c79206465706c6f7965722063616e2063616c6c0000000000000000000081525060200191505060405180910390fd5b6005604051806101000160405280600115158152602001898152602001888152602001878152602001868152602001858152602001848152602001838152509080600181540180825580915050906001820390600052602060002090600802016000909192909190915060008201518160000160006101000a81548160ff0219169083151502179055506020820151816001015560408201518160020155606082015181600301556080820151816004015560a0820151816005015560c0820151816006015560e0820151816007015550505050505050505050565b6000600660008573ffffffffffffffffffffffffffffffffffffffff1673ffffffffffffffffffffffffffffffffffffffff16815260200190815260200160002083815481106118e357fe5b90600052602060002090600b020160090160008373ffffffffffffffffffffffffffffffffffffffff1673ffffffffffffffffffffffffffffffffffffffff16815260200190815260200160002060009054906101000a900460ff1690509392505050565b6005828154811061195557fe5b906000526020600020906008020160000160009054906101000a900460ff166119e6576040517f08c379a00000000000000000000000000000000000000000000000000000000081526004018080602001828103825260168152602001807f73697020706c616e206973206e6f74206163746976650000000000000000000081525060200191505060405180910390fd5b600582815481106119f357fe5b906000526020600020906008020160010154811015611a7a576040517f08c379a00000000000000000000000000000000000000000000000000000000081526004018080602001828103825260208152602001807f616d6f756e742073686f756c642062652061746c65617374206d696e696d756d81525060200191505060405180910390fd5b6000611af160058481548110611a8c57fe5b906000526020600020906008020160030154611ae36103e8611ad560058881548110611ab457fe5b9060005260206000209060080201600501548761346490919063ffffffff16565b61341a90919063ffffffff16565b61346490919063ffffffff16565b9050611b08600354826134ea90919063ffffffff16565b6004541015611b62576040517f08c379a000000000000000000000000000000000000000000000000000000000815260040180806020018281038252603581526020018061373d6035913960400191505060405180910390fd5b600160009054906101000a900473ffffffffffffffffffffffffffffffffffffffff1673ffffffffffffffffffffffffffffffffffffffff166323b872dd3330856040518463ffffffff1660e01b8152600401808473ffffffffffffffffffffffffffffffffffffffff1673ffffffffffffffffffffffffffffffffffffffff1681526020018373ffffffffffffffffffffffffffffffffffffffff1673ffffffffffffffffffffffffffffffffffffffff1681526020018281526020019350505050602060405180830381600087803b158015611c3f57600080fd5b505af1158015611c53573d6000803e3d6000fd5b505050506040513d6020811015611c6957600080fd5b8101908080519060200190929190505050611c8357600080fd5b600660003373ffffffffffffffffffffffffffffffffffffffff1673ffffffffffffffffffffffffffffffffffffffff16815260200190815260200160002060405180610100016040528085815260200142815260200184815260200184815260200160008152602001600081526020016000815260200160008152509080600181540180825580915050906001820390600052602060002090600b020160009091929091909150600082015181600001556020820151816001015560408201518160020155606082015181600301556080820151816004015560a0820151816005015560c0820151816006015560e0820151816007015550505060006001600660003373ffffffffffffffffffffffffffffffffffffffff1673ffffffffffffffffffffffffffffffffffffffff168152602001908152602001600020805490500390506002600660003373ffffffffffffffffffffffffffffffffffffffff1673ffffffffffffffffffffffffffffffffffffffff1681526020019081526020016000208281548110611e1457fe5b90600052602060002090600b020160080160006001815260200190815260200160002081905550611e50826003546134ea90919063ffffffff16565b6003819055503373ffffffffffffffffffffffffffffffffffffffff167f1dec97fc36aa6dfa81b208ec37b3ac8dae30717f0622f9cfb2e7223dc95326ec6001600660003373ffffffffffffffffffffffffffffffffffffffff1673ffffffffffffffffffffffffffffffffffffffff168152602001908152602001600020805490500385604051808381526020018281526020019250505060405180910390a2803373ffffffffffffffffffffffffffffffffffffffff167fbaf4c88598102708c4215d5d3767268130627355850b7ece9bdfdc32fd2941f06001868633604051808581526020018481526020018381526020018273ffffffffffffffffffffffffffffffffffffffff1673ffffffffffffffffffffffffffffffffffffffff16815260200194505050505060405180910390a350505050565b6000809054906101000a900473ffffffffffffffffffffffffffffffffffffffff1673ffffffffffffffffffffffffffffffffffffffff163373ffffffffffffffffffffffffffffffffffffffff161461204d576040517f08c379a00000000000000000000000000000000000000000000000000000000081526004018080602001828103825260168152602001807f6f6e6c79206465706c6f7965722063616e2063616c6c0000000000000000000081525060200191505060405180910390fd5b806005838154811061205b57fe5b906000526020600020906008020160000160006101000a81548160ff0219169083151502179055505050565b83836000600660008473ffffffffffffffffffffffffffffffffffffffff1673ffffffffffffffffffffffffffffffffffffffff16815260200190815260200160002082815481106120d557fe5b90600052602060002090600b020190508273ffffffffffffffffffffffffffffffffffffffff163373ffffffffffffffffffffffffffffffffffffffff16146121da578060090160003373ffffffffffffffffffffffffffffffffffffffff1673ffffffffffffffffffffffffffffffffffffffff16815260200190815260200160002060009054906101000a900460ff166121d9576040517f08c379a000000000000000000000000000000000000000000000000000000000815260040180806020018281038252601a8152602001807f6e6f6d696e6174696f6e2073686f756c6420626520746865726500000000000081525060200191505060405180910390fd5b5b6000600660008973ffffffffffffffffffffffffffffffffffffffff1673ffffffffffffffffffffffffffffffffffffffff168152602001908152602001600020878154811061222657fe5b90600052602060002090600b020190508060020154861015612293576040517f08c379a00000000000000000000000000000000000000000000000000000000081526004018080602001828103825260268152602001806137936026913960400191505060405180910390fd5b6000816008016000878152602001908152602001600020541461231e576040517f08c379a00000000000000000000000000000000000000000000000000000000081526004018080602001828103825260148152602001807f63616e6e6f74206465706f73697420616761696e00000000000000000000000081525060200191505060405180910390fd5b600061239d600583600001548154811061233457fe5b90600052602060002090600802016003015461238f6103e8612381600587600001548154811061236057fe5b9060005260206000209060080201600501548c61346490919063ffffffff16565b61341a90919063ffffffff16565b61346490919063ffffffff16565b90506123b4600354826134ea90919063ffffffff16565b600454101561240e576040517f08c379a000000000000000000000000000000000000000000000000000000000815260040180806020018281038252602381526020018061371a6023913960400191505060405180910390fd5b600061241b8a8a89612760565b905060008111612476576040517f08c379a00000000000000000000000000000000000000000000000000000000081526004018080602001828103825260218152602001806136f96021913960400191505060405180910390fd5b600160009054906101000a900473ffffffffffffffffffffffffffffffffffffffff1673ffffffffffffffffffffffffffffffffffffffff166323b872dd33308b6040518463ffffffff1660e01b8152600401808473ffffffffffffffffffffffffffffffffffffffff1673ffffffffffffffffffffffffffffffffffffffff1681526020018373ffffffffffffffffffffffffffffffffffffffff1673ffffffffffffffffffffffffffffffffffffffff1681526020018281526020019350505050602060405180830381600087803b15801561255357600080fd5b505af1158015612567573d6000803e3d6000fd5b505050506040513d602081101561257d57600080fd5b810190808051906020019092919050505061259757600080fd5b80836008016000898152602001908152602001600020819055506125c88884600301546134ea90919063ffffffff16565b83600301819055506125e5826003546134ea90919063ffffffff16565b600381905550888a73ffffffffffffffffffffffffffffffffffffffff167fbaf4c88598102708c4215d5d3767268130627355850b7ece9bdfdc32fd2941f0898b8633604051808581526020018481526020018381526020018273ffffffffffffffffffffffffffffffffffffffff1673ffffffffffffffffffffffffffffffffffffffff16815260200194505050505060405180910390a350505050505050505050565b6000600660008573ffffffffffffffffffffffffffffffffffffffff1673ffffffffffffffffffffffffffffffffffffffff16815260200190815260200160002083815481106126d657fe5b90600052602060002090600b0201600a0160008373ffffffffffffffffffffffffffffffffffffffff1673ffffffffffffffffffffffffffffffffffffffff16815260200190815260200160002060009054906101000a900460ff1690509392505050565b6000809054906101000a900473ffffffffffffffffffffffffffffffffffffffff1681565b600080600660008673ffffffffffffffffffffffffffffffffffffffff1673ffffffffffffffffffffffffffffffffffffffff16815260200190815260200160002084815481106127ad57fe5b90600052602060002090600b02019050600183101580156127f0575060058160000154815481106127da57fe5b9060005260206000209060080201600201548311155b612862576040517f08c379a00000000000000000000000000000000000000000000000000000000081526004018080602001828103825260158152602001807f696e76616c6964206465706f736974206d6f6e7468000000000000000000000081525060200191505060405180910390fd5b600060018403600254028260010154019050600254810342101561288b576000925050506128da565b42811061289d576002925050506128da565b4260058360000154815481106128af57fe5b9060005260206000209060080201600401548201106128d3576001925050506128da565b6000925050505b9392505050565b600080600660008773ffffffffffffffffffffffffffffffffffffffff1673ffffffffffffffffffffffffffffffffffffffff168152602001908152602001600020858154811061292e57fe5b90600052602060002090600b020190506000841180156129735750600c600582600001548154811061295c57fe5b906000526020600020906008020160030154028411155b6129e5576040517f08c379a00000000000000000000000000000000000000000000000000000000081526004018080602001828103825260168152602001807f696e76616c6964207769746864726177206d6f6e74680000000000000000000081525060200191505060405180910390fd5b80600401548411612a5e576040517f08c379a00000000000000000000000000000000000000000000000000000000081526004018080602001828103825260158152602001807f63616e6e6f7420776974686472617720616761696e000000000000000000000081525060200191505060405180910390fd5b60006001856005846000015481548110612a7457fe5b90600052602060002090600802016002015401036002540282600101540190508315612ad857612ab26002836006015461341a90919063ffffffff16565b82600701541115612acc5760066002540281019050612ad7565b600c60025402810190505b5b80421015612b4e576040517f08c379a00000000000000000000000000000000000000000000000000000000081526004018080602001828103825260158152602001807f63616e6e6f74207769746864726177206561726c79000000000000000000000081525060200191505060405180910390fd5b6000612b896005846000015481548110612b6457fe5b906000526020600020906008020160020154846003015461341a90919063ffffffff16565b90506000612bd66103e8612bc86005876000015481548110612ba757fe5b9060005260206000209060080201600501548561346490919063ffffffff16565b61341a90919063ffffffff16565b90506000612c03612bf486600401548a6133d090919063ffffffff16565b8361346490919063ffffffff16565b90508095505050505050949350505050565b6000600660008473ffffffffffffffffffffffffffffffffffffffff1673ffffffffffffffffffffffffffffffffffffffff1681526020019081526020016000208281548110612c6157fe5b90600052602060002090600b0201905080600a0160003373ffffffffffffffffffffffffffffffffffffffff1673ffffffffffffffffffffffffffffffffffffffff16815260200190815260200160002060009054906101000a900460ff16612d32576040517f08c379a00000000000000000000000000000000000000000000000000000000081526004018080602001828103825260208152602001807f73686f756c64206265206170706f696e74656520746f206361737420766f746581525060200191505060405180910390fd5b600081600a0160003373ffffffffffffffffffffffffffffffffffffffff1673ffffffffffffffffffffffffffffffffffffffff16815260200190815260200160002060006101000a81548160ff021916908315150217905550612da4600182600701546134ea90919063ffffffff16565b81600701819055503373ffffffffffffffffffffffffffffffffffffffff16828473ffffffffffffffffffffffffffffffffffffffff167f57e90b4a498a7310fab91955c915f3f15a0d1a94b296f824da9443d524ea2e1b60405160405180910390a4505050565b6000600660003373ffffffffffffffffffffffffffffffffffffffff1673ffffffffffffffffffffffffffffffffffffffff1681526020019081526020016000208481548110612e5857fe5b90600052602060002090600b0201905080600a0160008473ffffffffffffffffffffffffffffffffffffffff1673ffffffffffffffffffffffffffffffffffffffff16815260200190815260200160002060009054906101000a900460ff16158015612ec15750815b15612f4557612ede600182600601546134ea90919063ffffffff16565b816006018190555060018160090160008573ffffffffffffffffffffffffffffffffffffffff1673ffffffffffffffffffffffffffffffffffffffff16815260200190815260200160002060006101000a81548160ff02191690831515021790555061301f565b80600a0160008473ffffffffffffffffffffffffffffffffffffffff1673ffffffffffffffffffffffffffffffffffffffff16815260200190815260200160002060009054906101000a900460ff168015612f9e575081155b1561301e5760008160090160008573ffffffffffffffffffffffffffffffffffffffff1673ffffffffffffffffffffffffffffffffffffffff16815260200190815260200160002060006101000a81548160ff021916908315150217905550613015600182600601546133d090919063ffffffff16565b81600601819055505b5b8273ffffffffffffffffffffffffffffffffffffffff16843373ffffffffffffffffffffffffffffffffffffffff167ff7a6207b27953eff117f9b7c03e363d41370a45e2b626d2aa32c6a0ac636578285604051808215151515815260200191505060405180910390a450505050565b600160009054906101000a900473ffffffffffffffffffffffffffffffffffffffff1673ffffffffffffffffffffffffffffffffffffffff166323b872dd3330846040518463ffffffff1660e01b8152600401808473ffffffffffffffffffffffffffffffffffffffff1673ffffffffffffffffffffffffffffffffffffffff1681526020018373ffffffffffffffffffffffffffffffffffffffff1673ffffffffffffffffffffffffffffffffffffffff1681526020018281526020019350505050602060405180830381600087803b15801561316c57600080fd5b505af1158015613180573d6000803e3d6000fd5b505050506040513d602081101561319657600080fd5b8101908080519060200190929190505050613219576040517f08c379a000000000000000000000000000000000000000000000000000000000815260040180806020018281038252601b8152602001807f746f6b656e732073686f756c64206265207472616e736665726564000000000081525060200191505060405180910390fd5b61322e816004546134ea90919063ffffffff16565b6004819055507f7cb5d45c1071f219bd2da1ea101758715bd52f23f2a707f2d9a0387dea18d906816040518082815260200191505060405180910390a150565b6005818154811061327b57fe5b90600052602060002090600802016000915090508060000160009054906101000a900460ff16908060010154908060020154908060030154908060040154908060050154908060060154908060070154905088565b6000600660008573ffffffffffffffffffffffffffffffffffffffff1673ffffffffffffffffffffffffffffffffffffffff168152602001908152602001600020838154811061331c57fe5b90600052602060002090600b020160080160008381526020019081526020016000205490509392505050565b6006602052816000526040600020818154811061336157fe5b90600052602060002090600b0201600091509150508060000154908060010154908060020154908060030154908060040154908060050154908060060154908060070154905088565b600160009054906101000a900473ffffffffffffffffffffffffffffffffffffffff1681565b600061341283836040518060400160405280601e81526020017f536166654d6174683a207375627472616374696f6e206f766572666c6f770000815250613572565b905092915050565b600061345c83836040518060400160405280601a81526020017f536166654d6174683a206469766973696f6e206279207a65726f000000000000815250613632565b905092915050565b60008083141561347757600090506134e4565b600082840290508284828161348857fe5b04146134df576040517f08c379a00000000000000000000000000000000000000000000000000000000081526004018080602001828103825260218152602001806137726021913960400191505060405180910390fd5b809150505b92915050565b600080828401905083811015613568576040517f08c379a000000000000000000000000000000000000000000000000000000000815260040180806020018281038252601b8152602001807f536166654d6174683a206164646974696f6e206f766572666c6f77000000000081525060200191505060405180910390fd5b8091505092915050565b600083831115829061361f576040517f08c379a00000000000000000000000000000000000000000000000000000000081526004018080602001828103825283818151815260200191508051906020019080838360005b838110156135e45780820151818401526020810190506135c9565b50505050905090810190601f1680156136115780820380516001836020036101000a031916815260200191505b509250505060405180910390fd5b5060008385039050809150509392505050565b600080831182906136de576040517f08c379a00000000000000000000000000000000000000000000000000000000081526004018080602001828103825283818151815260200191508051906020019080838360005b838110156136a3578082015181840152602081019050613688565b50505050905090810190601f1680156136d05780820380516001836020036101000a031916815260200191505b509250505060405180910390fd5b5060008385816136ea57fe5b04905080915050939250505056fe677261636520706572696f6420656c6170736564206f7220746f6f206561726c79656e6f7567682066756e64732073686f756c6420626520746865726520696e20534950656e6f7567682066756e647320666f722062656e65666974732073686f756c6420626520746865726520696e20636f6e7472616374536166654d6174683a206d756c7469706c69636174696f6e206f766572666c6f776465706f7369742063616e6e6f74206265206c657373207468616e20636f6d6d69746d656e74a265627a7a723158200c9814e3032950c97141e31efb9386c8bdeee973260c28100e633ad57299594464736f6c634300050c0032","opcodes":"PUSH1 0x80 PUSH1 0x40 MSTORE PUSH3 0x282070 PUSH1 0x2 SSTORE CALLVALUE DUP1 ISZERO PUSH2 0x17 JUMPI PUSH1 0x0 DUP1 REVERT JUMPDEST POP PUSH1 0x40 MLOAD PUSH2 0x38C9 CODESIZE SUB DUP1 PUSH2 0x38C9 DUP4 CODECOPY DUP2 DUP2 ADD PUSH1 0x40 MSTORE PUSH1 0x20 DUP2 LT ISZERO PUSH2 0x3A JUMPI PUSH1 0x0 DUP1 REVERT JUMPDEST DUP2 ADD SWAP1 DUP1 DUP1 MLOAD SWAP1 PUSH1 0x20 ADD SWAP1 SWAP3 SWAP2 SWAP1 POP POP POP CALLER PUSH1 0x0 DUP1 PUSH2 0x100 EXP DUP2 SLOAD DUP2 PUSH20 0xFFFFFFFFFFFFFFFFFFFFFFFFFFFFFFFFFFFFFFFF MUL NOT AND SWAP1 DUP4 PUSH20 0xFFFFFFFFFFFFFFFFFFFFFFFFFFFFFFFFFFFFFFFF AND MUL OR SWAP1 SSTORE POP DUP1 PUSH1 0x1 PUSH1 0x0 PUSH2 0x100 EXP DUP2 SLOAD DUP2 PUSH20 0xFFFFFFFFFFFFFFFFFFFFFFFFFFFFFFFFFFFFFFFF MUL NOT AND SWAP1 DUP4 PUSH20 0xFFFFFFFFFFFFFFFFFFFFFFFFFFFFFFFFFFFFFFFF AND MUL OR SWAP1 SSTORE POP POP PUSH2 0x37ED DUP1 PUSH2 0xDC PUSH1 0x0 CODECOPY PUSH1 0x0 RETURN INVALID PUSH1 0x80 PUSH1 0x40 MSTORE CALLVALUE DUP1 ISZERO PUSH2 0x10 JUMPI PUSH1 0x0 DUP1 REVERT JUMPDEST POP PUSH1 0x4 CALLDATASIZE LT PUSH2 0x14D JUMPI PUSH1 0x0 CALLDATALOAD PUSH1 0xE0 SHR DUP1 PUSH4 0x7F13C7A1 GT PUSH2 0xC3 JUMPI DUP1 PUSH4 0xBA50531A GT PUSH2 0x7C JUMPI DUP1 PUSH4 0xBA50531A EQ PUSH2 0x6A0 JUMPI DUP1 PUSH4 0xBE999705 EQ PUSH2 0x6FA JUMPI DUP1 PUSH4 0xEF4FFE57 EQ PUSH2 0x728 JUMPI DUP1 PUSH4 0xF29DE4C3 EQ PUSH2 0x79F JUMPI DUP1 PUSH4 0xF926B17A EQ PUSH2 0x80B JUMPI DUP1 PUSH4 0xFC0C546A EQ PUSH2 0x89E JUMPI PUSH2 0x14D JUMP JUMPDEST DUP1 PUSH4 0x7F13C7A1 EQ PUSH2 0x43C JUMPI DUP1 PUSH4 0x81423A26 EQ PUSH2 0x49E JUMPI DUP1 PUSH4 0x8DA5CB5B EQ PUSH2 0x524 JUMPI DUP1 PUSH4 0x94BB9064 EQ PUSH2 0x56E JUMPI DUP1 PUSH4 0x9B3017C1 EQ PUSH2 0x5DA JUMPI DUP1 PUSH4 0xA4003AD4 EQ PUSH2 0x652 JUMPI PUSH2 0x14D JUMP JUMPDEST DUP1 PUSH4 0x2393768D GT PUSH2 0x115 JUMPI DUP1 PUSH4 0x2393768D EQ PUSH2 0x26E JUMPI DUP1 PUSH4 0x26D9767B EQ PUSH2 0x28C JUMPI DUP1 PUSH4 0x295226C5 EQ PUSH2 0x2DA JUMPI DUP1 PUSH4 0x2E9721B6 EQ PUSH2 0x344 JUMPI DUP1 PUSH4 0x53C0FB47 EQ PUSH2 0x3CA JUMPI DUP1 PUSH4 0x7838E408 EQ PUSH2 0x402 JUMPI PUSH2 0x14D JUMP JUMPDEST DUP1 PUSH4 0x7F71149 EQ PUSH2 0x152 JUMPI DUP1 PUSH4 0xCE57B46 EQ PUSH2 0x1AA JUMPI DUP1 PUSH4 0x1272D8D4 EQ PUSH2 0x204 JUMPI DUP1 PUSH4 0x13DCC452 EQ PUSH2 0x222 JUMPI DUP1 PUSH4 0x155DD5EE EQ PUSH2 0x240 JUMPI JUMPDEST PUSH1 0x0 DUP1 REVERT JUMPDEST PUSH2 0x1A8 PUSH1 0x4 DUP1 CALLDATASIZE SUB PUSH1 0x60 DUP2 LT ISZERO PUSH2 0x168 JUMPI PUSH1 0x0 DUP1 REVERT JUMPDEST DUP2 ADD SWAP1 DUP1 DUP1 CALLDATALOAD PUSH20 0xFFFFFFFFFFFFFFFFFFFFFFFFFFFFFFFFFFFFFFFF AND SWAP1 PUSH1 0x20 ADD SWAP1 SWAP3 SWAP2 SWAP1 DUP1 CALLDATALOAD SWAP1 PUSH1 0x20 ADD SWAP1 SWAP3 SWAP2 SWAP1 DUP1 CALLDATALOAD SWAP1 PUSH1 0x20 ADD SWAP1 SWAP3 SWAP2 SWAP1 POP POP POP PUSH2 0x8E8 JUMP JUMPDEST STOP JUMPDEST PUSH2 0x202 PUSH1 0x4 DUP1 CALLDATASIZE SUB PUSH1 0x60 DUP2 LT ISZERO PUSH2 0x1C0 JUMPI PUSH1 0x0 DUP1 REVERT JUMPDEST DUP2 ADD SWAP1 DUP1 DUP1 CALLDATALOAD SWAP1 PUSH1 0x20 ADD SWAP1 SWAP3 SWAP2 SWAP1 DUP1 CALLDATALOAD PUSH20 0xFFFFFFFFFFFFFFFFFFFFFFFFFFFFFFFFFFFFFFFF AND SWAP1 PUSH1 0x20 ADD SWAP1 SWAP3 SWAP2 SWAP1 DUP1 CALLDATALOAD ISZERO ISZERO SWAP1 PUSH1 0x20 ADD SWAP1 SWAP3 SWAP2 SWAP1 POP POP POP PUSH2 0xCA4 JUMP JUMPDEST STOP JUMPDEST PUSH2 0x20C PUSH2 0xDC3 JUMP JUMPDEST PUSH1 0x40 MLOAD DUP1 DUP3 DUP2 MSTORE PUSH1 0x20 ADD SWAP2 POP POP PUSH1 0x40 MLOAD DUP1 SWAP2 SUB SWAP1 RETURN JUMPDEST PUSH2 0x22A PUSH2 0xDC9 JUMP JUMPDEST PUSH1 0x40 MLOAD DUP1 DUP3 DUP2 MSTORE PUSH1 0x20 ADD SWAP2 POP POP PUSH1 0x40 MLOAD DUP1 SWAP2 SUB SWAP1 RETURN JUMPDEST PUSH2 0x26C PUSH1 0x4 DUP1 CALLDATASIZE SUB PUSH1 0x20 DUP2 LT ISZERO PUSH2 0x256 JUMPI PUSH1 0x0 DUP1 REVERT JUMPDEST DUP2 ADD SWAP1 DUP1 DUP1 CALLDATALOAD SWAP1 PUSH1 0x20 ADD SWAP1 SWAP3 SWAP2 SWAP1 POP POP POP PUSH2 0xDCF JUMP JUMPDEST STOP JUMPDEST PUSH2 0x276 PUSH2 0x1057 JUMP JUMPDEST PUSH1 0x40 MLOAD DUP1 DUP3 DUP2 MSTORE PUSH1 0x20 ADD SWAP2 POP POP PUSH1 0x40 MLOAD DUP1 SWAP2 SUB SWAP1 RETURN JUMPDEST PUSH2 0x2D8 PUSH1 0x4 DUP1 CALLDATASIZE SUB PUSH1 0x40 DUP2 LT ISZERO PUSH2 0x2A2 JUMPI PUSH1 0x0 DUP1 REVERT JUMPDEST DUP2 ADD SWAP1 DUP1 DUP1 CALLDATALOAD PUSH20 0xFFFFFFFFFFFFFFFFFFFFFFFFFFFFFFFFFFFFFFFF AND SWAP1 PUSH1 0x20 ADD SWAP1 SWAP3 SWAP2 SWAP1 DUP1 CALLDATALOAD SWAP1 PUSH1 0x20 ADD SWAP1 SWAP3 SWAP2 SWAP1 POP POP POP PUSH2 0x105D JUMP JUMPDEST STOP JUMPDEST PUSH2 0x342 PUSH1 0x4 DUP1 CALLDATASIZE SUB PUSH1 0xE0 DUP2 LT ISZERO PUSH2 0x2F0 JUMPI PUSH1 0x0 DUP1 REVERT JUMPDEST DUP2 ADD SWAP1 DUP1 DUP1 CALLDATALOAD SWAP1 PUSH1 0x20 ADD SWAP1 SWAP3 SWAP2 SWAP1 DUP1 CALLDATALOAD SWAP1 PUSH1 0x20 ADD SWAP1 SWAP3 SWAP2 SWAP1 DUP1 CALLDATALOAD SWAP1 PUSH1 0x20 ADD SWAP1 SWAP3 SWAP2 SWAP1 DUP1 CALLDATALOAD SWAP1 PUSH1 0x20 ADD SWAP1 SWAP3 SWAP2 SWAP1 DUP1 CALLDATALOAD SWAP1 PUSH1 0x20 ADD SWAP1 SWAP3 SWAP2 SWAP1 DUP1 CALLDATALOAD SWAP1 PUSH1 0x20 ADD SWAP1 SWAP3 SWAP2 SWAP1 DUP1 CALLDATALOAD SWAP1 PUSH1 0x20 ADD SWAP1 SWAP3 SWAP2 SWAP1 POP POP POP PUSH2 0x16F9 JUMP JUMPDEST STOP JUMPDEST PUSH2 0x3B0 PUSH1 0x4 DUP1 CALLDATASIZE SUB PUSH1 0x60 DUP2 LT ISZERO PUSH2 0x35A JUMPI PUSH1 0x0 DUP1 REVERT JUMPDEST DUP2 ADD SWAP1 DUP1 DUP1 CALLDATALOAD PUSH20 0xFFFFFFFFFFFFFFFFFFFFFFFFFFFFFFFFFFFFFFFF AND SWAP1 PUSH1 0x20 ADD SWAP1 SWAP3 SWAP2 SWAP1 DUP1 CALLDATALOAD SWAP1 PUSH1 0x20 ADD SWAP1 SWAP3 SWAP2 SWAP1 DUP1 CALLDATALOAD PUSH20 0xFFFFFFFFFFFFFFFFFFFFFFFFFFFFFFFFFFFFFFFF AND SWAP1 PUSH1 0x20 ADD SWAP1 SWAP3 SWAP2 SWAP1 POP POP POP PUSH2 0x1897 JUMP JUMPDEST PUSH1 0x40 MLOAD DUP1 DUP3 ISZERO ISZERO ISZERO ISZERO DUP2 MSTORE PUSH1 0x20 ADD SWAP2 POP POP PUSH1 0x40 MLOAD DUP1 SWAP2 SUB SWAP1 RETURN JUMPDEST PUSH2 0x400 PUSH1 0x4 DUP1 CALLDATASIZE SUB PUSH1 0x40 DUP2 LT ISZERO PUSH2 0x3E0 JUMPI PUSH1 0x0 DUP1 REVERT JUMPDEST DUP2 ADD SWAP1 DUP1 DUP1 CALLDATALOAD SWAP1 PUSH1 0x20 ADD SWAP1 SWAP3 SWAP2 SWAP1 DUP1 CALLDATALOAD SWAP1 PUSH1 0x20 ADD SWAP1 SWAP3 SWAP2 SWAP1 POP POP POP PUSH2 0x1948 JUMP JUMPDEST STOP JUMPDEST PUSH2 0x43A PUSH1 0x4 DUP1 CALLDATASIZE SUB PUSH1 0x40 DUP2 LT ISZERO PUSH2 0x418 JUMPI PUSH1 0x0 DUP1 REVERT JUMPDEST DUP2 ADD SWAP1 DUP1 DUP1 CALLDATALOAD SWAP1 PUSH1 0x20 ADD SWAP1 SWAP3 SWAP2 SWAP1 DUP1 CALLDATALOAD ISZERO ISZERO SWAP1 PUSH1 0x20 ADD SWAP1 SWAP3 SWAP2 SWAP1 POP POP POP PUSH2 0x1F8B JUMP JUMPDEST STOP JUMPDEST PUSH2 0x49C PUSH1 0x4 DUP1 CALLDATASIZE SUB PUSH1 0x80 DUP2 LT ISZERO PUSH2 0x452 JUMPI PUSH1 0x0 DUP1 REVERT JUMPDEST DUP2 ADD SWAP1 DUP1 DUP1 CALLDATALOAD PUSH20 0xFFFFFFFFFFFFFFFFFFFFFFFFFFFFFFFFFFFFFFFF AND SWAP1 PUSH1 0x20 ADD SWAP1 SWAP3 SWAP2 SWAP1 DUP1 CALLDATALOAD SWAP1 PUSH1 0x20 ADD SWAP1 SWAP3 SWAP2 SWAP1 DUP1 CALLDATALOAD SWAP1 PUSH1 0x20 ADD SWAP1 SWAP3 SWAP2 SWAP1 DUP1 CALLDATALOAD SWAP1 PUSH1 0x20 ADD SWAP1 SWAP3 SWAP2 SWAP1 POP POP POP PUSH2 0x2087 JUMP JUMPDEST STOP JUMPDEST PUSH2 0x50A PUSH1 0x4 DUP1 CALLDATASIZE SUB PUSH1 0x60 DUP2 LT ISZERO PUSH2 0x4B4 JUMPI PUSH1 0x0 DUP1 REVERT JUMPDEST DUP2 ADD SWAP1 DUP1 DUP1 CALLDATALOAD PUSH20 0xFFFFFFFFFFFFFFFFFFFFFFFFFFFFFFFFFFFFFFFF AND SWAP1 PUSH1 0x20 ADD SWAP1 SWAP3 SWAP2 SWAP1 DUP1 CALLDATALOAD SWAP1 PUSH1 0x20 ADD SWAP1 SWAP3 SWAP2 SWAP1 DUP1 CALLDATALOAD PUSH20 0xFFFFFFFFFFFFFFFFFFFFFFFFFFFFFFFFFFFFFFFF AND SWAP1 PUSH1 0x20 ADD SWAP1 SWAP3 SWAP2 SWAP1 POP POP POP PUSH2 0x268A JUMP JUMPDEST PUSH1 0x40 MLOAD DUP1 DUP3 ISZERO ISZERO ISZERO ISZERO DUP2 MSTORE PUSH1 0x20 ADD SWAP2 POP POP PUSH1 0x40 MLOAD DUP1 SWAP2 SUB SWAP1 RETURN JUMPDEST PUSH2 0x52C PUSH2 0x273B JUMP JUMPDEST PUSH1 0x40 MLOAD DUP1 DUP3 PUSH20 0xFFFFFFFFFFFFFFFFFFFFFFFFFFFFFFFFFFFFFFFF AND PUSH20 0xFFFFFFFFFFFFFFFFFFFFFFFFFFFFFFFFFFFFFFFF AND DUP2 MSTORE PUSH1 0x20 ADD SWAP2 POP POP PUSH1 0x40 MLOAD DUP1 SWAP2 SUB SWAP1 RETURN JUMPDEST PUSH2 0x5C4 PUSH1 0x4 DUP1 CALLDATASIZE SUB PUSH1 0x60 DUP2 LT ISZERO PUSH2 0x584 JUMPI PUSH1 0x0 DUP1 REVERT JUMPDEST DUP2 ADD SWAP1 DUP1 DUP1 CALLDATALOAD PUSH20 0xFFFFFFFFFFFFFFFFFFFFFFFFFFFFFFFFFFFFFFFF AND SWAP1 PUSH1 0x20 ADD SWAP1 SWAP3 SWAP2 SWAP1 DUP1 CALLDATALOAD SWAP1 PUSH1 0x20 ADD SWAP1 SWAP3 SWAP2 SWAP1 DUP1 CALLDATALOAD SWAP1 PUSH1 0x20 ADD SWAP1 SWAP3 SWAP2 SWAP1 POP POP POP PUSH2 0x2760 JUMP JUMPDEST PUSH1 0x40 MLOAD DUP1 DUP3 DUP2 MSTORE PUSH1 0x20 ADD SWAP2 POP POP PUSH1 0x40 MLOAD DUP1 SWAP2 SUB SWAP1 RETURN JUMPDEST PUSH2 0x63C PUSH1 0x4 DUP1 CALLDATASIZE SUB PUSH1 0x80 DUP2 LT ISZERO PUSH2 0x5F0 JUMPI PUSH1 0x0 DUP1 REVERT JUMPDEST DUP2 ADD SWAP1 DUP1 DUP1 CALLDATALOAD PUSH20 0xFFFFFFFFFFFFFFFFFFFFFFFFFFFFFFFFFFFFFFFF AND SWAP1 PUSH1 0x20 ADD SWAP1 SWAP3 SWAP2 SWAP1 DUP1 CALLDATALOAD SWAP1 PUSH1 0x20 ADD SWAP1 SWAP3 SWAP2 SWAP1 DUP1 CALLDATALOAD SWAP1 PUSH1 0x20 ADD SWAP1 SWAP3 SWAP2 SWAP1 DUP1 CALLDATALOAD ISZERO ISZERO SWAP1 PUSH1 0x20 ADD SWAP1 SWAP3 SWAP2 SWAP1 POP POP POP PUSH2 0x28E1 JUMP JUMPDEST PUSH1 0x40 MLOAD DUP1 DUP3 DUP2 MSTORE PUSH1 0x20 ADD SWAP2 POP POP PUSH1 0x40 MLOAD DUP1 SWAP2 SUB SWAP1 RETURN JUMPDEST PUSH2 0x69E PUSH1 0x4 DUP1 CALLDATASIZE SUB PUSH1 0x40 DUP2 LT ISZERO PUSH2 0x668 JUMPI PUSH1 0x0 DUP1 REVERT JUMPDEST DUP2 ADD SWAP1 DUP1 DUP1 CALLDATALOAD PUSH20 0xFFFFFFFFFFFFFFFFFFFFFFFFFFFFFFFFFFFFFFFF AND SWAP1 PUSH1 0x20 ADD SWAP1 SWAP3 SWAP2 SWAP1 DUP1 CALLDATALOAD SWAP1 PUSH1 0x20 ADD SWAP1 SWAP3 SWAP2 SWAP1 POP POP POP PUSH2 0x2C15 JUMP JUMPDEST STOP JUMPDEST PUSH2 0x6F8 PUSH1 0x4 DUP1 CALLDATASIZE SUB PUSH1 0x60 DUP2 LT ISZERO PUSH2 0x6B6 JUMPI PUSH1 0x0 DUP1 REVERT JUMPDEST DUP2 ADD SWAP1 DUP1 DUP1 CALLDATALOAD SWAP1 PUSH1 0x20 ADD SWAP1 SWAP3 SWAP2 SWAP1 DUP1 CALLDATALOAD PUSH20 0xFFFFFFFFFFFFFFFFFFFFFFFFFFFFFFFFFFFFFFFF AND SWAP1 PUSH1 0x20 ADD SWAP1 SWAP3 SWAP2 SWAP1 DUP1 CALLDATALOAD ISZERO ISZERO SWAP1 PUSH1 0x20 ADD SWAP1 SWAP3 SWAP2 SWAP1 POP POP POP PUSH2 0x2E0C JUMP JUMPDEST STOP JUMPDEST PUSH2 0x726 PUSH1 0x4 DUP1 CALLDATASIZE SUB PUSH1 0x20 DUP2 LT ISZERO PUSH2 0x710 JUMPI PUSH1 0x0 DUP1 REVERT JUMPDEST DUP2 ADD SWAP1 DUP1 DUP1 CALLDATALOAD SWAP1 PUSH1 0x20 ADD SWAP1 SWAP3 SWAP2 SWAP1 POP POP POP PUSH2 0x308F JUMP JUMPDEST STOP JUMPDEST PUSH2 0x754 PUSH1 0x4 DUP1 CALLDATASIZE SUB PUSH1 0x20 DUP2 LT ISZERO PUSH2 0x73E JUMPI PUSH1 0x0 DUP1 REVERT JUMPDEST DUP2 ADD SWAP1 DUP1 DUP1 CALLDATALOAD SWAP1 PUSH1 0x20 ADD SWAP1 SWAP3 SWAP2 SWAP1 POP POP POP PUSH2 0x326E JUMP JUMPDEST PUSH1 0x40 MLOAD DUP1 DUP10 ISZERO ISZERO ISZERO ISZERO DUP2 MSTORE PUSH1 0x20 ADD DUP9 DUP2 MSTORE PUSH1 0x20 ADD DUP8 DUP2 MSTORE PUSH1 0x20 ADD DUP7 DUP2 MSTORE PUSH1 0x20 ADD DUP6 DUP2 MSTORE PUSH1 0x20 ADD DUP5 DUP2 MSTORE PUSH1 0x20 ADD DUP4 DUP2 MSTORE PUSH1 0x20 ADD DUP3 DUP2 MSTORE PUSH1 0x20 ADD SWAP9 POP POP POP POP POP POP POP POP POP PUSH1 0x40 MLOAD DUP1 SWAP2 SUB SWAP1 RETURN JUMPDEST PUSH2 0x7F5 PUSH1 0x4 DUP1 CALLDATASIZE SUB PUSH1 0x60 DUP2 LT ISZERO PUSH2 0x7B5 JUMPI PUSH1 0x0 DUP1 REVERT JUMPDEST DUP2 ADD SWAP1 DUP1 DUP1 CALLDATALOAD PUSH20 0xFFFFFFFFFFFFFFFFFFFFFFFFFFFFFFFFFFFFFFFF AND SWAP1 PUSH1 0x20 ADD SWAP1 SWAP3 SWAP2 SWAP1 DUP1 CALLDATALOAD SWAP1 PUSH1 0x20 ADD SWAP1 SWAP3 SWAP2 SWAP1 DUP1 CALLDATALOAD SWAP1 PUSH1 0x20 ADD SWAP1 SWAP3 SWAP2 SWAP1 POP POP POP PUSH2 0x32D0 JUMP JUMPDEST PUSH1 0x40 MLOAD DUP1 DUP3 DUP2 MSTORE PUSH1 0x20 ADD SWAP2 POP POP PUSH1 0x40 MLOAD DUP1 SWAP2 SUB SWAP1 RETURN JUMPDEST PUSH2 0x857 PUSH1 0x4 DUP1 CALLDATASIZE SUB PUSH1 0x40 DUP2 LT ISZERO PUSH2 0x821 JUMPI PUSH1 0x0 DUP1 REVERT JUMPDEST DUP2 ADD SWAP1 DUP1 DUP1 CALLDATALOAD PUSH20 0xFFFFFFFFFFFFFFFFFFFFFFFFFFFFFFFFFFFFFFFF AND SWAP1 PUSH1 0x20 ADD SWAP1 SWAP3 SWAP2 SWAP1 DUP1 CALLDATALOAD SWAP1 PUSH1 0x20 ADD SWAP1 SWAP3 SWAP2 SWAP1 POP POP POP PUSH2 0x3348 JUMP JUMPDEST PUSH1 0x40 MLOAD DUP1 DUP10 DUP2 MSTORE PUSH1 0x20 ADD DUP9 DUP2 MSTORE PUSH1 0x20 ADD DUP8 DUP2 MSTORE PUSH1 0x20 ADD DUP7 DUP2 MSTORE PUSH1 0x20 ADD DUP6 DUP2 MSTORE PUSH1 0x20 ADD DUP5 DUP2 MSTORE PUSH1 0x20 ADD DUP4 DUP2 MSTORE PUSH1 0x20 ADD DUP3 DUP2 MSTORE PUSH1 0x20 ADD SWAP9 POP POP POP POP POP POP POP POP POP PUSH1 0x40 MLOAD DUP1 SWAP2 SUB SWAP1 RETURN JUMPDEST PUSH2 0x8A6 PUSH2 0x33AA JUMP JUMPDEST PUSH1 0x40 MLOAD DUP1 DUP3 PUSH20 0xFFFFFFFFFFFFFFFFFFFFFFFFFFFFFFFFFFFFFFFF AND PUSH20 0xFFFFFFFFFFFFFFFFFFFFFFFFFFFFFFFFFFFFFFFF AND DUP2 MSTORE PUSH1 0x20 ADD SWAP2 POP POP PUSH1 0x40 MLOAD DUP1 SWAP2 SUB SWAP1 RETURN JUMPDEST DUP3 DUP3 PUSH1 0x0 PUSH1 0x6 PUSH1 0x0 DUP5 PUSH20 0xFFFFFFFFFFFFFFFFFFFFFFFFFFFFFFFFFFFFFFFF AND PUSH20 0xFFFFFFFFFFFFFFFFFFFFFFFFFFFFFFFFFFFFFFFF AND DUP2 MSTORE PUSH1 0x20 ADD SWAP1 DUP2 MSTORE PUSH1 0x20 ADD PUSH1 0x0 KECCAK256 DUP3 DUP2 SLOAD DUP2 LT PUSH2 0x936 JUMPI INVALID JUMPDEST SWAP1 PUSH1 0x0 MSTORE PUSH1 0x20 PUSH1 0x0 KECCAK256 SWAP1 PUSH1 0xB MUL ADD SWAP1 POP DUP3 PUSH20 0xFFFFFFFFFFFFFFFFFFFFFFFFFFFFFFFFFFFFFFFF AND CALLER PUSH20 0xFFFFFFFFFFFFFFFFFFFFFFFFFFFFFFFFFFFFFFFF AND EQ PUSH2 0xA3B JUMPI DUP1 PUSH1 0x9 ADD PUSH1 0x0 CALLER PUSH20 0xFFFFFFFFFFFFFFFFFFFFFFFFFFFFFFFFFFFFFFFF AND PUSH20 0xFFFFFFFFFFFFFFFFFFFFFFFFFFFFFFFFFFFFFFFF AND DUP2 MSTORE PUSH1 0x20 ADD SWAP1 DUP2 MSTORE PUSH1 0x20 ADD PUSH1 0x0 KECCAK256 PUSH1 0x0 SWAP1 SLOAD SWAP1 PUSH2 0x100 EXP SWAP1 DIV PUSH1 0xFF AND PUSH2 0xA3A JUMPI PUSH1 0x40 MLOAD PUSH32 0x8C379A000000000000000000000000000000000000000000000000000000000 DUP2 MSTORE PUSH1 0x4 ADD DUP1 DUP1 PUSH1 0x20 ADD DUP3 DUP2 SUB DUP3 MSTORE PUSH1 0x1A DUP2 MSTORE PUSH1 0x20 ADD DUP1 PUSH32 0x6E6F6D696E6174696F6E2073686F756C64206265207468657265000000000000 DUP2 MSTORE POP PUSH1 0x20 ADD SWAP2 POP POP PUSH1 0x40 MLOAD DUP1 SWAP2 SUB SWAP1 REVERT JUMPDEST JUMPDEST PUSH1 0x0 PUSH2 0xA78 DUP8 DUP8 DUP8 DUP11 PUSH20 0xFFFFFFFFFFFFFFFFFFFFFFFFFFFFFFFFFFFFFFFF AND CALLER PUSH20 0xFFFFFFFFFFFFFFFFFFFFFFFFFFFFFFFFFFFFFFFF AND EQ ISZERO PUSH2 0x28E1 JUMP JUMPDEST SWAP1 POP PUSH1 0x0 PUSH1 0x6 PUSH1 0x0 DUP10 PUSH20 0xFFFFFFFFFFFFFFFFFFFFFFFFFFFFFFFFFFFFFFFF AND PUSH20 0xFFFFFFFFFFFFFFFFFFFFFFFFFFFFFFFFFFFFFFFF AND DUP2 MSTORE PUSH1 0x20 ADD SWAP1 DUP2 MSTORE PUSH1 0x20 ADD PUSH1 0x0 KECCAK256 DUP8 DUP2 SLOAD DUP2 LT PUSH2 0xAC6 JUMPI INVALID JUMPDEST SWAP1 PUSH1 0x0 MSTORE PUSH1 0x20 PUSH1 0x0 KECCAK256 SWAP1 PUSH1 0xB MUL ADD SWAP1 POP PUSH1 0x0 DUP2 PUSH1 0x4 ADD SLOAD SWAP1 POP DUP7 DUP3 PUSH1 0x4 ADD DUP2 SWAP1 SSTORE POP PUSH2 0xAFD DUP4 PUSH1 0x3 SLOAD PUSH2 0x33D0 SWAP1 SWAP2 SWAP1 PUSH4 0xFFFFFFFF AND JUMP JUMPDEST PUSH1 0x3 DUP2 SWAP1 SSTORE POP PUSH2 0xB18 DUP4 PUSH1 0x4 SLOAD PUSH2 0x33D0 SWAP1 SWAP2 SWAP1 PUSH4 0xFFFFFFFF AND JUMP JUMPDEST PUSH1 0x4 DUP2 SWAP1 SSTORE POP PUSH1 0x1 PUSH1 0x0 SWAP1 SLOAD SWAP1 PUSH2 0x100 EXP SWAP1 DIV PUSH20 0xFFFFFFFFFFFFFFFFFFFFFFFFFFFFFFFFFFFFFFFF AND PUSH20 0xFFFFFFFFFFFFFFFFFFFFFFFFFFFFFFFFFFFFFFFF AND PUSH4 0xA9059CBB CALLER DUP6 PUSH1 0x40 MLOAD DUP4 PUSH4 0xFFFFFFFF AND PUSH1 0xE0 SHL DUP2 MSTORE PUSH1 0x4 ADD DUP1 DUP4 PUSH20 0xFFFFFFFFFFFFFFFFFFFFFFFFFFFFFFFFFFFFFFFF AND PUSH20 0xFFFFFFFFFFFFFFFFFFFFFFFFFFFFFFFFFFFFFFFF AND DUP2 MSTORE PUSH1 0x20 ADD DUP3 DUP2 MSTORE PUSH1 0x20 ADD SWAP3 POP POP POP PUSH1 0x20 PUSH1 0x40 MLOAD DUP1 DUP4 SUB DUP2 PUSH1 0x0 DUP8 DUP1 EXTCODESIZE ISZERO DUP1 ISZERO PUSH2 0xBC7 JUMPI PUSH1 0x0 DUP1 REVERT JUMPDEST POP GAS CALL ISZERO DUP1 ISZERO PUSH2 0xBDB JUMPI RETURNDATASIZE PUSH1 0x0 DUP1 RETURNDATACOPY RETURNDATASIZE PUSH1 0x0 REVERT JUMPDEST POP POP POP POP PUSH1 0x40 MLOAD RETURNDATASIZE PUSH1 0x20 DUP2 LT ISZERO PUSH2 0xBF1 JUMPI PUSH1 0x0 DUP1 REVERT JUMPDEST DUP2 ADD SWAP1 DUP1 DUP1 MLOAD SWAP1 PUSH1 0x20 ADD SWAP1 SWAP3 SWAP2 SWAP1 POP POP POP POP DUP8 DUP10 PUSH20 0xFFFFFFFFFFFFFFFFFFFFFFFFFFFFFFFFFFFFFFFF AND PUSH32 0x8F4915DB3C6BAFB045A8CA029A06C4D1638DADDB07E111ED35ABF34F81B6A855 PUSH1 0x1 DUP5 ADD DUP11 DUP8 CALLER PUSH1 0x40 MLOAD DUP1 DUP6 DUP2 MSTORE PUSH1 0x20 ADD DUP5 DUP2 MSTORE PUSH1 0x20 ADD DUP4 DUP2 MSTORE PUSH1 0x20 ADD DUP3 PUSH20 0xFFFFFFFFFFFFFFFFFFFFFFFFFFFFFFFFFFFFFFFF AND PUSH20 0xFFFFFFFFFFFFFFFFFFFFFFFFFFFFFFFFFFFFFFFF AND DUP2 MSTORE PUSH1 0x20 ADD SWAP5 POP POP POP POP POP PUSH1 0x40 MLOAD DUP1 SWAP2 SUB SWAP1 LOG3 POP POP POP POP POP POP POP POP POP JUMP JUMPDEST DUP1 PUSH1 0x6 PUSH1 0x0 CALLER PUSH20 0xFFFFFFFFFFFFFFFFFFFFFFFFFFFFFFFFFFFFFFFF AND PUSH20 0xFFFFFFFFFFFFFFFFFFFFFFFFFFFFFFFFFFFFFFFF AND DUP2 MSTORE PUSH1 0x20 ADD SWAP1 DUP2 MSTORE PUSH1 0x20 ADD PUSH1 0x0 KECCAK256 DUP5 DUP2 SLOAD DUP2 LT PUSH2 0xCEF JUMPI INVALID JUMPDEST SWAP1 PUSH1 0x0 MSTORE PUSH1 0x20 PUSH1 0x0 KECCAK256 SWAP1 PUSH1 0xB MUL ADD PUSH1 0x9 ADD PUSH1 0x0 DUP5 PUSH20 0xFFFFFFFFFFFFFFFFFFFFFFFFFFFFFFFFFFFFFFFF AND PUSH20 0xFFFFFFFFFFFFFFFFFFFFFFFFFFFFFFFFFFFFFFFF AND DUP2 MSTORE PUSH1 0x20 ADD SWAP1 DUP2 MSTORE PUSH1 0x20 ADD PUSH1 0x0 KECCAK256 PUSH1 0x0 PUSH2 0x100 EXP DUP2 SLOAD DUP2 PUSH1 0xFF MUL NOT AND SWAP1 DUP4 ISZERO ISZERO MUL OR SWAP1 SSTORE POP DUP2 PUSH20 0xFFFFFFFFFFFFFFFFFFFFFFFFFFFFFFFFFFFFFFFF AND DUP4 CALLER PUSH20 0xFFFFFFFFFFFFFFFFFFFFFFFFFFFFFFFFFFFFFFFF AND PUSH32 0x90E4568F920D8BB093366A04150AA0D04957A471196F5E1CDFB0DB3CB83CC5B0 DUP5 PUSH1 0x40 MLOAD DUP1 DUP3 ISZERO ISZERO ISZERO ISZERO DUP2 MSTORE PUSH1 0x20 ADD SWAP2 POP POP PUSH1 0x40 MLOAD DUP1 SWAP2 SUB SWAP1 LOG4 POP POP POP JUMP JUMPDEST PUSH1 0x2 SLOAD DUP2 JUMP JUMPDEST PUSH1 0x4 SLOAD DUP2 JUMP JUMPDEST PUSH1 0x0 DUP1 SWAP1 SLOAD SWAP1 PUSH2 0x100 EXP SWAP1 DIV PUSH20 0xFFFFFFFFFFFFFFFFFFFFFFFFFFFFFFFFFFFFFFFF AND PUSH20 0xFFFFFFFFFFFFFFFFFFFFFFFFFFFFFFFFFFFFFFFF AND CALLER PUSH20 0xFFFFFFFFFFFFFFFFFFFFFFFFFFFFFFFFFFFFFFFF AND EQ PUSH2 0xE91 JUMPI PUSH1 0x40 MLOAD PUSH32 0x8C379A000000000000000000000000000000000000000000000000000000000 DUP2 MSTORE PUSH1 0x4 ADD DUP1 DUP1 PUSH1 0x20 ADD DUP3 DUP2 SUB DUP3 MSTORE PUSH1 0x16 DUP2 MSTORE PUSH1 0x20 ADD DUP1 PUSH32 0x6F6E6C79206465706C6F7965722063616E2063616C6C00000000000000000000 DUP2 MSTORE POP PUSH1 0x20 ADD SWAP2 POP POP PUSH1 0x40 MLOAD DUP1 SWAP2 SUB SWAP1 REVERT JUMPDEST DUP1 PUSH2 0xEA9 PUSH1 0x3 SLOAD PUSH1 0x4 SLOAD PUSH2 0x33D0 SWAP1 SWAP2 SWAP1 PUSH4 0xFFFFFFFF AND JUMP JUMPDEST LT ISZERO PUSH2 0xF1D JUMPI PUSH1 0x40 MLOAD PUSH32 0x8C379A000000000000000000000000000000000000000000000000000000000 DUP2 MSTORE PUSH1 0x4 ADD DUP1 DUP1 PUSH1 0x20 ADD DUP3 DUP2 SUB DUP3 MSTORE PUSH1 0x1C DUP2 MSTORE PUSH1 0x20 ADD DUP1 PUSH32 0x63616E6E6F74207769746864726177206578636573732066756E647300000000 DUP2 MSTORE POP PUSH1 0x20 ADD SWAP2 POP POP PUSH1 0x40 MLOAD DUP1 SWAP2 SUB SWAP1 REVERT JUMPDEST PUSH2 0xF32 DUP2 PUSH1 0x4 SLOAD PUSH2 0x33D0 SWAP1 SWAP2 SWAP1 PUSH4 0xFFFFFFFF AND JUMP JUMPDEST PUSH1 0x4 DUP2 SWAP1 SSTORE POP PUSH1 0x1 PUSH1 0x0 SWAP1 SLOAD SWAP1 PUSH2 0x100 EXP SWAP1 DIV PUSH20 0xFFFFFFFFFFFFFFFFFFFFFFFFFFFFFFFFFFFFFFFF AND PUSH20 0xFFFFFFFFFFFFFFFFFFFFFFFFFFFFFFFFFFFFFFFF AND PUSH4 0xA9059CBB CALLER DUP4 PUSH1 0x40 MLOAD DUP4 PUSH4 0xFFFFFFFF AND PUSH1 0xE0 SHL DUP2 MSTORE PUSH1 0x4 ADD DUP1 DUP4 PUSH20 0xFFFFFFFFFFFFFFFFFFFFFFFFFFFFFFFFFFFFFFFF AND PUSH20 0xFFFFFFFFFFFFFFFFFFFFFFFFFFFFFFFFFFFFFFFF AND DUP2 MSTORE PUSH1 0x20 ADD DUP3 DUP2 MSTORE PUSH1 0x20 ADD SWAP3 POP POP POP PUSH1 0x20 PUSH1 0x40 MLOAD DUP1 DUP4 SUB DUP2 PUSH1 0x0 DUP8 DUP1 EXTCODESIZE ISZERO DUP1 ISZERO PUSH2 0xFE1 JUMPI PUSH1 0x0 DUP1 REVERT JUMPDEST POP GAS CALL ISZERO DUP1 ISZERO PUSH2 0xFF5 JUMPI RETURNDATASIZE PUSH1 0x0 DUP1 RETURNDATACOPY RETURNDATASIZE PUSH1 0x0 REVERT JUMPDEST POP POP POP POP PUSH1 0x40 MLOAD RETURNDATASIZE PUSH1 0x20 DUP2 LT ISZERO PUSH2 0x100B JUMPI PUSH1 0x0 DUP1 REVERT JUMPDEST DUP2 ADD SWAP1 DUP1 DUP1 MLOAD SWAP1 PUSH1 0x20 ADD SWAP1 SWAP3 SWAP2 SWAP1 POP POP POP POP PUSH32 0x4A37B25AAB49761ECF63117FE82B98D750917451133CF797507BC9FB5B96044A DUP2 PUSH1 0x40 MLOAD DUP1 DUP3 DUP2 MSTORE PUSH1 0x20 ADD SWAP2 POP POP PUSH1 0x40 MLOAD DUP1 SWAP2 SUB SWAP1 LOG1 POP JUMP JUMPDEST PUSH1 0x3 SLOAD DUP2 JUMP JUMPDEST DUP2 DUP2 PUSH1 0x0 PUSH1 0x6 PUSH1 0x0 DUP5 PUSH20 0xFFFFFFFFFFFFFFFFFFFFFFFFFFFFFFFFFFFFFFFF AND PUSH20 0xFFFFFFFFFFFFFFFFFFFFFFFFFFFFFFFFFFFFFFFF AND DUP2 MSTORE PUSH1 0x20 ADD SWAP1 DUP2 MSTORE PUSH1 0x20 ADD PUSH1 0x0 KECCAK256 DUP3 DUP2 SLOAD DUP2 LT PUSH2 0x10AB JUMPI INVALID JUMPDEST SWAP1 PUSH1 0x0 MSTORE PUSH1 0x20 PUSH1 0x0 KECCAK256 SWAP1 PUSH1 0xB MUL ADD SWAP1 POP DUP3 PUSH20 0xFFFFFFFFFFFFFFFFFFFFFFFFFFFFFFFFFFFFFFFF AND CALLER PUSH20 0xFFFFFFFFFFFFFFFFFFFFFFFFFFFFFFFFFFFFFFFF AND EQ PUSH2 0x11B0 JUMPI DUP1 PUSH1 0x9 ADD PUSH1 0x0 CALLER PUSH20 0xFFFFFFFFFFFFFFFFFFFFFFFFFFFFFFFFFFFFFFFF AND PUSH20 0xFFFFFFFFFFFFFFFFFFFFFFFFFFFFFFFFFFFFFFFF AND DUP2 MSTORE PUSH1 0x20 ADD SWAP1 DUP2 MSTORE PUSH1 0x20 ADD PUSH1 0x0 KECCAK256 PUSH1 0x0 SWAP1 SLOAD SWAP1 PUSH2 0x100 EXP SWAP1 DIV PUSH1 0xFF AND PUSH2 0x11AF JUMPI PUSH1 0x40 MLOAD PUSH32 0x8C379A000000000000000000000000000000000000000000000000000000000 DUP2 MSTORE PUSH1 0x4 ADD DUP1 DUP1 PUSH1 0x20 ADD DUP3 DUP2 SUB DUP3 MSTORE PUSH1 0x1A DUP2 MSTORE PUSH1 0x20 ADD DUP1 PUSH32 0x6E6F6D696E6174696F6E2073686F756C64206265207468657265000000000000 DUP2 MSTORE POP PUSH1 0x20 ADD SWAP2 POP POP PUSH1 0x40 MLOAD DUP1 SWAP2 SUB SWAP1 REVERT JUMPDEST JUMPDEST PUSH1 0x0 PUSH1 0x6 PUSH1 0x0 DUP8 PUSH20 0xFFFFFFFFFFFFFFFFFFFFFFFFFFFFFFFFFFFFFFFF AND PUSH20 0xFFFFFFFFFFFFFFFFFFFFFFFFFFFFFFFFFFFFFFFF AND DUP2 MSTORE PUSH1 0x20 ADD SWAP1 DUP2 MSTORE PUSH1 0x20 ADD PUSH1 0x0 KECCAK256 DUP6 DUP2 SLOAD DUP2 LT PUSH2 0x11FC JUMPI INVALID JUMPDEST SWAP1 PUSH1 0x0 MSTORE PUSH1 0x20 PUSH1 0x0 KECCAK256 SWAP1 PUSH1 0xB MUL ADD SWAP1 POP PUSH1 0x0 PUSH1 0x1 DUP3 PUSH1 0x5 ADD SLOAD ADD SWAP1 POP PUSH1 0x3 DUP2 GT ISZERO PUSH2 0x128F JUMPI PUSH1 0x40 MLOAD PUSH32 0x8C379A000000000000000000000000000000000000000000000000000000000 DUP2 MSTORE PUSH1 0x4 ADD DUP1 DUP1 PUSH1 0x20 ADD DUP3 DUP2 SUB DUP3 MSTORE PUSH1 0x15 DUP2 MSTORE PUSH1 0x20 ADD DUP1 PUSH32 0x6F6E6C79203320706F77657220626F6F73746572730000000000000000000000 DUP2 MSTORE POP PUSH1 0x20 ADD SWAP2 POP POP PUSH1 0x40 MLOAD DUP1 SWAP2 SUB SWAP1 REVERT JUMPDEST PUSH1 0x0 PUSH1 0x2 SLOAD PUSH1 0x3 DUP4 PUSH1 0x2 SLOAD PUSH1 0xC PUSH1 0x5 DUP9 PUSH1 0x0 ADD SLOAD DUP2 SLOAD DUP2 LT PUSH2 0x12AD JUMPI INVALID JUMPDEST SWAP1 PUSH1 0x0 MSTORE PUSH1 0x20 PUSH1 0x0 KECCAK256 SWAP1 PUSH1 0x8 MUL ADD PUSH1 0x3 ADD SLOAD MUL MUL MUL DUP2 PUSH2 0x12C9 JUMPI INVALID JUMPDEST DIV PUSH1 0x2 SLOAD PUSH1 0x5 DUP7 PUSH1 0x0 ADD SLOAD DUP2 SLOAD DUP2 LT PUSH2 0x12DE JUMPI INVALID JUMPDEST SWAP1 PUSH1 0x0 MSTORE PUSH1 0x20 PUSH1 0x0 KECCAK256 SWAP1 PUSH1 0x8 MUL ADD PUSH1 0x2 ADD SLOAD MUL DUP6 PUSH1 0x1 ADD SLOAD ADD ADD SUB SWAP1 POP DUP8 PUSH20 0xFFFFFFFFFFFFFFFFFFFFFFFFFFFFFFFFFFFFFFFF AND CALLER PUSH20 0xFFFFFFFFFFFFFFFFFFFFFFFFFFFFFFFFFFFFFFFF AND EQ PUSH2 0x136C JUMPI PUSH2 0x1346 PUSH1 0x2 DUP5 PUSH1 0x6 ADD SLOAD PUSH2 0x341A SWAP1 SWAP2 SWAP1 PUSH4 0xFFFFFFFF AND JUMP JUMPDEST DUP4 PUSH1 0x7 ADD SLOAD GT ISZERO PUSH2 0x1360 JUMPI PUSH1 0x6 PUSH1 0x2 SLOAD MUL DUP2 ADD SWAP1 POP PUSH2 0x136B JUMP JUMPDEST PUSH1 0xC PUSH1 0x2 SLOAD MUL DUP2 ADD SWAP1 POP JUMPDEST JUMPDEST DUP1 TIMESTAMP GT PUSH2 0x13E1 JUMPI PUSH1 0x40 MLOAD PUSH32 0x8C379A000000000000000000000000000000000000000000000000000000000 DUP2 MSTORE PUSH1 0x4 ADD DUP1 DUP1 PUSH1 0x20 ADD DUP3 DUP2 SUB DUP3 MSTORE PUSH1 0x15 DUP2 MSTORE PUSH1 0x20 ADD DUP1 PUSH32 0x63616E6E6F74207769746864726177206561726C790000000000000000000000 DUP2 MSTORE POP PUSH1 0x20 ADD SWAP2 POP POP PUSH1 0x40 MLOAD DUP1 SWAP2 SUB SWAP1 REVERT JUMPDEST DUP2 DUP4 PUSH1 0x5 ADD DUP2 SWAP1 SSTORE POP PUSH1 0x0 PUSH2 0x1404 PUSH1 0x3 DUP6 PUSH1 0x3 ADD SLOAD PUSH2 0x341A SWAP1 SWAP2 SWAP1 PUSH4 0xFFFFFFFF AND JUMP JUMPDEST SWAP1 POP PUSH1 0x1 DUP4 EQ ISZERO PUSH2 0x157E JUMPI PUSH1 0x0 DUP1 PUSH1 0x1 SWAP1 POP JUMPDEST PUSH1 0x5 DUP7 PUSH1 0x0 ADD SLOAD DUP2 SLOAD DUP2 LT PUSH2 0x1428 JUMPI INVALID JUMPDEST SWAP1 PUSH1 0x0 MSTORE PUSH1 0x20 PUSH1 0x0 KECCAK256 SWAP1 PUSH1 0x8 MUL ADD PUSH1 0x2 ADD SLOAD DUP2 GT PUSH2 0x14DE JUMPI PUSH1 0x0 DUP7 PUSH1 0x8 ADD PUSH1 0x0 DUP4 DUP2 MSTORE PUSH1 0x20 ADD SWAP1 DUP2 MSTORE PUSH1 0x20 ADD PUSH1 0x0 KECCAK256 SLOAD EQ ISZERO PUSH2 0x148A JUMPI PUSH1 0x5 DUP7 PUSH1 0x0 ADD SLOAD DUP2 SLOAD DUP2 LT PUSH2 0x146F JUMPI INVALID JUMPDEST SWAP1 PUSH1 0x0 MSTORE PUSH1 0x20 PUSH1 0x0 KECCAK256 SWAP1 PUSH1 0x8 MUL ADD PUSH1 0x7 ADD SLOAD DUP3 ADD SWAP2 POP PUSH2 0x14D1 JUMP JUMPDEST PUSH1 0x1 DUP7 PUSH1 0x8 ADD PUSH1 0x0 DUP4 DUP2 MSTORE PUSH1 0x20 ADD SWAP1 DUP2 MSTORE PUSH1 0x20 ADD PUSH1 0x0 KECCAK256 SLOAD EQ ISZERO PUSH2 0x14D0 JUMPI PUSH1 0x5 DUP7 PUSH1 0x0 ADD SLOAD DUP2 SLOAD DUP2 LT PUSH2 0x14B9 JUMPI INVALID JUMPDEST SWAP1 PUSH1 0x0 MSTORE PUSH1 0x20 PUSH1 0x0 KECCAK256 SWAP1 PUSH1 0x8 MUL ADD PUSH1 0x6 ADD SLOAD DUP3 ADD SWAP2 POP JUMPDEST JUMPDEST DUP1 DUP1 PUSH1 0x1 ADD SWAP2 POP POP PUSH2 0x1417 JUMP JUMPDEST POP PUSH1 0x0 PUSH2 0x1508 PUSH2 0x3E8 PUSH2 0x14FA DUP5 DUP7 PUSH2 0x3464 SWAP1 SWAP2 SWAP1 PUSH4 0xFFFFFFFF AND JUMP JUMPDEST PUSH2 0x341A SWAP1 SWAP2 SWAP1 PUSH4 0xFFFFFFFF AND JUMP JUMPDEST SWAP1 POP PUSH1 0x0 DUP2 GT ISZERO PUSH2 0x157B JUMPI PUSH2 0x1528 DUP2 PUSH1 0x4 SLOAD PUSH2 0x34EA SWAP1 SWAP2 SWAP1 PUSH4 0xFFFFFFFF AND JUMP JUMPDEST PUSH1 0x4 DUP2 SWAP1 SSTORE POP PUSH32 0x7CB5D45C1071F219BD2DA1EA101758715BD52F23F2A707F2D9A0387DEA18D906 DUP2 PUSH1 0x40 MLOAD DUP1 DUP3 DUP2 MSTORE PUSH1 0x20 ADD SWAP2 POP POP PUSH1 0x40 MLOAD DUP1 SWAP2 SUB SWAP1 LOG1 PUSH2 0x1578 DUP2 DUP5 PUSH2 0x33D0 SWAP1 SWAP2 SWAP1 PUSH4 0xFFFFFFFF AND JUMP JUMPDEST SWAP3 POP JUMPDEST POP POP JUMPDEST PUSH1 0x1 PUSH1 0x0 SWAP1 SLOAD SWAP1 PUSH2 0x100 EXP SWAP1 DIV PUSH20 0xFFFFFFFFFFFFFFFFFFFFFFFFFFFFFFFFFFFFFFFF AND PUSH20 0xFFFFFFFFFFFFFFFFFFFFFFFFFFFFFFFFFFFFFFFF AND PUSH4 0xA9059CBB CALLER DUP4 PUSH1 0x40 MLOAD DUP4 PUSH4 0xFFFFFFFF AND PUSH1 0xE0 SHL DUP2 MSTORE PUSH1 0x4 ADD DUP1 DUP4 PUSH20 0xFFFFFFFFFFFFFFFFFFFFFFFFFFFFFFFFFFFFFFFF AND PUSH20 0xFFFFFFFFFFFFFFFFFFFFFFFFFFFFFFFFFFFFFFFF AND DUP2 MSTORE PUSH1 0x20 ADD DUP3 DUP2 MSTORE PUSH1 0x20 ADD SWAP3 POP POP POP PUSH1 0x20 PUSH1 0x40 MLOAD DUP1 DUP4 SUB DUP2 PUSH1 0x0 DUP8 DUP1 EXTCODESIZE ISZERO DUP1 ISZERO PUSH2 0x1627 JUMPI PUSH1 0x0 DUP1 REVERT JUMPDEST POP GAS CALL ISZERO DUP1 ISZERO PUSH2 0x163B JUMPI RETURNDATASIZE PUSH1 0x0 DUP1 RETURNDATACOPY RETURNDATASIZE PUSH1 0x0 REVERT JUMPDEST POP POP POP POP PUSH1 0x40 MLOAD RETURNDATASIZE PUSH1 0x20 DUP2 LT ISZERO PUSH2 0x1651 JUMPI PUSH1 0x0 DUP1 REVERT JUMPDEST DUP2 ADD SWAP1 DUP1 DUP1 MLOAD SWAP1 PUSH1 0x20 ADD SWAP1 SWAP3 SWAP2 SWAP1 POP POP POP POP DUP8 DUP10 PUSH20 0xFFFFFFFFFFFFFFFFFFFFFFFFFFFFFFFFFFFFFFFF AND PUSH32 0xA1C568EF1602BC58C1E32EA2F1251B87874DCE947F5D4F4DF53677D06D5BF56D DUP6 DUP5 CALLER PUSH1 0x40 MLOAD DUP1 DUP5 DUP2 MSTORE PUSH1 0x20 ADD DUP4 DUP2 MSTORE PUSH1 0x20 ADD DUP3 PUSH20 0xFFFFFFFFFFFFFFFFFFFFFFFFFFFFFFFFFFFFFFFF AND PUSH20 0xFFFFFFFFFFFFFFFFFFFFFFFFFFFFFFFFFFFFFFFF AND DUP2 MSTORE PUSH1 0x20 ADD SWAP4 POP POP POP POP PUSH1 0x40 MLOAD DUP1 SWAP2 SUB SWAP1 LOG3 POP POP POP POP POP POP POP POP POP JUMP JUMPDEST PUSH1 0x0 DUP1 SWAP1 SLOAD SWAP1 PUSH2 0x100 EXP SWAP1 DIV PUSH20 0xFFFFFFFFFFFFFFFFFFFFFFFFFFFFFFFFFFFFFFFF AND PUSH20 0xFFFFFFFFFFFFFFFFFFFFFFFFFFFFFFFFFFFFFFFF AND CALLER PUSH20 0xFFFFFFFFFFFFFFFFFFFFFFFFFFFFFFFFFFFFFFFF AND EQ PUSH2 0x17BB JUMPI PUSH1 0x40 MLOAD PUSH32 0x8C379A000000000000000000000000000000000000000000000000000000000 DUP2 MSTORE PUSH1 0x4 ADD DUP1 DUP1 PUSH1 0x20 ADD DUP3 DUP2 SUB DUP3 MSTORE PUSH1 0x16 DUP2 MSTORE PUSH1 0x20 ADD DUP1 PUSH32 0x6F6E6C79206465706C6F7965722063616E2063616C6C00000000000000000000 DUP2 MSTORE POP PUSH1 0x20 ADD SWAP2 POP POP PUSH1 0x40 MLOAD DUP1 SWAP2 SUB SWAP1 REVERT JUMPDEST PUSH1 0x5 PUSH1 0x40 MLOAD DUP1 PUSH2 0x100 ADD PUSH1 0x40 MSTORE DUP1 PUSH1 0x1 ISZERO ISZERO DUP2 MSTORE PUSH1 0x20 ADD DUP10 DUP2 MSTORE PUSH1 0x20 ADD DUP9 DUP2 MSTORE PUSH1 0x20 ADD DUP8 DUP2 MSTORE PUSH1 0x20 ADD DUP7 DUP2 MSTORE PUSH1 0x20 ADD DUP6 DUP2 MSTORE PUSH1 0x20 ADD DUP5 DUP2 MSTORE PUSH1 0x20 ADD DUP4 DUP2 MSTORE POP SWAP1 DUP1 PUSH1 0x1 DUP2 SLOAD ADD DUP1 DUP3 SSTORE DUP1 SWAP2 POP POP SWAP1 PUSH1 0x1 DUP3 SUB SWAP1 PUSH1 0x0 MSTORE PUSH1 0x20 PUSH1 0x0 KECCAK256 SWAP1 PUSH1 0x8 MUL ADD PUSH1 0x0 SWAP1 SWAP2 SWAP3 SWAP1 SWAP2 SWAP1 SWAP2 POP PUSH1 0x0 DUP3 ADD MLOAD DUP2 PUSH1 0x0 ADD PUSH1 0x0 PUSH2 0x100 EXP DUP2 SLOAD DUP2 PUSH1 0xFF MUL NOT AND SWAP1 DUP4 ISZERO ISZERO MUL OR SWAP1 SSTORE POP PUSH1 0x20 DUP3 ADD MLOAD DUP2 PUSH1 0x1 ADD SSTORE PUSH1 0x40 DUP3 ADD MLOAD DUP2 PUSH1 0x2 ADD SSTORE PUSH1 0x60 DUP3 ADD MLOAD DUP2 PUSH1 0x3 ADD SSTORE PUSH1 0x80 DUP3 ADD MLOAD DUP2 PUSH1 0x4 ADD SSTORE PUSH1 0xA0 DUP3 ADD MLOAD DUP2 PUSH1 0x5 ADD SSTORE PUSH1 0xC0 DUP3 ADD MLOAD DUP2 PUSH1 0x6 ADD SSTORE PUSH1 0xE0 DUP3 ADD MLOAD DUP2 PUSH1 0x7 ADD SSTORE POP POP POP POP POP POP POP POP POP POP JUMP JUMPDEST PUSH1 0x0 PUSH1 0x6 PUSH1 0x0 DUP6 PUSH20 0xFFFFFFFFFFFFFFFFFFFFFFFFFFFFFFFFFFFFFFFF AND PUSH20 0xFFFFFFFFFFFFFFFFFFFFFFFFFFFFFFFFFFFFFFFF AND DUP2 MSTORE PUSH1 0x20 ADD SWAP1 DUP2 MSTORE PUSH1 0x20 ADD PUSH1 0x0 KECCAK256 DUP4 DUP2 SLOAD DUP2 LT PUSH2 0x18E3 JUMPI INVALID JUMPDEST SWAP1 PUSH1 0x0 MSTORE PUSH1 0x20 PUSH1 0x0 KECCAK256 SWAP1 PUSH1 0xB MUL ADD PUSH1 0x9 ADD PUSH1 0x0 DUP4 PUSH20 0xFFFFFFFFFFFFFFFFFFFFFFFFFFFFFFFFFFFFFFFF AND PUSH20 0xFFFFFFFFFFFFFFFFFFFFFFFFFFFFFFFFFFFFFFFF AND DUP2 MSTORE PUSH1 0x20 ADD SWAP1 DUP2 MSTORE PUSH1 0x20 ADD PUSH1 0x0 KECCAK256 PUSH1 0x0 SWAP1 SLOAD SWAP1 PUSH2 0x100 EXP SWAP1 DIV PUSH1 0xFF AND SWAP1 POP SWAP4 SWAP3 POP POP POP JUMP JUMPDEST PUSH1 0x5 DUP3 DUP2 SLOAD DUP2 LT PUSH2 0x1955 JUMPI INVALID JUMPDEST SWAP1 PUSH1 0x0 MSTORE PUSH1 0x20 PUSH1 0x0 KECCAK256 SWAP1 PUSH1 0x8 MUL ADD PUSH1 0x0 ADD PUSH1 0x0 SWAP1 SLOAD SWAP1 PUSH2 0x100 EXP SWAP1 DIV PUSH1 0xFF AND PUSH2 0x19E6 JUMPI PUSH1 0x40 MLOAD PUSH32 0x8C379A000000000000000000000000000000000000000000000000000000000 DUP2 MSTORE PUSH1 0x4 ADD DUP1 DUP1 PUSH1 0x20 ADD DUP3 DUP2 SUB DUP3 MSTORE PUSH1 0x16 DUP2 MSTORE PUSH1 0x20 ADD DUP1 PUSH32 0x73697020706C616E206973206E6F742061637469766500000000000000000000 DUP2 MSTORE POP PUSH1 0x20 ADD SWAP2 POP POP PUSH1 0x40 MLOAD DUP1 SWAP2 SUB SWAP1 REVERT JUMPDEST PUSH1 0x5 DUP3 DUP2 SLOAD DUP2 LT PUSH2 0x19F3 JUMPI INVALID JUMPDEST SWAP1 PUSH1 0x0 MSTORE PUSH1 0x20 PUSH1 0x0 KECCAK256 SWAP1 PUSH1 0x8 MUL ADD PUSH1 0x1 ADD SLOAD DUP2 LT ISZERO PUSH2 0x1A7A JUMPI PUSH1 0x40 MLOAD PUSH32 0x8C379A000000000000000000000000000000000000000000000000000000000 DUP2 MSTORE PUSH1 0x4 ADD DUP1 DUP1 PUSH1 0x20 ADD DUP3 DUP2 SUB DUP3 MSTORE PUSH1 0x20 DUP2 MSTORE PUSH1 0x20 ADD DUP1 PUSH32 0x616D6F756E742073686F756C642062652061746C65617374206D696E696D756D DUP2 MSTORE POP PUSH1 0x20 ADD SWAP2 POP POP PUSH1 0x40 MLOAD DUP1 SWAP2 SUB SWAP1 REVERT JUMPDEST PUSH1 0x0 PUSH2 0x1AF1 PUSH1 0x5 DUP5 DUP2 SLOAD DUP2 LT PUSH2 0x1A8C JUMPI INVALID JUMPDEST SWAP1 PUSH1 0x0 MSTORE PUSH1 0x20 PUSH1 0x0 KECCAK256 SWAP1 PUSH1 0x8 MUL ADD PUSH1 0x3 ADD SLOAD PUSH2 0x1AE3 PUSH2 0x3E8 PUSH2 0x1AD5 PUSH1 0x5 DUP9 DUP2 SLOAD DUP2 LT PUSH2 0x1AB4 JUMPI INVALID JUMPDEST SWAP1 PUSH1 0x0 MSTORE PUSH1 0x20 PUSH1 0x0 KECCAK256 SWAP1 PUSH1 0x8 MUL ADD PUSH1 0x5 ADD SLOAD DUP8 PUSH2 0x3464 SWAP1 SWAP2 SWAP1 PUSH4 0xFFFFFFFF AND JUMP JUMPDEST PUSH2 0x341A SWAP1 SWAP2 SWAP1 PUSH4 0xFFFFFFFF AND JUMP JUMPDEST PUSH2 0x3464 SWAP1 SWAP2 SWAP1 PUSH4 0xFFFFFFFF AND JUMP JUMPDEST SWAP1 POP PUSH2 0x1B08 PUSH1 0x3 SLOAD DUP3 PUSH2 0x34EA SWAP1 SWAP2 SWAP1 PUSH4 0xFFFFFFFF AND JUMP JUMPDEST PUSH1 0x4 SLOAD LT ISZERO PUSH2 0x1B62 JUMPI PUSH1 0x40 MLOAD PUSH32 0x8C379A000000000000000000000000000000000000000000000000000000000 DUP2 MSTORE PUSH1 0x4 ADD DUP1 DUP1 PUSH1 0x20 ADD DUP3 DUP2 SUB DUP3 MSTORE PUSH1 0x35 DUP2 MSTORE PUSH1 0x20 ADD DUP1 PUSH2 0x373D PUSH1 0x35 SWAP2 CODECOPY PUSH1 0x40 ADD SWAP2 POP POP PUSH1 0x40 MLOAD DUP1 SWAP2 SUB SWAP1 REVERT JUMPDEST PUSH1 0x1 PUSH1 0x0 SWAP1 SLOAD SWAP1 PUSH2 0x100 EXP SWAP1 DIV PUSH20 0xFFFFFFFFFFFFFFFFFFFFFFFFFFFFFFFFFFFFFFFF AND PUSH20 0xFFFFFFFFFFFFFFFFFFFFFFFFFFFFFFFFFFFFFFFF AND PUSH4 0x23B872DD CALLER ADDRESS DUP6 PUSH1 0x40 MLOAD DUP5 PUSH4 0xFFFFFFFF AND PUSH1 0xE0 SHL DUP2 MSTORE PUSH1 0x4 ADD DUP1 DUP5 PUSH20 0xFFFFFFFFFFFFFFFFFFFFFFFFFFFFFFFFFFFFFFFF AND PUSH20 0xFFFFFFFFFFFFFFFFFFFFFFFFFFFFFFFFFFFFFFFF AND DUP2 MSTORE PUSH1 0x20 ADD DUP4 PUSH20 0xFFFFFFFFFFFFFFFFFFFFFFFFFFFFFFFFFFFFFFFF AND PUSH20 0xFFFFFFFFFFFFFFFFFFFFFFFFFFFFFFFFFFFFFFFF AND DUP2 MSTORE PUSH1 0x20 ADD DUP3 DUP2 MSTORE PUSH1 0x20 ADD SWAP4 POP POP POP POP PUSH1 0x20 PUSH1 0x40 MLOAD DUP1 DUP4 SUB DUP2 PUSH1 0x0 DUP8 DUP1 EXTCODESIZE ISZERO DUP1 ISZERO PUSH2 0x1C3F JUMPI PUSH1 0x0 DUP1 REVERT JUMPDEST POP GAS CALL ISZERO DUP1 ISZERO PUSH2 0x1C53 JUMPI RETURNDATASIZE PUSH1 0x0 DUP1 RETURNDATACOPY RETURNDATASIZE PUSH1 0x0 REVERT JUMPDEST POP POP POP POP PUSH1 0x40 MLOAD RETURNDATASIZE PUSH1 0x20 DUP2 LT ISZERO PUSH2 0x1C69 JUMPI PUSH1 0x0 DUP1 REVERT JUMPDEST DUP2 ADD SWAP1 DUP1 DUP1 MLOAD SWAP1 PUSH1 0x20 ADD SWAP1 SWAP3 SWAP2 SWAP1 POP POP POP PUSH2 0x1C83 JUMPI PUSH1 0x0 DUP1 REVERT JUMPDEST PUSH1 0x6 PUSH1 0x0 CALLER PUSH20 0xFFFFFFFFFFFFFFFFFFFFFFFFFFFFFFFFFFFFFFFF AND PUSH20 0xFFFFFFFFFFFFFFFFFFFFFFFFFFFFFFFFFFFFFFFF AND DUP2 MSTORE PUSH1 0x20 ADD SWAP1 DUP2 MSTORE PUSH1 0x20 ADD PUSH1 0x0 KECCAK256 PUSH1 0x40 MLOAD DUP1 PUSH2 0x100 ADD PUSH1 0x40 MSTORE DUP1 DUP6 DUP2 MSTORE PUSH1 0x20 ADD TIMESTAMP DUP2 MSTORE PUSH1 0x20 ADD DUP5 DUP2 MSTORE PUSH1 0x20 ADD DUP5 DUP2 MSTORE PUSH1 0x20 ADD PUSH1 0x0 DUP2 MSTORE PUSH1 0x20 ADD PUSH1 0x0 DUP2 MSTORE PUSH1 0x20 ADD PUSH1 0x0 DUP2 MSTORE PUSH1 0x20 ADD PUSH1 0x0 DUP2 MSTORE POP SWAP1 DUP1 PUSH1 0x1 DUP2 SLOAD ADD DUP1 DUP3 SSTORE DUP1 SWAP2 POP POP SWAP1 PUSH1 0x1 DUP3 SUB SWAP1 PUSH1 0x0 MSTORE PUSH1 0x20 PUSH1 0x0 KECCAK256 SWAP1 PUSH1 0xB MUL ADD PUSH1 0x0 SWAP1 SWAP2 SWAP3 SWAP1 SWAP2 SWAP1 SWAP2 POP PUSH1 0x0 DUP3 ADD MLOAD DUP2 PUSH1 0x0 ADD SSTORE PUSH1 0x20 DUP3 ADD MLOAD DUP2 PUSH1 0x1 ADD SSTORE PUSH1 0x40 DUP3 ADD MLOAD DUP2 PUSH1 0x2 ADD SSTORE PUSH1 0x60 DUP3 ADD MLOAD DUP2 PUSH1 0x3 ADD SSTORE PUSH1 0x80 DUP3 ADD MLOAD DUP2 PUSH1 0x4 ADD SSTORE PUSH1 0xA0 DUP3 ADD MLOAD DUP2 PUSH1 0x5 ADD SSTORE PUSH1 0xC0 DUP3 ADD MLOAD DUP2 PUSH1 0x6 ADD SSTORE PUSH1 0xE0 DUP3 ADD MLOAD DUP2 PUSH1 0x7 ADD SSTORE POP POP POP PUSH1 0x0 PUSH1 0x1 PUSH1 0x6 PUSH1 0x0 CALLER PUSH20 0xFFFFFFFFFFFFFFFFFFFFFFFFFFFFFFFFFFFFFFFF AND PUSH20 0xFFFFFFFFFFFFFFFFFFFFFFFFFFFFFFFFFFFFFFFF AND DUP2 MSTORE PUSH1 0x20 ADD SWAP1 DUP2 MSTORE PUSH1 0x20 ADD PUSH1 0x0 KECCAK256 DUP1 SLOAD SWAP1 POP SUB SWAP1 POP PUSH1 0x2 PUSH1 0x6 PUSH1 0x0 CALLER PUSH20 0xFFFFFFFFFFFFFFFFFFFFFFFFFFFFFFFFFFFFFFFF AND PUSH20 0xFFFFFFFFFFFFFFFFFFFFFFFFFFFFFFFFFFFFFFFF AND DUP2 MSTORE PUSH1 0x20 ADD SWAP1 DUP2 MSTORE PUSH1 0x20 ADD PUSH1 0x0 KECCAK256 DUP3 DUP2 SLOAD DUP2 LT PUSH2 0x1E14 JUMPI INVALID JUMPDEST SWAP1 PUSH1 0x0 MSTORE PUSH1 0x20 PUSH1 0x0 KECCAK256 SWAP1 PUSH1 0xB MUL ADD PUSH1 0x8 ADD PUSH1 0x0 PUSH1 0x1 DUP2 MSTORE PUSH1 0x20 ADD SWAP1 DUP2 MSTORE PUSH1 0x20 ADD PUSH1 0x0 KECCAK256 DUP2 SWAP1 SSTORE POP PUSH2 0x1E50 DUP3 PUSH1 0x3 SLOAD PUSH2 0x34EA SWAP1 SWAP2 SWAP1 PUSH4 0xFFFFFFFF AND JUMP JUMPDEST PUSH1 0x3 DUP2 SWAP1 SSTORE POP CALLER PUSH20 0xFFFFFFFFFFFFFFFFFFFFFFFFFFFFFFFFFFFFFFFF AND PUSH32 0x1DEC97FC36AA6DFA81B208EC37B3AC8DAE30717F0622F9CFB2E7223DC95326EC PUSH1 0x1 PUSH1 0x6 PUSH1 0x0 CALLER PUSH20 0xFFFFFFFFFFFFFFFFFFFFFFFFFFFFFFFFFFFFFFFF AND PUSH20 0xFFFFFFFFFFFFFFFFFFFFFFFFFFFFFFFFFFFFFFFF AND DUP2 MSTORE PUSH1 0x20 ADD SWAP1 DUP2 MSTORE PUSH1 0x20 ADD PUSH1 0x0 KECCAK256 DUP1 SLOAD SWAP1 POP SUB DUP6 PUSH1 0x40 MLOAD DUP1 DUP4 DUP2 MSTORE PUSH1 0x20 ADD DUP3 DUP2 MSTORE PUSH1 0x20 ADD SWAP3 POP POP POP PUSH1 0x40 MLOAD DUP1 SWAP2 SUB SWAP1 LOG2 DUP1 CALLER PUSH20 0xFFFFFFFFFFFFFFFFFFFFFFFFFFFFFFFFFFFFFFFF AND PUSH32 0xBAF4C88598102708C4215D5D3767268130627355850B7ECE9BDFDC32FD2941F0 PUSH1 0x1 DUP7 DUP7 CALLER PUSH1 0x40 MLOAD DUP1 DUP6 DUP2 MSTORE PUSH1 0x20 ADD DUP5 DUP2 MSTORE PUSH1 0x20 ADD DUP4 DUP2 MSTORE PUSH1 0x20 ADD DUP3 PUSH20 0xFFFFFFFFFFFFFFFFFFFFFFFFFFFFFFFFFFFFFFFF AND PUSH20 0xFFFFFFFFFFFFFFFFFFFFFFFFFFFFFFFFFFFFFFFF AND DUP2 MSTORE PUSH1 0x20 ADD SWAP5 POP POP POP POP POP PUSH1 0x40 MLOAD DUP1 SWAP2 SUB SWAP1 LOG3 POP POP POP POP JUMP JUMPDEST PUSH1 0x0 DUP1 SWAP1 SLOAD SWAP1 PUSH2 0x100 EXP SWAP1 DIV PUSH20 0xFFFFFFFFFFFFFFFFFFFFFFFFFFFFFFFFFFFFFFFF AND PUSH20 0xFFFFFFFFFFFFFFFFFFFFFFFFFFFFFFFFFFFFFFFF AND CALLER PUSH20 0xFFFFFFFFFFFFFFFFFFFFFFFFFFFFFFFFFFFFFFFF AND EQ PUSH2 0x204D JUMPI PUSH1 0x40 MLOAD PUSH32 0x8C379A000000000000000000000000000000000000000000000000000000000 DUP2 MSTORE PUSH1 0x4 ADD DUP1 DUP1 PUSH1 0x20 ADD DUP3 DUP2 SUB DUP3 MSTORE PUSH1 0x16 DUP2 MSTORE PUSH1 0x20 ADD DUP1 PUSH32 0x6F6E6C79206465706C6F7965722063616E2063616C6C00000000000000000000 DUP2 MSTORE POP PUSH1 0x20 ADD SWAP2 POP POP PUSH1 0x40 MLOAD DUP1 SWAP2 SUB SWAP1 REVERT JUMPDEST DUP1 PUSH1 0x5 DUP4 DUP2 SLOAD DUP2 LT PUSH2 0x205B JUMPI INVALID JUMPDEST SWAP1 PUSH1 0x0 MSTORE PUSH1 0x20 PUSH1 0x0 KECCAK256 SWAP1 PUSH1 0x8 MUL ADD PUSH1 0x0 ADD PUSH1 0x0 PUSH2 0x100 EXP DUP2 SLOAD DUP2 PUSH1 0xFF MUL NOT AND SWAP1 DUP4 ISZERO ISZERO MUL OR SWAP1 SSTORE POP POP POP JUMP JUMPDEST DUP4 DUP4 PUSH1 0x0 PUSH1 0x6 PUSH1 0x0 DUP5 PUSH20 0xFFFFFFFFFFFFFFFFFFFFFFFFFFFFFFFFFFFFFFFF AND PUSH20 0xFFFFFFFFFFFFFFFFFFFFFFFFFFFFFFFFFFFFFFFF AND DUP2 MSTORE PUSH1 0x20 ADD SWAP1 DUP2 MSTORE PUSH1 0x20 ADD PUSH1 0x0 KECCAK256 DUP3 DUP2 SLOAD DUP2 LT PUSH2 0x20D5 JUMPI INVALID JUMPDEST SWAP1 PUSH1 0x0 MSTORE PUSH1 0x20 PUSH1 0x0 KECCAK256 SWAP1 PUSH1 0xB MUL ADD SWAP1 POP DUP3 PUSH20 0xFFFFFFFFFFFFFFFFFFFFFFFFFFFFFFFFFFFFFFFF AND CALLER PUSH20 0xFFFFFFFFFFFFFFFFFFFFFFFFFFFFFFFFFFFFFFFF AND EQ PUSH2 0x21DA JUMPI DUP1 PUSH1 0x9 ADD PUSH1 0x0 CALLER PUSH20 0xFFFFFFFFFFFFFFFFFFFFFFFFFFFFFFFFFFFFFFFF AND PUSH20 0xFFFFFFFFFFFFFFFFFFFFFFFFFFFFFFFFFFFFFFFF AND DUP2 MSTORE PUSH1 0x20 ADD SWAP1 DUP2 MSTORE PUSH1 0x20 ADD PUSH1 0x0 KECCAK256 PUSH1 0x0 SWAP1 SLOAD SWAP1 PUSH2 0x100 EXP SWAP1 DIV PUSH1 0xFF AND PUSH2 0x21D9 JUMPI PUSH1 0x40 MLOAD PUSH32 0x8C379A000000000000000000000000000000000000000000000000000000000 DUP2 MSTORE PUSH1 0x4 ADD DUP1 DUP1 PUSH1 0x20 ADD DUP3 DUP2 SUB DUP3 MSTORE PUSH1 0x1A DUP2 MSTORE PUSH1 0x20 ADD DUP1 PUSH32 0x6E6F6D696E6174696F6E2073686F756C64206265207468657265000000000000 DUP2 MSTORE POP PUSH1 0x20 ADD SWAP2 POP POP PUSH1 0x40 MLOAD DUP1 SWAP2 SUB SWAP1 REVERT JUMPDEST JUMPDEST PUSH1 0x0 PUSH1 0x6 PUSH1 0x0 DUP10 PUSH20 0xFFFFFFFFFFFFFFFFFFFFFFFFFFFFFFFFFFFFFFFF AND PUSH20 0xFFFFFFFFFFFFFFFFFFFFFFFFFFFFFFFFFFFFFFFF AND DUP2 MSTORE PUSH1 0x20 ADD SWAP1 DUP2 MSTORE PUSH1 0x20 ADD PUSH1 0x0 KECCAK256 DUP8 DUP2 SLOAD DUP2 LT PUSH2 0x2226 JUMPI INVALID JUMPDEST SWAP1 PUSH1 0x0 MSTORE PUSH1 0x20 PUSH1 0x0 KECCAK256 SWAP1 PUSH1 0xB MUL ADD SWAP1 POP DUP1 PUSH1 0x2 ADD SLOAD DUP7 LT ISZERO PUSH2 0x2293 JUMPI PUSH1 0x40 MLOAD PUSH32 0x8C379A000000000000000000000000000000000000000000000000000000000 DUP2 MSTORE PUSH1 0x4 ADD DUP1 DUP1 PUSH1 0x20 ADD DUP3 DUP2 SUB DUP3 MSTORE PUSH1 0x26 DUP2 MSTORE PUSH1 0x20 ADD DUP1 PUSH2 0x3793 PUSH1 0x26 SWAP2 CODECOPY PUSH1 0x40 ADD SWAP2 POP POP PUSH1 0x40 MLOAD DUP1 SWAP2 SUB SWAP1 REVERT JUMPDEST PUSH1 0x0 DUP2 PUSH1 0x8 ADD PUSH1 0x0 DUP8 DUP2 MSTORE PUSH1 0x20 ADD SWAP1 DUP2 MSTORE PUSH1 0x20 ADD PUSH1 0x0 KECCAK256 SLOAD EQ PUSH2 0x231E JUMPI PUSH1 0x40 MLOAD PUSH32 0x8C379A000000000000000000000000000000000000000000000000000000000 DUP2 MSTORE PUSH1 0x4 ADD DUP1 DUP1 PUSH1 0x20 ADD DUP3 DUP2 SUB DUP3 MSTORE PUSH1 0x14 DUP2 MSTORE PUSH1 0x20 ADD DUP1 PUSH32 0x63616E6E6F74206465706F73697420616761696E000000000000000000000000 DUP2 MSTORE POP PUSH1 0x20 ADD SWAP2 POP POP PUSH1 0x40 MLOAD DUP1 SWAP2 SUB SWAP1 REVERT JUMPDEST PUSH1 0x0 PUSH2 0x239D PUSH1 0x5 DUP4 PUSH1 0x0 ADD SLOAD DUP2 SLOAD DUP2 LT PUSH2 0x2334 JUMPI INVALID JUMPDEST SWAP1 PUSH1 0x0 MSTORE PUSH1 0x20 PUSH1 0x0 KECCAK256 SWAP1 PUSH1 0x8 MUL ADD PUSH1 0x3 ADD SLOAD PUSH2 0x238F PUSH2 0x3E8 PUSH2 0x2381 PUSH1 0x5 DUP8 PUSH1 0x0 ADD SLOAD DUP2 SLOAD DUP2 LT PUSH2 0x2360 JUMPI INVALID JUMPDEST SWAP1 PUSH1 0x0 MSTORE PUSH1 0x20 PUSH1 0x0 KECCAK256 SWAP1 PUSH1 0x8 MUL ADD PUSH1 0x5 ADD SLOAD DUP13 PUSH2 0x3464 SWAP1 SWAP2 SWAP1 PUSH4 0xFFFFFFFF AND JUMP JUMPDEST PUSH2 0x341A SWAP1 SWAP2 SWAP1 PUSH4 0xFFFFFFFF AND JUMP JUMPDEST PUSH2 0x3464 SWAP1 SWAP2 SWAP1 PUSH4 0xFFFFFFFF AND JUMP JUMPDEST SWAP1 POP PUSH2 0x23B4 PUSH1 0x3 SLOAD DUP3 PUSH2 0x34EA SWAP1 SWAP2 SWAP1 PUSH4 0xFFFFFFFF AND JUMP JUMPDEST PUSH1 0x4 SLOAD LT ISZERO PUSH2 0x240E JUMPI PUSH1 0x40 MLOAD PUSH32 0x8C379A000000000000000000000000000000000000000000000000000000000 DUP2 MSTORE PUSH1 0x4 ADD DUP1 DUP1 PUSH1 0x20 ADD DUP3 DUP2 SUB DUP3 MSTORE PUSH1 0x23 DUP2 MSTORE PUSH1 0x20 ADD DUP1 PUSH2 0x371A PUSH1 0x23 SWAP2 CODECOPY PUSH1 0x40 ADD SWAP2 POP POP PUSH1 0x40 MLOAD DUP1 SWAP2 SUB SWAP1 REVERT JUMPDEST PUSH1 0x0 PUSH2 0x241B DUP11 DUP11 DUP10 PUSH2 0x2760 JUMP JUMPDEST SWAP1 POP PUSH1 0x0 DUP2 GT PUSH2 0x2476 JUMPI PUSH1 0x40 MLOAD PUSH32 0x8C379A000000000000000000000000000000000000000000000000000000000 DUP2 MSTORE PUSH1 0x4 ADD DUP1 DUP1 PUSH1 0x20 ADD DUP3 DUP2 SUB DUP3 MSTORE PUSH1 0x21 DUP2 MSTORE PUSH1 0x20 ADD DUP1 PUSH2 0x36F9 PUSH1 0x21 SWAP2 CODECOPY PUSH1 0x40 ADD SWAP2 POP POP PUSH1 0x40 MLOAD DUP1 SWAP2 SUB SWAP1 REVERT JUMPDEST PUSH1 0x1 PUSH1 0x0 SWAP1 SLOAD SWAP1 PUSH2 0x100 EXP SWAP1 DIV PUSH20 0xFFFFFFFFFFFFFFFFFFFFFFFFFFFFFFFFFFFFFFFF AND PUSH20 0xFFFFFFFFFFFFFFFFFFFFFFFFFFFFFFFFFFFFFFFF AND PUSH4 0x23B872DD CALLER ADDRESS DUP12 PUSH1 0x40 MLOAD DUP5 PUSH4 0xFFFFFFFF AND PUSH1 0xE0 SHL DUP2 MSTORE PUSH1 0x4 ADD DUP1 DUP5 PUSH20 0xFFFFFFFFFFFFFFFFFFFFFFFFFFFFFFFFFFFFFFFF AND PUSH20 0xFFFFFFFFFFFFFFFFFFFFFFFFFFFFFFFFFFFFFFFF AND DUP2 MSTORE PUSH1 0x20 ADD DUP4 PUSH20 0xFFFFFFFFFFFFFFFFFFFFFFFFFFFFFFFFFFFFFFFF AND PUSH20 0xFFFFFFFFFFFFFFFFFFFFFFFFFFFFFFFFFFFFFFFF AND DUP2 MSTORE PUSH1 0x20 ADD DUP3 DUP2 MSTORE PUSH1 0x20 ADD SWAP4 POP POP POP POP PUSH1 0x20 PUSH1 0x40 MLOAD DUP1 DUP4 SUB DUP2 PUSH1 0x0 DUP8 DUP1 EXTCODESIZE ISZERO DUP1 ISZERO PUSH2 0x2553 JUMPI PUSH1 0x0 DUP1 REVERT JUMPDEST POP GAS CALL ISZERO DUP1 ISZERO PUSH2 0x2567 JUMPI RETURNDATASIZE PUSH1 0x0 DUP1 RETURNDATACOPY RETURNDATASIZE PUSH1 0x0 REVERT JUMPDEST POP POP POP POP PUSH1 0x40 MLOAD RETURNDATASIZE PUSH1 0x20 DUP2 LT ISZERO PUSH2 0x257D JUMPI PUSH1 0x0 DUP1 REVERT JUMPDEST DUP2 ADD SWAP1 DUP1 DUP1 MLOAD SWAP1 PUSH1 0x20 ADD SWAP1 SWAP3 SWAP2 SWAP1 POP POP POP PUSH2 0x2597 JUMPI PUSH1 0x0 DUP1 REVERT JUMPDEST DUP1 DUP4 PUSH1 0x8 ADD PUSH1 0x0 DUP10 DUP2 MSTORE PUSH1 0x20 ADD SWAP1 DUP2 MSTORE PUSH1 0x20 ADD PUSH1 0x0 KECCAK256 DUP2 SWAP1 SSTORE POP PUSH2 0x25C8 DUP9 DUP5 PUSH1 0x3 ADD SLOAD PUSH2 0x34EA SWAP1 SWAP2 SWAP1 PUSH4 0xFFFFFFFF AND JUMP JUMPDEST DUP4 PUSH1 0x3 ADD DUP2 SWAP1 SSTORE POP PUSH2 0x25E5 DUP3 PUSH1 0x3 SLOAD PUSH2 0x34EA SWAP1 SWAP2 SWAP1 PUSH4 0xFFFFFFFF AND JUMP JUMPDEST PUSH1 0x3 DUP2 SWAP1 SSTORE POP DUP9 DUP11 PUSH20 0xFFFFFFFFFFFFFFFFFFFFFFFFFFFFFFFFFFFFFFFF AND PUSH32 0xBAF4C88598102708C4215D5D3767268130627355850B7ECE9BDFDC32FD2941F0 DUP10 DUP12 DUP7 CALLER PUSH1 0x40 MLOAD DUP1 DUP6 DUP2 MSTORE PUSH1 0x20 ADD DUP5 DUP2 MSTORE PUSH1 0x20 ADD DUP4 DUP2 MSTORE PUSH1 0x20 ADD DUP3 PUSH20 0xFFFFFFFFFFFFFFFFFFFFFFFFFFFFFFFFFFFFFFFF AND PUSH20 0xFFFFFFFFFFFFFFFFFFFFFFFFFFFFFFFFFFFFFFFF AND DUP2 MSTORE PUSH1 0x20 ADD SWAP5 POP POP POP POP POP PUSH1 0x40 MLOAD DUP1 SWAP2 SUB SWAP1 LOG3 POP POP POP POP POP POP POP POP POP POP JUMP JUMPDEST PUSH1 0x0 PUSH1 0x6 PUSH1 0x0 DUP6 PUSH20 0xFFFFFFFFFFFFFFFFFFFFFFFFFFFFFFFFFFFFFFFF AND PUSH20 0xFFFFFFFFFFFFFFFFFFFFFFFFFFFFFFFFFFFFFFFF AND DUP2 MSTORE PUSH1 0x20 ADD SWAP1 DUP2 MSTORE PUSH1 0x20 ADD PUSH1 0x0 KECCAK256 DUP4 DUP2 SLOAD DUP2 LT PUSH2 0x26D6 JUMPI INVALID JUMPDEST SWAP1 PUSH1 0x0 MSTORE PUSH1 0x20 PUSH1 0x0 KECCAK256 SWAP1 PUSH1 0xB MUL ADD PUSH1 0xA ADD PUSH1 0x0 DUP4 PUSH20 0xFFFFFFFFFFFFFFFFFFFFFFFFFFFFFFFFFFFFFFFF AND PUSH20 0xFFFFFFFFFFFFFFFFFFFFFFFFFFFFFFFFFFFFFFFF AND DUP2 MSTORE PUSH1 0x20 ADD SWAP1 DUP2 MSTORE PUSH1 0x20 ADD PUSH1 0x0 KECCAK256 PUSH1 0x0 SWAP1 SLOAD SWAP1 PUSH2 0x100 EXP SWAP1 DIV PUSH1 0xFF AND SWAP1 POP SWAP4 SWAP3 POP POP POP JUMP JUMPDEST PUSH1 0x0 DUP1 SWAP1 SLOAD SWAP1 PUSH2 0x100 EXP SWAP1 DIV PUSH20 0xFFFFFFFFFFFFFFFFFFFFFFFFFFFFFFFFFFFFFFFF AND DUP2 JUMP JUMPDEST PUSH1 0x0 DUP1 PUSH1 0x6 PUSH1 0x0 DUP7 PUSH20 0xFFFFFFFFFFFFFFFFFFFFFFFFFFFFFFFFFFFFFFFF AND PUSH20 0xFFFFFFFFFFFFFFFFFFFFFFFFFFFFFFFFFFFFFFFF AND DUP2 MSTORE PUSH1 0x20 ADD SWAP1 DUP2 MSTORE PUSH1 0x20 ADD PUSH1 0x0 KECCAK256 DUP5 DUP2 SLOAD DUP2 LT PUSH2 0x27AD JUMPI INVALID JUMPDEST SWAP1 PUSH1 0x0 MSTORE PUSH1 0x20 PUSH1 0x0 KECCAK256 SWAP1 PUSH1 0xB MUL ADD SWAP1 POP PUSH1 0x1 DUP4 LT ISZERO DUP1 ISZERO PUSH2 0x27F0 JUMPI POP PUSH1 0x5 DUP2 PUSH1 0x0 ADD SLOAD DUP2 SLOAD DUP2 LT PUSH2 0x27DA JUMPI INVALID JUMPDEST SWAP1 PUSH1 0x0 MSTORE PUSH1 0x20 PUSH1 0x0 KECCAK256 SWAP1 PUSH1 0x8 MUL ADD PUSH1 0x2 ADD SLOAD DUP4 GT ISZERO JUMPDEST PUSH2 0x2862 JUMPI PUSH1 0x40 MLOAD PUSH32 0x8C379A000000000000000000000000000000000000000000000000000000000 DUP2 MSTORE PUSH1 0x4 ADD DUP1 DUP1 PUSH1 0x20 ADD DUP3 DUP2 SUB DUP3 MSTORE PUSH1 0x15 DUP2 MSTORE PUSH1 0x20 ADD DUP1 PUSH32 0x696E76616C6964206465706F736974206D6F6E74680000000000000000000000 DUP2 MSTORE POP PUSH1 0x20 ADD SWAP2 POP POP PUSH1 0x40 MLOAD DUP1 SWAP2 SUB SWAP1 REVERT JUMPDEST PUSH1 0x0 PUSH1 0x1 DUP5 SUB PUSH1 0x2 SLOAD MUL DUP3 PUSH1 0x1 ADD SLOAD ADD SWAP1 POP PUSH1 0x2 SLOAD DUP2 SUB TIMESTAMP LT ISZERO PUSH2 0x288B JUMPI PUSH1 0x0 SWAP3 POP POP POP PUSH2 0x28DA JUMP JUMPDEST TIMESTAMP DUP2 LT PUSH2 0x289D JUMPI PUSH1 0x2 SWAP3 POP POP POP PUSH2 0x28DA JUMP JUMPDEST TIMESTAMP PUSH1 0x5 DUP4 PUSH1 0x0 ADD SLOAD DUP2 SLOAD DUP2 LT PUSH2 0x28AF JUMPI INVALID JUMPDEST SWAP1 PUSH1 0x0 MSTORE PUSH1 0x20 PUSH1 0x0 KECCAK256 SWAP1 PUSH1 0x8 MUL ADD PUSH1 0x4 ADD SLOAD DUP3 ADD LT PUSH2 0x28D3 JUMPI PUSH1 0x1 SWAP3 POP POP POP PUSH2 0x28DA JUMP JUMPDEST PUSH1 0x0 SWAP3 POP POP POP JUMPDEST SWAP4 SWAP3 POP POP POP JUMP JUMPDEST PUSH1 0x0 DUP1 PUSH1 0x6 PUSH1 0x0 DUP8 PUSH20 0xFFFFFFFFFFFFFFFFFFFFFFFFFFFFFFFFFFFFFFFF AND PUSH20 0xFFFFFFFFFFFFFFFFFFFFFFFFFFFFFFFFFFFFFFFF AND DUP2 MSTORE PUSH1 0x20 ADD SWAP1 DUP2 MSTORE PUSH1 0x20 ADD PUSH1 0x0 KECCAK256 DUP6 DUP2 SLOAD DUP2 LT PUSH2 0x292E JUMPI INVALID JUMPDEST SWAP1 PUSH1 0x0 MSTORE PUSH1 0x20 PUSH1 0x0 KECCAK256 SWAP1 PUSH1 0xB MUL ADD SWAP1 POP PUSH1 0x0 DUP5 GT DUP1 ISZERO PUSH2 0x2973 JUMPI POP PUSH1 0xC PUSH1 0x5 DUP3 PUSH1 0x0 ADD SLOAD DUP2 SLOAD DUP2 LT PUSH2 0x295C JUMPI INVALID JUMPDEST SWAP1 PUSH1 0x0 MSTORE PUSH1 0x20 PUSH1 0x0 KECCAK256 SWAP1 PUSH1 0x8 MUL ADD PUSH1 0x3 ADD SLOAD MUL DUP5 GT ISZERO JUMPDEST PUSH2 0x29E5 JUMPI PUSH1 0x40 MLOAD PUSH32 0x8C379A000000000000000000000000000000000000000000000000000000000 DUP2 MSTORE PUSH1 0x4 ADD DUP1 DUP1 PUSH1 0x20 ADD DUP3 DUP2 SUB DUP3 MSTORE PUSH1 0x16 DUP2 MSTORE PUSH1 0x20 ADD DUP1 PUSH32 0x696E76616C6964207769746864726177206D6F6E746800000000000000000000 DUP2 MSTORE POP PUSH1 0x20 ADD SWAP2 POP POP PUSH1 0x40 MLOAD DUP1 SWAP2 SUB SWAP1 REVERT JUMPDEST DUP1 PUSH1 0x4 ADD SLOAD DUP5 GT PUSH2 0x2A5E JUMPI PUSH1 0x40 MLOAD PUSH32 0x8C379A000000000000000000000000000000000000000000000000000000000 DUP2 MSTORE PUSH1 0x4 ADD DUP1 DUP1 PUSH1 0x20 ADD DUP3 DUP2 SUB DUP3 MSTORE PUSH1 0x15 DUP2 MSTORE PUSH1 0x20 ADD DUP1 PUSH32 0x63616E6E6F7420776974686472617720616761696E0000000000000000000000 DUP2 MSTORE POP PUSH1 0x20 ADD SWAP2 POP POP PUSH1 0x40 MLOAD DUP1 SWAP2 SUB SWAP1 REVERT JUMPDEST PUSH1 0x0 PUSH1 0x1 DUP6 PUSH1 0x5 DUP5 PUSH1 0x0 ADD SLOAD DUP2 SLOAD DUP2 LT PUSH2 0x2A74 JUMPI INVALID JUMPDEST SWAP1 PUSH1 0x0 MSTORE PUSH1 0x20 PUSH1 0x0 KECCAK256 SWAP1 PUSH1 0x8 MUL ADD PUSH1 0x2 ADD SLOAD ADD SUB PUSH1 0x2 SLOAD MUL DUP3 PUSH1 0x1 ADD SLOAD ADD SWAP1 POP DUP4 ISZERO PUSH2 0x2AD8 JUMPI PUSH2 0x2AB2 PUSH1 0x2 DUP4 PUSH1 0x6 ADD SLOAD PUSH2 0x341A SWAP1 SWAP2 SWAP1 PUSH4 0xFFFFFFFF AND JUMP JUMPDEST DUP3 PUSH1 0x7 ADD SLOAD GT ISZERO PUSH2 0x2ACC JUMPI PUSH1 0x6 PUSH1 0x2 SLOAD MUL DUP2 ADD SWAP1 POP PUSH2 0x2AD7 JUMP JUMPDEST PUSH1 0xC PUSH1 0x2 SLOAD MUL DUP2 ADD SWAP1 POP JUMPDEST JUMPDEST DUP1 TIMESTAMP LT ISZERO PUSH2 0x2B4E JUMPI PUSH1 0x40 MLOAD PUSH32 0x8C379A000000000000000000000000000000000000000000000000000000000 DUP2 MSTORE PUSH1 0x4 ADD DUP1 DUP1 PUSH1 0x20 ADD DUP3 DUP2 SUB DUP3 MSTORE PUSH1 0x15 DUP2 MSTORE PUSH1 0x20 ADD DUP1 PUSH32 0x63616E6E6F74207769746864726177206561726C790000000000000000000000 DUP2 MSTORE POP PUSH1 0x20 ADD SWAP2 POP POP PUSH1 0x40 MLOAD DUP1 SWAP2 SUB SWAP1 REVERT JUMPDEST PUSH1 0x0 PUSH2 0x2B89 PUSH1 0x5 DUP5 PUSH1 0x0 ADD SLOAD DUP2 SLOAD DUP2 LT PUSH2 0x2B64 JUMPI INVALID JUMPDEST SWAP1 PUSH1 0x0 MSTORE PUSH1 0x20 PUSH1 0x0 KECCAK256 SWAP1 PUSH1 0x8 MUL ADD PUSH1 0x2 ADD SLOAD DUP5 PUSH1 0x3 ADD SLOAD PUSH2 0x341A SWAP1 SWAP2 SWAP1 PUSH4 0xFFFFFFFF AND JUMP JUMPDEST SWAP1 POP PUSH1 0x0 PUSH2 0x2BD6 PUSH2 0x3E8 PUSH2 0x2BC8 PUSH1 0x5 DUP8 PUSH1 0x0 ADD SLOAD DUP2 SLOAD DUP2 LT PUSH2 0x2BA7 JUMPI INVALID JUMPDEST SWAP1 PUSH1 0x0 MSTORE PUSH1 0x20 PUSH1 0x0 KECCAK256 SWAP1 PUSH1 0x8 MUL ADD PUSH1 0x5 ADD SLOAD DUP6 PUSH2 0x3464 SWAP1 SWAP2 SWAP1 PUSH4 0xFFFFFFFF AND JUMP JUMPDEST PUSH2 0x341A SWAP1 SWAP2 SWAP1 PUSH4 0xFFFFFFFF AND JUMP JUMPDEST SWAP1 POP PUSH1 0x0 PUSH2 0x2C03 PUSH2 0x2BF4 DUP7 PUSH1 0x4 ADD SLOAD DUP11 PUSH2 0x33D0 SWAP1 SWAP2 SWAP1 PUSH4 0xFFFFFFFF AND JUMP JUMPDEST DUP4 PUSH2 0x3464 SWAP1 SWAP2 SWAP1 PUSH4 0xFFFFFFFF AND JUMP JUMPDEST SWAP1 POP DUP1 SWAP6 POP POP POP POP POP POP SWAP5 SWAP4 POP POP POP POP JUMP JUMPDEST PUSH1 0x0 PUSH1 0x6 PUSH1 0x0 DUP5 PUSH20 0xFFFFFFFFFFFFFFFFFFFFFFFFFFFFFFFFFFFFFFFF AND PUSH20 0xFFFFFFFFFFFFFFFFFFFFFFFFFFFFFFFFFFFFFFFF AND DUP2 MSTORE PUSH1 0x20 ADD SWAP1 DUP2 MSTORE PUSH1 0x20 ADD PUSH1 0x0 KECCAK256 DUP3 DUP2 SLOAD DUP2 LT PUSH2 0x2C61 JUMPI INVALID JUMPDEST SWAP1 PUSH1 0x0 MSTORE PUSH1 0x20 PUSH1 0x0 KECCAK256 SWAP1 PUSH1 0xB MUL ADD SWAP1 POP DUP1 PUSH1 0xA ADD PUSH1 0x0 CALLER PUSH20 0xFFFFFFFFFFFFFFFFFFFFFFFFFFFFFFFFFFFFFFFF AND PUSH20 0xFFFFFFFFFFFFFFFFFFFFFFFFFFFFFFFFFFFFFFFF AND DUP2 MSTORE PUSH1 0x20 ADD SWAP1 DUP2 MSTORE PUSH1 0x20 ADD PUSH1 0x0 KECCAK256 PUSH1 0x0 SWAP1 SLOAD SWAP1 PUSH2 0x100 EXP SWAP1 DIV PUSH1 0xFF AND PUSH2 0x2D32 JUMPI PUSH1 0x40 MLOAD PUSH32 0x8C379A000000000000000000000000000000000000000000000000000000000 DUP2 MSTORE PUSH1 0x4 ADD DUP1 DUP1 PUSH1 0x20 ADD DUP3 DUP2 SUB DUP3 MSTORE PUSH1 0x20 DUP2 MSTORE PUSH1 0x20 ADD DUP1 PUSH32 0x73686F756C64206265206170706F696E74656520746F206361737420766F7465 DUP2 MSTORE POP PUSH1 0x20 ADD SWAP2 POP POP PUSH1 0x40 MLOAD DUP1 SWAP2 SUB SWAP1 REVERT JUMPDEST PUSH1 0x0 DUP2 PUSH1 0xA ADD PUSH1 0x0 CALLER PUSH20 0xFFFFFFFFFFFFFFFFFFFFFFFFFFFFFFFFFFFFFFFF AND PUSH20 0xFFFFFFFFFFFFFFFFFFFFFFFFFFFFFFFFFFFFFFFF AND DUP2 MSTORE PUSH1 0x20 ADD SWAP1 DUP2 MSTORE PUSH1 0x20 ADD PUSH1 0x0 KECCAK256 PUSH1 0x0 PUSH2 0x100 EXP DUP2 SLOAD DUP2 PUSH1 0xFF MUL NOT AND SWAP1 DUP4 ISZERO ISZERO MUL OR SWAP1 SSTORE POP PUSH2 0x2DA4 PUSH1 0x1 DUP3 PUSH1 0x7 ADD SLOAD PUSH2 0x34EA SWAP1 SWAP2 SWAP1 PUSH4 0xFFFFFFFF AND JUMP JUMPDEST DUP2 PUSH1 0x7 ADD DUP2 SWAP1 SSTORE POP CALLER PUSH20 0xFFFFFFFFFFFFFFFFFFFFFFFFFFFFFFFFFFFFFFFF AND DUP3 DUP5 PUSH20 0xFFFFFFFFFFFFFFFFFFFFFFFFFFFFFFFFFFFFFFFF AND PUSH32 0x57E90B4A498A7310FAB91955C915F3F15A0D1A94B296F824DA9443D524EA2E1B PUSH1 0x40 MLOAD PUSH1 0x40 MLOAD DUP1 SWAP2 SUB SWAP1 LOG4 POP POP POP JUMP JUMPDEST PUSH1 0x0 PUSH1 0x6 PUSH1 0x0 CALLER PUSH20 0xFFFFFFFFFFFFFFFFFFFFFFFFFFFFFFFFFFFFFFFF AND PUSH20 0xFFFFFFFFFFFFFFFFFFFFFFFFFFFFFFFFFFFFFFFF AND DUP2 MSTORE PUSH1 0x20 ADD SWAP1 DUP2 MSTORE PUSH1 0x20 ADD PUSH1 0x0 KECCAK256 DUP5 DUP2 SLOAD DUP2 LT PUSH2 0x2E58 JUMPI INVALID JUMPDEST SWAP1 PUSH1 0x0 MSTORE PUSH1 0x20 PUSH1 0x0 KECCAK256 SWAP1 PUSH1 0xB MUL ADD SWAP1 POP DUP1 PUSH1 0xA ADD PUSH1 0x0 DUP5 PUSH20 0xFFFFFFFFFFFFFFFFFFFFFFFFFFFFFFFFFFFFFFFF AND PUSH20 0xFFFFFFFFFFFFFFFFFFFFFFFFFFFFFFFFFFFFFFFF AND DUP2 MSTORE PUSH1 0x20 ADD SWAP1 DUP2 MSTORE PUSH1 0x20 ADD PUSH1 0x0 KECCAK256 PUSH1 0x0 SWAP1 SLOAD SWAP1 PUSH2 0x100 EXP SWAP1 DIV PUSH1 0xFF AND ISZERO DUP1 ISZERO PUSH2 0x2EC1 JUMPI POP DUP2 JUMPDEST ISZERO PUSH2 0x2F45 JUMPI PUSH2 0x2EDE PUSH1 0x1 DUP3 PUSH1 0x6 ADD SLOAD PUSH2 0x34EA SWAP1 SWAP2 SWAP1 PUSH4 0xFFFFFFFF AND JUMP JUMPDEST DUP2 PUSH1 0x6 ADD DUP2 SWAP1 SSTORE POP PUSH1 0x1 DUP2 PUSH1 0x9 ADD PUSH1 0x0 DUP6 PUSH20 0xFFFFFFFFFFFFFFFFFFFFFFFFFFFFFFFFFFFFFFFF AND PUSH20 0xFFFFFFFFFFFFFFFFFFFFFFFFFFFFFFFFFFFFFFFF AND DUP2 MSTORE PUSH1 0x20 ADD SWAP1 DUP2 MSTORE PUSH1 0x20 ADD PUSH1 0x0 KECCAK256 PUSH1 0x0 PUSH2 0x100 EXP DUP2 SLOAD DUP2 PUSH1 0xFF MUL NOT AND SWAP1 DUP4 ISZERO ISZERO MUL OR SWAP1 SSTORE POP PUSH2 0x301F JUMP JUMPDEST DUP1 PUSH1 0xA ADD PUSH1 0x0 DUP5 PUSH20 0xFFFFFFFFFFFFFFFFFFFFFFFFFFFFFFFFFFFFFFFF AND PUSH20 0xFFFFFFFFFFFFFFFFFFFFFFFFFFFFFFFFFFFFFFFF AND DUP2 MSTORE PUSH1 0x20 ADD SWAP1 DUP2 MSTORE PUSH1 0x20 ADD PUSH1 0x0 KECCAK256 PUSH1 0x0 SWAP1 SLOAD SWAP1 PUSH2 0x100 EXP SWAP1 DIV PUSH1 0xFF AND DUP1 ISZERO PUSH2 0x2F9E JUMPI POP DUP2 ISZERO JUMPDEST ISZERO PUSH2 0x301E JUMPI PUSH1 0x0 DUP2 PUSH1 0x9 ADD PUSH1 0x0 DUP6 PUSH20 0xFFFFFFFFFFFFFFFFFFFFFFFFFFFFFFFFFFFFFFFF AND PUSH20 0xFFFFFFFFFFFFFFFFFFFFFFFFFFFFFFFFFFFFFFFF AND DUP2 MSTORE PUSH1 0x20 ADD SWAP1 DUP2 MSTORE PUSH1 0x20 ADD PUSH1 0x0 KECCAK256 PUSH1 0x0 PUSH2 0x100 EXP DUP2 SLOAD DUP2 PUSH1 0xFF MUL NOT AND SWAP1 DUP4 ISZERO ISZERO MUL OR SWAP1 SSTORE POP PUSH2 0x3015 PUSH1 0x1 DUP3 PUSH1 0x6 ADD SLOAD PUSH2 0x33D0 SWAP1 SWAP2 SWAP1 PUSH4 0xFFFFFFFF AND JUMP JUMPDEST DUP2 PUSH1 0x6 ADD DUP2 SWAP1 SSTORE POP JUMPDEST JUMPDEST DUP3 PUSH20 0xFFFFFFFFFFFFFFFFFFFFFFFFFFFFFFFFFFFFFFFF AND DUP5 CALLER PUSH20 0xFFFFFFFFFFFFFFFFFFFFFFFFFFFFFFFFFFFFFFFF AND PUSH32 0xF7A6207B27953EFF117F9B7C03E363D41370A45E2B626D2AA32C6A0AC6365782 DUP6 PUSH1 0x40 MLOAD DUP1 DUP3 ISZERO ISZERO ISZERO ISZERO DUP2 MSTORE PUSH1 0x20 ADD SWAP2 POP POP PUSH1 0x40 MLOAD DUP1 SWAP2 SUB SWAP1 LOG4 POP POP POP POP JUMP JUMPDEST PUSH1 0x1 PUSH1 0x0 SWAP1 SLOAD SWAP1 PUSH2 0x100 EXP SWAP1 DIV PUSH20 0xFFFFFFFFFFFFFFFFFFFFFFFFFFFFFFFFFFFFFFFF AND PUSH20 0xFFFFFFFFFFFFFFFFFFFFFFFFFFFFFFFFFFFFFFFF AND PUSH4 0x23B872DD CALLER ADDRESS DUP5 PUSH1 0x40 MLOAD DUP5 PUSH4 0xFFFFFFFF AND PUSH1 0xE0 SHL DUP2 MSTORE PUSH1 0x4 ADD DUP1 DUP5 PUSH20 0xFFFFFFFFFFFFFFFFFFFFFFFFFFFFFFFFFFFFFFFF AND PUSH20 0xFFFFFFFFFFFFFFFFFFFFFFFFFFFFFFFFFFFFFFFF AND DUP2 MSTORE PUSH1 0x20 ADD DUP4 PUSH20 0xFFFFFFFFFFFFFFFFFFFFFFFFFFFFFFFFFFFFFFFF AND PUSH20 0xFFFFFFFFFFFFFFFFFFFFFFFFFFFFFFFFFFFFFFFF AND DUP2 MSTORE PUSH1 0x20 ADD DUP3 DUP2 MSTORE PUSH1 0x20 ADD SWAP4 POP POP POP POP PUSH1 0x20 PUSH1 0x40 MLOAD DUP1 DUP4 SUB DUP2 PUSH1 0x0 DUP8 DUP1 EXTCODESIZE ISZERO DUP1 ISZERO PUSH2 0x316C JUMPI PUSH1 0x0 DUP1 REVERT JUMPDEST POP GAS CALL ISZERO DUP1 ISZERO PUSH2 0x3180 JUMPI RETURNDATASIZE PUSH1 0x0 DUP1 RETURNDATACOPY RETURNDATASIZE PUSH1 0x0 REVERT JUMPDEST POP POP POP POP PUSH1 0x40 MLOAD RETURNDATASIZE PUSH1 0x20 DUP2 LT ISZERO PUSH2 0x3196 JUMPI PUSH1 0x0 DUP1 REVERT JUMPDEST DUP2 ADD SWAP1 DUP1 DUP1 MLOAD SWAP1 PUSH1 0x20 ADD SWAP1 SWAP3 SWAP2 SWAP1 POP POP POP PUSH2 0x3219 JUMPI PUSH1 0x40 MLOAD PUSH32 0x8C379A000000000000000000000000000000000000000000000000000000000 DUP2 MSTORE PUSH1 0x4 ADD DUP1 DUP1 PUSH1 0x20 ADD DUP3 DUP2 SUB DUP3 MSTORE PUSH1 0x1B DUP2 MSTORE PUSH1 0x20 ADD DUP1 PUSH32 0x746F6B656E732073686F756C64206265207472616E7366657265640000000000 DUP2 MSTORE POP PUSH1 0x20 ADD SWAP2 POP POP PUSH1 0x40 MLOAD DUP1 SWAP2 SUB SWAP1 REVERT JUMPDEST PUSH2 0x322E DUP2 PUSH1 0x4 SLOAD PUSH2 0x34EA SWAP1 SWAP2 SWAP1 PUSH4 0xFFFFFFFF AND JUMP JUMPDEST PUSH1 0x4 DUP2 SWAP1 SSTORE POP PUSH32 0x7CB5D45C1071F219BD2DA1EA101758715BD52F23F2A707F2D9A0387DEA18D906 DUP2 PUSH1 0x40 MLOAD DUP1 DUP3 DUP2 MSTORE PUSH1 0x20 ADD SWAP2 POP POP PUSH1 0x40 MLOAD DUP1 SWAP2 SUB SWAP1 LOG1 POP JUMP JUMPDEST PUSH1 0x5 DUP2 DUP2 SLOAD DUP2 LT PUSH2 0x327B JUMPI INVALID JUMPDEST SWAP1 PUSH1 0x0 MSTORE PUSH1 0x20 PUSH1 0x0 KECCAK256 SWAP1 PUSH1 0x8 MUL ADD PUSH1 0x0 SWAP2 POP SWAP1 POP DUP1 PUSH1 0x0 ADD PUSH1 0x0 SWAP1 SLOAD SWAP1 PUSH2 0x100 EXP SWAP1 DIV PUSH1 0xFF AND SWAP1 DUP1 PUSH1 0x1 ADD SLOAD SWAP1 DUP1 PUSH1 0x2 ADD SLOAD SWAP1 DUP1 PUSH1 0x3 ADD SLOAD SWAP1 DUP1 PUSH1 0x4 ADD SLOAD SWAP1 DUP1 PUSH1 0x5 ADD SLOAD SWAP1 DUP1 PUSH1 0x6 ADD SLOAD SWAP1 DUP1 PUSH1 0x7 ADD SLOAD SWAP1 POP DUP9 JUMP JUMPDEST PUSH1 0x0 PUSH1 0x6 PUSH1 0x0 DUP6 PUSH20 0xFFFFFFFFFFFFFFFFFFFFFFFFFFFFFFFFFFFFFFFF AND PUSH20 0xFFFFFFFFFFFFFFFFFFFFFFFFFFFFFFFFFFFFFFFF AND DUP2 MSTORE PUSH1 0x20 ADD SWAP1 DUP2 MSTORE PUSH1 0x20 ADD PUSH1 0x0 KECCAK256 DUP4 DUP2 SLOAD DUP2 LT PUSH2 0x331C JUMPI INVALID JUMPDEST SWAP1 PUSH1 0x0 MSTORE PUSH1 0x20 PUSH1 0x0 KECCAK256 SWAP1 PUSH1 0xB MUL ADD PUSH1 0x8 ADD PUSH1 0x0 DUP4 DUP2 MSTORE PUSH1 0x20 ADD SWAP1 DUP2 MSTORE PUSH1 0x20 ADD PUSH1 0x0 KECCAK256 SLOAD SWAP1 POP SWAP4 SWAP3 POP POP POP JUMP JUMPDEST PUSH1 0x6 PUSH1 0x20 MSTORE DUP2 PUSH1 0x0 MSTORE PUSH1 0x40 PUSH1 0x0 KECCAK256 DUP2 DUP2 SLOAD DUP2 LT PUSH2 0x3361 JUMPI INVALID JUMPDEST SWAP1 PUSH1 0x0 MSTORE PUSH1 0x20 PUSH1 0x0 KECCAK256 SWAP1 PUSH1 0xB MUL ADD PUSH1 0x0 SWAP2 POP SWAP2 POP POP DUP1 PUSH1 0x0 ADD SLOAD SWAP1 DUP1 PUSH1 0x1 ADD SLOAD SWAP1 DUP1 PUSH1 0x2 ADD SLOAD SWAP1 DUP1 PUSH1 0x3 ADD SLOAD SWAP1 DUP1 PUSH1 0x4 ADD SLOAD SWAP1 DUP1 PUSH1 0x5 ADD SLOAD SWAP1 DUP1 PUSH1 0x6 ADD SLOAD SWAP1 DUP1 PUSH1 0x7 ADD SLOAD SWAP1 POP DUP9 JUMP JUMPDEST PUSH1 0x1 PUSH1 0x0 SWAP1 SLOAD SWAP1 PUSH2 0x100 EXP SWAP1 DIV PUSH20 0xFFFFFFFFFFFFFFFFFFFFFFFFFFFFFFFFFFFFFFFF AND DUP2 JUMP JUMPDEST PUSH1 0x0 PUSH2 0x3412 DUP4 DUP4 PUSH1 0x40 MLOAD DUP1 PUSH1 0x40 ADD PUSH1 0x40 MSTORE DUP1 PUSH1 0x1E DUP2 MSTORE PUSH1 0x20 ADD PUSH32 0x536166654D6174683A207375627472616374696F6E206F766572666C6F770000 DUP2 MSTORE POP PUSH2 0x3572 JUMP JUMPDEST SWAP1 POP SWAP3 SWAP2 POP POP JUMP JUMPDEST PUSH1 0x0 PUSH2 0x345C DUP4 DUP4 PUSH1 0x40 MLOAD DUP1 PUSH1 0x40 ADD PUSH1 0x40 MSTORE DUP1 PUSH1 0x1A DUP2 MSTORE PUSH1 0x20 ADD PUSH32 0x536166654D6174683A206469766973696F6E206279207A65726F000000000000 DUP2 MSTORE POP PUSH2 0x3632 JUMP JUMPDEST SWAP1 POP SWAP3 SWAP2 POP POP JUMP JUMPDEST PUSH1 0x0 DUP1 DUP4 EQ ISZERO PUSH2 0x3477 JUMPI PUSH1 0x0 SWAP1 POP PUSH2 0x34E4 JUMP JUMPDEST PUSH1 0x0 DUP3 DUP5 MUL SWAP1 POP DUP3 DUP5 DUP3 DUP2 PUSH2 0x3488 JUMPI INVALID JUMPDEST DIV EQ PUSH2 0x34DF JUMPI PUSH1 0x40 MLOAD PUSH32 0x8C379A000000000000000000000000000000000000000000000000000000000 DUP2 MSTORE PUSH1 0x4 ADD DUP1 DUP1 PUSH1 0x20 ADD DUP3 DUP2 SUB DUP3 MSTORE PUSH1 0x21 DUP2 MSTORE PUSH1 0x20 ADD DUP1 PUSH2 0x3772 PUSH1 0x21 SWAP2 CODECOPY PUSH1 0x40 ADD SWAP2 POP POP PUSH1 0x40 MLOAD DUP1 SWAP2 SUB SWAP1 REVERT JUMPDEST DUP1 SWAP2 POP POP JUMPDEST SWAP3 SWAP2 POP POP JUMP JUMPDEST PUSH1 0x0 DUP1 DUP3 DUP5 ADD SWAP1 POP DUP4 DUP2 LT ISZERO PUSH2 0x3568 JUMPI PUSH1 0x40 MLOAD PUSH32 0x8C379A000000000000000000000000000000000000000000000000000000000 DUP2 MSTORE PUSH1 0x4 ADD DUP1 DUP1 PUSH1 0x20 ADD DUP3 DUP2 SUB DUP3 MSTORE PUSH1 0x1B DUP2 MSTORE PUSH1 0x20 ADD DUP1 PUSH32 0x536166654D6174683A206164646974696F6E206F766572666C6F770000000000 DUP2 MSTORE POP PUSH1 0x20 ADD SWAP2 POP POP PUSH1 0x40 MLOAD DUP1 SWAP2 SUB SWAP1 REVERT JUMPDEST DUP1 SWAP2 POP POP SWAP3 SWAP2 POP POP JUMP JUMPDEST PUSH1 0x0 DUP4 DUP4 GT ISZERO DUP3 SWAP1 PUSH2 0x361F JUMPI PUSH1 0x40 MLOAD PUSH32 0x8C379A000000000000000000000000000000000000000000000000000000000 DUP2 MSTORE PUSH1 0x4 ADD DUP1 DUP1 PUSH1 0x20 ADD DUP3 DUP2 SUB DUP3 MSTORE DUP4 DUP2 DUP2 MLOAD DUP2 MSTORE PUSH1 0x20 ADD SWAP2 POP DUP1 MLOAD SWAP1 PUSH1 0x20 ADD SWAP1 DUP1 DUP4 DUP4 PUSH1 0x0 JUMPDEST DUP4 DUP2 LT ISZERO PUSH2 0x35E4 JUMPI DUP1 DUP3 ADD MLOAD DUP2 DUP5 ADD MSTORE PUSH1 0x20 DUP2 ADD SWAP1 POP PUSH2 0x35C9 JUMP JUMPDEST POP POP POP POP SWAP1 POP SWAP1 DUP2 ADD SWAP1 PUSH1 0x1F AND DUP1 ISZERO PUSH2 0x3611 JUMPI DUP1 DUP3 SUB DUP1 MLOAD PUSH1 0x1 DUP4 PUSH1 0x20 SUB PUSH2 0x100 EXP SUB NOT AND DUP2 MSTORE PUSH1 0x20 ADD SWAP2 POP JUMPDEST POP SWAP3 POP POP POP PUSH1 0x40 MLOAD DUP1 SWAP2 SUB SWAP1 REVERT JUMPDEST POP PUSH1 0x0 DUP4 DUP6 SUB SWAP1 POP DUP1 SWAP2 POP POP SWAP4 SWAP3 POP POP POP JUMP JUMPDEST PUSH1 0x0 DUP1 DUP4 GT DUP3 SWAP1 PUSH2 0x36DE JUMPI PUSH1 0x40 MLOAD PUSH32 0x8C379A000000000000000000000000000000000000000000000000000000000 DUP2 MSTORE PUSH1 0x4 ADD DUP1 DUP1 PUSH1 0x20 ADD DUP3 DUP2 SUB DUP3 MSTORE DUP4 DUP2 DUP2 MLOAD DUP2 MSTORE PUSH1 0x20 ADD SWAP2 POP DUP1 MLOAD SWAP1 PUSH1 0x20 ADD SWAP1 DUP1 DUP4 DUP4 PUSH1 0x0 JUMPDEST DUP4 DUP2 LT ISZERO PUSH2 0x36A3 JUMPI DUP1 DUP3 ADD MLOAD DUP2 DUP5 ADD MSTORE PUSH1 0x20 DUP2 ADD SWAP1 POP PUSH2 0x3688 JUMP JUMPDEST POP POP POP POP SWAP1 POP SWAP1 DUP2 ADD SWAP1 PUSH1 0x1F AND DUP1 ISZERO PUSH2 0x36D0 JUMPI DUP1 DUP3 SUB DUP1 MLOAD PUSH1 0x1 DUP4 PUSH1 0x20 SUB PUSH2 0x100 EXP SUB NOT AND DUP2 MSTORE PUSH1 0x20 ADD SWAP2 POP JUMPDEST POP SWAP3 POP POP POP PUSH1 0x40 MLOAD DUP1 SWAP2 SUB SWAP1 REVERT JUMPDEST POP PUSH1 0x0 DUP4 DUP6 DUP2 PUSH2 0x36EA JUMPI INVALID JUMPDEST DIV SWAP1 POP DUP1 SWAP2 POP POP SWAP4 SWAP3 POP POP POP JUMP INVALID PUSH8 0x7261636520706572 PUSH10 0x6F6420656C6170736564 KECCAK256 PUSH16 0x7220746F6F206561726C79656E6F7567 PUSH9 0x2066756E6473207368 PUSH16 0x756C6420626520746865726520696E20 MSTORE8 0x49 POP PUSH6 0x6E6F75676820 PUSH7 0x756E647320666F PUSH19 0x2062656E65666974732073686F756C64206265 KECCAK256 PUSH21 0x6865726520696E20636F6E7472616374536166654D PUSH2 0x7468 GASPRICE KECCAK256 PUSH14 0x756C7469706C69636174696F6E20 PUSH16 0x766572666C6F776465706F7369742063 PUSH2 0x6E6E PUSH16 0x74206265206C657373207468616E2063 PUSH16 0x6D6D69746D656E74A265627A7A723158 KECCAK256 0xc SWAP9 EQ 0xe3 SUB 0x29 POP 0xc9 PUSH18 0x41E31EFB9386C8BDEEE973260C28100E633A 0xd5 PUSH19 0x99594464736F6C634300050C00320000000000 "},"gasEstimates":{"creation":{"codeDepositCost":"2863400","executionCost":"infinite","totalCost":"infinite"},"external":{"EARTH_SECONDS_IN_MONTH()":"473","addFunds(uint256)":"infinite","appointeeVote(address,uint256)":"infinite","createSIPPlan(uint256,uint256,uint256,uint256,uint256,uint256,uint256)":"181684","fundsDeposit()":"495","getDepositDoneStatus(address,uint256,uint256)":"1117","getDepositStatus(address,uint256,uint256)":"3044","getPendingWithdrawlAmount(address,uint256,uint256,bool)":"infinite","monthlyDeposit(address,uint256,uint256,uint256)":"infinite","newSIP(uint256,uint256)":"infinite","owner()":"520","pendingBenefitAmountOfAllStakers()":"428","sipPlans(uint256)":"2543","sips(address,uint256)":"2637","token()":"585","toogleAppointee(uint256,address,bool)":"infinite","toogleNominee(uint256,address,bool)":"23311","updatePlanStatus(uint256,bool)":"21230","viewAppointation(address,uint256,address)":"1140","viewNomination(address,uint256,address)":"1184","withdrawBenefit(address,uint256,uint256)":"infinite","withdrawFunds(uint256)":"infinite","withdrawPowerBooster(address,uint256)":"infinite"}},"methodIdentifiers":{"EARTH_SECONDS_IN_MONTH()":"1272d8d4","addFunds(uint256)":"be999705","appointeeVote(address,uint256)":"a4003ad4","createSIPPlan(uint256,uint256,uint256,uint256,uint256,uint256,uint256)":"295226c5","fundsDeposit()":"13dcc452","getDepositDoneStatus(address,uint256,uint256)":"f29de4c3","getDepositStatus(address,uint256,uint256)":"94bb9064","getPendingWithdrawlAmount(address,uint256,uint256,bool)":"9b3017c1","monthlyDeposit(address,uint256,uint256,uint256)":"7f13c7a1","newSIP(uint256,uint256)":"53c0fb47","owner()":"8da5cb5b","pendingBenefitAmountOfAllStakers()":"2393768d","sipPlans(uint256)":"ef4ffe57","sips(address,uint256)":"f926b17a","token()":"fc0c546a","toogleAppointee(uint256,address,bool)":"ba50531a","toogleNominee(uint256,address,bool)":"0ce57b46","updatePlanStatus(uint256,bool)":"7838e408","viewAppointation(address,uint256,address)":"81423a26","viewNomination(address,uint256,address)":"2e9721b6","withdrawBenefit(address,uint256,uint256)":"07f71149","withdrawFunds(uint256)":"155dd5ee","withdrawPowerBooster(address,uint256)":"26d9767b"}},"userdoc":{"methods":{"addFunds(uint256)":{"notice":"this function is used by donors to add funds to fundsDeposit"},"appointeeVote(address,uint256)":{"notice":"this function is used by appointee to vote that nominees can withdraw early"},"constructor":"sets up TimeAllySIP contract when deployed","createSIPPlan(uint256,uint256,uint256,uint256,uint256,uint256,uint256)":{"notice":"this function is used by owner to create plans for new SIPs"},"getDepositDoneStatus(address,uint256,uint256)":{"notice":"this function is used to read all time deposit status of any staker SIP"},"getDepositStatus(address,uint256,uint256)":{"notice":"this function is used to calculate deposit status according to current time"},"getPendingWithdrawlAmount(address,uint256,uint256,bool)":{"notice":"this function is used to get avalilable withdrawls upto a withdrawl month id"},"monthlyDeposit(address,uint256,uint256,uint256)":{"notice":"this function is used to do monthly commitment deposit of SIP"},"newSIP(uint256,uint256)":{"notice":"this function is used to initiate a new SIP along with first deposit"},"toogleAppointee(uint256,address,bool)":{"notice":"this function is used to update appointee status of a wallet address in SIP"},"toogleNominee(uint256,address,bool)":{"notice":"this function is used to update nominee status of a wallet address in SIP"},"viewAppointation(address,uint256,address)":{"notice":"this function is used to view appointation"},"viewNomination(address,uint256,address)":{"notice":"this function is used to view nomination"},"withdrawBenefit(address,uint256,uint256)":{"notice":"this function is used to withdraw benefits."},"withdrawFunds(uint256)":{"notice":"this is used by owner to withdraw ES that are not allocated to any SIP"},"withdrawPowerBooster(address,uint256)":{"notice":"this functin is used to withdraw powerbooster"}},"notice":"The benefits are transparently stored in advance in this contract"}}