{"abi":[{"inputs":[{"internalType":"contract ERC20","name":"_token","type":"address"}],"payable":false,"stateMutability":"nonpayable","type":"constructor"},{"anonymous":false,"inputs":[{"indexed":true,"internalType":"address","name":"_staker","type":"address"},{"indexed":false,"internalType":"uint256","name":"_sipId","type":"uint256"},{"indexed":false,"internalType":"uint256","name":"_monthlyCommitmentAmount","type":"uint256"}],"name":"NewSIP","type":"event"},{"constant":false,"inputs":[{"internalType":"uint256","name":"_minimumMonthlyCommitmentAmount","type":"uint256"},{"internalType":"uint256","name":"_accumulationPeriodMonths","type":"uint256"},{"internalType":"uint256","name":"_benefitPeriodYears","type":"uint256"},{"internalType":"uint256","name":"_gracePeriodSeconds","type":"uint256"},{"internalType":"uint256","name":"_onTimeBenefitFactor","type":"uint256"},{"internalType":"uint256","name":"_graceBenefitFactor","type":"uint256"},{"internalType":"uint256","name":"_topupBenefitFactor","type":"uint256"}],"name":"createSIPPlan","outputs":[],"payable":false,"stateMutability":"nonpayable","type":"function"},{"constant":true,"inputs":[],"name":"earthSecondsInMonth","outputs":[{"internalType":"uint256","name":"","type":"uint256"}],"payable":false,"stateMutability":"view","type":"function"},{"constant":false,"inputs":[{"internalType":"uint256","name":"_sipId","type":"uint256"},{"internalType":"uint256","name":"_depositAmount","type":"uint256"}],"name":"monthlyDeposit","outputs":[],"payable":false,"stateMutability":"nonpayable","type":"function"},{"constant":false,"inputs":[{"internalType":"uint256","name":"_planId","type":"uint256"},{"internalType":"uint256","name":"_monthlyCommitmentAmount","type":"uint256"}],"name":"newSIP","outputs":[],"payable":false,"stateMutability":"nonpayable","type":"function"},{"constant":true,"inputs":[],"name":"owner","outputs":[{"internalType":"address","name":"","type":"address"}],"payable":false,"stateMutability":"view","type":"function"},{"constant":true,"inputs":[{"internalType":"uint256","name":"","type":"uint256"}],"name":"sipPlans","outputs":[{"internalType":"bool","name":"isPlanActive","type":"bool"},{"internalType":"uint256","name":"minimumMonthlyCommitmentAmount","type":"uint256"},{"internalType":"uint256","name":"accumulationPeriodMonths","type":"uint256"},{"internalType":"uint256","name":"benefitPeriodYears","type":"uint256"},{"internalType":"uint256","name":"gracePeriodSeconds","type":"uint256"},{"internalType":"uint256","name":"onTimeBenefitFactor","type":"uint256"},{"internalType":"uint256","name":"graceBenefitFactor","type":"uint256"},{"internalType":"uint256","name":"topupBenefitFactor","type":"uint256"}],"payable":false,"stateMutability":"view","type":"function"},{"constant":true,"inputs":[{"internalType":"address","name":"","type":"address"},{"internalType":"uint256","name":"","type":"uint256"}],"name":"sips","outputs":[{"internalType":"uint256","name":"planId","type":"uint256"},{"internalType":"uint256","name":"stakingTimestamp","type":"uint256"},{"internalType":"uint256","name":"monthlyCommitmentAmount","type":"uint256"},{"internalType":"uint256","name":"ctcAmount","type":"uint256"},{"internalType":"uint256","name":"pendingBenefitAmount","type":"uint256"},{"internalType":"uint256","name":"powerBoosterAmount","type":"uint256"}],"payable":false,"stateMutability":"view","type":"function"},{"constant":true,"inputs":[],"name":"token","outputs":[{"internalType":"contract ERC20","name":"","type":"address"}],"payable":false,"stateMutability":"view","type":"function"}],"devdoc":{"methods":{}},"evm":{"assembly":"    /* \"TimeAllySIP.sol\":51:3782  contract TimeAllySIP {... */\n  mstore(0x40, 0x80)\n    /* \"TimeAllySIP.sol\":1191:1198  2629744 */\n  0x282070\n    /* \"TimeAllySIP.sol\":1154:1198  uint256 public earthSecondsInMonth = 2629744 */\n  0x02\n  sstore\n    /* \"TimeAllySIP.sol\":1481:1563  constructor(ERC20 _token) public {... */\n  callvalue\n    /* \"--CODEGEN--\":8:17   */\n  dup1\n    /* \"--CODEGEN--\":5:7   */\n  iszero\n  tag_1\n  jumpi\n    /* \"--CODEGEN--\":30:31   */\n  0x00\n    /* \"--CODEGEN--\":27:28   */\n  dup1\n    /* \"--CODEGEN--\":20:32   */\n  revert\n    /* \"--CODEGEN--\":5:7   */\ntag_1:\n    /* \"TimeAllySIP.sol\":1481:1563  constructor(ERC20 _token) public {... */\n  pop\n  mload(0x40)\n  sub(codesize, bytecodeSize)\n  dup1\n  bytecodeSize\n  dup4\n  codecopy\n  dup2\n  dup2\n  add\n  0x40\n  mstore\n    /* \"--CODEGEN--\":13:15   */\n  0x20\n    /* \"--CODEGEN--\":8:11   */\n  dup2\n    /* \"--CODEGEN--\":5:16   */\n  lt\n    /* \"--CODEGEN--\":2:4   */\n  iszero\n  tag_2\n  jumpi\n    /* \"--CODEGEN--\":29:30   */\n  0x00\n    /* \"--CODEGEN--\":26:27   */\n  dup1\n    /* \"--CODEGEN--\":19:31   */\n  revert\n    /* \"--CODEGEN--\":2:4   */\ntag_2:\n    /* \"TimeAllySIP.sol\":1481:1563  constructor(ERC20 _token) public {... */\n  dup2\n  add\n  swap1\n  dup1\n  dup1\n  mload\n  swap1\n  0x20\n  add\n  swap1\n  swap3\n  swap2\n  swap1\n  pop\n  pop\n  pop\n    /* \"TimeAllySIP.sol\":1528:1538  msg.sender */\n  caller\n    /* \"TimeAllySIP.sol\":1520:1525  owner */\n  0x00\n  dup1\n    /* \"TimeAllySIP.sol\":1520:1538  owner = msg.sender */\n  0x0100\n  exp\n  dup2\n  sload\n  dup2\n  0xffffffffffffffffffffffffffffffffffffffff\n  mul\n  not\n  and\n  swap1\n  dup4\n  0xffffffffffffffffffffffffffffffffffffffff\n  and\n  mul\n  or\n  swap1\n  sstore\n  pop\n    /* \"TimeAllySIP.sol\":1552:1558  _token */\n  dup1\n    /* \"TimeAllySIP.sol\":1544:1549  token */\n  0x01\n  0x00\n    /* \"TimeAllySIP.sol\":1544:1558  token = _token */\n  0x0100\n  exp\n  dup2\n  sload\n  dup2\n  0xffffffffffffffffffffffffffffffffffffffff\n  mul\n  not\n  and\n  swap1\n  dup4\n  0xffffffffffffffffffffffffffffffffffffffff\n  and\n  mul\n  or\n  swap1\n  sstore\n  pop\n    /* \"TimeAllySIP.sol\":1481:1563  constructor(ERC20 _token) public {... */\n  pop\n    /* \"TimeAllySIP.sol\":51:3782  contract TimeAllySIP {... */\n  dataSize(sub_0)\n  dup1\n  dataOffset(sub_0)\n  0x00\n  codecopy\n  0x00\n  return\nstop\n\nsub_0: assembly {\n        /* \"TimeAllySIP.sol\":51:3782  contract TimeAllySIP {... */\n      mstore(0x40, 0x80)\n      callvalue\n        /* \"--CODEGEN--\":8:17   */\n      dup1\n        /* \"--CODEGEN--\":5:7   */\n      iszero\n      tag_1\n      jumpi\n        /* \"--CODEGEN--\":30:31   */\n      0x00\n        /* \"--CODEGEN--\":27:28   */\n      dup1\n        /* \"--CODEGEN--\":20:32   */\n      revert\n        /* \"--CODEGEN--\":5:7   */\n    tag_1:\n        /* \"TimeAllySIP.sol\":51:3782  contract TimeAllySIP {... */\n      pop\n      jumpi(tag_2, lt(calldatasize, 0x04))\n      shr(0xe0, calldataload(0x00))\n      dup1\n      0x8da5cb5b\n      gt\n      tag_11\n      jumpi\n      dup1\n      0x8da5cb5b\n      eq\n      tag_7\n      jumpi\n      dup1\n      0xef4ffe57\n      eq\n      tag_8\n      jumpi\n      dup1\n      0xf926b17a\n      eq\n      tag_9\n      jumpi\n      dup1\n      0xfc0c546a\n      eq\n      tag_10\n      jumpi\n      jump(tag_2)\n    tag_11:\n      dup1\n      0x295226c5\n      eq\n      tag_3\n      jumpi\n      dup1\n      0x3c8e01d4\n      eq\n      tag_4\n      jumpi\n      dup1\n      0x53c0fb47\n      eq\n      tag_5\n      jumpi\n      dup1\n      0x582e7e9e\n      eq\n      tag_6\n      jumpi\n    tag_2:\n      0x00\n      dup1\n      revert\n        /* \"TimeAllySIP.sol\":1567:2295  function createSIPPlan(... */\n    tag_3:\n      tag_12\n      0x04\n      dup1\n      calldatasize\n      sub\n        /* \"--CODEGEN--\":13:16   */\n      0xe0\n        /* \"--CODEGEN--\":8:11   */\n      dup2\n        /* \"--CODEGEN--\":5:17   */\n      lt\n        /* \"--CODEGEN--\":2:4   */\n      iszero\n      tag_13\n      jumpi\n        /* \"--CODEGEN--\":30:31   */\n      0x00\n        /* \"--CODEGEN--\":27:28   */\n      dup1\n        /* \"--CODEGEN--\":20:32   */\n      revert\n        /* \"--CODEGEN--\":2:4   */\n    tag_13:\n        /* \"TimeAllySIP.sol\":1567:2295  function createSIPPlan(... */\n      dup2\n      add\n      swap1\n      dup1\n      dup1\n      calldataload\n      swap1\n      0x20\n      add\n      swap1\n      swap3\n      swap2\n      swap1\n      dup1\n      calldataload\n      swap1\n      0x20\n      add\n      swap1\n      swap3\n      swap2\n      swap1\n      dup1\n      calldataload\n      swap1\n      0x20\n      add\n      swap1\n      swap3\n      swap2\n      swap1\n      dup1\n      calldataload\n      swap1\n      0x20\n      add\n      swap1\n      swap3\n      swap2\n      swap1\n      dup1\n      calldataload\n      swap1\n      0x20\n      add\n      swap1\n      swap3\n      swap2\n      swap1\n      dup1\n      calldataload\n      swap1\n      0x20\n      add\n      swap1\n      swap3\n      swap2\n      swap1\n      dup1\n      calldataload\n      swap1\n      0x20\n      add\n      swap1\n      swap3\n      swap2\n      swap1\n      pop\n      pop\n      pop\n      tag_14\n      jump\t// in\n    tag_12:\n      stop\n        /* \"TimeAllySIP.sol\":3690:3780  function monthlyDeposit(... */\n    tag_4:\n      tag_15\n      0x04\n      dup1\n      calldatasize\n      sub\n        /* \"--CODEGEN--\":13:15   */\n      0x40\n        /* \"--CODEGEN--\":8:11   */\n      dup2\n        /* \"--CODEGEN--\":5:16   */\n      lt\n        /* \"--CODEGEN--\":2:4   */\n      iszero\n      tag_16\n      jumpi\n        /* \"--CODEGEN--\":29:30   */\n      0x00\n        /* \"--CODEGEN--\":26:27   */\n      dup1\n        /* \"--CODEGEN--\":19:31   */\n      revert\n        /* \"--CODEGEN--\":2:4   */\n    tag_16:\n        /* \"TimeAllySIP.sol\":3690:3780  function monthlyDeposit(... */\n      dup2\n      add\n      swap1\n      dup1\n      dup1\n      calldataload\n      swap1\n      0x20\n      add\n      swap1\n      swap3\n      swap2\n      swap1\n      dup1\n      calldataload\n      swap1\n      0x20\n      add\n      swap1\n      swap3\n      swap2\n      swap1\n      pop\n      pop\n      pop\n      tag_17\n      jump\t// in\n    tag_15:\n      stop\n        /* \"TimeAllySIP.sol\":2299:3686  function newSIP(... */\n    tag_5:\n      tag_18\n      0x04\n      dup1\n      calldatasize\n      sub\n        /* \"--CODEGEN--\":13:15   */\n      0x40\n        /* \"--CODEGEN--\":8:11   */\n      dup2\n        /* \"--CODEGEN--\":5:16   */\n      lt\n        /* \"--CODEGEN--\":2:4   */\n      iszero\n      tag_19\n      jumpi\n        /* \"--CODEGEN--\":29:30   */\n      0x00\n        /* \"--CODEGEN--\":26:27   */\n      dup1\n        /* \"--CODEGEN--\":19:31   */\n      revert\n        /* \"--CODEGEN--\":2:4   */\n    tag_19:\n        /* \"TimeAllySIP.sol\":2299:3686  function newSIP(... */\n      dup2\n      add\n      swap1\n      dup1\n      dup1\n      calldataload\n      swap1\n      0x20\n      add\n      swap1\n      swap3\n      swap2\n      swap1\n      dup1\n      calldataload\n      swap1\n      0x20\n      add\n      swap1\n      swap3\n      swap2\n      swap1\n      pop\n      pop\n      pop\n      tag_20\n      jump\t// in\n    tag_18:\n      stop\n        /* \"TimeAllySIP.sol\":1154:1198  uint256 public earthSecondsInMonth = 2629744 */\n    tag_6:\n      tag_21\n      tag_22\n      jump\t// in\n    tag_21:\n      mload(0x40)\n      dup1\n      dup3\n      dup2\n      mstore\n      0x20\n      add\n      swap2\n      pop\n      pop\n      mload(0x40)\n      dup1\n      swap2\n      sub\n      swap1\n      return\n        /* \"TimeAllySIP.sol\":1044:1064  address public owner */\n    tag_7:\n      tag_23\n      tag_24\n      jump\t// in\n    tag_23:\n      mload(0x40)\n      dup1\n      dup3\n      0xffffffffffffffffffffffffffffffffffffffff\n      and\n      0xffffffffffffffffffffffffffffffffffffffff\n      and\n      dup2\n      mstore\n      0x20\n      add\n      swap2\n      pop\n      pop\n      mload(0x40)\n      dup1\n      swap2\n      sub\n      swap1\n      return\n        /* \"TimeAllySIP.sol\":1203:1228  SIPPlan[] public sipPlans */\n    tag_8:\n      tag_25\n      0x04\n      dup1\n      calldatasize\n      sub\n        /* \"--CODEGEN--\":13:15   */\n      0x20\n        /* \"--CODEGEN--\":8:11   */\n      dup2\n        /* \"--CODEGEN--\":5:16   */\n      lt\n        /* \"--CODEGEN--\":2:4   */\n      iszero\n      tag_26\n      jumpi\n        /* \"--CODEGEN--\":29:30   */\n      0x00\n        /* \"--CODEGEN--\":26:27   */\n      dup1\n        /* \"--CODEGEN--\":19:31   */\n      revert\n        /* \"--CODEGEN--\":2:4   */\n    tag_26:\n        /* \"TimeAllySIP.sol\":1203:1228  SIPPlan[] public sipPlans */\n      dup2\n      add\n      swap1\n      dup1\n      dup1\n      calldataload\n      swap1\n      0x20\n      add\n      swap1\n      swap3\n      swap2\n      swap1\n      pop\n      pop\n      pop\n      tag_27\n      jump\t// in\n    tag_25:\n      mload(0x40)\n      dup1\n      dup10\n      iszero\n      iszero\n      iszero\n      iszero\n      dup2\n      mstore\n      0x20\n      add\n      dup9\n      dup2\n      mstore\n      0x20\n      add\n      dup8\n      dup2\n      mstore\n      0x20\n      add\n      dup7\n      dup2\n      mstore\n      0x20\n      add\n      dup6\n      dup2\n      mstore\n      0x20\n      add\n      dup5\n      dup2\n      mstore\n      0x20\n      add\n      dup4\n      dup2\n      mstore\n      0x20\n      add\n      dup3\n      dup2\n      mstore\n      0x20\n      add\n      swap9\n      pop\n      pop\n      pop\n      pop\n      pop\n      pop\n      pop\n      pop\n      pop\n      mload(0x40)\n      dup1\n      swap2\n      sub\n      swap1\n      return\n        /* \"TimeAllySIP.sol\":1233:1270  mapping(address => SIP[]) public sips */\n    tag_9:\n      tag_28\n      0x04\n      dup1\n      calldatasize\n      sub\n        /* \"--CODEGEN--\":13:15   */\n      0x40\n        /* \"--CODEGEN--\":8:11   */\n      dup2\n        /* \"--CODEGEN--\":5:16   */\n      lt\n        /* \"--CODEGEN--\":2:4   */\n      iszero\n      tag_29\n      jumpi\n        /* \"--CODEGEN--\":29:30   */\n      0x00\n        /* \"--CODEGEN--\":26:27   */\n      dup1\n        /* \"--CODEGEN--\":19:31   */\n      revert\n        /* \"--CODEGEN--\":2:4   */\n    tag_29:\n        /* \"TimeAllySIP.sol\":1233:1270  mapping(address => SIP[]) public sips */\n      dup2\n      add\n      swap1\n      dup1\n      dup1\n      calldataload\n      0xffffffffffffffffffffffffffffffffffffffff\n      and\n      swap1\n      0x20\n      add\n      swap1\n      swap3\n      swap2\n      swap1\n      dup1\n      calldataload\n      swap1\n      0x20\n      add\n      swap1\n      swap3\n      swap2\n      swap1\n      pop\n      pop\n      pop\n      tag_30\n      jump\t// in\n    tag_28:\n      mload(0x40)\n      dup1\n      dup8\n      dup2\n      mstore\n      0x20\n      add\n      dup7\n      dup2\n      mstore\n      0x20\n      add\n      dup6\n      dup2\n      mstore\n      0x20\n      add\n      dup5\n      dup2\n      mstore\n      0x20\n      add\n      dup4\n      dup2\n      mstore\n      0x20\n      add\n      dup3\n      dup2\n      mstore\n      0x20\n      add\n      swap7\n      pop\n      pop\n      pop\n      pop\n      pop\n      pop\n      pop\n      mload(0x40)\n      dup1\n      swap2\n      sub\n      swap1\n      return\n        /* \"TimeAllySIP.sol\":1068:1086  ERC20 public token */\n    tag_10:\n      tag_31\n      tag_32\n      jump\t// in\n    tag_31:\n      mload(0x40)\n      dup1\n      dup3\n      0xffffffffffffffffffffffffffffffffffffffff\n      and\n      0xffffffffffffffffffffffffffffffffffffffff\n      and\n      dup2\n      mstore\n      0x20\n      add\n      swap2\n      pop\n      pop\n      mload(0x40)\n      dup1\n      swap2\n      sub\n      swap1\n      return\n        /* \"TimeAllySIP.sol\":1567:2295  function createSIPPlan(... */\n    tag_14:\n        /* \"TimeAllySIP.sol\":1433:1438  owner */\n      0x00\n      dup1\n      swap1\n      sload\n      swap1\n      0x0100\n      exp\n      swap1\n      div\n      0xffffffffffffffffffffffffffffffffffffffff\n      and\n        /* \"TimeAllySIP.sol\":1419:1438  msg.sender == owner */\n      0xffffffffffffffffffffffffffffffffffffffff\n      and\n        /* \"TimeAllySIP.sol\":1419:1429  msg.sender */\n      caller\n        /* \"TimeAllySIP.sol\":1419:1438  msg.sender == owner */\n      0xffffffffffffffffffffffffffffffffffffffff\n      and\n      eq\n        /* \"TimeAllySIP.sol\":1411:1465  require(msg.sender == owner, 'only deployer can call') */\n      tag_34\n      jumpi\n      mload(0x40)\n      0x08c379a000000000000000000000000000000000000000000000000000000000\n      dup2\n      mstore\n      0x04\n      add\n      dup1\n      dup1\n      0x20\n      add\n      dup3\n      dup2\n      sub\n      dup3\n      mstore\n      0x16\n      dup2\n      mstore\n      0x20\n      add\n      dup1\n      0x6f6e6c79206465706c6f7965722063616e2063616c6c00000000000000000000\n      dup2\n      mstore\n      pop\n      0x20\n      add\n      swap2\n      pop\n      pop\n      mload(0x40)\n      dup1\n      swap2\n      sub\n      swap1\n      revert\n    tag_34:\n        /* \"TimeAllySIP.sol\":1867:1875  sipPlans */\n      0x03\n        /* \"TimeAllySIP.sol\":1881:2289  SIPPlan({... */\n      mload(0x40)\n      dup1\n      0x0100\n      add\n      0x40\n      mstore\n      dup1\n        /* \"TimeAllySIP.sol\":1911:1915  true */\n      0x01\n        /* \"TimeAllySIP.sol\":1881:2289  SIPPlan({... */\n      iszero\n      iszero\n      dup2\n      mstore\n      0x20\n      add\n        /* \"TimeAllySIP.sol\":2014:2045  _minimumMonthlyCommitmentAmount */\n      dup10\n        /* \"TimeAllySIP.sol\":1881:2289  SIPPlan({... */\n      dup2\n      mstore\n      0x20\n      add\n        /* \"TimeAllySIP.sol\":1949:1974  _accumulationPeriodMonths */\n      dup9\n        /* \"TimeAllySIP.sol\":1881:2289  SIPPlan({... */\n      dup2\n      mstore\n      0x20\n      add\n        /* \"TimeAllySIP.sol\":2073:2092  _benefitPeriodYears */\n      dup8\n        /* \"TimeAllySIP.sol\":1881:2289  SIPPlan({... */\n      dup2\n      mstore\n      0x20\n      add\n        /* \"TimeAllySIP.sol\":2120:2139  _gracePeriodSeconds */\n      dup7\n        /* \"TimeAllySIP.sol\":1881:2289  SIPPlan({... */\n      dup2\n      mstore\n      0x20\n      add\n        /* \"TimeAllySIP.sol\":2168:2188  _onTimeBenefitFactor */\n      dup6\n        /* \"TimeAllySIP.sol\":1881:2289  SIPPlan({... */\n      dup2\n      mstore\n      0x20\n      add\n        /* \"TimeAllySIP.sol\":2216:2235  _graceBenefitFactor */\n      dup5\n        /* \"TimeAllySIP.sol\":1881:2289  SIPPlan({... */\n      dup2\n      mstore\n      0x20\n      add\n        /* \"TimeAllySIP.sol\":2263:2282  _topupBenefitFactor */\n      dup4\n        /* \"TimeAllySIP.sol\":1881:2289  SIPPlan({... */\n      dup2\n      mstore\n      pop\n        /* \"TimeAllySIP.sol\":1867:2290  sipPlans.push(SIPPlan({... */\n      swap1\n      dup1\n        /* \"--CODEGEN--\":39:40   */\n      0x01\n        /* \"--CODEGEN--\":33:36   */\n      dup2\n        /* \"--CODEGEN--\":27:37   */\n      sload\n        /* \"--CODEGEN--\":23:41   */\n      add\n        /* \"--CODEGEN--\":57:67   */\n      dup1\n        /* \"--CODEGEN--\":52:55   */\n      dup3\n        /* \"--CODEGEN--\":45:68   */\n      sstore\n        /* \"--CODEGEN--\":79:89   */\n      dup1\n        /* \"--CODEGEN--\":72:89   */\n      swap2\n      pop\n        /* \"--CODEGEN--\":0:93   */\n      pop\n        /* \"TimeAllySIP.sol\":1867:2290  sipPlans.push(SIPPlan({... */\n      swap1\n      0x01\n      dup3\n      sub\n      swap1\n      0x00\n      mstore\n      keccak256(0x00, 0x20)\n      swap1\n      0x08\n      mul\n      add\n      0x00\n      swap1\n      swap2\n      swap3\n      swap1\n      swap2\n      swap1\n      swap2\n      pop\n      0x00\n      dup3\n      add\n      mload\n      dup2\n      0x00\n      add\n      exp(0x0100, 0x00)\n      dup2\n      sload\n      dup2\n      0xff\n      mul\n      not\n      and\n      swap1\n      dup4\n      iszero\n      iszero\n      mul\n      or\n      swap1\n      sstore\n      pop\n      0x20\n      dup3\n      add\n      mload\n      dup2\n      0x01\n      add\n      sstore\n      0x40\n      dup3\n      add\n      mload\n      dup2\n      0x02\n      add\n      sstore\n      0x60\n      dup3\n      add\n      mload\n      dup2\n      0x03\n      add\n      sstore\n      0x80\n      dup3\n      add\n      mload\n      dup2\n      0x04\n      add\n      sstore\n      0xa0\n      dup3\n      add\n      mload\n      dup2\n      0x05\n      add\n      sstore\n      0xc0\n      dup3\n      add\n      mload\n      dup2\n      0x06\n      add\n      sstore\n      0xe0\n      dup3\n      add\n      mload\n      dup2\n      0x07\n      add\n      sstore\n      pop\n      pop\n      pop\n        /* \"TimeAllySIP.sol\":1567:2295  function createSIPPlan(... */\n      pop\n      pop\n      pop\n      pop\n      pop\n      pop\n      pop\n      jump\t// out\n        /* \"TimeAllySIP.sol\":3690:3780  function monthlyDeposit(... */\n    tag_17:\n      pop\n      pop\n      jump\t// out\n        /* \"TimeAllySIP.sol\":2299:3686  function newSIP(... */\n    tag_20:\n        /* \"TimeAllySIP.sol\":2434:2442  sipPlans */\n      0x03\n        /* \"TimeAllySIP.sol\":2443:2450  _planId */\n      dup3\n        /* \"TimeAllySIP.sol\":2434:2451  sipPlans[_planId] */\n      dup2\n      sload\n      dup2\n      lt\n      tag_39\n      jumpi\n      invalid\n    tag_39:\n      swap1\n      0x00\n      mstore\n      keccak256(0x00, 0x20)\n      swap1\n      0x08\n      mul\n      add\n        /* \"TimeAllySIP.sol\":2434:2482  sipPlans[_planId].minimumMonthlyCommitmentAmount */\n      0x01\n      add\n      sload\n        /* \"TimeAllySIP.sol\":2406:2430  _monthlyCommitmentAmount */\n      dup2\n        /* \"TimeAllySIP.sol\":2406:2482  _monthlyCommitmentAmount >= sipPlans[_planId].minimumMonthlyCommitmentAmount */\n      lt\n      iszero\n        /* \"TimeAllySIP.sol\":2391:2531  require(... */\n      tag_41\n      jumpi\n      mload(0x40)\n      0x08c379a000000000000000000000000000000000000000000000000000000000\n      dup2\n      mstore\n      0x04\n      add\n      dup1\n      dup1\n      0x20\n      add\n      dup3\n      dup2\n      sub\n      dup3\n      mstore\n      0x20\n      dup2\n      mstore\n      0x20\n      add\n      dup1\n      0x616d6f756e742073686f756c642062652061746c65617374206d696e696d756d\n      dup2\n      mstore\n      pop\n      0x20\n      add\n      swap2\n      pop\n      pop\n      mload(0x40)\n      dup1\n      swap2\n      sub\n      swap1\n      revert\n    tag_41:\n        /* \"TimeAllySIP.sol\":2545:2550  token */\n      0x01\n      0x00\n      swap1\n      sload\n      swap1\n      0x0100\n      exp\n      swap1\n      div\n      0xffffffffffffffffffffffffffffffffffffffff\n      and\n        /* \"TimeAllySIP.sol\":2545:2563  token.transferFrom */\n      0xffffffffffffffffffffffffffffffffffffffff\n      and\n      0x23b872dd\n        /* \"TimeAllySIP.sol\":2564:2574  msg.sender */\n      caller\n        /* \"TimeAllySIP.sol\":2584:2588  this */\n      address\n        /* \"TimeAllySIP.sol\":2591:2615  _monthlyCommitmentAmount */\n      dup5\n        /* \"TimeAllySIP.sol\":2545:2616  token.transferFrom(msg.sender, address(this), _monthlyCommitmentAmount) */\n      mload(0x40)\n      dup5\n      0xffffffff\n      and\n      0xe0\n      shl\n      dup2\n      mstore\n      0x04\n      add\n      dup1\n      dup5\n      0xffffffffffffffffffffffffffffffffffffffff\n      and\n      0xffffffffffffffffffffffffffffffffffffffff\n      and\n      dup2\n      mstore\n      0x20\n      add\n      dup4\n      0xffffffffffffffffffffffffffffffffffffffff\n      and\n      0xffffffffffffffffffffffffffffffffffffffff\n      and\n      dup2\n      mstore\n      0x20\n      add\n      dup3\n      dup2\n      mstore\n      0x20\n      add\n      swap4\n      pop\n      pop\n      pop\n      pop\n      0x20\n      mload(0x40)\n      dup1\n      dup4\n      sub\n      dup2\n      0x00\n      dup8\n      dup1\n      extcodesize\n      iszero\n        /* \"--CODEGEN--\":8:17   */\n      dup1\n        /* \"--CODEGEN--\":5:7   */\n      iszero\n      tag_42\n      jumpi\n        /* \"--CODEGEN--\":30:31   */\n      0x00\n        /* \"--CODEGEN--\":27:28   */\n      dup1\n        /* \"--CODEGEN--\":20:32   */\n      revert\n        /* \"--CODEGEN--\":5:7   */\n    tag_42:\n        /* \"TimeAllySIP.sol\":2545:2616  token.transferFrom(msg.sender, address(this), _monthlyCommitmentAmount) */\n      pop\n      gas\n      call\n      iszero\n        /* \"--CODEGEN--\":8:17   */\n      dup1\n        /* \"--CODEGEN--\":5:7   */\n      iszero\n      tag_43\n      jumpi\n        /* \"--CODEGEN--\":45:61   */\n      returndatasize\n        /* \"--CODEGEN--\":42:43   */\n      0x00\n        /* \"--CODEGEN--\":39:40   */\n      dup1\n        /* \"--CODEGEN--\":24:62   */\n      returndatacopy\n        /* \"--CODEGEN--\":77:93   */\n      returndatasize\n        /* \"--CODEGEN--\":74:75   */\n      0x00\n        /* \"--CODEGEN--\":67:94   */\n      revert\n        /* \"--CODEGEN--\":5:7   */\n    tag_43:\n        /* \"TimeAllySIP.sol\":2545:2616  token.transferFrom(msg.sender, address(this), _monthlyCommitmentAmount) */\n      pop\n      pop\n      pop\n      pop\n      mload(0x40)\n      returndatasize\n        /* \"--CODEGEN--\":13:15   */\n      0x20\n        /* \"--CODEGEN--\":8:11   */\n      dup2\n        /* \"--CODEGEN--\":5:16   */\n      lt\n        /* \"--CODEGEN--\":2:4   */\n      iszero\n      tag_44\n      jumpi\n        /* \"--CODEGEN--\":29:30   */\n      0x00\n        /* \"--CODEGEN--\":26:27   */\n      dup1\n        /* \"--CODEGEN--\":19:31   */\n      revert\n        /* \"--CODEGEN--\":2:4   */\n    tag_44:\n        /* \"TimeAllySIP.sol\":2545:2616  token.transferFrom(msg.sender, address(this), _monthlyCommitmentAmount) */\n      dup2\n      add\n      swap1\n      dup1\n      dup1\n      mload\n      swap1\n      0x20\n      add\n      swap1\n      swap3\n      swap2\n      swap1\n      pop\n      pop\n      pop\n        /* \"TimeAllySIP.sol\":2537:2617  require(token.transferFrom(msg.sender, address(this), _monthlyCommitmentAmount)) */\n      tag_45\n      jumpi\n      0x00\n      dup1\n      revert\n    tag_45:\n        /* \"TimeAllySIP.sol\":3174:3178  sips */\n      0x04\n        /* \"TimeAllySIP.sol\":3174:3190  sips[msg.sender] */\n      0x00\n        /* \"TimeAllySIP.sol\":3179:3189  msg.sender */\n      caller\n        /* \"TimeAllySIP.sol\":3174:3190  sips[msg.sender] */\n      0xffffffffffffffffffffffffffffffffffffffff\n      and\n      0xffffffffffffffffffffffffffffffffffffffff\n      and\n      dup2\n      mstore\n      0x20\n      add\n      swap1\n      dup2\n      mstore\n      0x20\n      add\n      0x00\n      keccak256\n        /* \"TimeAllySIP.sol\":3196:3484  SIP({... */\n      mload(0x40)\n      dup1\n      0xc0\n      add\n      0x40\n      mstore\n      dup1\n        /* \"TimeAllySIP.sol\":3216:3223  _planId */\n      dup5\n        /* \"TimeAllySIP.sol\":3196:3484  SIP({... */\n      dup2\n      mstore\n      0x20\n      add\n        /* \"TimeAllySIP.sol\":3249:3252  now */\n      timestamp\n        /* \"TimeAllySIP.sol\":3196:3484  SIP({... */\n      dup2\n      mstore\n      0x20\n      add\n        /* \"TimeAllySIP.sol\":3285:3309  _monthlyCommitmentAmount */\n      dup4\n        /* \"TimeAllySIP.sol\":3196:3484  SIP({... */\n      dup2\n      mstore\n      0x20\n      add\n        /* \"TimeAllySIP.sol\":3328:3329  0 */\n      0x00\n        /* \"TimeAllySIP.sol\":3196:3484  SIP({... */\n      dup2\n      mstore\n      0x20\n      add\n        /* \"TimeAllySIP.sol\":3359:3425  _monthlyCommitmentAmount.mul(sipPlans[_planId].benefitPeriodYears) */\n      tag_46\n        /* \"TimeAllySIP.sol\":3388:3396  sipPlans */\n      0x03\n        /* \"TimeAllySIP.sol\":3397:3404  _planId */\n      dup7\n        /* \"TimeAllySIP.sol\":3388:3405  sipPlans[_planId] */\n      dup2\n      sload\n      dup2\n      lt\n      tag_47\n      jumpi\n      invalid\n    tag_47:\n      swap1\n      0x00\n      mstore\n      keccak256(0x00, 0x20)\n      swap1\n      0x08\n      mul\n      add\n        /* \"TimeAllySIP.sol\":3388:3424  sipPlans[_planId].benefitPeriodYears */\n      0x03\n      add\n      sload\n        /* \"TimeAllySIP.sol\":3359:3383  _monthlyCommitmentAmount */\n      dup6\n        /* \"TimeAllySIP.sol\":3359:3387  _monthlyCommitmentAmount.mul */\n      tag_49\n      swap1\n        /* \"TimeAllySIP.sol\":3359:3425  _monthlyCommitmentAmount.mul(sipPlans[_planId].benefitPeriodYears) */\n      swap2\n      swap1\n      0xffffffff\n      and\n      jump\t// in\n    tag_46:\n        /* \"TimeAllySIP.sol\":3196:3484  SIP({... */\n      dup2\n      mstore\n      0x20\n      add\n        /* \"TimeAllySIP.sol\":3453:3477  _monthlyCommitmentAmount */\n      dup4\n        /* \"TimeAllySIP.sol\":3196:3484  SIP({... */\n      dup2\n      mstore\n      pop\n        /* \"TimeAllySIP.sol\":3174:3485  sips[msg.sender].push(SIP({... */\n      swap1\n      dup1\n        /* \"--CODEGEN--\":39:40   */\n      0x01\n        /* \"--CODEGEN--\":33:36   */\n      dup2\n        /* \"--CODEGEN--\":27:37   */\n      sload\n        /* \"--CODEGEN--\":23:41   */\n      add\n        /* \"--CODEGEN--\":57:67   */\n      dup1\n        /* \"--CODEGEN--\":52:55   */\n      dup3\n        /* \"--CODEGEN--\":45:68   */\n      sstore\n        /* \"--CODEGEN--\":79:89   */\n      dup1\n        /* \"--CODEGEN--\":72:89   */\n      swap2\n      pop\n        /* \"--CODEGEN--\":0:93   */\n      pop\n        /* \"TimeAllySIP.sol\":3174:3485  sips[msg.sender].push(SIP({... */\n      swap1\n      0x01\n      dup3\n      sub\n      swap1\n      0x00\n      mstore\n      keccak256(0x00, 0x20)\n      swap1\n      0x07\n      mul\n      add\n      0x00\n      swap1\n      swap2\n      swap3\n      swap1\n      swap2\n      swap1\n      swap2\n      pop\n      0x00\n      dup3\n      add\n      mload\n      dup2\n      0x00\n      add\n      sstore\n      0x20\n      dup3\n      add\n      mload\n      dup2\n      0x01\n      add\n      sstore\n      0x40\n      dup3\n      add\n      mload\n      dup2\n      0x02\n      add\n      sstore\n      0x60\n      dup3\n      add\n      mload\n      dup2\n      0x03\n      add\n      sstore\n      0x80\n      dup3\n      add\n      mload\n      dup2\n      0x04\n      add\n      sstore\n      0xa0\n      dup3\n      add\n      mload\n      dup2\n      0x05\n      add\n      sstore\n      pop\n      pop\n      pop\n        /* \"TimeAllySIP.sol\":3492:3506  uint256 _sipId */\n      0x00\n        /* \"TimeAllySIP.sol\":3535:3536  1 */\n      0x01\n        /* \"TimeAllySIP.sol\":3509:3513  sips */\n      0x04\n        /* \"TimeAllySIP.sol\":3509:3525  sips[msg.sender] */\n      0x00\n        /* \"TimeAllySIP.sol\":3514:3524  msg.sender */\n      caller\n        /* \"TimeAllySIP.sol\":3509:3525  sips[msg.sender] */\n      0xffffffffffffffffffffffffffffffffffffffff\n      and\n      0xffffffffffffffffffffffffffffffffffffffff\n      and\n      dup2\n      mstore\n      0x20\n      add\n      swap1\n      dup2\n      mstore\n      0x20\n      add\n      0x00\n      keccak256\n        /* \"TimeAllySIP.sol\":3509:3532  sips[msg.sender].length */\n      dup1\n      sload\n      swap1\n      pop\n        /* \"TimeAllySIP.sol\":3509:3536  sips[msg.sender].length - 1 */\n      sub\n        /* \"TimeAllySIP.sol\":3492:3536  uint256 _sipId = sips[msg.sender].length - 1 */\n      swap1\n      pop\n        /* \"TimeAllySIP.sol\":3593:3617  _monthlyCommitmentAmount */\n      dup2\n        /* \"TimeAllySIP.sol\":3542:3546  sips */\n      0x04\n        /* \"TimeAllySIP.sol\":3542:3558  sips[msg.sender] */\n      0x00\n        /* \"TimeAllySIP.sol\":3547:3557  msg.sender */\n      caller\n        /* \"TimeAllySIP.sol\":3542:3558  sips[msg.sender] */\n      0xffffffffffffffffffffffffffffffffffffffff\n      and\n      0xffffffffffffffffffffffffffffffffffffffff\n      and\n      dup2\n      mstore\n      0x20\n      add\n      swap1\n      dup2\n      mstore\n      0x20\n      add\n      0x00\n      keccak256\n        /* \"TimeAllySIP.sol\":3559:3565  _sipId */\n      dup3\n        /* \"TimeAllySIP.sol\":3542:3566  sips[msg.sender][_sipId] */\n      dup2\n      sload\n      dup2\n      lt\n      tag_51\n      jumpi\n      invalid\n    tag_51:\n      swap1\n      0x00\n      mstore\n      keccak256(0x00, 0x20)\n      swap1\n      0x07\n      mul\n      add\n        /* \"TimeAllySIP.sol\":3542:3587  sips[msg.sender][_sipId].monthlyBenefitAmount */\n      0x06\n      add\n        /* \"TimeAllySIP.sol\":3542:3590  sips[msg.sender][_sipId].monthlyBenefitAmount[1] */\n      0x00\n        /* \"TimeAllySIP.sol\":3588:3589  1 */\n      0x01\n        /* \"TimeAllySIP.sol\":3542:3590  sips[msg.sender][_sipId].monthlyBenefitAmount[1] */\n      dup2\n      mstore\n      0x20\n      add\n      swap1\n      dup2\n      mstore\n      0x20\n      add\n      0x00\n      keccak256\n        /* \"TimeAllySIP.sol\":3542:3617  sips[msg.sender][_sipId].monthlyBenefitAmount[1] = _monthlyCommitmentAmount */\n      dup2\n      swap1\n      sstore\n      pop\n        /* \"TimeAllySIP.sol\":3636:3646  msg.sender */\n      caller\n        /* \"TimeAllySIP.sol\":3629:3681  NewSIP(msg.sender, _sipId, _monthlyCommitmentAmount) */\n      0xffffffffffffffffffffffffffffffffffffffff\n      and\n      0x1dec97fc36aa6dfa81b208ec37b3ac8dae30717f0622f9cfb2e7223dc95326ec\n        /* \"TimeAllySIP.sol\":3648:3654  _sipId */\n      dup3\n        /* \"TimeAllySIP.sol\":3656:3680  _monthlyCommitmentAmount */\n      dup5\n        /* \"TimeAllySIP.sol\":3629:3681  NewSIP(msg.sender, _sipId, _monthlyCommitmentAmount) */\n      mload(0x40)\n      dup1\n      dup4\n      dup2\n      mstore\n      0x20\n      add\n      dup3\n      dup2\n      mstore\n      0x20\n      add\n      swap3\n      pop\n      pop\n      pop\n      mload(0x40)\n      dup1\n      swap2\n      sub\n      swap1\n      log2\n        /* \"TimeAllySIP.sol\":2299:3686  function newSIP(... */\n      pop\n      pop\n      pop\n      jump\t// out\n        /* \"TimeAllySIP.sol\":1154:1198  uint256 public earthSecondsInMonth = 2629744 */\n    tag_22:\n      sload(0x02)\n      dup2\n      jump\t// out\n        /* \"TimeAllySIP.sol\":1044:1064  address public owner */\n    tag_24:\n      0x00\n      dup1\n      swap1\n      sload\n      swap1\n      0x0100\n      exp\n      swap1\n      div\n      0xffffffffffffffffffffffffffffffffffffffff\n      and\n      dup2\n      jump\t// out\n        /* \"TimeAllySIP.sol\":1203:1228  SIPPlan[] public sipPlans */\n    tag_27:\n      0x03\n      dup2\n      dup2\n      sload\n      dup2\n      lt\n      tag_53\n      jumpi\n      invalid\n    tag_53:\n      swap1\n      0x00\n      mstore\n      keccak256(0x00, 0x20)\n      swap1\n      0x08\n      mul\n      add\n      0x00\n      swap2\n      pop\n      swap1\n      pop\n      dup1\n      0x00\n      add\n      0x00\n      swap1\n      sload\n      swap1\n      0x0100\n      exp\n      swap1\n      div\n      0xff\n      and\n      swap1\n      dup1\n      0x01\n      add\n      sload\n      swap1\n      dup1\n      0x02\n      add\n      sload\n      swap1\n      dup1\n      0x03\n      add\n      sload\n      swap1\n      dup1\n      0x04\n      add\n      sload\n      swap1\n      dup1\n      0x05\n      add\n      sload\n      swap1\n      dup1\n      0x06\n      add\n      sload\n      swap1\n      dup1\n      0x07\n      add\n      sload\n      swap1\n      pop\n      dup9\n      jump\t// out\n        /* \"TimeAllySIP.sol\":1233:1270  mapping(address => SIP[]) public sips */\n    tag_30:\n      mstore(0x20, 0x04)\n      dup2\n      0x00\n      mstore\n      keccak256(0x00, 0x40)\n      dup2\n      dup2\n      sload\n      dup2\n      lt\n      tag_55\n      jumpi\n      invalid\n    tag_55:\n      swap1\n      0x00\n      mstore\n      keccak256(0x00, 0x20)\n      swap1\n      0x07\n      mul\n      add\n      0x00\n      swap2\n      pop\n      swap2\n      pop\n      pop\n      dup1\n      0x00\n      add\n      sload\n      swap1\n      dup1\n      0x01\n      add\n      sload\n      swap1\n      dup1\n      0x02\n      add\n      sload\n      swap1\n      dup1\n      0x03\n      add\n      sload\n      swap1\n      dup1\n      0x04\n      add\n      sload\n      swap1\n      dup1\n      0x05\n      add\n      sload\n      swap1\n      pop\n      dup7\n      jump\t// out\n        /* \"TimeAllySIP.sol\":1068:1086  ERC20 public token */\n    tag_32:\n      0x01\n      0x00\n      swap1\n      sload\n      swap1\n      0x0100\n      exp\n      swap1\n      div\n      0xffffffffffffffffffffffffffffffffffffffff\n      and\n      dup2\n      jump\t// out\n        /* \"SafeMath.sol\":2271:2730  function mul(uint256 a, uint256 b) internal pure returns (uint256) {... */\n    tag_49:\n        /* \"SafeMath.sol\":2329:2336  uint256 */\n      0x00\n        /* \"SafeMath.sol\":2575:2576  0 */\n      dup1\n        /* \"SafeMath.sol\":2570:2571  a */\n      dup4\n        /* \"SafeMath.sol\":2570:2576  a == 0 */\n      eq\n        /* \"SafeMath.sol\":2566:2611  if (a == 0) {... */\n      iszero\n      tag_58\n      jumpi\n        /* \"SafeMath.sol\":2599:2600  0 */\n      0x00\n        /* \"SafeMath.sol\":2592:2600  return 0 */\n      swap1\n      pop\n      jump(tag_57)\n        /* \"SafeMath.sol\":2566:2611  if (a == 0) {... */\n    tag_58:\n        /* \"SafeMath.sol\":2621:2630  uint256 c */\n      0x00\n        /* \"SafeMath.sol\":2637:2638  b */\n      dup3\n        /* \"SafeMath.sol\":2633:2634  a */\n      dup5\n        /* \"SafeMath.sol\":2633:2638  a * b */\n      mul\n        /* \"SafeMath.sol\":2621:2638  uint256 c = a * b */\n      swap1\n      pop\n        /* \"SafeMath.sol\":2665:2666  b */\n      dup3\n        /* \"SafeMath.sol\":2660:2661  a */\n      dup5\n        /* \"SafeMath.sol\":2656:2657  c */\n      dup3\n        /* \"SafeMath.sol\":2656:2661  c / a */\n      dup2\n      tag_59\n      jumpi\n      invalid\n    tag_59:\n      div\n        /* \"SafeMath.sol\":2656:2666  c / a == b */\n      eq\n        /* \"SafeMath.sol\":2648:2704  require(c / a == b, \"SafeMath: multiplication overflow\") */\n      tag_60\n      jumpi\n      mload(0x40)\n      0x08c379a000000000000000000000000000000000000000000000000000000000\n      dup2\n      mstore\n      0x04\n      add\n      dup1\n      dup1\n      0x20\n      add\n      dup3\n      dup2\n      sub\n      dup3\n      mstore\n      0x21\n      dup2\n      mstore\n      0x20\n      add\n      dup1\n      data_9113bb53c2876a3805b2c9242029423fc540a728243ce887ab24c82cf119fba3\n      0x21\n      swap2\n      codecopy\n      0x40\n      add\n      swap2\n      pop\n      pop\n      mload(0x40)\n      dup1\n      swap2\n      sub\n      swap1\n      revert\n    tag_60:\n        /* \"SafeMath.sol\":2722:2723  c */\n      dup1\n        /* \"SafeMath.sol\":2715:2723  return c */\n      swap2\n      pop\n      pop\n        /* \"SafeMath.sol\":2271:2730  function mul(uint256 a, uint256 b) internal pure returns (uint256) {... */\n    tag_57:\n      swap3\n      swap2\n      pop\n      pop\n      jump\t// out\n    stop\n    data_9113bb53c2876a3805b2c9242029423fc540a728243ce887ab24c82cf119fba3 536166654d6174683a206d756c7469706c69636174696f6e206f766572666c6f77\n\n    auxdata: 0xa265627a7a72315820f945a04244d1f6f5d064e75bafb205b3db11c38a2a60e0dd48713fec5e4ac8af64736f6c634300050c0032\n}\n","bytecode":{"linkReferences":{},"object":"60806040526228207060025534801561001757600080fd5b50604051610b4b380380610b4b8339818101604052602081101561003a57600080fd5b8101908080519060200190929190505050336000806101000a81548173ffffffffffffffffffffffffffffffffffffffff021916908373ffffffffffffffffffffffffffffffffffffffff16021790555080600160006101000a81548173ffffffffffffffffffffffffffffffffffffffff021916908373ffffffffffffffffffffffffffffffffffffffff16021790555050610a6f806100dc6000396000f3fe608060405234801561001057600080fd5b50600436106100885760003560e01c80638da5cb5b1161005b5780638da5cb5b14610185578063ef4ffe57146101cf578063f926b17a14610246578063fc0c546a146102cb57610088565b8063295226c51461008d5780633c8e01d4146100f757806353c0fb471461012f578063582e7e9e14610167575b600080fd5b6100f5600480360360e08110156100a357600080fd5b8101908080359060200190929190803590602001909291908035906020019092919080359060200190929190803590602001909291908035906020019092919080359060200190929190505050610315565b005b61012d6004803603604081101561010d57600080fd5b8101908080359060200190929190803590602001909291905050506104b3565b005b6101656004803603604081101561014557600080fd5b8101908080359060200190929190803590602001909291905050506104b7565b005b61016f61088a565b6040518082815260200191505060405180910390f35b61018d610890565b604051808273ffffffffffffffffffffffffffffffffffffffff1673ffffffffffffffffffffffffffffffffffffffff16815260200191505060405180910390f35b6101fb600480360360208110156101e557600080fd5b81019080803590602001909291905050506108b5565b60405180891515151581526020018881526020018781526020018681526020018581526020018481526020018381526020018281526020019850505050505050505060405180910390f35b6102926004803603604081101561025c57600080fd5b81019080803573ffffffffffffffffffffffffffffffffffffffff16906020019092919080359060200190929190505050610917565b60405180878152602001868152602001858152602001848152602001838152602001828152602001965050505050505060405180910390f35b6102d361096d565b604051808273ffffffffffffffffffffffffffffffffffffffff1673ffffffffffffffffffffffffffffffffffffffff16815260200191505060405180910390f35b6000809054906101000a900473ffffffffffffffffffffffffffffffffffffffff1673ffffffffffffffffffffffffffffffffffffffff163373ffffffffffffffffffffffffffffffffffffffff16146103d7576040517f08c379a00000000000000000000000000000000000000000000000000000000081526004018080602001828103825260168152602001807f6f6e6c79206465706c6f7965722063616e2063616c6c0000000000000000000081525060200191505060405180910390fd5b6003604051806101000160405280600115158152602001898152602001888152602001878152602001868152602001858152602001848152602001838152509080600181540180825580915050906001820390600052602060002090600802016000909192909190915060008201518160000160006101000a81548160ff0219169083151502179055506020820151816001015560408201518160020155606082015181600301556080820151816004015560a0820151816005015560c0820151816006015560e0820151816007015550505050505050505050565b5050565b600382815481106104c457fe5b90600052602060002090600802016001015481101561054b576040517f08c379a00000000000000000000000000000000000000000000000000000000081526004018080602001828103825260208152602001807f616d6f756e742073686f756c642062652061746c65617374206d696e696d756d81525060200191505060405180910390fd5b600160009054906101000a900473ffffffffffffffffffffffffffffffffffffffff1673ffffffffffffffffffffffffffffffffffffffff166323b872dd3330846040518463ffffffff1660e01b8152600401808473ffffffffffffffffffffffffffffffffffffffff1673ffffffffffffffffffffffffffffffffffffffff1681526020018373ffffffffffffffffffffffffffffffffffffffff1673ffffffffffffffffffffffffffffffffffffffff1681526020018281526020019350505050602060405180830381600087803b15801561062857600080fd5b505af115801561063c573d6000803e3d6000fd5b505050506040513d602081101561065257600080fd5b810190808051906020019092919050505061066c57600080fd5b600460003373ffffffffffffffffffffffffffffffffffffffff1673ffffffffffffffffffffffffffffffffffffffff1681526020019081526020016000206040518060c0016040528084815260200142815260200183815260200160008152602001610700600386815481106106df57fe5b9060005260206000209060080201600301548561099390919063ffffffff16565b81526020018381525090806001815401808255809150509060018203906000526020600020906007020160009091929091909150600082015181600001556020820151816001015560408201518160020155606082015181600301556080820151816004015560a0820151816005015550505060006001600460003373ffffffffffffffffffffffffffffffffffffffff1673ffffffffffffffffffffffffffffffffffffffff1681526020019081526020016000208054905003905081600460003373ffffffffffffffffffffffffffffffffffffffff1673ffffffffffffffffffffffffffffffffffffffff168152602001908152602001600020828154811061080857fe5b9060005260206000209060070201600601600060018152602001908152602001600020819055503373ffffffffffffffffffffffffffffffffffffffff167f1dec97fc36aa6dfa81b208ec37b3ac8dae30717f0622f9cfb2e7223dc95326ec8284604051808381526020018281526020019250505060405180910390a2505050565b60025481565b6000809054906101000a900473ffffffffffffffffffffffffffffffffffffffff1681565b600381815481106108c257fe5b90600052602060002090600802016000915090508060000160009054906101000a900460ff16908060010154908060020154908060030154908060040154908060050154908060060154908060070154905088565b6004602052816000526040600020818154811061093057fe5b9060005260206000209060070201600091509150508060000154908060010154908060020154908060030154908060040154908060050154905086565b600160009054906101000a900473ffffffffffffffffffffffffffffffffffffffff1681565b6000808314156109a65760009050610a13565b60008284029050828482816109b757fe5b0414610a0e576040517f08c379a0000000000000000000000000000000000000000000000000000000008152600401808060200182810382526021815260200180610a1a6021913960400191505060405180910390fd5b809150505b9291505056fe536166654d6174683a206d756c7469706c69636174696f6e206f766572666c6f77a265627a7a72315820f945a04244d1f6f5d064e75bafb205b3db11c38a2a60e0dd48713fec5e4ac8af64736f6c634300050c0032","opcodes":"PUSH1 0x80 PUSH1 0x40 MSTORE PUSH3 0x282070 PUSH1 0x2 SSTORE CALLVALUE DUP1 ISZERO PUSH2 0x17 JUMPI PUSH1 0x0 DUP1 REVERT JUMPDEST POP PUSH1 0x40 MLOAD PUSH2 0xB4B CODESIZE SUB DUP1 PUSH2 0xB4B DUP4 CODECOPY DUP2 DUP2 ADD PUSH1 0x40 MSTORE PUSH1 0x20 DUP2 LT ISZERO PUSH2 0x3A JUMPI PUSH1 0x0 DUP1 REVERT JUMPDEST DUP2 ADD SWAP1 DUP1 DUP1 MLOAD SWAP1 PUSH1 0x20 ADD SWAP1 SWAP3 SWAP2 SWAP1 POP POP POP CALLER PUSH1 0x0 DUP1 PUSH2 0x100 EXP DUP2 SLOAD DUP2 PUSH20 0xFFFFFFFFFFFFFFFFFFFFFFFFFFFFFFFFFFFFFFFF MUL NOT AND SWAP1 DUP4 PUSH20 0xFFFFFFFFFFFFFFFFFFFFFFFFFFFFFFFFFFFFFFFF AND MUL OR SWAP1 SSTORE POP DUP1 PUSH1 0x1 PUSH1 0x0 PUSH2 0x100 EXP DUP2 SLOAD DUP2 PUSH20 0xFFFFFFFFFFFFFFFFFFFFFFFFFFFFFFFFFFFFFFFF MUL NOT AND SWAP1 DUP4 PUSH20 0xFFFFFFFFFFFFFFFFFFFFFFFFFFFFFFFFFFFFFFFF AND MUL OR SWAP1 SSTORE POP POP PUSH2 0xA6F DUP1 PUSH2 0xDC PUSH1 0x0 CODECOPY PUSH1 0x0 RETURN INVALID PUSH1 0x80 PUSH1 0x40 MSTORE CALLVALUE DUP1 ISZERO PUSH2 0x10 JUMPI PUSH1 0x0 DUP1 REVERT JUMPDEST POP PUSH1 0x4 CALLDATASIZE LT PUSH2 0x88 JUMPI PUSH1 0x0 CALLDATALOAD PUSH1 0xE0 SHR DUP1 PUSH4 0x8DA5CB5B GT PUSH2 0x5B JUMPI DUP1 PUSH4 0x8DA5CB5B EQ PUSH2 0x185 JUMPI DUP1 PUSH4 0xEF4FFE57 EQ PUSH2 0x1CF JUMPI DUP1 PUSH4 0xF926B17A EQ PUSH2 0x246 JUMPI DUP1 PUSH4 0xFC0C546A EQ PUSH2 0x2CB JUMPI PUSH2 0x88 JUMP JUMPDEST DUP1 PUSH4 0x295226C5 EQ PUSH2 0x8D JUMPI DUP1 PUSH4 0x3C8E01D4 EQ PUSH2 0xF7 JUMPI DUP1 PUSH4 0x53C0FB47 EQ PUSH2 0x12F JUMPI DUP1 PUSH4 0x582E7E9E EQ PUSH2 0x167 JUMPI JUMPDEST PUSH1 0x0 DUP1 REVERT JUMPDEST PUSH2 0xF5 PUSH1 0x4 DUP1 CALLDATASIZE SUB PUSH1 0xE0 DUP2 LT ISZERO PUSH2 0xA3 JUMPI PUSH1 0x0 DUP1 REVERT JUMPDEST DUP2 ADD SWAP1 DUP1 DUP1 CALLDATALOAD SWAP1 PUSH1 0x20 ADD SWAP1 SWAP3 SWAP2 SWAP1 DUP1 CALLDATALOAD SWAP1 PUSH1 0x20 ADD SWAP1 SWAP3 SWAP2 SWAP1 DUP1 CALLDATALOAD SWAP1 PUSH1 0x20 ADD SWAP1 SWAP3 SWAP2 SWAP1 DUP1 CALLDATALOAD SWAP1 PUSH1 0x20 ADD SWAP1 SWAP3 SWAP2 SWAP1 DUP1 CALLDATALOAD SWAP1 PUSH1 0x20 ADD SWAP1 SWAP3 SWAP2 SWAP1 DUP1 CALLDATALOAD SWAP1 PUSH1 0x20 ADD SWAP1 SWAP3 SWAP2 SWAP1 DUP1 CALLDATALOAD SWAP1 PUSH1 0x20 ADD SWAP1 SWAP3 SWAP2 SWAP1 POP POP POP PUSH2 0x315 JUMP JUMPDEST STOP JUMPDEST PUSH2 0x12D PUSH1 0x4 DUP1 CALLDATASIZE SUB PUSH1 0x40 DUP2 LT ISZERO PUSH2 0x10D JUMPI PUSH1 0x0 DUP1 REVERT JUMPDEST DUP2 ADD SWAP1 DUP1 DUP1 CALLDATALOAD SWAP1 PUSH1 0x20 ADD SWAP1 SWAP3 SWAP2 SWAP1 DUP1 CALLDATALOAD SWAP1 PUSH1 0x20 ADD SWAP1 SWAP3 SWAP2 SWAP1 POP POP POP PUSH2 0x4B3 JUMP JUMPDEST STOP JUMPDEST PUSH2 0x165 PUSH1 0x4 DUP1 CALLDATASIZE SUB PUSH1 0x40 DUP2 LT ISZERO PUSH2 0x145 JUMPI PUSH1 0x0 DUP1 REVERT JUMPDEST DUP2 ADD SWAP1 DUP1 DUP1 CALLDATALOAD SWAP1 PUSH1 0x20 ADD SWAP1 SWAP3 SWAP2 SWAP1 DUP1 CALLDATALOAD SWAP1 PUSH1 0x20 ADD SWAP1 SWAP3 SWAP2 SWAP1 POP POP POP PUSH2 0x4B7 JUMP JUMPDEST STOP JUMPDEST PUSH2 0x16F PUSH2 0x88A JUMP JUMPDEST PUSH1 0x40 MLOAD DUP1 DUP3 DUP2 MSTORE PUSH1 0x20 ADD SWAP2 POP POP PUSH1 0x40 MLOAD DUP1 SWAP2 SUB SWAP1 RETURN JUMPDEST PUSH2 0x18D PUSH2 0x890 JUMP JUMPDEST PUSH1 0x40 MLOAD DUP1 DUP3 PUSH20 0xFFFFFFFFFFFFFFFFFFFFFFFFFFFFFFFFFFFFFFFF AND PUSH20 0xFFFFFFFFFFFFFFFFFFFFFFFFFFFFFFFFFFFFFFFF AND DUP2 MSTORE PUSH1 0x20 ADD SWAP2 POP POP PUSH1 0x40 MLOAD DUP1 SWAP2 SUB SWAP1 RETURN JUMPDEST PUSH2 0x1FB PUSH1 0x4 DUP1 CALLDATASIZE SUB PUSH1 0x20 DUP2 LT ISZERO PUSH2 0x1E5 JUMPI PUSH1 0x0 DUP1 REVERT JUMPDEST DUP2 ADD SWAP1 DUP1 DUP1 CALLDATALOAD SWAP1 PUSH1 0x20 ADD SWAP1 SWAP3 SWAP2 SWAP1 POP POP POP PUSH2 0x8B5 JUMP JUMPDEST PUSH1 0x40 MLOAD DUP1 DUP10 ISZERO ISZERO ISZERO ISZERO DUP2 MSTORE PUSH1 0x20 ADD DUP9 DUP2 MSTORE PUSH1 0x20 ADD DUP8 DUP2 MSTORE PUSH1 0x20 ADD DUP7 DUP2 MSTORE PUSH1 0x20 ADD DUP6 DUP2 MSTORE PUSH1 0x20 ADD DUP5 DUP2 MSTORE PUSH1 0x20 ADD DUP4 DUP2 MSTORE PUSH1 0x20 ADD DUP3 DUP2 MSTORE PUSH1 0x20 ADD SWAP9 POP POP POP POP POP POP POP POP POP PUSH1 0x40 MLOAD DUP1 SWAP2 SUB SWAP1 RETURN JUMPDEST PUSH2 0x292 PUSH1 0x4 DUP1 CALLDATASIZE SUB PUSH1 0x40 DUP2 LT ISZERO PUSH2 0x25C JUMPI PUSH1 0x0 DUP1 REVERT JUMPDEST DUP2 ADD SWAP1 DUP1 DUP1 CALLDATALOAD PUSH20 0xFFFFFFFFFFFFFFFFFFFFFFFFFFFFFFFFFFFFFFFF AND SWAP1 PUSH1 0x20 ADD SWAP1 SWAP3 SWAP2 SWAP1 DUP1 CALLDATALOAD SWAP1 PUSH1 0x20 ADD SWAP1 SWAP3 SWAP2 SWAP1 POP POP POP PUSH2 0x917 JUMP JUMPDEST PUSH1 0x40 MLOAD DUP1 DUP8 DUP2 MSTORE PUSH1 0x20 ADD DUP7 DUP2 MSTORE PUSH1 0x20 ADD DUP6 DUP2 MSTORE PUSH1 0x20 ADD DUP5 DUP2 MSTORE PUSH1 0x20 ADD DUP4 DUP2 MSTORE PUSH1 0x20 ADD DUP3 DUP2 MSTORE PUSH1 0x20 ADD SWAP7 POP POP POP POP POP POP POP PUSH1 0x40 MLOAD DUP1 SWAP2 SUB SWAP1 RETURN JUMPDEST PUSH2 0x2D3 PUSH2 0x96D JUMP JUMPDEST PUSH1 0x40 MLOAD DUP1 DUP3 PUSH20 0xFFFFFFFFFFFFFFFFFFFFFFFFFFFFFFFFFFFFFFFF AND PUSH20 0xFFFFFFFFFFFFFFFFFFFFFFFFFFFFFFFFFFFFFFFF AND DUP2 MSTORE PUSH1 0x20 ADD SWAP2 POP POP PUSH1 0x40 MLOAD DUP1 SWAP2 SUB SWAP1 RETURN JUMPDEST PUSH1 0x0 DUP1 SWAP1 SLOAD SWAP1 PUSH2 0x100 EXP SWAP1 DIV PUSH20 0xFFFFFFFFFFFFFFFFFFFFFFFFFFFFFFFFFFFFFFFF AND PUSH20 0xFFFFFFFFFFFFFFFFFFFFFFFFFFFFFFFFFFFFFFFF AND CALLER PUSH20 0xFFFFFFFFFFFFFFFFFFFFFFFFFFFFFFFFFFFFFFFF AND EQ PUSH2 0x3D7 JUMPI PUSH1 0x40 MLOAD PUSH32 0x8C379A000000000000000000000000000000000000000000000000000000000 DUP2 MSTORE PUSH1 0x4 ADD DUP1 DUP1 PUSH1 0x20 ADD DUP3 DUP2 SUB DUP3 MSTORE PUSH1 0x16 DUP2 MSTORE PUSH1 0x20 ADD DUP1 PUSH32 0x6F6E6C79206465706C6F7965722063616E2063616C6C00000000000000000000 DUP2 MSTORE POP PUSH1 0x20 ADD SWAP2 POP POP PUSH1 0x40 MLOAD DUP1 SWAP2 SUB SWAP1 REVERT JUMPDEST PUSH1 0x3 PUSH1 0x40 MLOAD DUP1 PUSH2 0x100 ADD PUSH1 0x40 MSTORE DUP1 PUSH1 0x1 ISZERO ISZERO DUP2 MSTORE PUSH1 0x20 ADD DUP10 DUP2 MSTORE PUSH1 0x20 ADD DUP9 DUP2 MSTORE PUSH1 0x20 ADD DUP8 DUP2 MSTORE PUSH1 0x20 ADD DUP7 DUP2 MSTORE PUSH1 0x20 ADD DUP6 DUP2 MSTORE PUSH1 0x20 ADD DUP5 DUP2 MSTORE PUSH1 0x20 ADD DUP4 DUP2 MSTORE POP SWAP1 DUP1 PUSH1 0x1 DUP2 SLOAD ADD DUP1 DUP3 SSTORE DUP1 SWAP2 POP POP SWAP1 PUSH1 0x1 DUP3 SUB SWAP1 PUSH1 0x0 MSTORE PUSH1 0x20 PUSH1 0x0 KECCAK256 SWAP1 PUSH1 0x8 MUL ADD PUSH1 0x0 SWAP1 SWAP2 SWAP3 SWAP1 SWAP2 SWAP1 SWAP2 POP PUSH1 0x0 DUP3 ADD MLOAD DUP2 PUSH1 0x0 ADD PUSH1 0x0 PUSH2 0x100 EXP DUP2 SLOAD DUP2 PUSH1 0xFF MUL NOT AND SWAP1 DUP4 ISZERO ISZERO MUL OR SWAP1 SSTORE POP PUSH1 0x20 DUP3 ADD MLOAD DUP2 PUSH1 0x1 ADD SSTORE PUSH1 0x40 DUP3 ADD MLOAD DUP2 PUSH1 0x2 ADD SSTORE PUSH1 0x60 DUP3 ADD MLOAD DUP2 PUSH1 0x3 ADD SSTORE PUSH1 0x80 DUP3 ADD MLOAD DUP2 PUSH1 0x4 ADD SSTORE PUSH1 0xA0 DUP3 ADD MLOAD DUP2 PUSH1 0x5 ADD SSTORE PUSH1 0xC0 DUP3 ADD MLOAD DUP2 PUSH1 0x6 ADD SSTORE PUSH1 0xE0 DUP3 ADD MLOAD DUP2 PUSH1 0x7 ADD SSTORE POP POP POP POP POP POP POP POP POP POP JUMP JUMPDEST POP POP JUMP JUMPDEST PUSH1 0x3 DUP3 DUP2 SLOAD DUP2 LT PUSH2 0x4C4 JUMPI INVALID JUMPDEST SWAP1 PUSH1 0x0 MSTORE PUSH1 0x20 PUSH1 0x0 KECCAK256 SWAP1 PUSH1 0x8 MUL ADD PUSH1 0x1 ADD SLOAD DUP2 LT ISZERO PUSH2 0x54B JUMPI PUSH1 0x40 MLOAD PUSH32 0x8C379A000000000000000000000000000000000000000000000000000000000 DUP2 MSTORE PUSH1 0x4 ADD DUP1 DUP1 PUSH1 0x20 ADD DUP3 DUP2 SUB DUP3 MSTORE PUSH1 0x20 DUP2 MSTORE PUSH1 0x20 ADD DUP1 PUSH32 0x616D6F756E742073686F756C642062652061746C65617374206D696E696D756D DUP2 MSTORE POP PUSH1 0x20 ADD SWAP2 POP POP PUSH1 0x40 MLOAD DUP1 SWAP2 SUB SWAP1 REVERT JUMPDEST PUSH1 0x1 PUSH1 0x0 SWAP1 SLOAD SWAP1 PUSH2 0x100 EXP SWAP1 DIV PUSH20 0xFFFFFFFFFFFFFFFFFFFFFFFFFFFFFFFFFFFFFFFF AND PUSH20 0xFFFFFFFFFFFFFFFFFFFFFFFFFFFFFFFFFFFFFFFF AND PUSH4 0x23B872DD CALLER ADDRESS DUP5 PUSH1 0x40 MLOAD DUP5 PUSH4 0xFFFFFFFF AND PUSH1 0xE0 SHL DUP2 MSTORE PUSH1 0x4 ADD DUP1 DUP5 PUSH20 0xFFFFFFFFFFFFFFFFFFFFFFFFFFFFFFFFFFFFFFFF AND PUSH20 0xFFFFFFFFFFFFFFFFFFFFFFFFFFFFFFFFFFFFFFFF AND DUP2 MSTORE PUSH1 0x20 ADD DUP4 PUSH20 0xFFFFFFFFFFFFFFFFFFFFFFFFFFFFFFFFFFFFFFFF AND PUSH20 0xFFFFFFFFFFFFFFFFFFFFFFFFFFFFFFFFFFFFFFFF AND DUP2 MSTORE PUSH1 0x20 ADD DUP3 DUP2 MSTORE PUSH1 0x20 ADD SWAP4 POP POP POP POP PUSH1 0x20 PUSH1 0x40 MLOAD DUP1 DUP4 SUB DUP2 PUSH1 0x0 DUP8 DUP1 EXTCODESIZE ISZERO DUP1 ISZERO PUSH2 0x628 JUMPI PUSH1 0x0 DUP1 REVERT JUMPDEST POP GAS CALL ISZERO DUP1 ISZERO PUSH2 0x63C JUMPI RETURNDATASIZE PUSH1 0x0 DUP1 RETURNDATACOPY RETURNDATASIZE PUSH1 0x0 REVERT JUMPDEST POP POP POP POP PUSH1 0x40 MLOAD RETURNDATASIZE PUSH1 0x20 DUP2 LT ISZERO PUSH2 0x652 JUMPI PUSH1 0x0 DUP1 REVERT JUMPDEST DUP2 ADD SWAP1 DUP1 DUP1 MLOAD SWAP1 PUSH1 0x20 ADD SWAP1 SWAP3 SWAP2 SWAP1 POP POP POP PUSH2 0x66C JUMPI PUSH1 0x0 DUP1 REVERT JUMPDEST PUSH1 0x4 PUSH1 0x0 CALLER PUSH20 0xFFFFFFFFFFFFFFFFFFFFFFFFFFFFFFFFFFFFFFFF AND PUSH20 0xFFFFFFFFFFFFFFFFFFFFFFFFFFFFFFFFFFFFFFFF AND DUP2 MSTORE PUSH1 0x20 ADD SWAP1 DUP2 MSTORE PUSH1 0x20 ADD PUSH1 0x0 KECCAK256 PUSH1 0x40 MLOAD DUP1 PUSH1 0xC0 ADD PUSH1 0x40 MSTORE DUP1 DUP5 DUP2 MSTORE PUSH1 0x20 ADD TIMESTAMP DUP2 MSTORE PUSH1 0x20 ADD DUP4 DUP2 MSTORE PUSH1 0x20 ADD PUSH1 0x0 DUP2 MSTORE PUSH1 0x20 ADD PUSH2 0x700 PUSH1 0x3 DUP7 DUP2 SLOAD DUP2 LT PUSH2 0x6DF JUMPI INVALID JUMPDEST SWAP1 PUSH1 0x0 MSTORE PUSH1 0x20 PUSH1 0x0 KECCAK256 SWAP1 PUSH1 0x8 MUL ADD PUSH1 0x3 ADD SLOAD DUP6 PUSH2 0x993 SWAP1 SWAP2 SWAP1 PUSH4 0xFFFFFFFF AND JUMP JUMPDEST DUP2 MSTORE PUSH1 0x20 ADD DUP4 DUP2 MSTORE POP SWAP1 DUP1 PUSH1 0x1 DUP2 SLOAD ADD DUP1 DUP3 SSTORE DUP1 SWAP2 POP POP SWAP1 PUSH1 0x1 DUP3 SUB SWAP1 PUSH1 0x0 MSTORE PUSH1 0x20 PUSH1 0x0 KECCAK256 SWAP1 PUSH1 0x7 MUL ADD PUSH1 0x0 SWAP1 SWAP2 SWAP3 SWAP1 SWAP2 SWAP1 SWAP2 POP PUSH1 0x0 DUP3 ADD MLOAD DUP2 PUSH1 0x0 ADD SSTORE PUSH1 0x20 DUP3 ADD MLOAD DUP2 PUSH1 0x1 ADD SSTORE PUSH1 0x40 DUP3 ADD MLOAD DUP2 PUSH1 0x2 ADD SSTORE PUSH1 0x60 DUP3 ADD MLOAD DUP2 PUSH1 0x3 ADD SSTORE PUSH1 0x80 DUP3 ADD MLOAD DUP2 PUSH1 0x4 ADD SSTORE PUSH1 0xA0 DUP3 ADD MLOAD DUP2 PUSH1 0x5 ADD SSTORE POP POP POP PUSH1 0x0 PUSH1 0x1 PUSH1 0x4 PUSH1 0x0 CALLER PUSH20 0xFFFFFFFFFFFFFFFFFFFFFFFFFFFFFFFFFFFFFFFF AND PUSH20 0xFFFFFFFFFFFFFFFFFFFFFFFFFFFFFFFFFFFFFFFF AND DUP2 MSTORE PUSH1 0x20 ADD SWAP1 DUP2 MSTORE PUSH1 0x20 ADD PUSH1 0x0 KECCAK256 DUP1 SLOAD SWAP1 POP SUB SWAP1 POP DUP2 PUSH1 0x4 PUSH1 0x0 CALLER PUSH20 0xFFFFFFFFFFFFFFFFFFFFFFFFFFFFFFFFFFFFFFFF AND PUSH20 0xFFFFFFFFFFFFFFFFFFFFFFFFFFFFFFFFFFFFFFFF AND DUP2 MSTORE PUSH1 0x20 ADD SWAP1 DUP2 MSTORE PUSH1 0x20 ADD PUSH1 0x0 KECCAK256 DUP3 DUP2 SLOAD DUP2 LT PUSH2 0x808 JUMPI INVALID JUMPDEST SWAP1 PUSH1 0x0 MSTORE PUSH1 0x20 PUSH1 0x0 KECCAK256 SWAP1 PUSH1 0x7 MUL ADD PUSH1 0x6 ADD PUSH1 0x0 PUSH1 0x1 DUP2 MSTORE PUSH1 0x20 ADD SWAP1 DUP2 MSTORE PUSH1 0x20 ADD PUSH1 0x0 KECCAK256 DUP2 SWAP1 SSTORE POP CALLER PUSH20 0xFFFFFFFFFFFFFFFFFFFFFFFFFFFFFFFFFFFFFFFF AND PUSH32 0x1DEC97FC36AA6DFA81B208EC37B3AC8DAE30717F0622F9CFB2E7223DC95326EC DUP3 DUP5 PUSH1 0x40 MLOAD DUP1 DUP4 DUP2 MSTORE PUSH1 0x20 ADD DUP3 DUP2 MSTORE PUSH1 0x20 ADD SWAP3 POP POP POP PUSH1 0x40 MLOAD DUP1 SWAP2 SUB SWAP1 LOG2 POP POP POP JUMP JUMPDEST PUSH1 0x2 SLOAD DUP2 JUMP JUMPDEST PUSH1 0x0 DUP1 SWAP1 SLOAD SWAP1 PUSH2 0x100 EXP SWAP1 DIV PUSH20 0xFFFFFFFFFFFFFFFFFFFFFFFFFFFFFFFFFFFFFFFF AND DUP2 JUMP JUMPDEST PUSH1 0x3 DUP2 DUP2 SLOAD DUP2 LT PUSH2 0x8C2 JUMPI INVALID JUMPDEST SWAP1 PUSH1 0x0 MSTORE PUSH1 0x20 PUSH1 0x0 KECCAK256 SWAP1 PUSH1 0x8 MUL ADD PUSH1 0x0 SWAP2 POP SWAP1 POP DUP1 PUSH1 0x0 ADD PUSH1 0x0 SWAP1 SLOAD SWAP1 PUSH2 0x100 EXP SWAP1 DIV PUSH1 0xFF AND SWAP1 DUP1 PUSH1 0x1 ADD SLOAD SWAP1 DUP1 PUSH1 0x2 ADD SLOAD SWAP1 DUP1 PUSH1 0x3 ADD SLOAD SWAP1 DUP1 PUSH1 0x4 ADD SLOAD SWAP1 DUP1 PUSH1 0x5 ADD SLOAD SWAP1 DUP1 PUSH1 0x6 ADD SLOAD SWAP1 DUP1 PUSH1 0x7 ADD SLOAD SWAP1 POP DUP9 JUMP JUMPDEST PUSH1 0x4 PUSH1 0x20 MSTORE DUP2 PUSH1 0x0 MSTORE PUSH1 0x40 PUSH1 0x0 KECCAK256 DUP2 DUP2 SLOAD DUP2 LT PUSH2 0x930 JUMPI INVALID JUMPDEST SWAP1 PUSH1 0x0 MSTORE PUSH1 0x20 PUSH1 0x0 KECCAK256 SWAP1 PUSH1 0x7 MUL ADD PUSH1 0x0 SWAP2 POP SWAP2 POP POP DUP1 PUSH1 0x0 ADD SLOAD SWAP1 DUP1 PUSH1 0x1 ADD SLOAD SWAP1 DUP1 PUSH1 0x2 ADD SLOAD SWAP1 DUP1 PUSH1 0x3 ADD SLOAD SWAP1 DUP1 PUSH1 0x4 ADD SLOAD SWAP1 DUP1 PUSH1 0x5 ADD SLOAD SWAP1 POP DUP7 JUMP JUMPDEST PUSH1 0x1 PUSH1 0x0 SWAP1 SLOAD SWAP1 PUSH2 0x100 EXP SWAP1 DIV PUSH20 0xFFFFFFFFFFFFFFFFFFFFFFFFFFFFFFFFFFFFFFFF AND DUP2 JUMP JUMPDEST PUSH1 0x0 DUP1 DUP4 EQ ISZERO PUSH2 0x9A6 JUMPI PUSH1 0x0 SWAP1 POP PUSH2 0xA13 JUMP JUMPDEST PUSH1 0x0 DUP3 DUP5 MUL SWAP1 POP DUP3 DUP5 DUP3 DUP2 PUSH2 0x9B7 JUMPI INVALID JUMPDEST DIV EQ PUSH2 0xA0E JUMPI PUSH1 0x40 MLOAD PUSH32 0x8C379A000000000000000000000000000000000000000000000000000000000 DUP2 MSTORE PUSH1 0x4 ADD DUP1 DUP1 PUSH1 0x20 ADD DUP3 DUP2 SUB DUP3 MSTORE PUSH1 0x21 DUP2 MSTORE PUSH1 0x20 ADD DUP1 PUSH2 0xA1A PUSH1 0x21 SWAP2 CODECOPY PUSH1 0x40 ADD SWAP2 POP POP PUSH1 0x40 MLOAD DUP1 SWAP2 SUB SWAP1 REVERT JUMPDEST DUP1 SWAP2 POP POP JUMPDEST SWAP3 SWAP2 POP POP JUMP INVALID MSTORE8 PUSH2 0x6665 0x4d PUSH2 0x7468 GASPRICE KECCAK256 PUSH14 0x756C7469706C69636174696F6E20 PUSH16 0x766572666C6F77A265627A7A72315820 0xf9 GASLIMIT LOG0 TIMESTAMP DIFFICULTY 0xd1 0xf6 CREATE2 0xd0 PUSH5 0xE75BAFB205 0xb3 0xdb GT 0xc3 DUP11 0x2a PUSH1 0xE0 0xdd 0x48 PUSH18 0x3FEC5E4AC8AF64736F6C634300050C003200 "},"gasEstimates":{"creation":{"codeDepositCost":"534200","executionCost":"infinite","totalCost":"infinite"},"external":{"createSIPPlan(uint256,uint256,uint256,uint256,uint256,uint256,uint256)":"181618","earthSecondsInMonth()":"472","monthlyDeposit(uint256,uint256)":"280","newSIP(uint256,uint256)":"infinite","owner()":"453","sipPlans(uint256)":"2499","sips(address,uint256)":"2107","token()":"519"}},"methodIdentifiers":{"createSIPPlan(uint256,uint256,uint256,uint256,uint256,uint256,uint256)":"295226c5","earthSecondsInMonth()":"582e7e9e","monthlyDeposit(uint256,uint256)":"3c8e01d4","newSIP(uint256,uint256)":"53c0fb47","owner()":"8da5cb5b","sipPlans(uint256)":"ef4ffe57","sips(address,uint256)":"f926b17a","token()":"fc0c546a"}},"userdoc":{"methods":{}}}