{"abi":[{"inputs":[{"internalType":"contract ERC20","name":"_token","type":"address"}],"payable":false,"stateMutability":"nonpayable","type":"constructor"},{"anonymous":false,"inputs":[{"indexed":true,"internalType":"address","name":"_staker","type":"address"},{"indexed":true,"internalType":"uint256","name":"_sipId","type":"uint256"},{"indexed":true,"internalType":"address","name":"_appointeeAddress","type":"address"},{"indexed":false,"internalType":"bool","name":"_appointeeStatus","type":"bool"}],"name":"AppointeeUpdated","type":"event"},{"anonymous":false,"inputs":[{"indexed":true,"internalType":"address","name":"_staker","type":"address"},{"indexed":true,"internalType":"uint256","name":"_sipId","type":"uint256"},{"indexed":true,"internalType":"address","name":"_appointeeAddress","type":"address"}],"name":"AppointeeVoted","type":"event"},{"anonymous":false,"inputs":[{"indexed":true,"internalType":"address","name":"_staker","type":"address"},{"indexed":true,"internalType":"uint256","name":"_sipId","type":"uint256"},{"indexed":false,"internalType":"uint256","name":"_fromMonthId","type":"uint256"},{"indexed":false,"internalType":"uint256","name":"_toMonthId","type":"uint256"},{"indexed":false,"internalType":"uint256","name":"_withdrawlAmount","type":"uint256"},{"indexed":false,"internalType":"address","name":"_withdrawnBy","type":"address"}],"name":"BenefitWithdrawl","type":"event"},{"anonymous":false,"inputs":[{"indexed":false,"internalType":"uint256","name":"_depositAmount","type":"uint256"}],"name":"FundsDeposited","type":"event"},{"anonymous":false,"inputs":[{"indexed":false,"internalType":"uint256","name":"_withdrawlAmount","type":"uint256"}],"name":"FundsWithdrawn","type":"event"},{"anonymous":false,"inputs":[{"indexed":true,"internalType":"address","name":"_staker","type":"address"},{"indexed":true,"internalType":"uint256","name":"_sipId","type":"uint256"},{"indexed":false,"internalType":"uint256","name":"_monthId","type":"uint256"},{"indexed":false,"internalType":"uint256","name":"_depositAmount","type":"uint256"},{"indexed":false,"internalType":"uint256","name":"_benefitQueued","type":"uint256"},{"indexed":false,"internalType":"address","name":"_depositedBy","type":"address"}],"name":"NewDeposit","type":"event"},{"anonymous":false,"inputs":[{"indexed":true,"internalType":"address","name":"_staker","type":"address"},{"indexed":false,"internalType":"uint256","name":"_sipId","type":"uint256"},{"indexed":false,"internalType":"uint256","name":"_monthlyCommitmentAmount","type":"uint256"}],"name":"NewSIP","type":"event"},{"anonymous":false,"inputs":[{"indexed":true,"internalType":"address","name":"_staker","type":"address"},{"indexed":true,"internalType":"uint256","name":"_sipId","type":"uint256"},{"indexed":true,"internalType":"address","name":"_nomineeAddress","type":"address"},{"indexed":false,"internalType":"bool","name":"_nomineeStatus","type":"bool"}],"name":"NomineeUpdated","type":"event"},{"anonymous":false,"inputs":[{"indexed":true,"internalType":"address","name":"_staker","type":"address"},{"indexed":true,"internalType":"uint256","name":"_sipId","type":"uint256"},{"indexed":false,"internalType":"uint256","name":"_boosterSerial","type":"uint256"},{"indexed":false,"internalType":"uint256","name":"_withdrawlAmount","type":"uint256"},{"indexed":false,"internalType":"address","name":"_withdrawnBy","type":"address"}],"name":"PowerBoosterWithdrawl","type":"event"},{"constant":true,"inputs":[],"name":"EARTH_SECONDS_IN_MONTH","outputs":[{"internalType":"uint256","name":"","type":"uint256"}],"payable":false,"stateMutability":"view","type":"function"},{"constant":false,"inputs":[{"internalType":"uint256","name":"_depositAmount","type":"uint256"}],"name":"addFunds","outputs":[],"payable":false,"stateMutability":"nonpayable","type":"function"},{"constant":false,"inputs":[{"internalType":"address","name":"_stakerAddress","type":"address"},{"internalType":"uint256","name":"_sipId","type":"uint256"}],"name":"appointeeVote","outputs":[],"payable":false,"stateMutability":"nonpayable","type":"function"},{"constant":false,"inputs":[{"internalType":"uint256","name":"_minimumMonthlyCommitmentAmount","type":"uint256"},{"internalType":"uint256","name":"_accumulationPeriodMonths","type":"uint256"},{"internalType":"uint256","name":"_benefitPeriodYears","type":"uint256"},{"internalType":"uint256","name":"_gracePeriodSeconds","type":"uint256"},{"internalType":"uint256","name":"_monthlyBenefitFactor","type":"uint256"},{"internalType":"uint256","name":"_gracePenaltyFactor","type":"uint256"},{"internalType":"uint256","name":"_defaultPenaltyFactor","type":"uint256"}],"name":"createSIPPlan","outputs":[],"payable":false,"stateMutability":"nonpayable","type":"function"},{"constant":true,"inputs":[],"name":"fundsDeposit","outputs":[{"internalType":"uint256","name":"","type":"uint256"}],"payable":false,"stateMutability":"view","type":"function"},{"constant":true,"inputs":[{"internalType":"address","name":"_stakerAddress","type":"address"},{"internalType":"uint256","name":"_sipId","type":"uint256"},{"internalType":"uint256","name":"_monthId","type":"uint256"}],"name":"getDepositDoneStatus","outputs":[{"internalType":"uint256","name":"","type":"uint256"}],"payable":false,"stateMutability":"view","type":"function"},{"constant":true,"inputs":[{"internalType":"address","name":"_stakerAddress","type":"address"},{"internalType":"uint256","name":"_sipId","type":"uint256"},{"internalType":"uint256","name":"_monthId","type":"uint256"}],"name":"getDepositStatus","outputs":[{"internalType":"uint256","name":"","type":"uint256"}],"payable":false,"stateMutability":"view","type":"function"},{"constant":true,"inputs":[{"internalType":"address","name":"_stakerAddress","type":"address"},{"internalType":"uint256","name":"_sipId","type":"uint256"},{"internalType":"uint256","name":"_withdrawlMonthId","type":"uint256"},{"internalType":"bool","name":"_isNomineeWithdrawing","type":"bool"}],"name":"getPendingWithdrawlAmount","outputs":[{"internalType":"uint256","name":"","type":"uint256"}],"payable":false,"stateMutability":"view","type":"function"},{"constant":true,"inputs":[],"name":"getTime","outputs":[{"internalType":"uint256","name":"","type":"uint256"}],"payable":false,"stateMutability":"view","type":"function"},{"constant":false,"inputs":[{"internalType":"address","name":"_stakerAddress","type":"address"},{"internalType":"uint256","name":"_sipId","type":"uint256"},{"internalType":"uint256","name":"_depositAmount","type":"uint256"},{"internalType":"uint256","name":"_monthId","type":"uint256"}],"name":"monthlyDeposit","outputs":[],"payable":false,"stateMutability":"nonpayable","type":"function"},{"constant":false,"inputs":[{"internalType":"uint256","name":"_planId","type":"uint256"},{"internalType":"uint256","name":"_monthlyCommitmentAmount","type":"uint256"}],"name":"newSIP","outputs":[],"payable":false,"stateMutability":"nonpayable","type":"function"},{"constant":true,"inputs":[],"name":"owner","outputs":[{"internalType":"address","name":"","type":"address"}],"payable":false,"stateMutability":"view","type":"function"},{"constant":true,"inputs":[],"name":"pendingBenefitAmountOfAllStakers","outputs":[{"internalType":"uint256","name":"","type":"uint256"}],"payable":false,"stateMutability":"view","type":"function"},{"constant":true,"inputs":[{"internalType":"uint256","name":"","type":"uint256"}],"name":"sipPlans","outputs":[{"internalType":"bool","name":"isPlanActive","type":"bool"},{"internalType":"uint256","name":"minimumMonthlyCommitmentAmount","type":"uint256"},{"internalType":"uint256","name":"accumulationPeriodMonths","type":"uint256"},{"internalType":"uint256","name":"benefitPeriodYears","type":"uint256"},{"internalType":"uint256","name":"gracePeriodSeconds","type":"uint256"},{"internalType":"uint256","name":"monthlyBenefitFactor","type":"uint256"},{"internalType":"uint256","name":"gracePenaltyFactor","type":"uint256"},{"internalType":"uint256","name":"defaultPenaltyFactor","type":"uint256"}],"payable":false,"stateMutability":"view","type":"function"},{"constant":true,"inputs":[{"internalType":"address","name":"","type":"address"},{"internalType":"uint256","name":"","type":"uint256"}],"name":"sips","outputs":[{"internalType":"uint256","name":"planId","type":"uint256"},{"internalType":"uint256","name":"stakingTimestamp","type":"uint256"},{"internalType":"uint256","name":"monthlyCommitmentAmount","type":"uint256"},{"internalType":"uint256","name":"totalDeposited","type":"uint256"},{"internalType":"uint256","name":"lastWithdrawlMonthId","type":"uint256"},{"internalType":"uint256","name":"powerBoosterWithdrawls","type":"uint256"},{"internalType":"uint256","name":"numberOfAppointees","type":"uint256"},{"internalType":"uint256","name":"appointeeVotes","type":"uint256"}],"payable":false,"stateMutability":"view","type":"function"},{"constant":true,"inputs":[],"name":"token","outputs":[{"internalType":"contract ERC20","name":"","type":"address"}],"payable":false,"stateMutability":"view","type":"function"},{"constant":false,"inputs":[{"internalType":"uint256","name":"_sipId","type":"uint256"},{"internalType":"address","name":"_appointeeAddress","type":"address"},{"internalType":"bool","name":"_newAppointeeStatus","type":"bool"}],"name":"toogleAppointee","outputs":[],"payable":false,"stateMutability":"nonpayable","type":"function"},{"constant":false,"inputs":[{"internalType":"uint256","name":"_sipId","type":"uint256"},{"internalType":"address","name":"_nomineeAddress","type":"address"},{"internalType":"bool","name":"_newNomineeStatus","type":"bool"}],"name":"toogleNominee","outputs":[],"payable":false,"stateMutability":"nonpayable","type":"function"},{"constant":true,"inputs":[{"internalType":"address","name":"_stakerAddress","type":"address"},{"internalType":"uint256","name":"_sipId","type":"uint256"},{"internalType":"address","name":"_appointeeAddress","type":"address"}],"name":"viewAppointation","outputs":[{"internalType":"bool","name":"","type":"bool"}],"payable":false,"stateMutability":"view","type":"function"},{"constant":true,"inputs":[{"internalType":"address","name":"_stakerAddress","type":"address"},{"internalType":"uint256","name":"_sipId","type":"uint256"},{"internalType":"address","name":"_nomineeAddress","type":"address"}],"name":"viewNomination","outputs":[{"internalType":"bool","name":"","type":"bool"}],"payable":false,"stateMutability":"view","type":"function"},{"constant":false,"inputs":[{"internalType":"address","name":"_stakerAddress","type":"address"},{"internalType":"uint256","name":"_sipId","type":"uint256"},{"internalType":"uint256","name":"_withdrawlmonthId","type":"uint256"}],"name":"withdrawBenefit","outputs":[],"payable":false,"stateMutability":"nonpayable","type":"function"},{"constant":false,"inputs":[{"internalType":"uint256","name":"_withdrawlAmount","type":"uint256"}],"name":"withdrawFunds","outputs":[],"payable":false,"stateMutability":"nonpayable","type":"function"},{"constant":false,"inputs":[{"internalType":"address","name":"_stakerAddress","type":"address"},{"internalType":"uint256","name":"_sipId","type":"uint256"}],"name":"withdrawPowerBooster","outputs":[],"payable":false,"stateMutability":"nonpayable","type":"function"}],"devdoc":{"methods":{}},"evm":{"assembly":"    /* \"TimeAllySIP.sol\":877:16321  contract TimeAllySIP {... */\n  mstore(0x40, 0x80)\n    /* \"TimeAllySIP.sol\":2608:2615  2629744 */\n  0x282070\n    /* \"TimeAllySIP.sol\":2568:2615  uint256 public EARTH_SECONDS_IN_MONTH = 2629744 */\n  0x02\n  sstore\n    /* \"TimeAllySIP.sol\":4365:4447  constructor(ERC20 _token) public {... */\n  callvalue\n    /* \"--CODEGEN--\":8:17   */\n  dup1\n    /* \"--CODEGEN--\":5:7   */\n  iszero\n  tag_1\n  jumpi\n    /* \"--CODEGEN--\":30:31   */\n  0x00\n    /* \"--CODEGEN--\":27:28   */\n  dup1\n    /* \"--CODEGEN--\":20:32   */\n  revert\n    /* \"--CODEGEN--\":5:7   */\ntag_1:\n    /* \"TimeAllySIP.sol\":4365:4447  constructor(ERC20 _token) public {... */\n  pop\n  mload(0x40)\n  sub(codesize, bytecodeSize)\n  dup1\n  bytecodeSize\n  dup4\n  codecopy\n  dup2\n  dup2\n  add\n  0x40\n  mstore\n    /* \"--CODEGEN--\":13:15   */\n  0x20\n    /* \"--CODEGEN--\":8:11   */\n  dup2\n    /* \"--CODEGEN--\":5:16   */\n  lt\n    /* \"--CODEGEN--\":2:4   */\n  iszero\n  tag_2\n  jumpi\n    /* \"--CODEGEN--\":29:30   */\n  0x00\n    /* \"--CODEGEN--\":26:27   */\n  dup1\n    /* \"--CODEGEN--\":19:31   */\n  revert\n    /* \"--CODEGEN--\":2:4   */\ntag_2:\n    /* \"TimeAllySIP.sol\":4365:4447  constructor(ERC20 _token) public {... */\n  dup2\n  add\n  swap1\n  dup1\n  dup1\n  mload\n  swap1\n  0x20\n  add\n  swap1\n  swap3\n  swap2\n  swap1\n  pop\n  pop\n  pop\n    /* \"TimeAllySIP.sol\":4412:4422  msg.sender */\n  caller\n    /* \"TimeAllySIP.sol\":4404:4409  owner */\n  0x00\n  dup1\n    /* \"TimeAllySIP.sol\":4404:4422  owner = msg.sender */\n  0x0100\n  exp\n  dup2\n  sload\n  dup2\n  0xffffffffffffffffffffffffffffffffffffffff\n  mul\n  not\n  and\n  swap1\n  dup4\n  0xffffffffffffffffffffffffffffffffffffffff\n  and\n  mul\n  or\n  swap1\n  sstore\n  pop\n    /* \"TimeAllySIP.sol\":4436:4442  _token */\n  dup1\n    /* \"TimeAllySIP.sol\":4428:4433  token */\n  0x01\n  0x00\n    /* \"TimeAllySIP.sol\":4428:4442  token = _token */\n  0x0100\n  exp\n  dup2\n  sload\n  dup2\n  0xffffffffffffffffffffffffffffffffffffffff\n  mul\n  not\n  and\n  swap1\n  dup4\n  0xffffffffffffffffffffffffffffffffffffffff\n  and\n  mul\n  or\n  swap1\n  sstore\n  pop\n    /* \"TimeAllySIP.sol\":4365:4447  constructor(ERC20 _token) public {... */\n  pop\n    /* \"TimeAllySIP.sol\":877:16321  contract TimeAllySIP {... */\n  dataSize(sub_0)\n  dup1\n  dataOffset(sub_0)\n  0x00\n  codecopy\n  0x00\n  return\nstop\n\nsub_0: assembly {\n        /* \"TimeAllySIP.sol\":877:16321  contract TimeAllySIP {... */\n      mstore(0x40, 0x80)\n      callvalue\n        /* \"--CODEGEN--\":8:17   */\n      dup1\n        /* \"--CODEGEN--\":5:7   */\n      iszero\n      tag_1\n      jumpi\n        /* \"--CODEGEN--\":30:31   */\n      0x00\n        /* \"--CODEGEN--\":27:28   */\n      dup1\n        /* \"--CODEGEN--\":20:32   */\n      revert\n        /* \"--CODEGEN--\":5:7   */\n    tag_1:\n        /* \"TimeAllySIP.sol\":877:16321  contract TimeAllySIP {... */\n      pop\n      jumpi(tag_2, lt(calldatasize, 0x04))\n      shr(0xe0, calldataload(0x00))\n      dup1\n      0x7f13c7a1\n      gt\n      tag_26\n      jumpi\n      dup1\n      0xba50531a\n      gt\n      tag_27\n      jumpi\n      dup1\n      0xba50531a\n      eq\n      tag_20\n      jumpi\n      dup1\n      0xbe999705\n      eq\n      tag_21\n      jumpi\n      dup1\n      0xef4ffe57\n      eq\n      tag_22\n      jumpi\n      dup1\n      0xf29de4c3\n      eq\n      tag_23\n      jumpi\n      dup1\n      0xf926b17a\n      eq\n      tag_24\n      jumpi\n      dup1\n      0xfc0c546a\n      eq\n      tag_25\n      jumpi\n      jump(tag_2)\n    tag_27:\n      dup1\n      0x7f13c7a1\n      eq\n      tag_14\n      jumpi\n      dup1\n      0x81423a26\n      eq\n      tag_15\n      jumpi\n      dup1\n      0x8da5cb5b\n      eq\n      tag_16\n      jumpi\n      dup1\n      0x94bb9064\n      eq\n      tag_17\n      jumpi\n      dup1\n      0x9b3017c1\n      eq\n      tag_18\n      jumpi\n      dup1\n      0xa4003ad4\n      eq\n      tag_19\n      jumpi\n      jump(tag_2)\n    tag_26:\n      dup1\n      0x2393768d\n      gt\n      tag_28\n      jumpi\n      dup1\n      0x2393768d\n      eq\n      tag_8\n      jumpi\n      dup1\n      0x26d9767b\n      eq\n      tag_9\n      jumpi\n      dup1\n      0x295226c5\n      eq\n      tag_10\n      jumpi\n      dup1\n      0x2e9721b6\n      eq\n      tag_11\n      jumpi\n      dup1\n      0x53c0fb47\n      eq\n      tag_12\n      jumpi\n      dup1\n      0x557ed1ba\n      eq\n      tag_13\n      jumpi\n      jump(tag_2)\n    tag_28:\n      dup1\n      0x07f71149\n      eq\n      tag_3\n      jumpi\n      dup1\n      0x0ce57b46\n      eq\n      tag_4\n      jumpi\n      dup1\n      0x1272d8d4\n      eq\n      tag_5\n      jumpi\n      dup1\n      0x13dcc452\n      eq\n      tag_6\n      jumpi\n      dup1\n      0x155dd5ee\n      eq\n      tag_7\n      jumpi\n    tag_2:\n      0x00\n      dup1\n      revert\n        /* \"TimeAllySIP.sol\":11224:12325  function withdrawBenefit(... */\n    tag_3:\n      tag_29\n      0x04\n      dup1\n      calldatasize\n      sub\n        /* \"--CODEGEN--\":13:15   */\n      0x60\n        /* \"--CODEGEN--\":8:11   */\n      dup2\n        /* \"--CODEGEN--\":5:16   */\n      lt\n        /* \"--CODEGEN--\":2:4   */\n      iszero\n      tag_30\n      jumpi\n        /* \"--CODEGEN--\":29:30   */\n      0x00\n        /* \"--CODEGEN--\":26:27   */\n      dup1\n        /* \"--CODEGEN--\":19:31   */\n      revert\n        /* \"--CODEGEN--\":2:4   */\n    tag_30:\n        /* \"TimeAllySIP.sol\":11224:12325  function withdrawBenefit(... */\n      dup2\n      add\n      swap1\n      dup1\n      dup1\n      calldataload\n      0xffffffffffffffffffffffffffffffffffffffff\n      and\n      swap1\n      0x20\n      add\n      swap1\n      swap3\n      swap2\n      swap1\n      dup1\n      calldataload\n      swap1\n      0x20\n      add\n      swap1\n      swap3\n      swap2\n      swap1\n      dup1\n      calldataload\n      swap1\n      0x20\n      add\n      swap1\n      swap3\n      swap2\n      swap1\n      pop\n      pop\n      pop\n      tag_31\n      jump\t// in\n    tag_29:\n      stop\n        /* \"TimeAllySIP.sol\":14409:14666  function toogleNominee(uint256 _sipId, address _nomineeAddress, bool _newNomineeStatus) public {... */\n    tag_4:\n      tag_32\n      0x04\n      dup1\n      calldatasize\n      sub\n        /* \"--CODEGEN--\":13:15   */\n      0x60\n        /* \"--CODEGEN--\":8:11   */\n      dup2\n        /* \"--CODEGEN--\":5:16   */\n      lt\n        /* \"--CODEGEN--\":2:4   */\n      iszero\n      tag_33\n      jumpi\n        /* \"--CODEGEN--\":29:30   */\n      0x00\n        /* \"--CODEGEN--\":26:27   */\n      dup1\n        /* \"--CODEGEN--\":19:31   */\n      revert\n        /* \"--CODEGEN--\":2:4   */\n    tag_33:\n        /* \"TimeAllySIP.sol\":14409:14666  function toogleNominee(uint256 _sipId, address _nomineeAddress, bool _newNomineeStatus) public {... */\n      dup2\n      add\n      swap1\n      dup1\n      dup1\n      calldataload\n      swap1\n      0x20\n      add\n      swap1\n      swap3\n      swap2\n      swap1\n      dup1\n      calldataload\n      0xffffffffffffffffffffffffffffffffffffffff\n      and\n      swap1\n      0x20\n      add\n      swap1\n      swap3\n      swap2\n      swap1\n      dup1\n      calldataload\n      iszero\n      iszero\n      swap1\n      0x20\n      add\n      swap1\n      swap3\n      swap2\n      swap1\n      pop\n      pop\n      pop\n      tag_34\n      jump\t// in\n    tag_32:\n      stop\n        /* \"TimeAllySIP.sol\":2568:2615  uint256 public EARTH_SECONDS_IN_MONTH = 2629744 */\n    tag_5:\n      tag_35\n      tag_36\n      jump\t// in\n    tag_35:\n      mload(0x40)\n      dup1\n      dup3\n      dup2\n      mstore\n      0x20\n      add\n      swap2\n      pop\n      pop\n      mload(0x40)\n      dup1\n      swap2\n      sub\n      swap1\n      return\n        /* \"TimeAllySIP.sol\":2670:2697  uint256 public fundsDeposit */\n    tag_6:\n      tag_37\n      tag_38\n      jump\t// in\n    tag_37:\n      mload(0x40)\n      dup1\n      dup3\n      dup2\n      mstore\n      0x20\n      add\n      swap2\n      pop\n      pop\n      mload(0x40)\n      dup1\n      swap2\n      sub\n      swap1\n      return\n        /* \"TimeAllySIP.sol\":5629:5986  function withdrawFunds(uint256 _withdrawlAmount) public onlyOwner {... */\n    tag_7:\n      tag_39\n      0x04\n      dup1\n      calldatasize\n      sub\n        /* \"--CODEGEN--\":13:15   */\n      0x20\n        /* \"--CODEGEN--\":8:11   */\n      dup2\n        /* \"--CODEGEN--\":5:16   */\n      lt\n        /* \"--CODEGEN--\":2:4   */\n      iszero\n      tag_40\n      jumpi\n        /* \"--CODEGEN--\":29:30   */\n      0x00\n        /* \"--CODEGEN--\":26:27   */\n      dup1\n        /* \"--CODEGEN--\":19:31   */\n      revert\n        /* \"--CODEGEN--\":2:4   */\n    tag_40:\n        /* \"TimeAllySIP.sol\":5629:5986  function withdrawFunds(uint256 _withdrawlAmount) public onlyOwner {... */\n      dup2\n      add\n      swap1\n      dup1\n      dup1\n      calldataload\n      swap1\n      0x20\n      add\n      swap1\n      swap3\n      swap2\n      swap1\n      pop\n      pop\n      pop\n      tag_41\n      jump\t// in\n    tag_39:\n      stop\n        /* \"TimeAllySIP.sol\":2619:2666  uint256 public pendingBenefitAmountOfAllStakers */\n    tag_8:\n      tag_42\n      tag_43\n      jump\t// in\n    tag_42:\n      mload(0x40)\n      dup1\n      dup3\n      dup2\n      mstore\n      0x20\n      add\n      swap2\n      pop\n      pop\n      mload(0x40)\n      dup1\n      swap2\n      sub\n      swap1\n      return\n        /* \"TimeAllySIP.sol\":12329:14405  function withdrawPowerBooster(... */\n    tag_9:\n      tag_44\n      0x04\n      dup1\n      calldatasize\n      sub\n        /* \"--CODEGEN--\":13:15   */\n      0x40\n        /* \"--CODEGEN--\":8:11   */\n      dup2\n        /* \"--CODEGEN--\":5:16   */\n      lt\n        /* \"--CODEGEN--\":2:4   */\n      iszero\n      tag_45\n      jumpi\n        /* \"--CODEGEN--\":29:30   */\n      0x00\n        /* \"--CODEGEN--\":26:27   */\n      dup1\n        /* \"--CODEGEN--\":19:31   */\n      revert\n        /* \"--CODEGEN--\":2:4   */\n    tag_45:\n        /* \"TimeAllySIP.sol\":12329:14405  function withdrawPowerBooster(... */\n      dup2\n      add\n      swap1\n      dup1\n      dup1\n      calldataload\n      0xffffffffffffffffffffffffffffffffffffffff\n      and\n      swap1\n      0x20\n      add\n      swap1\n      swap3\n      swap2\n      swap1\n      dup1\n      calldataload\n      swap1\n      0x20\n      add\n      swap1\n      swap3\n      swap2\n      swap1\n      pop\n      pop\n      pop\n      tag_46\n      jump\t// in\n    tag_44:\n      stop\n        /* \"TimeAllySIP.sol\":4659:5396  function createSIPPlan(... */\n    tag_10:\n      tag_47\n      0x04\n      dup1\n      calldatasize\n      sub\n        /* \"--CODEGEN--\":13:16   */\n      0xe0\n        /* \"--CODEGEN--\":8:11   */\n      dup2\n        /* \"--CODEGEN--\":5:17   */\n      lt\n        /* \"--CODEGEN--\":2:4   */\n      iszero\n      tag_48\n      jumpi\n        /* \"--CODEGEN--\":30:31   */\n      0x00\n        /* \"--CODEGEN--\":27:28   */\n      dup1\n        /* \"--CODEGEN--\":20:32   */\n      revert\n        /* \"--CODEGEN--\":2:4   */\n    tag_48:\n        /* \"TimeAllySIP.sol\":4659:5396  function createSIPPlan(... */\n      dup2\n      add\n      swap1\n      dup1\n      dup1\n      calldataload\n      swap1\n      0x20\n      add\n      swap1\n      swap3\n      swap2\n      swap1\n      dup1\n      calldataload\n      swap1\n      0x20\n      add\n      swap1\n      swap3\n      swap2\n      swap1\n      dup1\n      calldataload\n      swap1\n      0x20\n      add\n      swap1\n      swap3\n      swap2\n      swap1\n      dup1\n      calldataload\n      swap1\n      0x20\n      add\n      swap1\n      swap3\n      swap2\n      swap1\n      dup1\n      calldataload\n      swap1\n      0x20\n      add\n      swap1\n      swap3\n      swap2\n      swap1\n      dup1\n      calldataload\n      swap1\n      0x20\n      add\n      swap1\n      swap3\n      swap2\n      swap1\n      dup1\n      calldataload\n      swap1\n      0x20\n      add\n      swap1\n      swap3\n      swap2\n      swap1\n      pop\n      pop\n      pop\n      tag_49\n      jump\t// in\n    tag_47:\n      stop\n        /* \"TimeAllySIP.sol\":14670:14858  function viewNomination(address _stakerAddress, uint256 _sipId, address _nomineeAddress) public view returns (bool) {... */\n    tag_11:\n      tag_50\n      0x04\n      dup1\n      calldatasize\n      sub\n        /* \"--CODEGEN--\":13:15   */\n      0x60\n        /* \"--CODEGEN--\":8:11   */\n      dup2\n        /* \"--CODEGEN--\":5:16   */\n      lt\n        /* \"--CODEGEN--\":2:4   */\n      iszero\n      tag_51\n      jumpi\n        /* \"--CODEGEN--\":29:30   */\n      0x00\n        /* \"--CODEGEN--\":26:27   */\n      dup1\n        /* \"--CODEGEN--\":19:31   */\n      revert\n        /* \"--CODEGEN--\":2:4   */\n    tag_51:\n        /* \"TimeAllySIP.sol\":14670:14858  function viewNomination(address _stakerAddress, uint256 _sipId, address _nomineeAddress) public view returns (bool) {... */\n      dup2\n      add\n      swap1\n      dup1\n      dup1\n      calldataload\n      0xffffffffffffffffffffffffffffffffffffffff\n      and\n      swap1\n      0x20\n      add\n      swap1\n      swap3\n      swap2\n      swap1\n      dup1\n      calldataload\n      swap1\n      0x20\n      add\n      swap1\n      swap3\n      swap2\n      swap1\n      dup1\n      calldataload\n      0xffffffffffffffffffffffffffffffffffffffff\n      and\n      swap1\n      0x20\n      add\n      swap1\n      swap3\n      swap2\n      swap1\n      pop\n      pop\n      pop\n      tag_52\n      jump\t// in\n    tag_50:\n      mload(0x40)\n      dup1\n      dup3\n      iszero\n      iszero\n      iszero\n      iszero\n      dup2\n      mstore\n      0x20\n      add\n      swap2\n      pop\n      pop\n      mload(0x40)\n      dup1\n      swap2\n      sub\n      swap1\n      return\n        /* \"TimeAllySIP.sol\":5990:7424  function newSIP(... */\n    tag_12:\n      tag_53\n      0x04\n      dup1\n      calldatasize\n      sub\n        /* \"--CODEGEN--\":13:15   */\n      0x40\n        /* \"--CODEGEN--\":8:11   */\n      dup2\n        /* \"--CODEGEN--\":5:16   */\n      lt\n        /* \"--CODEGEN--\":2:4   */\n      iszero\n      tag_54\n      jumpi\n        /* \"--CODEGEN--\":29:30   */\n      0x00\n        /* \"--CODEGEN--\":26:27   */\n      dup1\n        /* \"--CODEGEN--\":19:31   */\n      revert\n        /* \"--CODEGEN--\":2:4   */\n    tag_54:\n        /* \"TimeAllySIP.sol\":5990:7424  function newSIP(... */\n      dup2\n      add\n      swap1\n      dup1\n      dup1\n      calldataload\n      swap1\n      0x20\n      add\n      swap1\n      swap3\n      swap2\n      swap1\n      dup1\n      calldataload\n      swap1\n      0x20\n      add\n      swap1\n      swap3\n      swap2\n      swap1\n      pop\n      pop\n      pop\n      tag_55\n      jump\t// in\n    tag_53:\n      stop\n        /* \"TimeAllySIP.sol\":16249:16319  function getTime() public view returns (uint256) {... */\n    tag_13:\n      tag_56\n      tag_57\n      jump\t// in\n    tag_56:\n      mload(0x40)\n      dup1\n      dup3\n      dup2\n      mstore\n      0x20\n      add\n      swap2\n      pop\n      pop\n      mload(0x40)\n      dup1\n      swap2\n      sub\n      swap1\n      return\n        /* \"TimeAllySIP.sol\":8344:9773  function monthlyDeposit(... */\n    tag_14:\n      tag_58\n      0x04\n      dup1\n      calldatasize\n      sub\n        /* \"--CODEGEN--\":13:16   */\n      0x80\n        /* \"--CODEGEN--\":8:11   */\n      dup2\n        /* \"--CODEGEN--\":5:17   */\n      lt\n        /* \"--CODEGEN--\":2:4   */\n      iszero\n      tag_59\n      jumpi\n        /* \"--CODEGEN--\":30:31   */\n      0x00\n        /* \"--CODEGEN--\":27:28   */\n      dup1\n        /* \"--CODEGEN--\":20:32   */\n      revert\n        /* \"--CODEGEN--\":2:4   */\n    tag_59:\n        /* \"TimeAllySIP.sol\":8344:9773  function monthlyDeposit(... */\n      dup2\n      add\n      swap1\n      dup1\n      dup1\n      calldataload\n      0xffffffffffffffffffffffffffffffffffffffff\n      and\n      swap1\n      0x20\n      add\n      swap1\n      swap3\n      swap2\n      swap1\n      dup1\n      calldataload\n      swap1\n      0x20\n      add\n      swap1\n      swap3\n      swap2\n      swap1\n      dup1\n      calldataload\n      swap1\n      0x20\n      add\n      swap1\n      swap3\n      swap2\n      swap1\n      dup1\n      calldataload\n      swap1\n      0x20\n      add\n      swap1\n      swap3\n      swap2\n      swap1\n      pop\n      pop\n      pop\n      tag_60\n      jump\t// in\n    tag_58:\n      stop\n        /* \"TimeAllySIP.sol\":15642:15854  function viewAppointation(... */\n    tag_15:\n      tag_61\n      0x04\n      dup1\n      calldatasize\n      sub\n        /* \"--CODEGEN--\":13:15   */\n      0x60\n        /* \"--CODEGEN--\":8:11   */\n      dup2\n        /* \"--CODEGEN--\":5:16   */\n      lt\n        /* \"--CODEGEN--\":2:4   */\n      iszero\n      tag_62\n      jumpi\n        /* \"--CODEGEN--\":29:30   */\n      0x00\n        /* \"--CODEGEN--\":26:27   */\n      dup1\n        /* \"--CODEGEN--\":19:31   */\n      revert\n        /* \"--CODEGEN--\":2:4   */\n    tag_62:\n        /* \"TimeAllySIP.sol\":15642:15854  function viewAppointation(... */\n      dup2\n      add\n      swap1\n      dup1\n      dup1\n      calldataload\n      0xffffffffffffffffffffffffffffffffffffffff\n      and\n      swap1\n      0x20\n      add\n      swap1\n      swap3\n      swap2\n      swap1\n      dup1\n      calldataload\n      swap1\n      0x20\n      add\n      swap1\n      swap3\n      swap2\n      swap1\n      dup1\n      calldataload\n      0xffffffffffffffffffffffffffffffffffffffff\n      and\n      swap1\n      0x20\n      add\n      swap1\n      swap3\n      swap2\n      swap1\n      pop\n      pop\n      pop\n      tag_63\n      jump\t// in\n    tag_61:\n      mload(0x40)\n      dup1\n      dup3\n      iszero\n      iszero\n      iszero\n      iszero\n      dup2\n      mstore\n      0x20\n      add\n      swap2\n      pop\n      pop\n      mload(0x40)\n      dup1\n      swap2\n      sub\n      swap1\n      return\n        /* \"TimeAllySIP.sol\":2458:2478  address public owner */\n    tag_16:\n      tag_64\n      tag_65\n      jump\t// in\n    tag_64:\n      mload(0x40)\n      dup1\n      dup3\n      0xffffffffffffffffffffffffffffffffffffffff\n      and\n      0xffffffffffffffffffffffffffffffffffffffff\n      and\n      dup2\n      mstore\n      0x20\n      add\n      swap2\n      pop\n      pop\n      mload(0x40)\n      dup1\n      swap2\n      sub\n      swap1\n      return\n        /* \"TimeAllySIP.sol\":7428:8340  function getDepositStatus(address _stakerAddress, uint256 _sipId, uint256 _monthId) public view returns (uint256) {... */\n    tag_17:\n      tag_66\n      0x04\n      dup1\n      calldatasize\n      sub\n        /* \"--CODEGEN--\":13:15   */\n      0x60\n        /* \"--CODEGEN--\":8:11   */\n      dup2\n        /* \"--CODEGEN--\":5:16   */\n      lt\n        /* \"--CODEGEN--\":2:4   */\n      iszero\n      tag_67\n      jumpi\n        /* \"--CODEGEN--\":29:30   */\n      0x00\n        /* \"--CODEGEN--\":26:27   */\n      dup1\n        /* \"--CODEGEN--\":19:31   */\n      revert\n        /* \"--CODEGEN--\":2:4   */\n    tag_67:\n        /* \"TimeAllySIP.sol\":7428:8340  function getDepositStatus(address _stakerAddress, uint256 _sipId, uint256 _monthId) public view returns (uint256) {... */\n      dup2\n      add\n      swap1\n      dup1\n      dup1\n      calldataload\n      0xffffffffffffffffffffffffffffffffffffffff\n      and\n      swap1\n      0x20\n      add\n      swap1\n      swap3\n      swap2\n      swap1\n      dup1\n      calldataload\n      swap1\n      0x20\n      add\n      swap1\n      swap3\n      swap2\n      swap1\n      dup1\n      calldataload\n      swap1\n      0x20\n      add\n      swap1\n      swap3\n      swap2\n      swap1\n      pop\n      pop\n      pop\n      tag_68\n      jump\t// in\n    tag_66:\n      mload(0x40)\n      dup1\n      dup3\n      dup2\n      mstore\n      0x20\n      add\n      swap2\n      pop\n      pop\n      mload(0x40)\n      dup1\n      swap2\n      sub\n      swap1\n      return\n        /* \"TimeAllySIP.sol\":9777:11220  function getPendingWithdrawlAmount(... */\n    tag_18:\n      tag_69\n      0x04\n      dup1\n      calldatasize\n      sub\n        /* \"--CODEGEN--\":13:16   */\n      0x80\n        /* \"--CODEGEN--\":8:11   */\n      dup2\n        /* \"--CODEGEN--\":5:17   */\n      lt\n        /* \"--CODEGEN--\":2:4   */\n      iszero\n      tag_70\n      jumpi\n        /* \"--CODEGEN--\":30:31   */\n      0x00\n        /* \"--CODEGEN--\":27:28   */\n      dup1\n        /* \"--CODEGEN--\":20:32   */\n      revert\n        /* \"--CODEGEN--\":2:4   */\n    tag_70:\n        /* \"TimeAllySIP.sol\":9777:11220  function getPendingWithdrawlAmount(... */\n      dup2\n      add\n      swap1\n      dup1\n      dup1\n      calldataload\n      0xffffffffffffffffffffffffffffffffffffffff\n      and\n      swap1\n      0x20\n      add\n      swap1\n      swap3\n      swap2\n      swap1\n      dup1\n      calldataload\n      swap1\n      0x20\n      add\n      swap1\n      swap3\n      swap2\n      swap1\n      dup1\n      calldataload\n      swap1\n      0x20\n      add\n      swap1\n      swap3\n      swap2\n      swap1\n      dup1\n      calldataload\n      iszero\n      iszero\n      swap1\n      0x20\n      add\n      swap1\n      swap3\n      swap2\n      swap1\n      pop\n      pop\n      pop\n      tag_71\n      jump\t// in\n    tag_69:\n      mload(0x40)\n      dup1\n      dup3\n      dup2\n      mstore\n      0x20\n      add\n      swap2\n      pop\n      pop\n      mload(0x40)\n      dup1\n      swap2\n      sub\n      swap1\n      return\n        /* \"TimeAllySIP.sol\":15858:16245  function appointeeVote(... */\n    tag_19:\n      tag_72\n      0x04\n      dup1\n      calldatasize\n      sub\n        /* \"--CODEGEN--\":13:15   */\n      0x40\n        /* \"--CODEGEN--\":8:11   */\n      dup2\n        /* \"--CODEGEN--\":5:16   */\n      lt\n        /* \"--CODEGEN--\":2:4   */\n      iszero\n      tag_73\n      jumpi\n        /* \"--CODEGEN--\":29:30   */\n      0x00\n        /* \"--CODEGEN--\":26:27   */\n      dup1\n        /* \"--CODEGEN--\":19:31   */\n      revert\n        /* \"--CODEGEN--\":2:4   */\n    tag_73:\n        /* \"TimeAllySIP.sol\":15858:16245  function appointeeVote(... */\n      dup2\n      add\n      swap1\n      dup1\n      dup1\n      calldataload\n      0xffffffffffffffffffffffffffffffffffffffff\n      and\n      swap1\n      0x20\n      add\n      swap1\n      swap3\n      swap2\n      swap1\n      dup1\n      calldataload\n      swap1\n      0x20\n      add\n      swap1\n      swap3\n      swap2\n      swap1\n      pop\n      pop\n      pop\n      tag_74\n      jump\t// in\n    tag_72:\n      stop\n        /* \"TimeAllySIP.sol\":14973:15638  function toogleAppointee(... */\n    tag_20:\n      tag_75\n      0x04\n      dup1\n      calldatasize\n      sub\n        /* \"--CODEGEN--\":13:15   */\n      0x60\n        /* \"--CODEGEN--\":8:11   */\n      dup2\n        /* \"--CODEGEN--\":5:16   */\n      lt\n        /* \"--CODEGEN--\":2:4   */\n      iszero\n      tag_76\n      jumpi\n        /* \"--CODEGEN--\":29:30   */\n      0x00\n        /* \"--CODEGEN--\":26:27   */\n      dup1\n        /* \"--CODEGEN--\":19:31   */\n      revert\n        /* \"--CODEGEN--\":2:4   */\n    tag_76:\n        /* \"TimeAllySIP.sol\":14973:15638  function toogleAppointee(... */\n      dup2\n      add\n      swap1\n      dup1\n      dup1\n      calldataload\n      swap1\n      0x20\n      add\n      swap1\n      swap3\n      swap2\n      swap1\n      dup1\n      calldataload\n      0xffffffffffffffffffffffffffffffffffffffff\n      and\n      swap1\n      0x20\n      add\n      swap1\n      swap3\n      swap2\n      swap1\n      dup1\n      calldataload\n      iszero\n      iszero\n      swap1\n      0x20\n      add\n      swap1\n      swap3\n      swap2\n      swap1\n      pop\n      pop\n      pop\n      tag_77\n      jump\t// in\n    tag_75:\n      stop\n        /* \"TimeAllySIP.sol\":5400:5625  function addFunds(uint256 _depositAmount) public {... */\n    tag_21:\n      tag_78\n      0x04\n      dup1\n      calldatasize\n      sub\n        /* \"--CODEGEN--\":13:15   */\n      0x20\n        /* \"--CODEGEN--\":8:11   */\n      dup2\n        /* \"--CODEGEN--\":5:16   */\n      lt\n        /* \"--CODEGEN--\":2:4   */\n      iszero\n      tag_79\n      jumpi\n        /* \"--CODEGEN--\":29:30   */\n      0x00\n        /* \"--CODEGEN--\":26:27   */\n      dup1\n        /* \"--CODEGEN--\":19:31   */\n      revert\n        /* \"--CODEGEN--\":2:4   */\n    tag_79:\n        /* \"TimeAllySIP.sol\":5400:5625  function addFunds(uint256 _depositAmount) public {... */\n      dup2\n      add\n      swap1\n      dup1\n      dup1\n      calldataload\n      swap1\n      0x20\n      add\n      swap1\n      swap3\n      swap2\n      swap1\n      pop\n      pop\n      pop\n      tag_80\n      jump\t// in\n    tag_78:\n      stop\n        /* \"TimeAllySIP.sol\":2732:2757  SIPPlan[] public sipPlans */\n    tag_22:\n      tag_81\n      0x04\n      dup1\n      calldatasize\n      sub\n        /* \"--CODEGEN--\":13:15   */\n      0x20\n        /* \"--CODEGEN--\":8:11   */\n      dup2\n        /* \"--CODEGEN--\":5:16   */\n      lt\n        /* \"--CODEGEN--\":2:4   */\n      iszero\n      tag_82\n      jumpi\n        /* \"--CODEGEN--\":29:30   */\n      0x00\n        /* \"--CODEGEN--\":26:27   */\n      dup1\n        /* \"--CODEGEN--\":19:31   */\n      revert\n        /* \"--CODEGEN--\":2:4   */\n    tag_82:\n        /* \"TimeAllySIP.sol\":2732:2757  SIPPlan[] public sipPlans */\n      dup2\n      add\n      swap1\n      dup1\n      dup1\n      calldataload\n      swap1\n      0x20\n      add\n      swap1\n      swap3\n      swap2\n      swap1\n      pop\n      pop\n      pop\n      tag_83\n      jump\t// in\n    tag_81:\n      mload(0x40)\n      dup1\n      dup10\n      iszero\n      iszero\n      iszero\n      iszero\n      dup2\n      mstore\n      0x20\n      add\n      dup9\n      dup2\n      mstore\n      0x20\n      add\n      dup8\n      dup2\n      mstore\n      0x20\n      add\n      dup7\n      dup2\n      mstore\n      0x20\n      add\n      dup6\n      dup2\n      mstore\n      0x20\n      add\n      dup5\n      dup2\n      mstore\n      0x20\n      add\n      dup4\n      dup2\n      mstore\n      0x20\n      add\n      dup3\n      dup2\n      mstore\n      0x20\n      add\n      swap9\n      pop\n      pop\n      pop\n      pop\n      pop\n      pop\n      pop\n      pop\n      pop\n      mload(0x40)\n      dup1\n      swap2\n      sub\n      swap1\n      return\n        /* \"TimeAllySIP.sol\":4451:4655  function getDepositDoneStatus(... */\n    tag_23:\n      tag_84\n      0x04\n      dup1\n      calldatasize\n      sub\n        /* \"--CODEGEN--\":13:15   */\n      0x60\n        /* \"--CODEGEN--\":8:11   */\n      dup2\n        /* \"--CODEGEN--\":5:16   */\n      lt\n        /* \"--CODEGEN--\":2:4   */\n      iszero\n      tag_85\n      jumpi\n        /* \"--CODEGEN--\":29:30   */\n      0x00\n        /* \"--CODEGEN--\":26:27   */\n      dup1\n        /* \"--CODEGEN--\":19:31   */\n      revert\n        /* \"--CODEGEN--\":2:4   */\n    tag_85:\n        /* \"TimeAllySIP.sol\":4451:4655  function getDepositDoneStatus(... */\n      dup2\n      add\n      swap1\n      dup1\n      dup1\n      calldataload\n      0xffffffffffffffffffffffffffffffffffffffff\n      and\n      swap1\n      0x20\n      add\n      swap1\n      swap3\n      swap2\n      swap1\n      dup1\n      calldataload\n      swap1\n      0x20\n      add\n      swap1\n      swap3\n      swap2\n      swap1\n      dup1\n      calldataload\n      swap1\n      0x20\n      add\n      swap1\n      swap3\n      swap2\n      swap1\n      pop\n      pop\n      pop\n      tag_86\n      jump\t// in\n    tag_84:\n      mload(0x40)\n      dup1\n      dup3\n      dup2\n      mstore\n      0x20\n      add\n      swap2\n      pop\n      pop\n      mload(0x40)\n      dup1\n      swap2\n      sub\n      swap1\n      return\n        /* \"TimeAllySIP.sol\":2762:2799  mapping(address => SIP[]) public sips */\n    tag_24:\n      tag_87\n      0x04\n      dup1\n      calldatasize\n      sub\n        /* \"--CODEGEN--\":13:15   */\n      0x40\n        /* \"--CODEGEN--\":8:11   */\n      dup2\n        /* \"--CODEGEN--\":5:16   */\n      lt\n        /* \"--CODEGEN--\":2:4   */\n      iszero\n      tag_88\n      jumpi\n        /* \"--CODEGEN--\":29:30   */\n      0x00\n        /* \"--CODEGEN--\":26:27   */\n      dup1\n        /* \"--CODEGEN--\":19:31   */\n      revert\n        /* \"--CODEGEN--\":2:4   */\n    tag_88:\n        /* \"TimeAllySIP.sol\":2762:2799  mapping(address => SIP[]) public sips */\n      dup2\n      add\n      swap1\n      dup1\n      dup1\n      calldataload\n      0xffffffffffffffffffffffffffffffffffffffff\n      and\n      swap1\n      0x20\n      add\n      swap1\n      swap3\n      swap2\n      swap1\n      dup1\n      calldataload\n      swap1\n      0x20\n      add\n      swap1\n      swap3\n      swap2\n      swap1\n      pop\n      pop\n      pop\n      tag_89\n      jump\t// in\n    tag_87:\n      mload(0x40)\n      dup1\n      dup10\n      dup2\n      mstore\n      0x20\n      add\n      dup9\n      dup2\n      mstore\n      0x20\n      add\n      dup8\n      dup2\n      mstore\n      0x20\n      add\n      dup7\n      dup2\n      mstore\n      0x20\n      add\n      dup6\n      dup2\n      mstore\n      0x20\n      add\n      dup5\n      dup2\n      mstore\n      0x20\n      add\n      dup4\n      dup2\n      mstore\n      0x20\n      add\n      dup3\n      dup2\n      mstore\n      0x20\n      add\n      swap9\n      pop\n      pop\n      pop\n      pop\n      pop\n      pop\n      pop\n      pop\n      pop\n      mload(0x40)\n      dup1\n      swap2\n      sub\n      swap1\n      return\n        /* \"TimeAllySIP.sol\":2482:2500  ERC20 public token */\n    tag_25:\n      tag_90\n      tag_91\n      jump\t// in\n    tag_90:\n      mload(0x40)\n      dup1\n      dup3\n      0xffffffffffffffffffffffffffffffffffffffff\n      and\n      0xffffffffffffffffffffffffffffffffffffffff\n      and\n      dup2\n      mstore\n      0x20\n      add\n      swap2\n      pop\n      pop\n      mload(0x40)\n      dup1\n      swap2\n      sub\n      swap1\n      return\n        /* \"TimeAllySIP.sol\":11224:12325  function withdrawBenefit(... */\n    tag_31:\n        /* \"TimeAllySIP.sol\":11351:11365  _stakerAddress */\n      dup3\n        /* \"TimeAllySIP.sol\":11367:11373  _sipId */\n      dup3\n        /* \"TimeAllySIP.sol\":4185:4201  SIP storage _sip */\n      0x00\n        /* \"TimeAllySIP.sol\":4204:4208  sips */\n      0x06\n        /* \"TimeAllySIP.sol\":4204:4224  sips[_stakerAddress] */\n      0x00\n        /* \"TimeAllySIP.sol\":4209:4223  _stakerAddress */\n      dup5\n        /* \"TimeAllySIP.sol\":4204:4224  sips[_stakerAddress] */\n      0xffffffffffffffffffffffffffffffffffffffff\n      and\n      0xffffffffffffffffffffffffffffffffffffffff\n      and\n      dup2\n      mstore\n      0x20\n      add\n      swap1\n      dup2\n      mstore\n      0x20\n      add\n      0x00\n      keccak256\n        /* \"TimeAllySIP.sol\":4225:4231  _sipId */\n      dup3\n        /* \"TimeAllySIP.sol\":4204:4232  sips[_stakerAddress][_sipId] */\n      dup2\n      sload\n      dup2\n      lt\n      tag_93\n      jumpi\n      invalid\n    tag_93:\n      swap1\n      0x00\n      mstore\n      keccak256(0x00, 0x20)\n      swap1\n      0x0b\n      mul\n      add\n        /* \"TimeAllySIP.sol\":4185:4232  SIP storage _sip = sips[_stakerAddress][_sipId] */\n      swap1\n      pop\n        /* \"TimeAllySIP.sol\":4255:4269  _stakerAddress */\n      dup3\n        /* \"TimeAllySIP.sol\":4241:4269  msg.sender != _stakerAddress */\n      0xffffffffffffffffffffffffffffffffffffffff\n      and\n        /* \"TimeAllySIP.sol\":4241:4251  msg.sender */\n      caller\n        /* \"TimeAllySIP.sol\":4241:4269  msg.sender != _stakerAddress */\n      0xffffffffffffffffffffffffffffffffffffffff\n      and\n      eq\n        /* \"TimeAllySIP.sol\":4238:4350  if(msg.sender != _stakerAddress) {... */\n      tag_95\n      jumpi\n        /* \"TimeAllySIP.sol\":4287:4291  _sip */\n      dup1\n        /* \"TimeAllySIP.sol\":4287:4300  _sip.nominees */\n      0x09\n      add\n        /* \"TimeAllySIP.sol\":4287:4312  _sip.nominees[msg.sender] */\n      0x00\n        /* \"TimeAllySIP.sol\":4301:4311  msg.sender */\n      caller\n        /* \"TimeAllySIP.sol\":4287:4312  _sip.nominees[msg.sender] */\n      0xffffffffffffffffffffffffffffffffffffffff\n      and\n      0xffffffffffffffffffffffffffffffffffffffff\n      and\n      dup2\n      mstore\n      0x20\n      add\n      swap1\n      dup2\n      mstore\n      0x20\n      add\n      0x00\n      keccak256\n      0x00\n      swap1\n      sload\n      swap1\n      0x0100\n      exp\n      swap1\n      div\n      0xff\n      and\n        /* \"TimeAllySIP.sol\":4279:4343  require(_sip.nominees[msg.sender], 'nomination should be there') */\n      tag_96\n      jumpi\n      mload(0x40)\n      0x08c379a000000000000000000000000000000000000000000000000000000000\n      dup2\n      mstore\n      0x04\n      add\n      dup1\n      dup1\n      0x20\n      add\n      dup3\n      dup2\n      sub\n      dup3\n      mstore\n      0x1a\n      dup2\n      mstore\n      0x20\n      add\n      dup1\n      0x6e6f6d696e6174696f6e2073686f756c64206265207468657265000000000000\n      dup2\n      mstore\n      pop\n      0x20\n      add\n      swap2\n      pop\n      pop\n      mload(0x40)\n      dup1\n      swap2\n      sub\n      swap1\n      revert\n    tag_96:\n        /* \"TimeAllySIP.sol\":4238:4350  if(msg.sender != _stakerAddress) {... */\n    tag_95:\n        /* \"TimeAllySIP.sol\":11460:11484  uint256 _withdrawlAmount */\n      0x00\n        /* \"TimeAllySIP.sol\":11487:11646  getPendingWithdrawlAmount(... */\n      tag_98\n        /* \"TimeAllySIP.sol\":11520:11534  _stakerAddress */\n      dup8\n        /* \"TimeAllySIP.sol\":11542:11548  _sipId */\n      dup8\n        /* \"TimeAllySIP.sol\":11556:11573  _withdrawlmonthId */\n      dup8\n        /* \"TimeAllySIP.sol\":11595:11609  _stakerAddress */\n      dup11\n        /* \"TimeAllySIP.sol\":11581:11609  msg.sender != _stakerAddress */\n      0xffffffffffffffffffffffffffffffffffffffff\n      and\n        /* \"TimeAllySIP.sol\":11581:11591  msg.sender */\n      caller\n        /* \"TimeAllySIP.sol\":11581:11609  msg.sender != _stakerAddress */\n      0xffffffffffffffffffffffffffffffffffffffff\n      and\n      eq\n      iszero\n        /* \"TimeAllySIP.sol\":11487:11512  getPendingWithdrawlAmount */\n      tag_71\n        /* \"TimeAllySIP.sol\":11487:11646  getPendingWithdrawlAmount(... */\n      jump\t// in\n    tag_98:\n        /* \"TimeAllySIP.sol\":11460:11646  uint256 _withdrawlAmount = getPendingWithdrawlAmount(... */\n      swap1\n      pop\n        /* \"TimeAllySIP.sol\":11653:11669  SIP storage _sip */\n      0x00\n        /* \"TimeAllySIP.sol\":11672:11676  sips */\n      0x06\n        /* \"TimeAllySIP.sol\":11672:11692  sips[_stakerAddress] */\n      0x00\n        /* \"TimeAllySIP.sol\":11677:11691  _stakerAddress */\n      dup10\n        /* \"TimeAllySIP.sol\":11672:11692  sips[_stakerAddress] */\n      0xffffffffffffffffffffffffffffffffffffffff\n      and\n      0xffffffffffffffffffffffffffffffffffffffff\n      and\n      dup2\n      mstore\n      0x20\n      add\n      swap1\n      dup2\n      mstore\n      0x20\n      add\n      0x00\n      keccak256\n        /* \"TimeAllySIP.sol\":11693:11699  _sipId */\n      dup8\n        /* \"TimeAllySIP.sol\":11672:11700  sips[_stakerAddress][_sipId] */\n      dup2\n      sload\n      dup2\n      lt\n      tag_99\n      jumpi\n      invalid\n    tag_99:\n      swap1\n      0x00\n      mstore\n      keccak256(0x00, 0x20)\n      swap1\n      0x0b\n      mul\n      add\n        /* \"TimeAllySIP.sol\":11653:11700  SIP storage _sip = sips[_stakerAddress][_sipId] */\n      swap1\n      pop\n        /* \"TimeAllySIP.sol\":11781:11810  uint256 _lastWithdrawlMonthId */\n      0x00\n        /* \"TimeAllySIP.sol\":11813:11817  _sip */\n      dup2\n        /* \"TimeAllySIP.sol\":11813:11838  _sip.lastWithdrawlMonthId */\n      0x04\n      add\n      sload\n        /* \"TimeAllySIP.sol\":11781:11838  uint256 _lastWithdrawlMonthId = _sip.lastWithdrawlMonthId */\n      swap1\n      pop\n        /* \"TimeAllySIP.sol\":11872:11889  _withdrawlmonthId */\n      dup7\n        /* \"TimeAllySIP.sol\":11844:11848  _sip */\n      dup3\n        /* \"TimeAllySIP.sol\":11844:11869  _sip.lastWithdrawlMonthId */\n      0x04\n      add\n        /* \"TimeAllySIP.sol\":11844:11889  _sip.lastWithdrawlMonthId = _withdrawlmonthId */\n      dup2\n      swap1\n      sstore\n      pop\n        /* \"TimeAllySIP.sol\":11931:11985  pendingBenefitAmountOfAllStakers.sub(_withdrawlAmount) */\n      tag_101\n        /* \"TimeAllySIP.sol\":11968:11984  _withdrawlAmount */\n      dup4\n        /* \"TimeAllySIP.sol\":11931:11963  pendingBenefitAmountOfAllStakers */\n      sload(0x03)\n        /* \"TimeAllySIP.sol\":11931:11967  pendingBenefitAmountOfAllStakers.sub */\n      tag_102\n      swap1\n        /* \"TimeAllySIP.sol\":11931:11985  pendingBenefitAmountOfAllStakers.sub(_withdrawlAmount) */\n      swap2\n      swap1\n      0xffffffff\n      and\n      jump\t// in\n    tag_101:\n        /* \"TimeAllySIP.sol\":11896:11928  pendingBenefitAmountOfAllStakers */\n      0x03\n        /* \"TimeAllySIP.sol\":11896:11985  pendingBenefitAmountOfAllStakers = pendingBenefitAmountOfAllStakers.sub(_withdrawlAmount) */\n      dup2\n      swap1\n      sstore\n      pop\n        /* \"TimeAllySIP.sol\":12006:12040  fundsDeposit.sub(_withdrawlAmount) */\n      tag_103\n        /* \"TimeAllySIP.sol\":12023:12039  _withdrawlAmount */\n      dup4\n        /* \"TimeAllySIP.sol\":12006:12018  fundsDeposit */\n      sload(0x04)\n        /* \"TimeAllySIP.sol\":12006:12022  fundsDeposit.sub */\n      tag_102\n      swap1\n        /* \"TimeAllySIP.sol\":12006:12040  fundsDeposit.sub(_withdrawlAmount) */\n      swap2\n      swap1\n      0xffffffff\n      and\n      jump\t// in\n    tag_103:\n        /* \"TimeAllySIP.sol\":11991:12003  fundsDeposit */\n      0x04\n        /* \"TimeAllySIP.sol\":11991:12040  fundsDeposit = fundsDeposit.sub(_withdrawlAmount) */\n      dup2\n      swap1\n      sstore\n      pop\n        /* \"TimeAllySIP.sol\":12106:12111  token */\n      0x01\n      0x00\n      swap1\n      sload\n      swap1\n      0x0100\n      exp\n      swap1\n      div\n      0xffffffffffffffffffffffffffffffffffffffff\n      and\n        /* \"TimeAllySIP.sol\":12106:12120  token.transfer */\n      0xffffffffffffffffffffffffffffffffffffffff\n      and\n      0xa9059cbb\n        /* \"TimeAllySIP.sol\":12121:12131  msg.sender */\n      caller\n        /* \"TimeAllySIP.sol\":12133:12149  _withdrawlAmount */\n      dup6\n        /* \"TimeAllySIP.sol\":12106:12150  token.transfer(msg.sender, _withdrawlAmount) */\n      mload(0x40)\n      dup4\n      0xffffffff\n      and\n      0xe0\n      shl\n      dup2\n      mstore\n      0x04\n      add\n      dup1\n      dup4\n      0xffffffffffffffffffffffffffffffffffffffff\n      and\n      0xffffffffffffffffffffffffffffffffffffffff\n      and\n      dup2\n      mstore\n      0x20\n      add\n      dup3\n      dup2\n      mstore\n      0x20\n      add\n      swap3\n      pop\n      pop\n      pop\n      0x20\n      mload(0x40)\n      dup1\n      dup4\n      sub\n      dup2\n      0x00\n      dup8\n      dup1\n      extcodesize\n      iszero\n        /* \"--CODEGEN--\":8:17   */\n      dup1\n        /* \"--CODEGEN--\":5:7   */\n      iszero\n      tag_104\n      jumpi\n        /* \"--CODEGEN--\":30:31   */\n      0x00\n        /* \"--CODEGEN--\":27:28   */\n      dup1\n        /* \"--CODEGEN--\":20:32   */\n      revert\n        /* \"--CODEGEN--\":5:7   */\n    tag_104:\n        /* \"TimeAllySIP.sol\":12106:12150  token.transfer(msg.sender, _withdrawlAmount) */\n      pop\n      gas\n      call\n      iszero\n        /* \"--CODEGEN--\":8:17   */\n      dup1\n        /* \"--CODEGEN--\":5:7   */\n      iszero\n      tag_105\n      jumpi\n        /* \"--CODEGEN--\":45:61   */\n      returndatasize\n        /* \"--CODEGEN--\":42:43   */\n      0x00\n        /* \"--CODEGEN--\":39:40   */\n      dup1\n        /* \"--CODEGEN--\":24:62   */\n      returndatacopy\n        /* \"--CODEGEN--\":77:93   */\n      returndatasize\n        /* \"--CODEGEN--\":74:75   */\n      0x00\n        /* \"--CODEGEN--\":67:94   */\n      revert\n        /* \"--CODEGEN--\":5:7   */\n    tag_105:\n        /* \"TimeAllySIP.sol\":12106:12150  token.transfer(msg.sender, _withdrawlAmount) */\n      pop\n      pop\n      pop\n      pop\n      mload(0x40)\n      returndatasize\n        /* \"--CODEGEN--\":13:15   */\n      0x20\n        /* \"--CODEGEN--\":8:11   */\n      dup2\n        /* \"--CODEGEN--\":5:16   */\n      lt\n        /* \"--CODEGEN--\":2:4   */\n      iszero\n      tag_106\n      jumpi\n        /* \"--CODEGEN--\":29:30   */\n      0x00\n        /* \"--CODEGEN--\":26:27   */\n      dup1\n        /* \"--CODEGEN--\":19:31   */\n      revert\n        /* \"--CODEGEN--\":2:4   */\n    tag_106:\n        /* \"TimeAllySIP.sol\":12106:12150  token.transfer(msg.sender, _withdrawlAmount) */\n      dup2\n      add\n      swap1\n      dup1\n      dup1\n      mload\n      swap1\n      0x20\n      add\n      swap1\n      swap3\n      swap2\n      swap1\n      pop\n      pop\n      pop\n      pop\n        /* \"TimeAllySIP.sol\":12208:12214  _sipId */\n      dup8\n        /* \"TimeAllySIP.sol\":12186:12200  _stakerAddress */\n      dup10\n        /* \"TimeAllySIP.sol\":12162:12320  BenefitWithdrawl(... */\n      0xffffffffffffffffffffffffffffffffffffffff\n      and\n      0x8f4915db3c6bafb045a8ca029a06c4d1638daddb07e111ed35abf34f81b6a855\n        /* \"TimeAllySIP.sol\":12246:12247  1 */\n      0x01\n        /* \"TimeAllySIP.sol\":12222:12243  _lastWithdrawlMonthId */\n      dup5\n        /* \"TimeAllySIP.sol\":12222:12247  _lastWithdrawlMonthId + 1 */\n      add\n        /* \"TimeAllySIP.sol\":12255:12272  _withdrawlmonthId */\n      dup11\n        /* \"TimeAllySIP.sol\":12280:12296  _withdrawlAmount */\n      dup8\n        /* \"TimeAllySIP.sol\":12304:12314  msg.sender */\n      caller\n        /* \"TimeAllySIP.sol\":12162:12320  BenefitWithdrawl(... */\n      mload(0x40)\n      dup1\n      dup6\n      dup2\n      mstore\n      0x20\n      add\n      dup5\n      dup2\n      mstore\n      0x20\n      add\n      dup4\n      dup2\n      mstore\n      0x20\n      add\n      dup3\n      0xffffffffffffffffffffffffffffffffffffffff\n      and\n      0xffffffffffffffffffffffffffffffffffffffff\n      and\n      dup2\n      mstore\n      0x20\n      add\n      swap5\n      pop\n      pop\n      pop\n      pop\n      pop\n      mload(0x40)\n      dup1\n      swap2\n      sub\n      swap1\n      log3\n        /* \"TimeAllySIP.sol\":4355:4356  _ */\n      pop\n      pop\n      pop\n        /* \"TimeAllySIP.sol\":11224:12325  function withdrawBenefit(... */\n      pop\n      pop\n      pop\n      pop\n      pop\n      pop\n      jump\t// out\n        /* \"TimeAllySIP.sol\":14409:14666  function toogleNominee(uint256 _sipId, address _nomineeAddress, bool _newNomineeStatus) public {... */\n    tag_34:\n        /* \"TimeAllySIP.sol\":14563:14580  _newNomineeStatus */\n      dup1\n        /* \"TimeAllySIP.sol\":14510:14514  sips */\n      0x06\n        /* \"TimeAllySIP.sol\":14510:14526  sips[msg.sender] */\n      0x00\n        /* \"TimeAllySIP.sol\":14515:14525  msg.sender */\n      caller\n        /* \"TimeAllySIP.sol\":14510:14526  sips[msg.sender] */\n      0xffffffffffffffffffffffffffffffffffffffff\n      and\n      0xffffffffffffffffffffffffffffffffffffffff\n      and\n      dup2\n      mstore\n      0x20\n      add\n      swap1\n      dup2\n      mstore\n      0x20\n      add\n      0x00\n      keccak256\n        /* \"TimeAllySIP.sol\":14527:14533  _sipId */\n      dup5\n        /* \"TimeAllySIP.sol\":14510:14534  sips[msg.sender][_sipId] */\n      dup2\n      sload\n      dup2\n      lt\n      tag_108\n      jumpi\n      invalid\n    tag_108:\n      swap1\n      0x00\n      mstore\n      keccak256(0x00, 0x20)\n      swap1\n      0x0b\n      mul\n      add\n        /* \"TimeAllySIP.sol\":14510:14543  sips[msg.sender][_sipId].nominees */\n      0x09\n      add\n        /* \"TimeAllySIP.sol\":14510:14560  sips[msg.sender][_sipId].nominees[_nomineeAddress] */\n      0x00\n        /* \"TimeAllySIP.sol\":14544:14559  _nomineeAddress */\n      dup5\n        /* \"TimeAllySIP.sol\":14510:14560  sips[msg.sender][_sipId].nominees[_nomineeAddress] */\n      0xffffffffffffffffffffffffffffffffffffffff\n      and\n      0xffffffffffffffffffffffffffffffffffffffff\n      and\n      dup2\n      mstore\n      0x20\n      add\n      swap1\n      dup2\n      mstore\n      0x20\n      add\n      0x00\n      keccak256\n      0x00\n        /* \"TimeAllySIP.sol\":14510:14580  sips[msg.sender][_sipId].nominees[_nomineeAddress] = _newNomineeStatus */\n      0x0100\n      exp\n      dup2\n      sload\n      dup2\n      0xff\n      mul\n      not\n      and\n      swap1\n      dup4\n      iszero\n      iszero\n      mul\n      or\n      swap1\n      sstore\n      pop\n        /* \"TimeAllySIP.sol\":14626:14641  _nomineeAddress */\n      dup2\n        /* \"TimeAllySIP.sol\":14591:14661  NomineeUpdated(msg.sender, _sipId, _nomineeAddress, _newNomineeStatus) */\n      0xffffffffffffffffffffffffffffffffffffffff\n      and\n        /* \"TimeAllySIP.sol\":14618:14624  _sipId */\n      dup4\n        /* \"TimeAllySIP.sol\":14606:14616  msg.sender */\n      caller\n        /* \"TimeAllySIP.sol\":14591:14661  NomineeUpdated(msg.sender, _sipId, _nomineeAddress, _newNomineeStatus) */\n      0xffffffffffffffffffffffffffffffffffffffff\n      and\n      0x90e4568f920d8bb093366a04150aa0d04957a471196f5e1cdfb0db3cb83cc5b0\n        /* \"TimeAllySIP.sol\":14643:14660  _newNomineeStatus */\n      dup5\n        /* \"TimeAllySIP.sol\":14591:14661  NomineeUpdated(msg.sender, _sipId, _nomineeAddress, _newNomineeStatus) */\n      mload(0x40)\n      dup1\n      dup3\n      iszero\n      iszero\n      iszero\n      iszero\n      dup2\n      mstore\n      0x20\n      add\n      swap2\n      pop\n      pop\n      mload(0x40)\n      dup1\n      swap2\n      sub\n      swap1\n      log4\n        /* \"TimeAllySIP.sol\":14409:14666  function toogleNominee(uint256 _sipId, address _nomineeAddress, bool _newNomineeStatus) public {... */\n      pop\n      pop\n      pop\n      jump\t// out\n        /* \"TimeAllySIP.sol\":2568:2615  uint256 public EARTH_SECONDS_IN_MONTH = 2629744 */\n    tag_36:\n      sload(0x02)\n      dup2\n      jump\t// out\n        /* \"TimeAllySIP.sol\":2670:2697  uint256 public fundsDeposit */\n    tag_38:\n      sload(0x04)\n      dup2\n      jump\t// out\n        /* \"TimeAllySIP.sol\":5629:5986  function withdrawFunds(uint256 _withdrawlAmount) public onlyOwner {... */\n    tag_41:\n        /* \"TimeAllySIP.sol\":4070:4075  owner */\n      0x00\n      dup1\n      swap1\n      sload\n      swap1\n      0x0100\n      exp\n      swap1\n      div\n      0xffffffffffffffffffffffffffffffffffffffff\n      and\n        /* \"TimeAllySIP.sol\":4056:4075  msg.sender == owner */\n      0xffffffffffffffffffffffffffffffffffffffff\n      and\n        /* \"TimeAllySIP.sol\":4056:4066  msg.sender */\n      caller\n        /* \"TimeAllySIP.sol\":4056:4075  msg.sender == owner */\n      0xffffffffffffffffffffffffffffffffffffffff\n      and\n      eq\n        /* \"TimeAllySIP.sol\":4048:4102  require(msg.sender == owner, 'only deployer can call') */\n      tag_111\n      jumpi\n      mload(0x40)\n      0x08c379a000000000000000000000000000000000000000000000000000000000\n      dup2\n      mstore\n      0x04\n      add\n      dup1\n      dup1\n      0x20\n      add\n      dup3\n      dup2\n      sub\n      dup3\n      mstore\n      0x16\n      dup2\n      mstore\n      0x20\n      add\n      dup1\n      0x6f6e6c79206465706c6f7965722063616e2063616c6c00000000000000000000\n      dup2\n      mstore\n      pop\n      0x20\n      add\n      swap2\n      pop\n      pop\n      mload(0x40)\n      dup1\n      swap2\n      sub\n      swap1\n      revert\n    tag_111:\n        /* \"TimeAllySIP.sol\":5770:5786  _withdrawlAmount */\n      dup1\n        /* \"TimeAllySIP.sol\":5716:5766  fundsDeposit.sub(pendingBenefitAmountOfAllStakers) */\n      tag_113\n        /* \"TimeAllySIP.sol\":5733:5765  pendingBenefitAmountOfAllStakers */\n      sload(0x03)\n        /* \"TimeAllySIP.sol\":5716:5728  fundsDeposit */\n      sload(0x04)\n        /* \"TimeAllySIP.sol\":5716:5732  fundsDeposit.sub */\n      tag_102\n      swap1\n        /* \"TimeAllySIP.sol\":5716:5766  fundsDeposit.sub(pendingBenefitAmountOfAllStakers) */\n      swap2\n      swap1\n      0xffffffff\n      and\n      jump\t// in\n    tag_113:\n        /* \"TimeAllySIP.sol\":5716:5786  fundsDeposit.sub(pendingBenefitAmountOfAllStakers) >= _withdrawlAmount */\n      lt\n      iszero\n        /* \"TimeAllySIP.sol\":5701:5831  require(... */\n      tag_114\n      jumpi\n      mload(0x40)\n      0x08c379a000000000000000000000000000000000000000000000000000000000\n      dup2\n      mstore\n      0x04\n      add\n      dup1\n      dup1\n      0x20\n      add\n      dup3\n      dup2\n      sub\n      dup3\n      mstore\n      0x1c\n      dup2\n      mstore\n      0x20\n      add\n      dup1\n      0x63616e6e6f74207769746864726177206578636573732066756e647300000000\n      dup2\n      mstore\n      pop\n      0x20\n      add\n      swap2\n      pop\n      pop\n      mload(0x40)\n      dup1\n      swap2\n      sub\n      swap1\n      revert\n    tag_114:\n        /* \"TimeAllySIP.sol\":5853:5887  fundsDeposit.sub(_withdrawlAmount) */\n      tag_115\n        /* \"TimeAllySIP.sol\":5870:5886  _withdrawlAmount */\n      dup2\n        /* \"TimeAllySIP.sol\":5853:5865  fundsDeposit */\n      sload(0x04)\n        /* \"TimeAllySIP.sol\":5853:5869  fundsDeposit.sub */\n      tag_102\n      swap1\n        /* \"TimeAllySIP.sol\":5853:5887  fundsDeposit.sub(_withdrawlAmount) */\n      swap2\n      swap1\n      0xffffffff\n      and\n      jump\t// in\n    tag_115:\n        /* \"TimeAllySIP.sol\":5838:5850  fundsDeposit */\n      0x04\n        /* \"TimeAllySIP.sol\":5838:5887  fundsDeposit = fundsDeposit.sub(_withdrawlAmount) */\n      dup2\n      swap1\n      sstore\n      pop\n        /* \"TimeAllySIP.sol\":5893:5898  token */\n      0x01\n      0x00\n      swap1\n      sload\n      swap1\n      0x0100\n      exp\n      swap1\n      div\n      0xffffffffffffffffffffffffffffffffffffffff\n      and\n        /* \"TimeAllySIP.sol\":5893:5907  token.transfer */\n      0xffffffffffffffffffffffffffffffffffffffff\n      and\n      0xa9059cbb\n        /* \"TimeAllySIP.sol\":5908:5918  msg.sender */\n      caller\n        /* \"TimeAllySIP.sol\":5920:5936  _withdrawlAmount */\n      dup4\n        /* \"TimeAllySIP.sol\":5893:5937  token.transfer(msg.sender, _withdrawlAmount) */\n      mload(0x40)\n      dup4\n      0xffffffff\n      and\n      0xe0\n      shl\n      dup2\n      mstore\n      0x04\n      add\n      dup1\n      dup4\n      0xffffffffffffffffffffffffffffffffffffffff\n      and\n      0xffffffffffffffffffffffffffffffffffffffff\n      and\n      dup2\n      mstore\n      0x20\n      add\n      dup3\n      dup2\n      mstore\n      0x20\n      add\n      swap3\n      pop\n      pop\n      pop\n      0x20\n      mload(0x40)\n      dup1\n      dup4\n      sub\n      dup2\n      0x00\n      dup8\n      dup1\n      extcodesize\n      iszero\n        /* \"--CODEGEN--\":8:17   */\n      dup1\n        /* \"--CODEGEN--\":5:7   */\n      iszero\n      tag_116\n      jumpi\n        /* \"--CODEGEN--\":30:31   */\n      0x00\n        /* \"--CODEGEN--\":27:28   */\n      dup1\n        /* \"--CODEGEN--\":20:32   */\n      revert\n        /* \"--CODEGEN--\":5:7   */\n    tag_116:\n        /* \"TimeAllySIP.sol\":5893:5937  token.transfer(msg.sender, _withdrawlAmount) */\n      pop\n      gas\n      call\n      iszero\n        /* \"--CODEGEN--\":8:17   */\n      dup1\n        /* \"--CODEGEN--\":5:7   */\n      iszero\n      tag_117\n      jumpi\n        /* \"--CODEGEN--\":45:61   */\n      returndatasize\n        /* \"--CODEGEN--\":42:43   */\n      0x00\n        /* \"--CODEGEN--\":39:40   */\n      dup1\n        /* \"--CODEGEN--\":24:62   */\n      returndatacopy\n        /* \"--CODEGEN--\":77:93   */\n      returndatasize\n        /* \"--CODEGEN--\":74:75   */\n      0x00\n        /* \"--CODEGEN--\":67:94   */\n      revert\n        /* \"--CODEGEN--\":5:7   */\n    tag_117:\n        /* \"TimeAllySIP.sol\":5893:5937  token.transfer(msg.sender, _withdrawlAmount) */\n      pop\n      pop\n      pop\n      pop\n      mload(0x40)\n      returndatasize\n        /* \"--CODEGEN--\":13:15   */\n      0x20\n        /* \"--CODEGEN--\":8:11   */\n      dup2\n        /* \"--CODEGEN--\":5:16   */\n      lt\n        /* \"--CODEGEN--\":2:4   */\n      iszero\n      tag_118\n      jumpi\n        /* \"--CODEGEN--\":29:30   */\n      0x00\n        /* \"--CODEGEN--\":26:27   */\n      dup1\n        /* \"--CODEGEN--\":19:31   */\n      revert\n        /* \"--CODEGEN--\":2:4   */\n    tag_118:\n        /* \"TimeAllySIP.sol\":5893:5937  token.transfer(msg.sender, _withdrawlAmount) */\n      dup2\n      add\n      swap1\n      dup1\n      dup1\n      mload\n      swap1\n      0x20\n      add\n      swap1\n      swap3\n      swap2\n      swap1\n      pop\n      pop\n      pop\n      pop\n        /* \"TimeAllySIP.sol\":5949:5981  FundsWithdrawn(_withdrawlAmount) */\n      0x4a37b25aab49761ecf63117fe82b98d750917451133cf797507bc9fb5b96044a\n        /* \"TimeAllySIP.sol\":5964:5980  _withdrawlAmount */\n      dup2\n        /* \"TimeAllySIP.sol\":5949:5981  FundsWithdrawn(_withdrawlAmount) */\n      mload(0x40)\n      dup1\n      dup3\n      dup2\n      mstore\n      0x20\n      add\n      swap2\n      pop\n      pop\n      mload(0x40)\n      dup1\n      swap2\n      sub\n      swap1\n      log1\n        /* \"TimeAllySIP.sol\":5629:5986  function withdrawFunds(uint256 _withdrawlAmount) public onlyOwner {... */\n      pop\n      jump\t// out\n        /* \"TimeAllySIP.sol\":2619:2666  uint256 public pendingBenefitAmountOfAllStakers */\n    tag_43:\n      sload(0x03)\n      dup2\n      jump\t// out\n        /* \"TimeAllySIP.sol\":12329:14405  function withdrawPowerBooster(... */\n    tag_46:\n        /* \"TimeAllySIP.sol\":12430:12444  _stakerAddress */\n      dup2\n        /* \"TimeAllySIP.sol\":12446:12452  _sipId */\n      dup2\n        /* \"TimeAllySIP.sol\":4185:4201  SIP storage _sip */\n      0x00\n        /* \"TimeAllySIP.sol\":4204:4208  sips */\n      0x06\n        /* \"TimeAllySIP.sol\":4204:4224  sips[_stakerAddress] */\n      0x00\n        /* \"TimeAllySIP.sol\":4209:4223  _stakerAddress */\n      dup5\n        /* \"TimeAllySIP.sol\":4204:4224  sips[_stakerAddress] */\n      0xffffffffffffffffffffffffffffffffffffffff\n      and\n      0xffffffffffffffffffffffffffffffffffffffff\n      and\n      dup2\n      mstore\n      0x20\n      add\n      swap1\n      dup2\n      mstore\n      0x20\n      add\n      0x00\n      keccak256\n        /* \"TimeAllySIP.sol\":4225:4231  _sipId */\n      dup3\n        /* \"TimeAllySIP.sol\":4204:4232  sips[_stakerAddress][_sipId] */\n      dup2\n      sload\n      dup2\n      lt\n      tag_120\n      jumpi\n      invalid\n    tag_120:\n      swap1\n      0x00\n      mstore\n      keccak256(0x00, 0x20)\n      swap1\n      0x0b\n      mul\n      add\n        /* \"TimeAllySIP.sol\":4185:4232  SIP storage _sip = sips[_stakerAddress][_sipId] */\n      swap1\n      pop\n        /* \"TimeAllySIP.sol\":4255:4269  _stakerAddress */\n      dup3\n        /* \"TimeAllySIP.sol\":4241:4269  msg.sender != _stakerAddress */\n      0xffffffffffffffffffffffffffffffffffffffff\n      and\n        /* \"TimeAllySIP.sol\":4241:4251  msg.sender */\n      caller\n        /* \"TimeAllySIP.sol\":4241:4269  msg.sender != _stakerAddress */\n      0xffffffffffffffffffffffffffffffffffffffff\n      and\n      eq\n        /* \"TimeAllySIP.sol\":4238:4350  if(msg.sender != _stakerAddress) {... */\n      tag_122\n      jumpi\n        /* \"TimeAllySIP.sol\":4287:4291  _sip */\n      dup1\n        /* \"TimeAllySIP.sol\":4287:4300  _sip.nominees */\n      0x09\n      add\n        /* \"TimeAllySIP.sol\":4287:4312  _sip.nominees[msg.sender] */\n      0x00\n        /* \"TimeAllySIP.sol\":4301:4311  msg.sender */\n      caller\n        /* \"TimeAllySIP.sol\":4287:4312  _sip.nominees[msg.sender] */\n      0xffffffffffffffffffffffffffffffffffffffff\n      and\n      0xffffffffffffffffffffffffffffffffffffffff\n      and\n      dup2\n      mstore\n      0x20\n      add\n      swap1\n      dup2\n      mstore\n      0x20\n      add\n      0x00\n      keccak256\n      0x00\n      swap1\n      sload\n      swap1\n      0x0100\n      exp\n      swap1\n      div\n      0xff\n      and\n        /* \"TimeAllySIP.sol\":4279:4343  require(_sip.nominees[msg.sender], 'nomination should be there') */\n      tag_123\n      jumpi\n      mload(0x40)\n      0x08c379a000000000000000000000000000000000000000000000000000000000\n      dup2\n      mstore\n      0x04\n      add\n      dup1\n      dup1\n      0x20\n      add\n      dup3\n      dup2\n      sub\n      dup3\n      mstore\n      0x1a\n      dup2\n      mstore\n      0x20\n      add\n      dup1\n      0x6e6f6d696e6174696f6e2073686f756c64206265207468657265000000000000\n      dup2\n      mstore\n      pop\n      0x20\n      add\n      swap2\n      pop\n      pop\n      mload(0x40)\n      dup1\n      swap2\n      sub\n      swap1\n      revert\n    tag_123:\n        /* \"TimeAllySIP.sol\":4238:4350  if(msg.sender != _stakerAddress) {... */\n    tag_122:\n        /* \"TimeAllySIP.sol\":12460:12476  SIP storage _sip */\n      0x00\n        /* \"TimeAllySIP.sol\":12479:12483  sips */\n      0x06\n        /* \"TimeAllySIP.sol\":12479:12499  sips[_stakerAddress] */\n      0x00\n        /* \"TimeAllySIP.sol\":12484:12498  _stakerAddress */\n      dup8\n        /* \"TimeAllySIP.sol\":12479:12499  sips[_stakerAddress] */\n      0xffffffffffffffffffffffffffffffffffffffff\n      and\n      0xffffffffffffffffffffffffffffffffffffffff\n      and\n      dup2\n      mstore\n      0x20\n      add\n      swap1\n      dup2\n      mstore\n      0x20\n      add\n      0x00\n      keccak256\n        /* \"TimeAllySIP.sol\":12500:12506  _sipId */\n      dup6\n        /* \"TimeAllySIP.sol\":12479:12507  sips[_stakerAddress][_sipId] */\n      dup2\n      sload\n      dup2\n      lt\n      tag_125\n      jumpi\n      invalid\n    tag_125:\n      swap1\n      0x00\n      mstore\n      keccak256(0x00, 0x20)\n      swap1\n      0x0b\n      mul\n      add\n        /* \"TimeAllySIP.sol\":12460:12507  SIP storage _sip = sips[_stakerAddress][_sipId] */\n      swap1\n      pop\n        /* \"TimeAllySIP.sol\":12552:12553  3 */\n      0x03\n        /* \"TimeAllySIP.sol\":12522:12526  _sip */\n      dup2\n        /* \"TimeAllySIP.sol\":12522:12549  _sip.powerBoosterWithdrawls */\n      0x05\n      add\n      sload\n        /* \"TimeAllySIP.sol\":12522:12553  _sip.powerBoosterWithdrawls < 3 */\n      lt\n        /* \"TimeAllySIP.sol\":12514:12579  require(_sip.powerBoosterWithdrawls < 3, 'only 3 power boosters') */\n      tag_127\n      jumpi\n      mload(0x40)\n      0x08c379a000000000000000000000000000000000000000000000000000000000\n      dup2\n      mstore\n      0x04\n      add\n      dup1\n      dup1\n      0x20\n      add\n      dup3\n      dup2\n      sub\n      dup3\n      mstore\n      0x15\n      dup2\n      mstore\n      0x20\n      add\n      dup1\n      0x6f6e6c79203320706f77657220626f6f73746572730000000000000000000000\n      dup2\n      mstore\n      pop\n      0x20\n      add\n      swap2\n      pop\n      pop\n      mload(0x40)\n      dup1\n      swap2\n      sub\n      swap1\n      revert\n    tag_127:\n        /* \"TimeAllySIP.sol\":12585:12612  uint256 _powerBoosterSerial */\n      0x00\n        /* \"TimeAllySIP.sol\":12645:12646  1 */\n      0x01\n        /* \"TimeAllySIP.sol\":12615:12619  _sip */\n      dup3\n        /* \"TimeAllySIP.sol\":12615:12642  _sip.powerBoosterWithdrawls */\n      0x05\n      add\n      sload\n        /* \"TimeAllySIP.sol\":12615:12646  _sip.powerBoosterWithdrawls + 1 */\n      add\n        /* \"TimeAllySIP.sol\":12585:12646  uint256 _powerBoosterSerial = _sip.powerBoosterWithdrawls + 1 */\n      swap1\n      pop\n        /* \"TimeAllySIP.sol\":12707:12732  uint256 _allowedTimestamp */\n      0x00\n        /* \"TimeAllySIP.sol\":12948:12970  EARTH_SECONDS_IN_MONTH */\n      sload(0x02)\n        /* \"TimeAllySIP.sol\":12944:12945  3 */\n      0x03\n        /* \"TimeAllySIP.sol\":12922:12941  _powerBoosterSerial */\n      dup4\n        /* \"TimeAllySIP.sol\":12897:12919  EARTH_SECONDS_IN_MONTH */\n      sload(0x02)\n        /* \"TimeAllySIP.sol\":12892:12894  12 */\n      0x0c\n        /* \"TimeAllySIP.sol\":12847:12855  sipPlans */\n      0x05\n        /* \"TimeAllySIP.sol\":12857:12861  _sip */\n      dup9\n        /* \"TimeAllySIP.sol\":12857:12868  _sip.planId */\n      0x00\n      add\n      sload\n        /* \"TimeAllySIP.sol\":12847:12870  sipPlans[ _sip.planId ] */\n      dup2\n      sload\n      dup2\n      lt\n      tag_128\n      jumpi\n      invalid\n    tag_128:\n      swap1\n      0x00\n      mstore\n      keccak256(0x00, 0x20)\n      swap1\n      0x08\n      mul\n      add\n        /* \"TimeAllySIP.sol\":12847:12889  sipPlans[ _sip.planId ].benefitPeriodYears */\n      0x03\n      add\n      sload\n        /* \"TimeAllySIP.sol\":12847:12894  sipPlans[ _sip.planId ].benefitPeriodYears * 12 */\n      mul\n        /* \"TimeAllySIP.sol\":12847:12919  sipPlans[ _sip.planId ].benefitPeriodYears * 12 * EARTH_SECONDS_IN_MONTH */\n      mul\n        /* \"TimeAllySIP.sol\":12847:12941  sipPlans[ _sip.planId ].benefitPeriodYears * 12 * EARTH_SECONDS_IN_MONTH * _powerBoosterSerial */\n      mul\n        /* \"TimeAllySIP.sol\":12847:12945  sipPlans[ _sip.planId ].benefitPeriodYears * 12 * EARTH_SECONDS_IN_MONTH * _powerBoosterSerial / 3 */\n      dup2\n      tag_130\n      jumpi\n      invalid\n    tag_130:\n      div\n        /* \"TimeAllySIP.sol\":12816:12838  EARTH_SECONDS_IN_MONTH */\n      sload(0x02)\n        /* \"TimeAllySIP.sol\":12765:12773  sipPlans */\n      0x05\n        /* \"TimeAllySIP.sol\":12775:12779  _sip */\n      dup7\n        /* \"TimeAllySIP.sol\":12775:12786  _sip.planId */\n      0x00\n      add\n      sload\n        /* \"TimeAllySIP.sol\":12765:12788  sipPlans[ _sip.planId ] */\n      dup2\n      sload\n      dup2\n      lt\n      tag_131\n      jumpi\n      invalid\n    tag_131:\n      swap1\n      0x00\n      mstore\n      keccak256(0x00, 0x20)\n      swap1\n      0x08\n      mul\n      add\n        /* \"TimeAllySIP.sol\":12765:12813  sipPlans[ _sip.planId ].accumulationPeriodMonths */\n      0x02\n      add\n      sload\n        /* \"TimeAllySIP.sol\":12765:12838  sipPlans[ _sip.planId ].accumulationPeriodMonths * EARTH_SECONDS_IN_MONTH */\n      mul\n        /* \"TimeAllySIP.sol\":12735:12739  _sip */\n      dup6\n        /* \"TimeAllySIP.sol\":12735:12756  _sip.stakingTimestamp */\n      0x01\n      add\n      sload\n        /* \"TimeAllySIP.sol\":12735:12838  _sip.stakingTimestamp... */\n      add\n        /* \"TimeAllySIP.sol\":12735:12945  _sip.stakingTimestamp... */\n      add\n        /* \"TimeAllySIP.sol\":12735:12970  _sip.stakingTimestamp... */\n      sub\n        /* \"TimeAllySIP.sol\":12707:12970  uint256 _allowedTimestamp = _sip.stakingTimestamp... */\n      swap1\n      pop\n        /* \"TimeAllySIP.sol\":12994:13008  _stakerAddress */\n      dup8\n        /* \"TimeAllySIP.sol\":12980:13008  msg.sender != _stakerAddress */\n      0xffffffffffffffffffffffffffffffffffffffff\n      and\n        /* \"TimeAllySIP.sol\":12980:12990  msg.sender */\n      caller\n        /* \"TimeAllySIP.sol\":12980:13008  msg.sender != _stakerAddress */\n      0xffffffffffffffffffffffffffffffffffffffff\n      and\n      eq\n        /* \"TimeAllySIP.sol\":12977:13220  if(msg.sender != _stakerAddress) {... */\n      tag_133\n      jumpi\n        /* \"TimeAllySIP.sol\":13043:13073  _sip.numberOfAppointees.div(2) */\n      tag_134\n        /* \"TimeAllySIP.sol\":13071:13072  2 */\n      0x02\n        /* \"TimeAllySIP.sol\":13043:13047  _sip */\n      dup5\n        /* \"TimeAllySIP.sol\":13043:13066  _sip.numberOfAppointees */\n      0x06\n      add\n      sload\n        /* \"TimeAllySIP.sol\":13043:13070  _sip.numberOfAppointees.div */\n      tag_135\n      swap1\n        /* \"TimeAllySIP.sol\":13043:13073  _sip.numberOfAppointees.div(2) */\n      swap2\n      swap1\n      0xffffffff\n      and\n      jump\t// in\n    tag_134:\n        /* \"TimeAllySIP.sol\":13021:13025  _sip */\n      dup4\n        /* \"TimeAllySIP.sol\":13021:13040  _sip.appointeeVotes */\n      0x07\n      add\n      sload\n        /* \"TimeAllySIP.sol\":13021:13073  _sip.appointeeVotes > _sip.numberOfAppointees.div(2) */\n      gt\n        /* \"TimeAllySIP.sol\":13018:13214  if(_sip.appointeeVotes > _sip.numberOfAppointees.div(2)) {... */\n      iszero\n      tag_136\n      jumpi\n        /* \"TimeAllySIP.sol\":13131:13132  6 */\n      0x06\n        /* \"TimeAllySIP.sol\":13106:13128  EARTH_SECONDS_IN_MONTH */\n      sload(0x02)\n        /* \"TimeAllySIP.sol\":13106:13132  EARTH_SECONDS_IN_MONTH * 6 */\n      mul\n        /* \"TimeAllySIP.sol\":13085:13132  _allowedTimestamp += EARTH_SECONDS_IN_MONTH * 6 */\n      dup2\n      add\n      swap1\n      pop\n        /* \"TimeAllySIP.sol\":13018:13214  if(_sip.appointeeVotes > _sip.numberOfAppointees.div(2)) {... */\n      jump(tag_137)\n    tag_136:\n        /* \"TimeAllySIP.sol\":13203:13205  12 */\n      0x0c\n        /* \"TimeAllySIP.sol\":13178:13200  EARTH_SECONDS_IN_MONTH */\n      sload(0x02)\n        /* \"TimeAllySIP.sol\":13178:13205  EARTH_SECONDS_IN_MONTH * 12 */\n      mul\n        /* \"TimeAllySIP.sol\":13157:13205  _allowedTimestamp += EARTH_SECONDS_IN_MONTH * 12 */\n      dup2\n      add\n      swap1\n      pop\n        /* \"TimeAllySIP.sol\":13018:13214  if(_sip.appointeeVotes > _sip.numberOfAppointees.div(2)) {... */\n    tag_137:\n        /* \"TimeAllySIP.sol\":12977:13220  if(msg.sender != _stakerAddress) {... */\n    tag_133:\n        /* \"TimeAllySIP.sol\":13240:13257  _allowedTimestamp */\n      dup1\n        /* \"TimeAllySIP.sol\":13234:13237  now */\n      timestamp\n        /* \"TimeAllySIP.sol\":13234:13257  now > _allowedTimestamp */\n      gt\n        /* \"TimeAllySIP.sol\":13226:13283  require(now > _allowedTimestamp, 'cannot withdraw early') */\n      tag_138\n      jumpi\n      mload(0x40)\n      0x08c379a000000000000000000000000000000000000000000000000000000000\n      dup2\n      mstore\n      0x04\n      add\n      dup1\n      dup1\n      0x20\n      add\n      dup3\n      dup2\n      sub\n      dup3\n      mstore\n      0x15\n      dup2\n      mstore\n      0x20\n      add\n      dup1\n      0x63616e6e6f74207769746864726177206561726c790000000000000000000000\n      dup2\n      mstore\n      pop\n      0x20\n      add\n      swap2\n      pop\n      pop\n      mload(0x40)\n      dup1\n      swap2\n      sub\n      swap1\n      revert\n    tag_138:\n        /* \"TimeAllySIP.sol\":13373:13392  _powerBoosterSerial */\n      dup2\n        /* \"TimeAllySIP.sol\":13343:13347  _sip */\n      dup4\n        /* \"TimeAllySIP.sol\":13343:13370  _sip.powerBoosterWithdrawls */\n      0x05\n      add\n        /* \"TimeAllySIP.sol\":13343:13392  _sip.powerBoosterWithdrawls = _powerBoosterSerial */\n      dup2\n      swap1\n      sstore\n      pop\n        /* \"TimeAllySIP.sol\":13399:13426  uint256 _powerBoosterAmount */\n      0x00\n        /* \"TimeAllySIP.sol\":13429:13455  _sip.totalDeposited.div(3) */\n      tag_139\n        /* \"TimeAllySIP.sol\":13453:13454  3 */\n      0x03\n        /* \"TimeAllySIP.sol\":13429:13433  _sip */\n      dup6\n        /* \"TimeAllySIP.sol\":13429:13448  _sip.totalDeposited */\n      0x03\n      add\n      sload\n        /* \"TimeAllySIP.sol\":13429:13452  _sip.totalDeposited.div */\n      tag_135\n      swap1\n        /* \"TimeAllySIP.sol\":13429:13455  _sip.totalDeposited.div(3) */\n      swap2\n      swap1\n      0xffffffff\n      and\n      jump\t// in\n    tag_139:\n        /* \"TimeAllySIP.sol\":13399:13455  uint256 _powerBoosterAmount = _sip.totalDeposited.div(3) */\n      swap1\n      pop\n        /* \"TimeAllySIP.sol\":13488:13489  1 */\n      0x01\n        /* \"TimeAllySIP.sol\":13465:13484  _powerBoosterSerial */\n      dup4\n        /* \"TimeAllySIP.sol\":13465:13489  _powerBoosterSerial == 1 */\n      eq\n        /* \"TimeAllySIP.sol\":13462:14200  if(_powerBoosterSerial == 1) {... */\n      iszero\n      tag_140\n      jumpi\n        /* \"TimeAllySIP.sol\":13499:13526  uint256 _totalPenaltyFactor */\n      0x00\n        /* \"TimeAllySIP.sol\":13538:13547  uint256 i */\n      dup1\n        /* \"TimeAllySIP.sol\":13550:13551  1 */\n      0x01\n        /* \"TimeAllySIP.sol\":13538:13551  uint256 i = 1 */\n      swap1\n      pop\n        /* \"TimeAllySIP.sol\":13534:13938  for(uint256 i = 1; i <= sipPlans[ _sip.planId ].accumulationPeriodMonths; i++) {... */\n    tag_141:\n        /* \"TimeAllySIP.sol\":13558:13566  sipPlans */\n      0x05\n        /* \"TimeAllySIP.sol\":13568:13572  _sip */\n      dup7\n        /* \"TimeAllySIP.sol\":13568:13579  _sip.planId */\n      0x00\n      add\n      sload\n        /* \"TimeAllySIP.sol\":13558:13581  sipPlans[ _sip.planId ] */\n      dup2\n      sload\n      dup2\n      lt\n      tag_144\n      jumpi\n      invalid\n    tag_144:\n      swap1\n      0x00\n      mstore\n      keccak256(0x00, 0x20)\n      swap1\n      0x08\n      mul\n      add\n        /* \"TimeAllySIP.sol\":13558:13606  sipPlans[ _sip.planId ].accumulationPeriodMonths */\n      0x02\n      add\n      sload\n        /* \"TimeAllySIP.sol\":13553:13554  i */\n      dup2\n        /* \"TimeAllySIP.sol\":13553:13606  i <= sipPlans[ _sip.planId ].accumulationPeriodMonths */\n      gt\n        /* \"TimeAllySIP.sol\":13534:13938  for(uint256 i = 1; i <= sipPlans[ _sip.planId ].accumulationPeriodMonths; i++) {... */\n      tag_142\n      jumpi\n        /* \"TimeAllySIP.sol\":13651:13652  0 */\n      0x00\n        /* \"TimeAllySIP.sol\":13626:13630  _sip */\n      dup7\n        /* \"TimeAllySIP.sol\":13626:13644  _sip.depositStatus */\n      0x08\n      add\n        /* \"TimeAllySIP.sol\":13626:13647  _sip.depositStatus[i] */\n      0x00\n        /* \"TimeAllySIP.sol\":13645:13646  i */\n      dup4\n        /* \"TimeAllySIP.sol\":13626:13647  _sip.depositStatus[i] */\n      dup2\n      mstore\n      0x20\n      add\n      swap1\n      dup2\n      mstore\n      0x20\n      add\n      0x00\n      keccak256\n      sload\n        /* \"TimeAllySIP.sol\":13626:13652  _sip.depositStatus[i] == 0 */\n      eq\n        /* \"TimeAllySIP.sol\":13623:13930  if(_sip.depositStatus[i] == 0) {... */\n      iszero\n      tag_146\n      jumpi\n        /* \"TimeAllySIP.sol\":13718:13726  sipPlans */\n      0x05\n        /* \"TimeAllySIP.sol\":13728:13732  _sip */\n      dup7\n        /* \"TimeAllySIP.sol\":13728:13739  _sip.planId */\n      0x00\n      add\n      sload\n        /* \"TimeAllySIP.sol\":13718:13741  sipPlans[ _sip.planId ] */\n      dup2\n      sload\n      dup2\n      lt\n      tag_147\n      jumpi\n      invalid\n    tag_147:\n      swap1\n      0x00\n      mstore\n      keccak256(0x00, 0x20)\n      swap1\n      0x08\n      mul\n      add\n        /* \"TimeAllySIP.sol\":13718:13762  sipPlans[ _sip.planId ].defaultPenaltyFactor */\n      0x07\n      add\n      sload\n        /* \"TimeAllySIP.sol\":13695:13762  _totalPenaltyFactor += sipPlans[ _sip.planId ].defaultPenaltyFactor */\n      dup3\n      add\n      swap2\n      pop\n        /* \"TimeAllySIP.sol\":13623:13930  if(_sip.depositStatus[i] == 0) {... */\n      jump(tag_149)\n    tag_146:\n        /* \"TimeAllySIP.sol\":13807:13808  1 */\n      0x01\n        /* \"TimeAllySIP.sol\":13782:13786  _sip */\n      dup7\n        /* \"TimeAllySIP.sol\":13782:13800  _sip.depositStatus */\n      0x08\n      add\n        /* \"TimeAllySIP.sol\":13782:13803  _sip.depositStatus[i] */\n      0x00\n        /* \"TimeAllySIP.sol\":13801:13802  i */\n      dup4\n        /* \"TimeAllySIP.sol\":13782:13803  _sip.depositStatus[i] */\n      dup2\n      mstore\n      0x20\n      add\n      swap1\n      dup2\n      mstore\n      0x20\n      add\n      0x00\n      keccak256\n      sload\n        /* \"TimeAllySIP.sol\":13782:13808  _sip.depositStatus[i] == 1 */\n      eq\n        /* \"TimeAllySIP.sol\":13779:13930  if(_sip.depositStatus[i] == 1) {... */\n      iszero\n      tag_150\n      jumpi\n        /* \"TimeAllySIP.sol\":13877:13885  sipPlans */\n      0x05\n        /* \"TimeAllySIP.sol\":13887:13891  _sip */\n      dup7\n        /* \"TimeAllySIP.sol\":13887:13898  _sip.planId */\n      0x00\n      add\n      sload\n        /* \"TimeAllySIP.sol\":13877:13900  sipPlans[ _sip.planId ] */\n      dup2\n      sload\n      dup2\n      lt\n      tag_151\n      jumpi\n      invalid\n    tag_151:\n      swap1\n      0x00\n      mstore\n      keccak256(0x00, 0x20)\n      swap1\n      0x08\n      mul\n      add\n        /* \"TimeAllySIP.sol\":13877:13919  sipPlans[ _sip.planId ].gracePenaltyFactor */\n      0x06\n      add\n      sload\n        /* \"TimeAllySIP.sol\":13854:13919  _totalPenaltyFactor += sipPlans[ _sip.planId ].gracePenaltyFactor */\n      dup3\n      add\n      swap2\n      pop\n        /* \"TimeAllySIP.sol\":13779:13930  if(_sip.depositStatus[i] == 1) {... */\n    tag_150:\n        /* \"TimeAllySIP.sol\":13623:13930  if(_sip.depositStatus[i] == 0) {... */\n    tag_149:\n        /* \"TimeAllySIP.sol\":13608:13611  i++ */\n      dup1\n      dup1\n      0x01\n      add\n      swap2\n      pop\n      pop\n        /* \"TimeAllySIP.sol\":13534:13938  for(uint256 i = 1; i <= sipPlans[ _sip.planId ].accumulationPeriodMonths; i++) {... */\n      jump(tag_141)\n    tag_142:\n      pop\n        /* \"TimeAllySIP.sol\":13945:13967  uint256 _penaltyAmount */\n      0x00\n        /* \"TimeAllySIP.sol\":13970:14024  _powerBoosterAmount.mul(_totalPenaltyFactor).div(1000) */\n      tag_153\n        /* \"TimeAllySIP.sol\":14019:14023  1000 */\n      0x03e8\n        /* \"TimeAllySIP.sol\":13970:14014  _powerBoosterAmount.mul(_totalPenaltyFactor) */\n      tag_154\n        /* \"TimeAllySIP.sol\":13994:14013  _totalPenaltyFactor */\n      dup5\n        /* \"TimeAllySIP.sol\":13970:13989  _powerBoosterAmount */\n      dup7\n        /* \"TimeAllySIP.sol\":13970:13993  _powerBoosterAmount.mul */\n      tag_155\n      swap1\n        /* \"TimeAllySIP.sol\":13970:14014  _powerBoosterAmount.mul(_totalPenaltyFactor) */\n      swap2\n      swap1\n      0xffffffff\n      and\n      jump\t// in\n    tag_154:\n        /* \"TimeAllySIP.sol\":13970:14018  _powerBoosterAmount.mul(_totalPenaltyFactor).div */\n      tag_135\n      swap1\n        /* \"TimeAllySIP.sol\":13970:14024  _powerBoosterAmount.mul(_totalPenaltyFactor).div(1000) */\n      swap2\n      swap1\n      0xffffffff\n      and\n      jump\t// in\n    tag_153:\n        /* \"TimeAllySIP.sol\":13945:14024  uint256 _penaltyAmount = _powerBoosterAmount.mul(_totalPenaltyFactor).div(1000) */\n      swap1\n      pop\n        /* \"TimeAllySIP.sol\":14091:14123  fundsDeposit.add(_penaltyAmount) */\n      tag_156\n        /* \"TimeAllySIP.sol\":14108:14122  _penaltyAmount */\n      dup2\n        /* \"TimeAllySIP.sol\":14091:14103  fundsDeposit */\n      sload(0x04)\n        /* \"TimeAllySIP.sol\":14091:14107  fundsDeposit.add */\n      tag_157\n      swap1\n        /* \"TimeAllySIP.sol\":14091:14123  fundsDeposit.add(_penaltyAmount) */\n      swap2\n      swap1\n      0xffffffff\n      and\n      jump\t// in\n    tag_156:\n        /* \"TimeAllySIP.sol\":14076:14088  fundsDeposit */\n      0x04\n        /* \"TimeAllySIP.sol\":14076:14123  fundsDeposit = fundsDeposit.add(_penaltyAmount) */\n      dup2\n      swap1\n      sstore\n      pop\n        /* \"TimeAllySIP.sol\":14154:14193  _powerBoosterAmount.sub(_penaltyAmount) */\n      tag_158\n        /* \"TimeAllySIP.sol\":14178:14192  _penaltyAmount */\n      dup2\n        /* \"TimeAllySIP.sol\":14154:14173  _powerBoosterAmount */\n      dup5\n        /* \"TimeAllySIP.sol\":14154:14177  _powerBoosterAmount.sub */\n      tag_102\n      swap1\n        /* \"TimeAllySIP.sol\":14154:14193  _powerBoosterAmount.sub(_penaltyAmount) */\n      swap2\n      swap1\n      0xffffffff\n      and\n      jump\t// in\n    tag_158:\n        /* \"TimeAllySIP.sol\":14132:14193  _powerBoosterAmount = _powerBoosterAmount.sub(_penaltyAmount) */\n      swap3\n      pop\n        /* \"TimeAllySIP.sol\":13462:14200  if(_powerBoosterSerial == 1) {... */\n      pop\n      pop\n    tag_140:\n        /* \"TimeAllySIP.sol\":14206:14211  token */\n      0x01\n      0x00\n      swap1\n      sload\n      swap1\n      0x0100\n      exp\n      swap1\n      div\n      0xffffffffffffffffffffffffffffffffffffffff\n      and\n        /* \"TimeAllySIP.sol\":14206:14220  token.transfer */\n      0xffffffffffffffffffffffffffffffffffffffff\n      and\n      0xa9059cbb\n        /* \"TimeAllySIP.sol\":14221:14231  msg.sender */\n      caller\n        /* \"TimeAllySIP.sol\":14233:14252  _powerBoosterAmount */\n      dup4\n        /* \"TimeAllySIP.sol\":14206:14253  token.transfer(msg.sender, _powerBoosterAmount) */\n      mload(0x40)\n      dup4\n      0xffffffff\n      and\n      0xe0\n      shl\n      dup2\n      mstore\n      0x04\n      add\n      dup1\n      dup4\n      0xffffffffffffffffffffffffffffffffffffffff\n      and\n      0xffffffffffffffffffffffffffffffffffffffff\n      and\n      dup2\n      mstore\n      0x20\n      add\n      dup3\n      dup2\n      mstore\n      0x20\n      add\n      swap3\n      pop\n      pop\n      pop\n      0x20\n      mload(0x40)\n      dup1\n      dup4\n      sub\n      dup2\n      0x00\n      dup8\n      dup1\n      extcodesize\n      iszero\n        /* \"--CODEGEN--\":8:17   */\n      dup1\n        /* \"--CODEGEN--\":5:7   */\n      iszero\n      tag_159\n      jumpi\n        /* \"--CODEGEN--\":30:31   */\n      0x00\n        /* \"--CODEGEN--\":27:28   */\n      dup1\n        /* \"--CODEGEN--\":20:32   */\n      revert\n        /* \"--CODEGEN--\":5:7   */\n    tag_159:\n        /* \"TimeAllySIP.sol\":14206:14253  token.transfer(msg.sender, _powerBoosterAmount) */\n      pop\n      gas\n      call\n      iszero\n        /* \"--CODEGEN--\":8:17   */\n      dup1\n        /* \"--CODEGEN--\":5:7   */\n      iszero\n      tag_160\n      jumpi\n        /* \"--CODEGEN--\":45:61   */\n      returndatasize\n        /* \"--CODEGEN--\":42:43   */\n      0x00\n        /* \"--CODEGEN--\":39:40   */\n      dup1\n        /* \"--CODEGEN--\":24:62   */\n      returndatacopy\n        /* \"--CODEGEN--\":77:93   */\n      returndatasize\n        /* \"--CODEGEN--\":74:75   */\n      0x00\n        /* \"--CODEGEN--\":67:94   */\n      revert\n        /* \"--CODEGEN--\":5:7   */\n    tag_160:\n        /* \"TimeAllySIP.sol\":14206:14253  token.transfer(msg.sender, _powerBoosterAmount) */\n      pop\n      pop\n      pop\n      pop\n      mload(0x40)\n      returndatasize\n        /* \"--CODEGEN--\":13:15   */\n      0x20\n        /* \"--CODEGEN--\":8:11   */\n      dup2\n        /* \"--CODEGEN--\":5:16   */\n      lt\n        /* \"--CODEGEN--\":2:4   */\n      iszero\n      tag_161\n      jumpi\n        /* \"--CODEGEN--\":29:30   */\n      0x00\n        /* \"--CODEGEN--\":26:27   */\n      dup1\n        /* \"--CODEGEN--\":19:31   */\n      revert\n        /* \"--CODEGEN--\":2:4   */\n    tag_161:\n        /* \"TimeAllySIP.sol\":14206:14253  token.transfer(msg.sender, _powerBoosterAmount) */\n      dup2\n      add\n      swap1\n      dup1\n      dup1\n      mload\n      swap1\n      0x20\n      add\n      swap1\n      swap3\n      swap2\n      swap1\n      pop\n      pop\n      pop\n      pop\n        /* \"TimeAllySIP.sol\":14316:14322  _sipId */\n      dup8\n        /* \"TimeAllySIP.sol\":14294:14308  _stakerAddress */\n      dup10\n        /* \"TimeAllySIP.sol\":14265:14400  PowerBoosterWithdrawl(... */\n      0xffffffffffffffffffffffffffffffffffffffff\n      and\n      0xa1c568ef1602bc58c1e32ea2f1251b87874dce947f5d4f4df53677d06d5bf56d\n        /* \"TimeAllySIP.sol\":14330:14349  _powerBoosterSerial */\n      dup6\n        /* \"TimeAllySIP.sol\":14357:14376  _powerBoosterAmount */\n      dup5\n        /* \"TimeAllySIP.sol\":14384:14394  msg.sender */\n      caller\n        /* \"TimeAllySIP.sol\":14265:14400  PowerBoosterWithdrawl(... */\n      mload(0x40)\n      dup1\n      dup5\n      dup2\n      mstore\n      0x20\n      add\n      dup4\n      dup2\n      mstore\n      0x20\n      add\n      dup3\n      0xffffffffffffffffffffffffffffffffffffffff\n      and\n      0xffffffffffffffffffffffffffffffffffffffff\n      and\n      dup2\n      mstore\n      0x20\n      add\n      swap4\n      pop\n      pop\n      pop\n      pop\n      mload(0x40)\n      dup1\n      swap2\n      sub\n      swap1\n      log3\n        /* \"TimeAllySIP.sol\":4355:4356  _ */\n      pop\n      pop\n      pop\n      pop\n        /* \"TimeAllySIP.sol\":12329:14405  function withdrawPowerBooster(... */\n      pop\n      pop\n      pop\n      pop\n      pop\n      jump\t// out\n        /* \"TimeAllySIP.sol\":4659:5396  function createSIPPlan(... */\n    tag_49:\n        /* \"TimeAllySIP.sol\":4070:4075  owner */\n      0x00\n      dup1\n      swap1\n      sload\n      swap1\n      0x0100\n      exp\n      swap1\n      div\n      0xffffffffffffffffffffffffffffffffffffffff\n      and\n        /* \"TimeAllySIP.sol\":4056:4075  msg.sender == owner */\n      0xffffffffffffffffffffffffffffffffffffffff\n      and\n        /* \"TimeAllySIP.sol\":4056:4066  msg.sender */\n      caller\n        /* \"TimeAllySIP.sol\":4056:4075  msg.sender == owner */\n      0xffffffffffffffffffffffffffffffffffffffff\n      and\n      eq\n        /* \"TimeAllySIP.sol\":4048:4102  require(msg.sender == owner, 'only deployer can call') */\n      tag_163\n      jumpi\n      mload(0x40)\n      0x08c379a000000000000000000000000000000000000000000000000000000000\n      dup2\n      mstore\n      0x04\n      add\n      dup1\n      dup1\n      0x20\n      add\n      dup3\n      dup2\n      sub\n      dup3\n      mstore\n      0x16\n      dup2\n      mstore\n      0x20\n      add\n      dup1\n      0x6f6e6c79206465706c6f7965722063616e2063616c6c00000000000000000000\n      dup2\n      mstore\n      pop\n      0x20\n      add\n      swap2\n      pop\n      pop\n      mload(0x40)\n      dup1\n      swap2\n      sub\n      swap1\n      revert\n    tag_163:\n        /* \"TimeAllySIP.sol\":4962:4970  sipPlans */\n      0x05\n        /* \"TimeAllySIP.sol\":4976:5390  SIPPlan({... */\n      mload(0x40)\n      dup1\n      0x0100\n      add\n      0x40\n      mstore\n      dup1\n        /* \"TimeAllySIP.sol\":5006:5010  true */\n      0x01\n        /* \"TimeAllySIP.sol\":4976:5390  SIPPlan({... */\n      iszero\n      iszero\n      dup2\n      mstore\n      0x20\n      add\n        /* \"TimeAllySIP.sol\":5050:5081  _minimumMonthlyCommitmentAmount */\n      dup10\n        /* \"TimeAllySIP.sol\":4976:5390  SIPPlan({... */\n      dup2\n      mstore\n      0x20\n      add\n        /* \"TimeAllySIP.sol\":5115:5140  _accumulationPeriodMonths */\n      dup9\n        /* \"TimeAllySIP.sol\":4976:5390  SIPPlan({... */\n      dup2\n      mstore\n      0x20\n      add\n        /* \"TimeAllySIP.sol\":5168:5187  _benefitPeriodYears */\n      dup8\n        /* \"TimeAllySIP.sol\":4976:5390  SIPPlan({... */\n      dup2\n      mstore\n      0x20\n      add\n        /* \"TimeAllySIP.sol\":5215:5234  _gracePeriodSeconds */\n      dup7\n        /* \"TimeAllySIP.sol\":4976:5390  SIPPlan({... */\n      dup2\n      mstore\n      0x20\n      add\n        /* \"TimeAllySIP.sol\":5264:5285  _monthlyBenefitFactor */\n      dup6\n        /* \"TimeAllySIP.sol\":4976:5390  SIPPlan({... */\n      dup2\n      mstore\n      0x20\n      add\n        /* \"TimeAllySIP.sol\":5313:5332  _gracePenaltyFactor */\n      dup5\n        /* \"TimeAllySIP.sol\":4976:5390  SIPPlan({... */\n      dup2\n      mstore\n      0x20\n      add\n        /* \"TimeAllySIP.sol\":5362:5383  _defaultPenaltyFactor */\n      dup4\n        /* \"TimeAllySIP.sol\":4976:5390  SIPPlan({... */\n      dup2\n      mstore\n      pop\n        /* \"TimeAllySIP.sol\":4962:5391  sipPlans.push(SIPPlan({... */\n      swap1\n      dup1\n        /* \"--CODEGEN--\":39:40   */\n      0x01\n        /* \"--CODEGEN--\":33:36   */\n      dup2\n        /* \"--CODEGEN--\":27:37   */\n      sload\n        /* \"--CODEGEN--\":23:41   */\n      add\n        /* \"--CODEGEN--\":57:67   */\n      dup1\n        /* \"--CODEGEN--\":52:55   */\n      dup3\n        /* \"--CODEGEN--\":45:68   */\n      sstore\n        /* \"--CODEGEN--\":79:89   */\n      dup1\n        /* \"--CODEGEN--\":72:89   */\n      swap2\n      pop\n        /* \"--CODEGEN--\":0:93   */\n      pop\n        /* \"TimeAllySIP.sol\":4962:5391  sipPlans.push(SIPPlan({... */\n      swap1\n      0x01\n      dup3\n      sub\n      swap1\n      0x00\n      mstore\n      keccak256(0x00, 0x20)\n      swap1\n      0x08\n      mul\n      add\n      0x00\n      swap1\n      swap2\n      swap3\n      swap1\n      swap2\n      swap1\n      swap2\n      pop\n      0x00\n      dup3\n      add\n      mload\n      dup2\n      0x00\n      add\n      exp(0x0100, 0x00)\n      dup2\n      sload\n      dup2\n      0xff\n      mul\n      not\n      and\n      swap1\n      dup4\n      iszero\n      iszero\n      mul\n      or\n      swap1\n      sstore\n      pop\n      0x20\n      dup3\n      add\n      mload\n      dup2\n      0x01\n      add\n      sstore\n      0x40\n      dup3\n      add\n      mload\n      dup2\n      0x02\n      add\n      sstore\n      0x60\n      dup3\n      add\n      mload\n      dup2\n      0x03\n      add\n      sstore\n      0x80\n      dup3\n      add\n      mload\n      dup2\n      0x04\n      add\n      sstore\n      0xa0\n      dup3\n      add\n      mload\n      dup2\n      0x05\n      add\n      sstore\n      0xc0\n      dup3\n      add\n      mload\n      dup2\n      0x06\n      add\n      sstore\n      0xe0\n      dup3\n      add\n      mload\n      dup2\n      0x07\n      add\n      sstore\n      pop\n      pop\n      pop\n        /* \"TimeAllySIP.sol\":4659:5396  function createSIPPlan(... */\n      pop\n      pop\n      pop\n      pop\n      pop\n      pop\n      pop\n      jump\t// out\n        /* \"TimeAllySIP.sol\":14670:14858  function viewNomination(address _stakerAddress, uint256 _sipId, address _nomineeAddress) public view returns (bool) {... */\n    tag_52:\n        /* \"TimeAllySIP.sol\":14780:14784  bool */\n      0x00\n        /* \"TimeAllySIP.sol\":14799:14803  sips */\n      0x06\n        /* \"TimeAllySIP.sol\":14799:14819  sips[_stakerAddress] */\n      0x00\n        /* \"TimeAllySIP.sol\":14804:14818  _stakerAddress */\n      dup6\n        /* \"TimeAllySIP.sol\":14799:14819  sips[_stakerAddress] */\n      0xffffffffffffffffffffffffffffffffffffffff\n      and\n      0xffffffffffffffffffffffffffffffffffffffff\n      and\n      dup2\n      mstore\n      0x20\n      add\n      swap1\n      dup2\n      mstore\n      0x20\n      add\n      0x00\n      keccak256\n        /* \"TimeAllySIP.sol\":14820:14826  _sipId */\n      dup4\n        /* \"TimeAllySIP.sol\":14799:14827  sips[_stakerAddress][_sipId] */\n      dup2\n      sload\n      dup2\n      lt\n      tag_167\n      jumpi\n      invalid\n    tag_167:\n      swap1\n      0x00\n      mstore\n      keccak256(0x00, 0x20)\n      swap1\n      0x0b\n      mul\n      add\n        /* \"TimeAllySIP.sol\":14799:14836  sips[_stakerAddress][_sipId].nominees */\n      0x09\n      add\n        /* \"TimeAllySIP.sol\":14799:14853  sips[_stakerAddress][_sipId].nominees[_nomineeAddress] */\n      0x00\n        /* \"TimeAllySIP.sol\":14837:14852  _nomineeAddress */\n      dup4\n        /* \"TimeAllySIP.sol\":14799:14853  sips[_stakerAddress][_sipId].nominees[_nomineeAddress] */\n      0xffffffffffffffffffffffffffffffffffffffff\n      and\n      0xffffffffffffffffffffffffffffffffffffffff\n      and\n      dup2\n      mstore\n      0x20\n      add\n      swap1\n      dup2\n      mstore\n      0x20\n      add\n      0x00\n      keccak256\n      0x00\n      swap1\n      sload\n      swap1\n      0x0100\n      exp\n      swap1\n      div\n      0xff\n      and\n        /* \"TimeAllySIP.sol\":14792:14853  return sips[_stakerAddress][_sipId].nominees[_nomineeAddress] */\n      swap1\n      pop\n        /* \"TimeAllySIP.sol\":14670:14858  function viewNomination(address _stakerAddress, uint256 _sipId, address _nomineeAddress) public view returns (bool) {... */\n      swap4\n      swap3\n      pop\n      pop\n      pop\n      jump\t// out\n        /* \"TimeAllySIP.sol\":5990:7424  function newSIP(... */\n    tag_55:\n        /* \"TimeAllySIP.sol\":6125:6133  sipPlans */\n      0x05\n        /* \"TimeAllySIP.sol\":6134:6141  _planId */\n      dup3\n        /* \"TimeAllySIP.sol\":6125:6142  sipPlans[_planId] */\n      dup2\n      sload\n      dup2\n      lt\n      tag_170\n      jumpi\n      invalid\n    tag_170:\n      swap1\n      0x00\n      mstore\n      keccak256(0x00, 0x20)\n      swap1\n      0x08\n      mul\n      add\n        /* \"TimeAllySIP.sol\":6125:6173  sipPlans[_planId].minimumMonthlyCommitmentAmount */\n      0x01\n      add\n      sload\n        /* \"TimeAllySIP.sol\":6097:6121  _monthlyCommitmentAmount */\n      dup2\n        /* \"TimeAllySIP.sol\":6097:6173  _monthlyCommitmentAmount >= sipPlans[_planId].minimumMonthlyCommitmentAmount */\n      lt\n      iszero\n        /* \"TimeAllySIP.sol\":6082:6222  require(... */\n      tag_172\n      jumpi\n      mload(0x40)\n      0x08c379a000000000000000000000000000000000000000000000000000000000\n      dup2\n      mstore\n      0x04\n      add\n      dup1\n      dup1\n      0x20\n      add\n      dup3\n      dup2\n      sub\n      dup3\n      mstore\n      0x20\n      dup2\n      mstore\n      0x20\n      add\n      dup1\n      0x616d6f756e742073686f756c642062652061746c65617374206d696e696d756d\n      dup2\n      mstore\n      pop\n      0x20\n      add\n      swap2\n      pop\n      pop\n      mload(0x40)\n      dup1\n      swap2\n      sub\n      swap1\n      revert\n    tag_172:\n        /* \"TimeAllySIP.sol\":6229:6255  uint256 _benefitsToBeGiven */\n      0x00\n        /* \"TimeAllySIP.sol\":6258:6403  _monthlyCommitmentAmount... */\n      tag_173\n        /* \"TimeAllySIP.sol\":6364:6372  sipPlans */\n      0x05\n        /* \"TimeAllySIP.sol\":6374:6381  _planId */\n      dup5\n        /* \"TimeAllySIP.sol\":6364:6383  sipPlans[ _planId ] */\n      dup2\n      sload\n      dup2\n      lt\n      tag_174\n      jumpi\n      invalid\n    tag_174:\n      swap1\n      0x00\n      mstore\n      keccak256(0x00, 0x20)\n      swap1\n      0x08\n      mul\n      add\n        /* \"TimeAllySIP.sol\":6364:6402  sipPlans[ _planId ].benefitPeriodYears */\n      0x03\n      add\n      sload\n        /* \"TimeAllySIP.sol\":6258:6352  _monthlyCommitmentAmount... */\n      tag_176\n        /* \"TimeAllySIP.sol\":6347:6351  1000 */\n      0x03e8\n        /* \"TimeAllySIP.sol\":6258:6335  _monthlyCommitmentAmount... */\n      tag_177\n        /* \"TimeAllySIP.sol\":6294:6302  sipPlans */\n      0x05\n        /* \"TimeAllySIP.sol\":6304:6311  _planId */\n      dup9\n        /* \"TimeAllySIP.sol\":6294:6313  sipPlans[ _planId ] */\n      dup2\n      sload\n      dup2\n      lt\n      tag_178\n      jumpi\n      invalid\n    tag_178:\n      swap1\n      0x00\n      mstore\n      keccak256(0x00, 0x20)\n      swap1\n      0x08\n      mul\n      add\n        /* \"TimeAllySIP.sol\":6294:6334  sipPlans[ _planId ].monthlyBenefitFactor */\n      0x05\n      add\n      sload\n        /* \"TimeAllySIP.sol\":6258:6282  _monthlyCommitmentAmount */\n      dup8\n        /* \"TimeAllySIP.sol\":6258:6293  _monthlyCommitmentAmount... */\n      tag_155\n      swap1\n        /* \"TimeAllySIP.sol\":6258:6335  _monthlyCommitmentAmount... */\n      swap2\n      swap1\n      0xffffffff\n      and\n      jump\t// in\n    tag_177:\n        /* \"TimeAllySIP.sol\":6258:6346  _monthlyCommitmentAmount... */\n      tag_135\n      swap1\n        /* \"TimeAllySIP.sol\":6258:6352  _monthlyCommitmentAmount... */\n      swap2\n      swap1\n      0xffffffff\n      and\n      jump\t// in\n    tag_176:\n        /* \"TimeAllySIP.sol\":6258:6363  _monthlyCommitmentAmount... */\n      tag_155\n      swap1\n        /* \"TimeAllySIP.sol\":6258:6403  _monthlyCommitmentAmount... */\n      swap2\n      swap1\n      0xffffffff\n      and\n      jump\t// in\n    tag_173:\n        /* \"TimeAllySIP.sol\":6229:6403  uint256 _benefitsToBeGiven = _monthlyCommitmentAmount... */\n      swap1\n      pop\n        /* \"TimeAllySIP.sol\":6441:6459  _benefitsToBeGiven */\n      dup1\n        /* \"TimeAllySIP.sol\":6425:6437  fundsDeposit */\n      sload(0x04)\n        /* \"TimeAllySIP.sol\":6425:6459  fundsDeposit >= _benefitsToBeGiven */\n      lt\n      iszero\n        /* \"TimeAllySIP.sol\":6410:6511  require(... */\n      tag_180\n      jumpi\n      mload(0x40)\n      0x08c379a000000000000000000000000000000000000000000000000000000000\n      dup2\n      mstore\n      0x04\n      add\n      dup1\n      dup1\n      0x20\n      add\n      dup3\n      dup2\n      sub\n      dup3\n      mstore\n      0x23\n      dup2\n      mstore\n      0x20\n      add\n      dup1\n      data_1ed4c5a626955f79ae434eb1205332592ca7c398b87a33918d99477c1feef678\n      0x23\n      swap2\n      codecopy\n      0x40\n      add\n      swap2\n      pop\n      pop\n      mload(0x40)\n      dup1\n      swap2\n      sub\n      swap1\n      revert\n    tag_180:\n        /* \"TimeAllySIP.sol\":6525:6530  token */\n      0x01\n      0x00\n      swap1\n      sload\n      swap1\n      0x0100\n      exp\n      swap1\n      div\n      0xffffffffffffffffffffffffffffffffffffffff\n      and\n        /* \"TimeAllySIP.sol\":6525:6543  token.transferFrom */\n      0xffffffffffffffffffffffffffffffffffffffff\n      and\n      0x23b872dd\n        /* \"TimeAllySIP.sol\":6544:6554  msg.sender */\n      caller\n        /* \"TimeAllySIP.sol\":6564:6568  this */\n      address\n        /* \"TimeAllySIP.sol\":6571:6595  _monthlyCommitmentAmount */\n      dup6\n        /* \"TimeAllySIP.sol\":6525:6596  token.transferFrom(msg.sender, address(this), _monthlyCommitmentAmount) */\n      mload(0x40)\n      dup5\n      0xffffffff\n      and\n      0xe0\n      shl\n      dup2\n      mstore\n      0x04\n      add\n      dup1\n      dup5\n      0xffffffffffffffffffffffffffffffffffffffff\n      and\n      0xffffffffffffffffffffffffffffffffffffffff\n      and\n      dup2\n      mstore\n      0x20\n      add\n      dup4\n      0xffffffffffffffffffffffffffffffffffffffff\n      and\n      0xffffffffffffffffffffffffffffffffffffffff\n      and\n      dup2\n      mstore\n      0x20\n      add\n      dup3\n      dup2\n      mstore\n      0x20\n      add\n      swap4\n      pop\n      pop\n      pop\n      pop\n      0x20\n      mload(0x40)\n      dup1\n      dup4\n      sub\n      dup2\n      0x00\n      dup8\n      dup1\n      extcodesize\n      iszero\n        /* \"--CODEGEN--\":8:17   */\n      dup1\n        /* \"--CODEGEN--\":5:7   */\n      iszero\n      tag_181\n      jumpi\n        /* \"--CODEGEN--\":30:31   */\n      0x00\n        /* \"--CODEGEN--\":27:28   */\n      dup1\n        /* \"--CODEGEN--\":20:32   */\n      revert\n        /* \"--CODEGEN--\":5:7   */\n    tag_181:\n        /* \"TimeAllySIP.sol\":6525:6596  token.transferFrom(msg.sender, address(this), _monthlyCommitmentAmount) */\n      pop\n      gas\n      call\n      iszero\n        /* \"--CODEGEN--\":8:17   */\n      dup1\n        /* \"--CODEGEN--\":5:7   */\n      iszero\n      tag_182\n      jumpi\n        /* \"--CODEGEN--\":45:61   */\n      returndatasize\n        /* \"--CODEGEN--\":42:43   */\n      0x00\n        /* \"--CODEGEN--\":39:40   */\n      dup1\n        /* \"--CODEGEN--\":24:62   */\n      returndatacopy\n        /* \"--CODEGEN--\":77:93   */\n      returndatasize\n        /* \"--CODEGEN--\":74:75   */\n      0x00\n        /* \"--CODEGEN--\":67:94   */\n      revert\n        /* \"--CODEGEN--\":5:7   */\n    tag_182:\n        /* \"TimeAllySIP.sol\":6525:6596  token.transferFrom(msg.sender, address(this), _monthlyCommitmentAmount) */\n      pop\n      pop\n      pop\n      pop\n      mload(0x40)\n      returndatasize\n        /* \"--CODEGEN--\":13:15   */\n      0x20\n        /* \"--CODEGEN--\":8:11   */\n      dup2\n        /* \"--CODEGEN--\":5:16   */\n      lt\n        /* \"--CODEGEN--\":2:4   */\n      iszero\n      tag_183\n      jumpi\n        /* \"--CODEGEN--\":29:30   */\n      0x00\n        /* \"--CODEGEN--\":26:27   */\n      dup1\n        /* \"--CODEGEN--\":19:31   */\n      revert\n        /* \"--CODEGEN--\":2:4   */\n    tag_183:\n        /* \"TimeAllySIP.sol\":6525:6596  token.transferFrom(msg.sender, address(this), _monthlyCommitmentAmount) */\n      dup2\n      add\n      swap1\n      dup1\n      dup1\n      mload\n      swap1\n      0x20\n      add\n      swap1\n      swap3\n      swap2\n      swap1\n      pop\n      pop\n      pop\n        /* \"TimeAllySIP.sol\":6517:6597  require(token.transferFrom(msg.sender, address(this), _monthlyCommitmentAmount)) */\n      tag_184\n      jumpi\n      0x00\n      dup1\n      revert\n    tag_184:\n        /* \"TimeAllySIP.sol\":6604:6608  sips */\n      0x06\n        /* \"TimeAllySIP.sol\":6604:6620  sips[msg.sender] */\n      0x00\n        /* \"TimeAllySIP.sol\":6609:6619  msg.sender */\n      caller\n        /* \"TimeAllySIP.sol\":6604:6620  sips[msg.sender] */\n      0xffffffffffffffffffffffffffffffffffffffff\n      and\n      0xffffffffffffffffffffffffffffffffffffffff\n      and\n      dup2\n      mstore\n      0x20\n      add\n      swap1\n      dup2\n      mstore\n      0x20\n      add\n      0x00\n      keccak256\n        /* \"TimeAllySIP.sol\":6626:6973  SIP({... */\n      mload(0x40)\n      dup1\n      0x0100\n      add\n      0x40\n      mstore\n      dup1\n        /* \"TimeAllySIP.sol\":6646:6653  _planId */\n      dup6\n        /* \"TimeAllySIP.sol\":6626:6973  SIP({... */\n      dup2\n      mstore\n      0x20\n      add\n        /* \"TimeAllySIP.sol\":6699:6702  now */\n      timestamp\n        /* \"TimeAllySIP.sol\":6626:6973  SIP({... */\n      dup2\n      mstore\n      0x20\n      add\n        /* \"TimeAllySIP.sol\":6735:6759  _monthlyCommitmentAmount */\n      dup5\n        /* \"TimeAllySIP.sol\":6626:6973  SIP({... */\n      dup2\n      mstore\n      0x20\n      add\n        /* \"TimeAllySIP.sol\":6783:6807  _monthlyCommitmentAmount */\n      dup5\n        /* \"TimeAllySIP.sol\":6626:6973  SIP({... */\n      dup2\n      mstore\n      0x20\n      add\n        /* \"TimeAllySIP.sol\":6837:6838  0 */\n      0x00\n        /* \"TimeAllySIP.sol\":6626:6973  SIP({... */\n      dup2\n      mstore\n      0x20\n      add\n        /* \"TimeAllySIP.sol\":6911:6912  0 */\n      0x00\n        /* \"TimeAllySIP.sol\":6626:6973  SIP({... */\n      dup2\n      mstore\n      0x20\n      add\n        /* \"TimeAllySIP.sol\":6940:6941  0 */\n      0x00\n        /* \"TimeAllySIP.sol\":6626:6973  SIP({... */\n      dup2\n      mstore\n      0x20\n      add\n        /* \"TimeAllySIP.sol\":6965:6966  0 */\n      0x00\n        /* \"TimeAllySIP.sol\":6626:6973  SIP({... */\n      dup2\n      mstore\n      pop\n        /* \"TimeAllySIP.sol\":6604:6974  sips[msg.sender].push(SIP({... */\n      swap1\n      dup1\n        /* \"--CODEGEN--\":39:40   */\n      0x01\n        /* \"--CODEGEN--\":33:36   */\n      dup2\n        /* \"--CODEGEN--\":27:37   */\n      sload\n        /* \"--CODEGEN--\":23:41   */\n      add\n        /* \"--CODEGEN--\":57:67   */\n      dup1\n        /* \"--CODEGEN--\":52:55   */\n      dup3\n        /* \"--CODEGEN--\":45:68   */\n      sstore\n        /* \"--CODEGEN--\":79:89   */\n      dup1\n        /* \"--CODEGEN--\":72:89   */\n      swap2\n      pop\n        /* \"--CODEGEN--\":0:93   */\n      pop\n        /* \"TimeAllySIP.sol\":6604:6974  sips[msg.sender].push(SIP({... */\n      swap1\n      0x01\n      dup3\n      sub\n      swap1\n      0x00\n      mstore\n      keccak256(0x00, 0x20)\n      swap1\n      0x0b\n      mul\n      add\n      0x00\n      swap1\n      swap2\n      swap3\n      swap1\n      swap2\n      swap1\n      swap2\n      pop\n      0x00\n      dup3\n      add\n      mload\n      dup2\n      0x00\n      add\n      sstore\n      0x20\n      dup3\n      add\n      mload\n      dup2\n      0x01\n      add\n      sstore\n      0x40\n      dup3\n      add\n      mload\n      dup2\n      0x02\n      add\n      sstore\n      0x60\n      dup3\n      add\n      mload\n      dup2\n      0x03\n      add\n      sstore\n      0x80\n      dup3\n      add\n      mload\n      dup2\n      0x04\n      add\n      sstore\n      0xa0\n      dup3\n      add\n      mload\n      dup2\n      0x05\n      add\n      sstore\n      0xc0\n      dup3\n      add\n      mload\n      dup2\n      0x06\n      add\n      sstore\n      0xe0\n      dup3\n      add\n      mload\n      dup2\n      0x07\n      add\n      sstore\n      pop\n      pop\n      pop\n        /* \"TimeAllySIP.sol\":6981:6995  uint256 _sipId */\n      0x00\n        /* \"TimeAllySIP.sol\":7024:7025  1 */\n      0x01\n        /* \"TimeAllySIP.sol\":6998:7002  sips */\n      0x06\n        /* \"TimeAllySIP.sol\":6998:7014  sips[msg.sender] */\n      0x00\n        /* \"TimeAllySIP.sol\":7003:7013  msg.sender */\n      caller\n        /* \"TimeAllySIP.sol\":6998:7014  sips[msg.sender] */\n      0xffffffffffffffffffffffffffffffffffffffff\n      and\n      0xffffffffffffffffffffffffffffffffffffffff\n      and\n      dup2\n      mstore\n      0x20\n      add\n      swap1\n      dup2\n      mstore\n      0x20\n      add\n      0x00\n      keccak256\n        /* \"TimeAllySIP.sol\":6998:7021  sips[msg.sender].length */\n      dup1\n      sload\n      swap1\n      pop\n        /* \"TimeAllySIP.sol\":6998:7025  sips[msg.sender].length - 1 */\n      sub\n        /* \"TimeAllySIP.sol\":6981:7025  uint256 _sipId = sips[msg.sender].length - 1 */\n      swap1\n      pop\n        /* \"TimeAllySIP.sol\":7121:7122  2 */\n      0x02\n        /* \"TimeAllySIP.sol\":7077:7081  sips */\n      0x06\n        /* \"TimeAllySIP.sol\":7077:7093  sips[msg.sender] */\n      0x00\n        /* \"TimeAllySIP.sol\":7082:7092  msg.sender */\n      caller\n        /* \"TimeAllySIP.sol\":7077:7093  sips[msg.sender] */\n      0xffffffffffffffffffffffffffffffffffffffff\n      and\n      0xffffffffffffffffffffffffffffffffffffffff\n      and\n      dup2\n      mstore\n      0x20\n      add\n      swap1\n      dup2\n      mstore\n      0x20\n      add\n      0x00\n      keccak256\n        /* \"TimeAllySIP.sol\":7094:7100  _sipId */\n      dup3\n        /* \"TimeAllySIP.sol\":7077:7101  sips[msg.sender][_sipId] */\n      dup2\n      sload\n      dup2\n      lt\n      tag_186\n      jumpi\n      invalid\n    tag_186:\n      swap1\n      0x00\n      mstore\n      keccak256(0x00, 0x20)\n      swap1\n      0x0b\n      mul\n      add\n        /* \"TimeAllySIP.sol\":7077:7115  sips[msg.sender][_sipId].depositStatus */\n      0x08\n      add\n        /* \"TimeAllySIP.sol\":7077:7118  sips[msg.sender][_sipId].depositStatus[1] */\n      0x00\n        /* \"TimeAllySIP.sol\":7116:7117  1 */\n      0x01\n        /* \"TimeAllySIP.sol\":7077:7118  sips[msg.sender][_sipId].depositStatus[1] */\n      dup2\n      mstore\n      0x20\n      add\n      swap1\n      dup2\n      mstore\n      0x20\n      add\n      0x00\n      keccak256\n        /* \"TimeAllySIP.sol\":7077:7122  sips[msg.sender][_sipId].depositStatus[1] = 2 */\n      dup2\n      swap1\n      sstore\n      pop\n        /* \"TimeAllySIP.sol\":7164:7232  pendingBenefitAmountOfAllStakers.add(... */\n      tag_188\n        /* \"TimeAllySIP.sol\":7208:7226  _benefitsToBeGiven */\n      dup3\n        /* \"TimeAllySIP.sol\":7164:7196  pendingBenefitAmountOfAllStakers */\n      sload(0x03)\n        /* \"TimeAllySIP.sol\":7164:7200  pendingBenefitAmountOfAllStakers.add */\n      tag_157\n      swap1\n        /* \"TimeAllySIP.sol\":7164:7232  pendingBenefitAmountOfAllStakers.add(... */\n      swap2\n      swap1\n      0xffffffff\n      and\n      jump\t// in\n    tag_188:\n        /* \"TimeAllySIP.sol\":7129:7161  pendingBenefitAmountOfAllStakers */\n      0x03\n        /* \"TimeAllySIP.sol\":7129:7232  pendingBenefitAmountOfAllStakers = pendingBenefitAmountOfAllStakers.add(... */\n      dup2\n      swap1\n      sstore\n      pop\n        /* \"TimeAllySIP.sol\":7251:7261  msg.sender */\n      caller\n        /* \"TimeAllySIP.sol\":7244:7317  NewSIP(msg.sender, sips[msg.sender].length - 1, _monthlyCommitmentAmount) */\n      0xffffffffffffffffffffffffffffffffffffffff\n      and\n      0x1dec97fc36aa6dfa81b208ec37b3ac8dae30717f0622f9cfb2e7223dc95326ec\n        /* \"TimeAllySIP.sol\":7289:7290  1 */\n      0x01\n        /* \"TimeAllySIP.sol\":7263:7267  sips */\n      0x06\n        /* \"TimeAllySIP.sol\":7263:7279  sips[msg.sender] */\n      0x00\n        /* \"TimeAllySIP.sol\":7268:7278  msg.sender */\n      caller\n        /* \"TimeAllySIP.sol\":7263:7279  sips[msg.sender] */\n      0xffffffffffffffffffffffffffffffffffffffff\n      and\n      0xffffffffffffffffffffffffffffffffffffffff\n      and\n      dup2\n      mstore\n      0x20\n      add\n      swap1\n      dup2\n      mstore\n      0x20\n      add\n      0x00\n      keccak256\n        /* \"TimeAllySIP.sol\":7263:7286  sips[msg.sender].length */\n      dup1\n      sload\n      swap1\n      pop\n        /* \"TimeAllySIP.sol\":7263:7290  sips[msg.sender].length - 1 */\n      sub\n        /* \"TimeAllySIP.sol\":7292:7316  _monthlyCommitmentAmount */\n      dup6\n        /* \"TimeAllySIP.sol\":7244:7317  NewSIP(msg.sender, sips[msg.sender].length - 1, _monthlyCommitmentAmount) */\n      mload(0x40)\n      dup1\n      dup4\n      dup2\n      mstore\n      0x20\n      add\n      dup3\n      dup2\n      mstore\n      0x20\n      add\n      swap3\n      pop\n      pop\n      pop\n      mload(0x40)\n      dup1\n      swap2\n      sub\n      swap1\n      log2\n        /* \"TimeAllySIP.sol\":7351:7357  _sipId */\n      dup1\n        /* \"TimeAllySIP.sol\":7339:7349  msg.sender */\n      caller\n        /* \"TimeAllySIP.sol\":7328:7419  NewDeposit(msg.sender, _sipId, 1, _monthlyCommitmentAmount, _benefitsToBeGiven, msg.sender) */\n      0xffffffffffffffffffffffffffffffffffffffff\n      and\n      0xbaf4c88598102708c4215d5d3767268130627355850b7ece9bdfdc32fd2941f0\n        /* \"TimeAllySIP.sol\":7359:7360  1 */\n      0x01\n        /* \"TimeAllySIP.sol\":7362:7386  _monthlyCommitmentAmount */\n      dup7\n        /* \"TimeAllySIP.sol\":7388:7406  _benefitsToBeGiven */\n      dup7\n        /* \"TimeAllySIP.sol\":7408:7418  msg.sender */\n      caller\n        /* \"TimeAllySIP.sol\":7328:7419  NewDeposit(msg.sender, _sipId, 1, _monthlyCommitmentAmount, _benefitsToBeGiven, msg.sender) */\n      mload(0x40)\n      dup1\n      dup6\n      dup2\n      mstore\n      0x20\n      add\n      dup5\n      dup2\n      mstore\n      0x20\n      add\n      dup4\n      dup2\n      mstore\n      0x20\n      add\n      dup3\n      0xffffffffffffffffffffffffffffffffffffffff\n      and\n      0xffffffffffffffffffffffffffffffffffffffff\n      and\n      dup2\n      mstore\n      0x20\n      add\n      swap5\n      pop\n      pop\n      pop\n      pop\n      pop\n      mload(0x40)\n      dup1\n      swap2\n      sub\n      swap1\n      log3\n        /* \"TimeAllySIP.sol\":5990:7424  function newSIP(... */\n      pop\n      pop\n      pop\n      pop\n      jump\t// out\n        /* \"TimeAllySIP.sol\":16249:16319  function getTime() public view returns (uint256) {... */\n    tag_57:\n        /* \"TimeAllySIP.sol\":16289:16296  uint256 */\n      0x00\n        /* \"TimeAllySIP.sol\":16311:16314  now */\n      timestamp\n        /* \"TimeAllySIP.sol\":16304:16314  return now */\n      swap1\n      pop\n        /* \"TimeAllySIP.sol\":16249:16319  function getTime() public view returns (uint256) {... */\n      swap1\n      jump\t// out\n        /* \"TimeAllySIP.sol\":8344:9773  function monthlyDeposit(... */\n    tag_60:\n        /* \"TimeAllySIP.sol\":8489:8503  _stakerAddress */\n      dup4\n        /* \"TimeAllySIP.sol\":8505:8511  _sipId */\n      dup4\n        /* \"TimeAllySIP.sol\":4185:4201  SIP storage _sip */\n      0x00\n        /* \"TimeAllySIP.sol\":4204:4208  sips */\n      0x06\n        /* \"TimeAllySIP.sol\":4204:4224  sips[_stakerAddress] */\n      0x00\n        /* \"TimeAllySIP.sol\":4209:4223  _stakerAddress */\n      dup5\n        /* \"TimeAllySIP.sol\":4204:4224  sips[_stakerAddress] */\n      0xffffffffffffffffffffffffffffffffffffffff\n      and\n      0xffffffffffffffffffffffffffffffffffffffff\n      and\n      dup2\n      mstore\n      0x20\n      add\n      swap1\n      dup2\n      mstore\n      0x20\n      add\n      0x00\n      keccak256\n        /* \"TimeAllySIP.sol\":4225:4231  _sipId */\n      dup3\n        /* \"TimeAllySIP.sol\":4204:4232  sips[_stakerAddress][_sipId] */\n      dup2\n      sload\n      dup2\n      lt\n      tag_191\n      jumpi\n      invalid\n    tag_191:\n      swap1\n      0x00\n      mstore\n      keccak256(0x00, 0x20)\n      swap1\n      0x0b\n      mul\n      add\n        /* \"TimeAllySIP.sol\":4185:4232  SIP storage _sip = sips[_stakerAddress][_sipId] */\n      swap1\n      pop\n        /* \"TimeAllySIP.sol\":4255:4269  _stakerAddress */\n      dup3\n        /* \"TimeAllySIP.sol\":4241:4269  msg.sender != _stakerAddress */\n      0xffffffffffffffffffffffffffffffffffffffff\n      and\n        /* \"TimeAllySIP.sol\":4241:4251  msg.sender */\n      caller\n        /* \"TimeAllySIP.sol\":4241:4269  msg.sender != _stakerAddress */\n      0xffffffffffffffffffffffffffffffffffffffff\n      and\n      eq\n        /* \"TimeAllySIP.sol\":4238:4350  if(msg.sender != _stakerAddress) {... */\n      tag_193\n      jumpi\n        /* \"TimeAllySIP.sol\":4287:4291  _sip */\n      dup1\n        /* \"TimeAllySIP.sol\":4287:4300  _sip.nominees */\n      0x09\n      add\n        /* \"TimeAllySIP.sol\":4287:4312  _sip.nominees[msg.sender] */\n      0x00\n        /* \"TimeAllySIP.sol\":4301:4311  msg.sender */\n      caller\n        /* \"TimeAllySIP.sol\":4287:4312  _sip.nominees[msg.sender] */\n      0xffffffffffffffffffffffffffffffffffffffff\n      and\n      0xffffffffffffffffffffffffffffffffffffffff\n      and\n      dup2\n      mstore\n      0x20\n      add\n      swap1\n      dup2\n      mstore\n      0x20\n      add\n      0x00\n      keccak256\n      0x00\n      swap1\n      sload\n      swap1\n      0x0100\n      exp\n      swap1\n      div\n      0xff\n      and\n        /* \"TimeAllySIP.sol\":4279:4343  require(_sip.nominees[msg.sender], 'nomination should be there') */\n      tag_194\n      jumpi\n      mload(0x40)\n      0x08c379a000000000000000000000000000000000000000000000000000000000\n      dup2\n      mstore\n      0x04\n      add\n      dup1\n      dup1\n      0x20\n      add\n      dup3\n      dup2\n      sub\n      dup3\n      mstore\n      0x1a\n      dup2\n      mstore\n      0x20\n      add\n      dup1\n      0x6e6f6d696e6174696f6e2073686f756c64206265207468657265000000000000\n      dup2\n      mstore\n      pop\n      0x20\n      add\n      swap2\n      pop\n      pop\n      mload(0x40)\n      dup1\n      swap2\n      sub\n      swap1\n      revert\n    tag_194:\n        /* \"TimeAllySIP.sol\":4238:4350  if(msg.sender != _stakerAddress) {... */\n    tag_193:\n        /* \"TimeAllySIP.sol\":8519:8535  SIP storage _sip */\n      0x00\n        /* \"TimeAllySIP.sol\":8538:8542  sips */\n      0x06\n        /* \"TimeAllySIP.sol\":8538:8558  sips[_stakerAddress] */\n      0x00\n        /* \"TimeAllySIP.sol\":8543:8557  _stakerAddress */\n      dup10\n        /* \"TimeAllySIP.sol\":8538:8558  sips[_stakerAddress] */\n      0xffffffffffffffffffffffffffffffffffffffff\n      and\n      0xffffffffffffffffffffffffffffffffffffffff\n      and\n      dup2\n      mstore\n      0x20\n      add\n      swap1\n      dup2\n      mstore\n      0x20\n      add\n      0x00\n      keccak256\n        /* \"TimeAllySIP.sol\":8559:8565  _sipId */\n      dup8\n        /* \"TimeAllySIP.sol\":8538:8566  sips[_stakerAddress][_sipId] */\n      dup2\n      sload\n      dup2\n      lt\n      tag_196\n      jumpi\n      invalid\n    tag_196:\n      swap1\n      0x00\n      mstore\n      keccak256(0x00, 0x20)\n      swap1\n      0x0b\n      mul\n      add\n        /* \"TimeAllySIP.sol\":8519:8566  SIP storage _sip = sips[_stakerAddress][_sipId] */\n      swap1\n      pop\n        /* \"TimeAllySIP.sol\":8605:8609  _sip */\n      dup1\n        /* \"TimeAllySIP.sol\":8605:8633  _sip.monthlyCommitmentAmount */\n      0x02\n      add\n      sload\n        /* \"TimeAllySIP.sol\":8587:8601  _depositAmount */\n      dup7\n        /* \"TimeAllySIP.sol\":8587:8633  _depositAmount >= _sip.monthlyCommitmentAmount */\n      lt\n      iszero\n        /* \"TimeAllySIP.sol\":8572:8688  require(... */\n      tag_198\n      jumpi\n      mload(0x40)\n      0x08c379a000000000000000000000000000000000000000000000000000000000\n      dup2\n      mstore\n      0x04\n      add\n      dup1\n      dup1\n      0x20\n      add\n      dup3\n      dup2\n      sub\n      dup3\n      mstore\n      0x26\n      dup2\n      mstore\n      0x20\n      add\n      dup1\n      data_9c5671fbe7325ac18b46fc94e6063ecafd5a4a15681b363f5d37ce08ea0b8f61\n      0x26\n      swap2\n      codecopy\n      0x40\n      add\n      swap2\n      pop\n      pop\n      mload(0x40)\n      dup1\n      swap2\n      sub\n      swap1\n      revert\n    tag_198:\n        /* \"TimeAllySIP.sol\":8776:8777  0 */\n      0x00\n        /* \"TimeAllySIP.sol\":8744:8748  _sip */\n      dup2\n        /* \"TimeAllySIP.sol\":8744:8762  _sip.depositStatus */\n      0x08\n      add\n        /* \"TimeAllySIP.sol\":8744:8772  _sip.depositStatus[_monthId] */\n      0x00\n        /* \"TimeAllySIP.sol\":8763:8771  _monthId */\n      dup8\n        /* \"TimeAllySIP.sol\":8744:8772  _sip.depositStatus[_monthId] */\n      dup2\n      mstore\n      0x20\n      add\n      swap1\n      dup2\n      mstore\n      0x20\n      add\n      0x00\n      keccak256\n      sload\n        /* \"TimeAllySIP.sol\":8744:8777  _sip.depositStatus[_monthId] == 0 */\n      eq\n        /* \"TimeAllySIP.sol\":8729:8814  require(... */\n      tag_199\n      jumpi\n      mload(0x40)\n      0x08c379a000000000000000000000000000000000000000000000000000000000\n      dup2\n      mstore\n      0x04\n      add\n      dup1\n      dup1\n      0x20\n      add\n      dup3\n      dup2\n      sub\n      dup3\n      mstore\n      0x14\n      dup2\n      mstore\n      0x20\n      add\n      dup1\n      0x63616e6e6f74206465706f73697420616761696e000000000000000000000000\n      dup2\n      mstore\n      pop\n      0x20\n      add\n      swap2\n      pop\n      pop\n      mload(0x40)\n      dup1\n      swap2\n      sub\n      swap1\n      revert\n    tag_199:\n        /* \"TimeAllySIP.sol\":8821:8847  uint256 _benefitsToBeGiven */\n      0x00\n        /* \"TimeAllySIP.sol\":8850:8993  _depositAmount... */\n      tag_200\n        /* \"TimeAllySIP.sol\":8950:8958  sipPlans */\n      0x05\n        /* \"TimeAllySIP.sol\":8960:8964  _sip */\n      dup4\n        /* \"TimeAllySIP.sol\":8960:8971  _sip.planId */\n      0x00\n      add\n      sload\n        /* \"TimeAllySIP.sol\":8950:8973  sipPlans[ _sip.planId ] */\n      dup2\n      sload\n      dup2\n      lt\n      tag_201\n      jumpi\n      invalid\n    tag_201:\n      swap1\n      0x00\n      mstore\n      keccak256(0x00, 0x20)\n      swap1\n      0x08\n      mul\n      add\n        /* \"TimeAllySIP.sol\":8950:8992  sipPlans[ _sip.planId ].benefitPeriodYears */\n      0x03\n      add\n      sload\n        /* \"TimeAllySIP.sol\":8850:8938  _depositAmount... */\n      tag_203\n        /* \"TimeAllySIP.sol\":8933:8937  1000 */\n      0x03e8\n        /* \"TimeAllySIP.sol\":8850:8921  _depositAmount... */\n      tag_204\n        /* \"TimeAllySIP.sol\":8876:8884  sipPlans */\n      0x05\n        /* \"TimeAllySIP.sol\":8886:8890  _sip */\n      dup8\n        /* \"TimeAllySIP.sol\":8886:8897  _sip.planId */\n      0x00\n      add\n      sload\n        /* \"TimeAllySIP.sol\":8876:8899  sipPlans[ _sip.planId ] */\n      dup2\n      sload\n      dup2\n      lt\n      tag_205\n      jumpi\n      invalid\n    tag_205:\n      swap1\n      0x00\n      mstore\n      keccak256(0x00, 0x20)\n      swap1\n      0x08\n      mul\n      add\n        /* \"TimeAllySIP.sol\":8876:8920  sipPlans[ _sip.planId ].monthlyBenefitFactor */\n      0x05\n      add\n      sload\n        /* \"TimeAllySIP.sol\":8850:8864  _depositAmount */\n      dup13\n        /* \"TimeAllySIP.sol\":8850:8875  _depositAmount... */\n      tag_155\n      swap1\n        /* \"TimeAllySIP.sol\":8850:8921  _depositAmount... */\n      swap2\n      swap1\n      0xffffffff\n      and\n      jump\t// in\n    tag_204:\n        /* \"TimeAllySIP.sol\":8850:8932  _depositAmount... */\n      tag_135\n      swap1\n        /* \"TimeAllySIP.sol\":8850:8938  _depositAmount... */\n      swap2\n      swap1\n      0xffffffff\n      and\n      jump\t// in\n    tag_203:\n        /* \"TimeAllySIP.sol\":8850:8949  _depositAmount... */\n      tag_155\n      swap1\n        /* \"TimeAllySIP.sol\":8850:8993  _depositAmount... */\n      swap2\n      swap1\n      0xffffffff\n      and\n      jump\t// in\n    tag_200:\n        /* \"TimeAllySIP.sol\":8821:8993  uint256 _benefitsToBeGiven = _depositAmount... */\n      swap1\n      pop\n        /* \"TimeAllySIP.sol\":9031:9087  _benefitsToBeGiven.add(pendingBenefitAmountOfAllStakers) */\n      tag_207\n        /* \"TimeAllySIP.sol\":9054:9086  pendingBenefitAmountOfAllStakers */\n      sload(0x03)\n        /* \"TimeAllySIP.sol\":9031:9049  _benefitsToBeGiven */\n      dup3\n        /* \"TimeAllySIP.sol\":9031:9053  _benefitsToBeGiven.add */\n      tag_157\n      swap1\n        /* \"TimeAllySIP.sol\":9031:9087  _benefitsToBeGiven.add(pendingBenefitAmountOfAllStakers) */\n      swap2\n      swap1\n      0xffffffff\n      and\n      jump\t// in\n    tag_207:\n        /* \"TimeAllySIP.sol\":9015:9027  fundsDeposit */\n      sload(0x04)\n        /* \"TimeAllySIP.sol\":9015:9087  fundsDeposit >= _benefitsToBeGiven.add(pendingBenefitAmountOfAllStakers) */\n      lt\n      iszero\n        /* \"TimeAllySIP.sol\":9000:9139  require(... */\n      tag_208\n      jumpi\n      mload(0x40)\n      0x08c379a000000000000000000000000000000000000000000000000000000000\n      dup2\n      mstore\n      0x04\n      add\n      dup1\n      dup1\n      0x20\n      add\n      dup3\n      dup2\n      sub\n      dup3\n      mstore\n      0x23\n      dup2\n      mstore\n      0x20\n      add\n      dup1\n      data_1ed4c5a626955f79ae434eb1205332592ca7c398b87a33918d99477c1feef678\n      0x23\n      swap2\n      codecopy\n      0x40\n      add\n      swap2\n      pop\n      pop\n      mload(0x40)\n      dup1\n      swap2\n      sub\n      swap1\n      revert\n    tag_208:\n        /* \"TimeAllySIP.sol\":9154:9159  token */\n      0x01\n      0x00\n      swap1\n      sload\n      swap1\n      0x0100\n      exp\n      swap1\n      div\n      0xffffffffffffffffffffffffffffffffffffffff\n      and\n        /* \"TimeAllySIP.sol\":9154:9172  token.transferFrom */\n      0xffffffffffffffffffffffffffffffffffffffff\n      and\n      0x23b872dd\n        /* \"TimeAllySIP.sol\":9173:9183  msg.sender */\n      caller\n        /* \"TimeAllySIP.sol\":9193:9197  this */\n      address\n        /* \"TimeAllySIP.sol\":9200:9214  _depositAmount */\n      dup11\n        /* \"TimeAllySIP.sol\":9154:9215  token.transferFrom(msg.sender, address(this), _depositAmount) */\n      mload(0x40)\n      dup5\n      0xffffffff\n      and\n      0xe0\n      shl\n      dup2\n      mstore\n      0x04\n      add\n      dup1\n      dup5\n      0xffffffffffffffffffffffffffffffffffffffff\n      and\n      0xffffffffffffffffffffffffffffffffffffffff\n      and\n      dup2\n      mstore\n      0x20\n      add\n      dup4\n      0xffffffffffffffffffffffffffffffffffffffff\n      and\n      0xffffffffffffffffffffffffffffffffffffffff\n      and\n      dup2\n      mstore\n      0x20\n      add\n      dup3\n      dup2\n      mstore\n      0x20\n      add\n      swap4\n      pop\n      pop\n      pop\n      pop\n      0x20\n      mload(0x40)\n      dup1\n      dup4\n      sub\n      dup2\n      0x00\n      dup8\n      dup1\n      extcodesize\n      iszero\n        /* \"--CODEGEN--\":8:17   */\n      dup1\n        /* \"--CODEGEN--\":5:7   */\n      iszero\n      tag_209\n      jumpi\n        /* \"--CODEGEN--\":30:31   */\n      0x00\n        /* \"--CODEGEN--\":27:28   */\n      dup1\n        /* \"--CODEGEN--\":20:32   */\n      revert\n        /* \"--CODEGEN--\":5:7   */\n    tag_209:\n        /* \"TimeAllySIP.sol\":9154:9215  token.transferFrom(msg.sender, address(this), _depositAmount) */\n      pop\n      gas\n      call\n      iszero\n        /* \"--CODEGEN--\":8:17   */\n      dup1\n        /* \"--CODEGEN--\":5:7   */\n      iszero\n      tag_210\n      jumpi\n        /* \"--CODEGEN--\":45:61   */\n      returndatasize\n        /* \"--CODEGEN--\":42:43   */\n      0x00\n        /* \"--CODEGEN--\":39:40   */\n      dup1\n        /* \"--CODEGEN--\":24:62   */\n      returndatacopy\n        /* \"--CODEGEN--\":77:93   */\n      returndatasize\n        /* \"--CODEGEN--\":74:75   */\n      0x00\n        /* \"--CODEGEN--\":67:94   */\n      revert\n        /* \"--CODEGEN--\":5:7   */\n    tag_210:\n        /* \"TimeAllySIP.sol\":9154:9215  token.transferFrom(msg.sender, address(this), _depositAmount) */\n      pop\n      pop\n      pop\n      pop\n      mload(0x40)\n      returndatasize\n        /* \"--CODEGEN--\":13:15   */\n      0x20\n        /* \"--CODEGEN--\":8:11   */\n      dup2\n        /* \"--CODEGEN--\":5:16   */\n      lt\n        /* \"--CODEGEN--\":2:4   */\n      iszero\n      tag_211\n      jumpi\n        /* \"--CODEGEN--\":29:30   */\n      0x00\n        /* \"--CODEGEN--\":26:27   */\n      dup1\n        /* \"--CODEGEN--\":19:31   */\n      revert\n        /* \"--CODEGEN--\":2:4   */\n    tag_211:\n        /* \"TimeAllySIP.sol\":9154:9215  token.transferFrom(msg.sender, address(this), _depositAmount) */\n      dup2\n      add\n      swap1\n      dup1\n      dup1\n      mload\n      swap1\n      0x20\n      add\n      swap1\n      swap3\n      swap2\n      swap1\n      pop\n      pop\n      pop\n        /* \"TimeAllySIP.sol\":9146:9216  require(token.transferFrom(msg.sender, address(this), _depositAmount)) */\n      tag_212\n      jumpi\n      0x00\n      dup1\n      revert\n    tag_212:\n        /* \"TimeAllySIP.sol\":9290:9312  uint256 _depositStatus */\n      0x00\n        /* \"TimeAllySIP.sol\":9315:9365  getDepositStatus(_stakerAddress, _sipId, _monthId) */\n      tag_213\n        /* \"TimeAllySIP.sol\":9332:9346  _stakerAddress */\n      dup11\n        /* \"TimeAllySIP.sol\":9348:9354  _sipId */\n      dup11\n        /* \"TimeAllySIP.sol\":9356:9364  _monthId */\n      dup10\n        /* \"TimeAllySIP.sol\":9315:9331  getDepositStatus */\n      tag_68\n        /* \"TimeAllySIP.sol\":9315:9365  getDepositStatus(_stakerAddress, _sipId, _monthId) */\n      jump\t// in\n    tag_213:\n        /* \"TimeAllySIP.sol\":9290:9365  uint256 _depositStatus = getDepositStatus(_stakerAddress, _sipId, _monthId) */\n      swap1\n      pop\n        /* \"TimeAllySIP.sol\":9396:9397  0 */\n      0x00\n        /* \"TimeAllySIP.sol\":9379:9393  _depositStatus */\n      dup2\n        /* \"TimeAllySIP.sol\":9379:9397  _depositStatus > 0 */\n      gt\n        /* \"TimeAllySIP.sol\":9371:9435  require(_depositStatus > 0, 'grace period elapsed or too early') */\n      tag_214\n      jumpi\n      mload(0x40)\n      0x08c379a000000000000000000000000000000000000000000000000000000000\n      dup2\n      mstore\n      0x04\n      add\n      dup1\n      dup1\n      0x20\n      add\n      dup3\n      dup2\n      sub\n      dup3\n      mstore\n      0x21\n      dup2\n      mstore\n      0x20\n      add\n      dup1\n      data_03fd12cc1e83f0add881327c75791a0246e8ebc9eefe5c518ed172fe66fc682c\n      0x21\n      swap2\n      codecopy\n      0x40\n      add\n      swap2\n      pop\n      pop\n      mload(0x40)\n      dup1\n      swap2\n      sub\n      swap1\n      revert\n    tag_214:\n        /* \"TimeAllySIP.sol\":9473:9487  _depositStatus */\n      dup1\n        /* \"TimeAllySIP.sol\":9442:9446  _sip */\n      dup4\n        /* \"TimeAllySIP.sol\":9442:9460  _sip.depositStatus */\n      0x08\n      add\n        /* \"TimeAllySIP.sol\":9442:9470  _sip.depositStatus[_monthId] */\n      0x00\n        /* \"TimeAllySIP.sol\":9461:9469  _monthId */\n      dup10\n        /* \"TimeAllySIP.sol\":9442:9470  _sip.depositStatus[_monthId] */\n      dup2\n      mstore\n      0x20\n      add\n      swap1\n      dup2\n      mstore\n      0x20\n      add\n      0x00\n      keccak256\n        /* \"TimeAllySIP.sol\":9442:9487  _sip.depositStatus[_monthId] = _depositStatus */\n      dup2\n      swap1\n      sstore\n      pop\n        /* \"TimeAllySIP.sol\":9516:9555  _sip.totalDeposited.add(_depositAmount) */\n      tag_215\n        /* \"TimeAllySIP.sol\":9540:9554  _depositAmount */\n      dup9\n        /* \"TimeAllySIP.sol\":9516:9520  _sip */\n      dup5\n        /* \"TimeAllySIP.sol\":9516:9535  _sip.totalDeposited */\n      0x03\n      add\n      sload\n        /* \"TimeAllySIP.sol\":9516:9539  _sip.totalDeposited.add */\n      tag_157\n      swap1\n        /* \"TimeAllySIP.sol\":9516:9555  _sip.totalDeposited.add(_depositAmount) */\n      swap2\n      swap1\n      0xffffffff\n      and\n      jump\t// in\n    tag_215:\n        /* \"TimeAllySIP.sol\":9494:9498  _sip */\n      dup4\n        /* \"TimeAllySIP.sol\":9494:9513  _sip.totalDeposited */\n      0x03\n      add\n        /* \"TimeAllySIP.sol\":9494:9555  _sip.totalDeposited = _sip.totalDeposited.add(_depositAmount) */\n      dup2\n      swap1\n      sstore\n      pop\n        /* \"TimeAllySIP.sol\":9596:9664  pendingBenefitAmountOfAllStakers.add(... */\n      tag_216\n        /* \"TimeAllySIP.sol\":9640:9658  _benefitsToBeGiven */\n      dup3\n        /* \"TimeAllySIP.sol\":9596:9628  pendingBenefitAmountOfAllStakers */\n      sload(0x03)\n        /* \"TimeAllySIP.sol\":9596:9632  pendingBenefitAmountOfAllStakers.add */\n      tag_157\n      swap1\n        /* \"TimeAllySIP.sol\":9596:9664  pendingBenefitAmountOfAllStakers.add(... */\n      swap2\n      swap1\n      0xffffffff\n      and\n      jump\t// in\n    tag_216:\n        /* \"TimeAllySIP.sol\":9561:9593  pendingBenefitAmountOfAllStakers */\n      0x03\n        /* \"TimeAllySIP.sol\":9561:9664  pendingBenefitAmountOfAllStakers = pendingBenefitAmountOfAllStakers.add(... */\n      dup2\n      swap1\n      sstore\n      pop\n        /* \"TimeAllySIP.sol\":9703:9709  _sipId */\n      dup9\n        /* \"TimeAllySIP.sol\":9687:9701  _stakerAddress */\n      dup11\n        /* \"TimeAllySIP.sol\":9676:9768  NewDeposit(_stakerAddress, _sipId, _monthId, _depositAmount, _benefitsToBeGiven, msg.sender) */\n      0xffffffffffffffffffffffffffffffffffffffff\n      and\n      0xbaf4c88598102708c4215d5d3767268130627355850b7ece9bdfdc32fd2941f0\n        /* \"TimeAllySIP.sol\":9711:9719  _monthId */\n      dup10\n        /* \"TimeAllySIP.sol\":9721:9735  _depositAmount */\n      dup12\n        /* \"TimeAllySIP.sol\":9737:9755  _benefitsToBeGiven */\n      dup7\n        /* \"TimeAllySIP.sol\":9757:9767  msg.sender */\n      caller\n        /* \"TimeAllySIP.sol\":9676:9768  NewDeposit(_stakerAddress, _sipId, _monthId, _depositAmount, _benefitsToBeGiven, msg.sender) */\n      mload(0x40)\n      dup1\n      dup6\n      dup2\n      mstore\n      0x20\n      add\n      dup5\n      dup2\n      mstore\n      0x20\n      add\n      dup4\n      dup2\n      mstore\n      0x20\n      add\n      dup3\n      0xffffffffffffffffffffffffffffffffffffffff\n      and\n      0xffffffffffffffffffffffffffffffffffffffff\n      and\n      dup2\n      mstore\n      0x20\n      add\n      swap5\n      pop\n      pop\n      pop\n      pop\n      pop\n      mload(0x40)\n      dup1\n      swap2\n      sub\n      swap1\n      log3\n        /* \"TimeAllySIP.sol\":4355:4356  _ */\n      pop\n      pop\n      pop\n        /* \"TimeAllySIP.sol\":8344:9773  function monthlyDeposit(... */\n      pop\n      pop\n      pop\n      pop\n      pop\n      pop\n      pop\n      jump\t// out\n        /* \"TimeAllySIP.sol\":15642:15854  function viewAppointation(... */\n    tag_63:\n        /* \"TimeAllySIP.sol\":15772:15776  bool */\n      0x00\n        /* \"TimeAllySIP.sol\":15791:15795  sips */\n      0x06\n        /* \"TimeAllySIP.sol\":15791:15811  sips[_stakerAddress] */\n      0x00\n        /* \"TimeAllySIP.sol\":15796:15810  _stakerAddress */\n      dup6\n        /* \"TimeAllySIP.sol\":15791:15811  sips[_stakerAddress] */\n      0xffffffffffffffffffffffffffffffffffffffff\n      and\n      0xffffffffffffffffffffffffffffffffffffffff\n      and\n      dup2\n      mstore\n      0x20\n      add\n      swap1\n      dup2\n      mstore\n      0x20\n      add\n      0x00\n      keccak256\n        /* \"TimeAllySIP.sol\":15812:15818  _sipId */\n      dup4\n        /* \"TimeAllySIP.sol\":15791:15819  sips[_stakerAddress][_sipId] */\n      dup2\n      sload\n      dup2\n      lt\n      tag_218\n      jumpi\n      invalid\n    tag_218:\n      swap1\n      0x00\n      mstore\n      keccak256(0x00, 0x20)\n      swap1\n      0x0b\n      mul\n      add\n        /* \"TimeAllySIP.sol\":15791:15830  sips[_stakerAddress][_sipId].appointees */\n      0x0a\n      add\n        /* \"TimeAllySIP.sol\":15791:15849  sips[_stakerAddress][_sipId].appointees[_appointeeAddress] */\n      0x00\n        /* \"TimeAllySIP.sol\":15831:15848  _appointeeAddress */\n      dup4\n        /* \"TimeAllySIP.sol\":15791:15849  sips[_stakerAddress][_sipId].appointees[_appointeeAddress] */\n      0xffffffffffffffffffffffffffffffffffffffff\n      and\n      0xffffffffffffffffffffffffffffffffffffffff\n      and\n      dup2\n      mstore\n      0x20\n      add\n      swap1\n      dup2\n      mstore\n      0x20\n      add\n      0x00\n      keccak256\n      0x00\n      swap1\n      sload\n      swap1\n      0x0100\n      exp\n      swap1\n      div\n      0xff\n      and\n        /* \"TimeAllySIP.sol\":15784:15849  return sips[_stakerAddress][_sipId].appointees[_appointeeAddress] */\n      swap1\n      pop\n        /* \"TimeAllySIP.sol\":15642:15854  function viewAppointation(... */\n      swap4\n      swap3\n      pop\n      pop\n      pop\n      jump\t// out\n        /* \"TimeAllySIP.sol\":2458:2478  address public owner */\n    tag_65:\n      0x00\n      dup1\n      swap1\n      sload\n      swap1\n      0x0100\n      exp\n      swap1\n      div\n      0xffffffffffffffffffffffffffffffffffffffff\n      and\n      dup2\n      jump\t// out\n        /* \"TimeAllySIP.sol\":7428:8340  function getDepositStatus(address _stakerAddress, uint256 _sipId, uint256 _monthId) public view returns (uint256) {... */\n    tag_68:\n        /* \"TimeAllySIP.sol\":7533:7540  uint256 */\n      0x00\n        /* \"TimeAllySIP.sol\":7548:7564  SIP storage _sip */\n      dup1\n        /* \"TimeAllySIP.sol\":7567:7571  sips */\n      0x06\n        /* \"TimeAllySIP.sol\":7567:7587  sips[_stakerAddress] */\n      0x00\n        /* \"TimeAllySIP.sol\":7572:7586  _stakerAddress */\n      dup7\n        /* \"TimeAllySIP.sol\":7567:7587  sips[_stakerAddress] */\n      0xffffffffffffffffffffffffffffffffffffffff\n      and\n      0xffffffffffffffffffffffffffffffffffffffff\n      and\n      dup2\n      mstore\n      0x20\n      add\n      swap1\n      dup2\n      mstore\n      0x20\n      add\n      0x00\n      keccak256\n        /* \"TimeAllySIP.sol\":7588:7594  _sipId */\n      dup5\n        /* \"TimeAllySIP.sol\":7567:7595  sips[_stakerAddress][_sipId] */\n      dup2\n      sload\n      dup2\n      lt\n      tag_221\n      jumpi\n      invalid\n    tag_221:\n      swap1\n      0x00\n      mstore\n      keccak256(0x00, 0x20)\n      swap1\n      0x0b\n      mul\n      add\n        /* \"TimeAllySIP.sol\":7548:7595  SIP storage _sip = sips[_stakerAddress][_sipId] */\n      swap1\n      pop\n        /* \"TimeAllySIP.sol\":7629:7630  1 */\n      0x01\n        /* \"TimeAllySIP.sol\":7617:7625  _monthId */\n      dup4\n        /* \"TimeAllySIP.sol\":7617:7630  _monthId >= 1 */\n      lt\n      iszero\n        /* \"TimeAllySIP.sol\":7617:7702  _monthId >= 1 && _monthId... */\n      dup1\n      iszero\n      tag_223\n      jumpi\n      pop\n        /* \"TimeAllySIP.sol\":7654:7662  sipPlans */\n      0x05\n        /* \"TimeAllySIP.sol\":7664:7668  _sip */\n      dup2\n        /* \"TimeAllySIP.sol\":7664:7675  _sip.planId */\n      0x00\n      add\n      sload\n        /* \"TimeAllySIP.sol\":7654:7677  sipPlans[ _sip.planId ] */\n      dup2\n      sload\n      dup2\n      lt\n      tag_224\n      jumpi\n      invalid\n    tag_224:\n      swap1\n      0x00\n      mstore\n      keccak256(0x00, 0x20)\n      swap1\n      0x08\n      mul\n      add\n        /* \"TimeAllySIP.sol\":7654:7702  sipPlans[ _sip.planId ].accumulationPeriodMonths */\n      0x02\n      add\n      sload\n        /* \"TimeAllySIP.sol\":7634:7642  _monthId */\n      dup4\n        /* \"TimeAllySIP.sol\":7634:7702  _monthId... */\n      gt\n      iszero\n        /* \"TimeAllySIP.sol\":7617:7702  _monthId >= 1 && _monthId... */\n    tag_223:\n        /* \"TimeAllySIP.sol\":7602:7740  require(... */\n      tag_226\n      jumpi\n      mload(0x40)\n      0x08c379a000000000000000000000000000000000000000000000000000000000\n      dup2\n      mstore\n      0x04\n      add\n      dup1\n      dup1\n      0x20\n      add\n      dup3\n      dup2\n      sub\n      dup3\n      mstore\n      0x15\n      dup2\n      mstore\n      0x20\n      add\n      dup1\n      0x696e76616c6964206465706f736974206d6f6e74680000000000000000000000\n      dup2\n      mstore\n      pop\n      0x20\n      add\n      swap2\n      pop\n      pop\n      mload(0x40)\n      dup1\n      swap2\n      sub\n      swap1\n      revert\n    tag_226:\n        /* \"TimeAllySIP.sol\":7821:7844  uint256 onTimeTimestamp */\n      0x00\n        /* \"TimeAllySIP.sol\":7908:7909  1 */\n      0x01\n        /* \"TimeAllySIP.sol\":7897:7905  _monthId */\n      dup5\n        /* \"TimeAllySIP.sol\":7897:7909  _monthId - 1 */\n      sub\n        /* \"TimeAllySIP.sol\":7871:7893  EARTH_SECONDS_IN_MONTH */\n      sload(0x02)\n        /* \"TimeAllySIP.sol\":7871:7910  EARTH_SECONDS_IN_MONTH * (_monthId - 1) */\n      mul\n        /* \"TimeAllySIP.sol\":7847:7851  _sip */\n      dup3\n        /* \"TimeAllySIP.sol\":7847:7868  _sip.stakingTimestamp */\n      0x01\n      add\n      sload\n        /* \"TimeAllySIP.sol\":7847:7910  _sip.stakingTimestamp + EARTH_SECONDS_IN_MONTH * (_monthId - 1) */\n      add\n        /* \"TimeAllySIP.sol\":7821:7910  uint256 onTimeTimestamp = _sip.stakingTimestamp + EARTH_SECONDS_IN_MONTH * (_monthId - 1) */\n      swap1\n      pop\n        /* \"TimeAllySIP.sol\":7999:8002  now */\n      timestamp\n        /* \"TimeAllySIP.sol\":7980:7995  onTimeTimestamp */\n      dup2\n        /* \"TimeAllySIP.sol\":7980:8002  onTimeTimestamp >= now */\n      lt\n      iszero\n        /* \"TimeAllySIP.sol\":7980:8053  onTimeTimestamp >= now && now >= onTimeTimestamp - EARTH_SECONDS_IN_MONTH */\n      dup1\n      iszero\n      tag_227\n      jumpi\n      pop\n        /* \"TimeAllySIP.sol\":8031:8053  EARTH_SECONDS_IN_MONTH */\n      sload(0x02)\n        /* \"TimeAllySIP.sol\":8013:8028  onTimeTimestamp */\n      dup2\n        /* \"TimeAllySIP.sol\":8013:8053  onTimeTimestamp - EARTH_SECONDS_IN_MONTH */\n      sub\n        /* \"TimeAllySIP.sol\":8006:8009  now */\n      timestamp\n        /* \"TimeAllySIP.sol\":8006:8053  now >= onTimeTimestamp - EARTH_SECONDS_IN_MONTH */\n      lt\n      iszero\n        /* \"TimeAllySIP.sol\":7980:8053  onTimeTimestamp >= now && now >= onTimeTimestamp - EARTH_SECONDS_IN_MONTH */\n    tag_227:\n        /* \"TimeAllySIP.sol\":7977:8336  if(onTimeTimestamp >= now && now >= onTimeTimestamp - EARTH_SECONDS_IN_MONTH) {... */\n      iszero\n      tag_228\n      jumpi\n        /* \"TimeAllySIP.sol\":8070:8071  2 */\n      0x02\n        /* \"TimeAllySIP.sol\":8063:8071  return 2 */\n      swap3\n      pop\n      pop\n      pop\n      jump(tag_220)\n        /* \"TimeAllySIP.sol\":7977:8336  if(onTimeTimestamp >= now && now >= onTimeTimestamp - EARTH_SECONDS_IN_MONTH) {... */\n    tag_228:\n        /* \"TimeAllySIP.sol\":8184:8187  now */\n      timestamp\n        /* \"TimeAllySIP.sol\":8138:8146  sipPlans */\n      0x05\n        /* \"TimeAllySIP.sol\":8148:8152  _sip */\n      dup4\n        /* \"TimeAllySIP.sol\":8148:8159  _sip.planId */\n      0x00\n      add\n      sload\n        /* \"TimeAllySIP.sol\":8138:8161  sipPlans[ _sip.planId ] */\n      dup2\n      sload\n      dup2\n      lt\n      tag_230\n      jumpi\n      invalid\n    tag_230:\n      swap1\n      0x00\n      mstore\n      keccak256(0x00, 0x20)\n      swap1\n      0x08\n      mul\n      add\n        /* \"TimeAllySIP.sol\":8138:8180  sipPlans[ _sip.planId ].gracePeriodSeconds */\n      0x04\n      add\n      sload\n        /* \"TimeAllySIP.sol\":8120:8135  onTimeTimestamp */\n      dup3\n        /* \"TimeAllySIP.sol\":8120:8180  onTimeTimestamp + sipPlans[ _sip.planId ].gracePeriodSeconds */\n      add\n        /* \"TimeAllySIP.sol\":8120:8187  onTimeTimestamp + sipPlans[ _sip.planId ].gracePeriodSeconds >= now */\n      lt\n        /* \"TimeAllySIP.sol\":8117:8336  if(onTimeTimestamp + sipPlans[ _sip.planId ].gracePeriodSeconds >= now) {... */\n      tag_232\n      jumpi\n        /* \"TimeAllySIP.sol\":8204:8205  1 */\n      0x01\n        /* \"TimeAllySIP.sol\":8197:8205  return 1 */\n      swap3\n      pop\n      pop\n      pop\n      jump(tag_220)\n        /* \"TimeAllySIP.sol\":8117:8336  if(onTimeTimestamp + sipPlans[ _sip.planId ].gracePeriodSeconds >= now) {... */\n    tag_232:\n        /* \"TimeAllySIP.sol\":8275:8276  0 */\n      0x00\n        /* \"TimeAllySIP.sol\":8268:8276  return 0 */\n      swap3\n      pop\n      pop\n      pop\n        /* \"TimeAllySIP.sol\":7428:8340  function getDepositStatus(address _stakerAddress, uint256 _sipId, uint256 _monthId) public view returns (uint256) {... */\n    tag_220:\n      swap4\n      swap3\n      pop\n      pop\n      pop\n      jump\t// out\n        /* \"TimeAllySIP.sol\":9777:11220  function getPendingWithdrawlAmount(... */\n    tag_71:\n        /* \"TimeAllySIP.sol\":9948:9955  uint256 */\n      0x00\n        /* \"TimeAllySIP.sol\":9963:9979  SIP storage _sip */\n      dup1\n        /* \"TimeAllySIP.sol\":9982:9986  sips */\n      0x06\n        /* \"TimeAllySIP.sol\":9982:10002  sips[_stakerAddress] */\n      0x00\n        /* \"TimeAllySIP.sol\":9987:10001  _stakerAddress */\n      dup8\n        /* \"TimeAllySIP.sol\":9982:10002  sips[_stakerAddress] */\n      0xffffffffffffffffffffffffffffffffffffffff\n      and\n      0xffffffffffffffffffffffffffffffffffffffff\n      and\n      dup2\n      mstore\n      0x20\n      add\n      swap1\n      dup2\n      mstore\n      0x20\n      add\n      0x00\n      keccak256\n        /* \"TimeAllySIP.sol\":10003:10009  _sipId */\n      dup6\n        /* \"TimeAllySIP.sol\":9982:10010  sips[_stakerAddress][_sipId] */\n      dup2\n      sload\n      dup2\n      lt\n      tag_235\n      jumpi\n      invalid\n    tag_235:\n      swap1\n      0x00\n      mstore\n      keccak256(0x00, 0x20)\n      swap1\n      0x0b\n      mul\n      add\n        /* \"TimeAllySIP.sol\":9963:10010  SIP storage _sip = sips[_stakerAddress][_sipId] */\n      swap1\n      pop\n        /* \"TimeAllySIP.sol\":10016:10049  uint256 withdrawlAllowedTimestamp */\n      0x00\n        /* \"TimeAllySIP.sol\":10210:10211  1 */\n      0x01\n        /* \"TimeAllySIP.sol\":10190:10207  _withdrawlMonthId */\n      dup6\n        /* \"TimeAllySIP.sol\":10127:10135  sipPlans */\n      0x05\n        /* \"TimeAllySIP.sol\":10137:10141  _sip */\n      dup5\n        /* \"TimeAllySIP.sol\":10137:10148  _sip.planId */\n      0x00\n      add\n      sload\n        /* \"TimeAllySIP.sol\":10127:10150  sipPlans[ _sip.planId ] */\n      dup2\n      sload\n      dup2\n      lt\n      tag_237\n      jumpi\n      invalid\n    tag_237:\n      swap1\n      0x00\n      mstore\n      keccak256(0x00, 0x20)\n      swap1\n      0x08\n      mul\n      add\n        /* \"TimeAllySIP.sol\":10127:10175  sipPlans[ _sip.planId ].accumulationPeriodMonths */\n      0x02\n      add\n      sload\n        /* \"TimeAllySIP.sol\":10127:10207  sipPlans[ _sip.planId ].accumulationPeriodMonths... */\n      add\n        /* \"TimeAllySIP.sol\":10127:10211  sipPlans[ _sip.planId ].accumulationPeriodMonths... */\n      sub\n        /* \"TimeAllySIP.sol\":10090:10112  EARTH_SECONDS_IN_MONTH */\n      sload(0x02)\n        /* \"TimeAllySIP.sol\":10090:10221  EARTH_SECONDS_IN_MONTH * (... */\n      mul\n        /* \"TimeAllySIP.sol\":10058:10062  _sip */\n      dup3\n        /* \"TimeAllySIP.sol\":10058:10079  _sip.stakingTimestamp */\n      0x01\n      add\n      sload\n        /* \"TimeAllySIP.sol\":10058:10221  _sip.stakingTimestamp... */\n      add\n        /* \"TimeAllySIP.sol\":10016:10221  uint256 withdrawlAllowedTimestamp... */\n      swap1\n      pop\n        /* \"TimeAllySIP.sol\":10231:10252  _isNomineeWithdrawing */\n      dup4\n        /* \"TimeAllySIP.sol\":10228:10480  if(_isNomineeWithdrawing) {... */\n      iszero\n      tag_239\n      jumpi\n        /* \"TimeAllySIP.sol\":10287:10317  _sip.numberOfAppointees.div(2) */\n      tag_240\n        /* \"TimeAllySIP.sol\":10315:10316  2 */\n      0x02\n        /* \"TimeAllySIP.sol\":10287:10291  _sip */\n      dup4\n        /* \"TimeAllySIP.sol\":10287:10310  _sip.numberOfAppointees */\n      0x06\n      add\n      sload\n        /* \"TimeAllySIP.sol\":10287:10314  _sip.numberOfAppointees.div */\n      tag_135\n      swap1\n        /* \"TimeAllySIP.sol\":10287:10317  _sip.numberOfAppointees.div(2) */\n      swap2\n      swap1\n      0xffffffff\n      and\n      jump\t// in\n    tag_240:\n        /* \"TimeAllySIP.sol\":10265:10269  _sip */\n      dup3\n        /* \"TimeAllySIP.sol\":10265:10284  _sip.appointeeVotes */\n      0x07\n      add\n      sload\n        /* \"TimeAllySIP.sol\":10265:10317  _sip.appointeeVotes > _sip.numberOfAppointees.div(2) */\n      gt\n        /* \"TimeAllySIP.sol\":10262:10474  if(_sip.appointeeVotes > _sip.numberOfAppointees.div(2)) {... */\n      iszero\n      tag_241\n      jumpi\n        /* \"TimeAllySIP.sol\":10383:10384  6 */\n      0x06\n        /* \"TimeAllySIP.sol\":10358:10380  EARTH_SECONDS_IN_MONTH */\n      sload(0x02)\n        /* \"TimeAllySIP.sol\":10358:10384  EARTH_SECONDS_IN_MONTH * 6 */\n      mul\n        /* \"TimeAllySIP.sol\":10329:10384  withdrawlAllowedTimestamp += EARTH_SECONDS_IN_MONTH * 6 */\n      dup2\n      add\n      swap1\n      pop\n        /* \"TimeAllySIP.sol\":10262:10474  if(_sip.appointeeVotes > _sip.numberOfAppointees.div(2)) {... */\n      jump(tag_242)\n    tag_241:\n        /* \"TimeAllySIP.sol\":10463:10465  12 */\n      0x0c\n        /* \"TimeAllySIP.sol\":10438:10460  EARTH_SECONDS_IN_MONTH */\n      sload(0x02)\n        /* \"TimeAllySIP.sol\":10438:10465  EARTH_SECONDS_IN_MONTH * 12 */\n      mul\n        /* \"TimeAllySIP.sol\":10409:10465  withdrawlAllowedTimestamp += EARTH_SECONDS_IN_MONTH * 12 */\n      dup2\n      add\n      swap1\n      pop\n        /* \"TimeAllySIP.sol\":10262:10474  if(_sip.appointeeVotes > _sip.numberOfAppointees.div(2)) {... */\n    tag_242:\n        /* \"TimeAllySIP.sol\":10228:10480  if(_isNomineeWithdrawing) {... */\n    tag_239:\n        /* \"TimeAllySIP.sol\":10521:10522  0 */\n      0x00\n        /* \"TimeAllySIP.sol\":10501:10518  _withdrawlMonthId */\n      dup6\n        /* \"TimeAllySIP.sol\":10501:10522  _withdrawlMonthId > 0 */\n      gt\n        /* \"TimeAllySIP.sol\":10501:10594  _withdrawlMonthId > 0 && _withdrawlMonthId <= sipPlans[ _sip.planId ].benefitPeriodYears * 12 */\n      dup1\n      iszero\n      tag_243\n      jumpi\n      pop\n        /* \"TimeAllySIP.sol\":10592:10594  12 */\n      0x0c\n        /* \"TimeAllySIP.sol\":10547:10555  sipPlans */\n      0x05\n        /* \"TimeAllySIP.sol\":10557:10561  _sip */\n      dup4\n        /* \"TimeAllySIP.sol\":10557:10568  _sip.planId */\n      0x00\n      add\n      sload\n        /* \"TimeAllySIP.sol\":10547:10570  sipPlans[ _sip.planId ] */\n      dup2\n      sload\n      dup2\n      lt\n      tag_244\n      jumpi\n      invalid\n    tag_244:\n      swap1\n      0x00\n      mstore\n      keccak256(0x00, 0x20)\n      swap1\n      0x08\n      mul\n      add\n        /* \"TimeAllySIP.sol\":10547:10589  sipPlans[ _sip.planId ].benefitPeriodYears */\n      0x03\n      add\n      sload\n        /* \"TimeAllySIP.sol\":10547:10594  sipPlans[ _sip.planId ].benefitPeriodYears * 12 */\n      mul\n        /* \"TimeAllySIP.sol\":10526:10543  _withdrawlMonthId */\n      dup6\n        /* \"TimeAllySIP.sol\":10526:10594  _withdrawlMonthId <= sipPlans[ _sip.planId ].benefitPeriodYears * 12 */\n      gt\n      iszero\n        /* \"TimeAllySIP.sol\":10501:10594  _withdrawlMonthId > 0 && _withdrawlMonthId <= sipPlans[ _sip.planId ].benefitPeriodYears * 12 */\n    tag_243:\n        /* \"TimeAllySIP.sol\":10486:10633  require(... */\n      tag_246\n      jumpi\n      mload(0x40)\n      0x08c379a000000000000000000000000000000000000000000000000000000000\n      dup2\n      mstore\n      0x04\n      add\n      dup1\n      dup1\n      0x20\n      add\n      dup3\n      dup2\n      sub\n      dup3\n      mstore\n      0x16\n      dup2\n      mstore\n      0x20\n      add\n      dup1\n      0x696e76616c6964207769746864726177206d6f6e746800000000000000000000\n      dup2\n      mstore\n      pop\n      0x20\n      add\n      swap2\n      pop\n      pop\n      mload(0x40)\n      dup1\n      swap2\n      sub\n      swap1\n      revert\n    tag_246:\n        /* \"TimeAllySIP.sol\":10674:10678  _sip */\n      dup2\n        /* \"TimeAllySIP.sol\":10674:10699  _sip.lastWithdrawlMonthId */\n      0x04\n      add\n      sload\n        /* \"TimeAllySIP.sol\":10654:10671  _withdrawlMonthId */\n      dup6\n        /* \"TimeAllySIP.sol\":10654:10699  _withdrawlMonthId > _sip.lastWithdrawlMonthId */\n      gt\n        /* \"TimeAllySIP.sol\":10639:10737  require(... */\n      tag_247\n      jumpi\n      mload(0x40)\n      0x08c379a000000000000000000000000000000000000000000000000000000000\n      dup2\n      mstore\n      0x04\n      add\n      dup1\n      dup1\n      0x20\n      add\n      dup3\n      dup2\n      sub\n      dup3\n      mstore\n      0x15\n      dup2\n      mstore\n      0x20\n      add\n      dup1\n      0x63616e6e6f7420776974686472617720616761696e0000000000000000000000\n      dup2\n      mstore\n      pop\n      0x20\n      add\n      swap2\n      pop\n      pop\n      mload(0x40)\n      dup1\n      swap2\n      sub\n      swap1\n      revert\n    tag_247:\n        /* \"TimeAllySIP.sol\":10758:10783  withdrawlAllowedTimestamp */\n      dup1\n        /* \"TimeAllySIP.sol\":10751:10754  now */\n      timestamp\n        /* \"TimeAllySIP.sol\":10751:10783  now >= withdrawlAllowedTimestamp */\n      lt\n      iszero\n        /* \"TimeAllySIP.sol\":10743:10821  require(now >= withdrawlAllowedTimestamp... */\n      tag_248\n      jumpi\n      mload(0x40)\n      0x08c379a000000000000000000000000000000000000000000000000000000000\n      dup2\n      mstore\n      0x04\n      add\n      dup1\n      dup1\n      0x20\n      add\n      dup3\n      dup2\n      sub\n      dup3\n      mstore\n      0x15\n      dup2\n      mstore\n      0x20\n      add\n      dup1\n      0x63616e6e6f74207769746864726177206561726c790000000000000000000000\n      dup2\n      mstore\n      pop\n      0x20\n      add\n      swap2\n      pop\n      pop\n      mload(0x40)\n      dup1\n      swap2\n      sub\n      swap1\n      revert\n    tag_248:\n        /* \"TimeAllySIP.sol\":10827:10857  uint256 _averageMonthlyDeposit */\n      0x00\n        /* \"TimeAllySIP.sol\":10860:10940  _sip.totalDeposited... */\n      tag_249\n        /* \"TimeAllySIP.sol\":10891:10899  sipPlans */\n      0x05\n        /* \"TimeAllySIP.sol\":10901:10905  _sip */\n      dup5\n        /* \"TimeAllySIP.sol\":10901:10912  _sip.planId */\n      0x00\n      add\n      sload\n        /* \"TimeAllySIP.sol\":10891:10914  sipPlans[ _sip.planId ] */\n      dup2\n      sload\n      dup2\n      lt\n      tag_250\n      jumpi\n      invalid\n    tag_250:\n      swap1\n      0x00\n      mstore\n      keccak256(0x00, 0x20)\n      swap1\n      0x08\n      mul\n      add\n        /* \"TimeAllySIP.sol\":10891:10939  sipPlans[ _sip.planId ].accumulationPeriodMonths */\n      0x02\n      add\n      sload\n        /* \"TimeAllySIP.sol\":10860:10864  _sip */\n      dup5\n        /* \"TimeAllySIP.sol\":10860:10879  _sip.totalDeposited */\n      0x03\n      add\n      sload\n        /* \"TimeAllySIP.sol\":10860:10890  _sip.totalDeposited... */\n      tag_135\n      swap1\n        /* \"TimeAllySIP.sol\":10860:10940  _sip.totalDeposited... */\n      swap2\n      swap1\n      0xffffffff\n      and\n      jump\t// in\n    tag_249:\n        /* \"TimeAllySIP.sol\":10827:10940  uint256 _averageMonthlyDeposit = _sip.totalDeposited... */\n      swap1\n      pop\n        /* \"TimeAllySIP.sol\":10946:10973  uint256 _singleMonthBenefit */\n      0x00\n        /* \"TimeAllySIP.sol\":10976:11072  _averageMonthlyDeposit... */\n      tag_252\n        /* \"TimeAllySIP.sol\":11067:11071  1000 */\n      0x03e8\n        /* \"TimeAllySIP.sol\":10976:11055  _averageMonthlyDeposit... */\n      tag_253\n        /* \"TimeAllySIP.sol\":11010:11018  sipPlans */\n      0x05\n        /* \"TimeAllySIP.sol\":11020:11024  _sip */\n      dup8\n        /* \"TimeAllySIP.sol\":11020:11031  _sip.planId */\n      0x00\n      add\n      sload\n        /* \"TimeAllySIP.sol\":11010:11033  sipPlans[ _sip.planId ] */\n      dup2\n      sload\n      dup2\n      lt\n      tag_254\n      jumpi\n      invalid\n    tag_254:\n      swap1\n      0x00\n      mstore\n      keccak256(0x00, 0x20)\n      swap1\n      0x08\n      mul\n      add\n        /* \"TimeAllySIP.sol\":11010:11054  sipPlans[ _sip.planId ].monthlyBenefitFactor */\n      0x05\n      add\n      sload\n        /* \"TimeAllySIP.sol\":10976:10998  _averageMonthlyDeposit */\n      dup6\n        /* \"TimeAllySIP.sol\":10976:11009  _averageMonthlyDeposit... */\n      tag_155\n      swap1\n        /* \"TimeAllySIP.sol\":10976:11055  _averageMonthlyDeposit... */\n      swap2\n      swap1\n      0xffffffff\n      and\n      jump\t// in\n    tag_253:\n        /* \"TimeAllySIP.sol\":10976:11066  _averageMonthlyDeposit... */\n      tag_135\n      swap1\n        /* \"TimeAllySIP.sol\":10976:11072  _averageMonthlyDeposit... */\n      swap2\n      swap1\n      0xffffffff\n      and\n      jump\t// in\n    tag_252:\n        /* \"TimeAllySIP.sol\":10946:11072  uint256 _singleMonthBenefit = _averageMonthlyDeposit... */\n      swap1\n      pop\n        /* \"TimeAllySIP.sol\":11078:11100  uint256 _benefitToGive */\n      0x00\n        /* \"TimeAllySIP.sol\":11103:11188  _singleMonthBenefit.mul(... */\n      tag_256\n        /* \"TimeAllySIP.sol\":11134:11182  _withdrawlMonthId.sub(_sip.lastWithdrawlMonthId) */\n      tag_257\n        /* \"TimeAllySIP.sol\":11156:11160  _sip */\n      dup7\n        /* \"TimeAllySIP.sol\":11156:11181  _sip.lastWithdrawlMonthId */\n      0x04\n      add\n      sload\n        /* \"TimeAllySIP.sol\":11134:11151  _withdrawlMonthId */\n      dup11\n        /* \"TimeAllySIP.sol\":11134:11155  _withdrawlMonthId.sub */\n      tag_102\n      swap1\n        /* \"TimeAllySIP.sol\":11134:11182  _withdrawlMonthId.sub(_sip.lastWithdrawlMonthId) */\n      swap2\n      swap1\n      0xffffffff\n      and\n      jump\t// in\n    tag_257:\n        /* \"TimeAllySIP.sol\":11103:11122  _singleMonthBenefit */\n      dup4\n        /* \"TimeAllySIP.sol\":11103:11126  _singleMonthBenefit.mul */\n      tag_155\n      swap1\n        /* \"TimeAllySIP.sol\":11103:11188  _singleMonthBenefit.mul(... */\n      swap2\n      swap1\n      0xffffffff\n      and\n      jump\t// in\n    tag_256:\n        /* \"TimeAllySIP.sol\":11078:11188  uint256 _benefitToGive = _singleMonthBenefit.mul(... */\n      swap1\n      pop\n        /* \"TimeAllySIP.sol\":11201:11215  _benefitToGive */\n      dup1\n        /* \"TimeAllySIP.sol\":11194:11215  return _benefitToGive */\n      swap6\n      pop\n      pop\n      pop\n      pop\n      pop\n      pop\n        /* \"TimeAllySIP.sol\":9777:11220  function getPendingWithdrawlAmount(... */\n      swap5\n      swap4\n      pop\n      pop\n      pop\n      pop\n      jump\t// out\n        /* \"TimeAllySIP.sol\":15858:16245  function appointeeVote(... */\n    tag_74:\n        /* \"TimeAllySIP.sol\":15946:15962  SIP storage _sip */\n      0x00\n        /* \"TimeAllySIP.sol\":15965:15969  sips */\n      0x06\n        /* \"TimeAllySIP.sol\":15965:15985  sips[_stakerAddress] */\n      0x00\n        /* \"TimeAllySIP.sol\":15970:15984  _stakerAddress */\n      dup5\n        /* \"TimeAllySIP.sol\":15965:15985  sips[_stakerAddress] */\n      0xffffffffffffffffffffffffffffffffffffffff\n      and\n      0xffffffffffffffffffffffffffffffffffffffff\n      and\n      dup2\n      mstore\n      0x20\n      add\n      swap1\n      dup2\n      mstore\n      0x20\n      add\n      0x00\n      keccak256\n        /* \"TimeAllySIP.sol\":15986:15992  _sipId */\n      dup3\n        /* \"TimeAllySIP.sol\":15965:15993  sips[_stakerAddress][_sipId] */\n      dup2\n      sload\n      dup2\n      lt\n      tag_259\n      jumpi\n      invalid\n    tag_259:\n      swap1\n      0x00\n      mstore\n      keccak256(0x00, 0x20)\n      swap1\n      0x0b\n      mul\n      add\n        /* \"TimeAllySIP.sol\":15946:15993  SIP storage _sip = sips[_stakerAddress][_sipId] */\n      swap1\n      pop\n        /* \"TimeAllySIP.sol\":16007:16011  _sip */\n      dup1\n        /* \"TimeAllySIP.sol\":16007:16022  _sip.appointees */\n      0x0a\n      add\n        /* \"TimeAllySIP.sol\":16007:16034  _sip.appointees[msg.sender] */\n      0x00\n        /* \"TimeAllySIP.sol\":16023:16033  msg.sender */\n      caller\n        /* \"TimeAllySIP.sol\":16007:16034  _sip.appointees[msg.sender] */\n      0xffffffffffffffffffffffffffffffffffffffff\n      and\n      0xffffffffffffffffffffffffffffffffffffffff\n      and\n      dup2\n      mstore\n      0x20\n      add\n      swap1\n      dup2\n      mstore\n      0x20\n      add\n      0x00\n      keccak256\n      0x00\n      swap1\n      sload\n      swap1\n      0x0100\n      exp\n      swap1\n      div\n      0xff\n      and\n        /* \"TimeAllySIP.sol\":15999:16083  require(_sip.appointees[msg.sender]... */\n      tag_261\n      jumpi\n      mload(0x40)\n      0x08c379a000000000000000000000000000000000000000000000000000000000\n      dup2\n      mstore\n      0x04\n      add\n      dup1\n      dup1\n      0x20\n      add\n      dup3\n      dup2\n      sub\n      dup3\n      mstore\n      0x20\n      dup2\n      mstore\n      0x20\n      add\n      dup1\n      0x73686f756c64206265206170706f696e74656520746f206361737420766f7465\n      dup2\n      mstore\n      pop\n      0x20\n      add\n      swap2\n      pop\n      pop\n      mload(0x40)\n      dup1\n      swap2\n      sub\n      swap1\n      revert\n    tag_261:\n        /* \"TimeAllySIP.sol\":16119:16124  false */\n      0x00\n        /* \"TimeAllySIP.sol\":16089:16093  _sip */\n      dup2\n        /* \"TimeAllySIP.sol\":16089:16104  _sip.appointees */\n      0x0a\n      add\n        /* \"TimeAllySIP.sol\":16089:16116  _sip.appointees[msg.sender] */\n      0x00\n        /* \"TimeAllySIP.sol\":16105:16115  msg.sender */\n      caller\n        /* \"TimeAllySIP.sol\":16089:16116  _sip.appointees[msg.sender] */\n      0xffffffffffffffffffffffffffffffffffffffff\n      and\n      0xffffffffffffffffffffffffffffffffffffffff\n      and\n      dup2\n      mstore\n      0x20\n      add\n      swap1\n      dup2\n      mstore\n      0x20\n      add\n      0x00\n      keccak256\n      0x00\n        /* \"TimeAllySIP.sol\":16089:16124  _sip.appointees[msg.sender] = false */\n      0x0100\n      exp\n      dup2\n      sload\n      dup2\n      0xff\n      mul\n      not\n      and\n      swap1\n      dup4\n      iszero\n      iszero\n      mul\n      or\n      swap1\n      sstore\n      pop\n        /* \"TimeAllySIP.sol\":16152:16178  _sip.appointeeVotes.add(1) */\n      tag_262\n        /* \"TimeAllySIP.sol\":16176:16177  1 */\n      0x01\n        /* \"TimeAllySIP.sol\":16152:16156  _sip */\n      dup3\n        /* \"TimeAllySIP.sol\":16152:16171  _sip.appointeeVotes */\n      0x07\n      add\n      sload\n        /* \"TimeAllySIP.sol\":16152:16175  _sip.appointeeVotes.add */\n      tag_157\n      swap1\n        /* \"TimeAllySIP.sol\":16152:16178  _sip.appointeeVotes.add(1) */\n      swap2\n      swap1\n      0xffffffff\n      and\n      jump\t// in\n    tag_262:\n        /* \"TimeAllySIP.sol\":16130:16134  _sip */\n      dup2\n        /* \"TimeAllySIP.sol\":16130:16149  _sip.appointeeVotes */\n      0x07\n      add\n        /* \"TimeAllySIP.sol\":16130:16178  _sip.appointeeVotes = _sip.appointeeVotes.add(1) */\n      dup2\n      swap1\n      sstore\n      pop\n        /* \"TimeAllySIP.sol\":16229:16239  msg.sender */\n      caller\n        /* \"TimeAllySIP.sol\":16190:16240  AppointeeVoted(_stakerAddress, _sipId, msg.sender) */\n      0xffffffffffffffffffffffffffffffffffffffff\n      and\n        /* \"TimeAllySIP.sol\":16221:16227  _sipId */\n      dup3\n        /* \"TimeAllySIP.sol\":16205:16219  _stakerAddress */\n      dup5\n        /* \"TimeAllySIP.sol\":16190:16240  AppointeeVoted(_stakerAddress, _sipId, msg.sender) */\n      0xffffffffffffffffffffffffffffffffffffffff\n      and\n      0x57e90b4a498a7310fab91955c915f3f15a0d1a94b296f824da9443d524ea2e1b\n      mload(0x40)\n      mload(0x40)\n      dup1\n      swap2\n      sub\n      swap1\n      log4\n        /* \"TimeAllySIP.sol\":15858:16245  function appointeeVote(... */\n      pop\n      pop\n      pop\n      jump\t// out\n        /* \"TimeAllySIP.sol\":14973:15638  function toogleAppointee(... */\n    tag_77:\n        /* \"TimeAllySIP.sol\":15096:15112  SIP storage _sip */\n      0x00\n        /* \"TimeAllySIP.sol\":15115:15119  sips */\n      0x06\n        /* \"TimeAllySIP.sol\":15115:15131  sips[msg.sender] */\n      0x00\n        /* \"TimeAllySIP.sol\":15120:15130  msg.sender */\n      caller\n        /* \"TimeAllySIP.sol\":15115:15131  sips[msg.sender] */\n      0xffffffffffffffffffffffffffffffffffffffff\n      and\n      0xffffffffffffffffffffffffffffffffffffffff\n      and\n      dup2\n      mstore\n      0x20\n      add\n      swap1\n      dup2\n      mstore\n      0x20\n      add\n      0x00\n      keccak256\n        /* \"TimeAllySIP.sol\":15132:15138  _sipId */\n      dup5\n        /* \"TimeAllySIP.sol\":15115:15139  sips[msg.sender][_sipId] */\n      dup2\n      sload\n      dup2\n      lt\n      tag_264\n      jumpi\n      invalid\n    tag_264:\n      swap1\n      0x00\n      mstore\n      keccak256(0x00, 0x20)\n      swap1\n      0x0b\n      mul\n      add\n        /* \"TimeAllySIP.sol\":15096:15139  SIP storage _sip = sips[msg.sender][_sipId] */\n      swap1\n      pop\n        /* \"TimeAllySIP.sol\":15149:15153  _sip */\n      dup1\n        /* \"TimeAllySIP.sol\":15149:15164  _sip.appointees */\n      0x0a\n      add\n        /* \"TimeAllySIP.sol\":15149:15183  _sip.appointees[_appointeeAddress] */\n      0x00\n        /* \"TimeAllySIP.sol\":15165:15182  _appointeeAddress */\n      dup5\n        /* \"TimeAllySIP.sol\":15149:15183  _sip.appointees[_appointeeAddress] */\n      0xffffffffffffffffffffffffffffffffffffffff\n      and\n      0xffffffffffffffffffffffffffffffffffffffff\n      and\n      dup2\n      mstore\n      0x20\n      add\n      swap1\n      dup2\n      mstore\n      0x20\n      add\n      0x00\n      keccak256\n      0x00\n      swap1\n      sload\n      swap1\n      0x0100\n      exp\n      swap1\n      div\n      0xff\n      and\n        /* \"TimeAllySIP.sol\":15148:15183  !_sip.appointees[_appointeeAddress] */\n      iszero\n        /* \"TimeAllySIP.sol\":15148:15206  !_sip.appointees[_appointeeAddress] && _newAppointeeStatus */\n      dup1\n      iszero\n      tag_266\n      jumpi\n      pop\n        /* \"TimeAllySIP.sol\":15187:15206  _newAppointeeStatus */\n      dup2\n        /* \"TimeAllySIP.sol\":15148:15206  !_sip.appointees[_appointeeAddress] && _newAppointeeStatus */\n    tag_266:\n        /* \"TimeAllySIP.sol\":15145:15547  if(!_sip.appointees[_appointeeAddress] && _newAppointeeStatus) {... */\n      iszero\n      tag_267\n      jumpi\n        /* \"TimeAllySIP.sol\":15274:15304  _sip.numberOfAppointees.add(1) */\n      tag_268\n        /* \"TimeAllySIP.sol\":15302:15303  1 */\n      0x01\n        /* \"TimeAllySIP.sol\":15274:15278  _sip */\n      dup3\n        /* \"TimeAllySIP.sol\":15274:15297  _sip.numberOfAppointees */\n      0x06\n      add\n      sload\n        /* \"TimeAllySIP.sol\":15274:15301  _sip.numberOfAppointees.add */\n      tag_157\n      swap1\n        /* \"TimeAllySIP.sol\":15274:15304  _sip.numberOfAppointees.add(1) */\n      swap2\n      swap1\n      0xffffffff\n      and\n      jump\t// in\n    tag_268:\n        /* \"TimeAllySIP.sol\":15248:15252  _sip */\n      dup2\n        /* \"TimeAllySIP.sol\":15248:15271  _sip.numberOfAppointees */\n      0x06\n      add\n        /* \"TimeAllySIP.sol\":15248:15304  _sip.numberOfAppointees = _sip.numberOfAppointees.add(1) */\n      dup2\n      swap1\n      sstore\n      pop\n        /* \"TimeAllySIP.sol\":15347:15351  true */\n      0x01\n        /* \"TimeAllySIP.sol\":15312:15316  _sip */\n      dup2\n        /* \"TimeAllySIP.sol\":15312:15325  _sip.nominees */\n      0x09\n      add\n        /* \"TimeAllySIP.sol\":15312:15344  _sip.nominees[_appointeeAddress] */\n      0x00\n        /* \"TimeAllySIP.sol\":15326:15343  _appointeeAddress */\n      dup6\n        /* \"TimeAllySIP.sol\":15312:15344  _sip.nominees[_appointeeAddress] */\n      0xffffffffffffffffffffffffffffffffffffffff\n      and\n      0xffffffffffffffffffffffffffffffffffffffff\n      and\n      dup2\n      mstore\n      0x20\n      add\n      swap1\n      dup2\n      mstore\n      0x20\n      add\n      0x00\n      keccak256\n      0x00\n        /* \"TimeAllySIP.sol\":15312:15351  _sip.nominees[_appointeeAddress] = true */\n      0x0100\n      exp\n      dup2\n      sload\n      dup2\n      0xff\n      mul\n      not\n      and\n      swap1\n      dup4\n      iszero\n      iszero\n      mul\n      or\n      swap1\n      sstore\n      pop\n        /* \"TimeAllySIP.sol\":15145:15547  if(!_sip.appointees[_appointeeAddress] && _newAppointeeStatus) {... */\n      jump(tag_269)\n    tag_267:\n        /* \"TimeAllySIP.sol\":15368:15372  _sip */\n      dup1\n        /* \"TimeAllySIP.sol\":15368:15383  _sip.appointees */\n      0x0a\n      add\n        /* \"TimeAllySIP.sol\":15368:15402  _sip.appointees[_appointeeAddress] */\n      0x00\n        /* \"TimeAllySIP.sol\":15384:15401  _appointeeAddress */\n      dup5\n        /* \"TimeAllySIP.sol\":15368:15402  _sip.appointees[_appointeeAddress] */\n      0xffffffffffffffffffffffffffffffffffffffff\n      and\n      0xffffffffffffffffffffffffffffffffffffffff\n      and\n      dup2\n      mstore\n      0x20\n      add\n      swap1\n      dup2\n      mstore\n      0x20\n      add\n      0x00\n      keccak256\n      0x00\n      swap1\n      sload\n      swap1\n      0x0100\n      exp\n      swap1\n      div\n      0xff\n      and\n        /* \"TimeAllySIP.sol\":15368:15426  _sip.appointees[_appointeeAddress] && !_newAppointeeStatus */\n      dup1\n      iszero\n      tag_270\n      jumpi\n      pop\n        /* \"TimeAllySIP.sol\":15407:15426  _newAppointeeStatus */\n      dup2\n        /* \"TimeAllySIP.sol\":15406:15426  !_newAppointeeStatus */\n      iszero\n        /* \"TimeAllySIP.sol\":15368:15426  _sip.appointees[_appointeeAddress] && !_newAppointeeStatus */\n    tag_270:\n        /* \"TimeAllySIP.sol\":15365:15547  if(_sip.appointees[_appointeeAddress] && !_newAppointeeStatus) {... */\n      iszero\n      tag_271\n      jumpi\n        /* \"TimeAllySIP.sol\":15471:15476  false */\n      0x00\n        /* \"TimeAllySIP.sol\":15436:15440  _sip */\n      dup2\n        /* \"TimeAllySIP.sol\":15436:15449  _sip.nominees */\n      0x09\n      add\n        /* \"TimeAllySIP.sol\":15436:15468  _sip.nominees[_appointeeAddress] */\n      0x00\n        /* \"TimeAllySIP.sol\":15450:15467  _appointeeAddress */\n      dup6\n        /* \"TimeAllySIP.sol\":15436:15468  _sip.nominees[_appointeeAddress] */\n      0xffffffffffffffffffffffffffffffffffffffff\n      and\n      0xffffffffffffffffffffffffffffffffffffffff\n      and\n      dup2\n      mstore\n      0x20\n      add\n      swap1\n      dup2\n      mstore\n      0x20\n      add\n      0x00\n      keccak256\n      0x00\n        /* \"TimeAllySIP.sol\":15436:15476  _sip.nominees[_appointeeAddress] = false */\n      0x0100\n      exp\n      dup2\n      sload\n      dup2\n      0xff\n      mul\n      not\n      and\n      swap1\n      dup4\n      iszero\n      iszero\n      mul\n      or\n      swap1\n      sstore\n      pop\n        /* \"TimeAllySIP.sol\":15510:15540  _sip.numberOfAppointees.sub(1) */\n      tag_272\n        /* \"TimeAllySIP.sol\":15538:15539  1 */\n      0x01\n        /* \"TimeAllySIP.sol\":15510:15514  _sip */\n      dup3\n        /* \"TimeAllySIP.sol\":15510:15533  _sip.numberOfAppointees */\n      0x06\n      add\n      sload\n        /* \"TimeAllySIP.sol\":15510:15537  _sip.numberOfAppointees.sub */\n      tag_102\n      swap1\n        /* \"TimeAllySIP.sol\":15510:15540  _sip.numberOfAppointees.sub(1) */\n      swap2\n      swap1\n      0xffffffff\n      and\n      jump\t// in\n    tag_272:\n        /* \"TimeAllySIP.sol\":15484:15488  _sip */\n      dup2\n        /* \"TimeAllySIP.sol\":15484:15507  _sip.numberOfAppointees */\n      0x06\n      add\n        /* \"TimeAllySIP.sol\":15484:15540  _sip.numberOfAppointees = _sip.numberOfAppointees.sub(1) */\n      dup2\n      swap1\n      sstore\n      pop\n        /* \"TimeAllySIP.sol\":15365:15547  if(_sip.appointees[_appointeeAddress] && !_newAppointeeStatus) {... */\n    tag_271:\n        /* \"TimeAllySIP.sol\":15145:15547  if(!_sip.appointees[_appointeeAddress] && _newAppointeeStatus) {... */\n    tag_269:\n        /* \"TimeAllySIP.sol\":15594:15611  _appointeeAddress */\n      dup3\n        /* \"TimeAllySIP.sol\":15557:15633  AppointeeUpdated(msg.sender, _sipId, _appointeeAddress, _newAppointeeStatus) */\n      0xffffffffffffffffffffffffffffffffffffffff\n      and\n        /* \"TimeAllySIP.sol\":15586:15592  _sipId */\n      dup5\n        /* \"TimeAllySIP.sol\":15574:15584  msg.sender */\n      caller\n        /* \"TimeAllySIP.sol\":15557:15633  AppointeeUpdated(msg.sender, _sipId, _appointeeAddress, _newAppointeeStatus) */\n      0xffffffffffffffffffffffffffffffffffffffff\n      and\n      0xf7a6207b27953eff117f9b7c03e363d41370a45e2b626d2aa32c6a0ac6365782\n        /* \"TimeAllySIP.sol\":15613:15632  _newAppointeeStatus */\n      dup6\n        /* \"TimeAllySIP.sol\":15557:15633  AppointeeUpdated(msg.sender, _sipId, _appointeeAddress, _newAppointeeStatus) */\n      mload(0x40)\n      dup1\n      dup3\n      iszero\n      iszero\n      iszero\n      iszero\n      dup2\n      mstore\n      0x20\n      add\n      swap2\n      pop\n      pop\n      mload(0x40)\n      dup1\n      swap2\n      sub\n      swap1\n      log4\n        /* \"TimeAllySIP.sol\":14973:15638  function toogleAppointee(... */\n      pop\n      pop\n      pop\n      pop\n      jump\t// out\n        /* \"TimeAllySIP.sol\":5400:5625  function addFunds(uint256 _depositAmount) public {... */\n    tag_80:\n        /* \"TimeAllySIP.sol\":5463:5468  token */\n      0x01\n      0x00\n      swap1\n      sload\n      swap1\n      0x0100\n      exp\n      swap1\n      div\n      0xffffffffffffffffffffffffffffffffffffffff\n      and\n        /* \"TimeAllySIP.sol\":5463:5481  token.transferFrom */\n      0xffffffffffffffffffffffffffffffffffffffff\n      and\n      0x23b872dd\n        /* \"TimeAllySIP.sol\":5482:5492  msg.sender */\n      caller\n        /* \"TimeAllySIP.sol\":5502:5506  this */\n      address\n        /* \"TimeAllySIP.sol\":5509:5523  _depositAmount */\n      dup5\n        /* \"TimeAllySIP.sol\":5463:5524  token.transferFrom(msg.sender, address(this), _depositAmount) */\n      mload(0x40)\n      dup5\n      0xffffffff\n      and\n      0xe0\n      shl\n      dup2\n      mstore\n      0x04\n      add\n      dup1\n      dup5\n      0xffffffffffffffffffffffffffffffffffffffff\n      and\n      0xffffffffffffffffffffffffffffffffffffffff\n      and\n      dup2\n      mstore\n      0x20\n      add\n      dup4\n      0xffffffffffffffffffffffffffffffffffffffff\n      and\n      0xffffffffffffffffffffffffffffffffffffffff\n      and\n      dup2\n      mstore\n      0x20\n      add\n      dup3\n      dup2\n      mstore\n      0x20\n      add\n      swap4\n      pop\n      pop\n      pop\n      pop\n      0x20\n      mload(0x40)\n      dup1\n      dup4\n      sub\n      dup2\n      0x00\n      dup8\n      dup1\n      extcodesize\n      iszero\n        /* \"--CODEGEN--\":8:17   */\n      dup1\n        /* \"--CODEGEN--\":5:7   */\n      iszero\n      tag_274\n      jumpi\n        /* \"--CODEGEN--\":30:31   */\n      0x00\n        /* \"--CODEGEN--\":27:28   */\n      dup1\n        /* \"--CODEGEN--\":20:32   */\n      revert\n        /* \"--CODEGEN--\":5:7   */\n    tag_274:\n        /* \"TimeAllySIP.sol\":5463:5524  token.transferFrom(msg.sender, address(this), _depositAmount) */\n      pop\n      gas\n      call\n      iszero\n        /* \"--CODEGEN--\":8:17   */\n      dup1\n        /* \"--CODEGEN--\":5:7   */\n      iszero\n      tag_275\n      jumpi\n        /* \"--CODEGEN--\":45:61   */\n      returndatasize\n        /* \"--CODEGEN--\":42:43   */\n      0x00\n        /* \"--CODEGEN--\":39:40   */\n      dup1\n        /* \"--CODEGEN--\":24:62   */\n      returndatacopy\n        /* \"--CODEGEN--\":77:93   */\n      returndatasize\n        /* \"--CODEGEN--\":74:75   */\n      0x00\n        /* \"--CODEGEN--\":67:94   */\n      revert\n        /* \"--CODEGEN--\":5:7   */\n    tag_275:\n        /* \"TimeAllySIP.sol\":5463:5524  token.transferFrom(msg.sender, address(this), _depositAmount) */\n      pop\n      pop\n      pop\n      pop\n      mload(0x40)\n      returndatasize\n        /* \"--CODEGEN--\":13:15   */\n      0x20\n        /* \"--CODEGEN--\":8:11   */\n      dup2\n        /* \"--CODEGEN--\":5:16   */\n      lt\n        /* \"--CODEGEN--\":2:4   */\n      iszero\n      tag_276\n      jumpi\n        /* \"--CODEGEN--\":29:30   */\n      0x00\n        /* \"--CODEGEN--\":26:27   */\n      dup1\n        /* \"--CODEGEN--\":19:31   */\n      revert\n        /* \"--CODEGEN--\":2:4   */\n    tag_276:\n        /* \"TimeAllySIP.sol\":5463:5524  token.transferFrom(msg.sender, address(this), _depositAmount) */\n      dup2\n      add\n      swap1\n      dup1\n      dup1\n      mload\n      swap1\n      0x20\n      add\n      swap1\n      swap3\n      swap2\n      swap1\n      pop\n      pop\n      pop\n        /* \"TimeAllySIP.sol\":5455:5525  require(token.transferFrom(msg.sender, address(this), _depositAmount)) */\n      tag_277\n      jumpi\n      0x00\n      dup1\n      revert\n    tag_277:\n        /* \"TimeAllySIP.sol\":5546:5578  fundsDeposit.add(_depositAmount) */\n      tag_278\n        /* \"TimeAllySIP.sol\":5563:5577  _depositAmount */\n      dup2\n        /* \"TimeAllySIP.sol\":5546:5558  fundsDeposit */\n      sload(0x04)\n        /* \"TimeAllySIP.sol\":5546:5562  fundsDeposit.add */\n      tag_157\n      swap1\n        /* \"TimeAllySIP.sol\":5546:5578  fundsDeposit.add(_depositAmount) */\n      swap2\n      swap1\n      0xffffffff\n      and\n      jump\t// in\n    tag_278:\n        /* \"TimeAllySIP.sol\":5531:5543  fundsDeposit */\n      0x04\n        /* \"TimeAllySIP.sol\":5531:5578  fundsDeposit = fundsDeposit.add(_depositAmount) */\n      dup2\n      swap1\n      sstore\n      pop\n        /* \"TimeAllySIP.sol\":5590:5620  FundsDeposited(_depositAmount) */\n      0x7cb5d45c1071f219bd2da1ea101758715bd52f23f2a707f2d9a0387dea18d906\n        /* \"TimeAllySIP.sol\":5605:5619  _depositAmount */\n      dup2\n        /* \"TimeAllySIP.sol\":5590:5620  FundsDeposited(_depositAmount) */\n      mload(0x40)\n      dup1\n      dup3\n      dup2\n      mstore\n      0x20\n      add\n      swap2\n      pop\n      pop\n      mload(0x40)\n      dup1\n      swap2\n      sub\n      swap1\n      log1\n        /* \"TimeAllySIP.sol\":5400:5625  function addFunds(uint256 _depositAmount) public {... */\n      pop\n      jump\t// out\n        /* \"TimeAllySIP.sol\":2732:2757  SIPPlan[] public sipPlans */\n    tag_83:\n      0x05\n      dup2\n      dup2\n      sload\n      dup2\n      lt\n      tag_279\n      jumpi\n      invalid\n    tag_279:\n      swap1\n      0x00\n      mstore\n      keccak256(0x00, 0x20)\n      swap1\n      0x08\n      mul\n      add\n      0x00\n      swap2\n      pop\n      swap1\n      pop\n      dup1\n      0x00\n      add\n      0x00\n      swap1\n      sload\n      swap1\n      0x0100\n      exp\n      swap1\n      div\n      0xff\n      and\n      swap1\n      dup1\n      0x01\n      add\n      sload\n      swap1\n      dup1\n      0x02\n      add\n      sload\n      swap1\n      dup1\n      0x03\n      add\n      sload\n      swap1\n      dup1\n      0x04\n      add\n      sload\n      swap1\n      dup1\n      0x05\n      add\n      sload\n      swap1\n      dup1\n      0x06\n      add\n      sload\n      swap1\n      dup1\n      0x07\n      add\n      sload\n      swap1\n      pop\n      dup9\n      jump\t// out\n        /* \"TimeAllySIP.sol\":4451:4655  function getDepositDoneStatus(... */\n    tag_86:\n        /* \"TimeAllySIP.sol\":4576:4583  uint256 */\n      0x00\n        /* \"TimeAllySIP.sol\":4598:4602  sips */\n      0x06\n        /* \"TimeAllySIP.sol\":4598:4618  sips[_stakerAddress] */\n      0x00\n        /* \"TimeAllySIP.sol\":4603:4617  _stakerAddress */\n      dup6\n        /* \"TimeAllySIP.sol\":4598:4618  sips[_stakerAddress] */\n      0xffffffffffffffffffffffffffffffffffffffff\n      and\n      0xffffffffffffffffffffffffffffffffffffffff\n      and\n      dup2\n      mstore\n      0x20\n      add\n      swap1\n      dup2\n      mstore\n      0x20\n      add\n      0x00\n      keccak256\n        /* \"TimeAllySIP.sol\":4619:4625  _sipId */\n      dup4\n        /* \"TimeAllySIP.sol\":4598:4626  sips[_stakerAddress][_sipId] */\n      dup2\n      sload\n      dup2\n      lt\n      tag_282\n      jumpi\n      invalid\n    tag_282:\n      swap1\n      0x00\n      mstore\n      keccak256(0x00, 0x20)\n      swap1\n      0x0b\n      mul\n      add\n        /* \"TimeAllySIP.sol\":4598:4640  sips[_stakerAddress][_sipId].depositStatus */\n      0x08\n      add\n        /* \"TimeAllySIP.sol\":4598:4650  sips[_stakerAddress][_sipId].depositStatus[_monthId] */\n      0x00\n        /* \"TimeAllySIP.sol\":4641:4649  _monthId */\n      dup4\n        /* \"TimeAllySIP.sol\":4598:4650  sips[_stakerAddress][_sipId].depositStatus[_monthId] */\n      dup2\n      mstore\n      0x20\n      add\n      swap1\n      dup2\n      mstore\n      0x20\n      add\n      0x00\n      keccak256\n      sload\n        /* \"TimeAllySIP.sol\":4591:4650  return sips[_stakerAddress][_sipId].depositStatus[_monthId] */\n      swap1\n      pop\n        /* \"TimeAllySIP.sol\":4451:4655  function getDepositDoneStatus(... */\n      swap4\n      swap3\n      pop\n      pop\n      pop\n      jump\t// out\n        /* \"TimeAllySIP.sol\":2762:2799  mapping(address => SIP[]) public sips */\n    tag_89:\n      mstore(0x20, 0x06)\n      dup2\n      0x00\n      mstore\n      keccak256(0x00, 0x40)\n      dup2\n      dup2\n      sload\n      dup2\n      lt\n      tag_284\n      jumpi\n      invalid\n    tag_284:\n      swap1\n      0x00\n      mstore\n      keccak256(0x00, 0x20)\n      swap1\n      0x0b\n      mul\n      add\n      0x00\n      swap2\n      pop\n      swap2\n      pop\n      pop\n      dup1\n      0x00\n      add\n      sload\n      swap1\n      dup1\n      0x01\n      add\n      sload\n      swap1\n      dup1\n      0x02\n      add\n      sload\n      swap1\n      dup1\n      0x03\n      add\n      sload\n      swap1\n      dup1\n      0x04\n      add\n      sload\n      swap1\n      dup1\n      0x05\n      add\n      sload\n      swap1\n      dup1\n      0x06\n      add\n      sload\n      swap1\n      dup1\n      0x07\n      add\n      sload\n      swap1\n      pop\n      dup9\n      jump\t// out\n        /* \"TimeAllySIP.sol\":2482:2500  ERC20 public token */\n    tag_91:\n      0x01\n      0x00\n      swap1\n      sload\n      swap1\n      0x0100\n      exp\n      swap1\n      div\n      0xffffffffffffffffffffffffffffffffffffffff\n      and\n      dup2\n      jump\t// out\n        /* \"SafeMath.sol\":1274:1408  function sub(uint256 a, uint256 b) internal pure returns (uint256) {... */\n    tag_102:\n        /* \"SafeMath.sol\":1332:1339  uint256 */\n      0x00\n        /* \"SafeMath.sol\":1358:1401  sub(a, b, \"SafeMath: subtraction overflow\") */\n      tag_287\n        /* \"SafeMath.sol\":1362:1363  a */\n      dup4\n        /* \"SafeMath.sol\":1365:1366  b */\n      dup4\n        /* \"SafeMath.sol\":1358:1401  sub(a, b, \"SafeMath: subtraction overflow\") */\n      mload(0x40)\n      dup1\n      0x40\n      add\n      0x40\n      mstore\n      dup1\n      0x1e\n      dup2\n      mstore\n      0x20\n      add\n      0x536166654d6174683a207375627472616374696f6e206f766572666c6f770000\n      dup2\n      mstore\n      pop\n        /* \"SafeMath.sol\":1358:1361  sub */\n      tag_288\n        /* \"SafeMath.sol\":1358:1401  sub(a, b, \"SafeMath: subtraction overflow\") */\n      jump\t// in\n    tag_287:\n        /* \"SafeMath.sol\":1351:1401  return sub(a, b, \"SafeMath: subtraction overflow\") */\n      swap1\n      pop\n        /* \"SafeMath.sol\":1274:1408  function sub(uint256 a, uint256 b) internal pure returns (uint256) {... */\n      swap3\n      swap2\n      pop\n      pop\n      jump\t// out\n        /* \"SafeMath.sol\":3185:3315  function div(uint256 a, uint256 b) internal pure returns (uint256) {... */\n    tag_135:\n        /* \"SafeMath.sol\":3243:3250  uint256 */\n      0x00\n        /* \"SafeMath.sol\":3269:3308  div(a, b, \"SafeMath: division by zero\") */\n      tag_290\n        /* \"SafeMath.sol\":3273:3274  a */\n      dup4\n        /* \"SafeMath.sol\":3276:3277  b */\n      dup4\n        /* \"SafeMath.sol\":3269:3308  div(a, b, \"SafeMath: division by zero\") */\n      mload(0x40)\n      dup1\n      0x40\n      add\n      0x40\n      mstore\n      dup1\n      0x1a\n      dup2\n      mstore\n      0x20\n      add\n      0x536166654d6174683a206469766973696f6e206279207a65726f000000000000\n      dup2\n      mstore\n      pop\n        /* \"SafeMath.sol\":3269:3272  div */\n      tag_291\n        /* \"SafeMath.sol\":3269:3308  div(a, b, \"SafeMath: division by zero\") */\n      jump\t// in\n    tag_290:\n        /* \"SafeMath.sol\":3262:3308  return div(a, b, \"SafeMath: division by zero\") */\n      swap1\n      pop\n        /* \"SafeMath.sol\":3185:3315  function div(uint256 a, uint256 b) internal pure returns (uint256) {... */\n      swap3\n      swap2\n      pop\n      pop\n      jump\t// out\n        /* \"SafeMath.sol\":2271:2730  function mul(uint256 a, uint256 b) internal pure returns (uint256) {... */\n    tag_155:\n        /* \"SafeMath.sol\":2329:2336  uint256 */\n      0x00\n        /* \"SafeMath.sol\":2575:2576  0 */\n      dup1\n        /* \"SafeMath.sol\":2570:2571  a */\n      dup4\n        /* \"SafeMath.sol\":2570:2576  a == 0 */\n      eq\n        /* \"SafeMath.sol\":2566:2611  if (a == 0) {... */\n      iszero\n      tag_293\n      jumpi\n        /* \"SafeMath.sol\":2599:2600  0 */\n      0x00\n        /* \"SafeMath.sol\":2592:2600  return 0 */\n      swap1\n      pop\n      jump(tag_292)\n        /* \"SafeMath.sol\":2566:2611  if (a == 0) {... */\n    tag_293:\n        /* \"SafeMath.sol\":2621:2630  uint256 c */\n      0x00\n        /* \"SafeMath.sol\":2637:2638  b */\n      dup3\n        /* \"SafeMath.sol\":2633:2634  a */\n      dup5\n        /* \"SafeMath.sol\":2633:2638  a * b */\n      mul\n        /* \"SafeMath.sol\":2621:2638  uint256 c = a * b */\n      swap1\n      pop\n        /* \"SafeMath.sol\":2665:2666  b */\n      dup3\n        /* \"SafeMath.sol\":2660:2661  a */\n      dup5\n        /* \"SafeMath.sol\":2656:2657  c */\n      dup3\n        /* \"SafeMath.sol\":2656:2661  c / a */\n      dup2\n      tag_294\n      jumpi\n      invalid\n    tag_294:\n      div\n        /* \"SafeMath.sol\":2656:2666  c / a == b */\n      eq\n        /* \"SafeMath.sol\":2648:2704  require(c / a == b, \"SafeMath: multiplication overflow\") */\n      tag_295\n      jumpi\n      mload(0x40)\n      0x08c379a000000000000000000000000000000000000000000000000000000000\n      dup2\n      mstore\n      0x04\n      add\n      dup1\n      dup1\n      0x20\n      add\n      dup3\n      dup2\n      sub\n      dup3\n      mstore\n      0x21\n      dup2\n      mstore\n      0x20\n      add\n      dup1\n      data_9113bb53c2876a3805b2c9242029423fc540a728243ce887ab24c82cf119fba3\n      0x21\n      swap2\n      codecopy\n      0x40\n      add\n      swap2\n      pop\n      pop\n      mload(0x40)\n      dup1\n      swap2\n      sub\n      swap1\n      revert\n    tag_295:\n        /* \"SafeMath.sol\":2722:2723  c */\n      dup1\n        /* \"SafeMath.sol\":2715:2723  return c */\n      swap2\n      pop\n      pop\n        /* \"SafeMath.sol\":2271:2730  function mul(uint256 a, uint256 b) internal pure returns (uint256) {... */\n    tag_292:\n      swap3\n      swap2\n      pop\n      pop\n      jump\t// out\n        /* \"SafeMath.sol\":834:1010  function add(uint256 a, uint256 b) internal pure returns (uint256) {... */\n    tag_157:\n        /* \"SafeMath.sol\":892:899  uint256 */\n      0x00\n        /* \"SafeMath.sol\":911:920  uint256 c */\n      dup1\n        /* \"SafeMath.sol\":927:928  b */\n      dup3\n        /* \"SafeMath.sol\":923:924  a */\n      dup5\n        /* \"SafeMath.sol\":923:928  a + b */\n      add\n        /* \"SafeMath.sol\":911:928  uint256 c = a + b */\n      swap1\n      pop\n        /* \"SafeMath.sol\":951:952  a */\n      dup4\n        /* \"SafeMath.sol\":946:947  c */\n      dup2\n        /* \"SafeMath.sol\":946:952  c >= a */\n      lt\n      iszero\n        /* \"SafeMath.sol\":938:984  require(c >= a, \"SafeMath: addition overflow\") */\n      tag_297\n      jumpi\n      mload(0x40)\n      0x08c379a000000000000000000000000000000000000000000000000000000000\n      dup2\n      mstore\n      0x04\n      add\n      dup1\n      dup1\n      0x20\n      add\n      dup3\n      dup2\n      sub\n      dup3\n      mstore\n      0x1b\n      dup2\n      mstore\n      0x20\n      add\n      dup1\n      0x536166654d6174683a206164646974696f6e206f766572666c6f770000000000\n      dup2\n      mstore\n      pop\n      0x20\n      add\n      swap2\n      pop\n      pop\n      mload(0x40)\n      dup1\n      swap2\n      sub\n      swap1\n      revert\n    tag_297:\n        /* \"SafeMath.sol\":1002:1003  c */\n      dup1\n        /* \"SafeMath.sol\":995:1003  return c */\n      swap2\n      pop\n      pop\n        /* \"SafeMath.sol\":834:1010  function add(uint256 a, uint256 b) internal pure returns (uint256) {... */\n      swap3\n      swap2\n      pop\n      pop\n      jump\t// out\n        /* \"SafeMath.sol\":1844:2031  function sub(uint256 a, uint256 b, string memory errorMessage) internal pure returns (uint256) {... */\n    tag_288:\n        /* \"SafeMath.sol\":1930:1937  uint256 */\n      0x00\n        /* \"SafeMath.sol\":1962:1963  a */\n      dup4\n        /* \"SafeMath.sol\":1957:1958  b */\n      dup4\n        /* \"SafeMath.sol\":1957:1963  b <= a */\n      gt\n      iszero\n        /* \"SafeMath.sol\":1965:1977  errorMessage */\n      dup3\n        /* \"SafeMath.sol\":1949:1978  require(b <= a, errorMessage) */\n      swap1\n      tag_299\n      jumpi\n      mload(0x40)\n      0x08c379a000000000000000000000000000000000000000000000000000000000\n      dup2\n      mstore\n      0x04\n      add\n      dup1\n      dup1\n      0x20\n      add\n      dup3\n      dup2\n      sub\n      dup3\n      mstore\n      dup4\n      dup2\n      dup2\n      mload\n      dup2\n      mstore\n      0x20\n      add\n      swap2\n      pop\n      dup1\n      mload\n      swap1\n      0x20\n      add\n      swap1\n      dup1\n      dup4\n      dup4\n        /* \"--CODEGEN--\":23:24   */\n      0x00\n        /* \"--CODEGEN--\":8:108   */\n    tag_300:\n        /* \"--CODEGEN--\":33:36   */\n      dup4\n        /* \"--CODEGEN--\":30:31   */\n      dup2\n        /* \"--CODEGEN--\":27:37   */\n      lt\n        /* \"--CODEGEN--\":8:108   */\n      iszero\n      tag_302\n      jumpi\n        /* \"--CODEGEN--\":99:100   */\n      dup1\n        /* \"--CODEGEN--\":94:97   */\n      dup3\n        /* \"--CODEGEN--\":90:101   */\n      add\n        /* \"--CODEGEN--\":84:102   */\n      mload\n        /* \"--CODEGEN--\":80:81   */\n      dup2\n        /* \"--CODEGEN--\":75:78   */\n      dup5\n        /* \"--CODEGEN--\":71:82   */\n      add\n        /* \"--CODEGEN--\":64:103   */\n      mstore\n        /* \"--CODEGEN--\":52:54   */\n      0x20\n        /* \"--CODEGEN--\":49:50   */\n      dup2\n        /* \"--CODEGEN--\":45:55   */\n      add\n        /* \"--CODEGEN--\":40:55   */\n      swap1\n      pop\n        /* \"--CODEGEN--\":8:108   */\n      jump(tag_300)\n    tag_302:\n        /* \"--CODEGEN--\":12:26   */\n      pop\n        /* \"SafeMath.sol\":1949:1978  require(b <= a, errorMessage) */\n      pop\n      pop\n      pop\n      swap1\n      pop\n      swap1\n      dup2\n      add\n      swap1\n      0x1f\n      and\n      dup1\n      iszero\n      tag_303\n      jumpi\n      dup1\n      dup3\n      sub\n      dup1\n      mload\n      0x01\n      dup4\n      0x20\n      sub\n      0x0100\n      exp\n      sub\n      not\n      and\n      dup2\n      mstore\n      0x20\n      add\n      swap2\n      pop\n    tag_303:\n      pop\n      swap3\n      pop\n      pop\n      pop\n      mload(0x40)\n      dup1\n      swap2\n      sub\n      swap1\n      revert\n    tag_299:\n      pop\n        /* \"SafeMath.sol\":1988:1997  uint256 c */\n      0x00\n        /* \"SafeMath.sol\":2004:2005  b */\n      dup4\n        /* \"SafeMath.sol\":2000:2001  a */\n      dup6\n        /* \"SafeMath.sol\":2000:2005  a - b */\n      sub\n        /* \"SafeMath.sol\":1988:2005  uint256 c = a - b */\n      swap1\n      pop\n        /* \"SafeMath.sol\":2023:2024  c */\n      dup1\n        /* \"SafeMath.sol\":2016:2024  return c */\n      swap2\n      pop\n      pop\n        /* \"SafeMath.sol\":1844:2031  function sub(uint256 a, uint256 b, string memory errorMessage) internal pure returns (uint256) {... */\n      swap4\n      swap3\n      pop\n      pop\n      pop\n      jump\t// out\n        /* \"SafeMath.sol\":3936:4274  function div(uint256 a, uint256 b, string memory errorMessage) internal pure returns (uint256) {... */\n    tag_291:\n        /* \"SafeMath.sol\":4022:4029  uint256 */\n      0x00\n        /* \"SafeMath.sol\":4119:4120  0 */\n      dup1\n        /* \"SafeMath.sol\":4115:4116  b */\n      dup4\n        /* \"SafeMath.sol\":4115:4120  b > 0 */\n      gt\n        /* \"SafeMath.sol\":4122:4134  errorMessage */\n      dup3\n        /* \"SafeMath.sol\":4107:4135  require(b > 0, errorMessage) */\n      swap1\n      tag_305\n      jumpi\n      mload(0x40)\n      0x08c379a000000000000000000000000000000000000000000000000000000000\n      dup2\n      mstore\n      0x04\n      add\n      dup1\n      dup1\n      0x20\n      add\n      dup3\n      dup2\n      sub\n      dup3\n      mstore\n      dup4\n      dup2\n      dup2\n      mload\n      dup2\n      mstore\n      0x20\n      add\n      swap2\n      pop\n      dup1\n      mload\n      swap1\n      0x20\n      add\n      swap1\n      dup1\n      dup4\n      dup4\n        /* \"--CODEGEN--\":23:24   */\n      0x00\n        /* \"--CODEGEN--\":8:108   */\n    tag_306:\n        /* \"--CODEGEN--\":33:36   */\n      dup4\n        /* \"--CODEGEN--\":30:31   */\n      dup2\n        /* \"--CODEGEN--\":27:37   */\n      lt\n        /* \"--CODEGEN--\":8:108   */\n      iszero\n      tag_308\n      jumpi\n        /* \"--CODEGEN--\":99:100   */\n      dup1\n        /* \"--CODEGEN--\":94:97   */\n      dup3\n        /* \"--CODEGEN--\":90:101   */\n      add\n        /* \"--CODEGEN--\":84:102   */\n      mload\n        /* \"--CODEGEN--\":80:81   */\n      dup2\n        /* \"--CODEGEN--\":75:78   */\n      dup5\n        /* \"--CODEGEN--\":71:82   */\n      add\n        /* \"--CODEGEN--\":64:103   */\n      mstore\n        /* \"--CODEGEN--\":52:54   */\n      0x20\n        /* \"--CODEGEN--\":49:50   */\n      dup2\n        /* \"--CODEGEN--\":45:55   */\n      add\n        /* \"--CODEGEN--\":40:55   */\n      swap1\n      pop\n        /* \"--CODEGEN--\":8:108   */\n      jump(tag_306)\n    tag_308:\n        /* \"--CODEGEN--\":12:26   */\n      pop\n        /* \"SafeMath.sol\":4107:4135  require(b > 0, errorMessage) */\n      pop\n      pop\n      pop\n      swap1\n      pop\n      swap1\n      dup2\n      add\n      swap1\n      0x1f\n      and\n      dup1\n      iszero\n      tag_309\n      jumpi\n      dup1\n      dup3\n      sub\n      dup1\n      mload\n      0x01\n      dup4\n      0x20\n      sub\n      0x0100\n      exp\n      sub\n      not\n      and\n      dup2\n      mstore\n      0x20\n      add\n      swap2\n      pop\n    tag_309:\n      pop\n      swap3\n      pop\n      pop\n      pop\n      mload(0x40)\n      dup1\n      swap2\n      sub\n      swap1\n      revert\n    tag_305:\n      pop\n        /* \"SafeMath.sol\":4145:4154  uint256 c */\n      0x00\n        /* \"SafeMath.sol\":4161:4162  b */\n      dup4\n        /* \"SafeMath.sol\":4157:4158  a */\n      dup6\n        /* \"SafeMath.sol\":4157:4162  a / b */\n      dup2\n      tag_310\n      jumpi\n      invalid\n    tag_310:\n      div\n        /* \"SafeMath.sol\":4145:4162  uint256 c = a / b */\n      swap1\n      pop\n        /* \"SafeMath.sol\":4266:4267  c */\n      dup1\n        /* \"SafeMath.sol\":4259:4267  return c */\n      swap2\n      pop\n      pop\n        /* \"SafeMath.sol\":3936:4274  function div(uint256 a, uint256 b, string memory errorMessage) internal pure returns (uint256) {... */\n      swap4\n      swap3\n      pop\n      pop\n      pop\n      jump\t// out\n    stop\n    data_03fd12cc1e83f0add881327c75791a0246e8ebc9eefe5c518ed172fe66fc682c 677261636520706572696f6420656c6170736564206f7220746f6f206561726c79\n    data_1ed4c5a626955f79ae434eb1205332592ca7c398b87a33918d99477c1feef678 656e6f7567682066756e64732073686f756c6420626520746865726520696e20534950\n    data_9113bb53c2876a3805b2c9242029423fc540a728243ce887ab24c82cf119fba3 536166654d6174683a206d756c7469706c69636174696f6e206f766572666c6f77\n    data_9c5671fbe7325ac18b46fc94e6063ecafd5a4a15681b363f5d37ce08ea0b8f61 6465706f7369742063616e6e6f74206265206c657373207468616e20636f6d6d69746d656e74\n\n    auxdata: 0xa265627a7a7231582078a337bcf203ca3baf63d4f84f99d2bd42329ac610b37044b40456cd9a90455764736f6c634300050c0032\n}\n","bytecode":{"linkReferences":{},"object":"60806040526228207060025534801561001757600080fd5b506040516136263803806136268339818101604052602081101561003a57600080fd5b8101908080519060200190929190505050336000806101000a81548173ffffffffffffffffffffffffffffffffffffffff021916908373ffffffffffffffffffffffffffffffffffffffff16021790555080600160006101000a81548173ffffffffffffffffffffffffffffffffffffffff021916908373ffffffffffffffffffffffffffffffffffffffff1602179055505061354a806100dc6000396000f3fe608060405234801561001057600080fd5b506004361061014d5760003560e01c80637f13c7a1116100c3578063ba50531a1161007c578063ba50531a14610684578063be999705146106de578063ef4ffe571461070c578063f29de4c314610783578063f926b17a146107ef578063fc0c546a146108825761014d565b80637f13c7a11461042057806381423a26146104825780638da5cb5b1461050857806394bb9064146105525780639b3017c1146105be578063a4003ad4146106365761014d565b80632393768d116101155780632393768d1461026e57806326d9767b1461028c578063295226c5146102da5780632e9721b61461034457806353c0fb47146103ca578063557ed1ba146104025761014d565b806307f71149146101525780630ce57b46146101aa5780631272d8d41461020457806313dcc45214610222578063155dd5ee14610240575b600080fd5b6101a86004803603606081101561016857600080fd5b81019080803573ffffffffffffffffffffffffffffffffffffffff16906020019092919080359060200190929190803590602001909291905050506108cc565b005b610202600480360360608110156101c057600080fd5b8101908080359060200190929190803573ffffffffffffffffffffffffffffffffffffffff169060200190929190803515159060200190929190505050610c88565b005b61020c610da7565b6040518082815260200191505060405180910390f35b61022a610dad565b6040518082815260200191505060405180910390f35b61026c6004803603602081101561025657600080fd5b8101908080359060200190929190505050610db3565b005b61027661103b565b6040518082815260200191505060405180910390f35b6102d8600480360360408110156102a257600080fd5b81019080803573ffffffffffffffffffffffffffffffffffffffff16906020019092919080359060200190929190505050611041565b005b610342600480360360e08110156102f057600080fd5b810190808035906020019092919080359060200190929190803590602001909291908035906020019092919080359060200190929190803590602001909291908035906020019092919050505061169f565b005b6103b06004803603606081101561035a57600080fd5b81019080803573ffffffffffffffffffffffffffffffffffffffff16906020019092919080359060200190929190803573ffffffffffffffffffffffffffffffffffffffff16906020019092919050505061183d565b604051808215151515815260200191505060405180910390f35b610400600480360360408110156103e057600080fd5b8101908080359060200190929190803590602001909291905050506118ee565b005b61040a611e7f565b6040518082815260200191505060405180910390f35b6104806004803603608081101561043657600080fd5b81019080803573ffffffffffffffffffffffffffffffffffffffff169060200190929190803590602001909291908035906020019092919080359060200190929190505050611e87565b005b6104ee6004803603606081101561049857600080fd5b81019080803573ffffffffffffffffffffffffffffffffffffffff16906020019092919080359060200190929190803573ffffffffffffffffffffffffffffffffffffffff16906020019092919050505061248a565b604051808215151515815260200191505060405180910390f35b61051061253b565b604051808273ffffffffffffffffffffffffffffffffffffffff1673ffffffffffffffffffffffffffffffffffffffff16815260200191505060405180910390f35b6105a86004803603606081101561056857600080fd5b81019080803573ffffffffffffffffffffffffffffffffffffffff1690602001909291908035906020019092919080359060200190929190505050612560565b6040518082815260200191505060405180910390f35b610620600480360360808110156105d457600080fd5b81019080803573ffffffffffffffffffffffffffffffffffffffff16906020019092919080359060200190929190803590602001909291908035151590602001909291905050506126dc565b6040518082815260200191505060405180910390f35b6106826004803603604081101561064c57600080fd5b81019080803573ffffffffffffffffffffffffffffffffffffffff16906020019092919080359060200190929190505050612a10565b005b6106dc6004803603606081101561069a57600080fd5b8101908080359060200190929190803573ffffffffffffffffffffffffffffffffffffffff169060200190929190803515159060200190929190505050612c07565b005b61070a600480360360208110156106f457600080fd5b8101908080359060200190929190505050612e8a565b005b6107386004803603602081101561072257600080fd5b8101908080359060200190929190505050613000565b60405180891515151581526020018881526020018781526020018681526020018581526020018481526020018381526020018281526020019850505050505050505060405180910390f35b6107d96004803603606081101561079957600080fd5b81019080803573ffffffffffffffffffffffffffffffffffffffff1690602001909291908035906020019092919080359060200190929190505050613062565b6040518082815260200191505060405180910390f35b61083b6004803603604081101561080557600080fd5b81019080803573ffffffffffffffffffffffffffffffffffffffff169060200190929190803590602001909291905050506130da565b604051808981526020018881526020018781526020018681526020018581526020018481526020018381526020018281526020019850505050505050505060405180910390f35b61088a61313c565b604051808273ffffffffffffffffffffffffffffffffffffffff1673ffffffffffffffffffffffffffffffffffffffff16815260200191505060405180910390f35b82826000600660008473ffffffffffffffffffffffffffffffffffffffff1673ffffffffffffffffffffffffffffffffffffffff168152602001908152602001600020828154811061091a57fe5b90600052602060002090600b020190508273ffffffffffffffffffffffffffffffffffffffff163373ffffffffffffffffffffffffffffffffffffffff1614610a1f578060090160003373ffffffffffffffffffffffffffffffffffffffff1673ffffffffffffffffffffffffffffffffffffffff16815260200190815260200160002060009054906101000a900460ff16610a1e576040517f08c379a000000000000000000000000000000000000000000000000000000000815260040180806020018281038252601a8152602001807f6e6f6d696e6174696f6e2073686f756c6420626520746865726500000000000081525060200191505060405180910390fd5b5b6000610a5c8787878a73ffffffffffffffffffffffffffffffffffffffff163373ffffffffffffffffffffffffffffffffffffffff1614156126dc565b90506000600660008973ffffffffffffffffffffffffffffffffffffffff1673ffffffffffffffffffffffffffffffffffffffff1681526020019081526020016000208781548110610aaa57fe5b90600052602060002090600b02019050600081600401549050868260040181905550610ae18360035461316290919063ffffffff16565b600381905550610afc8360045461316290919063ffffffff16565b600481905550600160009054906101000a900473ffffffffffffffffffffffffffffffffffffffff1673ffffffffffffffffffffffffffffffffffffffff1663a9059cbb33856040518363ffffffff1660e01b8152600401808373ffffffffffffffffffffffffffffffffffffffff1673ffffffffffffffffffffffffffffffffffffffff16815260200182815260200192505050602060405180830381600087803b158015610bab57600080fd5b505af1158015610bbf573d6000803e3d6000fd5b505050506040513d6020811015610bd557600080fd5b810190808051906020019092919050505050878973ffffffffffffffffffffffffffffffffffffffff167f8f4915db3c6bafb045a8ca029a06c4d1638daddb07e111ed35abf34f81b6a855600184018a8733604051808581526020018481526020018381526020018273ffffffffffffffffffffffffffffffffffffffff1673ffffffffffffffffffffffffffffffffffffffff16815260200194505050505060405180910390a3505050505050505050565b80600660003373ffffffffffffffffffffffffffffffffffffffff1673ffffffffffffffffffffffffffffffffffffffff1681526020019081526020016000208481548110610cd357fe5b90600052602060002090600b020160090160008473ffffffffffffffffffffffffffffffffffffffff1673ffffffffffffffffffffffffffffffffffffffff16815260200190815260200160002060006101000a81548160ff0219169083151502179055508173ffffffffffffffffffffffffffffffffffffffff16833373ffffffffffffffffffffffffffffffffffffffff167f90e4568f920d8bb093366a04150aa0d04957a471196f5e1cdfb0db3cb83cc5b084604051808215151515815260200191505060405180910390a4505050565b60025481565b60045481565b6000809054906101000a900473ffffffffffffffffffffffffffffffffffffffff1673ffffffffffffffffffffffffffffffffffffffff163373ffffffffffffffffffffffffffffffffffffffff1614610e75576040517f08c379a00000000000000000000000000000000000000000000000000000000081526004018080602001828103825260168152602001807f6f6e6c79206465706c6f7965722063616e2063616c6c0000000000000000000081525060200191505060405180910390fd5b80610e8d60035460045461316290919063ffffffff16565b1015610f01576040517f08c379a000000000000000000000000000000000000000000000000000000000815260040180806020018281038252601c8152602001807f63616e6e6f74207769746864726177206578636573732066756e64730000000081525060200191505060405180910390fd5b610f168160045461316290919063ffffffff16565b600481905550600160009054906101000a900473ffffffffffffffffffffffffffffffffffffffff1673ffffffffffffffffffffffffffffffffffffffff1663a9059cbb33836040518363ffffffff1660e01b8152600401808373ffffffffffffffffffffffffffffffffffffffff1673ffffffffffffffffffffffffffffffffffffffff16815260200182815260200192505050602060405180830381600087803b158015610fc557600080fd5b505af1158015610fd9573d6000803e3d6000fd5b505050506040513d6020811015610fef57600080fd5b8101908080519060200190929190505050507f4a37b25aab49761ecf63117fe82b98d750917451133cf797507bc9fb5b96044a816040518082815260200191505060405180910390a150565b60035481565b81816000600660008473ffffffffffffffffffffffffffffffffffffffff1673ffffffffffffffffffffffffffffffffffffffff168152602001908152602001600020828154811061108f57fe5b90600052602060002090600b020190508273ffffffffffffffffffffffffffffffffffffffff163373ffffffffffffffffffffffffffffffffffffffff1614611194578060090160003373ffffffffffffffffffffffffffffffffffffffff1673ffffffffffffffffffffffffffffffffffffffff16815260200190815260200160002060009054906101000a900460ff16611193576040517f08c379a000000000000000000000000000000000000000000000000000000000815260040180806020018281038252601a8152602001807f6e6f6d696e6174696f6e2073686f756c6420626520746865726500000000000081525060200191505060405180910390fd5b5b6000600660008773ffffffffffffffffffffffffffffffffffffffff1673ffffffffffffffffffffffffffffffffffffffff16815260200190815260200160002085815481106111e057fe5b90600052602060002090600b02019050600381600501541061126a576040517f08c379a00000000000000000000000000000000000000000000000000000000081526004018080602001828103825260158152602001807f6f6e6c79203320706f77657220626f6f7374657273000000000000000000000081525060200191505060405180910390fd5b6000600182600501540190506000600254600383600254600c600588600001548154811061129457fe5b906000526020600020906008020160030154020202816112b057fe5b0460025460058660000154815481106112c557fe5b90600052602060002090600802016002015402856001015401010390508773ffffffffffffffffffffffffffffffffffffffff163373ffffffffffffffffffffffffffffffffffffffff16146113535761132d600284600601546131ac90919063ffffffff16565b836007015411156113475760066002540281019050611352565b600c60025402810190505b5b8042116113c8576040517f08c379a00000000000000000000000000000000000000000000000000000000081526004018080602001828103825260158152602001807f63616e6e6f74207769746864726177206561726c79000000000000000000000081525060200191505060405180910390fd5b81836005018190555060006113eb600385600301546131ac90919063ffffffff16565b9050600183141561152457600080600190505b600586600001548154811061140f57fe5b90600052602060002090600802016002015481116114c557600086600801600083815260200190815260200160002054141561147157600586600001548154811061145657fe5b906000526020600020906008020160070154820191506114b8565b60018660080160008381526020019081526020016000205414156114b75760058660000154815481106114a057fe5b906000526020600020906008020160060154820191505b5b80806001019150506113fe565b5060006114ef6103e86114e184866131f690919063ffffffff16565b6131ac90919063ffffffff16565b90506115068160045461327c90919063ffffffff16565b60048190555061151f818461316290919063ffffffff16565b925050505b600160009054906101000a900473ffffffffffffffffffffffffffffffffffffffff1673ffffffffffffffffffffffffffffffffffffffff1663a9059cbb33836040518363ffffffff1660e01b8152600401808373ffffffffffffffffffffffffffffffffffffffff1673ffffffffffffffffffffffffffffffffffffffff16815260200182815260200192505050602060405180830381600087803b1580156115cd57600080fd5b505af11580156115e1573d6000803e3d6000fd5b505050506040513d60208110156115f757600080fd5b810190808051906020019092919050505050878973ffffffffffffffffffffffffffffffffffffffff167fa1c568ef1602bc58c1e32ea2f1251b87874dce947f5d4f4df53677d06d5bf56d858433604051808481526020018381526020018273ffffffffffffffffffffffffffffffffffffffff1673ffffffffffffffffffffffffffffffffffffffff168152602001935050505060405180910390a3505050505050505050565b6000809054906101000a900473ffffffffffffffffffffffffffffffffffffffff1673ffffffffffffffffffffffffffffffffffffffff163373ffffffffffffffffffffffffffffffffffffffff1614611761576040517f08c379a00000000000000000000000000000000000000000000000000000000081526004018080602001828103825260168152602001807f6f6e6c79206465706c6f7965722063616e2063616c6c0000000000000000000081525060200191505060405180910390fd5b6005604051806101000160405280600115158152602001898152602001888152602001878152602001868152602001858152602001848152602001838152509080600181540180825580915050906001820390600052602060002090600802016000909192909190915060008201518160000160006101000a81548160ff0219169083151502179055506020820151816001015560408201518160020155606082015181600301556080820151816004015560a0820151816005015560c0820151816006015560e0820151816007015550505050505050505050565b6000600660008573ffffffffffffffffffffffffffffffffffffffff1673ffffffffffffffffffffffffffffffffffffffff168152602001908152602001600020838154811061188957fe5b90600052602060002090600b020160090160008373ffffffffffffffffffffffffffffffffffffffff1673ffffffffffffffffffffffffffffffffffffffff16815260200190815260200160002060009054906101000a900460ff1690509392505050565b600582815481106118fb57fe5b906000526020600020906008020160010154811015611982576040517f08c379a00000000000000000000000000000000000000000000000000000000081526004018080602001828103825260208152602001807f616d6f756e742073686f756c642062652061746c65617374206d696e696d756d81525060200191505060405180910390fd5b60006119f96005848154811061199457fe5b9060005260206000209060080201600301546119eb6103e86119dd600588815481106119bc57fe5b906000526020600020906008020160050154876131f690919063ffffffff16565b6131ac90919063ffffffff16565b6131f690919063ffffffff16565b9050806004541015611a56576040517f08c379a00000000000000000000000000000000000000000000000000000000081526004018080602001828103825260238152602001806134ac6023913960400191505060405180910390fd5b600160009054906101000a900473ffffffffffffffffffffffffffffffffffffffff1673ffffffffffffffffffffffffffffffffffffffff166323b872dd3330856040518463ffffffff1660e01b8152600401808473ffffffffffffffffffffffffffffffffffffffff1673ffffffffffffffffffffffffffffffffffffffff1681526020018373ffffffffffffffffffffffffffffffffffffffff1673ffffffffffffffffffffffffffffffffffffffff1681526020018281526020019350505050602060405180830381600087803b158015611b3357600080fd5b505af1158015611b47573d6000803e3d6000fd5b505050506040513d6020811015611b5d57600080fd5b8101908080519060200190929190505050611b7757600080fd5b600660003373ffffffffffffffffffffffffffffffffffffffff1673ffffffffffffffffffffffffffffffffffffffff16815260200190815260200160002060405180610100016040528085815260200142815260200184815260200184815260200160008152602001600081526020016000815260200160008152509080600181540180825580915050906001820390600052602060002090600b020160009091929091909150600082015181600001556020820151816001015560408201518160020155606082015181600301556080820151816004015560a0820151816005015560c0820151816006015560e0820151816007015550505060006001600660003373ffffffffffffffffffffffffffffffffffffffff1673ffffffffffffffffffffffffffffffffffffffff168152602001908152602001600020805490500390506002600660003373ffffffffffffffffffffffffffffffffffffffff1673ffffffffffffffffffffffffffffffffffffffff1681526020019081526020016000208281548110611d0857fe5b90600052602060002090600b020160080160006001815260200190815260200160002081905550611d448260035461327c90919063ffffffff16565b6003819055503373ffffffffffffffffffffffffffffffffffffffff167f1dec97fc36aa6dfa81b208ec37b3ac8dae30717f0622f9cfb2e7223dc95326ec6001600660003373ffffffffffffffffffffffffffffffffffffffff1673ffffffffffffffffffffffffffffffffffffffff168152602001908152602001600020805490500385604051808381526020018281526020019250505060405180910390a2803373ffffffffffffffffffffffffffffffffffffffff167fbaf4c88598102708c4215d5d3767268130627355850b7ece9bdfdc32fd2941f06001868633604051808581526020018481526020018381526020018273ffffffffffffffffffffffffffffffffffffffff1673ffffffffffffffffffffffffffffffffffffffff16815260200194505050505060405180910390a350505050565b600042905090565b83836000600660008473ffffffffffffffffffffffffffffffffffffffff1673ffffffffffffffffffffffffffffffffffffffff1681526020019081526020016000208281548110611ed557fe5b90600052602060002090600b020190508273ffffffffffffffffffffffffffffffffffffffff163373ffffffffffffffffffffffffffffffffffffffff1614611fda578060090160003373ffffffffffffffffffffffffffffffffffffffff1673ffffffffffffffffffffffffffffffffffffffff16815260200190815260200160002060009054906101000a900460ff16611fd9576040517f08c379a000000000000000000000000000000000000000000000000000000000815260040180806020018281038252601a8152602001807f6e6f6d696e6174696f6e2073686f756c6420626520746865726500000000000081525060200191505060405180910390fd5b5b6000600660008973ffffffffffffffffffffffffffffffffffffffff1673ffffffffffffffffffffffffffffffffffffffff168152602001908152602001600020878154811061202657fe5b90600052602060002090600b020190508060020154861015612093576040517f08c379a00000000000000000000000000000000000000000000000000000000081526004018080602001828103825260268152602001806134f06026913960400191505060405180910390fd5b6000816008016000878152602001908152602001600020541461211e576040517f08c379a00000000000000000000000000000000000000000000000000000000081526004018080602001828103825260148152602001807f63616e6e6f74206465706f73697420616761696e00000000000000000000000081525060200191505060405180910390fd5b600061219d600583600001548154811061213457fe5b90600052602060002090600802016003015461218f6103e8612181600587600001548154811061216057fe5b9060005260206000209060080201600501548c6131f690919063ffffffff16565b6131ac90919063ffffffff16565b6131f690919063ffffffff16565b90506121b46003548261327c90919063ffffffff16565b600454101561220e576040517f08c379a00000000000000000000000000000000000000000000000000000000081526004018080602001828103825260238152602001806134ac6023913960400191505060405180910390fd5b600160009054906101000a900473ffffffffffffffffffffffffffffffffffffffff1673ffffffffffffffffffffffffffffffffffffffff166323b872dd33308a6040518463ffffffff1660e01b8152600401808473ffffffffffffffffffffffffffffffffffffffff1673ffffffffffffffffffffffffffffffffffffffff1681526020018373ffffffffffffffffffffffffffffffffffffffff1673ffffffffffffffffffffffffffffffffffffffff1681526020018281526020019350505050602060405180830381600087803b1580156122eb57600080fd5b505af11580156122ff573d6000803e3d6000fd5b505050506040513d602081101561231557600080fd5b810190808051906020019092919050505061232f57600080fd5b600061233c8a8a89612560565b905060008111612397576040517f08c379a000000000000000000000000000000000000000000000000000000000815260040180806020018281038252602181526020018061348b6021913960400191505060405180910390fd5b80836008016000898152602001908152602001600020819055506123c888846003015461327c90919063ffffffff16565b83600301819055506123e58260035461327c90919063ffffffff16565b600381905550888a73ffffffffffffffffffffffffffffffffffffffff167fbaf4c88598102708c4215d5d3767268130627355850b7ece9bdfdc32fd2941f0898b8633604051808581526020018481526020018381526020018273ffffffffffffffffffffffffffffffffffffffff1673ffffffffffffffffffffffffffffffffffffffff16815260200194505050505060405180910390a350505050505050505050565b6000600660008573ffffffffffffffffffffffffffffffffffffffff1673ffffffffffffffffffffffffffffffffffffffff16815260200190815260200160002083815481106124d657fe5b90600052602060002090600b0201600a0160008373ffffffffffffffffffffffffffffffffffffffff1673ffffffffffffffffffffffffffffffffffffffff16815260200190815260200160002060009054906101000a900460ff1690509392505050565b6000809054906101000a900473ffffffffffffffffffffffffffffffffffffffff1681565b600080600660008673ffffffffffffffffffffffffffffffffffffffff1673ffffffffffffffffffffffffffffffffffffffff16815260200190815260200160002084815481106125ad57fe5b90600052602060002090600b02019050600183101580156125f0575060058160000154815481106125da57fe5b9060005260206000209060080201600201548311155b612662576040517f08c379a00000000000000000000000000000000000000000000000000000000081526004018080602001828103825260158152602001807f696e76616c6964206465706f736974206d6f6e7468000000000000000000000081525060200191505060405180910390fd5b600060018403600254028260010154019050428110158015612688575060025481034210155b15612698576002925050506126d5565b4260058360000154815481106126aa57fe5b9060005260206000209060080201600401548201106126ce576001925050506126d5565b6000925050505b9392505050565b600080600660008773ffffffffffffffffffffffffffffffffffffffff1673ffffffffffffffffffffffffffffffffffffffff168152602001908152602001600020858154811061272957fe5b90600052602060002090600b020190506000600185600584600001548154811061274f57fe5b906000526020600020906008020160020154010360025402826001015401905083156127b35761278d600283600601546131ac90919063ffffffff16565b826007015411156127a757600660025402810190506127b2565b600c60025402810190505b5b6000851180156127e85750600c60058360000154815481106127d157fe5b906000526020600020906008020160030154028511155b61285a576040517f08c379a00000000000000000000000000000000000000000000000000000000081526004018080602001828103825260168152602001807f696e76616c6964207769746864726177206d6f6e74680000000000000000000081525060200191505060405180910390fd5b816004015485116128d3576040517f08c379a00000000000000000000000000000000000000000000000000000000081526004018080602001828103825260158152602001807f63616e6e6f7420776974686472617720616761696e000000000000000000000081525060200191505060405180910390fd5b80421015612949576040517f08c379a00000000000000000000000000000000000000000000000000000000081526004018080602001828103825260158152602001807f63616e6e6f74207769746864726177206561726c79000000000000000000000081525060200191505060405180910390fd5b6000612984600584600001548154811061295f57fe5b90600052602060002090600802016002015484600301546131ac90919063ffffffff16565b905060006129d16103e86129c360058760000154815481106129a257fe5b906000526020600020906008020160050154856131f690919063ffffffff16565b6131ac90919063ffffffff16565b905060006129fe6129ef86600401548a61316290919063ffffffff16565b836131f690919063ffffffff16565b90508095505050505050949350505050565b6000600660008473ffffffffffffffffffffffffffffffffffffffff1673ffffffffffffffffffffffffffffffffffffffff1681526020019081526020016000208281548110612a5c57fe5b90600052602060002090600b0201905080600a0160003373ffffffffffffffffffffffffffffffffffffffff1673ffffffffffffffffffffffffffffffffffffffff16815260200190815260200160002060009054906101000a900460ff16612b2d576040517f08c379a00000000000000000000000000000000000000000000000000000000081526004018080602001828103825260208152602001807f73686f756c64206265206170706f696e74656520746f206361737420766f746581525060200191505060405180910390fd5b600081600a0160003373ffffffffffffffffffffffffffffffffffffffff1673ffffffffffffffffffffffffffffffffffffffff16815260200190815260200160002060006101000a81548160ff021916908315150217905550612b9f6001826007015461327c90919063ffffffff16565b81600701819055503373ffffffffffffffffffffffffffffffffffffffff16828473ffffffffffffffffffffffffffffffffffffffff167f57e90b4a498a7310fab91955c915f3f15a0d1a94b296f824da9443d524ea2e1b60405160405180910390a4505050565b6000600660003373ffffffffffffffffffffffffffffffffffffffff1673ffffffffffffffffffffffffffffffffffffffff1681526020019081526020016000208481548110612c5357fe5b90600052602060002090600b0201905080600a0160008473ffffffffffffffffffffffffffffffffffffffff1673ffffffffffffffffffffffffffffffffffffffff16815260200190815260200160002060009054906101000a900460ff16158015612cbc5750815b15612d4057612cd96001826006015461327c90919063ffffffff16565b816006018190555060018160090160008573ffffffffffffffffffffffffffffffffffffffff1673ffffffffffffffffffffffffffffffffffffffff16815260200190815260200160002060006101000a81548160ff021916908315150217905550612e1a565b80600a0160008473ffffffffffffffffffffffffffffffffffffffff1673ffffffffffffffffffffffffffffffffffffffff16815260200190815260200160002060009054906101000a900460ff168015612d99575081155b15612e195760008160090160008573ffffffffffffffffffffffffffffffffffffffff1673ffffffffffffffffffffffffffffffffffffffff16815260200190815260200160002060006101000a81548160ff021916908315150217905550612e106001826006015461316290919063ffffffff16565b81600601819055505b5b8273ffffffffffffffffffffffffffffffffffffffff16843373ffffffffffffffffffffffffffffffffffffffff167ff7a6207b27953eff117f9b7c03e363d41370a45e2b626d2aa32c6a0ac636578285604051808215151515815260200191505060405180910390a450505050565b600160009054906101000a900473ffffffffffffffffffffffffffffffffffffffff1673ffffffffffffffffffffffffffffffffffffffff166323b872dd3330846040518463ffffffff1660e01b8152600401808473ffffffffffffffffffffffffffffffffffffffff1673ffffffffffffffffffffffffffffffffffffffff1681526020018373ffffffffffffffffffffffffffffffffffffffff1673ffffffffffffffffffffffffffffffffffffffff1681526020018281526020019350505050602060405180830381600087803b158015612f6757600080fd5b505af1158015612f7b573d6000803e3d6000fd5b505050506040513d6020811015612f9157600080fd5b8101908080519060200190929190505050612fab57600080fd5b612fc08160045461327c90919063ffffffff16565b6004819055507f7cb5d45c1071f219bd2da1ea101758715bd52f23f2a707f2d9a0387dea18d906816040518082815260200191505060405180910390a150565b6005818154811061300d57fe5b90600052602060002090600802016000915090508060000160009054906101000a900460ff16908060010154908060020154908060030154908060040154908060050154908060060154908060070154905088565b6000600660008573ffffffffffffffffffffffffffffffffffffffff1673ffffffffffffffffffffffffffffffffffffffff16815260200190815260200160002083815481106130ae57fe5b90600052602060002090600b020160080160008381526020019081526020016000205490509392505050565b600660205281600052604060002081815481106130f357fe5b90600052602060002090600b0201600091509150508060000154908060010154908060020154908060030154908060040154908060050154908060060154908060070154905088565b600160009054906101000a900473ffffffffffffffffffffffffffffffffffffffff1681565b60006131a483836040518060400160405280601e81526020017f536166654d6174683a207375627472616374696f6e206f766572666c6f770000815250613304565b905092915050565b60006131ee83836040518060400160405280601a81526020017f536166654d6174683a206469766973696f6e206279207a65726f0000000000008152506133c4565b905092915050565b6000808314156132095760009050613276565b600082840290508284828161321a57fe5b0414613271576040517f08c379a00000000000000000000000000000000000000000000000000000000081526004018080602001828103825260218152602001806134cf6021913960400191505060405180910390fd5b809150505b92915050565b6000808284019050838110156132fa576040517f08c379a000000000000000000000000000000000000000000000000000000000815260040180806020018281038252601b8152602001807f536166654d6174683a206164646974696f6e206f766572666c6f77000000000081525060200191505060405180910390fd5b8091505092915050565b60008383111582906133b1576040517f08c379a00000000000000000000000000000000000000000000000000000000081526004018080602001828103825283818151815260200191508051906020019080838360005b8381101561337657808201518184015260208101905061335b565b50505050905090810190601f1680156133a35780820380516001836020036101000a031916815260200191505b509250505060405180910390fd5b5060008385039050809150509392505050565b60008083118290613470576040517f08c379a00000000000000000000000000000000000000000000000000000000081526004018080602001828103825283818151815260200191508051906020019080838360005b8381101561343557808201518184015260208101905061341a565b50505050905090810190601f1680156134625780820380516001836020036101000a031916815260200191505b509250505060405180910390fd5b50600083858161347c57fe5b04905080915050939250505056fe677261636520706572696f6420656c6170736564206f7220746f6f206561726c79656e6f7567682066756e64732073686f756c6420626520746865726520696e20534950536166654d6174683a206d756c7469706c69636174696f6e206f766572666c6f776465706f7369742063616e6e6f74206265206c657373207468616e20636f6d6d69746d656e74a265627a7a7231582078a337bcf203ca3baf63d4f84f99d2bd42329ac610b37044b40456cd9a90455764736f6c634300050c0032","opcodes":"PUSH1 0x80 PUSH1 0x40 MSTORE PUSH3 0x282070 PUSH1 0x2 SSTORE CALLVALUE DUP1 ISZERO PUSH2 0x17 JUMPI PUSH1 0x0 DUP1 REVERT JUMPDEST POP PUSH1 0x40 MLOAD PUSH2 0x3626 CODESIZE SUB DUP1 PUSH2 0x3626 DUP4 CODECOPY DUP2 DUP2 ADD PUSH1 0x40 MSTORE PUSH1 0x20 DUP2 LT ISZERO PUSH2 0x3A JUMPI PUSH1 0x0 DUP1 REVERT JUMPDEST DUP2 ADD SWAP1 DUP1 DUP1 MLOAD SWAP1 PUSH1 0x20 ADD SWAP1 SWAP3 SWAP2 SWAP1 POP POP POP CALLER PUSH1 0x0 DUP1 PUSH2 0x100 EXP DUP2 SLOAD DUP2 PUSH20 0xFFFFFFFFFFFFFFFFFFFFFFFFFFFFFFFFFFFFFFFF MUL NOT AND SWAP1 DUP4 PUSH20 0xFFFFFFFFFFFFFFFFFFFFFFFFFFFFFFFFFFFFFFFF AND MUL OR SWAP1 SSTORE POP DUP1 PUSH1 0x1 PUSH1 0x0 PUSH2 0x100 EXP DUP2 SLOAD DUP2 PUSH20 0xFFFFFFFFFFFFFFFFFFFFFFFFFFFFFFFFFFFFFFFF MUL NOT AND SWAP1 DUP4 PUSH20 0xFFFFFFFFFFFFFFFFFFFFFFFFFFFFFFFFFFFFFFFF AND MUL OR SWAP1 SSTORE POP POP PUSH2 0x354A DUP1 PUSH2 0xDC PUSH1 0x0 CODECOPY PUSH1 0x0 RETURN INVALID PUSH1 0x80 PUSH1 0x40 MSTORE CALLVALUE DUP1 ISZERO PUSH2 0x10 JUMPI PUSH1 0x0 DUP1 REVERT JUMPDEST POP PUSH1 0x4 CALLDATASIZE LT PUSH2 0x14D JUMPI PUSH1 0x0 CALLDATALOAD PUSH1 0xE0 SHR DUP1 PUSH4 0x7F13C7A1 GT PUSH2 0xC3 JUMPI DUP1 PUSH4 0xBA50531A GT PUSH2 0x7C JUMPI DUP1 PUSH4 0xBA50531A EQ PUSH2 0x684 JUMPI DUP1 PUSH4 0xBE999705 EQ PUSH2 0x6DE JUMPI DUP1 PUSH4 0xEF4FFE57 EQ PUSH2 0x70C JUMPI DUP1 PUSH4 0xF29DE4C3 EQ PUSH2 0x783 JUMPI DUP1 PUSH4 0xF926B17A EQ PUSH2 0x7EF JUMPI DUP1 PUSH4 0xFC0C546A EQ PUSH2 0x882 JUMPI PUSH2 0x14D JUMP JUMPDEST DUP1 PUSH4 0x7F13C7A1 EQ PUSH2 0x420 JUMPI DUP1 PUSH4 0x81423A26 EQ PUSH2 0x482 JUMPI DUP1 PUSH4 0x8DA5CB5B EQ PUSH2 0x508 JUMPI DUP1 PUSH4 0x94BB9064 EQ PUSH2 0x552 JUMPI DUP1 PUSH4 0x9B3017C1 EQ PUSH2 0x5BE JUMPI DUP1 PUSH4 0xA4003AD4 EQ PUSH2 0x636 JUMPI PUSH2 0x14D JUMP JUMPDEST DUP1 PUSH4 0x2393768D GT PUSH2 0x115 JUMPI DUP1 PUSH4 0x2393768D EQ PUSH2 0x26E JUMPI DUP1 PUSH4 0x26D9767B EQ PUSH2 0x28C JUMPI DUP1 PUSH4 0x295226C5 EQ PUSH2 0x2DA JUMPI DUP1 PUSH4 0x2E9721B6 EQ PUSH2 0x344 JUMPI DUP1 PUSH4 0x53C0FB47 EQ PUSH2 0x3CA JUMPI DUP1 PUSH4 0x557ED1BA EQ PUSH2 0x402 JUMPI PUSH2 0x14D JUMP JUMPDEST DUP1 PUSH4 0x7F71149 EQ PUSH2 0x152 JUMPI DUP1 PUSH4 0xCE57B46 EQ PUSH2 0x1AA JUMPI DUP1 PUSH4 0x1272D8D4 EQ PUSH2 0x204 JUMPI DUP1 PUSH4 0x13DCC452 EQ PUSH2 0x222 JUMPI DUP1 PUSH4 0x155DD5EE EQ PUSH2 0x240 JUMPI JUMPDEST PUSH1 0x0 DUP1 REVERT JUMPDEST PUSH2 0x1A8 PUSH1 0x4 DUP1 CALLDATASIZE SUB PUSH1 0x60 DUP2 LT ISZERO PUSH2 0x168 JUMPI PUSH1 0x0 DUP1 REVERT JUMPDEST DUP2 ADD SWAP1 DUP1 DUP1 CALLDATALOAD PUSH20 0xFFFFFFFFFFFFFFFFFFFFFFFFFFFFFFFFFFFFFFFF AND SWAP1 PUSH1 0x20 ADD SWAP1 SWAP3 SWAP2 SWAP1 DUP1 CALLDATALOAD SWAP1 PUSH1 0x20 ADD SWAP1 SWAP3 SWAP2 SWAP1 DUP1 CALLDATALOAD SWAP1 PUSH1 0x20 ADD SWAP1 SWAP3 SWAP2 SWAP1 POP POP POP PUSH2 0x8CC JUMP JUMPDEST STOP JUMPDEST PUSH2 0x202 PUSH1 0x4 DUP1 CALLDATASIZE SUB PUSH1 0x60 DUP2 LT ISZERO PUSH2 0x1C0 JUMPI PUSH1 0x0 DUP1 REVERT JUMPDEST DUP2 ADD SWAP1 DUP1 DUP1 CALLDATALOAD SWAP1 PUSH1 0x20 ADD SWAP1 SWAP3 SWAP2 SWAP1 DUP1 CALLDATALOAD PUSH20 0xFFFFFFFFFFFFFFFFFFFFFFFFFFFFFFFFFFFFFFFF AND SWAP1 PUSH1 0x20 ADD SWAP1 SWAP3 SWAP2 SWAP1 DUP1 CALLDATALOAD ISZERO ISZERO SWAP1 PUSH1 0x20 ADD SWAP1 SWAP3 SWAP2 SWAP1 POP POP POP PUSH2 0xC88 JUMP JUMPDEST STOP JUMPDEST PUSH2 0x20C PUSH2 0xDA7 JUMP JUMPDEST PUSH1 0x40 MLOAD DUP1 DUP3 DUP2 MSTORE PUSH1 0x20 ADD SWAP2 POP POP PUSH1 0x40 MLOAD DUP1 SWAP2 SUB SWAP1 RETURN JUMPDEST PUSH2 0x22A PUSH2 0xDAD JUMP JUMPDEST PUSH1 0x40 MLOAD DUP1 DUP3 DUP2 MSTORE PUSH1 0x20 ADD SWAP2 POP POP PUSH1 0x40 MLOAD DUP1 SWAP2 SUB SWAP1 RETURN JUMPDEST PUSH2 0x26C PUSH1 0x4 DUP1 CALLDATASIZE SUB PUSH1 0x20 DUP2 LT ISZERO PUSH2 0x256 JUMPI PUSH1 0x0 DUP1 REVERT JUMPDEST DUP2 ADD SWAP1 DUP1 DUP1 CALLDATALOAD SWAP1 PUSH1 0x20 ADD SWAP1 SWAP3 SWAP2 SWAP1 POP POP POP PUSH2 0xDB3 JUMP JUMPDEST STOP JUMPDEST PUSH2 0x276 PUSH2 0x103B JUMP JUMPDEST PUSH1 0x40 MLOAD DUP1 DUP3 DUP2 MSTORE PUSH1 0x20 ADD SWAP2 POP POP PUSH1 0x40 MLOAD DUP1 SWAP2 SUB SWAP1 RETURN JUMPDEST PUSH2 0x2D8 PUSH1 0x4 DUP1 CALLDATASIZE SUB PUSH1 0x40 DUP2 LT ISZERO PUSH2 0x2A2 JUMPI PUSH1 0x0 DUP1 REVERT JUMPDEST DUP2 ADD SWAP1 DUP1 DUP1 CALLDATALOAD PUSH20 0xFFFFFFFFFFFFFFFFFFFFFFFFFFFFFFFFFFFFFFFF AND SWAP1 PUSH1 0x20 ADD SWAP1 SWAP3 SWAP2 SWAP1 DUP1 CALLDATALOAD SWAP1 PUSH1 0x20 ADD SWAP1 SWAP3 SWAP2 SWAP1 POP POP POP PUSH2 0x1041 JUMP JUMPDEST STOP JUMPDEST PUSH2 0x342 PUSH1 0x4 DUP1 CALLDATASIZE SUB PUSH1 0xE0 DUP2 LT ISZERO PUSH2 0x2F0 JUMPI PUSH1 0x0 DUP1 REVERT JUMPDEST DUP2 ADD SWAP1 DUP1 DUP1 CALLDATALOAD SWAP1 PUSH1 0x20 ADD SWAP1 SWAP3 SWAP2 SWAP1 DUP1 CALLDATALOAD SWAP1 PUSH1 0x20 ADD SWAP1 SWAP3 SWAP2 SWAP1 DUP1 CALLDATALOAD SWAP1 PUSH1 0x20 ADD SWAP1 SWAP3 SWAP2 SWAP1 DUP1 CALLDATALOAD SWAP1 PUSH1 0x20 ADD SWAP1 SWAP3 SWAP2 SWAP1 DUP1 CALLDATALOAD SWAP1 PUSH1 0x20 ADD SWAP1 SWAP3 SWAP2 SWAP1 DUP1 CALLDATALOAD SWAP1 PUSH1 0x20 ADD SWAP1 SWAP3 SWAP2 SWAP1 DUP1 CALLDATALOAD SWAP1 PUSH1 0x20 ADD SWAP1 SWAP3 SWAP2 SWAP1 POP POP POP PUSH2 0x169F JUMP JUMPDEST STOP JUMPDEST PUSH2 0x3B0 PUSH1 0x4 DUP1 CALLDATASIZE SUB PUSH1 0x60 DUP2 LT ISZERO PUSH2 0x35A JUMPI PUSH1 0x0 DUP1 REVERT JUMPDEST DUP2 ADD SWAP1 DUP1 DUP1 CALLDATALOAD PUSH20 0xFFFFFFFFFFFFFFFFFFFFFFFFFFFFFFFFFFFFFFFF AND SWAP1 PUSH1 0x20 ADD SWAP1 SWAP3 SWAP2 SWAP1 DUP1 CALLDATALOAD SWAP1 PUSH1 0x20 ADD SWAP1 SWAP3 SWAP2 SWAP1 DUP1 CALLDATALOAD PUSH20 0xFFFFFFFFFFFFFFFFFFFFFFFFFFFFFFFFFFFFFFFF AND SWAP1 PUSH1 0x20 ADD SWAP1 SWAP3 SWAP2 SWAP1 POP POP POP PUSH2 0x183D JUMP JUMPDEST PUSH1 0x40 MLOAD DUP1 DUP3 ISZERO ISZERO ISZERO ISZERO DUP2 MSTORE PUSH1 0x20 ADD SWAP2 POP POP PUSH1 0x40 MLOAD DUP1 SWAP2 SUB SWAP1 RETURN JUMPDEST PUSH2 0x400 PUSH1 0x4 DUP1 CALLDATASIZE SUB PUSH1 0x40 DUP2 LT ISZERO PUSH2 0x3E0 JUMPI PUSH1 0x0 DUP1 REVERT JUMPDEST DUP2 ADD SWAP1 DUP1 DUP1 CALLDATALOAD SWAP1 PUSH1 0x20 ADD SWAP1 SWAP3 SWAP2 SWAP1 DUP1 CALLDATALOAD SWAP1 PUSH1 0x20 ADD SWAP1 SWAP3 SWAP2 SWAP1 POP POP POP PUSH2 0x18EE JUMP JUMPDEST STOP JUMPDEST PUSH2 0x40A PUSH2 0x1E7F JUMP JUMPDEST PUSH1 0x40 MLOAD DUP1 DUP3 DUP2 MSTORE PUSH1 0x20 ADD SWAP2 POP POP PUSH1 0x40 MLOAD DUP1 SWAP2 SUB SWAP1 RETURN JUMPDEST PUSH2 0x480 PUSH1 0x4 DUP1 CALLDATASIZE SUB PUSH1 0x80 DUP2 LT ISZERO PUSH2 0x436 JUMPI PUSH1 0x0 DUP1 REVERT JUMPDEST DUP2 ADD SWAP1 DUP1 DUP1 CALLDATALOAD PUSH20 0xFFFFFFFFFFFFFFFFFFFFFFFFFFFFFFFFFFFFFFFF AND SWAP1 PUSH1 0x20 ADD SWAP1 SWAP3 SWAP2 SWAP1 DUP1 CALLDATALOAD SWAP1 PUSH1 0x20 ADD SWAP1 SWAP3 SWAP2 SWAP1 DUP1 CALLDATALOAD SWAP1 PUSH1 0x20 ADD SWAP1 SWAP3 SWAP2 SWAP1 DUP1 CALLDATALOAD SWAP1 PUSH1 0x20 ADD SWAP1 SWAP3 SWAP2 SWAP1 POP POP POP PUSH2 0x1E87 JUMP JUMPDEST STOP JUMPDEST PUSH2 0x4EE PUSH1 0x4 DUP1 CALLDATASIZE SUB PUSH1 0x60 DUP2 LT ISZERO PUSH2 0x498 JUMPI PUSH1 0x0 DUP1 REVERT JUMPDEST DUP2 ADD SWAP1 DUP1 DUP1 CALLDATALOAD PUSH20 0xFFFFFFFFFFFFFFFFFFFFFFFFFFFFFFFFFFFFFFFF AND SWAP1 PUSH1 0x20 ADD SWAP1 SWAP3 SWAP2 SWAP1 DUP1 CALLDATALOAD SWAP1 PUSH1 0x20 ADD SWAP1 SWAP3 SWAP2 SWAP1 DUP1 CALLDATALOAD PUSH20 0xFFFFFFFFFFFFFFFFFFFFFFFFFFFFFFFFFFFFFFFF AND SWAP1 PUSH1 0x20 ADD SWAP1 SWAP3 SWAP2 SWAP1 POP POP POP PUSH2 0x248A JUMP JUMPDEST PUSH1 0x40 MLOAD DUP1 DUP3 ISZERO ISZERO ISZERO ISZERO DUP2 MSTORE PUSH1 0x20 ADD SWAP2 POP POP PUSH1 0x40 MLOAD DUP1 SWAP2 SUB SWAP1 RETURN JUMPDEST PUSH2 0x510 PUSH2 0x253B JUMP JUMPDEST PUSH1 0x40 MLOAD DUP1 DUP3 PUSH20 0xFFFFFFFFFFFFFFFFFFFFFFFFFFFFFFFFFFFFFFFF AND PUSH20 0xFFFFFFFFFFFFFFFFFFFFFFFFFFFFFFFFFFFFFFFF AND DUP2 MSTORE PUSH1 0x20 ADD SWAP2 POP POP PUSH1 0x40 MLOAD DUP1 SWAP2 SUB SWAP1 RETURN JUMPDEST PUSH2 0x5A8 PUSH1 0x4 DUP1 CALLDATASIZE SUB PUSH1 0x60 DUP2 LT ISZERO PUSH2 0x568 JUMPI PUSH1 0x0 DUP1 REVERT JUMPDEST DUP2 ADD SWAP1 DUP1 DUP1 CALLDATALOAD PUSH20 0xFFFFFFFFFFFFFFFFFFFFFFFFFFFFFFFFFFFFFFFF AND SWAP1 PUSH1 0x20 ADD SWAP1 SWAP3 SWAP2 SWAP1 DUP1 CALLDATALOAD SWAP1 PUSH1 0x20 ADD SWAP1 SWAP3 SWAP2 SWAP1 DUP1 CALLDATALOAD SWAP1 PUSH1 0x20 ADD SWAP1 SWAP3 SWAP2 SWAP1 POP POP POP PUSH2 0x2560 JUMP JUMPDEST PUSH1 0x40 MLOAD DUP1 DUP3 DUP2 MSTORE PUSH1 0x20 ADD SWAP2 POP POP PUSH1 0x40 MLOAD DUP1 SWAP2 SUB SWAP1 RETURN JUMPDEST PUSH2 0x620 PUSH1 0x4 DUP1 CALLDATASIZE SUB PUSH1 0x80 DUP2 LT ISZERO PUSH2 0x5D4 JUMPI PUSH1 0x0 DUP1 REVERT JUMPDEST DUP2 ADD SWAP1 DUP1 DUP1 CALLDATALOAD PUSH20 0xFFFFFFFFFFFFFFFFFFFFFFFFFFFFFFFFFFFFFFFF AND SWAP1 PUSH1 0x20 ADD SWAP1 SWAP3 SWAP2 SWAP1 DUP1 CALLDATALOAD SWAP1 PUSH1 0x20 ADD SWAP1 SWAP3 SWAP2 SWAP1 DUP1 CALLDATALOAD SWAP1 PUSH1 0x20 ADD SWAP1 SWAP3 SWAP2 SWAP1 DUP1 CALLDATALOAD ISZERO ISZERO SWAP1 PUSH1 0x20 ADD SWAP1 SWAP3 SWAP2 SWAP1 POP POP POP PUSH2 0x26DC JUMP JUMPDEST PUSH1 0x40 MLOAD DUP1 DUP3 DUP2 MSTORE PUSH1 0x20 ADD SWAP2 POP POP PUSH1 0x40 MLOAD DUP1 SWAP2 SUB SWAP1 RETURN JUMPDEST PUSH2 0x682 PUSH1 0x4 DUP1 CALLDATASIZE SUB PUSH1 0x40 DUP2 LT ISZERO PUSH2 0x64C JUMPI PUSH1 0x0 DUP1 REVERT JUMPDEST DUP2 ADD SWAP1 DUP1 DUP1 CALLDATALOAD PUSH20 0xFFFFFFFFFFFFFFFFFFFFFFFFFFFFFFFFFFFFFFFF AND SWAP1 PUSH1 0x20 ADD SWAP1 SWAP3 SWAP2 SWAP1 DUP1 CALLDATALOAD SWAP1 PUSH1 0x20 ADD SWAP1 SWAP3 SWAP2 SWAP1 POP POP POP PUSH2 0x2A10 JUMP JUMPDEST STOP JUMPDEST PUSH2 0x6DC PUSH1 0x4 DUP1 CALLDATASIZE SUB PUSH1 0x60 DUP2 LT ISZERO PUSH2 0x69A JUMPI PUSH1 0x0 DUP1 REVERT JUMPDEST DUP2 ADD SWAP1 DUP1 DUP1 CALLDATALOAD SWAP1 PUSH1 0x20 ADD SWAP1 SWAP3 SWAP2 SWAP1 DUP1 CALLDATALOAD PUSH20 0xFFFFFFFFFFFFFFFFFFFFFFFFFFFFFFFFFFFFFFFF AND SWAP1 PUSH1 0x20 ADD SWAP1 SWAP3 SWAP2 SWAP1 DUP1 CALLDATALOAD ISZERO ISZERO SWAP1 PUSH1 0x20 ADD SWAP1 SWAP3 SWAP2 SWAP1 POP POP POP PUSH2 0x2C07 JUMP JUMPDEST STOP JUMPDEST PUSH2 0x70A PUSH1 0x4 DUP1 CALLDATASIZE SUB PUSH1 0x20 DUP2 LT ISZERO PUSH2 0x6F4 JUMPI PUSH1 0x0 DUP1 REVERT JUMPDEST DUP2 ADD SWAP1 DUP1 DUP1 CALLDATALOAD SWAP1 PUSH1 0x20 ADD SWAP1 SWAP3 SWAP2 SWAP1 POP POP POP PUSH2 0x2E8A JUMP JUMPDEST STOP JUMPDEST PUSH2 0x738 PUSH1 0x4 DUP1 CALLDATASIZE SUB PUSH1 0x20 DUP2 LT ISZERO PUSH2 0x722 JUMPI PUSH1 0x0 DUP1 REVERT JUMPDEST DUP2 ADD SWAP1 DUP1 DUP1 CALLDATALOAD SWAP1 PUSH1 0x20 ADD SWAP1 SWAP3 SWAP2 SWAP1 POP POP POP PUSH2 0x3000 JUMP JUMPDEST PUSH1 0x40 MLOAD DUP1 DUP10 ISZERO ISZERO ISZERO ISZERO DUP2 MSTORE PUSH1 0x20 ADD DUP9 DUP2 MSTORE PUSH1 0x20 ADD DUP8 DUP2 MSTORE PUSH1 0x20 ADD DUP7 DUP2 MSTORE PUSH1 0x20 ADD DUP6 DUP2 MSTORE PUSH1 0x20 ADD DUP5 DUP2 MSTORE PUSH1 0x20 ADD DUP4 DUP2 MSTORE PUSH1 0x20 ADD DUP3 DUP2 MSTORE PUSH1 0x20 ADD SWAP9 POP POP POP POP POP POP POP POP POP PUSH1 0x40 MLOAD DUP1 SWAP2 SUB SWAP1 RETURN JUMPDEST PUSH2 0x7D9 PUSH1 0x4 DUP1 CALLDATASIZE SUB PUSH1 0x60 DUP2 LT ISZERO PUSH2 0x799 JUMPI PUSH1 0x0 DUP1 REVERT JUMPDEST DUP2 ADD SWAP1 DUP1 DUP1 CALLDATALOAD PUSH20 0xFFFFFFFFFFFFFFFFFFFFFFFFFFFFFFFFFFFFFFFF AND SWAP1 PUSH1 0x20 ADD SWAP1 SWAP3 SWAP2 SWAP1 DUP1 CALLDATALOAD SWAP1 PUSH1 0x20 ADD SWAP1 SWAP3 SWAP2 SWAP1 DUP1 CALLDATALOAD SWAP1 PUSH1 0x20 ADD SWAP1 SWAP3 SWAP2 SWAP1 POP POP POP PUSH2 0x3062 JUMP JUMPDEST PUSH1 0x40 MLOAD DUP1 DUP3 DUP2 MSTORE PUSH1 0x20 ADD SWAP2 POP POP PUSH1 0x40 MLOAD DUP1 SWAP2 SUB SWAP1 RETURN JUMPDEST PUSH2 0x83B PUSH1 0x4 DUP1 CALLDATASIZE SUB PUSH1 0x40 DUP2 LT ISZERO PUSH2 0x805 JUMPI PUSH1 0x0 DUP1 REVERT JUMPDEST DUP2 ADD SWAP1 DUP1 DUP1 CALLDATALOAD PUSH20 0xFFFFFFFFFFFFFFFFFFFFFFFFFFFFFFFFFFFFFFFF AND SWAP1 PUSH1 0x20 ADD SWAP1 SWAP3 SWAP2 SWAP1 DUP1 CALLDATALOAD SWAP1 PUSH1 0x20 ADD SWAP1 SWAP3 SWAP2 SWAP1 POP POP POP PUSH2 0x30DA JUMP JUMPDEST PUSH1 0x40 MLOAD DUP1 DUP10 DUP2 MSTORE PUSH1 0x20 ADD DUP9 DUP2 MSTORE PUSH1 0x20 ADD DUP8 DUP2 MSTORE PUSH1 0x20 ADD DUP7 DUP2 MSTORE PUSH1 0x20 ADD DUP6 DUP2 MSTORE PUSH1 0x20 ADD DUP5 DUP2 MSTORE PUSH1 0x20 ADD DUP4 DUP2 MSTORE PUSH1 0x20 ADD DUP3 DUP2 MSTORE PUSH1 0x20 ADD SWAP9 POP POP POP POP POP POP POP POP POP PUSH1 0x40 MLOAD DUP1 SWAP2 SUB SWAP1 RETURN JUMPDEST PUSH2 0x88A PUSH2 0x313C JUMP JUMPDEST PUSH1 0x40 MLOAD DUP1 DUP3 PUSH20 0xFFFFFFFFFFFFFFFFFFFFFFFFFFFFFFFFFFFFFFFF AND PUSH20 0xFFFFFFFFFFFFFFFFFFFFFFFFFFFFFFFFFFFFFFFF AND DUP2 MSTORE PUSH1 0x20 ADD SWAP2 POP POP PUSH1 0x40 MLOAD DUP1 SWAP2 SUB SWAP1 RETURN JUMPDEST DUP3 DUP3 PUSH1 0x0 PUSH1 0x6 PUSH1 0x0 DUP5 PUSH20 0xFFFFFFFFFFFFFFFFFFFFFFFFFFFFFFFFFFFFFFFF AND PUSH20 0xFFFFFFFFFFFFFFFFFFFFFFFFFFFFFFFFFFFFFFFF AND DUP2 MSTORE PUSH1 0x20 ADD SWAP1 DUP2 MSTORE PUSH1 0x20 ADD PUSH1 0x0 KECCAK256 DUP3 DUP2 SLOAD DUP2 LT PUSH2 0x91A JUMPI INVALID JUMPDEST SWAP1 PUSH1 0x0 MSTORE PUSH1 0x20 PUSH1 0x0 KECCAK256 SWAP1 PUSH1 0xB MUL ADD SWAP1 POP DUP3 PUSH20 0xFFFFFFFFFFFFFFFFFFFFFFFFFFFFFFFFFFFFFFFF AND CALLER PUSH20 0xFFFFFFFFFFFFFFFFFFFFFFFFFFFFFFFFFFFFFFFF AND EQ PUSH2 0xA1F JUMPI DUP1 PUSH1 0x9 ADD PUSH1 0x0 CALLER PUSH20 0xFFFFFFFFFFFFFFFFFFFFFFFFFFFFFFFFFFFFFFFF AND PUSH20 0xFFFFFFFFFFFFFFFFFFFFFFFFFFFFFFFFFFFFFFFF AND DUP2 MSTORE PUSH1 0x20 ADD SWAP1 DUP2 MSTORE PUSH1 0x20 ADD PUSH1 0x0 KECCAK256 PUSH1 0x0 SWAP1 SLOAD SWAP1 PUSH2 0x100 EXP SWAP1 DIV PUSH1 0xFF AND PUSH2 0xA1E JUMPI PUSH1 0x40 MLOAD PUSH32 0x8C379A000000000000000000000000000000000000000000000000000000000 DUP2 MSTORE PUSH1 0x4 ADD DUP1 DUP1 PUSH1 0x20 ADD DUP3 DUP2 SUB DUP3 MSTORE PUSH1 0x1A DUP2 MSTORE PUSH1 0x20 ADD DUP1 PUSH32 0x6E6F6D696E6174696F6E2073686F756C64206265207468657265000000000000 DUP2 MSTORE POP PUSH1 0x20 ADD SWAP2 POP POP PUSH1 0x40 MLOAD DUP1 SWAP2 SUB SWAP1 REVERT JUMPDEST JUMPDEST PUSH1 0x0 PUSH2 0xA5C DUP8 DUP8 DUP8 DUP11 PUSH20 0xFFFFFFFFFFFFFFFFFFFFFFFFFFFFFFFFFFFFFFFF AND CALLER PUSH20 0xFFFFFFFFFFFFFFFFFFFFFFFFFFFFFFFFFFFFFFFF AND EQ ISZERO PUSH2 0x26DC JUMP JUMPDEST SWAP1 POP PUSH1 0x0 PUSH1 0x6 PUSH1 0x0 DUP10 PUSH20 0xFFFFFFFFFFFFFFFFFFFFFFFFFFFFFFFFFFFFFFFF AND PUSH20 0xFFFFFFFFFFFFFFFFFFFFFFFFFFFFFFFFFFFFFFFF AND DUP2 MSTORE PUSH1 0x20 ADD SWAP1 DUP2 MSTORE PUSH1 0x20 ADD PUSH1 0x0 KECCAK256 DUP8 DUP2 SLOAD DUP2 LT PUSH2 0xAAA JUMPI INVALID JUMPDEST SWAP1 PUSH1 0x0 MSTORE PUSH1 0x20 PUSH1 0x0 KECCAK256 SWAP1 PUSH1 0xB MUL ADD SWAP1 POP PUSH1 0x0 DUP2 PUSH1 0x4 ADD SLOAD SWAP1 POP DUP7 DUP3 PUSH1 0x4 ADD DUP2 SWAP1 SSTORE POP PUSH2 0xAE1 DUP4 PUSH1 0x3 SLOAD PUSH2 0x3162 SWAP1 SWAP2 SWAP1 PUSH4 0xFFFFFFFF AND JUMP JUMPDEST PUSH1 0x3 DUP2 SWAP1 SSTORE POP PUSH2 0xAFC DUP4 PUSH1 0x4 SLOAD PUSH2 0x3162 SWAP1 SWAP2 SWAP1 PUSH4 0xFFFFFFFF AND JUMP JUMPDEST PUSH1 0x4 DUP2 SWAP1 SSTORE POP PUSH1 0x1 PUSH1 0x0 SWAP1 SLOAD SWAP1 PUSH2 0x100 EXP SWAP1 DIV PUSH20 0xFFFFFFFFFFFFFFFFFFFFFFFFFFFFFFFFFFFFFFFF AND PUSH20 0xFFFFFFFFFFFFFFFFFFFFFFFFFFFFFFFFFFFFFFFF AND PUSH4 0xA9059CBB CALLER DUP6 PUSH1 0x40 MLOAD DUP4 PUSH4 0xFFFFFFFF AND PUSH1 0xE0 SHL DUP2 MSTORE PUSH1 0x4 ADD DUP1 DUP4 PUSH20 0xFFFFFFFFFFFFFFFFFFFFFFFFFFFFFFFFFFFFFFFF AND PUSH20 0xFFFFFFFFFFFFFFFFFFFFFFFFFFFFFFFFFFFFFFFF AND DUP2 MSTORE PUSH1 0x20 ADD DUP3 DUP2 MSTORE PUSH1 0x20 ADD SWAP3 POP POP POP PUSH1 0x20 PUSH1 0x40 MLOAD DUP1 DUP4 SUB DUP2 PUSH1 0x0 DUP8 DUP1 EXTCODESIZE ISZERO DUP1 ISZERO PUSH2 0xBAB JUMPI PUSH1 0x0 DUP1 REVERT JUMPDEST POP GAS CALL ISZERO DUP1 ISZERO PUSH2 0xBBF JUMPI RETURNDATASIZE PUSH1 0x0 DUP1 RETURNDATACOPY RETURNDATASIZE PUSH1 0x0 REVERT JUMPDEST POP POP POP POP PUSH1 0x40 MLOAD RETURNDATASIZE PUSH1 0x20 DUP2 LT ISZERO PUSH2 0xBD5 JUMPI PUSH1 0x0 DUP1 REVERT JUMPDEST DUP2 ADD SWAP1 DUP1 DUP1 MLOAD SWAP1 PUSH1 0x20 ADD SWAP1 SWAP3 SWAP2 SWAP1 POP POP POP POP DUP8 DUP10 PUSH20 0xFFFFFFFFFFFFFFFFFFFFFFFFFFFFFFFFFFFFFFFF AND PUSH32 0x8F4915DB3C6BAFB045A8CA029A06C4D1638DADDB07E111ED35ABF34F81B6A855 PUSH1 0x1 DUP5 ADD DUP11 DUP8 CALLER PUSH1 0x40 MLOAD DUP1 DUP6 DUP2 MSTORE PUSH1 0x20 ADD DUP5 DUP2 MSTORE PUSH1 0x20 ADD DUP4 DUP2 MSTORE PUSH1 0x20 ADD DUP3 PUSH20 0xFFFFFFFFFFFFFFFFFFFFFFFFFFFFFFFFFFFFFFFF AND PUSH20 0xFFFFFFFFFFFFFFFFFFFFFFFFFFFFFFFFFFFFFFFF AND DUP2 MSTORE PUSH1 0x20 ADD SWAP5 POP POP POP POP POP PUSH1 0x40 MLOAD DUP1 SWAP2 SUB SWAP1 LOG3 POP POP POP POP POP POP POP POP POP JUMP JUMPDEST DUP1 PUSH1 0x6 PUSH1 0x0 CALLER PUSH20 0xFFFFFFFFFFFFFFFFFFFFFFFFFFFFFFFFFFFFFFFF AND PUSH20 0xFFFFFFFFFFFFFFFFFFFFFFFFFFFFFFFFFFFFFFFF AND DUP2 MSTORE PUSH1 0x20 ADD SWAP1 DUP2 MSTORE PUSH1 0x20 ADD PUSH1 0x0 KECCAK256 DUP5 DUP2 SLOAD DUP2 LT PUSH2 0xCD3 JUMPI INVALID JUMPDEST SWAP1 PUSH1 0x0 MSTORE PUSH1 0x20 PUSH1 0x0 KECCAK256 SWAP1 PUSH1 0xB MUL ADD PUSH1 0x9 ADD PUSH1 0x0 DUP5 PUSH20 0xFFFFFFFFFFFFFFFFFFFFFFFFFFFFFFFFFFFFFFFF AND PUSH20 0xFFFFFFFFFFFFFFFFFFFFFFFFFFFFFFFFFFFFFFFF AND DUP2 MSTORE PUSH1 0x20 ADD SWAP1 DUP2 MSTORE PUSH1 0x20 ADD PUSH1 0x0 KECCAK256 PUSH1 0x0 PUSH2 0x100 EXP DUP2 SLOAD DUP2 PUSH1 0xFF MUL NOT AND SWAP1 DUP4 ISZERO ISZERO MUL OR SWAP1 SSTORE POP DUP2 PUSH20 0xFFFFFFFFFFFFFFFFFFFFFFFFFFFFFFFFFFFFFFFF AND DUP4 CALLER PUSH20 0xFFFFFFFFFFFFFFFFFFFFFFFFFFFFFFFFFFFFFFFF AND PUSH32 0x90E4568F920D8BB093366A04150AA0D04957A471196F5E1CDFB0DB3CB83CC5B0 DUP5 PUSH1 0x40 MLOAD DUP1 DUP3 ISZERO ISZERO ISZERO ISZERO DUP2 MSTORE PUSH1 0x20 ADD SWAP2 POP POP PUSH1 0x40 MLOAD DUP1 SWAP2 SUB SWAP1 LOG4 POP POP POP JUMP JUMPDEST PUSH1 0x2 SLOAD DUP2 JUMP JUMPDEST PUSH1 0x4 SLOAD DUP2 JUMP JUMPDEST PUSH1 0x0 DUP1 SWAP1 SLOAD SWAP1 PUSH2 0x100 EXP SWAP1 DIV PUSH20 0xFFFFFFFFFFFFFFFFFFFFFFFFFFFFFFFFFFFFFFFF AND PUSH20 0xFFFFFFFFFFFFFFFFFFFFFFFFFFFFFFFFFFFFFFFF AND CALLER PUSH20 0xFFFFFFFFFFFFFFFFFFFFFFFFFFFFFFFFFFFFFFFF AND EQ PUSH2 0xE75 JUMPI PUSH1 0x40 MLOAD PUSH32 0x8C379A000000000000000000000000000000000000000000000000000000000 DUP2 MSTORE PUSH1 0x4 ADD DUP1 DUP1 PUSH1 0x20 ADD DUP3 DUP2 SUB DUP3 MSTORE PUSH1 0x16 DUP2 MSTORE PUSH1 0x20 ADD DUP1 PUSH32 0x6F6E6C79206465706C6F7965722063616E2063616C6C00000000000000000000 DUP2 MSTORE POP PUSH1 0x20 ADD SWAP2 POP POP PUSH1 0x40 MLOAD DUP1 SWAP2 SUB SWAP1 REVERT JUMPDEST DUP1 PUSH2 0xE8D PUSH1 0x3 SLOAD PUSH1 0x4 SLOAD PUSH2 0x3162 SWAP1 SWAP2 SWAP1 PUSH4 0xFFFFFFFF AND JUMP JUMPDEST LT ISZERO PUSH2 0xF01 JUMPI PUSH1 0x40 MLOAD PUSH32 0x8C379A000000000000000000000000000000000000000000000000000000000 DUP2 MSTORE PUSH1 0x4 ADD DUP1 DUP1 PUSH1 0x20 ADD DUP3 DUP2 SUB DUP3 MSTORE PUSH1 0x1C DUP2 MSTORE PUSH1 0x20 ADD DUP1 PUSH32 0x63616E6E6F74207769746864726177206578636573732066756E647300000000 DUP2 MSTORE POP PUSH1 0x20 ADD SWAP2 POP POP PUSH1 0x40 MLOAD DUP1 SWAP2 SUB SWAP1 REVERT JUMPDEST PUSH2 0xF16 DUP2 PUSH1 0x4 SLOAD PUSH2 0x3162 SWAP1 SWAP2 SWAP1 PUSH4 0xFFFFFFFF AND JUMP JUMPDEST PUSH1 0x4 DUP2 SWAP1 SSTORE POP PUSH1 0x1 PUSH1 0x0 SWAP1 SLOAD SWAP1 PUSH2 0x100 EXP SWAP1 DIV PUSH20 0xFFFFFFFFFFFFFFFFFFFFFFFFFFFFFFFFFFFFFFFF AND PUSH20 0xFFFFFFFFFFFFFFFFFFFFFFFFFFFFFFFFFFFFFFFF AND PUSH4 0xA9059CBB CALLER DUP4 PUSH1 0x40 MLOAD DUP4 PUSH4 0xFFFFFFFF AND PUSH1 0xE0 SHL DUP2 MSTORE PUSH1 0x4 ADD DUP1 DUP4 PUSH20 0xFFFFFFFFFFFFFFFFFFFFFFFFFFFFFFFFFFFFFFFF AND PUSH20 0xFFFFFFFFFFFFFFFFFFFFFFFFFFFFFFFFFFFFFFFF AND DUP2 MSTORE PUSH1 0x20 ADD DUP3 DUP2 MSTORE PUSH1 0x20 ADD SWAP3 POP POP POP PUSH1 0x20 PUSH1 0x40 MLOAD DUP1 DUP4 SUB DUP2 PUSH1 0x0 DUP8 DUP1 EXTCODESIZE ISZERO DUP1 ISZERO PUSH2 0xFC5 JUMPI PUSH1 0x0 DUP1 REVERT JUMPDEST POP GAS CALL ISZERO DUP1 ISZERO PUSH2 0xFD9 JUMPI RETURNDATASIZE PUSH1 0x0 DUP1 RETURNDATACOPY RETURNDATASIZE PUSH1 0x0 REVERT JUMPDEST POP POP POP POP PUSH1 0x40 MLOAD RETURNDATASIZE PUSH1 0x20 DUP2 LT ISZERO PUSH2 0xFEF JUMPI PUSH1 0x0 DUP1 REVERT JUMPDEST DUP2 ADD SWAP1 DUP1 DUP1 MLOAD SWAP1 PUSH1 0x20 ADD SWAP1 SWAP3 SWAP2 SWAP1 POP POP POP POP PUSH32 0x4A37B25AAB49761ECF63117FE82B98D750917451133CF797507BC9FB5B96044A DUP2 PUSH1 0x40 MLOAD DUP1 DUP3 DUP2 MSTORE PUSH1 0x20 ADD SWAP2 POP POP PUSH1 0x40 MLOAD DUP1 SWAP2 SUB SWAP1 LOG1 POP JUMP JUMPDEST PUSH1 0x3 SLOAD DUP2 JUMP JUMPDEST DUP2 DUP2 PUSH1 0x0 PUSH1 0x6 PUSH1 0x0 DUP5 PUSH20 0xFFFFFFFFFFFFFFFFFFFFFFFFFFFFFFFFFFFFFFFF AND PUSH20 0xFFFFFFFFFFFFFFFFFFFFFFFFFFFFFFFFFFFFFFFF AND DUP2 MSTORE PUSH1 0x20 ADD SWAP1 DUP2 MSTORE PUSH1 0x20 ADD PUSH1 0x0 KECCAK256 DUP3 DUP2 SLOAD DUP2 LT PUSH2 0x108F JUMPI INVALID JUMPDEST SWAP1 PUSH1 0x0 MSTORE PUSH1 0x20 PUSH1 0x0 KECCAK256 SWAP1 PUSH1 0xB MUL ADD SWAP1 POP DUP3 PUSH20 0xFFFFFFFFFFFFFFFFFFFFFFFFFFFFFFFFFFFFFFFF AND CALLER PUSH20 0xFFFFFFFFFFFFFFFFFFFFFFFFFFFFFFFFFFFFFFFF AND EQ PUSH2 0x1194 JUMPI DUP1 PUSH1 0x9 ADD PUSH1 0x0 CALLER PUSH20 0xFFFFFFFFFFFFFFFFFFFFFFFFFFFFFFFFFFFFFFFF AND PUSH20 0xFFFFFFFFFFFFFFFFFFFFFFFFFFFFFFFFFFFFFFFF AND DUP2 MSTORE PUSH1 0x20 ADD SWAP1 DUP2 MSTORE PUSH1 0x20 ADD PUSH1 0x0 KECCAK256 PUSH1 0x0 SWAP1 SLOAD SWAP1 PUSH2 0x100 EXP SWAP1 DIV PUSH1 0xFF AND PUSH2 0x1193 JUMPI PUSH1 0x40 MLOAD PUSH32 0x8C379A000000000000000000000000000000000000000000000000000000000 DUP2 MSTORE PUSH1 0x4 ADD DUP1 DUP1 PUSH1 0x20 ADD DUP3 DUP2 SUB DUP3 MSTORE PUSH1 0x1A DUP2 MSTORE PUSH1 0x20 ADD DUP1 PUSH32 0x6E6F6D696E6174696F6E2073686F756C64206265207468657265000000000000 DUP2 MSTORE POP PUSH1 0x20 ADD SWAP2 POP POP PUSH1 0x40 MLOAD DUP1 SWAP2 SUB SWAP1 REVERT JUMPDEST JUMPDEST PUSH1 0x0 PUSH1 0x6 PUSH1 0x0 DUP8 PUSH20 0xFFFFFFFFFFFFFFFFFFFFFFFFFFFFFFFFFFFFFFFF AND PUSH20 0xFFFFFFFFFFFFFFFFFFFFFFFFFFFFFFFFFFFFFFFF AND DUP2 MSTORE PUSH1 0x20 ADD SWAP1 DUP2 MSTORE PUSH1 0x20 ADD PUSH1 0x0 KECCAK256 DUP6 DUP2 SLOAD DUP2 LT PUSH2 0x11E0 JUMPI INVALID JUMPDEST SWAP1 PUSH1 0x0 MSTORE PUSH1 0x20 PUSH1 0x0 KECCAK256 SWAP1 PUSH1 0xB MUL ADD SWAP1 POP PUSH1 0x3 DUP2 PUSH1 0x5 ADD SLOAD LT PUSH2 0x126A JUMPI PUSH1 0x40 MLOAD PUSH32 0x8C379A000000000000000000000000000000000000000000000000000000000 DUP2 MSTORE PUSH1 0x4 ADD DUP1 DUP1 PUSH1 0x20 ADD DUP3 DUP2 SUB DUP3 MSTORE PUSH1 0x15 DUP2 MSTORE PUSH1 0x20 ADD DUP1 PUSH32 0x6F6E6C79203320706F77657220626F6F73746572730000000000000000000000 DUP2 MSTORE POP PUSH1 0x20 ADD SWAP2 POP POP PUSH1 0x40 MLOAD DUP1 SWAP2 SUB SWAP1 REVERT JUMPDEST PUSH1 0x0 PUSH1 0x1 DUP3 PUSH1 0x5 ADD SLOAD ADD SWAP1 POP PUSH1 0x0 PUSH1 0x2 SLOAD PUSH1 0x3 DUP4 PUSH1 0x2 SLOAD PUSH1 0xC PUSH1 0x5 DUP9 PUSH1 0x0 ADD SLOAD DUP2 SLOAD DUP2 LT PUSH2 0x1294 JUMPI INVALID JUMPDEST SWAP1 PUSH1 0x0 MSTORE PUSH1 0x20 PUSH1 0x0 KECCAK256 SWAP1 PUSH1 0x8 MUL ADD PUSH1 0x3 ADD SLOAD MUL MUL MUL DUP2 PUSH2 0x12B0 JUMPI INVALID JUMPDEST DIV PUSH1 0x2 SLOAD PUSH1 0x5 DUP7 PUSH1 0x0 ADD SLOAD DUP2 SLOAD DUP2 LT PUSH2 0x12C5 JUMPI INVALID JUMPDEST SWAP1 PUSH1 0x0 MSTORE PUSH1 0x20 PUSH1 0x0 KECCAK256 SWAP1 PUSH1 0x8 MUL ADD PUSH1 0x2 ADD SLOAD MUL DUP6 PUSH1 0x1 ADD SLOAD ADD ADD SUB SWAP1 POP DUP8 PUSH20 0xFFFFFFFFFFFFFFFFFFFFFFFFFFFFFFFFFFFFFFFF AND CALLER PUSH20 0xFFFFFFFFFFFFFFFFFFFFFFFFFFFFFFFFFFFFFFFF AND EQ PUSH2 0x1353 JUMPI PUSH2 0x132D PUSH1 0x2 DUP5 PUSH1 0x6 ADD SLOAD PUSH2 0x31AC SWAP1 SWAP2 SWAP1 PUSH4 0xFFFFFFFF AND JUMP JUMPDEST DUP4 PUSH1 0x7 ADD SLOAD GT ISZERO PUSH2 0x1347 JUMPI PUSH1 0x6 PUSH1 0x2 SLOAD MUL DUP2 ADD SWAP1 POP PUSH2 0x1352 JUMP JUMPDEST PUSH1 0xC PUSH1 0x2 SLOAD MUL DUP2 ADD SWAP1 POP JUMPDEST JUMPDEST DUP1 TIMESTAMP GT PUSH2 0x13C8 JUMPI PUSH1 0x40 MLOAD PUSH32 0x8C379A000000000000000000000000000000000000000000000000000000000 DUP2 MSTORE PUSH1 0x4 ADD DUP1 DUP1 PUSH1 0x20 ADD DUP3 DUP2 SUB DUP3 MSTORE PUSH1 0x15 DUP2 MSTORE PUSH1 0x20 ADD DUP1 PUSH32 0x63616E6E6F74207769746864726177206561726C790000000000000000000000 DUP2 MSTORE POP PUSH1 0x20 ADD SWAP2 POP POP PUSH1 0x40 MLOAD DUP1 SWAP2 SUB SWAP1 REVERT JUMPDEST DUP2 DUP4 PUSH1 0x5 ADD DUP2 SWAP1 SSTORE POP PUSH1 0x0 PUSH2 0x13EB PUSH1 0x3 DUP6 PUSH1 0x3 ADD SLOAD PUSH2 0x31AC SWAP1 SWAP2 SWAP1 PUSH4 0xFFFFFFFF AND JUMP JUMPDEST SWAP1 POP PUSH1 0x1 DUP4 EQ ISZERO PUSH2 0x1524 JUMPI PUSH1 0x0 DUP1 PUSH1 0x1 SWAP1 POP JUMPDEST PUSH1 0x5 DUP7 PUSH1 0x0 ADD SLOAD DUP2 SLOAD DUP2 LT PUSH2 0x140F JUMPI INVALID JUMPDEST SWAP1 PUSH1 0x0 MSTORE PUSH1 0x20 PUSH1 0x0 KECCAK256 SWAP1 PUSH1 0x8 MUL ADD PUSH1 0x2 ADD SLOAD DUP2 GT PUSH2 0x14C5 JUMPI PUSH1 0x0 DUP7 PUSH1 0x8 ADD PUSH1 0x0 DUP4 DUP2 MSTORE PUSH1 0x20 ADD SWAP1 DUP2 MSTORE PUSH1 0x20 ADD PUSH1 0x0 KECCAK256 SLOAD EQ ISZERO PUSH2 0x1471 JUMPI PUSH1 0x5 DUP7 PUSH1 0x0 ADD SLOAD DUP2 SLOAD DUP2 LT PUSH2 0x1456 JUMPI INVALID JUMPDEST SWAP1 PUSH1 0x0 MSTORE PUSH1 0x20 PUSH1 0x0 KECCAK256 SWAP1 PUSH1 0x8 MUL ADD PUSH1 0x7 ADD SLOAD DUP3 ADD SWAP2 POP PUSH2 0x14B8 JUMP JUMPDEST PUSH1 0x1 DUP7 PUSH1 0x8 ADD PUSH1 0x0 DUP4 DUP2 MSTORE PUSH1 0x20 ADD SWAP1 DUP2 MSTORE PUSH1 0x20 ADD PUSH1 0x0 KECCAK256 SLOAD EQ ISZERO PUSH2 0x14B7 JUMPI PUSH1 0x5 DUP7 PUSH1 0x0 ADD SLOAD DUP2 SLOAD DUP2 LT PUSH2 0x14A0 JUMPI INVALID JUMPDEST SWAP1 PUSH1 0x0 MSTORE PUSH1 0x20 PUSH1 0x0 KECCAK256 SWAP1 PUSH1 0x8 MUL ADD PUSH1 0x6 ADD SLOAD DUP3 ADD SWAP2 POP JUMPDEST JUMPDEST DUP1 DUP1 PUSH1 0x1 ADD SWAP2 POP POP PUSH2 0x13FE JUMP JUMPDEST POP PUSH1 0x0 PUSH2 0x14EF PUSH2 0x3E8 PUSH2 0x14E1 DUP5 DUP7 PUSH2 0x31F6 SWAP1 SWAP2 SWAP1 PUSH4 0xFFFFFFFF AND JUMP JUMPDEST PUSH2 0x31AC SWAP1 SWAP2 SWAP1 PUSH4 0xFFFFFFFF AND JUMP JUMPDEST SWAP1 POP PUSH2 0x1506 DUP2 PUSH1 0x4 SLOAD PUSH2 0x327C SWAP1 SWAP2 SWAP1 PUSH4 0xFFFFFFFF AND JUMP JUMPDEST PUSH1 0x4 DUP2 SWAP1 SSTORE POP PUSH2 0x151F DUP2 DUP5 PUSH2 0x3162 SWAP1 SWAP2 SWAP1 PUSH4 0xFFFFFFFF AND JUMP JUMPDEST SWAP3 POP POP POP JUMPDEST PUSH1 0x1 PUSH1 0x0 SWAP1 SLOAD SWAP1 PUSH2 0x100 EXP SWAP1 DIV PUSH20 0xFFFFFFFFFFFFFFFFFFFFFFFFFFFFFFFFFFFFFFFF AND PUSH20 0xFFFFFFFFFFFFFFFFFFFFFFFFFFFFFFFFFFFFFFFF AND PUSH4 0xA9059CBB CALLER DUP4 PUSH1 0x40 MLOAD DUP4 PUSH4 0xFFFFFFFF AND PUSH1 0xE0 SHL DUP2 MSTORE PUSH1 0x4 ADD DUP1 DUP4 PUSH20 0xFFFFFFFFFFFFFFFFFFFFFFFFFFFFFFFFFFFFFFFF AND PUSH20 0xFFFFFFFFFFFFFFFFFFFFFFFFFFFFFFFFFFFFFFFF AND DUP2 MSTORE PUSH1 0x20 ADD DUP3 DUP2 MSTORE PUSH1 0x20 ADD SWAP3 POP POP POP PUSH1 0x20 PUSH1 0x40 MLOAD DUP1 DUP4 SUB DUP2 PUSH1 0x0 DUP8 DUP1 EXTCODESIZE ISZERO DUP1 ISZERO PUSH2 0x15CD JUMPI PUSH1 0x0 DUP1 REVERT JUMPDEST POP GAS CALL ISZERO DUP1 ISZERO PUSH2 0x15E1 JUMPI RETURNDATASIZE PUSH1 0x0 DUP1 RETURNDATACOPY RETURNDATASIZE PUSH1 0x0 REVERT JUMPDEST POP POP POP POP PUSH1 0x40 MLOAD RETURNDATASIZE PUSH1 0x20 DUP2 LT ISZERO PUSH2 0x15F7 JUMPI PUSH1 0x0 DUP1 REVERT JUMPDEST DUP2 ADD SWAP1 DUP1 DUP1 MLOAD SWAP1 PUSH1 0x20 ADD SWAP1 SWAP3 SWAP2 SWAP1 POP POP POP POP DUP8 DUP10 PUSH20 0xFFFFFFFFFFFFFFFFFFFFFFFFFFFFFFFFFFFFFFFF AND PUSH32 0xA1C568EF1602BC58C1E32EA2F1251B87874DCE947F5D4F4DF53677D06D5BF56D DUP6 DUP5 CALLER PUSH1 0x40 MLOAD DUP1 DUP5 DUP2 MSTORE PUSH1 0x20 ADD DUP4 DUP2 MSTORE PUSH1 0x20 ADD DUP3 PUSH20 0xFFFFFFFFFFFFFFFFFFFFFFFFFFFFFFFFFFFFFFFF AND PUSH20 0xFFFFFFFFFFFFFFFFFFFFFFFFFFFFFFFFFFFFFFFF AND DUP2 MSTORE PUSH1 0x20 ADD SWAP4 POP POP POP POP PUSH1 0x40 MLOAD DUP1 SWAP2 SUB SWAP1 LOG3 POP POP POP POP POP POP POP POP POP JUMP JUMPDEST PUSH1 0x0 DUP1 SWAP1 SLOAD SWAP1 PUSH2 0x100 EXP SWAP1 DIV PUSH20 0xFFFFFFFFFFFFFFFFFFFFFFFFFFFFFFFFFFFFFFFF AND PUSH20 0xFFFFFFFFFFFFFFFFFFFFFFFFFFFFFFFFFFFFFFFF AND CALLER PUSH20 0xFFFFFFFFFFFFFFFFFFFFFFFFFFFFFFFFFFFFFFFF AND EQ PUSH2 0x1761 JUMPI PUSH1 0x40 MLOAD PUSH32 0x8C379A000000000000000000000000000000000000000000000000000000000 DUP2 MSTORE PUSH1 0x4 ADD DUP1 DUP1 PUSH1 0x20 ADD DUP3 DUP2 SUB DUP3 MSTORE PUSH1 0x16 DUP2 MSTORE PUSH1 0x20 ADD DUP1 PUSH32 0x6F6E6C79206465706C6F7965722063616E2063616C6C00000000000000000000 DUP2 MSTORE POP PUSH1 0x20 ADD SWAP2 POP POP PUSH1 0x40 MLOAD DUP1 SWAP2 SUB SWAP1 REVERT JUMPDEST PUSH1 0x5 PUSH1 0x40 MLOAD DUP1 PUSH2 0x100 ADD PUSH1 0x40 MSTORE DUP1 PUSH1 0x1 ISZERO ISZERO DUP2 MSTORE PUSH1 0x20 ADD DUP10 DUP2 MSTORE PUSH1 0x20 ADD DUP9 DUP2 MSTORE PUSH1 0x20 ADD DUP8 DUP2 MSTORE PUSH1 0x20 ADD DUP7 DUP2 MSTORE PUSH1 0x20 ADD DUP6 DUP2 MSTORE PUSH1 0x20 ADD DUP5 DUP2 MSTORE PUSH1 0x20 ADD DUP4 DUP2 MSTORE POP SWAP1 DUP1 PUSH1 0x1 DUP2 SLOAD ADD DUP1 DUP3 SSTORE DUP1 SWAP2 POP POP SWAP1 PUSH1 0x1 DUP3 SUB SWAP1 PUSH1 0x0 MSTORE PUSH1 0x20 PUSH1 0x0 KECCAK256 SWAP1 PUSH1 0x8 MUL ADD PUSH1 0x0 SWAP1 SWAP2 SWAP3 SWAP1 SWAP2 SWAP1 SWAP2 POP PUSH1 0x0 DUP3 ADD MLOAD DUP2 PUSH1 0x0 ADD PUSH1 0x0 PUSH2 0x100 EXP DUP2 SLOAD DUP2 PUSH1 0xFF MUL NOT AND SWAP1 DUP4 ISZERO ISZERO MUL OR SWAP1 SSTORE POP PUSH1 0x20 DUP3 ADD MLOAD DUP2 PUSH1 0x1 ADD SSTORE PUSH1 0x40 DUP3 ADD MLOAD DUP2 PUSH1 0x2 ADD SSTORE PUSH1 0x60 DUP3 ADD MLOAD DUP2 PUSH1 0x3 ADD SSTORE PUSH1 0x80 DUP3 ADD MLOAD DUP2 PUSH1 0x4 ADD SSTORE PUSH1 0xA0 DUP3 ADD MLOAD DUP2 PUSH1 0x5 ADD SSTORE PUSH1 0xC0 DUP3 ADD MLOAD DUP2 PUSH1 0x6 ADD SSTORE PUSH1 0xE0 DUP3 ADD MLOAD DUP2 PUSH1 0x7 ADD SSTORE POP POP POP POP POP POP POP POP POP POP JUMP JUMPDEST PUSH1 0x0 PUSH1 0x6 PUSH1 0x0 DUP6 PUSH20 0xFFFFFFFFFFFFFFFFFFFFFFFFFFFFFFFFFFFFFFFF AND PUSH20 0xFFFFFFFFFFFFFFFFFFFFFFFFFFFFFFFFFFFFFFFF AND DUP2 MSTORE PUSH1 0x20 ADD SWAP1 DUP2 MSTORE PUSH1 0x20 ADD PUSH1 0x0 KECCAK256 DUP4 DUP2 SLOAD DUP2 LT PUSH2 0x1889 JUMPI INVALID JUMPDEST SWAP1 PUSH1 0x0 MSTORE PUSH1 0x20 PUSH1 0x0 KECCAK256 SWAP1 PUSH1 0xB MUL ADD PUSH1 0x9 ADD PUSH1 0x0 DUP4 PUSH20 0xFFFFFFFFFFFFFFFFFFFFFFFFFFFFFFFFFFFFFFFF AND PUSH20 0xFFFFFFFFFFFFFFFFFFFFFFFFFFFFFFFFFFFFFFFF AND DUP2 MSTORE PUSH1 0x20 ADD SWAP1 DUP2 MSTORE PUSH1 0x20 ADD PUSH1 0x0 KECCAK256 PUSH1 0x0 SWAP1 SLOAD SWAP1 PUSH2 0x100 EXP SWAP1 DIV PUSH1 0xFF AND SWAP1 POP SWAP4 SWAP3 POP POP POP JUMP JUMPDEST PUSH1 0x5 DUP3 DUP2 SLOAD DUP2 LT PUSH2 0x18FB JUMPI INVALID JUMPDEST SWAP1 PUSH1 0x0 MSTORE PUSH1 0x20 PUSH1 0x0 KECCAK256 SWAP1 PUSH1 0x8 MUL ADD PUSH1 0x1 ADD SLOAD DUP2 LT ISZERO PUSH2 0x1982 JUMPI PUSH1 0x40 MLOAD PUSH32 0x8C379A000000000000000000000000000000000000000000000000000000000 DUP2 MSTORE PUSH1 0x4 ADD DUP1 DUP1 PUSH1 0x20 ADD DUP3 DUP2 SUB DUP3 MSTORE PUSH1 0x20 DUP2 MSTORE PUSH1 0x20 ADD DUP1 PUSH32 0x616D6F756E742073686F756C642062652061746C65617374206D696E696D756D DUP2 MSTORE POP PUSH1 0x20 ADD SWAP2 POP POP PUSH1 0x40 MLOAD DUP1 SWAP2 SUB SWAP1 REVERT JUMPDEST PUSH1 0x0 PUSH2 0x19F9 PUSH1 0x5 DUP5 DUP2 SLOAD DUP2 LT PUSH2 0x1994 JUMPI INVALID JUMPDEST SWAP1 PUSH1 0x0 MSTORE PUSH1 0x20 PUSH1 0x0 KECCAK256 SWAP1 PUSH1 0x8 MUL ADD PUSH1 0x3 ADD SLOAD PUSH2 0x19EB PUSH2 0x3E8 PUSH2 0x19DD PUSH1 0x5 DUP9 DUP2 SLOAD DUP2 LT PUSH2 0x19BC JUMPI INVALID JUMPDEST SWAP1 PUSH1 0x0 MSTORE PUSH1 0x20 PUSH1 0x0 KECCAK256 SWAP1 PUSH1 0x8 MUL ADD PUSH1 0x5 ADD SLOAD DUP8 PUSH2 0x31F6 SWAP1 SWAP2 SWAP1 PUSH4 0xFFFFFFFF AND JUMP JUMPDEST PUSH2 0x31AC SWAP1 SWAP2 SWAP1 PUSH4 0xFFFFFFFF AND JUMP JUMPDEST PUSH2 0x31F6 SWAP1 SWAP2 SWAP1 PUSH4 0xFFFFFFFF AND JUMP JUMPDEST SWAP1 POP DUP1 PUSH1 0x4 SLOAD LT ISZERO PUSH2 0x1A56 JUMPI PUSH1 0x40 MLOAD PUSH32 0x8C379A000000000000000000000000000000000000000000000000000000000 DUP2 MSTORE PUSH1 0x4 ADD DUP1 DUP1 PUSH1 0x20 ADD DUP3 DUP2 SUB DUP3 MSTORE PUSH1 0x23 DUP2 MSTORE PUSH1 0x20 ADD DUP1 PUSH2 0x34AC PUSH1 0x23 SWAP2 CODECOPY PUSH1 0x40 ADD SWAP2 POP POP PUSH1 0x40 MLOAD DUP1 SWAP2 SUB SWAP1 REVERT JUMPDEST PUSH1 0x1 PUSH1 0x0 SWAP1 SLOAD SWAP1 PUSH2 0x100 EXP SWAP1 DIV PUSH20 0xFFFFFFFFFFFFFFFFFFFFFFFFFFFFFFFFFFFFFFFF AND PUSH20 0xFFFFFFFFFFFFFFFFFFFFFFFFFFFFFFFFFFFFFFFF AND PUSH4 0x23B872DD CALLER ADDRESS DUP6 PUSH1 0x40 MLOAD DUP5 PUSH4 0xFFFFFFFF AND PUSH1 0xE0 SHL DUP2 MSTORE PUSH1 0x4 ADD DUP1 DUP5 PUSH20 0xFFFFFFFFFFFFFFFFFFFFFFFFFFFFFFFFFFFFFFFF AND PUSH20 0xFFFFFFFFFFFFFFFFFFFFFFFFFFFFFFFFFFFFFFFF AND DUP2 MSTORE PUSH1 0x20 ADD DUP4 PUSH20 0xFFFFFFFFFFFFFFFFFFFFFFFFFFFFFFFFFFFFFFFF AND PUSH20 0xFFFFFFFFFFFFFFFFFFFFFFFFFFFFFFFFFFFFFFFF AND DUP2 MSTORE PUSH1 0x20 ADD DUP3 DUP2 MSTORE PUSH1 0x20 ADD SWAP4 POP POP POP POP PUSH1 0x20 PUSH1 0x40 MLOAD DUP1 DUP4 SUB DUP2 PUSH1 0x0 DUP8 DUP1 EXTCODESIZE ISZERO DUP1 ISZERO PUSH2 0x1B33 JUMPI PUSH1 0x0 DUP1 REVERT JUMPDEST POP GAS CALL ISZERO DUP1 ISZERO PUSH2 0x1B47 JUMPI RETURNDATASIZE PUSH1 0x0 DUP1 RETURNDATACOPY RETURNDATASIZE PUSH1 0x0 REVERT JUMPDEST POP POP POP POP PUSH1 0x40 MLOAD RETURNDATASIZE PUSH1 0x20 DUP2 LT ISZERO PUSH2 0x1B5D JUMPI PUSH1 0x0 DUP1 REVERT JUMPDEST DUP2 ADD SWAP1 DUP1 DUP1 MLOAD SWAP1 PUSH1 0x20 ADD SWAP1 SWAP3 SWAP2 SWAP1 POP POP POP PUSH2 0x1B77 JUMPI PUSH1 0x0 DUP1 REVERT JUMPDEST PUSH1 0x6 PUSH1 0x0 CALLER PUSH20 0xFFFFFFFFFFFFFFFFFFFFFFFFFFFFFFFFFFFFFFFF AND PUSH20 0xFFFFFFFFFFFFFFFFFFFFFFFFFFFFFFFFFFFFFFFF AND DUP2 MSTORE PUSH1 0x20 ADD SWAP1 DUP2 MSTORE PUSH1 0x20 ADD PUSH1 0x0 KECCAK256 PUSH1 0x40 MLOAD DUP1 PUSH2 0x100 ADD PUSH1 0x40 MSTORE DUP1 DUP6 DUP2 MSTORE PUSH1 0x20 ADD TIMESTAMP DUP2 MSTORE PUSH1 0x20 ADD DUP5 DUP2 MSTORE PUSH1 0x20 ADD DUP5 DUP2 MSTORE PUSH1 0x20 ADD PUSH1 0x0 DUP2 MSTORE PUSH1 0x20 ADD PUSH1 0x0 DUP2 MSTORE PUSH1 0x20 ADD PUSH1 0x0 DUP2 MSTORE PUSH1 0x20 ADD PUSH1 0x0 DUP2 MSTORE POP SWAP1 DUP1 PUSH1 0x1 DUP2 SLOAD ADD DUP1 DUP3 SSTORE DUP1 SWAP2 POP POP SWAP1 PUSH1 0x1 DUP3 SUB SWAP1 PUSH1 0x0 MSTORE PUSH1 0x20 PUSH1 0x0 KECCAK256 SWAP1 PUSH1 0xB MUL ADD PUSH1 0x0 SWAP1 SWAP2 SWAP3 SWAP1 SWAP2 SWAP1 SWAP2 POP PUSH1 0x0 DUP3 ADD MLOAD DUP2 PUSH1 0x0 ADD SSTORE PUSH1 0x20 DUP3 ADD MLOAD DUP2 PUSH1 0x1 ADD SSTORE PUSH1 0x40 DUP3 ADD MLOAD DUP2 PUSH1 0x2 ADD SSTORE PUSH1 0x60 DUP3 ADD MLOAD DUP2 PUSH1 0x3 ADD SSTORE PUSH1 0x80 DUP3 ADD MLOAD DUP2 PUSH1 0x4 ADD SSTORE PUSH1 0xA0 DUP3 ADD MLOAD DUP2 PUSH1 0x5 ADD SSTORE PUSH1 0xC0 DUP3 ADD MLOAD DUP2 PUSH1 0x6 ADD SSTORE PUSH1 0xE0 DUP3 ADD MLOAD DUP2 PUSH1 0x7 ADD SSTORE POP POP POP PUSH1 0x0 PUSH1 0x1 PUSH1 0x6 PUSH1 0x0 CALLER PUSH20 0xFFFFFFFFFFFFFFFFFFFFFFFFFFFFFFFFFFFFFFFF AND PUSH20 0xFFFFFFFFFFFFFFFFFFFFFFFFFFFFFFFFFFFFFFFF AND DUP2 MSTORE PUSH1 0x20 ADD SWAP1 DUP2 MSTORE PUSH1 0x20 ADD PUSH1 0x0 KECCAK256 DUP1 SLOAD SWAP1 POP SUB SWAP1 POP PUSH1 0x2 PUSH1 0x6 PUSH1 0x0 CALLER PUSH20 0xFFFFFFFFFFFFFFFFFFFFFFFFFFFFFFFFFFFFFFFF AND PUSH20 0xFFFFFFFFFFFFFFFFFFFFFFFFFFFFFFFFFFFFFFFF AND DUP2 MSTORE PUSH1 0x20 ADD SWAP1 DUP2 MSTORE PUSH1 0x20 ADD PUSH1 0x0 KECCAK256 DUP3 DUP2 SLOAD DUP2 LT PUSH2 0x1D08 JUMPI INVALID JUMPDEST SWAP1 PUSH1 0x0 MSTORE PUSH1 0x20 PUSH1 0x0 KECCAK256 SWAP1 PUSH1 0xB MUL ADD PUSH1 0x8 ADD PUSH1 0x0 PUSH1 0x1 DUP2 MSTORE PUSH1 0x20 ADD SWAP1 DUP2 MSTORE PUSH1 0x20 ADD PUSH1 0x0 KECCAK256 DUP2 SWAP1 SSTORE POP PUSH2 0x1D44 DUP3 PUSH1 0x3 SLOAD PUSH2 0x327C SWAP1 SWAP2 SWAP1 PUSH4 0xFFFFFFFF AND JUMP JUMPDEST PUSH1 0x3 DUP2 SWAP1 SSTORE POP CALLER PUSH20 0xFFFFFFFFFFFFFFFFFFFFFFFFFFFFFFFFFFFFFFFF AND PUSH32 0x1DEC97FC36AA6DFA81B208EC37B3AC8DAE30717F0622F9CFB2E7223DC95326EC PUSH1 0x1 PUSH1 0x6 PUSH1 0x0 CALLER PUSH20 0xFFFFFFFFFFFFFFFFFFFFFFFFFFFFFFFFFFFFFFFF AND PUSH20 0xFFFFFFFFFFFFFFFFFFFFFFFFFFFFFFFFFFFFFFFF AND DUP2 MSTORE PUSH1 0x20 ADD SWAP1 DUP2 MSTORE PUSH1 0x20 ADD PUSH1 0x0 KECCAK256 DUP1 SLOAD SWAP1 POP SUB DUP6 PUSH1 0x40 MLOAD DUP1 DUP4 DUP2 MSTORE PUSH1 0x20 ADD DUP3 DUP2 MSTORE PUSH1 0x20 ADD SWAP3 POP POP POP PUSH1 0x40 MLOAD DUP1 SWAP2 SUB SWAP1 LOG2 DUP1 CALLER PUSH20 0xFFFFFFFFFFFFFFFFFFFFFFFFFFFFFFFFFFFFFFFF AND PUSH32 0xBAF4C88598102708C4215D5D3767268130627355850B7ECE9BDFDC32FD2941F0 PUSH1 0x1 DUP7 DUP7 CALLER PUSH1 0x40 MLOAD DUP1 DUP6 DUP2 MSTORE PUSH1 0x20 ADD DUP5 DUP2 MSTORE PUSH1 0x20 ADD DUP4 DUP2 MSTORE PUSH1 0x20 ADD DUP3 PUSH20 0xFFFFFFFFFFFFFFFFFFFFFFFFFFFFFFFFFFFFFFFF AND PUSH20 0xFFFFFFFFFFFFFFFFFFFFFFFFFFFFFFFFFFFFFFFF AND DUP2 MSTORE PUSH1 0x20 ADD SWAP5 POP POP POP POP POP PUSH1 0x40 MLOAD DUP1 SWAP2 SUB SWAP1 LOG3 POP POP POP POP JUMP JUMPDEST PUSH1 0x0 TIMESTAMP SWAP1 POP SWAP1 JUMP JUMPDEST DUP4 DUP4 PUSH1 0x0 PUSH1 0x6 PUSH1 0x0 DUP5 PUSH20 0xFFFFFFFFFFFFFFFFFFFFFFFFFFFFFFFFFFFFFFFF AND PUSH20 0xFFFFFFFFFFFFFFFFFFFFFFFFFFFFFFFFFFFFFFFF AND DUP2 MSTORE PUSH1 0x20 ADD SWAP1 DUP2 MSTORE PUSH1 0x20 ADD PUSH1 0x0 KECCAK256 DUP3 DUP2 SLOAD DUP2 LT PUSH2 0x1ED5 JUMPI INVALID JUMPDEST SWAP1 PUSH1 0x0 MSTORE PUSH1 0x20 PUSH1 0x0 KECCAK256 SWAP1 PUSH1 0xB MUL ADD SWAP1 POP DUP3 PUSH20 0xFFFFFFFFFFFFFFFFFFFFFFFFFFFFFFFFFFFFFFFF AND CALLER PUSH20 0xFFFFFFFFFFFFFFFFFFFFFFFFFFFFFFFFFFFFFFFF AND EQ PUSH2 0x1FDA JUMPI DUP1 PUSH1 0x9 ADD PUSH1 0x0 CALLER PUSH20 0xFFFFFFFFFFFFFFFFFFFFFFFFFFFFFFFFFFFFFFFF AND PUSH20 0xFFFFFFFFFFFFFFFFFFFFFFFFFFFFFFFFFFFFFFFF AND DUP2 MSTORE PUSH1 0x20 ADD SWAP1 DUP2 MSTORE PUSH1 0x20 ADD PUSH1 0x0 KECCAK256 PUSH1 0x0 SWAP1 SLOAD SWAP1 PUSH2 0x100 EXP SWAP1 DIV PUSH1 0xFF AND PUSH2 0x1FD9 JUMPI PUSH1 0x40 MLOAD PUSH32 0x8C379A000000000000000000000000000000000000000000000000000000000 DUP2 MSTORE PUSH1 0x4 ADD DUP1 DUP1 PUSH1 0x20 ADD DUP3 DUP2 SUB DUP3 MSTORE PUSH1 0x1A DUP2 MSTORE PUSH1 0x20 ADD DUP1 PUSH32 0x6E6F6D696E6174696F6E2073686F756C64206265207468657265000000000000 DUP2 MSTORE POP PUSH1 0x20 ADD SWAP2 POP POP PUSH1 0x40 MLOAD DUP1 SWAP2 SUB SWAP1 REVERT JUMPDEST JUMPDEST PUSH1 0x0 PUSH1 0x6 PUSH1 0x0 DUP10 PUSH20 0xFFFFFFFFFFFFFFFFFFFFFFFFFFFFFFFFFFFFFFFF AND PUSH20 0xFFFFFFFFFFFFFFFFFFFFFFFFFFFFFFFFFFFFFFFF AND DUP2 MSTORE PUSH1 0x20 ADD SWAP1 DUP2 MSTORE PUSH1 0x20 ADD PUSH1 0x0 KECCAK256 DUP8 DUP2 SLOAD DUP2 LT PUSH2 0x2026 JUMPI INVALID JUMPDEST SWAP1 PUSH1 0x0 MSTORE PUSH1 0x20 PUSH1 0x0 KECCAK256 SWAP1 PUSH1 0xB MUL ADD SWAP1 POP DUP1 PUSH1 0x2 ADD SLOAD DUP7 LT ISZERO PUSH2 0x2093 JUMPI PUSH1 0x40 MLOAD PUSH32 0x8C379A000000000000000000000000000000000000000000000000000000000 DUP2 MSTORE PUSH1 0x4 ADD DUP1 DUP1 PUSH1 0x20 ADD DUP3 DUP2 SUB DUP3 MSTORE PUSH1 0x26 DUP2 MSTORE PUSH1 0x20 ADD DUP1 PUSH2 0x34F0 PUSH1 0x26 SWAP2 CODECOPY PUSH1 0x40 ADD SWAP2 POP POP PUSH1 0x40 MLOAD DUP1 SWAP2 SUB SWAP1 REVERT JUMPDEST PUSH1 0x0 DUP2 PUSH1 0x8 ADD PUSH1 0x0 DUP8 DUP2 MSTORE PUSH1 0x20 ADD SWAP1 DUP2 MSTORE PUSH1 0x20 ADD PUSH1 0x0 KECCAK256 SLOAD EQ PUSH2 0x211E JUMPI PUSH1 0x40 MLOAD PUSH32 0x8C379A000000000000000000000000000000000000000000000000000000000 DUP2 MSTORE PUSH1 0x4 ADD DUP1 DUP1 PUSH1 0x20 ADD DUP3 DUP2 SUB DUP3 MSTORE PUSH1 0x14 DUP2 MSTORE PUSH1 0x20 ADD DUP1 PUSH32 0x63616E6E6F74206465706F73697420616761696E000000000000000000000000 DUP2 MSTORE POP PUSH1 0x20 ADD SWAP2 POP POP PUSH1 0x40 MLOAD DUP1 SWAP2 SUB SWAP1 REVERT JUMPDEST PUSH1 0x0 PUSH2 0x219D PUSH1 0x5 DUP4 PUSH1 0x0 ADD SLOAD DUP2 SLOAD DUP2 LT PUSH2 0x2134 JUMPI INVALID JUMPDEST SWAP1 PUSH1 0x0 MSTORE PUSH1 0x20 PUSH1 0x0 KECCAK256 SWAP1 PUSH1 0x8 MUL ADD PUSH1 0x3 ADD SLOAD PUSH2 0x218F PUSH2 0x3E8 PUSH2 0x2181 PUSH1 0x5 DUP8 PUSH1 0x0 ADD SLOAD DUP2 SLOAD DUP2 LT PUSH2 0x2160 JUMPI INVALID JUMPDEST SWAP1 PUSH1 0x0 MSTORE PUSH1 0x20 PUSH1 0x0 KECCAK256 SWAP1 PUSH1 0x8 MUL ADD PUSH1 0x5 ADD SLOAD DUP13 PUSH2 0x31F6 SWAP1 SWAP2 SWAP1 PUSH4 0xFFFFFFFF AND JUMP JUMPDEST PUSH2 0x31AC SWAP1 SWAP2 SWAP1 PUSH4 0xFFFFFFFF AND JUMP JUMPDEST PUSH2 0x31F6 SWAP1 SWAP2 SWAP1 PUSH4 0xFFFFFFFF AND JUMP JUMPDEST SWAP1 POP PUSH2 0x21B4 PUSH1 0x3 SLOAD DUP3 PUSH2 0x327C SWAP1 SWAP2 SWAP1 PUSH4 0xFFFFFFFF AND JUMP JUMPDEST PUSH1 0x4 SLOAD LT ISZERO PUSH2 0x220E JUMPI PUSH1 0x40 MLOAD PUSH32 0x8C379A000000000000000000000000000000000000000000000000000000000 DUP2 MSTORE PUSH1 0x4 ADD DUP1 DUP1 PUSH1 0x20 ADD DUP3 DUP2 SUB DUP3 MSTORE PUSH1 0x23 DUP2 MSTORE PUSH1 0x20 ADD DUP1 PUSH2 0x34AC PUSH1 0x23 SWAP2 CODECOPY PUSH1 0x40 ADD SWAP2 POP POP PUSH1 0x40 MLOAD DUP1 SWAP2 SUB SWAP1 REVERT JUMPDEST PUSH1 0x1 PUSH1 0x0 SWAP1 SLOAD SWAP1 PUSH2 0x100 EXP SWAP1 DIV PUSH20 0xFFFFFFFFFFFFFFFFFFFFFFFFFFFFFFFFFFFFFFFF AND PUSH20 0xFFFFFFFFFFFFFFFFFFFFFFFFFFFFFFFFFFFFFFFF AND PUSH4 0x23B872DD CALLER ADDRESS DUP11 PUSH1 0x40 MLOAD DUP5 PUSH4 0xFFFFFFFF AND PUSH1 0xE0 SHL DUP2 MSTORE PUSH1 0x4 ADD DUP1 DUP5 PUSH20 0xFFFFFFFFFFFFFFFFFFFFFFFFFFFFFFFFFFFFFFFF AND PUSH20 0xFFFFFFFFFFFFFFFFFFFFFFFFFFFFFFFFFFFFFFFF AND DUP2 MSTORE PUSH1 0x20 ADD DUP4 PUSH20 0xFFFFFFFFFFFFFFFFFFFFFFFFFFFFFFFFFFFFFFFF AND PUSH20 0xFFFFFFFFFFFFFFFFFFFFFFFFFFFFFFFFFFFFFFFF AND DUP2 MSTORE PUSH1 0x20 ADD DUP3 DUP2 MSTORE PUSH1 0x20 ADD SWAP4 POP POP POP POP PUSH1 0x20 PUSH1 0x40 MLOAD DUP1 DUP4 SUB DUP2 PUSH1 0x0 DUP8 DUP1 EXTCODESIZE ISZERO DUP1 ISZERO PUSH2 0x22EB JUMPI PUSH1 0x0 DUP1 REVERT JUMPDEST POP GAS CALL ISZERO DUP1 ISZERO PUSH2 0x22FF JUMPI RETURNDATASIZE PUSH1 0x0 DUP1 RETURNDATACOPY RETURNDATASIZE PUSH1 0x0 REVERT JUMPDEST POP POP POP POP PUSH1 0x40 MLOAD RETURNDATASIZE PUSH1 0x20 DUP2 LT ISZERO PUSH2 0x2315 JUMPI PUSH1 0x0 DUP1 REVERT JUMPDEST DUP2 ADD SWAP1 DUP1 DUP1 MLOAD SWAP1 PUSH1 0x20 ADD SWAP1 SWAP3 SWAP2 SWAP1 POP POP POP PUSH2 0x232F JUMPI PUSH1 0x0 DUP1 REVERT JUMPDEST PUSH1 0x0 PUSH2 0x233C DUP11 DUP11 DUP10 PUSH2 0x2560 JUMP JUMPDEST SWAP1 POP PUSH1 0x0 DUP2 GT PUSH2 0x2397 JUMPI PUSH1 0x40 MLOAD PUSH32 0x8C379A000000000000000000000000000000000000000000000000000000000 DUP2 MSTORE PUSH1 0x4 ADD DUP1 DUP1 PUSH1 0x20 ADD DUP3 DUP2 SUB DUP3 MSTORE PUSH1 0x21 DUP2 MSTORE PUSH1 0x20 ADD DUP1 PUSH2 0x348B PUSH1 0x21 SWAP2 CODECOPY PUSH1 0x40 ADD SWAP2 POP POP PUSH1 0x40 MLOAD DUP1 SWAP2 SUB SWAP1 REVERT JUMPDEST DUP1 DUP4 PUSH1 0x8 ADD PUSH1 0x0 DUP10 DUP2 MSTORE PUSH1 0x20 ADD SWAP1 DUP2 MSTORE PUSH1 0x20 ADD PUSH1 0x0 KECCAK256 DUP2 SWAP1 SSTORE POP PUSH2 0x23C8 DUP9 DUP5 PUSH1 0x3 ADD SLOAD PUSH2 0x327C SWAP1 SWAP2 SWAP1 PUSH4 0xFFFFFFFF AND JUMP JUMPDEST DUP4 PUSH1 0x3 ADD DUP2 SWAP1 SSTORE POP PUSH2 0x23E5 DUP3 PUSH1 0x3 SLOAD PUSH2 0x327C SWAP1 SWAP2 SWAP1 PUSH4 0xFFFFFFFF AND JUMP JUMPDEST PUSH1 0x3 DUP2 SWAP1 SSTORE POP DUP9 DUP11 PUSH20 0xFFFFFFFFFFFFFFFFFFFFFFFFFFFFFFFFFFFFFFFF AND PUSH32 0xBAF4C88598102708C4215D5D3767268130627355850B7ECE9BDFDC32FD2941F0 DUP10 DUP12 DUP7 CALLER PUSH1 0x40 MLOAD DUP1 DUP6 DUP2 MSTORE PUSH1 0x20 ADD DUP5 DUP2 MSTORE PUSH1 0x20 ADD DUP4 DUP2 MSTORE PUSH1 0x20 ADD DUP3 PUSH20 0xFFFFFFFFFFFFFFFFFFFFFFFFFFFFFFFFFFFFFFFF AND PUSH20 0xFFFFFFFFFFFFFFFFFFFFFFFFFFFFFFFFFFFFFFFF AND DUP2 MSTORE PUSH1 0x20 ADD SWAP5 POP POP POP POP POP PUSH1 0x40 MLOAD DUP1 SWAP2 SUB SWAP1 LOG3 POP POP POP POP POP POP POP POP POP POP JUMP JUMPDEST PUSH1 0x0 PUSH1 0x6 PUSH1 0x0 DUP6 PUSH20 0xFFFFFFFFFFFFFFFFFFFFFFFFFFFFFFFFFFFFFFFF AND PUSH20 0xFFFFFFFFFFFFFFFFFFFFFFFFFFFFFFFFFFFFFFFF AND DUP2 MSTORE PUSH1 0x20 ADD SWAP1 DUP2 MSTORE PUSH1 0x20 ADD PUSH1 0x0 KECCAK256 DUP4 DUP2 SLOAD DUP2 LT PUSH2 0x24D6 JUMPI INVALID JUMPDEST SWAP1 PUSH1 0x0 MSTORE PUSH1 0x20 PUSH1 0x0 KECCAK256 SWAP1 PUSH1 0xB MUL ADD PUSH1 0xA ADD PUSH1 0x0 DUP4 PUSH20 0xFFFFFFFFFFFFFFFFFFFFFFFFFFFFFFFFFFFFFFFF AND PUSH20 0xFFFFFFFFFFFFFFFFFFFFFFFFFFFFFFFFFFFFFFFF AND DUP2 MSTORE PUSH1 0x20 ADD SWAP1 DUP2 MSTORE PUSH1 0x20 ADD PUSH1 0x0 KECCAK256 PUSH1 0x0 SWAP1 SLOAD SWAP1 PUSH2 0x100 EXP SWAP1 DIV PUSH1 0xFF AND SWAP1 POP SWAP4 SWAP3 POP POP POP JUMP JUMPDEST PUSH1 0x0 DUP1 SWAP1 SLOAD SWAP1 PUSH2 0x100 EXP SWAP1 DIV PUSH20 0xFFFFFFFFFFFFFFFFFFFFFFFFFFFFFFFFFFFFFFFF AND DUP2 JUMP JUMPDEST PUSH1 0x0 DUP1 PUSH1 0x6 PUSH1 0x0 DUP7 PUSH20 0xFFFFFFFFFFFFFFFFFFFFFFFFFFFFFFFFFFFFFFFF AND PUSH20 0xFFFFFFFFFFFFFFFFFFFFFFFFFFFFFFFFFFFFFFFF AND DUP2 MSTORE PUSH1 0x20 ADD SWAP1 DUP2 MSTORE PUSH1 0x20 ADD PUSH1 0x0 KECCAK256 DUP5 DUP2 SLOAD DUP2 LT PUSH2 0x25AD JUMPI INVALID JUMPDEST SWAP1 PUSH1 0x0 MSTORE PUSH1 0x20 PUSH1 0x0 KECCAK256 SWAP1 PUSH1 0xB MUL ADD SWAP1 POP PUSH1 0x1 DUP4 LT ISZERO DUP1 ISZERO PUSH2 0x25F0 JUMPI POP PUSH1 0x5 DUP2 PUSH1 0x0 ADD SLOAD DUP2 SLOAD DUP2 LT PUSH2 0x25DA JUMPI INVALID JUMPDEST SWAP1 PUSH1 0x0 MSTORE PUSH1 0x20 PUSH1 0x0 KECCAK256 SWAP1 PUSH1 0x8 MUL ADD PUSH1 0x2 ADD SLOAD DUP4 GT ISZERO JUMPDEST PUSH2 0x2662 JUMPI PUSH1 0x40 MLOAD PUSH32 0x8C379A000000000000000000000000000000000000000000000000000000000 DUP2 MSTORE PUSH1 0x4 ADD DUP1 DUP1 PUSH1 0x20 ADD DUP3 DUP2 SUB DUP3 MSTORE PUSH1 0x15 DUP2 MSTORE PUSH1 0x20 ADD DUP1 PUSH32 0x696E76616C6964206465706F736974206D6F6E74680000000000000000000000 DUP2 MSTORE POP PUSH1 0x20 ADD SWAP2 POP POP PUSH1 0x40 MLOAD DUP1 SWAP2 SUB SWAP1 REVERT JUMPDEST PUSH1 0x0 PUSH1 0x1 DUP5 SUB PUSH1 0x2 SLOAD MUL DUP3 PUSH1 0x1 ADD SLOAD ADD SWAP1 POP TIMESTAMP DUP2 LT ISZERO DUP1 ISZERO PUSH2 0x2688 JUMPI POP PUSH1 0x2 SLOAD DUP2 SUB TIMESTAMP LT ISZERO JUMPDEST ISZERO PUSH2 0x2698 JUMPI PUSH1 0x2 SWAP3 POP POP POP PUSH2 0x26D5 JUMP JUMPDEST TIMESTAMP PUSH1 0x5 DUP4 PUSH1 0x0 ADD SLOAD DUP2 SLOAD DUP2 LT PUSH2 0x26AA JUMPI INVALID JUMPDEST SWAP1 PUSH1 0x0 MSTORE PUSH1 0x20 PUSH1 0x0 KECCAK256 SWAP1 PUSH1 0x8 MUL ADD PUSH1 0x4 ADD SLOAD DUP3 ADD LT PUSH2 0x26CE JUMPI PUSH1 0x1 SWAP3 POP POP POP PUSH2 0x26D5 JUMP JUMPDEST PUSH1 0x0 SWAP3 POP POP POP JUMPDEST SWAP4 SWAP3 POP POP POP JUMP JUMPDEST PUSH1 0x0 DUP1 PUSH1 0x6 PUSH1 0x0 DUP8 PUSH20 0xFFFFFFFFFFFFFFFFFFFFFFFFFFFFFFFFFFFFFFFF AND PUSH20 0xFFFFFFFFFFFFFFFFFFFFFFFFFFFFFFFFFFFFFFFF AND DUP2 MSTORE PUSH1 0x20 ADD SWAP1 DUP2 MSTORE PUSH1 0x20 ADD PUSH1 0x0 KECCAK256 DUP6 DUP2 SLOAD DUP2 LT PUSH2 0x2729 JUMPI INVALID JUMPDEST SWAP1 PUSH1 0x0 MSTORE PUSH1 0x20 PUSH1 0x0 KECCAK256 SWAP1 PUSH1 0xB MUL ADD SWAP1 POP PUSH1 0x0 PUSH1 0x1 DUP6 PUSH1 0x5 DUP5 PUSH1 0x0 ADD SLOAD DUP2 SLOAD DUP2 LT PUSH2 0x274F JUMPI INVALID JUMPDEST SWAP1 PUSH1 0x0 MSTORE PUSH1 0x20 PUSH1 0x0 KECCAK256 SWAP1 PUSH1 0x8 MUL ADD PUSH1 0x2 ADD SLOAD ADD SUB PUSH1 0x2 SLOAD MUL DUP3 PUSH1 0x1 ADD SLOAD ADD SWAP1 POP DUP4 ISZERO PUSH2 0x27B3 JUMPI PUSH2 0x278D PUSH1 0x2 DUP4 PUSH1 0x6 ADD SLOAD PUSH2 0x31AC SWAP1 SWAP2 SWAP1 PUSH4 0xFFFFFFFF AND JUMP JUMPDEST DUP3 PUSH1 0x7 ADD SLOAD GT ISZERO PUSH2 0x27A7 JUMPI PUSH1 0x6 PUSH1 0x2 SLOAD MUL DUP2 ADD SWAP1 POP PUSH2 0x27B2 JUMP JUMPDEST PUSH1 0xC PUSH1 0x2 SLOAD MUL DUP2 ADD SWAP1 POP JUMPDEST JUMPDEST PUSH1 0x0 DUP6 GT DUP1 ISZERO PUSH2 0x27E8 JUMPI POP PUSH1 0xC PUSH1 0x5 DUP4 PUSH1 0x0 ADD SLOAD DUP2 SLOAD DUP2 LT PUSH2 0x27D1 JUMPI INVALID JUMPDEST SWAP1 PUSH1 0x0 MSTORE PUSH1 0x20 PUSH1 0x0 KECCAK256 SWAP1 PUSH1 0x8 MUL ADD PUSH1 0x3 ADD SLOAD MUL DUP6 GT ISZERO JUMPDEST PUSH2 0x285A JUMPI PUSH1 0x40 MLOAD PUSH32 0x8C379A000000000000000000000000000000000000000000000000000000000 DUP2 MSTORE PUSH1 0x4 ADD DUP1 DUP1 PUSH1 0x20 ADD DUP3 DUP2 SUB DUP3 MSTORE PUSH1 0x16 DUP2 MSTORE PUSH1 0x20 ADD DUP1 PUSH32 0x696E76616C6964207769746864726177206D6F6E746800000000000000000000 DUP2 MSTORE POP PUSH1 0x20 ADD SWAP2 POP POP PUSH1 0x40 MLOAD DUP1 SWAP2 SUB SWAP1 REVERT JUMPDEST DUP2 PUSH1 0x4 ADD SLOAD DUP6 GT PUSH2 0x28D3 JUMPI PUSH1 0x40 MLOAD PUSH32 0x8C379A000000000000000000000000000000000000000000000000000000000 DUP2 MSTORE PUSH1 0x4 ADD DUP1 DUP1 PUSH1 0x20 ADD DUP3 DUP2 SUB DUP3 MSTORE PUSH1 0x15 DUP2 MSTORE PUSH1 0x20 ADD DUP1 PUSH32 0x63616E6E6F7420776974686472617720616761696E0000000000000000000000 DUP2 MSTORE POP PUSH1 0x20 ADD SWAP2 POP POP PUSH1 0x40 MLOAD DUP1 SWAP2 SUB SWAP1 REVERT JUMPDEST DUP1 TIMESTAMP LT ISZERO PUSH2 0x2949 JUMPI PUSH1 0x40 MLOAD PUSH32 0x8C379A000000000000000000000000000000000000000000000000000000000 DUP2 MSTORE PUSH1 0x4 ADD DUP1 DUP1 PUSH1 0x20 ADD DUP3 DUP2 SUB DUP3 MSTORE PUSH1 0x15 DUP2 MSTORE PUSH1 0x20 ADD DUP1 PUSH32 0x63616E6E6F74207769746864726177206561726C790000000000000000000000 DUP2 MSTORE POP PUSH1 0x20 ADD SWAP2 POP POP PUSH1 0x40 MLOAD DUP1 SWAP2 SUB SWAP1 REVERT JUMPDEST PUSH1 0x0 PUSH2 0x2984 PUSH1 0x5 DUP5 PUSH1 0x0 ADD SLOAD DUP2 SLOAD DUP2 LT PUSH2 0x295F JUMPI INVALID JUMPDEST SWAP1 PUSH1 0x0 MSTORE PUSH1 0x20 PUSH1 0x0 KECCAK256 SWAP1 PUSH1 0x8 MUL ADD PUSH1 0x2 ADD SLOAD DUP5 PUSH1 0x3 ADD SLOAD PUSH2 0x31AC SWAP1 SWAP2 SWAP1 PUSH4 0xFFFFFFFF AND JUMP JUMPDEST SWAP1 POP PUSH1 0x0 PUSH2 0x29D1 PUSH2 0x3E8 PUSH2 0x29C3 PUSH1 0x5 DUP8 PUSH1 0x0 ADD SLOAD DUP2 SLOAD DUP2 LT PUSH2 0x29A2 JUMPI INVALID JUMPDEST SWAP1 PUSH1 0x0 MSTORE PUSH1 0x20 PUSH1 0x0 KECCAK256 SWAP1 PUSH1 0x8 MUL ADD PUSH1 0x5 ADD SLOAD DUP6 PUSH2 0x31F6 SWAP1 SWAP2 SWAP1 PUSH4 0xFFFFFFFF AND JUMP JUMPDEST PUSH2 0x31AC SWAP1 SWAP2 SWAP1 PUSH4 0xFFFFFFFF AND JUMP JUMPDEST SWAP1 POP PUSH1 0x0 PUSH2 0x29FE PUSH2 0x29EF DUP7 PUSH1 0x4 ADD SLOAD DUP11 PUSH2 0x3162 SWAP1 SWAP2 SWAP1 PUSH4 0xFFFFFFFF AND JUMP JUMPDEST DUP4 PUSH2 0x31F6 SWAP1 SWAP2 SWAP1 PUSH4 0xFFFFFFFF AND JUMP JUMPDEST SWAP1 POP DUP1 SWAP6 POP POP POP POP POP POP SWAP5 SWAP4 POP POP POP POP JUMP JUMPDEST PUSH1 0x0 PUSH1 0x6 PUSH1 0x0 DUP5 PUSH20 0xFFFFFFFFFFFFFFFFFFFFFFFFFFFFFFFFFFFFFFFF AND PUSH20 0xFFFFFFFFFFFFFFFFFFFFFFFFFFFFFFFFFFFFFFFF AND DUP2 MSTORE PUSH1 0x20 ADD SWAP1 DUP2 MSTORE PUSH1 0x20 ADD PUSH1 0x0 KECCAK256 DUP3 DUP2 SLOAD DUP2 LT PUSH2 0x2A5C JUMPI INVALID JUMPDEST SWAP1 PUSH1 0x0 MSTORE PUSH1 0x20 PUSH1 0x0 KECCAK256 SWAP1 PUSH1 0xB MUL ADD SWAP1 POP DUP1 PUSH1 0xA ADD PUSH1 0x0 CALLER PUSH20 0xFFFFFFFFFFFFFFFFFFFFFFFFFFFFFFFFFFFFFFFF AND PUSH20 0xFFFFFFFFFFFFFFFFFFFFFFFFFFFFFFFFFFFFFFFF AND DUP2 MSTORE PUSH1 0x20 ADD SWAP1 DUP2 MSTORE PUSH1 0x20 ADD PUSH1 0x0 KECCAK256 PUSH1 0x0 SWAP1 SLOAD SWAP1 PUSH2 0x100 EXP SWAP1 DIV PUSH1 0xFF AND PUSH2 0x2B2D JUMPI PUSH1 0x40 MLOAD PUSH32 0x8C379A000000000000000000000000000000000000000000000000000000000 DUP2 MSTORE PUSH1 0x4 ADD DUP1 DUP1 PUSH1 0x20 ADD DUP3 DUP2 SUB DUP3 MSTORE PUSH1 0x20 DUP2 MSTORE PUSH1 0x20 ADD DUP1 PUSH32 0x73686F756C64206265206170706F696E74656520746F206361737420766F7465 DUP2 MSTORE POP PUSH1 0x20 ADD SWAP2 POP POP PUSH1 0x40 MLOAD DUP1 SWAP2 SUB SWAP1 REVERT JUMPDEST PUSH1 0x0 DUP2 PUSH1 0xA ADD PUSH1 0x0 CALLER PUSH20 0xFFFFFFFFFFFFFFFFFFFFFFFFFFFFFFFFFFFFFFFF AND PUSH20 0xFFFFFFFFFFFFFFFFFFFFFFFFFFFFFFFFFFFFFFFF AND DUP2 MSTORE PUSH1 0x20 ADD SWAP1 DUP2 MSTORE PUSH1 0x20 ADD PUSH1 0x0 KECCAK256 PUSH1 0x0 PUSH2 0x100 EXP DUP2 SLOAD DUP2 PUSH1 0xFF MUL NOT AND SWAP1 DUP4 ISZERO ISZERO MUL OR SWAP1 SSTORE POP PUSH2 0x2B9F PUSH1 0x1 DUP3 PUSH1 0x7 ADD SLOAD PUSH2 0x327C SWAP1 SWAP2 SWAP1 PUSH4 0xFFFFFFFF AND JUMP JUMPDEST DUP2 PUSH1 0x7 ADD DUP2 SWAP1 SSTORE POP CALLER PUSH20 0xFFFFFFFFFFFFFFFFFFFFFFFFFFFFFFFFFFFFFFFF AND DUP3 DUP5 PUSH20 0xFFFFFFFFFFFFFFFFFFFFFFFFFFFFFFFFFFFFFFFF AND PUSH32 0x57E90B4A498A7310FAB91955C915F3F15A0D1A94B296F824DA9443D524EA2E1B PUSH1 0x40 MLOAD PUSH1 0x40 MLOAD DUP1 SWAP2 SUB SWAP1 LOG4 POP POP POP JUMP JUMPDEST PUSH1 0x0 PUSH1 0x6 PUSH1 0x0 CALLER PUSH20 0xFFFFFFFFFFFFFFFFFFFFFFFFFFFFFFFFFFFFFFFF AND PUSH20 0xFFFFFFFFFFFFFFFFFFFFFFFFFFFFFFFFFFFFFFFF AND DUP2 MSTORE PUSH1 0x20 ADD SWAP1 DUP2 MSTORE PUSH1 0x20 ADD PUSH1 0x0 KECCAK256 DUP5 DUP2 SLOAD DUP2 LT PUSH2 0x2C53 JUMPI INVALID JUMPDEST SWAP1 PUSH1 0x0 MSTORE PUSH1 0x20 PUSH1 0x0 KECCAK256 SWAP1 PUSH1 0xB MUL ADD SWAP1 POP DUP1 PUSH1 0xA ADD PUSH1 0x0 DUP5 PUSH20 0xFFFFFFFFFFFFFFFFFFFFFFFFFFFFFFFFFFFFFFFF AND PUSH20 0xFFFFFFFFFFFFFFFFFFFFFFFFFFFFFFFFFFFFFFFF AND DUP2 MSTORE PUSH1 0x20 ADD SWAP1 DUP2 MSTORE PUSH1 0x20 ADD PUSH1 0x0 KECCAK256 PUSH1 0x0 SWAP1 SLOAD SWAP1 PUSH2 0x100 EXP SWAP1 DIV PUSH1 0xFF AND ISZERO DUP1 ISZERO PUSH2 0x2CBC JUMPI POP DUP2 JUMPDEST ISZERO PUSH2 0x2D40 JUMPI PUSH2 0x2CD9 PUSH1 0x1 DUP3 PUSH1 0x6 ADD SLOAD PUSH2 0x327C SWAP1 SWAP2 SWAP1 PUSH4 0xFFFFFFFF AND JUMP JUMPDEST DUP2 PUSH1 0x6 ADD DUP2 SWAP1 SSTORE POP PUSH1 0x1 DUP2 PUSH1 0x9 ADD PUSH1 0x0 DUP6 PUSH20 0xFFFFFFFFFFFFFFFFFFFFFFFFFFFFFFFFFFFFFFFF AND PUSH20 0xFFFFFFFFFFFFFFFFFFFFFFFFFFFFFFFFFFFFFFFF AND DUP2 MSTORE PUSH1 0x20 ADD SWAP1 DUP2 MSTORE PUSH1 0x20 ADD PUSH1 0x0 KECCAK256 PUSH1 0x0 PUSH2 0x100 EXP DUP2 SLOAD DUP2 PUSH1 0xFF MUL NOT AND SWAP1 DUP4 ISZERO ISZERO MUL OR SWAP1 SSTORE POP PUSH2 0x2E1A JUMP JUMPDEST DUP1 PUSH1 0xA ADD PUSH1 0x0 DUP5 PUSH20 0xFFFFFFFFFFFFFFFFFFFFFFFFFFFFFFFFFFFFFFFF AND PUSH20 0xFFFFFFFFFFFFFFFFFFFFFFFFFFFFFFFFFFFFFFFF AND DUP2 MSTORE PUSH1 0x20 ADD SWAP1 DUP2 MSTORE PUSH1 0x20 ADD PUSH1 0x0 KECCAK256 PUSH1 0x0 SWAP1 SLOAD SWAP1 PUSH2 0x100 EXP SWAP1 DIV PUSH1 0xFF AND DUP1 ISZERO PUSH2 0x2D99 JUMPI POP DUP2 ISZERO JUMPDEST ISZERO PUSH2 0x2E19 JUMPI PUSH1 0x0 DUP2 PUSH1 0x9 ADD PUSH1 0x0 DUP6 PUSH20 0xFFFFFFFFFFFFFFFFFFFFFFFFFFFFFFFFFFFFFFFF AND PUSH20 0xFFFFFFFFFFFFFFFFFFFFFFFFFFFFFFFFFFFFFFFF AND DUP2 MSTORE PUSH1 0x20 ADD SWAP1 DUP2 MSTORE PUSH1 0x20 ADD PUSH1 0x0 KECCAK256 PUSH1 0x0 PUSH2 0x100 EXP DUP2 SLOAD DUP2 PUSH1 0xFF MUL NOT AND SWAP1 DUP4 ISZERO ISZERO MUL OR SWAP1 SSTORE POP PUSH2 0x2E10 PUSH1 0x1 DUP3 PUSH1 0x6 ADD SLOAD PUSH2 0x3162 SWAP1 SWAP2 SWAP1 PUSH4 0xFFFFFFFF AND JUMP JUMPDEST DUP2 PUSH1 0x6 ADD DUP2 SWAP1 SSTORE POP JUMPDEST JUMPDEST DUP3 PUSH20 0xFFFFFFFFFFFFFFFFFFFFFFFFFFFFFFFFFFFFFFFF AND DUP5 CALLER PUSH20 0xFFFFFFFFFFFFFFFFFFFFFFFFFFFFFFFFFFFFFFFF AND PUSH32 0xF7A6207B27953EFF117F9B7C03E363D41370A45E2B626D2AA32C6A0AC6365782 DUP6 PUSH1 0x40 MLOAD DUP1 DUP3 ISZERO ISZERO ISZERO ISZERO DUP2 MSTORE PUSH1 0x20 ADD SWAP2 POP POP PUSH1 0x40 MLOAD DUP1 SWAP2 SUB SWAP1 LOG4 POP POP POP POP JUMP JUMPDEST PUSH1 0x1 PUSH1 0x0 SWAP1 SLOAD SWAP1 PUSH2 0x100 EXP SWAP1 DIV PUSH20 0xFFFFFFFFFFFFFFFFFFFFFFFFFFFFFFFFFFFFFFFF AND PUSH20 0xFFFFFFFFFFFFFFFFFFFFFFFFFFFFFFFFFFFFFFFF AND PUSH4 0x23B872DD CALLER ADDRESS DUP5 PUSH1 0x40 MLOAD DUP5 PUSH4 0xFFFFFFFF AND PUSH1 0xE0 SHL DUP2 MSTORE PUSH1 0x4 ADD DUP1 DUP5 PUSH20 0xFFFFFFFFFFFFFFFFFFFFFFFFFFFFFFFFFFFFFFFF AND PUSH20 0xFFFFFFFFFFFFFFFFFFFFFFFFFFFFFFFFFFFFFFFF AND DUP2 MSTORE PUSH1 0x20 ADD DUP4 PUSH20 0xFFFFFFFFFFFFFFFFFFFFFFFFFFFFFFFFFFFFFFFF AND PUSH20 0xFFFFFFFFFFFFFFFFFFFFFFFFFFFFFFFFFFFFFFFF AND DUP2 MSTORE PUSH1 0x20 ADD DUP3 DUP2 MSTORE PUSH1 0x20 ADD SWAP4 POP POP POP POP PUSH1 0x20 PUSH1 0x40 MLOAD DUP1 DUP4 SUB DUP2 PUSH1 0x0 DUP8 DUP1 EXTCODESIZE ISZERO DUP1 ISZERO PUSH2 0x2F67 JUMPI PUSH1 0x0 DUP1 REVERT JUMPDEST POP GAS CALL ISZERO DUP1 ISZERO PUSH2 0x2F7B JUMPI RETURNDATASIZE PUSH1 0x0 DUP1 RETURNDATACOPY RETURNDATASIZE PUSH1 0x0 REVERT JUMPDEST POP POP POP POP PUSH1 0x40 MLOAD RETURNDATASIZE PUSH1 0x20 DUP2 LT ISZERO PUSH2 0x2F91 JUMPI PUSH1 0x0 DUP1 REVERT JUMPDEST DUP2 ADD SWAP1 DUP1 DUP1 MLOAD SWAP1 PUSH1 0x20 ADD SWAP1 SWAP3 SWAP2 SWAP1 POP POP POP PUSH2 0x2FAB JUMPI PUSH1 0x0 DUP1 REVERT JUMPDEST PUSH2 0x2FC0 DUP2 PUSH1 0x4 SLOAD PUSH2 0x327C SWAP1 SWAP2 SWAP1 PUSH4 0xFFFFFFFF AND JUMP JUMPDEST PUSH1 0x4 DUP2 SWAP1 SSTORE POP PUSH32 0x7CB5D45C1071F219BD2DA1EA101758715BD52F23F2A707F2D9A0387DEA18D906 DUP2 PUSH1 0x40 MLOAD DUP1 DUP3 DUP2 MSTORE PUSH1 0x20 ADD SWAP2 POP POP PUSH1 0x40 MLOAD DUP1 SWAP2 SUB SWAP1 LOG1 POP JUMP JUMPDEST PUSH1 0x5 DUP2 DUP2 SLOAD DUP2 LT PUSH2 0x300D JUMPI INVALID JUMPDEST SWAP1 PUSH1 0x0 MSTORE PUSH1 0x20 PUSH1 0x0 KECCAK256 SWAP1 PUSH1 0x8 MUL ADD PUSH1 0x0 SWAP2 POP SWAP1 POP DUP1 PUSH1 0x0 ADD PUSH1 0x0 SWAP1 SLOAD SWAP1 PUSH2 0x100 EXP SWAP1 DIV PUSH1 0xFF AND SWAP1 DUP1 PUSH1 0x1 ADD SLOAD SWAP1 DUP1 PUSH1 0x2 ADD SLOAD SWAP1 DUP1 PUSH1 0x3 ADD SLOAD SWAP1 DUP1 PUSH1 0x4 ADD SLOAD SWAP1 DUP1 PUSH1 0x5 ADD SLOAD SWAP1 DUP1 PUSH1 0x6 ADD SLOAD SWAP1 DUP1 PUSH1 0x7 ADD SLOAD SWAP1 POP DUP9 JUMP JUMPDEST PUSH1 0x0 PUSH1 0x6 PUSH1 0x0 DUP6 PUSH20 0xFFFFFFFFFFFFFFFFFFFFFFFFFFFFFFFFFFFFFFFF AND PUSH20 0xFFFFFFFFFFFFFFFFFFFFFFFFFFFFFFFFFFFFFFFF AND DUP2 MSTORE PUSH1 0x20 ADD SWAP1 DUP2 MSTORE PUSH1 0x20 ADD PUSH1 0x0 KECCAK256 DUP4 DUP2 SLOAD DUP2 LT PUSH2 0x30AE JUMPI INVALID JUMPDEST SWAP1 PUSH1 0x0 MSTORE PUSH1 0x20 PUSH1 0x0 KECCAK256 SWAP1 PUSH1 0xB MUL ADD PUSH1 0x8 ADD PUSH1 0x0 DUP4 DUP2 MSTORE PUSH1 0x20 ADD SWAP1 DUP2 MSTORE PUSH1 0x20 ADD PUSH1 0x0 KECCAK256 SLOAD SWAP1 POP SWAP4 SWAP3 POP POP POP JUMP JUMPDEST PUSH1 0x6 PUSH1 0x20 MSTORE DUP2 PUSH1 0x0 MSTORE PUSH1 0x40 PUSH1 0x0 KECCAK256 DUP2 DUP2 SLOAD DUP2 LT PUSH2 0x30F3 JUMPI INVALID JUMPDEST SWAP1 PUSH1 0x0 MSTORE PUSH1 0x20 PUSH1 0x0 KECCAK256 SWAP1 PUSH1 0xB MUL ADD PUSH1 0x0 SWAP2 POP SWAP2 POP POP DUP1 PUSH1 0x0 ADD SLOAD SWAP1 DUP1 PUSH1 0x1 ADD SLOAD SWAP1 DUP1 PUSH1 0x2 ADD SLOAD SWAP1 DUP1 PUSH1 0x3 ADD SLOAD SWAP1 DUP1 PUSH1 0x4 ADD SLOAD SWAP1 DUP1 PUSH1 0x5 ADD SLOAD SWAP1 DUP1 PUSH1 0x6 ADD SLOAD SWAP1 DUP1 PUSH1 0x7 ADD SLOAD SWAP1 POP DUP9 JUMP JUMPDEST PUSH1 0x1 PUSH1 0x0 SWAP1 SLOAD SWAP1 PUSH2 0x100 EXP SWAP1 DIV PUSH20 0xFFFFFFFFFFFFFFFFFFFFFFFFFFFFFFFFFFFFFFFF AND DUP2 JUMP JUMPDEST PUSH1 0x0 PUSH2 0x31A4 DUP4 DUP4 PUSH1 0x40 MLOAD DUP1 PUSH1 0x40 ADD PUSH1 0x40 MSTORE DUP1 PUSH1 0x1E DUP2 MSTORE PUSH1 0x20 ADD PUSH32 0x536166654D6174683A207375627472616374696F6E206F766572666C6F770000 DUP2 MSTORE POP PUSH2 0x3304 JUMP JUMPDEST SWAP1 POP SWAP3 SWAP2 POP POP JUMP JUMPDEST PUSH1 0x0 PUSH2 0x31EE DUP4 DUP4 PUSH1 0x40 MLOAD DUP1 PUSH1 0x40 ADD PUSH1 0x40 MSTORE DUP1 PUSH1 0x1A DUP2 MSTORE PUSH1 0x20 ADD PUSH32 0x536166654D6174683A206469766973696F6E206279207A65726F000000000000 DUP2 MSTORE POP PUSH2 0x33C4 JUMP JUMPDEST SWAP1 POP SWAP3 SWAP2 POP POP JUMP JUMPDEST PUSH1 0x0 DUP1 DUP4 EQ ISZERO PUSH2 0x3209 JUMPI PUSH1 0x0 SWAP1 POP PUSH2 0x3276 JUMP JUMPDEST PUSH1 0x0 DUP3 DUP5 MUL SWAP1 POP DUP3 DUP5 DUP3 DUP2 PUSH2 0x321A JUMPI INVALID JUMPDEST DIV EQ PUSH2 0x3271 JUMPI PUSH1 0x40 MLOAD PUSH32 0x8C379A000000000000000000000000000000000000000000000000000000000 DUP2 MSTORE PUSH1 0x4 ADD DUP1 DUP1 PUSH1 0x20 ADD DUP3 DUP2 SUB DUP3 MSTORE PUSH1 0x21 DUP2 MSTORE PUSH1 0x20 ADD DUP1 PUSH2 0x34CF PUSH1 0x21 SWAP2 CODECOPY PUSH1 0x40 ADD SWAP2 POP POP PUSH1 0x40 MLOAD DUP1 SWAP2 SUB SWAP1 REVERT JUMPDEST DUP1 SWAP2 POP POP JUMPDEST SWAP3 SWAP2 POP POP JUMP JUMPDEST PUSH1 0x0 DUP1 DUP3 DUP5 ADD SWAP1 POP DUP4 DUP2 LT ISZERO PUSH2 0x32FA JUMPI PUSH1 0x40 MLOAD PUSH32 0x8C379A000000000000000000000000000000000000000000000000000000000 DUP2 MSTORE PUSH1 0x4 ADD DUP1 DUP1 PUSH1 0x20 ADD DUP3 DUP2 SUB DUP3 MSTORE PUSH1 0x1B DUP2 MSTORE PUSH1 0x20 ADD DUP1 PUSH32 0x536166654D6174683A206164646974696F6E206F766572666C6F770000000000 DUP2 MSTORE POP PUSH1 0x20 ADD SWAP2 POP POP PUSH1 0x40 MLOAD DUP1 SWAP2 SUB SWAP1 REVERT JUMPDEST DUP1 SWAP2 POP POP SWAP3 SWAP2 POP POP JUMP JUMPDEST PUSH1 0x0 DUP4 DUP4 GT ISZERO DUP3 SWAP1 PUSH2 0x33B1 JUMPI PUSH1 0x40 MLOAD PUSH32 0x8C379A000000000000000000000000000000000000000000000000000000000 DUP2 MSTORE PUSH1 0x4 ADD DUP1 DUP1 PUSH1 0x20 ADD DUP3 DUP2 SUB DUP3 MSTORE DUP4 DUP2 DUP2 MLOAD DUP2 MSTORE PUSH1 0x20 ADD SWAP2 POP DUP1 MLOAD SWAP1 PUSH1 0x20 ADD SWAP1 DUP1 DUP4 DUP4 PUSH1 0x0 JUMPDEST DUP4 DUP2 LT ISZERO PUSH2 0x3376 JUMPI DUP1 DUP3 ADD MLOAD DUP2 DUP5 ADD MSTORE PUSH1 0x20 DUP2 ADD SWAP1 POP PUSH2 0x335B JUMP JUMPDEST POP POP POP POP SWAP1 POP SWAP1 DUP2 ADD SWAP1 PUSH1 0x1F AND DUP1 ISZERO PUSH2 0x33A3 JUMPI DUP1 DUP3 SUB DUP1 MLOAD PUSH1 0x1 DUP4 PUSH1 0x20 SUB PUSH2 0x100 EXP SUB NOT AND DUP2 MSTORE PUSH1 0x20 ADD SWAP2 POP JUMPDEST POP SWAP3 POP POP POP PUSH1 0x40 MLOAD DUP1 SWAP2 SUB SWAP1 REVERT JUMPDEST POP PUSH1 0x0 DUP4 DUP6 SUB SWAP1 POP DUP1 SWAP2 POP POP SWAP4 SWAP3 POP POP POP JUMP JUMPDEST PUSH1 0x0 DUP1 DUP4 GT DUP3 SWAP1 PUSH2 0x3470 JUMPI PUSH1 0x40 MLOAD PUSH32 0x8C379A000000000000000000000000000000000000000000000000000000000 DUP2 MSTORE PUSH1 0x4 ADD DUP1 DUP1 PUSH1 0x20 ADD DUP3 DUP2 SUB DUP3 MSTORE DUP4 DUP2 DUP2 MLOAD DUP2 MSTORE PUSH1 0x20 ADD SWAP2 POP DUP1 MLOAD SWAP1 PUSH1 0x20 ADD SWAP1 DUP1 DUP4 DUP4 PUSH1 0x0 JUMPDEST DUP4 DUP2 LT ISZERO PUSH2 0x3435 JUMPI DUP1 DUP3 ADD MLOAD DUP2 DUP5 ADD MSTORE PUSH1 0x20 DUP2 ADD SWAP1 POP PUSH2 0x341A JUMP JUMPDEST POP POP POP POP SWAP1 POP SWAP1 DUP2 ADD SWAP1 PUSH1 0x1F AND DUP1 ISZERO PUSH2 0x3462 JUMPI DUP1 DUP3 SUB DUP1 MLOAD PUSH1 0x1 DUP4 PUSH1 0x20 SUB PUSH2 0x100 EXP SUB NOT AND DUP2 MSTORE PUSH1 0x20 ADD SWAP2 POP JUMPDEST POP SWAP3 POP POP POP PUSH1 0x40 MLOAD DUP1 SWAP2 SUB SWAP1 REVERT JUMPDEST POP PUSH1 0x0 DUP4 DUP6 DUP2 PUSH2 0x347C JUMPI INVALID JUMPDEST DIV SWAP1 POP DUP1 SWAP2 POP POP SWAP4 SWAP3 POP POP POP JUMP INVALID PUSH8 0x7261636520706572 PUSH10 0x6F6420656C6170736564 KECCAK256 PUSH16 0x7220746F6F206561726C79656E6F7567 PUSH9 0x2066756E6473207368 PUSH16 0x756C6420626520746865726520696E20 MSTORE8 0x49 POP MSTORE8 PUSH2 0x6665 0x4d PUSH2 0x7468 GASPRICE KECCAK256 PUSH14 0x756C7469706C69636174696F6E20 PUSH16 0x766572666C6F776465706F7369742063 PUSH2 0x6E6E PUSH16 0x74206265206C657373207468616E2063 PUSH16 0x6D6D69746D656E74A265627A7A723158 KECCAK256 PUSH25 0xA337BCF203CA3BAF63D4F84F99D2BD42329AC610B37044B404 JUMP 0xcd SWAP11 SWAP1 GASLIMIT JUMPI PUSH5 0x736F6C6343 STOP SDIV 0xc STOP ORIGIN "},"gasEstimates":{"creation":{"codeDepositCost":"2728400","executionCost":"infinite","totalCost":"infinite"},"external":{"EARTH_SECONDS_IN_MONTH()":"473","addFunds(uint256)":"infinite","appointeeVote(address,uint256)":"infinite","createSIPPlan(uint256,uint256,uint256,uint256,uint256,uint256,uint256)":"181684","fundsDeposit()":"495","getDepositDoneStatus(address,uint256,uint256)":"1117","getDepositStatus(address,uint256,uint256)":"3058","getPendingWithdrawlAmount(address,uint256,uint256,bool)":"infinite","getTime()":"345","monthlyDeposit(address,uint256,uint256,uint256)":"infinite","newSIP(uint256,uint256)":"infinite","owner()":"520","pendingBenefitAmountOfAllStakers()":"428","sipPlans(uint256)":"2543","sips(address,uint256)":"2637","token()":"585","toogleAppointee(uint256,address,bool)":"infinite","toogleNominee(uint256,address,bool)":"23311","viewAppointation(address,uint256,address)":"1140","viewNomination(address,uint256,address)":"1184","withdrawBenefit(address,uint256,uint256)":"infinite","withdrawFunds(uint256)":"infinite","withdrawPowerBooster(address,uint256)":"infinite"}},"methodIdentifiers":{"EARTH_SECONDS_IN_MONTH()":"1272d8d4","addFunds(uint256)":"be999705","appointeeVote(address,uint256)":"a4003ad4","createSIPPlan(uint256,uint256,uint256,uint256,uint256,uint256,uint256)":"295226c5","fundsDeposit()":"13dcc452","getDepositDoneStatus(address,uint256,uint256)":"f29de4c3","getDepositStatus(address,uint256,uint256)":"94bb9064","getPendingWithdrawlAmount(address,uint256,uint256,bool)":"9b3017c1","getTime()":"557ed1ba","monthlyDeposit(address,uint256,uint256,uint256)":"7f13c7a1","newSIP(uint256,uint256)":"53c0fb47","owner()":"8da5cb5b","pendingBenefitAmountOfAllStakers()":"2393768d","sipPlans(uint256)":"ef4ffe57","sips(address,uint256)":"f926b17a","token()":"fc0c546a","toogleAppointee(uint256,address,bool)":"ba50531a","toogleNominee(uint256,address,bool)":"0ce57b46","viewAppointation(address,uint256,address)":"81423a26","viewNomination(address,uint256,address)":"2e9721b6","withdrawBenefit(address,uint256,uint256)":"07f71149","withdrawFunds(uint256)":"155dd5ee","withdrawPowerBooster(address,uint256)":"26d9767b"}},"userdoc":{"methods":{},"notice":"24 oct 19:38 in last moment im changing panther to cheetah. this might give bugs. pls check - completed the operation. done lot of testings too. feeling confident. remove status from sip struct - might be required for nomineeWithdraw make gas estimation report - done: newSIP: 8 ERC20 - deposit: 3 ERC20 - withdraw: 2 ERC20 - 1st powerbooster: 3.5 ERC20 - 2nd & 3rd poowerbooster 1.8 ERC20 nominee can withdraw benefit after one year do this - done add multisig trustee / appointee - done power booster deduction to be sent to owner address - no, added this to fundsDeposit B-) create get methods for all struct mappings make option to make plan inactivw add condition of cap in new users creating SIP. - added in deposit too ensure SIP storage _sip everywhere - ensured check for DAO type vulnerabilities*"}}