{"abi":[{"inputs":[{"internalType":"contract ERC20","name":"_token","type":"address"}],"payable":false,"stateMutability":"nonpayable","type":"constructor"},{"anonymous":false,"inputs":[{"indexed":true,"internalType":"address","name":"_staker","type":"address"},{"indexed":true,"internalType":"uint256","name":"_sipId","type":"uint256"},{"indexed":false,"internalType":"uint256","name":"_fromMonthId","type":"uint256"},{"indexed":false,"internalType":"uint256","name":"_toMonthId","type":"uint256"},{"indexed":false,"internalType":"uint256","name":"_withdrawlAmount","type":"uint256"},{"indexed":false,"internalType":"address","name":"_withdrawnBy","type":"address"}],"name":"BenefitWithdrawl","type":"event"},{"anonymous":false,"inputs":[{"indexed":false,"internalType":"uint256","name":"_depositAmount","type":"uint256"}],"name":"FundsDeposited","type":"event"},{"anonymous":false,"inputs":[{"indexed":false,"internalType":"uint256","name":"_withdrawlAmount","type":"uint256"}],"name":"FundsWithdrawn","type":"event"},{"anonymous":false,"inputs":[{"indexed":true,"internalType":"address","name":"_staker","type":"address"},{"indexed":true,"internalType":"uint256","name":"_sipId","type":"uint256"},{"indexed":false,"internalType":"uint256","name":"_monthId","type":"uint256"},{"indexed":false,"internalType":"uint256","name":"_depositAmount","type":"uint256"},{"indexed":false,"internalType":"uint256","name":"_benefitQueued","type":"uint256"},{"indexed":false,"internalType":"address","name":"_depositedBy","type":"address"}],"name":"NewDeposit","type":"event"},{"anonymous":false,"inputs":[{"indexed":true,"internalType":"address","name":"_staker","type":"address"},{"indexed":false,"internalType":"uint256","name":"_sipId","type":"uint256"},{"indexed":false,"internalType":"uint256","name":"_monthlyCommitmentAmount","type":"uint256"}],"name":"NewSIP","type":"event"},{"anonymous":false,"inputs":[{"indexed":true,"internalType":"address","name":"_staker","type":"address"},{"indexed":true,"internalType":"uint256","name":"_sipId","type":"uint256"},{"indexed":true,"internalType":"address","name":"_nomineeAddress","type":"address"},{"indexed":false,"internalType":"bool","name":"_nomineeStatus","type":"bool"}],"name":"NomineeUpdated","type":"event"},{"anonymous":false,"inputs":[{"indexed":true,"internalType":"address","name":"_staker","type":"address"},{"indexed":true,"internalType":"uint256","name":"_sipId","type":"uint256"},{"indexed":false,"internalType":"uint256","name":"_boosterSerial","type":"uint256"},{"indexed":false,"internalType":"uint256","name":"_withdrawlAmount","type":"uint256"},{"indexed":false,"internalType":"address","name":"_withdrawnBy","type":"address"}],"name":"PowerBoosterWithdrawl","type":"event"},{"constant":true,"inputs":[],"name":"EARTH_SECONDS_IN_MONTH","outputs":[{"internalType":"uint256","name":"","type":"uint256"}],"payable":false,"stateMutability":"view","type":"function"},{"constant":false,"inputs":[{"internalType":"uint256","name":"_depositAmount","type":"uint256"}],"name":"addFunds","outputs":[],"payable":false,"stateMutability":"nonpayable","type":"function"},{"constant":true,"inputs":[{"internalType":"address","name":"_stakerAddress","type":"address"},{"internalType":"uint256","name":"_sipId","type":"uint256"},{"internalType":"uint256","name":"_boosterSerial","type":"uint256"}],"name":"calculatePowerBooster","outputs":[{"internalType":"uint256","name":"","type":"uint256"}],"payable":false,"stateMutability":"view","type":"function"},{"constant":false,"inputs":[{"internalType":"uint256","name":"_minimumMonthlyCommitmentAmount","type":"uint256"},{"internalType":"uint256","name":"_accumulationPeriodMonths","type":"uint256"},{"internalType":"uint256","name":"_benefitPeriodYears","type":"uint256"},{"internalType":"uint256","name":"_gracePeriodSeconds","type":"uint256"},{"internalType":"uint256","name":"_monthlyBenefitFactor","type":"uint256"},{"internalType":"uint256","name":"_gracePenaltyFactor","type":"uint256"},{"internalType":"uint256","name":"_defaultPenaltyFactor","type":"uint256"}],"name":"createSIPPlan","outputs":[],"payable":false,"stateMutability":"nonpayable","type":"function"},{"constant":true,"inputs":[],"name":"fundsDeposit","outputs":[{"internalType":"uint256","name":"","type":"uint256"}],"payable":false,"stateMutability":"view","type":"function"},{"constant":true,"inputs":[{"internalType":"address","name":"_userAddress","type":"address"},{"internalType":"uint256","name":"_sipId","type":"uint256"},{"internalType":"uint256","name":"_monthId","type":"uint256"}],"name":"getDepositDoneStatus","outputs":[{"internalType":"uint256","name":"","type":"uint256"}],"payable":false,"stateMutability":"view","type":"function"},{"constant":true,"inputs":[{"internalType":"address","name":"_userAddress","type":"address"},{"internalType":"uint256","name":"_sipId","type":"uint256"},{"internalType":"uint256","name":"_monthId","type":"uint256"}],"name":"getDepositStatus","outputs":[{"internalType":"uint256","name":"","type":"uint256"}],"payable":false,"stateMutability":"view","type":"function"},{"constant":true,"inputs":[{"internalType":"address","name":"_stakerAddress","type":"address"},{"internalType":"uint256","name":"_sipId","type":"uint256"},{"internalType":"uint256","name":"_withdrawlMonthId","type":"uint256"},{"internalType":"bool","name":"_isNomineeWithdrawing","type":"bool"}],"name":"getPendingWithdrawlAmount","outputs":[{"internalType":"uint256","name":"","type":"uint256"}],"payable":false,"stateMutability":"view","type":"function"},{"constant":true,"inputs":[],"name":"getTime","outputs":[{"internalType":"uint256","name":"","type":"uint256"}],"payable":false,"stateMutability":"view","type":"function"},{"constant":false,"inputs":[{"internalType":"address","name":"_stakerAddress","type":"address"},{"internalType":"uint256","name":"_sipId","type":"uint256"},{"internalType":"uint256","name":"_depositAmount","type":"uint256"},{"internalType":"uint256","name":"_monthId","type":"uint256"}],"name":"monthlyDeposit","outputs":[],"payable":false,"stateMutability":"nonpayable","type":"function"},{"constant":false,"inputs":[{"internalType":"uint256","name":"_planId","type":"uint256"},{"internalType":"uint256","name":"_monthlyCommitmentAmount","type":"uint256"}],"name":"newSIP","outputs":[],"payable":false,"stateMutability":"nonpayable","type":"function"},{"constant":true,"inputs":[],"name":"owner","outputs":[{"internalType":"address","name":"","type":"address"}],"payable":false,"stateMutability":"view","type":"function"},{"constant":true,"inputs":[],"name":"pendingBenefitAmountOfAllStakers","outputs":[{"internalType":"uint256","name":"","type":"uint256"}],"payable":false,"stateMutability":"view","type":"function"},{"constant":true,"inputs":[{"internalType":"uint256","name":"","type":"uint256"}],"name":"sipPlans","outputs":[{"internalType":"bool","name":"isPlanActive","type":"bool"},{"internalType":"uint256","name":"minimumMonthlyCommitmentAmount","type":"uint256"},{"internalType":"uint256","name":"accumulationPeriodMonths","type":"uint256"},{"internalType":"uint256","name":"benefitPeriodYears","type":"uint256"},{"internalType":"uint256","name":"gracePeriodSeconds","type":"uint256"},{"internalType":"uint256","name":"monthlyBenefitFactor","type":"uint256"},{"internalType":"uint256","name":"gracePenaltyFactor","type":"uint256"},{"internalType":"uint256","name":"defaultPenaltyFactor","type":"uint256"}],"payable":false,"stateMutability":"view","type":"function"},{"constant":true,"inputs":[{"internalType":"address","name":"","type":"address"},{"internalType":"uint256","name":"","type":"uint256"}],"name":"sips","outputs":[{"internalType":"uint256","name":"planId","type":"uint256"},{"internalType":"uint256","name":"status","type":"uint256"},{"internalType":"uint256","name":"stakingTimestamp","type":"uint256"},{"internalType":"uint256","name":"monthlyCommitmentAmount","type":"uint256"},{"internalType":"uint256","name":"totalDeposited","type":"uint256"},{"internalType":"uint256","name":"lastWithdrawlMonthId","type":"uint256"},{"internalType":"uint256","name":"powerBoosterWithdrawls","type":"uint256"},{"internalType":"uint256","name":"numberOfAppointees","type":"uint256"},{"internalType":"uint256","name":"appointeeVotes","type":"uint256"}],"payable":false,"stateMutability":"view","type":"function"},{"constant":true,"inputs":[],"name":"token","outputs":[{"internalType":"contract ERC20","name":"","type":"address"}],"payable":false,"stateMutability":"view","type":"function"},{"constant":false,"inputs":[{"internalType":"uint256","name":"_sipId","type":"uint256"},{"internalType":"address","name":"_nomineeAddress","type":"address"},{"internalType":"bool","name":"_newNomineeStatus","type":"bool"}],"name":"toogleNominee","outputs":[],"payable":false,"stateMutability":"nonpayable","type":"function"},{"constant":true,"inputs":[{"internalType":"address","name":"_userAddress","type":"address"},{"internalType":"uint256","name":"_sipId","type":"uint256"},{"internalType":"address","name":"_nomineeAddress","type":"address"}],"name":"viewNomination","outputs":[{"internalType":"bool","name":"","type":"bool"}],"payable":false,"stateMutability":"view","type":"function"},{"constant":false,"inputs":[{"internalType":"address","name":"_stakerAddress","type":"address"},{"internalType":"uint256","name":"_sipId","type":"uint256"},{"internalType":"uint256","name":"_withdrawlmonthId","type":"uint256"}],"name":"withdrawBenefit","outputs":[],"payable":false,"stateMutability":"nonpayable","type":"function"},{"constant":false,"inputs":[{"internalType":"uint256","name":"_withdrawlAmount","type":"uint256"}],"name":"withdrawFunds","outputs":[],"payable":false,"stateMutability":"nonpayable","type":"function"},{"constant":false,"inputs":[{"internalType":"address","name":"_stakerAddress","type":"address"},{"internalType":"uint256","name":"_sipId","type":"uint256"}],"name":"withdrawPowerBooster","outputs":[],"payable":false,"stateMutability":"nonpayable","type":"function"}],"devdoc":{"methods":{}},"evm":{"assembly":"    /* \"TimeAllySIP.sol\":727:15858  contract TimeAllySIP {... */\n  mstore(0x40, 0x80)\n    /* \"TimeAllySIP.sol\":2455:2462  2629744 */\n  0x282070\n    /* \"TimeAllySIP.sol\":2415:2462  uint256 public EARTH_SECONDS_IN_MONTH = 2629744 */\n  0x02\n  sstore\n    /* \"TimeAllySIP.sol\":3931:4013  constructor(ERC20 _token) public {... */\n  callvalue\n    /* \"--CODEGEN--\":8:17   */\n  dup1\n    /* \"--CODEGEN--\":5:7   */\n  iszero\n  tag_1\n  jumpi\n    /* \"--CODEGEN--\":30:31   */\n  0x00\n    /* \"--CODEGEN--\":27:28   */\n  dup1\n    /* \"--CODEGEN--\":20:32   */\n  revert\n    /* \"--CODEGEN--\":5:7   */\ntag_1:\n    /* \"TimeAllySIP.sol\":3931:4013  constructor(ERC20 _token) public {... */\n  pop\n  mload(0x40)\n  sub(codesize, bytecodeSize)\n  dup1\n  bytecodeSize\n  dup4\n  codecopy\n  dup2\n  dup2\n  add\n  0x40\n  mstore\n    /* \"--CODEGEN--\":13:15   */\n  0x20\n    /* \"--CODEGEN--\":8:11   */\n  dup2\n    /* \"--CODEGEN--\":5:16   */\n  lt\n    /* \"--CODEGEN--\":2:4   */\n  iszero\n  tag_2\n  jumpi\n    /* \"--CODEGEN--\":29:30   */\n  0x00\n    /* \"--CODEGEN--\":26:27   */\n  dup1\n    /* \"--CODEGEN--\":19:31   */\n  revert\n    /* \"--CODEGEN--\":2:4   */\ntag_2:\n    /* \"TimeAllySIP.sol\":3931:4013  constructor(ERC20 _token) public {... */\n  dup2\n  add\n  swap1\n  dup1\n  dup1\n  mload\n  swap1\n  0x20\n  add\n  swap1\n  swap3\n  swap2\n  swap1\n  pop\n  pop\n  pop\n    /* \"TimeAllySIP.sol\":3978:3988  msg.sender */\n  caller\n    /* \"TimeAllySIP.sol\":3970:3975  owner */\n  0x00\n  dup1\n    /* \"TimeAllySIP.sol\":3970:3988  owner = msg.sender */\n  0x0100\n  exp\n  dup2\n  sload\n  dup2\n  0xffffffffffffffffffffffffffffffffffffffff\n  mul\n  not\n  and\n  swap1\n  dup4\n  0xffffffffffffffffffffffffffffffffffffffff\n  and\n  mul\n  or\n  swap1\n  sstore\n  pop\n    /* \"TimeAllySIP.sol\":4002:4008  _token */\n  dup1\n    /* \"TimeAllySIP.sol\":3994:3999  token */\n  0x01\n  0x00\n    /* \"TimeAllySIP.sol\":3994:4008  token = _token */\n  0x0100\n  exp\n  dup2\n  sload\n  dup2\n  0xffffffffffffffffffffffffffffffffffffffff\n  mul\n  not\n  and\n  swap1\n  dup4\n  0xffffffffffffffffffffffffffffffffffffffff\n  and\n  mul\n  or\n  swap1\n  sstore\n  pop\n    /* \"TimeAllySIP.sol\":3931:4013  constructor(ERC20 _token) public {... */\n  pop\n    /* \"TimeAllySIP.sol\":727:15858  contract TimeAllySIP {... */\n  dataSize(sub_0)\n  dup1\n  dataOffset(sub_0)\n  0x00\n  codecopy\n  0x00\n  return\nstop\n\nsub_0: assembly {\n        /* \"TimeAllySIP.sol\":727:15858  contract TimeAllySIP {... */\n      mstore(0x40, 0x80)\n      callvalue\n        /* \"--CODEGEN--\":8:17   */\n      dup1\n        /* \"--CODEGEN--\":5:7   */\n      iszero\n      tag_1\n      jumpi\n        /* \"--CODEGEN--\":30:31   */\n      0x00\n        /* \"--CODEGEN--\":27:28   */\n      dup1\n        /* \"--CODEGEN--\":20:32   */\n      revert\n        /* \"--CODEGEN--\":5:7   */\n    tag_1:\n        /* \"TimeAllySIP.sol\":727:15858  contract TimeAllySIP {... */\n      pop\n      jumpi(tag_2, lt(calldatasize, 0x04))\n      shr(0xe0, calldataload(0x00))\n      dup1\n      0x557ed1ba\n      gt\n      tag_24\n      jumpi\n      dup1\n      0x9b3017c1\n      gt\n      tag_25\n      jumpi\n      dup1\n      0x9b3017c1\n      eq\n      tag_18\n      jumpi\n      dup1\n      0xbe999705\n      eq\n      tag_19\n      jumpi\n      dup1\n      0xef4ffe57\n      eq\n      tag_20\n      jumpi\n      dup1\n      0xf29de4c3\n      eq\n      tag_21\n      jumpi\n      dup1\n      0xf926b17a\n      eq\n      tag_22\n      jumpi\n      dup1\n      0xfc0c546a\n      eq\n      tag_23\n      jumpi\n      jump(tag_2)\n    tag_25:\n      dup1\n      0x557ed1ba\n      eq\n      tag_13\n      jumpi\n      dup1\n      0x7f13c7a1\n      eq\n      tag_14\n      jumpi\n      dup1\n      0x8da5cb5b\n      eq\n      tag_15\n      jumpi\n      dup1\n      0x94bb9064\n      eq\n      tag_16\n      jumpi\n      dup1\n      0x983b4b6e\n      eq\n      tag_17\n      jumpi\n      jump(tag_2)\n    tag_24:\n      dup1\n      0x2393768d\n      gt\n      tag_26\n      jumpi\n      dup1\n      0x2393768d\n      eq\n      tag_8\n      jumpi\n      dup1\n      0x26d9767b\n      eq\n      tag_9\n      jumpi\n      dup1\n      0x295226c5\n      eq\n      tag_10\n      jumpi\n      dup1\n      0x2e9721b6\n      eq\n      tag_11\n      jumpi\n      dup1\n      0x53c0fb47\n      eq\n      tag_12\n      jumpi\n      jump(tag_2)\n    tag_26:\n      dup1\n      0x07f71149\n      eq\n      tag_3\n      jumpi\n      dup1\n      0x0ce57b46\n      eq\n      tag_4\n      jumpi\n      dup1\n      0x1272d8d4\n      eq\n      tag_5\n      jumpi\n      dup1\n      0x13dcc452\n      eq\n      tag_6\n      jumpi\n      dup1\n      0x155dd5ee\n      eq\n      tag_7\n      jumpi\n    tag_2:\n      0x00\n      dup1\n      revert\n        /* \"TimeAllySIP.sol\":12049:13150  function withdrawBenefit(... */\n    tag_3:\n      tag_27\n      0x04\n      dup1\n      calldatasize\n      sub\n        /* \"--CODEGEN--\":13:15   */\n      0x60\n        /* \"--CODEGEN--\":8:11   */\n      dup2\n        /* \"--CODEGEN--\":5:16   */\n      lt\n        /* \"--CODEGEN--\":2:4   */\n      iszero\n      tag_28\n      jumpi\n        /* \"--CODEGEN--\":29:30   */\n      0x00\n        /* \"--CODEGEN--\":26:27   */\n      dup1\n        /* \"--CODEGEN--\":19:31   */\n      revert\n        /* \"--CODEGEN--\":2:4   */\n    tag_28:\n        /* \"TimeAllySIP.sol\":12049:13150  function withdrawBenefit(... */\n      dup2\n      add\n      swap1\n      dup1\n      dup1\n      calldataload\n      0xffffffffffffffffffffffffffffffffffffffff\n      and\n      swap1\n      0x20\n      add\n      swap1\n      swap3\n      swap2\n      swap1\n      dup1\n      calldataload\n      swap1\n      0x20\n      add\n      swap1\n      swap3\n      swap2\n      swap1\n      dup1\n      calldataload\n      swap1\n      0x20\n      add\n      swap1\n      swap3\n      swap2\n      swap1\n      pop\n      pop\n      pop\n      tag_29\n      jump\t// in\n    tag_27:\n      stop\n        /* \"TimeAllySIP.sol\":15337:15594  function toogleNominee(uint256 _sipId, address _nomineeAddress, bool _newNomineeStatus) public {... */\n    tag_4:\n      tag_30\n      0x04\n      dup1\n      calldatasize\n      sub\n        /* \"--CODEGEN--\":13:15   */\n      0x60\n        /* \"--CODEGEN--\":8:11   */\n      dup2\n        /* \"--CODEGEN--\":5:16   */\n      lt\n        /* \"--CODEGEN--\":2:4   */\n      iszero\n      tag_31\n      jumpi\n        /* \"--CODEGEN--\":29:30   */\n      0x00\n        /* \"--CODEGEN--\":26:27   */\n      dup1\n        /* \"--CODEGEN--\":19:31   */\n      revert\n        /* \"--CODEGEN--\":2:4   */\n    tag_31:\n        /* \"TimeAllySIP.sol\":15337:15594  function toogleNominee(uint256 _sipId, address _nomineeAddress, bool _newNomineeStatus) public {... */\n      dup2\n      add\n      swap1\n      dup1\n      dup1\n      calldataload\n      swap1\n      0x20\n      add\n      swap1\n      swap3\n      swap2\n      swap1\n      dup1\n      calldataload\n      0xffffffffffffffffffffffffffffffffffffffff\n      and\n      swap1\n      0x20\n      add\n      swap1\n      swap3\n      swap2\n      swap1\n      dup1\n      calldataload\n      iszero\n      iszero\n      swap1\n      0x20\n      add\n      swap1\n      swap3\n      swap2\n      swap1\n      pop\n      pop\n      pop\n      tag_32\n      jump\t// in\n    tag_30:\n      stop\n        /* \"TimeAllySIP.sol\":2415:2462  uint256 public EARTH_SECONDS_IN_MONTH = 2629744 */\n    tag_5:\n      tag_33\n      tag_34\n      jump\t// in\n    tag_33:\n      mload(0x40)\n      dup1\n      dup3\n      dup2\n      mstore\n      0x20\n      add\n      swap2\n      pop\n      pop\n      mload(0x40)\n      dup1\n      swap2\n      sub\n      swap1\n      return\n        /* \"TimeAllySIP.sol\":2517:2544  uint256 public fundsDeposit */\n    tag_6:\n      tag_35\n      tag_36\n      jump\t// in\n    tag_35:\n      mload(0x40)\n      dup1\n      dup3\n      dup2\n      mstore\n      0x20\n      add\n      swap2\n      pop\n      pop\n      mload(0x40)\n      dup1\n      swap2\n      sub\n      swap1\n      return\n        /* \"TimeAllySIP.sol\":5450:5807  function withdrawFunds(uint256 _withdrawlAmount) public onlyOwner {... */\n    tag_7:\n      tag_37\n      0x04\n      dup1\n      calldatasize\n      sub\n        /* \"--CODEGEN--\":13:15   */\n      0x20\n        /* \"--CODEGEN--\":8:11   */\n      dup2\n        /* \"--CODEGEN--\":5:16   */\n      lt\n        /* \"--CODEGEN--\":2:4   */\n      iszero\n      tag_38\n      jumpi\n        /* \"--CODEGEN--\":29:30   */\n      0x00\n        /* \"--CODEGEN--\":26:27   */\n      dup1\n        /* \"--CODEGEN--\":19:31   */\n      revert\n        /* \"--CODEGEN--\":2:4   */\n    tag_38:\n        /* \"TimeAllySIP.sol\":5450:5807  function withdrawFunds(uint256 _withdrawlAmount) public onlyOwner {... */\n      dup2\n      add\n      swap1\n      dup1\n      dup1\n      calldataload\n      swap1\n      0x20\n      add\n      swap1\n      swap3\n      swap2\n      swap1\n      pop\n      pop\n      pop\n      tag_39\n      jump\t// in\n    tag_37:\n      stop\n        /* \"TimeAllySIP.sol\":2466:2513  uint256 public pendingBenefitAmountOfAllStakers */\n    tag_8:\n      tag_40\n      tag_41\n      jump\t// in\n    tag_40:\n      mload(0x40)\n      dup1\n      dup3\n      dup2\n      mstore\n      0x20\n      add\n      swap2\n      pop\n      pop\n      mload(0x40)\n      dup1\n      swap2\n      sub\n      swap1\n      return\n        /* \"TimeAllySIP.sol\":14109:15333  function withdrawPowerBooster(... */\n    tag_9:\n      tag_42\n      0x04\n      dup1\n      calldatasize\n      sub\n        /* \"--CODEGEN--\":13:15   */\n      0x40\n        /* \"--CODEGEN--\":8:11   */\n      dup2\n        /* \"--CODEGEN--\":5:16   */\n      lt\n        /* \"--CODEGEN--\":2:4   */\n      iszero\n      tag_43\n      jumpi\n        /* \"--CODEGEN--\":29:30   */\n      0x00\n        /* \"--CODEGEN--\":26:27   */\n      dup1\n        /* \"--CODEGEN--\":19:31   */\n      revert\n        /* \"--CODEGEN--\":2:4   */\n    tag_43:\n        /* \"TimeAllySIP.sol\":14109:15333  function withdrawPowerBooster(... */\n      dup2\n      add\n      swap1\n      dup1\n      dup1\n      calldataload\n      0xffffffffffffffffffffffffffffffffffffffff\n      and\n      swap1\n      0x20\n      add\n      swap1\n      swap3\n      swap2\n      swap1\n      dup1\n      calldataload\n      swap1\n      0x20\n      add\n      swap1\n      swap3\n      swap2\n      swap1\n      pop\n      pop\n      pop\n      tag_44\n      jump\t// in\n    tag_42:\n      stop\n        /* \"TimeAllySIP.sol\":4221:5217  function createSIPPlan(... */\n    tag_10:\n      tag_45\n      0x04\n      dup1\n      calldatasize\n      sub\n        /* \"--CODEGEN--\":13:16   */\n      0xe0\n        /* \"--CODEGEN--\":8:11   */\n      dup2\n        /* \"--CODEGEN--\":5:17   */\n      lt\n        /* \"--CODEGEN--\":2:4   */\n      iszero\n      tag_46\n      jumpi\n        /* \"--CODEGEN--\":30:31   */\n      0x00\n        /* \"--CODEGEN--\":27:28   */\n      dup1\n        /* \"--CODEGEN--\":20:32   */\n      revert\n        /* \"--CODEGEN--\":2:4   */\n    tag_46:\n        /* \"TimeAllySIP.sol\":4221:5217  function createSIPPlan(... */\n      dup2\n      add\n      swap1\n      dup1\n      dup1\n      calldataload\n      swap1\n      0x20\n      add\n      swap1\n      swap3\n      swap2\n      swap1\n      dup1\n      calldataload\n      swap1\n      0x20\n      add\n      swap1\n      swap3\n      swap2\n      swap1\n      dup1\n      calldataload\n      swap1\n      0x20\n      add\n      swap1\n      swap3\n      swap2\n      swap1\n      dup1\n      calldataload\n      swap1\n      0x20\n      add\n      swap1\n      swap3\n      swap2\n      swap1\n      dup1\n      calldataload\n      swap1\n      0x20\n      add\n      swap1\n      swap3\n      swap2\n      swap1\n      dup1\n      calldataload\n      swap1\n      0x20\n      add\n      swap1\n      swap3\n      swap2\n      swap1\n      dup1\n      calldataload\n      swap1\n      0x20\n      add\n      swap1\n      swap3\n      swap2\n      swap1\n      pop\n      pop\n      pop\n      tag_47\n      jump\t// in\n    tag_45:\n      stop\n        /* \"TimeAllySIP.sol\":15598:15782  function viewNomination(address _userAddress, uint256 _sipId, address _nomineeAddress) public view returns (bool) {... */\n    tag_11:\n      tag_48\n      0x04\n      dup1\n      calldatasize\n      sub\n        /* \"--CODEGEN--\":13:15   */\n      0x60\n        /* \"--CODEGEN--\":8:11   */\n      dup2\n        /* \"--CODEGEN--\":5:16   */\n      lt\n        /* \"--CODEGEN--\":2:4   */\n      iszero\n      tag_49\n      jumpi\n        /* \"--CODEGEN--\":29:30   */\n      0x00\n        /* \"--CODEGEN--\":26:27   */\n      dup1\n        /* \"--CODEGEN--\":19:31   */\n      revert\n        /* \"--CODEGEN--\":2:4   */\n    tag_49:\n        /* \"TimeAllySIP.sol\":15598:15782  function viewNomination(address _userAddress, uint256 _sipId, address _nomineeAddress) public view returns (bool) {... */\n      dup2\n      add\n      swap1\n      dup1\n      dup1\n      calldataload\n      0xffffffffffffffffffffffffffffffffffffffff\n      and\n      swap1\n      0x20\n      add\n      swap1\n      swap3\n      swap2\n      swap1\n      dup1\n      calldataload\n      swap1\n      0x20\n      add\n      swap1\n      swap3\n      swap2\n      swap1\n      dup1\n      calldataload\n      0xffffffffffffffffffffffffffffffffffffffff\n      and\n      swap1\n      0x20\n      add\n      swap1\n      swap3\n      swap2\n      swap1\n      pop\n      pop\n      pop\n      tag_50\n      jump\t// in\n    tag_48:\n      mload(0x40)\n      dup1\n      dup3\n      iszero\n      iszero\n      iszero\n      iszero\n      dup2\n      mstore\n      0x20\n      add\n      swap2\n      pop\n      pop\n      mload(0x40)\n      dup1\n      swap2\n      sub\n      swap1\n      return\n        /* \"TimeAllySIP.sol\":5811:7530  function newSIP(... */\n    tag_12:\n      tag_51\n      0x04\n      dup1\n      calldatasize\n      sub\n        /* \"--CODEGEN--\":13:15   */\n      0x40\n        /* \"--CODEGEN--\":8:11   */\n      dup2\n        /* \"--CODEGEN--\":5:16   */\n      lt\n        /* \"--CODEGEN--\":2:4   */\n      iszero\n      tag_52\n      jumpi\n        /* \"--CODEGEN--\":29:30   */\n      0x00\n        /* \"--CODEGEN--\":26:27   */\n      dup1\n        /* \"--CODEGEN--\":19:31   */\n      revert\n        /* \"--CODEGEN--\":2:4   */\n    tag_52:\n        /* \"TimeAllySIP.sol\":5811:7530  function newSIP(... */\n      dup2\n      add\n      swap1\n      dup1\n      dup1\n      calldataload\n      swap1\n      0x20\n      add\n      swap1\n      swap3\n      swap2\n      swap1\n      dup1\n      calldataload\n      swap1\n      0x20\n      add\n      swap1\n      swap3\n      swap2\n      swap1\n      pop\n      pop\n      pop\n      tag_53\n      jump\t// in\n    tag_51:\n      stop\n        /* \"TimeAllySIP.sol\":15786:15856  function getTime() public view returns (uint256) {... */\n    tag_13:\n      tag_54\n      tag_55\n      jump\t// in\n    tag_54:\n      mload(0x40)\n      dup1\n      dup3\n      dup2\n      mstore\n      0x20\n      add\n      swap2\n      pop\n      pop\n      mload(0x40)\n      dup1\n      swap2\n      sub\n      swap1\n      return\n        /* \"TimeAllySIP.sol\":8440:10778  function monthlyDeposit(... */\n    tag_14:\n      tag_56\n      0x04\n      dup1\n      calldatasize\n      sub\n        /* \"--CODEGEN--\":13:16   */\n      0x80\n        /* \"--CODEGEN--\":8:11   */\n      dup2\n        /* \"--CODEGEN--\":5:17   */\n      lt\n        /* \"--CODEGEN--\":2:4   */\n      iszero\n      tag_57\n      jumpi\n        /* \"--CODEGEN--\":30:31   */\n      0x00\n        /* \"--CODEGEN--\":27:28   */\n      dup1\n        /* \"--CODEGEN--\":20:32   */\n      revert\n        /* \"--CODEGEN--\":2:4   */\n    tag_57:\n        /* \"TimeAllySIP.sol\":8440:10778  function monthlyDeposit(... */\n      dup2\n      add\n      swap1\n      dup1\n      dup1\n      calldataload\n      0xffffffffffffffffffffffffffffffffffffffff\n      and\n      swap1\n      0x20\n      add\n      swap1\n      swap3\n      swap2\n      swap1\n      dup1\n      calldataload\n      swap1\n      0x20\n      add\n      swap1\n      swap3\n      swap2\n      swap1\n      dup1\n      calldataload\n      swap1\n      0x20\n      add\n      swap1\n      swap3\n      swap2\n      swap1\n      dup1\n      calldataload\n      swap1\n      0x20\n      add\n      swap1\n      swap3\n      swap2\n      swap1\n      pop\n      pop\n      pop\n      tag_58\n      jump\t// in\n    tag_56:\n      stop\n        /* \"TimeAllySIP.sol\":2305:2325  address public owner */\n    tag_15:\n      tag_59\n      tag_60\n      jump\t// in\n    tag_59:\n      mload(0x40)\n      dup1\n      dup3\n      0xffffffffffffffffffffffffffffffffffffffff\n      and\n      0xffffffffffffffffffffffffffffffffffffffff\n      and\n      dup2\n      mstore\n      0x20\n      add\n      swap2\n      pop\n      pop\n      mload(0x40)\n      dup1\n      swap2\n      sub\n      swap1\n      return\n        /* \"TimeAllySIP.sol\":7534:8436  function getDepositStatus(address _userAddress, uint256 _sipId, uint256 _monthId) public view returns (uint256) {... */\n    tag_16:\n      tag_61\n      0x04\n      dup1\n      calldatasize\n      sub\n        /* \"--CODEGEN--\":13:15   */\n      0x60\n        /* \"--CODEGEN--\":8:11   */\n      dup2\n        /* \"--CODEGEN--\":5:16   */\n      lt\n        /* \"--CODEGEN--\":2:4   */\n      iszero\n      tag_62\n      jumpi\n        /* \"--CODEGEN--\":29:30   */\n      0x00\n        /* \"--CODEGEN--\":26:27   */\n      dup1\n        /* \"--CODEGEN--\":19:31   */\n      revert\n        /* \"--CODEGEN--\":2:4   */\n    tag_62:\n        /* \"TimeAllySIP.sol\":7534:8436  function getDepositStatus(address _userAddress, uint256 _sipId, uint256 _monthId) public view returns (uint256) {... */\n      dup2\n      add\n      swap1\n      dup1\n      dup1\n      calldataload\n      0xffffffffffffffffffffffffffffffffffffffff\n      and\n      swap1\n      0x20\n      add\n      swap1\n      swap3\n      swap2\n      swap1\n      dup1\n      calldataload\n      swap1\n      0x20\n      add\n      swap1\n      swap3\n      swap2\n      swap1\n      dup1\n      calldataload\n      swap1\n      0x20\n      add\n      swap1\n      swap3\n      swap2\n      swap1\n      pop\n      pop\n      pop\n      tag_63\n      jump\t// in\n    tag_61:\n      mload(0x40)\n      dup1\n      dup3\n      dup2\n      mstore\n      0x20\n      add\n      swap2\n      pop\n      pop\n      mload(0x40)\n      dup1\n      swap2\n      sub\n      swap1\n      return\n        /* \"TimeAllySIP.sol\":13154:14105  function calculatePowerBooster(... */\n    tag_17:\n      tag_64\n      0x04\n      dup1\n      calldatasize\n      sub\n        /* \"--CODEGEN--\":13:15   */\n      0x60\n        /* \"--CODEGEN--\":8:11   */\n      dup2\n        /* \"--CODEGEN--\":5:16   */\n      lt\n        /* \"--CODEGEN--\":2:4   */\n      iszero\n      tag_65\n      jumpi\n        /* \"--CODEGEN--\":29:30   */\n      0x00\n        /* \"--CODEGEN--\":26:27   */\n      dup1\n        /* \"--CODEGEN--\":19:31   */\n      revert\n        /* \"--CODEGEN--\":2:4   */\n    tag_65:\n        /* \"TimeAllySIP.sol\":13154:14105  function calculatePowerBooster(... */\n      dup2\n      add\n      swap1\n      dup1\n      dup1\n      calldataload\n      0xffffffffffffffffffffffffffffffffffffffff\n      and\n      swap1\n      0x20\n      add\n      swap1\n      swap3\n      swap2\n      swap1\n      dup1\n      calldataload\n      swap1\n      0x20\n      add\n      swap1\n      swap3\n      swap2\n      swap1\n      dup1\n      calldataload\n      swap1\n      0x20\n      add\n      swap1\n      swap3\n      swap2\n      swap1\n      pop\n      pop\n      pop\n      tag_66\n      jump\t// in\n    tag_64:\n      mload(0x40)\n      dup1\n      dup3\n      dup2\n      mstore\n      0x20\n      add\n      swap2\n      pop\n      pop\n      mload(0x40)\n      dup1\n      swap2\n      sub\n      swap1\n      return\n        /* \"TimeAllySIP.sol\":10782:12045  function getPendingWithdrawlAmount(... */\n    tag_18:\n      tag_67\n      0x04\n      dup1\n      calldatasize\n      sub\n        /* \"--CODEGEN--\":13:16   */\n      0x80\n        /* \"--CODEGEN--\":8:11   */\n      dup2\n        /* \"--CODEGEN--\":5:17   */\n      lt\n        /* \"--CODEGEN--\":2:4   */\n      iszero\n      tag_68\n      jumpi\n        /* \"--CODEGEN--\":30:31   */\n      0x00\n        /* \"--CODEGEN--\":27:28   */\n      dup1\n        /* \"--CODEGEN--\":20:32   */\n      revert\n        /* \"--CODEGEN--\":2:4   */\n    tag_68:\n        /* \"TimeAllySIP.sol\":10782:12045  function getPendingWithdrawlAmount(... */\n      dup2\n      add\n      swap1\n      dup1\n      dup1\n      calldataload\n      0xffffffffffffffffffffffffffffffffffffffff\n      and\n      swap1\n      0x20\n      add\n      swap1\n      swap3\n      swap2\n      swap1\n      dup1\n      calldataload\n      swap1\n      0x20\n      add\n      swap1\n      swap3\n      swap2\n      swap1\n      dup1\n      calldataload\n      swap1\n      0x20\n      add\n      swap1\n      swap3\n      swap2\n      swap1\n      dup1\n      calldataload\n      iszero\n      iszero\n      swap1\n      0x20\n      add\n      swap1\n      swap3\n      swap2\n      swap1\n      pop\n      pop\n      pop\n      tag_69\n      jump\t// in\n    tag_67:\n      mload(0x40)\n      dup1\n      dup3\n      dup2\n      mstore\n      0x20\n      add\n      swap2\n      pop\n      pop\n      mload(0x40)\n      dup1\n      swap2\n      sub\n      swap1\n      return\n        /* \"TimeAllySIP.sol\":5221:5446  function addFunds(uint256 _depositAmount) public {... */\n    tag_19:\n      tag_70\n      0x04\n      dup1\n      calldatasize\n      sub\n        /* \"--CODEGEN--\":13:15   */\n      0x20\n        /* \"--CODEGEN--\":8:11   */\n      dup2\n        /* \"--CODEGEN--\":5:16   */\n      lt\n        /* \"--CODEGEN--\":2:4   */\n      iszero\n      tag_71\n      jumpi\n        /* \"--CODEGEN--\":29:30   */\n      0x00\n        /* \"--CODEGEN--\":26:27   */\n      dup1\n        /* \"--CODEGEN--\":19:31   */\n      revert\n        /* \"--CODEGEN--\":2:4   */\n    tag_71:\n        /* \"TimeAllySIP.sol\":5221:5446  function addFunds(uint256 _depositAmount) public {... */\n      dup2\n      add\n      swap1\n      dup1\n      dup1\n      calldataload\n      swap1\n      0x20\n      add\n      swap1\n      swap3\n      swap2\n      swap1\n      pop\n      pop\n      pop\n      tag_72\n      jump\t// in\n    tag_70:\n      stop\n        /* \"TimeAllySIP.sol\":2579:2604  SIPPlan[] public sipPlans */\n    tag_20:\n      tag_73\n      0x04\n      dup1\n      calldatasize\n      sub\n        /* \"--CODEGEN--\":13:15   */\n      0x20\n        /* \"--CODEGEN--\":8:11   */\n      dup2\n        /* \"--CODEGEN--\":5:16   */\n      lt\n        /* \"--CODEGEN--\":2:4   */\n      iszero\n      tag_74\n      jumpi\n        /* \"--CODEGEN--\":29:30   */\n      0x00\n        /* \"--CODEGEN--\":26:27   */\n      dup1\n        /* \"--CODEGEN--\":19:31   */\n      revert\n        /* \"--CODEGEN--\":2:4   */\n    tag_74:\n        /* \"TimeAllySIP.sol\":2579:2604  SIPPlan[] public sipPlans */\n      dup2\n      add\n      swap1\n      dup1\n      dup1\n      calldataload\n      swap1\n      0x20\n      add\n      swap1\n      swap3\n      swap2\n      swap1\n      pop\n      pop\n      pop\n      tag_75\n      jump\t// in\n    tag_73:\n      mload(0x40)\n      dup1\n      dup10\n      iszero\n      iszero\n      iszero\n      iszero\n      dup2\n      mstore\n      0x20\n      add\n      dup9\n      dup2\n      mstore\n      0x20\n      add\n      dup8\n      dup2\n      mstore\n      0x20\n      add\n      dup7\n      dup2\n      mstore\n      0x20\n      add\n      dup6\n      dup2\n      mstore\n      0x20\n      add\n      dup5\n      dup2\n      mstore\n      0x20\n      add\n      dup4\n      dup2\n      mstore\n      0x20\n      add\n      dup3\n      dup2\n      mstore\n      0x20\n      add\n      swap9\n      pop\n      pop\n      pop\n      pop\n      pop\n      pop\n      pop\n      pop\n      pop\n      mload(0x40)\n      dup1\n      swap2\n      sub\n      swap1\n      return\n        /* \"TimeAllySIP.sol\":4017:4217  function getDepositDoneStatus(... */\n    tag_21:\n      tag_76\n      0x04\n      dup1\n      calldatasize\n      sub\n        /* \"--CODEGEN--\":13:15   */\n      0x60\n        /* \"--CODEGEN--\":8:11   */\n      dup2\n        /* \"--CODEGEN--\":5:16   */\n      lt\n        /* \"--CODEGEN--\":2:4   */\n      iszero\n      tag_77\n      jumpi\n        /* \"--CODEGEN--\":29:30   */\n      0x00\n        /* \"--CODEGEN--\":26:27   */\n      dup1\n        /* \"--CODEGEN--\":19:31   */\n      revert\n        /* \"--CODEGEN--\":2:4   */\n    tag_77:\n        /* \"TimeAllySIP.sol\":4017:4217  function getDepositDoneStatus(... */\n      dup2\n      add\n      swap1\n      dup1\n      dup1\n      calldataload\n      0xffffffffffffffffffffffffffffffffffffffff\n      and\n      swap1\n      0x20\n      add\n      swap1\n      swap3\n      swap2\n      swap1\n      dup1\n      calldataload\n      swap1\n      0x20\n      add\n      swap1\n      swap3\n      swap2\n      swap1\n      dup1\n      calldataload\n      swap1\n      0x20\n      add\n      swap1\n      swap3\n      swap2\n      swap1\n      pop\n      pop\n      pop\n      tag_78\n      jump\t// in\n    tag_76:\n      mload(0x40)\n      dup1\n      dup3\n      dup2\n      mstore\n      0x20\n      add\n      swap2\n      pop\n      pop\n      mload(0x40)\n      dup1\n      swap2\n      sub\n      swap1\n      return\n        /* \"TimeAllySIP.sol\":2609:2646  mapping(address => SIP[]) public sips */\n    tag_22:\n      tag_79\n      0x04\n      dup1\n      calldatasize\n      sub\n        /* \"--CODEGEN--\":13:15   */\n      0x40\n        /* \"--CODEGEN--\":8:11   */\n      dup2\n        /* \"--CODEGEN--\":5:16   */\n      lt\n        /* \"--CODEGEN--\":2:4   */\n      iszero\n      tag_80\n      jumpi\n        /* \"--CODEGEN--\":29:30   */\n      0x00\n        /* \"--CODEGEN--\":26:27   */\n      dup1\n        /* \"--CODEGEN--\":19:31   */\n      revert\n        /* \"--CODEGEN--\":2:4   */\n    tag_80:\n        /* \"TimeAllySIP.sol\":2609:2646  mapping(address => SIP[]) public sips */\n      dup2\n      add\n      swap1\n      dup1\n      dup1\n      calldataload\n      0xffffffffffffffffffffffffffffffffffffffff\n      and\n      swap1\n      0x20\n      add\n      swap1\n      swap3\n      swap2\n      swap1\n      dup1\n      calldataload\n      swap1\n      0x20\n      add\n      swap1\n      swap3\n      swap2\n      swap1\n      pop\n      pop\n      pop\n      tag_81\n      jump\t// in\n    tag_79:\n      mload(0x40)\n      dup1\n      dup11\n      dup2\n      mstore\n      0x20\n      add\n      dup10\n      dup2\n      mstore\n      0x20\n      add\n      dup9\n      dup2\n      mstore\n      0x20\n      add\n      dup8\n      dup2\n      mstore\n      0x20\n      add\n      dup7\n      dup2\n      mstore\n      0x20\n      add\n      dup6\n      dup2\n      mstore\n      0x20\n      add\n      dup5\n      dup2\n      mstore\n      0x20\n      add\n      dup4\n      dup2\n      mstore\n      0x20\n      add\n      dup3\n      dup2\n      mstore\n      0x20\n      add\n      swap10\n      pop\n      pop\n      pop\n      pop\n      pop\n      pop\n      pop\n      pop\n      pop\n      pop\n      mload(0x40)\n      dup1\n      swap2\n      sub\n      swap1\n      return\n        /* \"TimeAllySIP.sol\":2329:2347  ERC20 public token */\n    tag_23:\n      tag_82\n      tag_83\n      jump\t// in\n    tag_82:\n      mload(0x40)\n      dup1\n      dup3\n      0xffffffffffffffffffffffffffffffffffffffff\n      and\n      0xffffffffffffffffffffffffffffffffffffffff\n      and\n      dup2\n      mstore\n      0x20\n      add\n      swap2\n      pop\n      pop\n      mload(0x40)\n      dup1\n      swap2\n      sub\n      swap1\n      return\n        /* \"TimeAllySIP.sol\":12049:13150  function withdrawBenefit(... */\n    tag_29:\n        /* \"TimeAllySIP.sol\":12176:12190  _stakerAddress */\n      dup3\n        /* \"TimeAllySIP.sol\":12192:12198  _sipId */\n      dup3\n        /* \"TimeAllySIP.sol\":3751:3767  SIP storage _sip */\n      0x00\n        /* \"TimeAllySIP.sol\":3770:3774  sips */\n      0x06\n        /* \"TimeAllySIP.sol\":3770:3790  sips[_stakerAddress] */\n      0x00\n        /* \"TimeAllySIP.sol\":3775:3789  _stakerAddress */\n      dup5\n        /* \"TimeAllySIP.sol\":3770:3790  sips[_stakerAddress] */\n      0xffffffffffffffffffffffffffffffffffffffff\n      and\n      0xffffffffffffffffffffffffffffffffffffffff\n      and\n      dup2\n      mstore\n      0x20\n      add\n      swap1\n      dup2\n      mstore\n      0x20\n      add\n      0x00\n      keccak256\n        /* \"TimeAllySIP.sol\":3791:3797  _sipId */\n      dup3\n        /* \"TimeAllySIP.sol\":3770:3798  sips[_stakerAddress][_sipId] */\n      dup2\n      sload\n      dup2\n      lt\n      tag_85\n      jumpi\n      invalid\n    tag_85:\n      swap1\n      0x00\n      mstore\n      keccak256(0x00, 0x20)\n      swap1\n      0x0c\n      mul\n      add\n        /* \"TimeAllySIP.sol\":3751:3798  SIP storage _sip = sips[_stakerAddress][_sipId] */\n      swap1\n      pop\n        /* \"TimeAllySIP.sol\":3821:3835  _stakerAddress */\n      dup3\n        /* \"TimeAllySIP.sol\":3807:3835  msg.sender != _stakerAddress */\n      0xffffffffffffffffffffffffffffffffffffffff\n      and\n        /* \"TimeAllySIP.sol\":3807:3817  msg.sender */\n      caller\n        /* \"TimeAllySIP.sol\":3807:3835  msg.sender != _stakerAddress */\n      0xffffffffffffffffffffffffffffffffffffffff\n      and\n      eq\n        /* \"TimeAllySIP.sol\":3804:3916  if(msg.sender != _stakerAddress) {... */\n      tag_87\n      jumpi\n        /* \"TimeAllySIP.sol\":3853:3857  _sip */\n      dup1\n        /* \"TimeAllySIP.sol\":3853:3866  _sip.nominees */\n      0x0a\n      add\n        /* \"TimeAllySIP.sol\":3853:3878  _sip.nominees[msg.sender] */\n      0x00\n        /* \"TimeAllySIP.sol\":3867:3877  msg.sender */\n      caller\n        /* \"TimeAllySIP.sol\":3853:3878  _sip.nominees[msg.sender] */\n      0xffffffffffffffffffffffffffffffffffffffff\n      and\n      0xffffffffffffffffffffffffffffffffffffffff\n      and\n      dup2\n      mstore\n      0x20\n      add\n      swap1\n      dup2\n      mstore\n      0x20\n      add\n      0x00\n      keccak256\n      0x00\n      swap1\n      sload\n      swap1\n      0x0100\n      exp\n      swap1\n      div\n      0xff\n      and\n        /* \"TimeAllySIP.sol\":3845:3909  require(_sip.nominees[msg.sender], 'nomination should be there') */\n      tag_88\n      jumpi\n      mload(0x40)\n      0x08c379a000000000000000000000000000000000000000000000000000000000\n      dup2\n      mstore\n      0x04\n      add\n      dup1\n      dup1\n      0x20\n      add\n      dup3\n      dup2\n      sub\n      dup3\n      mstore\n      0x1a\n      dup2\n      mstore\n      0x20\n      add\n      dup1\n      0x6e6f6d696e6174696f6e2073686f756c64206265207468657265000000000000\n      dup2\n      mstore\n      pop\n      0x20\n      add\n      swap2\n      pop\n      pop\n      mload(0x40)\n      dup1\n      swap2\n      sub\n      swap1\n      revert\n    tag_88:\n        /* \"TimeAllySIP.sol\":3804:3916  if(msg.sender != _stakerAddress) {... */\n    tag_87:\n        /* \"TimeAllySIP.sol\":12285:12309  uint256 _withdrawlAmount */\n      0x00\n        /* \"TimeAllySIP.sol\":12312:12471  getPendingWithdrawlAmount(... */\n      tag_90\n        /* \"TimeAllySIP.sol\":12345:12359  _stakerAddress */\n      dup8\n        /* \"TimeAllySIP.sol\":12367:12373  _sipId */\n      dup8\n        /* \"TimeAllySIP.sol\":12381:12398  _withdrawlmonthId */\n      dup8\n        /* \"TimeAllySIP.sol\":12420:12434  _stakerAddress */\n      dup11\n        /* \"TimeAllySIP.sol\":12406:12434  msg.sender != _stakerAddress */\n      0xffffffffffffffffffffffffffffffffffffffff\n      and\n        /* \"TimeAllySIP.sol\":12406:12416  msg.sender */\n      caller\n        /* \"TimeAllySIP.sol\":12406:12434  msg.sender != _stakerAddress */\n      0xffffffffffffffffffffffffffffffffffffffff\n      and\n      eq\n      iszero\n        /* \"TimeAllySIP.sol\":12312:12337  getPendingWithdrawlAmount */\n      tag_69\n        /* \"TimeAllySIP.sol\":12312:12471  getPendingWithdrawlAmount(... */\n      jump\t// in\n    tag_90:\n        /* \"TimeAllySIP.sol\":12285:12471  uint256 _withdrawlAmount = getPendingWithdrawlAmount(... */\n      swap1\n      pop\n        /* \"TimeAllySIP.sol\":12478:12494  SIP storage _sip */\n      0x00\n        /* \"TimeAllySIP.sol\":12497:12501  sips */\n      0x06\n        /* \"TimeAllySIP.sol\":12497:12517  sips[_stakerAddress] */\n      0x00\n        /* \"TimeAllySIP.sol\":12502:12516  _stakerAddress */\n      dup10\n        /* \"TimeAllySIP.sol\":12497:12517  sips[_stakerAddress] */\n      0xffffffffffffffffffffffffffffffffffffffff\n      and\n      0xffffffffffffffffffffffffffffffffffffffff\n      and\n      dup2\n      mstore\n      0x20\n      add\n      swap1\n      dup2\n      mstore\n      0x20\n      add\n      0x00\n      keccak256\n        /* \"TimeAllySIP.sol\":12518:12524  _sipId */\n      dup8\n        /* \"TimeAllySIP.sol\":12497:12525  sips[_stakerAddress][_sipId] */\n      dup2\n      sload\n      dup2\n      lt\n      tag_91\n      jumpi\n      invalid\n    tag_91:\n      swap1\n      0x00\n      mstore\n      keccak256(0x00, 0x20)\n      swap1\n      0x0c\n      mul\n      add\n        /* \"TimeAllySIP.sol\":12478:12525  SIP storage _sip = sips[_stakerAddress][_sipId] */\n      swap1\n      pop\n        /* \"TimeAllySIP.sol\":12606:12635  uint256 _lastWithdrawlMonthId */\n      0x00\n        /* \"TimeAllySIP.sol\":12638:12642  _sip */\n      dup2\n        /* \"TimeAllySIP.sol\":12638:12663  _sip.lastWithdrawlMonthId */\n      0x05\n      add\n      sload\n        /* \"TimeAllySIP.sol\":12606:12663  uint256 _lastWithdrawlMonthId = _sip.lastWithdrawlMonthId */\n      swap1\n      pop\n        /* \"TimeAllySIP.sol\":12697:12714  _withdrawlmonthId */\n      dup7\n        /* \"TimeAllySIP.sol\":12669:12673  _sip */\n      dup3\n        /* \"TimeAllySIP.sol\":12669:12694  _sip.lastWithdrawlMonthId */\n      0x05\n      add\n        /* \"TimeAllySIP.sol\":12669:12714  _sip.lastWithdrawlMonthId = _withdrawlmonthId */\n      dup2\n      swap1\n      sstore\n      pop\n        /* \"TimeAllySIP.sol\":12756:12810  pendingBenefitAmountOfAllStakers.sub(_withdrawlAmount) */\n      tag_93\n        /* \"TimeAllySIP.sol\":12793:12809  _withdrawlAmount */\n      dup4\n        /* \"TimeAllySIP.sol\":12756:12788  pendingBenefitAmountOfAllStakers */\n      sload(0x03)\n        /* \"TimeAllySIP.sol\":12756:12792  pendingBenefitAmountOfAllStakers.sub */\n      tag_94\n      swap1\n        /* \"TimeAllySIP.sol\":12756:12810  pendingBenefitAmountOfAllStakers.sub(_withdrawlAmount) */\n      swap2\n      swap1\n      0xffffffff\n      and\n      jump\t// in\n    tag_93:\n        /* \"TimeAllySIP.sol\":12721:12753  pendingBenefitAmountOfAllStakers */\n      0x03\n        /* \"TimeAllySIP.sol\":12721:12810  pendingBenefitAmountOfAllStakers = pendingBenefitAmountOfAllStakers.sub(_withdrawlAmount) */\n      dup2\n      swap1\n      sstore\n      pop\n        /* \"TimeAllySIP.sol\":12831:12865  fundsDeposit.sub(_withdrawlAmount) */\n      tag_95\n        /* \"TimeAllySIP.sol\":12848:12864  _withdrawlAmount */\n      dup4\n        /* \"TimeAllySIP.sol\":12831:12843  fundsDeposit */\n      sload(0x04)\n        /* \"TimeAllySIP.sol\":12831:12847  fundsDeposit.sub */\n      tag_94\n      swap1\n        /* \"TimeAllySIP.sol\":12831:12865  fundsDeposit.sub(_withdrawlAmount) */\n      swap2\n      swap1\n      0xffffffff\n      and\n      jump\t// in\n    tag_95:\n        /* \"TimeAllySIP.sol\":12816:12828  fundsDeposit */\n      0x04\n        /* \"TimeAllySIP.sol\":12816:12865  fundsDeposit = fundsDeposit.sub(_withdrawlAmount) */\n      dup2\n      swap1\n      sstore\n      pop\n        /* \"TimeAllySIP.sol\":12931:12936  token */\n      0x01\n      0x00\n      swap1\n      sload\n      swap1\n      0x0100\n      exp\n      swap1\n      div\n      0xffffffffffffffffffffffffffffffffffffffff\n      and\n        /* \"TimeAllySIP.sol\":12931:12945  token.transfer */\n      0xffffffffffffffffffffffffffffffffffffffff\n      and\n      0xa9059cbb\n        /* \"TimeAllySIP.sol\":12946:12956  msg.sender */\n      caller\n        /* \"TimeAllySIP.sol\":12958:12974  _withdrawlAmount */\n      dup6\n        /* \"TimeAllySIP.sol\":12931:12975  token.transfer(msg.sender, _withdrawlAmount) */\n      mload(0x40)\n      dup4\n      0xffffffff\n      and\n      0xe0\n      shl\n      dup2\n      mstore\n      0x04\n      add\n      dup1\n      dup4\n      0xffffffffffffffffffffffffffffffffffffffff\n      and\n      0xffffffffffffffffffffffffffffffffffffffff\n      and\n      dup2\n      mstore\n      0x20\n      add\n      dup3\n      dup2\n      mstore\n      0x20\n      add\n      swap3\n      pop\n      pop\n      pop\n      0x20\n      mload(0x40)\n      dup1\n      dup4\n      sub\n      dup2\n      0x00\n      dup8\n      dup1\n      extcodesize\n      iszero\n        /* \"--CODEGEN--\":8:17   */\n      dup1\n        /* \"--CODEGEN--\":5:7   */\n      iszero\n      tag_96\n      jumpi\n        /* \"--CODEGEN--\":30:31   */\n      0x00\n        /* \"--CODEGEN--\":27:28   */\n      dup1\n        /* \"--CODEGEN--\":20:32   */\n      revert\n        /* \"--CODEGEN--\":5:7   */\n    tag_96:\n        /* \"TimeAllySIP.sol\":12931:12975  token.transfer(msg.sender, _withdrawlAmount) */\n      pop\n      gas\n      call\n      iszero\n        /* \"--CODEGEN--\":8:17   */\n      dup1\n        /* \"--CODEGEN--\":5:7   */\n      iszero\n      tag_97\n      jumpi\n        /* \"--CODEGEN--\":45:61   */\n      returndatasize\n        /* \"--CODEGEN--\":42:43   */\n      0x00\n        /* \"--CODEGEN--\":39:40   */\n      dup1\n        /* \"--CODEGEN--\":24:62   */\n      returndatacopy\n        /* \"--CODEGEN--\":77:93   */\n      returndatasize\n        /* \"--CODEGEN--\":74:75   */\n      0x00\n        /* \"--CODEGEN--\":67:94   */\n      revert\n        /* \"--CODEGEN--\":5:7   */\n    tag_97:\n        /* \"TimeAllySIP.sol\":12931:12975  token.transfer(msg.sender, _withdrawlAmount) */\n      pop\n      pop\n      pop\n      pop\n      mload(0x40)\n      returndatasize\n        /* \"--CODEGEN--\":13:15   */\n      0x20\n        /* \"--CODEGEN--\":8:11   */\n      dup2\n        /* \"--CODEGEN--\":5:16   */\n      lt\n        /* \"--CODEGEN--\":2:4   */\n      iszero\n      tag_98\n      jumpi\n        /* \"--CODEGEN--\":29:30   */\n      0x00\n        /* \"--CODEGEN--\":26:27   */\n      dup1\n        /* \"--CODEGEN--\":19:31   */\n      revert\n        /* \"--CODEGEN--\":2:4   */\n    tag_98:\n        /* \"TimeAllySIP.sol\":12931:12975  token.transfer(msg.sender, _withdrawlAmount) */\n      dup2\n      add\n      swap1\n      dup1\n      dup1\n      mload\n      swap1\n      0x20\n      add\n      swap1\n      swap3\n      swap2\n      swap1\n      pop\n      pop\n      pop\n      pop\n        /* \"TimeAllySIP.sol\":13033:13039  _sipId */\n      dup8\n        /* \"TimeAllySIP.sol\":13011:13025  _stakerAddress */\n      dup10\n        /* \"TimeAllySIP.sol\":12987:13145  BenefitWithdrawl(... */\n      0xffffffffffffffffffffffffffffffffffffffff\n      and\n      0x8f4915db3c6bafb045a8ca029a06c4d1638daddb07e111ed35abf34f81b6a855\n        /* \"TimeAllySIP.sol\":13071:13072  1 */\n      0x01\n        /* \"TimeAllySIP.sol\":13047:13068  _lastWithdrawlMonthId */\n      dup5\n        /* \"TimeAllySIP.sol\":13047:13072  _lastWithdrawlMonthId + 1 */\n      add\n        /* \"TimeAllySIP.sol\":13080:13097  _withdrawlmonthId */\n      dup11\n        /* \"TimeAllySIP.sol\":13105:13121  _withdrawlAmount */\n      dup8\n        /* \"TimeAllySIP.sol\":13129:13139  msg.sender */\n      caller\n        /* \"TimeAllySIP.sol\":12987:13145  BenefitWithdrawl(... */\n      mload(0x40)\n      dup1\n      dup6\n      dup2\n      mstore\n      0x20\n      add\n      dup5\n      dup2\n      mstore\n      0x20\n      add\n      dup4\n      dup2\n      mstore\n      0x20\n      add\n      dup3\n      0xffffffffffffffffffffffffffffffffffffffff\n      and\n      0xffffffffffffffffffffffffffffffffffffffff\n      and\n      dup2\n      mstore\n      0x20\n      add\n      swap5\n      pop\n      pop\n      pop\n      pop\n      pop\n      mload(0x40)\n      dup1\n      swap2\n      sub\n      swap1\n      log3\n        /* \"TimeAllySIP.sol\":3921:3922  _ */\n      pop\n      pop\n      pop\n        /* \"TimeAllySIP.sol\":12049:13150  function withdrawBenefit(... */\n      pop\n      pop\n      pop\n      pop\n      pop\n      pop\n      jump\t// out\n        /* \"TimeAllySIP.sol\":15337:15594  function toogleNominee(uint256 _sipId, address _nomineeAddress, bool _newNomineeStatus) public {... */\n    tag_32:\n        /* \"TimeAllySIP.sol\":15491:15508  _newNomineeStatus */\n      dup1\n        /* \"TimeAllySIP.sol\":15438:15442  sips */\n      0x06\n        /* \"TimeAllySIP.sol\":15438:15454  sips[msg.sender] */\n      0x00\n        /* \"TimeAllySIP.sol\":15443:15453  msg.sender */\n      caller\n        /* \"TimeAllySIP.sol\":15438:15454  sips[msg.sender] */\n      0xffffffffffffffffffffffffffffffffffffffff\n      and\n      0xffffffffffffffffffffffffffffffffffffffff\n      and\n      dup2\n      mstore\n      0x20\n      add\n      swap1\n      dup2\n      mstore\n      0x20\n      add\n      0x00\n      keccak256\n        /* \"TimeAllySIP.sol\":15455:15461  _sipId */\n      dup5\n        /* \"TimeAllySIP.sol\":15438:15462  sips[msg.sender][_sipId] */\n      dup2\n      sload\n      dup2\n      lt\n      tag_100\n      jumpi\n      invalid\n    tag_100:\n      swap1\n      0x00\n      mstore\n      keccak256(0x00, 0x20)\n      swap1\n      0x0c\n      mul\n      add\n        /* \"TimeAllySIP.sol\":15438:15471  sips[msg.sender][_sipId].nominees */\n      0x0a\n      add\n        /* \"TimeAllySIP.sol\":15438:15488  sips[msg.sender][_sipId].nominees[_nomineeAddress] */\n      0x00\n        /* \"TimeAllySIP.sol\":15472:15487  _nomineeAddress */\n      dup5\n        /* \"TimeAllySIP.sol\":15438:15488  sips[msg.sender][_sipId].nominees[_nomineeAddress] */\n      0xffffffffffffffffffffffffffffffffffffffff\n      and\n      0xffffffffffffffffffffffffffffffffffffffff\n      and\n      dup2\n      mstore\n      0x20\n      add\n      swap1\n      dup2\n      mstore\n      0x20\n      add\n      0x00\n      keccak256\n      0x00\n        /* \"TimeAllySIP.sol\":15438:15508  sips[msg.sender][_sipId].nominees[_nomineeAddress] = _newNomineeStatus */\n      0x0100\n      exp\n      dup2\n      sload\n      dup2\n      0xff\n      mul\n      not\n      and\n      swap1\n      dup4\n      iszero\n      iszero\n      mul\n      or\n      swap1\n      sstore\n      pop\n        /* \"TimeAllySIP.sol\":15554:15569  _nomineeAddress */\n      dup2\n        /* \"TimeAllySIP.sol\":15519:15589  NomineeUpdated(msg.sender, _sipId, _nomineeAddress, _newNomineeStatus) */\n      0xffffffffffffffffffffffffffffffffffffffff\n      and\n        /* \"TimeAllySIP.sol\":15546:15552  _sipId */\n      dup4\n        /* \"TimeAllySIP.sol\":15534:15544  msg.sender */\n      caller\n        /* \"TimeAllySIP.sol\":15519:15589  NomineeUpdated(msg.sender, _sipId, _nomineeAddress, _newNomineeStatus) */\n      0xffffffffffffffffffffffffffffffffffffffff\n      and\n      0x90e4568f920d8bb093366a04150aa0d04957a471196f5e1cdfb0db3cb83cc5b0\n        /* \"TimeAllySIP.sol\":15571:15588  _newNomineeStatus */\n      dup5\n        /* \"TimeAllySIP.sol\":15519:15589  NomineeUpdated(msg.sender, _sipId, _nomineeAddress, _newNomineeStatus) */\n      mload(0x40)\n      dup1\n      dup3\n      iszero\n      iszero\n      iszero\n      iszero\n      dup2\n      mstore\n      0x20\n      add\n      swap2\n      pop\n      pop\n      mload(0x40)\n      dup1\n      swap2\n      sub\n      swap1\n      log4\n        /* \"TimeAllySIP.sol\":15337:15594  function toogleNominee(uint256 _sipId, address _nomineeAddress, bool _newNomineeStatus) public {... */\n      pop\n      pop\n      pop\n      jump\t// out\n        /* \"TimeAllySIP.sol\":2415:2462  uint256 public EARTH_SECONDS_IN_MONTH = 2629744 */\n    tag_34:\n      sload(0x02)\n      dup2\n      jump\t// out\n        /* \"TimeAllySIP.sol\":2517:2544  uint256 public fundsDeposit */\n    tag_36:\n      sload(0x04)\n      dup2\n      jump\t// out\n        /* \"TimeAllySIP.sol\":5450:5807  function withdrawFunds(uint256 _withdrawlAmount) public onlyOwner {... */\n    tag_39:\n        /* \"TimeAllySIP.sol\":3636:3641  owner */\n      0x00\n      dup1\n      swap1\n      sload\n      swap1\n      0x0100\n      exp\n      swap1\n      div\n      0xffffffffffffffffffffffffffffffffffffffff\n      and\n        /* \"TimeAllySIP.sol\":3622:3641  msg.sender == owner */\n      0xffffffffffffffffffffffffffffffffffffffff\n      and\n        /* \"TimeAllySIP.sol\":3622:3632  msg.sender */\n      caller\n        /* \"TimeAllySIP.sol\":3622:3641  msg.sender == owner */\n      0xffffffffffffffffffffffffffffffffffffffff\n      and\n      eq\n        /* \"TimeAllySIP.sol\":3614:3668  require(msg.sender == owner, 'only deployer can call') */\n      tag_103\n      jumpi\n      mload(0x40)\n      0x08c379a000000000000000000000000000000000000000000000000000000000\n      dup2\n      mstore\n      0x04\n      add\n      dup1\n      dup1\n      0x20\n      add\n      dup3\n      dup2\n      sub\n      dup3\n      mstore\n      0x16\n      dup2\n      mstore\n      0x20\n      add\n      dup1\n      0x6f6e6c79206465706c6f7965722063616e2063616c6c00000000000000000000\n      dup2\n      mstore\n      pop\n      0x20\n      add\n      swap2\n      pop\n      pop\n      mload(0x40)\n      dup1\n      swap2\n      sub\n      swap1\n      revert\n    tag_103:\n        /* \"TimeAllySIP.sol\":5591:5607  _withdrawlAmount */\n      dup1\n        /* \"TimeAllySIP.sol\":5537:5587  fundsDeposit.sub(pendingBenefitAmountOfAllStakers) */\n      tag_105\n        /* \"TimeAllySIP.sol\":5554:5586  pendingBenefitAmountOfAllStakers */\n      sload(0x03)\n        /* \"TimeAllySIP.sol\":5537:5549  fundsDeposit */\n      sload(0x04)\n        /* \"TimeAllySIP.sol\":5537:5553  fundsDeposit.sub */\n      tag_94\n      swap1\n        /* \"TimeAllySIP.sol\":5537:5587  fundsDeposit.sub(pendingBenefitAmountOfAllStakers) */\n      swap2\n      swap1\n      0xffffffff\n      and\n      jump\t// in\n    tag_105:\n        /* \"TimeAllySIP.sol\":5537:5607  fundsDeposit.sub(pendingBenefitAmountOfAllStakers) >= _withdrawlAmount */\n      lt\n      iszero\n        /* \"TimeAllySIP.sol\":5522:5652  require(... */\n      tag_106\n      jumpi\n      mload(0x40)\n      0x08c379a000000000000000000000000000000000000000000000000000000000\n      dup2\n      mstore\n      0x04\n      add\n      dup1\n      dup1\n      0x20\n      add\n      dup3\n      dup2\n      sub\n      dup3\n      mstore\n      0x1c\n      dup2\n      mstore\n      0x20\n      add\n      dup1\n      0x63616e6e6f74207769746864726177206578636573732066756e647300000000\n      dup2\n      mstore\n      pop\n      0x20\n      add\n      swap2\n      pop\n      pop\n      mload(0x40)\n      dup1\n      swap2\n      sub\n      swap1\n      revert\n    tag_106:\n        /* \"TimeAllySIP.sol\":5674:5708  fundsDeposit.sub(_withdrawlAmount) */\n      tag_107\n        /* \"TimeAllySIP.sol\":5691:5707  _withdrawlAmount */\n      dup2\n        /* \"TimeAllySIP.sol\":5674:5686  fundsDeposit */\n      sload(0x04)\n        /* \"TimeAllySIP.sol\":5674:5690  fundsDeposit.sub */\n      tag_94\n      swap1\n        /* \"TimeAllySIP.sol\":5674:5708  fundsDeposit.sub(_withdrawlAmount) */\n      swap2\n      swap1\n      0xffffffff\n      and\n      jump\t// in\n    tag_107:\n        /* \"TimeAllySIP.sol\":5659:5671  fundsDeposit */\n      0x04\n        /* \"TimeAllySIP.sol\":5659:5708  fundsDeposit = fundsDeposit.sub(_withdrawlAmount) */\n      dup2\n      swap1\n      sstore\n      pop\n        /* \"TimeAllySIP.sol\":5714:5719  token */\n      0x01\n      0x00\n      swap1\n      sload\n      swap1\n      0x0100\n      exp\n      swap1\n      div\n      0xffffffffffffffffffffffffffffffffffffffff\n      and\n        /* \"TimeAllySIP.sol\":5714:5728  token.transfer */\n      0xffffffffffffffffffffffffffffffffffffffff\n      and\n      0xa9059cbb\n        /* \"TimeAllySIP.sol\":5729:5739  msg.sender */\n      caller\n        /* \"TimeAllySIP.sol\":5741:5757  _withdrawlAmount */\n      dup4\n        /* \"TimeAllySIP.sol\":5714:5758  token.transfer(msg.sender, _withdrawlAmount) */\n      mload(0x40)\n      dup4\n      0xffffffff\n      and\n      0xe0\n      shl\n      dup2\n      mstore\n      0x04\n      add\n      dup1\n      dup4\n      0xffffffffffffffffffffffffffffffffffffffff\n      and\n      0xffffffffffffffffffffffffffffffffffffffff\n      and\n      dup2\n      mstore\n      0x20\n      add\n      dup3\n      dup2\n      mstore\n      0x20\n      add\n      swap3\n      pop\n      pop\n      pop\n      0x20\n      mload(0x40)\n      dup1\n      dup4\n      sub\n      dup2\n      0x00\n      dup8\n      dup1\n      extcodesize\n      iszero\n        /* \"--CODEGEN--\":8:17   */\n      dup1\n        /* \"--CODEGEN--\":5:7   */\n      iszero\n      tag_108\n      jumpi\n        /* \"--CODEGEN--\":30:31   */\n      0x00\n        /* \"--CODEGEN--\":27:28   */\n      dup1\n        /* \"--CODEGEN--\":20:32   */\n      revert\n        /* \"--CODEGEN--\":5:7   */\n    tag_108:\n        /* \"TimeAllySIP.sol\":5714:5758  token.transfer(msg.sender, _withdrawlAmount) */\n      pop\n      gas\n      call\n      iszero\n        /* \"--CODEGEN--\":8:17   */\n      dup1\n        /* \"--CODEGEN--\":5:7   */\n      iszero\n      tag_109\n      jumpi\n        /* \"--CODEGEN--\":45:61   */\n      returndatasize\n        /* \"--CODEGEN--\":42:43   */\n      0x00\n        /* \"--CODEGEN--\":39:40   */\n      dup1\n        /* \"--CODEGEN--\":24:62   */\n      returndatacopy\n        /* \"--CODEGEN--\":77:93   */\n      returndatasize\n        /* \"--CODEGEN--\":74:75   */\n      0x00\n        /* \"--CODEGEN--\":67:94   */\n      revert\n        /* \"--CODEGEN--\":5:7   */\n    tag_109:\n        /* \"TimeAllySIP.sol\":5714:5758  token.transfer(msg.sender, _withdrawlAmount) */\n      pop\n      pop\n      pop\n      pop\n      mload(0x40)\n      returndatasize\n        /* \"--CODEGEN--\":13:15   */\n      0x20\n        /* \"--CODEGEN--\":8:11   */\n      dup2\n        /* \"--CODEGEN--\":5:16   */\n      lt\n        /* \"--CODEGEN--\":2:4   */\n      iszero\n      tag_110\n      jumpi\n        /* \"--CODEGEN--\":29:30   */\n      0x00\n        /* \"--CODEGEN--\":26:27   */\n      dup1\n        /* \"--CODEGEN--\":19:31   */\n      revert\n        /* \"--CODEGEN--\":2:4   */\n    tag_110:\n        /* \"TimeAllySIP.sol\":5714:5758  token.transfer(msg.sender, _withdrawlAmount) */\n      dup2\n      add\n      swap1\n      dup1\n      dup1\n      mload\n      swap1\n      0x20\n      add\n      swap1\n      swap3\n      swap2\n      swap1\n      pop\n      pop\n      pop\n      pop\n        /* \"TimeAllySIP.sol\":5770:5802  FundsWithdrawn(_withdrawlAmount) */\n      0x4a37b25aab49761ecf63117fe82b98d750917451133cf797507bc9fb5b96044a\n        /* \"TimeAllySIP.sol\":5785:5801  _withdrawlAmount */\n      dup2\n        /* \"TimeAllySIP.sol\":5770:5802  FundsWithdrawn(_withdrawlAmount) */\n      mload(0x40)\n      dup1\n      dup3\n      dup2\n      mstore\n      0x20\n      add\n      swap2\n      pop\n      pop\n      mload(0x40)\n      dup1\n      swap2\n      sub\n      swap1\n      log1\n        /* \"TimeAllySIP.sol\":5450:5807  function withdrawFunds(uint256 _withdrawlAmount) public onlyOwner {... */\n      pop\n      jump\t// out\n        /* \"TimeAllySIP.sol\":2466:2513  uint256 public pendingBenefitAmountOfAllStakers */\n    tag_41:\n      sload(0x03)\n      dup2\n      jump\t// out\n        /* \"TimeAllySIP.sol\":14109:15333  function withdrawPowerBooster(... */\n    tag_44:\n        /* \"TimeAllySIP.sol\":14210:14224  _stakerAddress */\n      dup2\n        /* \"TimeAllySIP.sol\":14226:14232  _sipId */\n      dup2\n        /* \"TimeAllySIP.sol\":3751:3767  SIP storage _sip */\n      0x00\n        /* \"TimeAllySIP.sol\":3770:3774  sips */\n      0x06\n        /* \"TimeAllySIP.sol\":3770:3790  sips[_stakerAddress] */\n      0x00\n        /* \"TimeAllySIP.sol\":3775:3789  _stakerAddress */\n      dup5\n        /* \"TimeAllySIP.sol\":3770:3790  sips[_stakerAddress] */\n      0xffffffffffffffffffffffffffffffffffffffff\n      and\n      0xffffffffffffffffffffffffffffffffffffffff\n      and\n      dup2\n      mstore\n      0x20\n      add\n      swap1\n      dup2\n      mstore\n      0x20\n      add\n      0x00\n      keccak256\n        /* \"TimeAllySIP.sol\":3791:3797  _sipId */\n      dup3\n        /* \"TimeAllySIP.sol\":3770:3798  sips[_stakerAddress][_sipId] */\n      dup2\n      sload\n      dup2\n      lt\n      tag_112\n      jumpi\n      invalid\n    tag_112:\n      swap1\n      0x00\n      mstore\n      keccak256(0x00, 0x20)\n      swap1\n      0x0c\n      mul\n      add\n        /* \"TimeAllySIP.sol\":3751:3798  SIP storage _sip = sips[_stakerAddress][_sipId] */\n      swap1\n      pop\n        /* \"TimeAllySIP.sol\":3821:3835  _stakerAddress */\n      dup3\n        /* \"TimeAllySIP.sol\":3807:3835  msg.sender != _stakerAddress */\n      0xffffffffffffffffffffffffffffffffffffffff\n      and\n        /* \"TimeAllySIP.sol\":3807:3817  msg.sender */\n      caller\n        /* \"TimeAllySIP.sol\":3807:3835  msg.sender != _stakerAddress */\n      0xffffffffffffffffffffffffffffffffffffffff\n      and\n      eq\n        /* \"TimeAllySIP.sol\":3804:3916  if(msg.sender != _stakerAddress) {... */\n      tag_114\n      jumpi\n        /* \"TimeAllySIP.sol\":3853:3857  _sip */\n      dup1\n        /* \"TimeAllySIP.sol\":3853:3866  _sip.nominees */\n      0x0a\n      add\n        /* \"TimeAllySIP.sol\":3853:3878  _sip.nominees[msg.sender] */\n      0x00\n        /* \"TimeAllySIP.sol\":3867:3877  msg.sender */\n      caller\n        /* \"TimeAllySIP.sol\":3853:3878  _sip.nominees[msg.sender] */\n      0xffffffffffffffffffffffffffffffffffffffff\n      and\n      0xffffffffffffffffffffffffffffffffffffffff\n      and\n      dup2\n      mstore\n      0x20\n      add\n      swap1\n      dup2\n      mstore\n      0x20\n      add\n      0x00\n      keccak256\n      0x00\n      swap1\n      sload\n      swap1\n      0x0100\n      exp\n      swap1\n      div\n      0xff\n      and\n        /* \"TimeAllySIP.sol\":3845:3909  require(_sip.nominees[msg.sender], 'nomination should be there') */\n      tag_115\n      jumpi\n      mload(0x40)\n      0x08c379a000000000000000000000000000000000000000000000000000000000\n      dup2\n      mstore\n      0x04\n      add\n      dup1\n      dup1\n      0x20\n      add\n      dup3\n      dup2\n      sub\n      dup3\n      mstore\n      0x1a\n      dup2\n      mstore\n      0x20\n      add\n      dup1\n      0x6e6f6d696e6174696f6e2073686f756c64206265207468657265000000000000\n      dup2\n      mstore\n      pop\n      0x20\n      add\n      swap2\n      pop\n      pop\n      mload(0x40)\n      dup1\n      swap2\n      sub\n      swap1\n      revert\n    tag_115:\n        /* \"TimeAllySIP.sol\":3804:3916  if(msg.sender != _stakerAddress) {... */\n    tag_114:\n        /* \"TimeAllySIP.sol\":14240:14256  SIP storage _sip */\n      0x00\n        /* \"TimeAllySIP.sol\":14259:14263  sips */\n      0x06\n        /* \"TimeAllySIP.sol\":14259:14279  sips[_stakerAddress] */\n      0x00\n        /* \"TimeAllySIP.sol\":14264:14278  _stakerAddress */\n      dup8\n        /* \"TimeAllySIP.sol\":14259:14279  sips[_stakerAddress] */\n      0xffffffffffffffffffffffffffffffffffffffff\n      and\n      0xffffffffffffffffffffffffffffffffffffffff\n      and\n      dup2\n      mstore\n      0x20\n      add\n      swap1\n      dup2\n      mstore\n      0x20\n      add\n      0x00\n      keccak256\n        /* \"TimeAllySIP.sol\":14280:14286  _sipId */\n      dup6\n        /* \"TimeAllySIP.sol\":14259:14287  sips[_stakerAddress][_sipId] */\n      dup2\n      sload\n      dup2\n      lt\n      tag_117\n      jumpi\n      invalid\n    tag_117:\n      swap1\n      0x00\n      mstore\n      keccak256(0x00, 0x20)\n      swap1\n      0x0c\n      mul\n      add\n        /* \"TimeAllySIP.sol\":14240:14287  SIP storage _sip = sips[_stakerAddress][_sipId] */\n      swap1\n      pop\n        /* \"TimeAllySIP.sol\":14332:14333  3 */\n      0x03\n        /* \"TimeAllySIP.sol\":14302:14306  _sip */\n      dup2\n        /* \"TimeAllySIP.sol\":14302:14329  _sip.powerBoosterWithdrawls */\n      0x06\n      add\n      sload\n        /* \"TimeAllySIP.sol\":14302:14333  _sip.powerBoosterWithdrawls < 3 */\n      lt\n        /* \"TimeAllySIP.sol\":14294:14359  require(_sip.powerBoosterWithdrawls < 3, 'only 3 power boosters') */\n      tag_119\n      jumpi\n      mload(0x40)\n      0x08c379a000000000000000000000000000000000000000000000000000000000\n      dup2\n      mstore\n      0x04\n      add\n      dup1\n      dup1\n      0x20\n      add\n      dup3\n      dup2\n      sub\n      dup3\n      mstore\n      0x15\n      dup2\n      mstore\n      0x20\n      add\n      dup1\n      0x6f6e6c79203320706f77657220626f6f73746572730000000000000000000000\n      dup2\n      mstore\n      pop\n      0x20\n      add\n      swap2\n      pop\n      pop\n      mload(0x40)\n      dup1\n      swap2\n      sub\n      swap1\n      revert\n    tag_119:\n        /* \"TimeAllySIP.sol\":14365:14392  uint256 _powerBoosterSerial */\n      0x00\n        /* \"TimeAllySIP.sol\":14425:14426  1 */\n      0x01\n        /* \"TimeAllySIP.sol\":14395:14399  _sip */\n      dup3\n        /* \"TimeAllySIP.sol\":14395:14422  _sip.powerBoosterWithdrawls */\n      0x06\n      add\n      sload\n        /* \"TimeAllySIP.sol\":14395:14426  _sip.powerBoosterWithdrawls + 1 */\n      add\n        /* \"TimeAllySIP.sol\":14365:14426  uint256 _powerBoosterSerial = _sip.powerBoosterWithdrawls + 1 */\n      swap1\n      pop\n        /* \"TimeAllySIP.sol\":14487:14512  uint256 _allowedTimestamp */\n      0x00\n        /* \"TimeAllySIP.sol\":14728:14750  EARTH_SECONDS_IN_MONTH */\n      sload(0x02)\n        /* \"TimeAllySIP.sol\":14724:14725  3 */\n      0x03\n        /* \"TimeAllySIP.sol\":14702:14721  _powerBoosterSerial */\n      dup4\n        /* \"TimeAllySIP.sol\":14677:14699  EARTH_SECONDS_IN_MONTH */\n      sload(0x02)\n        /* \"TimeAllySIP.sol\":14672:14674  12 */\n      0x0c\n        /* \"TimeAllySIP.sol\":14627:14635  sipPlans */\n      0x05\n        /* \"TimeAllySIP.sol\":14637:14641  _sip */\n      dup9\n        /* \"TimeAllySIP.sol\":14637:14648  _sip.planId */\n      0x00\n      add\n      sload\n        /* \"TimeAllySIP.sol\":14627:14650  sipPlans[ _sip.planId ] */\n      dup2\n      sload\n      dup2\n      lt\n      tag_120\n      jumpi\n      invalid\n    tag_120:\n      swap1\n      0x00\n      mstore\n      keccak256(0x00, 0x20)\n      swap1\n      0x08\n      mul\n      add\n        /* \"TimeAllySIP.sol\":14627:14669  sipPlans[ _sip.planId ].benefitPeriodYears */\n      0x03\n      add\n      sload\n        /* \"TimeAllySIP.sol\":14627:14674  sipPlans[ _sip.planId ].benefitPeriodYears * 12 */\n      mul\n        /* \"TimeAllySIP.sol\":14627:14699  sipPlans[ _sip.planId ].benefitPeriodYears * 12 * EARTH_SECONDS_IN_MONTH */\n      mul\n        /* \"TimeAllySIP.sol\":14627:14721  sipPlans[ _sip.planId ].benefitPeriodYears * 12 * EARTH_SECONDS_IN_MONTH * _powerBoosterSerial */\n      mul\n        /* \"TimeAllySIP.sol\":14627:14725  sipPlans[ _sip.planId ].benefitPeriodYears * 12 * EARTH_SECONDS_IN_MONTH * _powerBoosterSerial / 3 */\n      dup2\n      tag_122\n      jumpi\n      invalid\n    tag_122:\n      div\n        /* \"TimeAllySIP.sol\":14596:14618  EARTH_SECONDS_IN_MONTH */\n      sload(0x02)\n        /* \"TimeAllySIP.sol\":14545:14553  sipPlans */\n      0x05\n        /* \"TimeAllySIP.sol\":14555:14559  _sip */\n      dup7\n        /* \"TimeAllySIP.sol\":14555:14566  _sip.planId */\n      0x00\n      add\n      sload\n        /* \"TimeAllySIP.sol\":14545:14568  sipPlans[ _sip.planId ] */\n      dup2\n      sload\n      dup2\n      lt\n      tag_123\n      jumpi\n      invalid\n    tag_123:\n      swap1\n      0x00\n      mstore\n      keccak256(0x00, 0x20)\n      swap1\n      0x08\n      mul\n      add\n        /* \"TimeAllySIP.sol\":14545:14593  sipPlans[ _sip.planId ].accumulationPeriodMonths */\n      0x02\n      add\n      sload\n        /* \"TimeAllySIP.sol\":14545:14618  sipPlans[ _sip.planId ].accumulationPeriodMonths * EARTH_SECONDS_IN_MONTH */\n      mul\n        /* \"TimeAllySIP.sol\":14515:14519  _sip */\n      dup6\n        /* \"TimeAllySIP.sol\":14515:14536  _sip.stakingTimestamp */\n      0x02\n      add\n      sload\n        /* \"TimeAllySIP.sol\":14515:14618  _sip.stakingTimestamp... */\n      add\n        /* \"TimeAllySIP.sol\":14515:14725  _sip.stakingTimestamp... */\n      add\n        /* \"TimeAllySIP.sol\":14515:14750  _sip.stakingTimestamp... */\n      sub\n        /* \"TimeAllySIP.sol\":14487:14750  uint256 _allowedTimestamp = _sip.stakingTimestamp... */\n      swap1\n      pop\n        /* \"TimeAllySIP.sol\":14774:14788  _stakerAddress */\n      dup8\n        /* \"TimeAllySIP.sol\":14760:14788  msg.sender != _stakerAddress */\n      0xffffffffffffffffffffffffffffffffffffffff\n      and\n        /* \"TimeAllySIP.sol\":14760:14770  msg.sender */\n      caller\n        /* \"TimeAllySIP.sol\":14760:14788  msg.sender != _stakerAddress */\n      0xffffffffffffffffffffffffffffffffffffffff\n      and\n      eq\n        /* \"TimeAllySIP.sol\":14757:14853  if(msg.sender != _stakerAddress) {... */\n      tag_125\n      jumpi\n        /* \"TimeAllySIP.sol\":14844:14846  12 */\n      0x0c\n        /* \"TimeAllySIP.sol\":14819:14841  EARTH_SECONDS_IN_MONTH */\n      sload(0x02)\n        /* \"TimeAllySIP.sol\":14819:14846  EARTH_SECONDS_IN_MONTH * 12 */\n      mul\n        /* \"TimeAllySIP.sol\":14798:14846  _allowedTimestamp += EARTH_SECONDS_IN_MONTH * 12 */\n      dup2\n      add\n      swap1\n      pop\n        /* \"TimeAllySIP.sol\":14757:14853  if(msg.sender != _stakerAddress) {... */\n    tag_125:\n        /* \"TimeAllySIP.sol\":14872:14889  _allowedTimestamp */\n      dup1\n        /* \"TimeAllySIP.sol\":14866:14869  now */\n      timestamp\n        /* \"TimeAllySIP.sol\":14866:14889  now > _allowedTimestamp */\n      gt\n        /* \"TimeAllySIP.sol\":14858:14915  require(now > _allowedTimestamp, 'cannot withdraw early') */\n      tag_126\n      jumpi\n      mload(0x40)\n      0x08c379a000000000000000000000000000000000000000000000000000000000\n      dup2\n      mstore\n      0x04\n      add\n      dup1\n      dup1\n      0x20\n      add\n      dup3\n      dup2\n      sub\n      dup3\n      mstore\n      0x15\n      dup2\n      mstore\n      0x20\n      add\n      dup1\n      0x63616e6e6f74207769746864726177206561726c790000000000000000000000\n      dup2\n      mstore\n      pop\n      0x20\n      add\n      swap2\n      pop\n      pop\n      mload(0x40)\n      dup1\n      swap2\n      sub\n      swap1\n      revert\n    tag_126:\n        /* \"TimeAllySIP.sol\":14922:14949  uint256 _powerBoosterAmount */\n      0x00\n        /* \"TimeAllySIP.sol\":14952:15018  calculatePowerBooster(_stakerAddress, _sipId, _powerBoosterSerial) */\n      tag_127\n        /* \"TimeAllySIP.sol\":14974:14988  _stakerAddress */\n      dup10\n        /* \"TimeAllySIP.sol\":14990:14996  _sipId */\n      dup10\n        /* \"TimeAllySIP.sol\":14998:15017  _powerBoosterSerial */\n      dup6\n        /* \"TimeAllySIP.sol\":14952:14973  calculatePowerBooster */\n      tag_66\n        /* \"TimeAllySIP.sol\":14952:15018  calculatePowerBooster(_stakerAddress, _sipId, _powerBoosterSerial) */\n      jump\t// in\n    tag_127:\n        /* \"TimeAllySIP.sol\":14922:15018  uint256 _powerBoosterAmount = calculatePowerBooster(_stakerAddress, _sipId, _powerBoosterSerial) */\n      swap1\n      pop\n        /* \"TimeAllySIP.sol\":15108:15127  _powerBoosterSerial */\n      dup3\n        /* \"TimeAllySIP.sol\":15078:15082  _sip */\n      dup5\n        /* \"TimeAllySIP.sol\":15078:15105  _sip.powerBoosterWithdrawls */\n      0x06\n      add\n        /* \"TimeAllySIP.sol\":15078:15127  _sip.powerBoosterWithdrawls = _powerBoosterSerial */\n      dup2\n      swap1\n      sstore\n      pop\n        /* \"TimeAllySIP.sol\":15134:15139  token */\n      0x01\n      0x00\n      swap1\n      sload\n      swap1\n      0x0100\n      exp\n      swap1\n      div\n      0xffffffffffffffffffffffffffffffffffffffff\n      and\n        /* \"TimeAllySIP.sol\":15134:15148  token.transfer */\n      0xffffffffffffffffffffffffffffffffffffffff\n      and\n      0xa9059cbb\n        /* \"TimeAllySIP.sol\":15149:15159  msg.sender */\n      caller\n        /* \"TimeAllySIP.sol\":15161:15180  _powerBoosterAmount */\n      dup4\n        /* \"TimeAllySIP.sol\":15134:15181  token.transfer(msg.sender, _powerBoosterAmount) */\n      mload(0x40)\n      dup4\n      0xffffffff\n      and\n      0xe0\n      shl\n      dup2\n      mstore\n      0x04\n      add\n      dup1\n      dup4\n      0xffffffffffffffffffffffffffffffffffffffff\n      and\n      0xffffffffffffffffffffffffffffffffffffffff\n      and\n      dup2\n      mstore\n      0x20\n      add\n      dup3\n      dup2\n      mstore\n      0x20\n      add\n      swap3\n      pop\n      pop\n      pop\n      0x20\n      mload(0x40)\n      dup1\n      dup4\n      sub\n      dup2\n      0x00\n      dup8\n      dup1\n      extcodesize\n      iszero\n        /* \"--CODEGEN--\":8:17   */\n      dup1\n        /* \"--CODEGEN--\":5:7   */\n      iszero\n      tag_128\n      jumpi\n        /* \"--CODEGEN--\":30:31   */\n      0x00\n        /* \"--CODEGEN--\":27:28   */\n      dup1\n        /* \"--CODEGEN--\":20:32   */\n      revert\n        /* \"--CODEGEN--\":5:7   */\n    tag_128:\n        /* \"TimeAllySIP.sol\":15134:15181  token.transfer(msg.sender, _powerBoosterAmount) */\n      pop\n      gas\n      call\n      iszero\n        /* \"--CODEGEN--\":8:17   */\n      dup1\n        /* \"--CODEGEN--\":5:7   */\n      iszero\n      tag_129\n      jumpi\n        /* \"--CODEGEN--\":45:61   */\n      returndatasize\n        /* \"--CODEGEN--\":42:43   */\n      0x00\n        /* \"--CODEGEN--\":39:40   */\n      dup1\n        /* \"--CODEGEN--\":24:62   */\n      returndatacopy\n        /* \"--CODEGEN--\":77:93   */\n      returndatasize\n        /* \"--CODEGEN--\":74:75   */\n      0x00\n        /* \"--CODEGEN--\":67:94   */\n      revert\n        /* \"--CODEGEN--\":5:7   */\n    tag_129:\n        /* \"TimeAllySIP.sol\":15134:15181  token.transfer(msg.sender, _powerBoosterAmount) */\n      pop\n      pop\n      pop\n      pop\n      mload(0x40)\n      returndatasize\n        /* \"--CODEGEN--\":13:15   */\n      0x20\n        /* \"--CODEGEN--\":8:11   */\n      dup2\n        /* \"--CODEGEN--\":5:16   */\n      lt\n        /* \"--CODEGEN--\":2:4   */\n      iszero\n      tag_130\n      jumpi\n        /* \"--CODEGEN--\":29:30   */\n      0x00\n        /* \"--CODEGEN--\":26:27   */\n      dup1\n        /* \"--CODEGEN--\":19:31   */\n      revert\n        /* \"--CODEGEN--\":2:4   */\n    tag_130:\n        /* \"TimeAllySIP.sol\":15134:15181  token.transfer(msg.sender, _powerBoosterAmount) */\n      dup2\n      add\n      swap1\n      dup1\n      dup1\n      mload\n      swap1\n      0x20\n      add\n      swap1\n      swap3\n      swap2\n      swap1\n      pop\n      pop\n      pop\n      pop\n        /* \"TimeAllySIP.sol\":15244:15250  _sipId */\n      dup8\n        /* \"TimeAllySIP.sol\":15222:15236  _stakerAddress */\n      dup10\n        /* \"TimeAllySIP.sol\":15193:15328  PowerBoosterWithdrawl(... */\n      0xffffffffffffffffffffffffffffffffffffffff\n      and\n      0xa1c568ef1602bc58c1e32ea2f1251b87874dce947f5d4f4df53677d06d5bf56d\n        /* \"TimeAllySIP.sol\":15258:15277  _powerBoosterSerial */\n      dup6\n        /* \"TimeAllySIP.sol\":15285:15304  _powerBoosterAmount */\n      dup5\n        /* \"TimeAllySIP.sol\":15312:15322  msg.sender */\n      caller\n        /* \"TimeAllySIP.sol\":15193:15328  PowerBoosterWithdrawl(... */\n      mload(0x40)\n      dup1\n      dup5\n      dup2\n      mstore\n      0x20\n      add\n      dup4\n      dup2\n      mstore\n      0x20\n      add\n      dup3\n      0xffffffffffffffffffffffffffffffffffffffff\n      and\n      0xffffffffffffffffffffffffffffffffffffffff\n      and\n      dup2\n      mstore\n      0x20\n      add\n      swap4\n      pop\n      pop\n      pop\n      pop\n      mload(0x40)\n      dup1\n      swap2\n      sub\n      swap1\n      log3\n        /* \"TimeAllySIP.sol\":3921:3922  _ */\n      pop\n      pop\n      pop\n      pop\n        /* \"TimeAllySIP.sol\":14109:15333  function withdrawPowerBooster(... */\n      pop\n      pop\n      pop\n      pop\n      pop\n      jump\t// out\n        /* \"TimeAllySIP.sol\":4221:5217  function createSIPPlan(... */\n    tag_47:\n        /* \"TimeAllySIP.sol\":3636:3641  owner */\n      0x00\n      dup1\n      swap1\n      sload\n      swap1\n      0x0100\n      exp\n      swap1\n      div\n      0xffffffffffffffffffffffffffffffffffffffff\n      and\n        /* \"TimeAllySIP.sol\":3622:3641  msg.sender == owner */\n      0xffffffffffffffffffffffffffffffffffffffff\n      and\n        /* \"TimeAllySIP.sol\":3622:3632  msg.sender */\n      caller\n        /* \"TimeAllySIP.sol\":3622:3641  msg.sender == owner */\n      0xffffffffffffffffffffffffffffffffffffffff\n      and\n      eq\n        /* \"TimeAllySIP.sol\":3614:3668  require(msg.sender == owner, 'only deployer can call') */\n      tag_132\n      jumpi\n      mload(0x40)\n      0x08c379a000000000000000000000000000000000000000000000000000000000\n      dup2\n      mstore\n      0x04\n      add\n      dup1\n      dup1\n      0x20\n      add\n      dup3\n      dup2\n      sub\n      dup3\n      mstore\n      0x16\n      dup2\n      mstore\n      0x20\n      add\n      dup1\n      0x6f6e6c79206465706c6f7965722063616e2063616c6c00000000000000000000\n      dup2\n      mstore\n      pop\n      0x20\n      add\n      swap2\n      pop\n      pop\n      mload(0x40)\n      dup1\n      swap2\n      sub\n      swap1\n      revert\n    tag_132:\n        /* \"TimeAllySIP.sol\":4632:4640  sipPlans */\n      0x05\n        /* \"TimeAllySIP.sol\":4646:5211  SIPPlan({... */\n      mload(0x40)\n      dup1\n      0x0100\n      add\n      0x40\n      mstore\n      dup1\n        /* \"TimeAllySIP.sol\":4676:4680  true */\n      0x01\n        /* \"TimeAllySIP.sol\":4646:5211  SIPPlan({... */\n      iszero\n      iszero\n      dup2\n      mstore\n      0x20\n      add\n        /* \"TimeAllySIP.sol\":4720:4751  _minimumMonthlyCommitmentAmount */\n      dup10\n        /* \"TimeAllySIP.sol\":4646:5211  SIPPlan({... */\n      dup2\n      mstore\n      0x20\n      add\n        /* \"TimeAllySIP.sol\":4785:4810  _accumulationPeriodMonths */\n      dup9\n        /* \"TimeAllySIP.sol\":4646:5211  SIPPlan({... */\n      dup2\n      mstore\n      0x20\n      add\n        /* \"TimeAllySIP.sol\":4838:4857  _benefitPeriodYears */\n      dup8\n        /* \"TimeAllySIP.sol\":4646:5211  SIPPlan({... */\n      dup2\n      mstore\n      0x20\n      add\n        /* \"TimeAllySIP.sol\":4885:4904  _gracePeriodSeconds */\n      dup7\n        /* \"TimeAllySIP.sol\":4646:5211  SIPPlan({... */\n      dup2\n      mstore\n      0x20\n      add\n        /* \"TimeAllySIP.sol\":4934:4955  _monthlyBenefitFactor */\n      dup6\n        /* \"TimeAllySIP.sol\":4646:5211  SIPPlan({... */\n      dup2\n      mstore\n      0x20\n      add\n        /* \"TimeAllySIP.sol\":4983:5002  _gracePenaltyFactor */\n      dup5\n        /* \"TimeAllySIP.sol\":4646:5211  SIPPlan({... */\n      dup2\n      mstore\n      0x20\n      add\n        /* \"TimeAllySIP.sol\":5032:5053  _defaultPenaltyFactor */\n      dup4\n        /* \"TimeAllySIP.sol\":4646:5211  SIPPlan({... */\n      dup2\n      mstore\n      pop\n        /* \"TimeAllySIP.sol\":4632:5212  sipPlans.push(SIPPlan({... */\n      swap1\n      dup1\n        /* \"--CODEGEN--\":39:40   */\n      0x01\n        /* \"--CODEGEN--\":33:36   */\n      dup2\n        /* \"--CODEGEN--\":27:37   */\n      sload\n        /* \"--CODEGEN--\":23:41   */\n      add\n        /* \"--CODEGEN--\":57:67   */\n      dup1\n        /* \"--CODEGEN--\":52:55   */\n      dup3\n        /* \"--CODEGEN--\":45:68   */\n      sstore\n        /* \"--CODEGEN--\":79:89   */\n      dup1\n        /* \"--CODEGEN--\":72:89   */\n      swap2\n      pop\n        /* \"--CODEGEN--\":0:93   */\n      pop\n        /* \"TimeAllySIP.sol\":4632:5212  sipPlans.push(SIPPlan({... */\n      swap1\n      0x01\n      dup3\n      sub\n      swap1\n      0x00\n      mstore\n      keccak256(0x00, 0x20)\n      swap1\n      0x08\n      mul\n      add\n      0x00\n      swap1\n      swap2\n      swap3\n      swap1\n      swap2\n      swap1\n      swap2\n      pop\n      0x00\n      dup3\n      add\n      mload\n      dup2\n      0x00\n      add\n      exp(0x0100, 0x00)\n      dup2\n      sload\n      dup2\n      0xff\n      mul\n      not\n      and\n      swap1\n      dup4\n      iszero\n      iszero\n      mul\n      or\n      swap1\n      sstore\n      pop\n      0x20\n      dup3\n      add\n      mload\n      dup2\n      0x01\n      add\n      sstore\n      0x40\n      dup3\n      add\n      mload\n      dup2\n      0x02\n      add\n      sstore\n      0x60\n      dup3\n      add\n      mload\n      dup2\n      0x03\n      add\n      sstore\n      0x80\n      dup3\n      add\n      mload\n      dup2\n      0x04\n      add\n      sstore\n      0xa0\n      dup3\n      add\n      mload\n      dup2\n      0x05\n      add\n      sstore\n      0xc0\n      dup3\n      add\n      mload\n      dup2\n      0x06\n      add\n      sstore\n      0xe0\n      dup3\n      add\n      mload\n      dup2\n      0x07\n      add\n      sstore\n      pop\n      pop\n      pop\n        /* \"TimeAllySIP.sol\":4221:5217  function createSIPPlan(... */\n      pop\n      pop\n      pop\n      pop\n      pop\n      pop\n      pop\n      jump\t// out\n        /* \"TimeAllySIP.sol\":15598:15782  function viewNomination(address _userAddress, uint256 _sipId, address _nomineeAddress) public view returns (bool) {... */\n    tag_50:\n        /* \"TimeAllySIP.sol\":15706:15710  bool */\n      0x00\n        /* \"TimeAllySIP.sol\":15725:15729  sips */\n      0x06\n        /* \"TimeAllySIP.sol\":15725:15743  sips[_userAddress] */\n      0x00\n        /* \"TimeAllySIP.sol\":15730:15742  _userAddress */\n      dup6\n        /* \"TimeAllySIP.sol\":15725:15743  sips[_userAddress] */\n      0xffffffffffffffffffffffffffffffffffffffff\n      and\n      0xffffffffffffffffffffffffffffffffffffffff\n      and\n      dup2\n      mstore\n      0x20\n      add\n      swap1\n      dup2\n      mstore\n      0x20\n      add\n      0x00\n      keccak256\n        /* \"TimeAllySIP.sol\":15744:15750  _sipId */\n      dup4\n        /* \"TimeAllySIP.sol\":15725:15751  sips[_userAddress][_sipId] */\n      dup2\n      sload\n      dup2\n      lt\n      tag_136\n      jumpi\n      invalid\n    tag_136:\n      swap1\n      0x00\n      mstore\n      keccak256(0x00, 0x20)\n      swap1\n      0x0c\n      mul\n      add\n        /* \"TimeAllySIP.sol\":15725:15760  sips[_userAddress][_sipId].nominees */\n      0x0a\n      add\n        /* \"TimeAllySIP.sol\":15725:15777  sips[_userAddress][_sipId].nominees[_nomineeAddress] */\n      0x00\n        /* \"TimeAllySIP.sol\":15761:15776  _nomineeAddress */\n      dup4\n        /* \"TimeAllySIP.sol\":15725:15777  sips[_userAddress][_sipId].nominees[_nomineeAddress] */\n      0xffffffffffffffffffffffffffffffffffffffff\n      and\n      0xffffffffffffffffffffffffffffffffffffffff\n      and\n      dup2\n      mstore\n      0x20\n      add\n      swap1\n      dup2\n      mstore\n      0x20\n      add\n      0x00\n      keccak256\n      0x00\n      swap1\n      sload\n      swap1\n      0x0100\n      exp\n      swap1\n      div\n      0xff\n      and\n        /* \"TimeAllySIP.sol\":15718:15777  return sips[_userAddress][_sipId].nominees[_nomineeAddress] */\n      swap1\n      pop\n        /* \"TimeAllySIP.sol\":15598:15782  function viewNomination(address _userAddress, uint256 _sipId, address _nomineeAddress) public view returns (bool) {... */\n      swap4\n      swap3\n      pop\n      pop\n      pop\n      jump\t// out\n        /* \"TimeAllySIP.sol\":5811:7530  function newSIP(... */\n    tag_53:\n        /* \"TimeAllySIP.sol\":5946:5954  sipPlans */\n      0x05\n        /* \"TimeAllySIP.sol\":5955:5962  _planId */\n      dup3\n        /* \"TimeAllySIP.sol\":5946:5963  sipPlans[_planId] */\n      dup2\n      sload\n      dup2\n      lt\n      tag_139\n      jumpi\n      invalid\n    tag_139:\n      swap1\n      0x00\n      mstore\n      keccak256(0x00, 0x20)\n      swap1\n      0x08\n      mul\n      add\n        /* \"TimeAllySIP.sol\":5946:5994  sipPlans[_planId].minimumMonthlyCommitmentAmount */\n      0x01\n      add\n      sload\n        /* \"TimeAllySIP.sol\":5918:5942  _monthlyCommitmentAmount */\n      dup2\n        /* \"TimeAllySIP.sol\":5918:5994  _monthlyCommitmentAmount >= sipPlans[_planId].minimumMonthlyCommitmentAmount */\n      lt\n      iszero\n        /* \"TimeAllySIP.sol\":5903:6043  require(... */\n      tag_141\n      jumpi\n      mload(0x40)\n      0x08c379a000000000000000000000000000000000000000000000000000000000\n      dup2\n      mstore\n      0x04\n      add\n      dup1\n      dup1\n      0x20\n      add\n      dup3\n      dup2\n      sub\n      dup3\n      mstore\n      0x20\n      dup2\n      mstore\n      0x20\n      add\n      dup1\n      0x616d6f756e742073686f756c642062652061746c65617374206d696e696d756d\n      dup2\n      mstore\n      pop\n      0x20\n      add\n      swap2\n      pop\n      pop\n      mload(0x40)\n      dup1\n      swap2\n      sub\n      swap1\n      revert\n    tag_141:\n        /* \"TimeAllySIP.sol\":6057:6062  token */\n      0x01\n      0x00\n      swap1\n      sload\n      swap1\n      0x0100\n      exp\n      swap1\n      div\n      0xffffffffffffffffffffffffffffffffffffffff\n      and\n        /* \"TimeAllySIP.sol\":6057:6075  token.transferFrom */\n      0xffffffffffffffffffffffffffffffffffffffff\n      and\n      0x23b872dd\n        /* \"TimeAllySIP.sol\":6076:6086  msg.sender */\n      caller\n        /* \"TimeAllySIP.sol\":6096:6100  this */\n      address\n        /* \"TimeAllySIP.sol\":6103:6127  _monthlyCommitmentAmount */\n      dup5\n        /* \"TimeAllySIP.sol\":6057:6128  token.transferFrom(msg.sender, address(this), _monthlyCommitmentAmount) */\n      mload(0x40)\n      dup5\n      0xffffffff\n      and\n      0xe0\n      shl\n      dup2\n      mstore\n      0x04\n      add\n      dup1\n      dup5\n      0xffffffffffffffffffffffffffffffffffffffff\n      and\n      0xffffffffffffffffffffffffffffffffffffffff\n      and\n      dup2\n      mstore\n      0x20\n      add\n      dup4\n      0xffffffffffffffffffffffffffffffffffffffff\n      and\n      0xffffffffffffffffffffffffffffffffffffffff\n      and\n      dup2\n      mstore\n      0x20\n      add\n      dup3\n      dup2\n      mstore\n      0x20\n      add\n      swap4\n      pop\n      pop\n      pop\n      pop\n      0x20\n      mload(0x40)\n      dup1\n      dup4\n      sub\n      dup2\n      0x00\n      dup8\n      dup1\n      extcodesize\n      iszero\n        /* \"--CODEGEN--\":8:17   */\n      dup1\n        /* \"--CODEGEN--\":5:7   */\n      iszero\n      tag_142\n      jumpi\n        /* \"--CODEGEN--\":30:31   */\n      0x00\n        /* \"--CODEGEN--\":27:28   */\n      dup1\n        /* \"--CODEGEN--\":20:32   */\n      revert\n        /* \"--CODEGEN--\":5:7   */\n    tag_142:\n        /* \"TimeAllySIP.sol\":6057:6128  token.transferFrom(msg.sender, address(this), _monthlyCommitmentAmount) */\n      pop\n      gas\n      call\n      iszero\n        /* \"--CODEGEN--\":8:17   */\n      dup1\n        /* \"--CODEGEN--\":5:7   */\n      iszero\n      tag_143\n      jumpi\n        /* \"--CODEGEN--\":45:61   */\n      returndatasize\n        /* \"--CODEGEN--\":42:43   */\n      0x00\n        /* \"--CODEGEN--\":39:40   */\n      dup1\n        /* \"--CODEGEN--\":24:62   */\n      returndatacopy\n        /* \"--CODEGEN--\":77:93   */\n      returndatasize\n        /* \"--CODEGEN--\":74:75   */\n      0x00\n        /* \"--CODEGEN--\":67:94   */\n      revert\n        /* \"--CODEGEN--\":5:7   */\n    tag_143:\n        /* \"TimeAllySIP.sol\":6057:6128  token.transferFrom(msg.sender, address(this), _monthlyCommitmentAmount) */\n      pop\n      pop\n      pop\n      pop\n      mload(0x40)\n      returndatasize\n        /* \"--CODEGEN--\":13:15   */\n      0x20\n        /* \"--CODEGEN--\":8:11   */\n      dup2\n        /* \"--CODEGEN--\":5:16   */\n      lt\n        /* \"--CODEGEN--\":2:4   */\n      iszero\n      tag_144\n      jumpi\n        /* \"--CODEGEN--\":29:30   */\n      0x00\n        /* \"--CODEGEN--\":26:27   */\n      dup1\n        /* \"--CODEGEN--\":19:31   */\n      revert\n        /* \"--CODEGEN--\":2:4   */\n    tag_144:\n        /* \"TimeAllySIP.sol\":6057:6128  token.transferFrom(msg.sender, address(this), _monthlyCommitmentAmount) */\n      dup2\n      add\n      swap1\n      dup1\n      dup1\n      mload\n      swap1\n      0x20\n      add\n      swap1\n      swap3\n      swap2\n      swap1\n      pop\n      pop\n      pop\n        /* \"TimeAllySIP.sol\":6049:6129  require(token.transferFrom(msg.sender, address(this), _monthlyCommitmentAmount)) */\n      tag_145\n      jumpi\n      0x00\n      dup1\n      revert\n    tag_145:\n        /* \"TimeAllySIP.sol\":6136:6140  sips */\n      0x06\n        /* \"TimeAllySIP.sol\":6136:6152  sips[msg.sender] */\n      0x00\n        /* \"TimeAllySIP.sol\":6141:6151  msg.sender */\n      caller\n        /* \"TimeAllySIP.sol\":6136:6152  sips[msg.sender] */\n      0xffffffffffffffffffffffffffffffffffffffff\n      and\n      0xffffffffffffffffffffffffffffffffffffffff\n      and\n      dup2\n      mstore\n      0x20\n      add\n      swap1\n      dup2\n      mstore\n      0x20\n      add\n      0x00\n      keccak256\n        /* \"TimeAllySIP.sol\":6158:6502  SIP({... */\n      mload(0x40)\n      dup1\n      0x0120\n      add\n      0x40\n      mstore\n      dup1\n        /* \"TimeAllySIP.sol\":6178:6185  _planId */\n      dup5\n        /* \"TimeAllySIP.sol\":6158:6502  SIP({... */\n      dup2\n      mstore\n      0x20\n      add\n        /* \"TimeAllySIP.sol\":6201:6202  1 */\n      0x01\n        /* \"TimeAllySIP.sol\":6158:6502  SIP({... */\n      dup2\n      mstore\n      0x20\n      add\n        /* \"TimeAllySIP.sol\":6228:6231  now */\n      timestamp\n        /* \"TimeAllySIP.sol\":6158:6502  SIP({... */\n      dup2\n      mstore\n      0x20\n      add\n        /* \"TimeAllySIP.sol\":6264:6288  _monthlyCommitmentAmount */\n      dup4\n        /* \"TimeAllySIP.sol\":6158:6502  SIP({... */\n      dup2\n      mstore\n      0x20\n      add\n        /* \"TimeAllySIP.sol\":6312:6336  _monthlyCommitmentAmount */\n      dup4\n        /* \"TimeAllySIP.sol\":6158:6502  SIP({... */\n      dup2\n      mstore\n      0x20\n      add\n        /* \"TimeAllySIP.sol\":6366:6367  0 */\n      0x00\n        /* \"TimeAllySIP.sol\":6158:6502  SIP({... */\n      dup2\n      mstore\n      0x20\n      add\n        /* \"TimeAllySIP.sol\":6440:6441  0 */\n      0x00\n        /* \"TimeAllySIP.sol\":6158:6502  SIP({... */\n      dup2\n      mstore\n      0x20\n      add\n        /* \"TimeAllySIP.sol\":6469:6470  0 */\n      0x00\n        /* \"TimeAllySIP.sol\":6158:6502  SIP({... */\n      dup2\n      mstore\n      0x20\n      add\n        /* \"TimeAllySIP.sol\":6494:6495  0 */\n      0x00\n        /* \"TimeAllySIP.sol\":6158:6502  SIP({... */\n      dup2\n      mstore\n      pop\n        /* \"TimeAllySIP.sol\":6136:6503  sips[msg.sender].push(SIP({... */\n      swap1\n      dup1\n        /* \"--CODEGEN--\":39:40   */\n      0x01\n        /* \"--CODEGEN--\":33:36   */\n      dup2\n        /* \"--CODEGEN--\":27:37   */\n      sload\n        /* \"--CODEGEN--\":23:41   */\n      add\n        /* \"--CODEGEN--\":57:67   */\n      dup1\n        /* \"--CODEGEN--\":52:55   */\n      dup3\n        /* \"--CODEGEN--\":45:68   */\n      sstore\n        /* \"--CODEGEN--\":79:89   */\n      dup1\n        /* \"--CODEGEN--\":72:89   */\n      swap2\n      pop\n        /* \"--CODEGEN--\":0:93   */\n      pop\n        /* \"TimeAllySIP.sol\":6136:6503  sips[msg.sender].push(SIP({... */\n      swap1\n      0x01\n      dup3\n      sub\n      swap1\n      0x00\n      mstore\n      keccak256(0x00, 0x20)\n      swap1\n      0x0c\n      mul\n      add\n      0x00\n      swap1\n      swap2\n      swap3\n      swap1\n      swap2\n      swap1\n      swap2\n      pop\n      0x00\n      dup3\n      add\n      mload\n      dup2\n      0x00\n      add\n      sstore\n      0x20\n      dup3\n      add\n      mload\n      dup2\n      0x01\n      add\n      sstore\n      0x40\n      dup3\n      add\n      mload\n      dup2\n      0x02\n      add\n      sstore\n      0x60\n      dup3\n      add\n      mload\n      dup2\n      0x03\n      add\n      sstore\n      0x80\n      dup3\n      add\n      mload\n      dup2\n      0x04\n      add\n      sstore\n      0xa0\n      dup3\n      add\n      mload\n      dup2\n      0x05\n      add\n      sstore\n      0xc0\n      dup3\n      add\n      mload\n      dup2\n      0x06\n      add\n      sstore\n      0xe0\n      dup3\n      add\n      mload\n      dup2\n      0x07\n      add\n      sstore\n      0x0100\n      dup3\n      add\n      mload\n      dup2\n      0x08\n      add\n      sstore\n      pop\n      pop\n      pop\n        /* \"TimeAllySIP.sol\":6545:6742  pendingBenefitAmountOfAllStakers.add(... */\n      tag_147\n        /* \"TimeAllySIP.sol\":6589:6736  _monthlyCommitmentAmount... */\n      tag_148\n        /* \"TimeAllySIP.sol\":6699:6707  sipPlans */\n      0x05\n        /* \"TimeAllySIP.sol\":6708:6715  _planId */\n      dup5\n        /* \"TimeAllySIP.sol\":6699:6716  sipPlans[_planId] */\n      dup2\n      sload\n      dup2\n      lt\n      tag_149\n      jumpi\n      invalid\n    tag_149:\n      swap1\n      0x00\n      mstore\n      keccak256(0x00, 0x20)\n      swap1\n      0x08\n      mul\n      add\n        /* \"TimeAllySIP.sol\":6699:6735  sipPlans[_planId].benefitPeriodYears */\n      0x03\n      add\n      sload\n        /* \"TimeAllySIP.sol\":6589:6685  _monthlyCommitmentAmount... */\n      tag_151\n        /* \"TimeAllySIP.sol\":6680:6684  1000 */\n      0x03e8\n        /* \"TimeAllySIP.sol\":6589:6666  _monthlyCommitmentAmount... */\n      tag_152\n        /* \"TimeAllySIP.sol\":6627:6635  sipPlans */\n      0x05\n        /* \"TimeAllySIP.sol\":6636:6643  _planId */\n      dup9\n        /* \"TimeAllySIP.sol\":6627:6644  sipPlans[_planId] */\n      dup2\n      sload\n      dup2\n      lt\n      tag_153\n      jumpi\n      invalid\n    tag_153:\n      swap1\n      0x00\n      mstore\n      keccak256(0x00, 0x20)\n      swap1\n      0x08\n      mul\n      add\n        /* \"TimeAllySIP.sol\":6627:6665  sipPlans[_planId].monthlyBenefitFactor */\n      0x05\n      add\n      sload\n        /* \"TimeAllySIP.sol\":6589:6613  _monthlyCommitmentAmount */\n      dup8\n        /* \"TimeAllySIP.sol\":6589:6626  _monthlyCommitmentAmount... */\n      tag_155\n      swap1\n        /* \"TimeAllySIP.sol\":6589:6666  _monthlyCommitmentAmount... */\n      swap2\n      swap1\n      0xffffffff\n      and\n      jump\t// in\n    tag_152:\n        /* \"TimeAllySIP.sol\":6589:6679  _monthlyCommitmentAmount... */\n      tag_156\n      swap1\n        /* \"TimeAllySIP.sol\":6589:6685  _monthlyCommitmentAmount... */\n      swap2\n      swap1\n      0xffffffff\n      and\n      jump\t// in\n    tag_151:\n        /* \"TimeAllySIP.sol\":6589:6698  _monthlyCommitmentAmount... */\n      tag_155\n      swap1\n        /* \"TimeAllySIP.sol\":6589:6736  _monthlyCommitmentAmount... */\n      swap2\n      swap1\n      0xffffffff\n      and\n      jump\t// in\n    tag_148:\n        /* \"TimeAllySIP.sol\":6545:6577  pendingBenefitAmountOfAllStakers */\n      sload(0x03)\n        /* \"TimeAllySIP.sol\":6545:6581  pendingBenefitAmountOfAllStakers.add */\n      tag_157\n      swap1\n        /* \"TimeAllySIP.sol\":6545:6742  pendingBenefitAmountOfAllStakers.add(... */\n      swap2\n      swap1\n      0xffffffff\n      and\n      jump\t// in\n    tag_147:\n        /* \"TimeAllySIP.sol\":6510:6542  pendingBenefitAmountOfAllStakers */\n      0x03\n        /* \"TimeAllySIP.sol\":6510:6742  pendingBenefitAmountOfAllStakers = pendingBenefitAmountOfAllStakers.add(... */\n      dup2\n      swap1\n      sstore\n      pop\n        /* \"TimeAllySIP.sol\":6749:6763  uint256 _sipId */\n      0x00\n        /* \"TimeAllySIP.sol\":6792:6793  1 */\n      0x01\n        /* \"TimeAllySIP.sol\":6766:6770  sips */\n      0x06\n        /* \"TimeAllySIP.sol\":6766:6782  sips[msg.sender] */\n      0x00\n        /* \"TimeAllySIP.sol\":6771:6781  msg.sender */\n      caller\n        /* \"TimeAllySIP.sol\":6766:6782  sips[msg.sender] */\n      0xffffffffffffffffffffffffffffffffffffffff\n      and\n      0xffffffffffffffffffffffffffffffffffffffff\n      and\n      dup2\n      mstore\n      0x20\n      add\n      swap1\n      dup2\n      mstore\n      0x20\n      add\n      0x00\n      keccak256\n        /* \"TimeAllySIP.sol\":6766:6789  sips[msg.sender].length */\n      dup1\n      sload\n      swap1\n      pop\n        /* \"TimeAllySIP.sol\":6766:6793  sips[msg.sender].length - 1 */\n      sub\n        /* \"TimeAllySIP.sol\":6749:6793  uint256 _sipId = sips[msg.sender].length - 1 */\n      swap1\n      pop\n        /* \"TimeAllySIP.sol\":7058:7059  2 */\n      0x02\n        /* \"TimeAllySIP.sol\":7014:7018  sips */\n      0x06\n        /* \"TimeAllySIP.sol\":7014:7030  sips[msg.sender] */\n      0x00\n        /* \"TimeAllySIP.sol\":7019:7029  msg.sender */\n      caller\n        /* \"TimeAllySIP.sol\":7014:7030  sips[msg.sender] */\n      0xffffffffffffffffffffffffffffffffffffffff\n      and\n      0xffffffffffffffffffffffffffffffffffffffff\n      and\n      dup2\n      mstore\n      0x20\n      add\n      swap1\n      dup2\n      mstore\n      0x20\n      add\n      0x00\n      keccak256\n        /* \"TimeAllySIP.sol\":7031:7037  _sipId */\n      dup3\n        /* \"TimeAllySIP.sol\":7014:7038  sips[msg.sender][_sipId] */\n      dup2\n      sload\n      dup2\n      lt\n      tag_158\n      jumpi\n      invalid\n    tag_158:\n      swap1\n      0x00\n      mstore\n      keccak256(0x00, 0x20)\n      swap1\n      0x0c\n      mul\n      add\n        /* \"TimeAllySIP.sol\":7014:7052  sips[msg.sender][_sipId].depositStatus */\n      0x09\n      add\n        /* \"TimeAllySIP.sol\":7014:7055  sips[msg.sender][_sipId].depositStatus[1] */\n      0x00\n        /* \"TimeAllySIP.sol\":7053:7054  1 */\n      0x01\n        /* \"TimeAllySIP.sol\":7014:7055  sips[msg.sender][_sipId].depositStatus[1] */\n      dup2\n      mstore\n      0x20\n      add\n      swap1\n      dup2\n      mstore\n      0x20\n      add\n      0x00\n      keccak256\n        /* \"TimeAllySIP.sol\":7014:7059  sips[msg.sender][_sipId].depositStatus[1] = 2 */\n      dup2\n      swap1\n      sstore\n      pop\n        /* \"TimeAllySIP.sol\":7066:7088  uint256 _benefitQueued */\n      0x00\n        /* \"TimeAllySIP.sol\":7091:7236  _monthlyCommitmentAmount... */\n      tag_160\n        /* \"TimeAllySIP.sol\":7197:7205  sipPlans */\n      0x05\n        /* \"TimeAllySIP.sol\":7207:7214  _planId */\n      dup6\n        /* \"TimeAllySIP.sol\":7197:7216  sipPlans[ _planId ] */\n      dup2\n      sload\n      dup2\n      lt\n      tag_161\n      jumpi\n      invalid\n    tag_161:\n      swap1\n      0x00\n      mstore\n      keccak256(0x00, 0x20)\n      swap1\n      0x08\n      mul\n      add\n        /* \"TimeAllySIP.sol\":7197:7235  sipPlans[ _planId ].benefitPeriodYears */\n      0x03\n      add\n      sload\n        /* \"TimeAllySIP.sol\":7091:7185  _monthlyCommitmentAmount... */\n      tag_163\n        /* \"TimeAllySIP.sol\":7180:7184  1000 */\n      0x03e8\n        /* \"TimeAllySIP.sol\":7091:7168  _monthlyCommitmentAmount... */\n      tag_164\n        /* \"TimeAllySIP.sol\":7127:7135  sipPlans */\n      0x05\n        /* \"TimeAllySIP.sol\":7137:7144  _planId */\n      dup10\n        /* \"TimeAllySIP.sol\":7127:7146  sipPlans[ _planId ] */\n      dup2\n      sload\n      dup2\n      lt\n      tag_165\n      jumpi\n      invalid\n    tag_165:\n      swap1\n      0x00\n      mstore\n      keccak256(0x00, 0x20)\n      swap1\n      0x08\n      mul\n      add\n        /* \"TimeAllySIP.sol\":7127:7167  sipPlans[ _planId ].monthlyBenefitFactor */\n      0x05\n      add\n      sload\n        /* \"TimeAllySIP.sol\":7091:7115  _monthlyCommitmentAmount */\n      dup9\n        /* \"TimeAllySIP.sol\":7091:7126  _monthlyCommitmentAmount... */\n      tag_155\n      swap1\n        /* \"TimeAllySIP.sol\":7091:7168  _monthlyCommitmentAmount... */\n      swap2\n      swap1\n      0xffffffff\n      and\n      jump\t// in\n    tag_164:\n        /* \"TimeAllySIP.sol\":7091:7179  _monthlyCommitmentAmount... */\n      tag_156\n      swap1\n        /* \"TimeAllySIP.sol\":7091:7185  _monthlyCommitmentAmount... */\n      swap2\n      swap1\n      0xffffffff\n      and\n      jump\t// in\n    tag_163:\n        /* \"TimeAllySIP.sol\":7091:7196  _monthlyCommitmentAmount... */\n      tag_155\n      swap1\n        /* \"TimeAllySIP.sol\":7091:7236  _monthlyCommitmentAmount... */\n      swap2\n      swap1\n      0xffffffff\n      and\n      jump\t// in\n    tag_160:\n        /* \"TimeAllySIP.sol\":7066:7236  uint256 _benefitQueued = _monthlyCommitmentAmount... */\n      swap1\n      pop\n        /* \"TimeAllySIP.sol\":7278:7342  pendingBenefitAmountOfAllStakers.add(... */\n      tag_167\n        /* \"TimeAllySIP.sol\":7322:7336  _benefitQueued */\n      dup2\n        /* \"TimeAllySIP.sol\":7278:7310  pendingBenefitAmountOfAllStakers */\n      sload(0x03)\n        /* \"TimeAllySIP.sol\":7278:7314  pendingBenefitAmountOfAllStakers.add */\n      tag_157\n      swap1\n        /* \"TimeAllySIP.sol\":7278:7342  pendingBenefitAmountOfAllStakers.add(... */\n      swap2\n      swap1\n      0xffffffff\n      and\n      jump\t// in\n    tag_167:\n        /* \"TimeAllySIP.sol\":7243:7275  pendingBenefitAmountOfAllStakers */\n      0x03\n        /* \"TimeAllySIP.sol\":7243:7342  pendingBenefitAmountOfAllStakers = pendingBenefitAmountOfAllStakers.add(... */\n      dup2\n      swap1\n      sstore\n      pop\n        /* \"TimeAllySIP.sol\":7361:7371  msg.sender */\n      caller\n        /* \"TimeAllySIP.sol\":7354:7427  NewSIP(msg.sender, sips[msg.sender].length - 1, _monthlyCommitmentAmount) */\n      0xffffffffffffffffffffffffffffffffffffffff\n      and\n      0x1dec97fc36aa6dfa81b208ec37b3ac8dae30717f0622f9cfb2e7223dc95326ec\n        /* \"TimeAllySIP.sol\":7399:7400  1 */\n      0x01\n        /* \"TimeAllySIP.sol\":7373:7377  sips */\n      0x06\n        /* \"TimeAllySIP.sol\":7373:7389  sips[msg.sender] */\n      0x00\n        /* \"TimeAllySIP.sol\":7378:7388  msg.sender */\n      caller\n        /* \"TimeAllySIP.sol\":7373:7389  sips[msg.sender] */\n      0xffffffffffffffffffffffffffffffffffffffff\n      and\n      0xffffffffffffffffffffffffffffffffffffffff\n      and\n      dup2\n      mstore\n      0x20\n      add\n      swap1\n      dup2\n      mstore\n      0x20\n      add\n      0x00\n      keccak256\n        /* \"TimeAllySIP.sol\":7373:7396  sips[msg.sender].length */\n      dup1\n      sload\n      swap1\n      pop\n        /* \"TimeAllySIP.sol\":7373:7400  sips[msg.sender].length - 1 */\n      sub\n        /* \"TimeAllySIP.sol\":7402:7426  _monthlyCommitmentAmount */\n      dup6\n        /* \"TimeAllySIP.sol\":7354:7427  NewSIP(msg.sender, sips[msg.sender].length - 1, _monthlyCommitmentAmount) */\n      mload(0x40)\n      dup1\n      dup4\n      dup2\n      mstore\n      0x20\n      add\n      dup3\n      dup2\n      mstore\n      0x20\n      add\n      swap3\n      pop\n      pop\n      pop\n      mload(0x40)\n      dup1\n      swap2\n      sub\n      swap1\n      log2\n        /* \"TimeAllySIP.sol\":7461:7467  _sipId */\n      dup2\n        /* \"TimeAllySIP.sol\":7449:7459  msg.sender */\n      caller\n        /* \"TimeAllySIP.sol\":7438:7525  NewDeposit(msg.sender, _sipId, 1, _monthlyCommitmentAmount, _benefitQueued, msg.sender) */\n      0xffffffffffffffffffffffffffffffffffffffff\n      and\n      0xbaf4c88598102708c4215d5d3767268130627355850b7ece9bdfdc32fd2941f0\n        /* \"TimeAllySIP.sol\":7469:7470  1 */\n      0x01\n        /* \"TimeAllySIP.sol\":7472:7496  _monthlyCommitmentAmount */\n      dup7\n        /* \"TimeAllySIP.sol\":7498:7512  _benefitQueued */\n      dup6\n        /* \"TimeAllySIP.sol\":7514:7524  msg.sender */\n      caller\n        /* \"TimeAllySIP.sol\":7438:7525  NewDeposit(msg.sender, _sipId, 1, _monthlyCommitmentAmount, _benefitQueued, msg.sender) */\n      mload(0x40)\n      dup1\n      dup6\n      dup2\n      mstore\n      0x20\n      add\n      dup5\n      dup2\n      mstore\n      0x20\n      add\n      dup4\n      dup2\n      mstore\n      0x20\n      add\n      dup3\n      0xffffffffffffffffffffffffffffffffffffffff\n      and\n      0xffffffffffffffffffffffffffffffffffffffff\n      and\n      dup2\n      mstore\n      0x20\n      add\n      swap5\n      pop\n      pop\n      pop\n      pop\n      pop\n      mload(0x40)\n      dup1\n      swap2\n      sub\n      swap1\n      log3\n        /* \"TimeAllySIP.sol\":5811:7530  function newSIP(... */\n      pop\n      pop\n      pop\n      pop\n      jump\t// out\n        /* \"TimeAllySIP.sol\":15786:15856  function getTime() public view returns (uint256) {... */\n    tag_55:\n        /* \"TimeAllySIP.sol\":15826:15833  uint256 */\n      0x00\n        /* \"TimeAllySIP.sol\":15848:15851  now */\n      timestamp\n        /* \"TimeAllySIP.sol\":15841:15851  return now */\n      swap1\n      pop\n        /* \"TimeAllySIP.sol\":15786:15856  function getTime() public view returns (uint256) {... */\n      swap1\n      jump\t// out\n        /* \"TimeAllySIP.sol\":8440:10778  function monthlyDeposit(... */\n    tag_58:\n        /* \"TimeAllySIP.sol\":8585:8599  _stakerAddress */\n      dup4\n        /* \"TimeAllySIP.sol\":8601:8607  _sipId */\n      dup4\n        /* \"TimeAllySIP.sol\":3751:3767  SIP storage _sip */\n      0x00\n        /* \"TimeAllySIP.sol\":3770:3774  sips */\n      0x06\n        /* \"TimeAllySIP.sol\":3770:3790  sips[_stakerAddress] */\n      0x00\n        /* \"TimeAllySIP.sol\":3775:3789  _stakerAddress */\n      dup5\n        /* \"TimeAllySIP.sol\":3770:3790  sips[_stakerAddress] */\n      0xffffffffffffffffffffffffffffffffffffffff\n      and\n      0xffffffffffffffffffffffffffffffffffffffff\n      and\n      dup2\n      mstore\n      0x20\n      add\n      swap1\n      dup2\n      mstore\n      0x20\n      add\n      0x00\n      keccak256\n        /* \"TimeAllySIP.sol\":3791:3797  _sipId */\n      dup3\n        /* \"TimeAllySIP.sol\":3770:3798  sips[_stakerAddress][_sipId] */\n      dup2\n      sload\n      dup2\n      lt\n      tag_170\n      jumpi\n      invalid\n    tag_170:\n      swap1\n      0x00\n      mstore\n      keccak256(0x00, 0x20)\n      swap1\n      0x0c\n      mul\n      add\n        /* \"TimeAllySIP.sol\":3751:3798  SIP storage _sip = sips[_stakerAddress][_sipId] */\n      swap1\n      pop\n        /* \"TimeAllySIP.sol\":3821:3835  _stakerAddress */\n      dup3\n        /* \"TimeAllySIP.sol\":3807:3835  msg.sender != _stakerAddress */\n      0xffffffffffffffffffffffffffffffffffffffff\n      and\n        /* \"TimeAllySIP.sol\":3807:3817  msg.sender */\n      caller\n        /* \"TimeAllySIP.sol\":3807:3835  msg.sender != _stakerAddress */\n      0xffffffffffffffffffffffffffffffffffffffff\n      and\n      eq\n        /* \"TimeAllySIP.sol\":3804:3916  if(msg.sender != _stakerAddress) {... */\n      tag_172\n      jumpi\n        /* \"TimeAllySIP.sol\":3853:3857  _sip */\n      dup1\n        /* \"TimeAllySIP.sol\":3853:3866  _sip.nominees */\n      0x0a\n      add\n        /* \"TimeAllySIP.sol\":3853:3878  _sip.nominees[msg.sender] */\n      0x00\n        /* \"TimeAllySIP.sol\":3867:3877  msg.sender */\n      caller\n        /* \"TimeAllySIP.sol\":3853:3878  _sip.nominees[msg.sender] */\n      0xffffffffffffffffffffffffffffffffffffffff\n      and\n      0xffffffffffffffffffffffffffffffffffffffff\n      and\n      dup2\n      mstore\n      0x20\n      add\n      swap1\n      dup2\n      mstore\n      0x20\n      add\n      0x00\n      keccak256\n      0x00\n      swap1\n      sload\n      swap1\n      0x0100\n      exp\n      swap1\n      div\n      0xff\n      and\n        /* \"TimeAllySIP.sol\":3845:3909  require(_sip.nominees[msg.sender], 'nomination should be there') */\n      tag_173\n      jumpi\n      mload(0x40)\n      0x08c379a000000000000000000000000000000000000000000000000000000000\n      dup2\n      mstore\n      0x04\n      add\n      dup1\n      dup1\n      0x20\n      add\n      dup3\n      dup2\n      sub\n      dup3\n      mstore\n      0x1a\n      dup2\n      mstore\n      0x20\n      add\n      dup1\n      0x6e6f6d696e6174696f6e2073686f756c64206265207468657265000000000000\n      dup2\n      mstore\n      pop\n      0x20\n      add\n      swap2\n      pop\n      pop\n      mload(0x40)\n      dup1\n      swap2\n      sub\n      swap1\n      revert\n    tag_173:\n        /* \"TimeAllySIP.sol\":3804:3916  if(msg.sender != _stakerAddress) {... */\n    tag_172:\n        /* \"TimeAllySIP.sol\":8615:8631  SIP storage _sip */\n      0x00\n        /* \"TimeAllySIP.sol\":8634:8638  sips */\n      0x06\n        /* \"TimeAllySIP.sol\":8634:8654  sips[_stakerAddress] */\n      0x00\n        /* \"TimeAllySIP.sol\":8639:8653  _stakerAddress */\n      dup10\n        /* \"TimeAllySIP.sol\":8634:8654  sips[_stakerAddress] */\n      0xffffffffffffffffffffffffffffffffffffffff\n      and\n      0xffffffffffffffffffffffffffffffffffffffff\n      and\n      dup2\n      mstore\n      0x20\n      add\n      swap1\n      dup2\n      mstore\n      0x20\n      add\n      0x00\n      keccak256\n        /* \"TimeAllySIP.sol\":8655:8661  _sipId */\n      dup8\n        /* \"TimeAllySIP.sol\":8634:8662  sips[_stakerAddress][_sipId] */\n      dup2\n      sload\n      dup2\n      lt\n      tag_175\n      jumpi\n      invalid\n    tag_175:\n      swap1\n      0x00\n      mstore\n      keccak256(0x00, 0x20)\n      swap1\n      0x0c\n      mul\n      add\n        /* \"TimeAllySIP.sol\":8615:8662  SIP storage _sip = sips[_stakerAddress][_sipId] */\n      swap1\n      pop\n        /* \"TimeAllySIP.sol\":8701:8705  _sip */\n      dup1\n        /* \"TimeAllySIP.sol\":8701:8729  _sip.monthlyCommitmentAmount */\n      0x03\n      add\n      sload\n        /* \"TimeAllySIP.sol\":8683:8697  _depositAmount */\n      dup7\n        /* \"TimeAllySIP.sol\":8683:8729  _depositAmount >= _sip.monthlyCommitmentAmount */\n      lt\n      iszero\n        /* \"TimeAllySIP.sol\":8668:8784  require(... */\n      tag_177\n      jumpi\n      mload(0x40)\n      0x08c379a000000000000000000000000000000000000000000000000000000000\n      dup2\n      mstore\n      0x04\n      add\n      dup1\n      dup1\n      0x20\n      add\n      dup3\n      dup2\n      sub\n      dup3\n      mstore\n      0x26\n      dup2\n      mstore\n      0x20\n      add\n      dup1\n      data_9c5671fbe7325ac18b46fc94e6063ecafd5a4a15681b363f5d37ce08ea0b8f61\n      0x26\n      swap2\n      codecopy\n      0x40\n      add\n      swap2\n      pop\n      pop\n      mload(0x40)\n      dup1\n      swap2\n      sub\n      swap1\n      revert\n    tag_177:\n        /* \"TimeAllySIP.sol\":8872:8873  0 */\n      0x00\n        /* \"TimeAllySIP.sol\":8840:8844  _sip */\n      dup2\n        /* \"TimeAllySIP.sol\":8840:8858  _sip.depositStatus */\n      0x09\n      add\n        /* \"TimeAllySIP.sol\":8840:8868  _sip.depositStatus[_monthId] */\n      0x00\n        /* \"TimeAllySIP.sol\":8859:8867  _monthId */\n      dup8\n        /* \"TimeAllySIP.sol\":8840:8868  _sip.depositStatus[_monthId] */\n      dup2\n      mstore\n      0x20\n      add\n      swap1\n      dup2\n      mstore\n      0x20\n      add\n      0x00\n      keccak256\n      sload\n        /* \"TimeAllySIP.sol\":8840:8873  _sip.depositStatus[_monthId] == 0 */\n      eq\n        /* \"TimeAllySIP.sol\":8825:8910  require(... */\n      tag_178\n      jumpi\n      mload(0x40)\n      0x08c379a000000000000000000000000000000000000000000000000000000000\n      dup2\n      mstore\n      0x04\n      add\n      dup1\n      dup1\n      0x20\n      add\n      dup3\n      dup2\n      sub\n      dup3\n      mstore\n      0x14\n      dup2\n      mstore\n      0x20\n      add\n      dup1\n      0x63616e6e6f74206465706f73697420616761696e000000000000000000000000\n      dup2\n      mstore\n      pop\n      0x20\n      add\n      swap2\n      pop\n      pop\n      mload(0x40)\n      dup1\n      swap2\n      sub\n      swap1\n      revert\n    tag_178:\n        /* \"TimeAllySIP.sol\":8925:8930  token */\n      0x01\n      0x00\n      swap1\n      sload\n      swap1\n      0x0100\n      exp\n      swap1\n      div\n      0xffffffffffffffffffffffffffffffffffffffff\n      and\n        /* \"TimeAllySIP.sol\":8925:8943  token.transferFrom */\n      0xffffffffffffffffffffffffffffffffffffffff\n      and\n      0x23b872dd\n        /* \"TimeAllySIP.sol\":8944:8954  msg.sender */\n      caller\n        /* \"TimeAllySIP.sol\":8964:8968  this */\n      address\n        /* \"TimeAllySIP.sol\":8971:8985  _depositAmount */\n      dup10\n        /* \"TimeAllySIP.sol\":8925:8986  token.transferFrom(msg.sender, address(this), _depositAmount) */\n      mload(0x40)\n      dup5\n      0xffffffff\n      and\n      0xe0\n      shl\n      dup2\n      mstore\n      0x04\n      add\n      dup1\n      dup5\n      0xffffffffffffffffffffffffffffffffffffffff\n      and\n      0xffffffffffffffffffffffffffffffffffffffff\n      and\n      dup2\n      mstore\n      0x20\n      add\n      dup4\n      0xffffffffffffffffffffffffffffffffffffffff\n      and\n      0xffffffffffffffffffffffffffffffffffffffff\n      and\n      dup2\n      mstore\n      0x20\n      add\n      dup3\n      dup2\n      mstore\n      0x20\n      add\n      swap4\n      pop\n      pop\n      pop\n      pop\n      0x20\n      mload(0x40)\n      dup1\n      dup4\n      sub\n      dup2\n      0x00\n      dup8\n      dup1\n      extcodesize\n      iszero\n        /* \"--CODEGEN--\":8:17   */\n      dup1\n        /* \"--CODEGEN--\":5:7   */\n      iszero\n      tag_179\n      jumpi\n        /* \"--CODEGEN--\":30:31   */\n      0x00\n        /* \"--CODEGEN--\":27:28   */\n      dup1\n        /* \"--CODEGEN--\":20:32   */\n      revert\n        /* \"--CODEGEN--\":5:7   */\n    tag_179:\n        /* \"TimeAllySIP.sol\":8925:8986  token.transferFrom(msg.sender, address(this), _depositAmount) */\n      pop\n      gas\n      call\n      iszero\n        /* \"--CODEGEN--\":8:17   */\n      dup1\n        /* \"--CODEGEN--\":5:7   */\n      iszero\n      tag_180\n      jumpi\n        /* \"--CODEGEN--\":45:61   */\n      returndatasize\n        /* \"--CODEGEN--\":42:43   */\n      0x00\n        /* \"--CODEGEN--\":39:40   */\n      dup1\n        /* \"--CODEGEN--\":24:62   */\n      returndatacopy\n        /* \"--CODEGEN--\":77:93   */\n      returndatasize\n        /* \"--CODEGEN--\":74:75   */\n      0x00\n        /* \"--CODEGEN--\":67:94   */\n      revert\n        /* \"--CODEGEN--\":5:7   */\n    tag_180:\n        /* \"TimeAllySIP.sol\":8925:8986  token.transferFrom(msg.sender, address(this), _depositAmount) */\n      pop\n      pop\n      pop\n      pop\n      mload(0x40)\n      returndatasize\n        /* \"--CODEGEN--\":13:15   */\n      0x20\n        /* \"--CODEGEN--\":8:11   */\n      dup2\n        /* \"--CODEGEN--\":5:16   */\n      lt\n        /* \"--CODEGEN--\":2:4   */\n      iszero\n      tag_181\n      jumpi\n        /* \"--CODEGEN--\":29:30   */\n      0x00\n        /* \"--CODEGEN--\":26:27   */\n      dup1\n        /* \"--CODEGEN--\":19:31   */\n      revert\n        /* \"--CODEGEN--\":2:4   */\n    tag_181:\n        /* \"TimeAllySIP.sol\":8925:8986  token.transferFrom(msg.sender, address(this), _depositAmount) */\n      dup2\n      add\n      swap1\n      dup1\n      dup1\n      mload\n      swap1\n      0x20\n      add\n      swap1\n      swap3\n      swap2\n      swap1\n      pop\n      pop\n      pop\n        /* \"TimeAllySIP.sol\":8917:8987  require(token.transferFrom(msg.sender, address(this), _depositAmount)) */\n      tag_182\n      jumpi\n      0x00\n      dup1\n      revert\n    tag_182:\n        /* \"TimeAllySIP.sol\":8994:9016  uint256 _depositStatus */\n      0x00\n        /* \"TimeAllySIP.sol\":9019:9069  getDepositStatus(_stakerAddress, _sipId, _monthId) */\n      tag_183\n        /* \"TimeAllySIP.sol\":9036:9050  _stakerAddress */\n      dup10\n        /* \"TimeAllySIP.sol\":9052:9058  _sipId */\n      dup10\n        /* \"TimeAllySIP.sol\":9060:9068  _monthId */\n      dup9\n        /* \"TimeAllySIP.sol\":9019:9035  getDepositStatus */\n      tag_63\n        /* \"TimeAllySIP.sol\":9019:9069  getDepositStatus(_stakerAddress, _sipId, _monthId) */\n      jump\t// in\n    tag_183:\n        /* \"TimeAllySIP.sol\":8994:9069  uint256 _depositStatus = getDepositStatus(_stakerAddress, _sipId, _monthId) */\n      swap1\n      pop\n        /* \"TimeAllySIP.sol\":9168:9169  0 */\n      0x00\n        /* \"TimeAllySIP.sol\":9151:9165  _depositStatus */\n      dup2\n        /* \"TimeAllySIP.sol\":9151:9169  _depositStatus > 0 */\n      gt\n        /* \"TimeAllySIP.sol\":9143:9207  require(_depositStatus > 0, 'grace period elapsed or too early') */\n      tag_184\n      jumpi\n      mload(0x40)\n      0x08c379a000000000000000000000000000000000000000000000000000000000\n      dup2\n      mstore\n      0x04\n      add\n      dup1\n      dup1\n      0x20\n      add\n      dup3\n      dup2\n      sub\n      dup3\n      mstore\n      0x21\n      dup2\n      mstore\n      0x20\n      add\n      dup1\n      data_03fd12cc1e83f0add881327c75791a0246e8ebc9eefe5c518ed172fe66fc682c\n      0x21\n      swap2\n      codecopy\n      0x40\n      add\n      swap2\n      pop\n      pop\n      mload(0x40)\n      dup1\n      swap2\n      sub\n      swap1\n      revert\n    tag_184:\n        /* \"TimeAllySIP.sol\":9245:9259  _depositStatus */\n      dup1\n        /* \"TimeAllySIP.sol\":9214:9218  _sip */\n      dup3\n        /* \"TimeAllySIP.sol\":9214:9232  _sip.depositStatus */\n      0x09\n      add\n        /* \"TimeAllySIP.sol\":9214:9242  _sip.depositStatus[_monthId] */\n      0x00\n        /* \"TimeAllySIP.sol\":9233:9241  _monthId */\n      dup9\n        /* \"TimeAllySIP.sol\":9214:9242  _sip.depositStatus[_monthId] */\n      dup2\n      mstore\n      0x20\n      add\n      swap1\n      dup2\n      mstore\n      0x20\n      add\n      0x00\n      keccak256\n        /* \"TimeAllySIP.sol\":9214:9259  _sip.depositStatus[_monthId] = _depositStatus */\n      dup2\n      swap1\n      sstore\n      pop\n        /* \"TimeAllySIP.sol\":10069:10108  _sip.totalDeposited.add(_depositAmount) */\n      tag_185\n        /* \"TimeAllySIP.sol\":10093:10107  _depositAmount */\n      dup8\n        /* \"TimeAllySIP.sol\":10069:10073  _sip */\n      dup4\n        /* \"TimeAllySIP.sol\":10069:10088  _sip.totalDeposited */\n      0x04\n      add\n      sload\n        /* \"TimeAllySIP.sol\":10069:10092  _sip.totalDeposited.add */\n      tag_157\n      swap1\n        /* \"TimeAllySIP.sol\":10069:10108  _sip.totalDeposited.add(_depositAmount) */\n      swap2\n      swap1\n      0xffffffff\n      and\n      jump\t// in\n    tag_185:\n        /* \"TimeAllySIP.sol\":10047:10051  _sip */\n      dup3\n        /* \"TimeAllySIP.sol\":10047:10066  _sip.totalDeposited */\n      0x04\n      add\n        /* \"TimeAllySIP.sol\":10047:10108  _sip.totalDeposited = _sip.totalDeposited.add(_depositAmount) */\n      dup2\n      swap1\n      sstore\n      pop\n        /* \"TimeAllySIP.sol\":10399:10421  uint256 _benefitQueued */\n      0x00\n        /* \"TimeAllySIP.sol\":10424:10567  _depositAmount... */\n      tag_186\n        /* \"TimeAllySIP.sol\":10524:10532  sipPlans */\n      0x05\n        /* \"TimeAllySIP.sol\":10534:10538  _sip */\n      dup5\n        /* \"TimeAllySIP.sol\":10534:10545  _sip.planId */\n      0x00\n      add\n      sload\n        /* \"TimeAllySIP.sol\":10524:10547  sipPlans[ _sip.planId ] */\n      dup2\n      sload\n      dup2\n      lt\n      tag_187\n      jumpi\n      invalid\n    tag_187:\n      swap1\n      0x00\n      mstore\n      keccak256(0x00, 0x20)\n      swap1\n      0x08\n      mul\n      add\n        /* \"TimeAllySIP.sol\":10524:10566  sipPlans[ _sip.planId ].benefitPeriodYears */\n      0x03\n      add\n      sload\n        /* \"TimeAllySIP.sol\":10424:10512  _depositAmount... */\n      tag_189\n        /* \"TimeAllySIP.sol\":10507:10511  1000 */\n      0x03e8\n        /* \"TimeAllySIP.sol\":10424:10495  _depositAmount... */\n      tag_190\n        /* \"TimeAllySIP.sol\":10450:10458  sipPlans */\n      0x05\n        /* \"TimeAllySIP.sol\":10460:10464  _sip */\n      dup9\n        /* \"TimeAllySIP.sol\":10460:10471  _sip.planId */\n      0x00\n      add\n      sload\n        /* \"TimeAllySIP.sol\":10450:10473  sipPlans[ _sip.planId ] */\n      dup2\n      sload\n      dup2\n      lt\n      tag_191\n      jumpi\n      invalid\n    tag_191:\n      swap1\n      0x00\n      mstore\n      keccak256(0x00, 0x20)\n      swap1\n      0x08\n      mul\n      add\n        /* \"TimeAllySIP.sol\":10450:10494  sipPlans[ _sip.planId ].monthlyBenefitFactor */\n      0x05\n      add\n      sload\n        /* \"TimeAllySIP.sol\":10424:10438  _depositAmount */\n      dup14\n        /* \"TimeAllySIP.sol\":10424:10449  _depositAmount... */\n      tag_155\n      swap1\n        /* \"TimeAllySIP.sol\":10424:10495  _depositAmount... */\n      swap2\n      swap1\n      0xffffffff\n      and\n      jump\t// in\n    tag_190:\n        /* \"TimeAllySIP.sol\":10424:10506  _depositAmount... */\n      tag_156\n      swap1\n        /* \"TimeAllySIP.sol\":10424:10512  _depositAmount... */\n      swap2\n      swap1\n      0xffffffff\n      and\n      jump\t// in\n    tag_189:\n        /* \"TimeAllySIP.sol\":10424:10523  _depositAmount... */\n      tag_155\n      swap1\n        /* \"TimeAllySIP.sol\":10424:10567  _depositAmount... */\n      swap2\n      swap1\n      0xffffffff\n      and\n      jump\t// in\n    tag_186:\n        /* \"TimeAllySIP.sol\":10399:10567  uint256 _benefitQueued = _depositAmount... */\n      swap1\n      pop\n        /* \"TimeAllySIP.sol\":10609:10673  pendingBenefitAmountOfAllStakers.add(... */\n      tag_193\n        /* \"TimeAllySIP.sol\":10653:10667  _benefitQueued */\n      dup2\n        /* \"TimeAllySIP.sol\":10609:10641  pendingBenefitAmountOfAllStakers */\n      sload(0x03)\n        /* \"TimeAllySIP.sol\":10609:10645  pendingBenefitAmountOfAllStakers.add */\n      tag_157\n      swap1\n        /* \"TimeAllySIP.sol\":10609:10673  pendingBenefitAmountOfAllStakers.add(... */\n      swap2\n      swap1\n      0xffffffff\n      and\n      jump\t// in\n    tag_193:\n        /* \"TimeAllySIP.sol\":10574:10606  pendingBenefitAmountOfAllStakers */\n      0x03\n        /* \"TimeAllySIP.sol\":10574:10673  pendingBenefitAmountOfAllStakers = pendingBenefitAmountOfAllStakers.add(... */\n      dup2\n      swap1\n      sstore\n      pop\n        /* \"TimeAllySIP.sol\":10712:10718  _sipId */\n      dup9\n        /* \"TimeAllySIP.sol\":10696:10710  _stakerAddress */\n      dup11\n        /* \"TimeAllySIP.sol\":10685:10773  NewDeposit(_stakerAddress, _sipId, _monthId, _depositAmount, _benefitQueued, msg.sender) */\n      0xffffffffffffffffffffffffffffffffffffffff\n      and\n      0xbaf4c88598102708c4215d5d3767268130627355850b7ece9bdfdc32fd2941f0\n        /* \"TimeAllySIP.sol\":10720:10728  _monthId */\n      dup10\n        /* \"TimeAllySIP.sol\":10730:10744  _depositAmount */\n      dup12\n        /* \"TimeAllySIP.sol\":10746:10760  _benefitQueued */\n      dup6\n        /* \"TimeAllySIP.sol\":10762:10772  msg.sender */\n      caller\n        /* \"TimeAllySIP.sol\":10685:10773  NewDeposit(_stakerAddress, _sipId, _monthId, _depositAmount, _benefitQueued, msg.sender) */\n      mload(0x40)\n      dup1\n      dup6\n      dup2\n      mstore\n      0x20\n      add\n      dup5\n      dup2\n      mstore\n      0x20\n      add\n      dup4\n      dup2\n      mstore\n      0x20\n      add\n      dup3\n      0xffffffffffffffffffffffffffffffffffffffff\n      and\n      0xffffffffffffffffffffffffffffffffffffffff\n      and\n      dup2\n      mstore\n      0x20\n      add\n      swap5\n      pop\n      pop\n      pop\n      pop\n      pop\n      mload(0x40)\n      dup1\n      swap2\n      sub\n      swap1\n      log3\n        /* \"TimeAllySIP.sol\":3921:3922  _ */\n      pop\n      pop\n      pop\n        /* \"TimeAllySIP.sol\":8440:10778  function monthlyDeposit(... */\n      pop\n      pop\n      pop\n      pop\n      pop\n      pop\n      pop\n      jump\t// out\n        /* \"TimeAllySIP.sol\":2305:2325  address public owner */\n    tag_60:\n      0x00\n      dup1\n      swap1\n      sload\n      swap1\n      0x0100\n      exp\n      swap1\n      div\n      0xffffffffffffffffffffffffffffffffffffffff\n      and\n      dup2\n      jump\t// out\n        /* \"TimeAllySIP.sol\":7534:8436  function getDepositStatus(address _userAddress, uint256 _sipId, uint256 _monthId) public view returns (uint256) {... */\n    tag_63:\n        /* \"TimeAllySIP.sol\":7637:7644  uint256 */\n      0x00\n        /* \"TimeAllySIP.sol\":7652:7668  SIP storage _sip */\n      dup1\n        /* \"TimeAllySIP.sol\":7671:7675  sips */\n      0x06\n        /* \"TimeAllySIP.sol\":7671:7689  sips[_userAddress] */\n      0x00\n        /* \"TimeAllySIP.sol\":7676:7688  _userAddress */\n      dup7\n        /* \"TimeAllySIP.sol\":7671:7689  sips[_userAddress] */\n      0xffffffffffffffffffffffffffffffffffffffff\n      and\n      0xffffffffffffffffffffffffffffffffffffffff\n      and\n      dup2\n      mstore\n      0x20\n      add\n      swap1\n      dup2\n      mstore\n      0x20\n      add\n      0x00\n      keccak256\n        /* \"TimeAllySIP.sol\":7690:7696  _sipId */\n      dup5\n        /* \"TimeAllySIP.sol\":7671:7697  sips[_userAddress][_sipId] */\n      dup2\n      sload\n      dup2\n      lt\n      tag_195\n      jumpi\n      invalid\n    tag_195:\n      swap1\n      0x00\n      mstore\n      keccak256(0x00, 0x20)\n      swap1\n      0x0c\n      mul\n      add\n        /* \"TimeAllySIP.sol\":7652:7697  SIP storage _sip = sips[_userAddress][_sipId] */\n      swap1\n      pop\n        /* \"TimeAllySIP.sol\":7731:7732  1 */\n      0x01\n        /* \"TimeAllySIP.sol\":7719:7727  _monthId */\n      dup4\n        /* \"TimeAllySIP.sol\":7719:7732  _monthId >= 1 */\n      lt\n      iszero\n        /* \"TimeAllySIP.sol\":7719:7804  _monthId >= 1 && _monthId... */\n      dup1\n      iszero\n      tag_197\n      jumpi\n      pop\n        /* \"TimeAllySIP.sol\":7756:7764  sipPlans */\n      0x05\n        /* \"TimeAllySIP.sol\":7766:7770  _sip */\n      dup2\n        /* \"TimeAllySIP.sol\":7766:7777  _sip.planId */\n      0x00\n      add\n      sload\n        /* \"TimeAllySIP.sol\":7756:7779  sipPlans[ _sip.planId ] */\n      dup2\n      sload\n      dup2\n      lt\n      tag_198\n      jumpi\n      invalid\n    tag_198:\n      swap1\n      0x00\n      mstore\n      keccak256(0x00, 0x20)\n      swap1\n      0x08\n      mul\n      add\n        /* \"TimeAllySIP.sol\":7756:7804  sipPlans[ _sip.planId ].accumulationPeriodMonths */\n      0x02\n      add\n      sload\n        /* \"TimeAllySIP.sol\":7736:7744  _monthId */\n      dup4\n        /* \"TimeAllySIP.sol\":7736:7804  _monthId... */\n      gt\n      iszero\n        /* \"TimeAllySIP.sol\":7719:7804  _monthId >= 1 && _monthId... */\n    tag_197:\n        /* \"TimeAllySIP.sol\":7704:7842  require(... */\n      tag_200\n      jumpi\n      mload(0x40)\n      0x08c379a000000000000000000000000000000000000000000000000000000000\n      dup2\n      mstore\n      0x04\n      add\n      dup1\n      dup1\n      0x20\n      add\n      dup3\n      dup2\n      sub\n      dup3\n      mstore\n      0x15\n      dup2\n      mstore\n      0x20\n      add\n      dup1\n      0x696e76616c6964206465706f736974206d6f6e74680000000000000000000000\n      dup2\n      mstore\n      pop\n      0x20\n      add\n      swap2\n      pop\n      pop\n      mload(0x40)\n      dup1\n      swap2\n      sub\n      swap1\n      revert\n    tag_200:\n        /* \"TimeAllySIP.sol\":7923:7946  uint256 onTimeTimestamp */\n      0x00\n        /* \"TimeAllySIP.sol\":7998:8006  _monthId */\n      dup4\n        /* \"TimeAllySIP.sol\":7973:7995  EARTH_SECONDS_IN_MONTH */\n      sload(0x02)\n        /* \"TimeAllySIP.sol\":7973:8006  EARTH_SECONDS_IN_MONTH * _monthId */\n      mul\n        /* \"TimeAllySIP.sol\":7949:7953  _sip */\n      dup3\n        /* \"TimeAllySIP.sol\":7949:7970  _sip.stakingTimestamp */\n      0x02\n      add\n      sload\n        /* \"TimeAllySIP.sol\":7949:8006  _sip.stakingTimestamp + EARTH_SECONDS_IN_MONTH * _monthId */\n      add\n        /* \"TimeAllySIP.sol\":7923:8006  uint256 onTimeTimestamp = _sip.stakingTimestamp + EARTH_SECONDS_IN_MONTH * _monthId */\n      swap1\n      pop\n        /* \"TimeAllySIP.sol\":8095:8098  now */\n      timestamp\n        /* \"TimeAllySIP.sol\":8076:8091  onTimeTimestamp */\n      dup2\n        /* \"TimeAllySIP.sol\":8076:8098  onTimeTimestamp >= now */\n      lt\n      iszero\n        /* \"TimeAllySIP.sol\":8076:8149  onTimeTimestamp >= now && now >= onTimeTimestamp - EARTH_SECONDS_IN_MONTH */\n      dup1\n      iszero\n      tag_201\n      jumpi\n      pop\n        /* \"TimeAllySIP.sol\":8127:8149  EARTH_SECONDS_IN_MONTH */\n      sload(0x02)\n        /* \"TimeAllySIP.sol\":8109:8124  onTimeTimestamp */\n      dup2\n        /* \"TimeAllySIP.sol\":8109:8149  onTimeTimestamp - EARTH_SECONDS_IN_MONTH */\n      sub\n        /* \"TimeAllySIP.sol\":8102:8105  now */\n      timestamp\n        /* \"TimeAllySIP.sol\":8102:8149  now >= onTimeTimestamp - EARTH_SECONDS_IN_MONTH */\n      lt\n      iszero\n        /* \"TimeAllySIP.sol\":8076:8149  onTimeTimestamp >= now && now >= onTimeTimestamp - EARTH_SECONDS_IN_MONTH */\n    tag_201:\n        /* \"TimeAllySIP.sol\":8073:8432  if(onTimeTimestamp >= now && now >= onTimeTimestamp - EARTH_SECONDS_IN_MONTH) {... */\n      iszero\n      tag_202\n      jumpi\n        /* \"TimeAllySIP.sol\":8166:8167  2 */\n      0x02\n        /* \"TimeAllySIP.sol\":8159:8167  return 2 */\n      swap3\n      pop\n      pop\n      pop\n      jump(tag_194)\n        /* \"TimeAllySIP.sol\":8073:8432  if(onTimeTimestamp >= now && now >= onTimeTimestamp - EARTH_SECONDS_IN_MONTH) {... */\n    tag_202:\n        /* \"TimeAllySIP.sol\":8280:8283  now */\n      timestamp\n        /* \"TimeAllySIP.sol\":8234:8242  sipPlans */\n      0x05\n        /* \"TimeAllySIP.sol\":8244:8248  _sip */\n      dup4\n        /* \"TimeAllySIP.sol\":8244:8255  _sip.planId */\n      0x00\n      add\n      sload\n        /* \"TimeAllySIP.sol\":8234:8257  sipPlans[ _sip.planId ] */\n      dup2\n      sload\n      dup2\n      lt\n      tag_204\n      jumpi\n      invalid\n    tag_204:\n      swap1\n      0x00\n      mstore\n      keccak256(0x00, 0x20)\n      swap1\n      0x08\n      mul\n      add\n        /* \"TimeAllySIP.sol\":8234:8276  sipPlans[ _sip.planId ].gracePeriodSeconds */\n      0x04\n      add\n      sload\n        /* \"TimeAllySIP.sol\":8216:8231  onTimeTimestamp */\n      dup3\n        /* \"TimeAllySIP.sol\":8216:8276  onTimeTimestamp + sipPlans[ _sip.planId ].gracePeriodSeconds */\n      add\n        /* \"TimeAllySIP.sol\":8216:8283  onTimeTimestamp + sipPlans[ _sip.planId ].gracePeriodSeconds >= now */\n      lt\n        /* \"TimeAllySIP.sol\":8213:8432  if(onTimeTimestamp + sipPlans[ _sip.planId ].gracePeriodSeconds >= now) {... */\n      tag_206\n      jumpi\n        /* \"TimeAllySIP.sol\":8300:8301  1 */\n      0x01\n        /* \"TimeAllySIP.sol\":8293:8301  return 1 */\n      swap3\n      pop\n      pop\n      pop\n      jump(tag_194)\n        /* \"TimeAllySIP.sol\":8213:8432  if(onTimeTimestamp + sipPlans[ _sip.planId ].gracePeriodSeconds >= now) {... */\n    tag_206:\n        /* \"TimeAllySIP.sol\":8371:8372  0 */\n      0x00\n        /* \"TimeAllySIP.sol\":8364:8372  return 0 */\n      swap3\n      pop\n      pop\n      pop\n        /* \"TimeAllySIP.sol\":7534:8436  function getDepositStatus(address _userAddress, uint256 _sipId, uint256 _monthId) public view returns (uint256) {... */\n    tag_194:\n      swap4\n      swap3\n      pop\n      pop\n      pop\n      jump\t// out\n        /* \"TimeAllySIP.sol\":13154:14105  function calculatePowerBooster(... */\n    tag_66:\n        /* \"TimeAllySIP.sol\":13286:13293  uint256 */\n      0x00\n        /* \"TimeAllySIP.sol\":13301:13317  SIP storage _sip */\n      dup1\n        /* \"TimeAllySIP.sol\":13320:13324  sips */\n      0x06\n        /* \"TimeAllySIP.sol\":13320:13340  sips[_stakerAddress] */\n      0x00\n        /* \"TimeAllySIP.sol\":13325:13339  _stakerAddress */\n      dup7\n        /* \"TimeAllySIP.sol\":13320:13340  sips[_stakerAddress] */\n      0xffffffffffffffffffffffffffffffffffffffff\n      and\n      0xffffffffffffffffffffffffffffffffffffffff\n      and\n      dup2\n      mstore\n      0x20\n      add\n      swap1\n      dup2\n      mstore\n      0x20\n      add\n      0x00\n      keccak256\n        /* \"TimeAllySIP.sol\":13341:13347  _sipId */\n      dup5\n        /* \"TimeAllySIP.sol\":13320:13348  sips[_stakerAddress][_sipId] */\n      dup2\n      sload\n      dup2\n      lt\n      tag_209\n      jumpi\n      invalid\n    tag_209:\n      swap1\n      0x00\n      mstore\n      keccak256(0x00, 0x20)\n      swap1\n      0x0c\n      mul\n      add\n        /* \"TimeAllySIP.sol\":13301:13348  SIP storage _sip = sips[_stakerAddress][_sipId] */\n      swap1\n      pop\n        /* \"TimeAllySIP.sol\":13355:13382  uint256 _powerBoosterAmount */\n      0x00\n        /* \"TimeAllySIP.sol\":13385:13481  _sip.monthlyCommitmentAmount... */\n      tag_211\n        /* \"TimeAllySIP.sol\":13479:13480  3 */\n      0x03\n        /* \"TimeAllySIP.sol\":13385:13474  _sip.monthlyCommitmentAmount... */\n      tag_212\n        /* \"TimeAllySIP.sol\":13425:13433  sipPlans */\n      0x05\n        /* \"TimeAllySIP.sol\":13435:13439  _sip */\n      dup6\n        /* \"TimeAllySIP.sol\":13435:13446  _sip.planId */\n      0x00\n      add\n      sload\n        /* \"TimeAllySIP.sol\":13425:13448  sipPlans[ _sip.planId ] */\n      dup2\n      sload\n      dup2\n      lt\n      tag_213\n      jumpi\n      invalid\n    tag_213:\n      swap1\n      0x00\n      mstore\n      keccak256(0x00, 0x20)\n      swap1\n      0x08\n      mul\n      add\n        /* \"TimeAllySIP.sol\":13425:13473  sipPlans[ _sip.planId ].accumulationPeriodMonths */\n      0x02\n      add\n      sload\n        /* \"TimeAllySIP.sol\":13385:13389  _sip */\n      dup6\n        /* \"TimeAllySIP.sol\":13385:13413  _sip.monthlyCommitmentAmount */\n      0x03\n      add\n      sload\n        /* \"TimeAllySIP.sol\":13385:13424  _sip.monthlyCommitmentAmount... */\n      tag_155\n      swap1\n        /* \"TimeAllySIP.sol\":13385:13474  _sip.monthlyCommitmentAmount... */\n      swap2\n      swap1\n      0xffffffff\n      and\n      jump\t// in\n    tag_212:\n        /* \"TimeAllySIP.sol\":13385:13478  _sip.monthlyCommitmentAmount... */\n      tag_156\n      swap1\n        /* \"TimeAllySIP.sol\":13385:13481  _sip.monthlyCommitmentAmount... */\n      swap2\n      swap1\n      0xffffffff\n      and\n      jump\t// in\n    tag_211:\n        /* \"TimeAllySIP.sol\":13355:13481  uint256 _powerBoosterAmount = _sip.monthlyCommitmentAmount... */\n      swap1\n      pop\n        /* \"TimeAllySIP.sol\":13509:13510  1 */\n      0x01\n        /* \"TimeAllySIP.sol\":13491:13505  _boosterSerial */\n      dup5\n        /* \"TimeAllySIP.sol\":13491:13510  _boosterSerial == 1 */\n      eq\n        /* \"TimeAllySIP.sol\":13488:14068  if(_boosterSerial == 1) {... */\n      iszero\n      tag_215\n      jumpi\n        /* \"TimeAllySIP.sol\":13520:13547  uint256 _totalPenaltyFactor */\n      0x00\n        /* \"TimeAllySIP.sol\":13559:13568  uint256 i */\n      dup1\n        /* \"TimeAllySIP.sol\":13571:13572  1 */\n      0x01\n        /* \"TimeAllySIP.sol\":13559:13572  uint256 i = 1 */\n      swap1\n      pop\n        /* \"TimeAllySIP.sol\":13555:13959  for(uint256 i = 1; i <= sipPlans[ _sip.planId ].accumulationPeriodMonths; i++) {... */\n    tag_216:\n        /* \"TimeAllySIP.sol\":13579:13587  sipPlans */\n      0x05\n        /* \"TimeAllySIP.sol\":13589:13593  _sip */\n      dup5\n        /* \"TimeAllySIP.sol\":13589:13600  _sip.planId */\n      0x00\n      add\n      sload\n        /* \"TimeAllySIP.sol\":13579:13602  sipPlans[ _sip.planId ] */\n      dup2\n      sload\n      dup2\n      lt\n      tag_219\n      jumpi\n      invalid\n    tag_219:\n      swap1\n      0x00\n      mstore\n      keccak256(0x00, 0x20)\n      swap1\n      0x08\n      mul\n      add\n        /* \"TimeAllySIP.sol\":13579:13627  sipPlans[ _sip.planId ].accumulationPeriodMonths */\n      0x02\n      add\n      sload\n        /* \"TimeAllySIP.sol\":13574:13575  i */\n      dup2\n        /* \"TimeAllySIP.sol\":13574:13627  i <= sipPlans[ _sip.planId ].accumulationPeriodMonths */\n      gt\n        /* \"TimeAllySIP.sol\":13555:13959  for(uint256 i = 1; i <= sipPlans[ _sip.planId ].accumulationPeriodMonths; i++) {... */\n      tag_217\n      jumpi\n        /* \"TimeAllySIP.sol\":13672:13673  0 */\n      0x00\n        /* \"TimeAllySIP.sol\":13647:13651  _sip */\n      dup5\n        /* \"TimeAllySIP.sol\":13647:13665  _sip.depositStatus */\n      0x09\n      add\n        /* \"TimeAllySIP.sol\":13647:13668  _sip.depositStatus[i] */\n      0x00\n        /* \"TimeAllySIP.sol\":13666:13667  i */\n      dup4\n        /* \"TimeAllySIP.sol\":13647:13668  _sip.depositStatus[i] */\n      dup2\n      mstore\n      0x20\n      add\n      swap1\n      dup2\n      mstore\n      0x20\n      add\n      0x00\n      keccak256\n      sload\n        /* \"TimeAllySIP.sol\":13647:13673  _sip.depositStatus[i] == 0 */\n      eq\n        /* \"TimeAllySIP.sol\":13644:13951  if(_sip.depositStatus[i] == 0) {... */\n      iszero\n      tag_221\n      jumpi\n        /* \"TimeAllySIP.sol\":13739:13747  sipPlans */\n      0x05\n        /* \"TimeAllySIP.sol\":13749:13753  _sip */\n      dup5\n        /* \"TimeAllySIP.sol\":13749:13760  _sip.planId */\n      0x00\n      add\n      sload\n        /* \"TimeAllySIP.sol\":13739:13762  sipPlans[ _sip.planId ] */\n      dup2\n      sload\n      dup2\n      lt\n      tag_222\n      jumpi\n      invalid\n    tag_222:\n      swap1\n      0x00\n      mstore\n      keccak256(0x00, 0x20)\n      swap1\n      0x08\n      mul\n      add\n        /* \"TimeAllySIP.sol\":13739:13783  sipPlans[ _sip.planId ].defaultPenaltyFactor */\n      0x07\n      add\n      sload\n        /* \"TimeAllySIP.sol\":13716:13783  _totalPenaltyFactor += sipPlans[ _sip.planId ].defaultPenaltyFactor */\n      dup3\n      add\n      swap2\n      pop\n        /* \"TimeAllySIP.sol\":13644:13951  if(_sip.depositStatus[i] == 0) {... */\n      jump(tag_224)\n    tag_221:\n        /* \"TimeAllySIP.sol\":13828:13829  1 */\n      0x01\n        /* \"TimeAllySIP.sol\":13803:13807  _sip */\n      dup5\n        /* \"TimeAllySIP.sol\":13803:13821  _sip.depositStatus */\n      0x09\n      add\n        /* \"TimeAllySIP.sol\":13803:13824  _sip.depositStatus[i] */\n      0x00\n        /* \"TimeAllySIP.sol\":13822:13823  i */\n      dup4\n        /* \"TimeAllySIP.sol\":13803:13824  _sip.depositStatus[i] */\n      dup2\n      mstore\n      0x20\n      add\n      swap1\n      dup2\n      mstore\n      0x20\n      add\n      0x00\n      keccak256\n      sload\n        /* \"TimeAllySIP.sol\":13803:13829  _sip.depositStatus[i] == 1 */\n      eq\n        /* \"TimeAllySIP.sol\":13800:13951  if(_sip.depositStatus[i] == 1) {... */\n      iszero\n      tag_225\n      jumpi\n        /* \"TimeAllySIP.sol\":13898:13906  sipPlans */\n      0x05\n        /* \"TimeAllySIP.sol\":13908:13912  _sip */\n      dup5\n        /* \"TimeAllySIP.sol\":13908:13919  _sip.planId */\n      0x00\n      add\n      sload\n        /* \"TimeAllySIP.sol\":13898:13921  sipPlans[ _sip.planId ] */\n      dup2\n      sload\n      dup2\n      lt\n      tag_226\n      jumpi\n      invalid\n    tag_226:\n      swap1\n      0x00\n      mstore\n      keccak256(0x00, 0x20)\n      swap1\n      0x08\n      mul\n      add\n        /* \"TimeAllySIP.sol\":13898:13940  sipPlans[ _sip.planId ].gracePenaltyFactor */\n      0x06\n      add\n      sload\n        /* \"TimeAllySIP.sol\":13875:13940  _totalPenaltyFactor += sipPlans[ _sip.planId ].gracePenaltyFactor */\n      dup3\n      add\n      swap2\n      pop\n        /* \"TimeAllySIP.sol\":13800:13951  if(_sip.depositStatus[i] == 1) {... */\n    tag_225:\n        /* \"TimeAllySIP.sol\":13644:13951  if(_sip.depositStatus[i] == 0) {... */\n    tag_224:\n        /* \"TimeAllySIP.sol\":13629:13632  i++ */\n      dup1\n      dup1\n      0x01\n      add\n      swap2\n      pop\n      pop\n        /* \"TimeAllySIP.sol\":13555:13959  for(uint256 i = 1; i <= sipPlans[ _sip.planId ].accumulationPeriodMonths; i++) {... */\n      jump(tag_216)\n    tag_217:\n      pop\n        /* \"TimeAllySIP.sol\":13988:14061  _powerBoosterAmount.mul(uint256(1000).sub(_totalPenaltyFactor)).div(1000) */\n      tag_228\n        /* \"TimeAllySIP.sol\":14056:14060  1000 */\n      0x03e8\n        /* \"TimeAllySIP.sol\":13988:14051  _powerBoosterAmount.mul(uint256(1000).sub(_totalPenaltyFactor)) */\n      tag_229\n        /* \"TimeAllySIP.sol\":14012:14050  uint256(1000).sub(_totalPenaltyFactor) */\n      tag_230\n        /* \"TimeAllySIP.sol\":14030:14049  _totalPenaltyFactor */\n      dup5\n        /* \"TimeAllySIP.sol\":14020:14024  1000 */\n      0x03e8\n        /* \"TimeAllySIP.sol\":14012:14029  uint256(1000).sub */\n      tag_94\n      swap1\n        /* \"TimeAllySIP.sol\":14012:14050  uint256(1000).sub(_totalPenaltyFactor) */\n      swap2\n      swap1\n      0xffffffff\n      and\n      jump\t// in\n    tag_230:\n        /* \"TimeAllySIP.sol\":13988:14007  _powerBoosterAmount */\n      dup6\n        /* \"TimeAllySIP.sol\":13988:14011  _powerBoosterAmount.mul */\n      tag_155\n      swap1\n        /* \"TimeAllySIP.sol\":13988:14051  _powerBoosterAmount.mul(uint256(1000).sub(_totalPenaltyFactor)) */\n      swap2\n      swap1\n      0xffffffff\n      and\n      jump\t// in\n    tag_229:\n        /* \"TimeAllySIP.sol\":13988:14055  _powerBoosterAmount.mul(uint256(1000).sub(_totalPenaltyFactor)).div */\n      tag_156\n      swap1\n        /* \"TimeAllySIP.sol\":13988:14061  _powerBoosterAmount.mul(uint256(1000).sub(_totalPenaltyFactor)).div(1000) */\n      swap2\n      swap1\n      0xffffffff\n      and\n      jump\t// in\n    tag_228:\n        /* \"TimeAllySIP.sol\":13966:14061  _powerBoosterAmount = _powerBoosterAmount.mul(uint256(1000).sub(_totalPenaltyFactor)).div(1000) */\n      swap2\n      pop\n        /* \"TimeAllySIP.sol\":13488:14068  if(_boosterSerial == 1) {... */\n      pop\n    tag_215:\n        /* \"TimeAllySIP.sol\":14081:14100  _powerBoosterAmount */\n      dup1\n        /* \"TimeAllySIP.sol\":14074:14100  return _powerBoosterAmount */\n      swap3\n      pop\n      pop\n      pop\n        /* \"TimeAllySIP.sol\":13154:14105  function calculatePowerBooster(... */\n      swap4\n      swap3\n      pop\n      pop\n      pop\n      jump\t// out\n        /* \"TimeAllySIP.sol\":10782:12045  function getPendingWithdrawlAmount(... */\n    tag_69:\n        /* \"TimeAllySIP.sol\":10953:10960  uint256 */\n      0x00\n        /* \"TimeAllySIP.sol\":10968:10984  SIP storage _sip */\n      dup1\n        /* \"TimeAllySIP.sol\":10987:10991  sips */\n      0x06\n        /* \"TimeAllySIP.sol\":10987:11007  sips[_stakerAddress] */\n      0x00\n        /* \"TimeAllySIP.sol\":10992:11006  _stakerAddress */\n      dup8\n        /* \"TimeAllySIP.sol\":10987:11007  sips[_stakerAddress] */\n      0xffffffffffffffffffffffffffffffffffffffff\n      and\n      0xffffffffffffffffffffffffffffffffffffffff\n      and\n      dup2\n      mstore\n      0x20\n      add\n      swap1\n      dup2\n      mstore\n      0x20\n      add\n      0x00\n      keccak256\n        /* \"TimeAllySIP.sol\":11008:11014  _sipId */\n      dup6\n        /* \"TimeAllySIP.sol\":10987:11015  sips[_stakerAddress][_sipId] */\n      dup2\n      sload\n      dup2\n      lt\n      tag_232\n      jumpi\n      invalid\n    tag_232:\n      swap1\n      0x00\n      mstore\n      keccak256(0x00, 0x20)\n      swap1\n      0x0c\n      mul\n      add\n        /* \"TimeAllySIP.sol\":10968:11015  SIP storage _sip = sips[_stakerAddress][_sipId] */\n      swap1\n      pop\n        /* \"TimeAllySIP.sol\":11021:11054  uint256 withdrawlAllowedTimestamp */\n      0x00\n        /* \"TimeAllySIP.sol\":11215:11216  1 */\n      0x01\n        /* \"TimeAllySIP.sol\":11195:11212  _withdrawlMonthId */\n      dup6\n        /* \"TimeAllySIP.sol\":11132:11140  sipPlans */\n      0x05\n        /* \"TimeAllySIP.sol\":11142:11146  _sip */\n      dup5\n        /* \"TimeAllySIP.sol\":11142:11153  _sip.planId */\n      0x00\n      add\n      sload\n        /* \"TimeAllySIP.sol\":11132:11155  sipPlans[ _sip.planId ] */\n      dup2\n      sload\n      dup2\n      lt\n      tag_234\n      jumpi\n      invalid\n    tag_234:\n      swap1\n      0x00\n      mstore\n      keccak256(0x00, 0x20)\n      swap1\n      0x08\n      mul\n      add\n        /* \"TimeAllySIP.sol\":11132:11180  sipPlans[ _sip.planId ].accumulationPeriodMonths */\n      0x02\n      add\n      sload\n        /* \"TimeAllySIP.sol\":11132:11212  sipPlans[ _sip.planId ].accumulationPeriodMonths... */\n      add\n        /* \"TimeAllySIP.sol\":11132:11216  sipPlans[ _sip.planId ].accumulationPeriodMonths... */\n      sub\n        /* \"TimeAllySIP.sol\":11095:11117  EARTH_SECONDS_IN_MONTH */\n      sload(0x02)\n        /* \"TimeAllySIP.sol\":11095:11226  EARTH_SECONDS_IN_MONTH * (... */\n      mul\n        /* \"TimeAllySIP.sol\":11063:11067  _sip */\n      dup3\n        /* \"TimeAllySIP.sol\":11063:11084  _sip.stakingTimestamp */\n      0x02\n      add\n      sload\n        /* \"TimeAllySIP.sol\":11063:11226  _sip.stakingTimestamp... */\n      add\n        /* \"TimeAllySIP.sol\":11021:11226  uint256 withdrawlAllowedTimestamp... */\n      swap1\n      pop\n        /* \"TimeAllySIP.sol\":11236:11257  _isNomineeWithdrawing */\n      dup4\n        /* \"TimeAllySIP.sol\":11233:11330  if(_isNomineeWithdrawing) {... */\n      iszero\n      tag_236\n      jumpi\n        /* \"TimeAllySIP.sol\":11321:11323  12 */\n      0x0c\n        /* \"TimeAllySIP.sol\":11296:11318  EARTH_SECONDS_IN_MONTH */\n      sload(0x02)\n        /* \"TimeAllySIP.sol\":11296:11323  EARTH_SECONDS_IN_MONTH * 12 */\n      mul\n        /* \"TimeAllySIP.sol\":11267:11323  withdrawlAllowedTimestamp += EARTH_SECONDS_IN_MONTH * 12 */\n      dup2\n      add\n      swap1\n      pop\n        /* \"TimeAllySIP.sol\":11233:11330  if(_isNomineeWithdrawing) {... */\n    tag_236:\n        /* \"TimeAllySIP.sol\":11370:11374  _sip */\n      dup2\n        /* \"TimeAllySIP.sol\":11370:11395  _sip.lastWithdrawlMonthId */\n      0x05\n      add\n      sload\n        /* \"TimeAllySIP.sol\":11350:11367  _withdrawlMonthId */\n      dup6\n        /* \"TimeAllySIP.sol\":11350:11395  _withdrawlMonthId > _sip.lastWithdrawlMonthId */\n      gt\n        /* \"TimeAllySIP.sol\":11335:11433  require(... */\n      tag_237\n      jumpi\n      mload(0x40)\n      0x08c379a000000000000000000000000000000000000000000000000000000000\n      dup2\n      mstore\n      0x04\n      add\n      dup1\n      dup1\n      0x20\n      add\n      dup3\n      dup2\n      sub\n      dup3\n      mstore\n      0x15\n      dup2\n      mstore\n      0x20\n      add\n      dup1\n      0x63616e6e6f7420776974686472617720616761696e0000000000000000000000\n      dup2\n      mstore\n      pop\n      0x20\n      add\n      swap2\n      pop\n      pop\n      mload(0x40)\n      dup1\n      swap2\n      sub\n      swap1\n      revert\n    tag_237:\n        /* \"TimeAllySIP.sol\":11520:11522  12 */\n      0x0c\n        /* \"TimeAllySIP.sol\":11475:11483  sipPlans */\n      0x05\n        /* \"TimeAllySIP.sol\":11485:11489  _sip */\n      dup4\n        /* \"TimeAllySIP.sol\":11485:11496  _sip.planId */\n      0x00\n      add\n      sload\n        /* \"TimeAllySIP.sol\":11475:11498  sipPlans[ _sip.planId ] */\n      dup2\n      sload\n      dup2\n      lt\n      tag_238\n      jumpi\n      invalid\n    tag_238:\n      swap1\n      0x00\n      mstore\n      keccak256(0x00, 0x20)\n      swap1\n      0x08\n      mul\n      add\n        /* \"TimeAllySIP.sol\":11475:11517  sipPlans[ _sip.planId ].benefitPeriodYears */\n      0x03\n      add\n      sload\n        /* \"TimeAllySIP.sol\":11475:11522  sipPlans[ _sip.planId ].benefitPeriodYears * 12 */\n      mul\n        /* \"TimeAllySIP.sol\":11454:11471  _withdrawlMonthId */\n      dup6\n        /* \"TimeAllySIP.sol\":11454:11522  _withdrawlMonthId <= sipPlans[ _sip.planId ].benefitPeriodYears * 12 */\n      gt\n      iszero\n        /* \"TimeAllySIP.sol\":11439:11562  require(... */\n      tag_240\n      jumpi\n      mload(0x40)\n      0x08c379a000000000000000000000000000000000000000000000000000000000\n      dup2\n      mstore\n      0x04\n      add\n      dup1\n      dup1\n      0x20\n      add\n      dup3\n      dup2\n      sub\n      dup3\n      mstore\n      0x17\n      dup2\n      mstore\n      0x20\n      add\n      dup1\n      0x7769746864726177206d6f6e7468206578636565646564000000000000000000\n      dup2\n      mstore\n      pop\n      0x20\n      add\n      swap2\n      pop\n      pop\n      mload(0x40)\n      dup1\n      swap2\n      sub\n      swap1\n      revert\n    tag_240:\n        /* \"TimeAllySIP.sol\":11583:11608  withdrawlAllowedTimestamp */\n      dup1\n        /* \"TimeAllySIP.sol\":11576:11579  now */\n      timestamp\n        /* \"TimeAllySIP.sol\":11576:11608  now >= withdrawlAllowedTimestamp */\n      lt\n      iszero\n        /* \"TimeAllySIP.sol\":11568:11646  require(now >= withdrawlAllowedTimestamp... */\n      tag_241\n      jumpi\n      mload(0x40)\n      0x08c379a000000000000000000000000000000000000000000000000000000000\n      dup2\n      mstore\n      0x04\n      add\n      dup1\n      dup1\n      0x20\n      add\n      dup3\n      dup2\n      sub\n      dup3\n      mstore\n      0x15\n      dup2\n      mstore\n      0x20\n      add\n      dup1\n      0x63616e6e6f74207769746864726177206561726c790000000000000000000000\n      dup2\n      mstore\n      pop\n      0x20\n      add\n      swap2\n      pop\n      pop\n      mload(0x40)\n      dup1\n      swap2\n      sub\n      swap1\n      revert\n    tag_241:\n        /* \"TimeAllySIP.sol\":11652:11682  uint256 _averageMonthlyDeposit */\n      0x00\n        /* \"TimeAllySIP.sol\":11685:11765  _sip.totalDeposited... */\n      tag_242\n        /* \"TimeAllySIP.sol\":11716:11724  sipPlans */\n      0x05\n        /* \"TimeAllySIP.sol\":11726:11730  _sip */\n      dup5\n        /* \"TimeAllySIP.sol\":11726:11737  _sip.planId */\n      0x00\n      add\n      sload\n        /* \"TimeAllySIP.sol\":11716:11739  sipPlans[ _sip.planId ] */\n      dup2\n      sload\n      dup2\n      lt\n      tag_243\n      jumpi\n      invalid\n    tag_243:\n      swap1\n      0x00\n      mstore\n      keccak256(0x00, 0x20)\n      swap1\n      0x08\n      mul\n      add\n        /* \"TimeAllySIP.sol\":11716:11764  sipPlans[ _sip.planId ].accumulationPeriodMonths */\n      0x02\n      add\n      sload\n        /* \"TimeAllySIP.sol\":11685:11689  _sip */\n      dup5\n        /* \"TimeAllySIP.sol\":11685:11704  _sip.totalDeposited */\n      0x04\n      add\n      sload\n        /* \"TimeAllySIP.sol\":11685:11715  _sip.totalDeposited... */\n      tag_156\n      swap1\n        /* \"TimeAllySIP.sol\":11685:11765  _sip.totalDeposited... */\n      swap2\n      swap1\n      0xffffffff\n      and\n      jump\t// in\n    tag_242:\n        /* \"TimeAllySIP.sol\":11652:11765  uint256 _averageMonthlyDeposit = _sip.totalDeposited... */\n      swap1\n      pop\n        /* \"TimeAllySIP.sol\":11771:11798  uint256 _singleMonthBenefit */\n      0x00\n        /* \"TimeAllySIP.sol\":11801:11897  _averageMonthlyDeposit... */\n      tag_245\n        /* \"TimeAllySIP.sol\":11892:11896  1000 */\n      0x03e8\n        /* \"TimeAllySIP.sol\":11801:11880  _averageMonthlyDeposit... */\n      tag_246\n        /* \"TimeAllySIP.sol\":11835:11843  sipPlans */\n      0x05\n        /* \"TimeAllySIP.sol\":11845:11849  _sip */\n      dup8\n        /* \"TimeAllySIP.sol\":11845:11856  _sip.planId */\n      0x00\n      add\n      sload\n        /* \"TimeAllySIP.sol\":11835:11858  sipPlans[ _sip.planId ] */\n      dup2\n      sload\n      dup2\n      lt\n      tag_247\n      jumpi\n      invalid\n    tag_247:\n      swap1\n      0x00\n      mstore\n      keccak256(0x00, 0x20)\n      swap1\n      0x08\n      mul\n      add\n        /* \"TimeAllySIP.sol\":11835:11879  sipPlans[ _sip.planId ].monthlyBenefitFactor */\n      0x05\n      add\n      sload\n        /* \"TimeAllySIP.sol\":11801:11823  _averageMonthlyDeposit */\n      dup6\n        /* \"TimeAllySIP.sol\":11801:11834  _averageMonthlyDeposit... */\n      tag_155\n      swap1\n        /* \"TimeAllySIP.sol\":11801:11880  _averageMonthlyDeposit... */\n      swap2\n      swap1\n      0xffffffff\n      and\n      jump\t// in\n    tag_246:\n        /* \"TimeAllySIP.sol\":11801:11891  _averageMonthlyDeposit... */\n      tag_156\n      swap1\n        /* \"TimeAllySIP.sol\":11801:11897  _averageMonthlyDeposit... */\n      swap2\n      swap1\n      0xffffffff\n      and\n      jump\t// in\n    tag_245:\n        /* \"TimeAllySIP.sol\":11771:11897  uint256 _singleMonthBenefit = _averageMonthlyDeposit... */\n      swap1\n      pop\n        /* \"TimeAllySIP.sol\":11903:11925  uint256 _benefitToGive */\n      0x00\n        /* \"TimeAllySIP.sol\":11928:12013  _singleMonthBenefit.mul(... */\n      tag_249\n        /* \"TimeAllySIP.sol\":11959:12007  _withdrawlMonthId.sub(_sip.lastWithdrawlMonthId) */\n      tag_250\n        /* \"TimeAllySIP.sol\":11981:11985  _sip */\n      dup7\n        /* \"TimeAllySIP.sol\":11981:12006  _sip.lastWithdrawlMonthId */\n      0x05\n      add\n      sload\n        /* \"TimeAllySIP.sol\":11959:11976  _withdrawlMonthId */\n      dup11\n        /* \"TimeAllySIP.sol\":11959:11980  _withdrawlMonthId.sub */\n      tag_94\n      swap1\n        /* \"TimeAllySIP.sol\":11959:12007  _withdrawlMonthId.sub(_sip.lastWithdrawlMonthId) */\n      swap2\n      swap1\n      0xffffffff\n      and\n      jump\t// in\n    tag_250:\n        /* \"TimeAllySIP.sol\":11928:11947  _singleMonthBenefit */\n      dup4\n        /* \"TimeAllySIP.sol\":11928:11951  _singleMonthBenefit.mul */\n      tag_155\n      swap1\n        /* \"TimeAllySIP.sol\":11928:12013  _singleMonthBenefit.mul(... */\n      swap2\n      swap1\n      0xffffffff\n      and\n      jump\t// in\n    tag_249:\n        /* \"TimeAllySIP.sol\":11903:12013  uint256 _benefitToGive = _singleMonthBenefit.mul(... */\n      swap1\n      pop\n        /* \"TimeAllySIP.sol\":12026:12040  _benefitToGive */\n      dup1\n        /* \"TimeAllySIP.sol\":12019:12040  return _benefitToGive */\n      swap6\n      pop\n      pop\n      pop\n      pop\n      pop\n      pop\n        /* \"TimeAllySIP.sol\":10782:12045  function getPendingWithdrawlAmount(... */\n      swap5\n      swap4\n      pop\n      pop\n      pop\n      pop\n      jump\t// out\n        /* \"TimeAllySIP.sol\":5221:5446  function addFunds(uint256 _depositAmount) public {... */\n    tag_72:\n        /* \"TimeAllySIP.sol\":5284:5289  token */\n      0x01\n      0x00\n      swap1\n      sload\n      swap1\n      0x0100\n      exp\n      swap1\n      div\n      0xffffffffffffffffffffffffffffffffffffffff\n      and\n        /* \"TimeAllySIP.sol\":5284:5302  token.transferFrom */\n      0xffffffffffffffffffffffffffffffffffffffff\n      and\n      0x23b872dd\n        /* \"TimeAllySIP.sol\":5303:5313  msg.sender */\n      caller\n        /* \"TimeAllySIP.sol\":5323:5327  this */\n      address\n        /* \"TimeAllySIP.sol\":5330:5344  _depositAmount */\n      dup5\n        /* \"TimeAllySIP.sol\":5284:5345  token.transferFrom(msg.sender, address(this), _depositAmount) */\n      mload(0x40)\n      dup5\n      0xffffffff\n      and\n      0xe0\n      shl\n      dup2\n      mstore\n      0x04\n      add\n      dup1\n      dup5\n      0xffffffffffffffffffffffffffffffffffffffff\n      and\n      0xffffffffffffffffffffffffffffffffffffffff\n      and\n      dup2\n      mstore\n      0x20\n      add\n      dup4\n      0xffffffffffffffffffffffffffffffffffffffff\n      and\n      0xffffffffffffffffffffffffffffffffffffffff\n      and\n      dup2\n      mstore\n      0x20\n      add\n      dup3\n      dup2\n      mstore\n      0x20\n      add\n      swap4\n      pop\n      pop\n      pop\n      pop\n      0x20\n      mload(0x40)\n      dup1\n      dup4\n      sub\n      dup2\n      0x00\n      dup8\n      dup1\n      extcodesize\n      iszero\n        /* \"--CODEGEN--\":8:17   */\n      dup1\n        /* \"--CODEGEN--\":5:7   */\n      iszero\n      tag_252\n      jumpi\n        /* \"--CODEGEN--\":30:31   */\n      0x00\n        /* \"--CODEGEN--\":27:28   */\n      dup1\n        /* \"--CODEGEN--\":20:32   */\n      revert\n        /* \"--CODEGEN--\":5:7   */\n    tag_252:\n        /* \"TimeAllySIP.sol\":5284:5345  token.transferFrom(msg.sender, address(this), _depositAmount) */\n      pop\n      gas\n      call\n      iszero\n        /* \"--CODEGEN--\":8:17   */\n      dup1\n        /* \"--CODEGEN--\":5:7   */\n      iszero\n      tag_253\n      jumpi\n        /* \"--CODEGEN--\":45:61   */\n      returndatasize\n        /* \"--CODEGEN--\":42:43   */\n      0x00\n        /* \"--CODEGEN--\":39:40   */\n      dup1\n        /* \"--CODEGEN--\":24:62   */\n      returndatacopy\n        /* \"--CODEGEN--\":77:93   */\n      returndatasize\n        /* \"--CODEGEN--\":74:75   */\n      0x00\n        /* \"--CODEGEN--\":67:94   */\n      revert\n        /* \"--CODEGEN--\":5:7   */\n    tag_253:\n        /* \"TimeAllySIP.sol\":5284:5345  token.transferFrom(msg.sender, address(this), _depositAmount) */\n      pop\n      pop\n      pop\n      pop\n      mload(0x40)\n      returndatasize\n        /* \"--CODEGEN--\":13:15   */\n      0x20\n        /* \"--CODEGEN--\":8:11   */\n      dup2\n        /* \"--CODEGEN--\":5:16   */\n      lt\n        /* \"--CODEGEN--\":2:4   */\n      iszero\n      tag_254\n      jumpi\n        /* \"--CODEGEN--\":29:30   */\n      0x00\n        /* \"--CODEGEN--\":26:27   */\n      dup1\n        /* \"--CODEGEN--\":19:31   */\n      revert\n        /* \"--CODEGEN--\":2:4   */\n    tag_254:\n        /* \"TimeAllySIP.sol\":5284:5345  token.transferFrom(msg.sender, address(this), _depositAmount) */\n      dup2\n      add\n      swap1\n      dup1\n      dup1\n      mload\n      swap1\n      0x20\n      add\n      swap1\n      swap3\n      swap2\n      swap1\n      pop\n      pop\n      pop\n        /* \"TimeAllySIP.sol\":5276:5346  require(token.transferFrom(msg.sender, address(this), _depositAmount)) */\n      tag_255\n      jumpi\n      0x00\n      dup1\n      revert\n    tag_255:\n        /* \"TimeAllySIP.sol\":5367:5399  fundsDeposit.add(_depositAmount) */\n      tag_256\n        /* \"TimeAllySIP.sol\":5384:5398  _depositAmount */\n      dup2\n        /* \"TimeAllySIP.sol\":5367:5379  fundsDeposit */\n      sload(0x04)\n        /* \"TimeAllySIP.sol\":5367:5383  fundsDeposit.add */\n      tag_157\n      swap1\n        /* \"TimeAllySIP.sol\":5367:5399  fundsDeposit.add(_depositAmount) */\n      swap2\n      swap1\n      0xffffffff\n      and\n      jump\t// in\n    tag_256:\n        /* \"TimeAllySIP.sol\":5352:5364  fundsDeposit */\n      0x04\n        /* \"TimeAllySIP.sol\":5352:5399  fundsDeposit = fundsDeposit.add(_depositAmount) */\n      dup2\n      swap1\n      sstore\n      pop\n        /* \"TimeAllySIP.sol\":5411:5441  FundsDeposited(_depositAmount) */\n      0x7cb5d45c1071f219bd2da1ea101758715bd52f23f2a707f2d9a0387dea18d906\n        /* \"TimeAllySIP.sol\":5426:5440  _depositAmount */\n      dup2\n        /* \"TimeAllySIP.sol\":5411:5441  FundsDeposited(_depositAmount) */\n      mload(0x40)\n      dup1\n      dup3\n      dup2\n      mstore\n      0x20\n      add\n      swap2\n      pop\n      pop\n      mload(0x40)\n      dup1\n      swap2\n      sub\n      swap1\n      log1\n        /* \"TimeAllySIP.sol\":5221:5446  function addFunds(uint256 _depositAmount) public {... */\n      pop\n      jump\t// out\n        /* \"TimeAllySIP.sol\":2579:2604  SIPPlan[] public sipPlans */\n    tag_75:\n      0x05\n      dup2\n      dup2\n      sload\n      dup2\n      lt\n      tag_257\n      jumpi\n      invalid\n    tag_257:\n      swap1\n      0x00\n      mstore\n      keccak256(0x00, 0x20)\n      swap1\n      0x08\n      mul\n      add\n      0x00\n      swap2\n      pop\n      swap1\n      pop\n      dup1\n      0x00\n      add\n      0x00\n      swap1\n      sload\n      swap1\n      0x0100\n      exp\n      swap1\n      div\n      0xff\n      and\n      swap1\n      dup1\n      0x01\n      add\n      sload\n      swap1\n      dup1\n      0x02\n      add\n      sload\n      swap1\n      dup1\n      0x03\n      add\n      sload\n      swap1\n      dup1\n      0x04\n      add\n      sload\n      swap1\n      dup1\n      0x05\n      add\n      sload\n      swap1\n      dup1\n      0x06\n      add\n      sload\n      swap1\n      dup1\n      0x07\n      add\n      sload\n      swap1\n      pop\n      dup9\n      jump\t// out\n        /* \"TimeAllySIP.sol\":4017:4217  function getDepositDoneStatus(... */\n    tag_78:\n        /* \"TimeAllySIP.sol\":4140:4147  uint256 */\n      0x00\n        /* \"TimeAllySIP.sol\":4162:4166  sips */\n      0x06\n        /* \"TimeAllySIP.sol\":4162:4180  sips[_userAddress] */\n      0x00\n        /* \"TimeAllySIP.sol\":4167:4179  _userAddress */\n      dup6\n        /* \"TimeAllySIP.sol\":4162:4180  sips[_userAddress] */\n      0xffffffffffffffffffffffffffffffffffffffff\n      and\n      0xffffffffffffffffffffffffffffffffffffffff\n      and\n      dup2\n      mstore\n      0x20\n      add\n      swap1\n      dup2\n      mstore\n      0x20\n      add\n      0x00\n      keccak256\n        /* \"TimeAllySIP.sol\":4181:4187  _sipId */\n      dup4\n        /* \"TimeAllySIP.sol\":4162:4188  sips[_userAddress][_sipId] */\n      dup2\n      sload\n      dup2\n      lt\n      tag_260\n      jumpi\n      invalid\n    tag_260:\n      swap1\n      0x00\n      mstore\n      keccak256(0x00, 0x20)\n      swap1\n      0x0c\n      mul\n      add\n        /* \"TimeAllySIP.sol\":4162:4202  sips[_userAddress][_sipId].depositStatus */\n      0x09\n      add\n        /* \"TimeAllySIP.sol\":4162:4212  sips[_userAddress][_sipId].depositStatus[_monthId] */\n      0x00\n        /* \"TimeAllySIP.sol\":4203:4211  _monthId */\n      dup4\n        /* \"TimeAllySIP.sol\":4162:4212  sips[_userAddress][_sipId].depositStatus[_monthId] */\n      dup2\n      mstore\n      0x20\n      add\n      swap1\n      dup2\n      mstore\n      0x20\n      add\n      0x00\n      keccak256\n      sload\n        /* \"TimeAllySIP.sol\":4155:4212  return sips[_userAddress][_sipId].depositStatus[_monthId] */\n      swap1\n      pop\n        /* \"TimeAllySIP.sol\":4017:4217  function getDepositDoneStatus(... */\n      swap4\n      swap3\n      pop\n      pop\n      pop\n      jump\t// out\n        /* \"TimeAllySIP.sol\":2609:2646  mapping(address => SIP[]) public sips */\n    tag_81:\n      mstore(0x20, 0x06)\n      dup2\n      0x00\n      mstore\n      keccak256(0x00, 0x40)\n      dup2\n      dup2\n      sload\n      dup2\n      lt\n      tag_262\n      jumpi\n      invalid\n    tag_262:\n      swap1\n      0x00\n      mstore\n      keccak256(0x00, 0x20)\n      swap1\n      0x0c\n      mul\n      add\n      0x00\n      swap2\n      pop\n      swap2\n      pop\n      pop\n      dup1\n      0x00\n      add\n      sload\n      swap1\n      dup1\n      0x01\n      add\n      sload\n      swap1\n      dup1\n      0x02\n      add\n      sload\n      swap1\n      dup1\n      0x03\n      add\n      sload\n      swap1\n      dup1\n      0x04\n      add\n      sload\n      swap1\n      dup1\n      0x05\n      add\n      sload\n      swap1\n      dup1\n      0x06\n      add\n      sload\n      swap1\n      dup1\n      0x07\n      add\n      sload\n      swap1\n      dup1\n      0x08\n      add\n      sload\n      swap1\n      pop\n      dup10\n      jump\t// out\n        /* \"TimeAllySIP.sol\":2329:2347  ERC20 public token */\n    tag_83:\n      0x01\n      0x00\n      swap1\n      sload\n      swap1\n      0x0100\n      exp\n      swap1\n      div\n      0xffffffffffffffffffffffffffffffffffffffff\n      and\n      dup2\n      jump\t// out\n        /* \"SafeMath.sol\":1274:1408  function sub(uint256 a, uint256 b) internal pure returns (uint256) {... */\n    tag_94:\n        /* \"SafeMath.sol\":1332:1339  uint256 */\n      0x00\n        /* \"SafeMath.sol\":1358:1401  sub(a, b, \"SafeMath: subtraction overflow\") */\n      tag_265\n        /* \"SafeMath.sol\":1362:1363  a */\n      dup4\n        /* \"SafeMath.sol\":1365:1366  b */\n      dup4\n        /* \"SafeMath.sol\":1358:1401  sub(a, b, \"SafeMath: subtraction overflow\") */\n      mload(0x40)\n      dup1\n      0x40\n      add\n      0x40\n      mstore\n      dup1\n      0x1e\n      dup2\n      mstore\n      0x20\n      add\n      0x536166654d6174683a207375627472616374696f6e206f766572666c6f770000\n      dup2\n      mstore\n      pop\n        /* \"SafeMath.sol\":1358:1361  sub */\n      tag_266\n        /* \"SafeMath.sol\":1358:1401  sub(a, b, \"SafeMath: subtraction overflow\") */\n      jump\t// in\n    tag_265:\n        /* \"SafeMath.sol\":1351:1401  return sub(a, b, \"SafeMath: subtraction overflow\") */\n      swap1\n      pop\n        /* \"SafeMath.sol\":1274:1408  function sub(uint256 a, uint256 b) internal pure returns (uint256) {... */\n      swap3\n      swap2\n      pop\n      pop\n      jump\t// out\n        /* \"SafeMath.sol\":2271:2730  function mul(uint256 a, uint256 b) internal pure returns (uint256) {... */\n    tag_155:\n        /* \"SafeMath.sol\":2329:2336  uint256 */\n      0x00\n        /* \"SafeMath.sol\":2575:2576  0 */\n      dup1\n        /* \"SafeMath.sol\":2570:2571  a */\n      dup4\n        /* \"SafeMath.sol\":2570:2576  a == 0 */\n      eq\n        /* \"SafeMath.sol\":2566:2611  if (a == 0) {... */\n      iszero\n      tag_268\n      jumpi\n        /* \"SafeMath.sol\":2599:2600  0 */\n      0x00\n        /* \"SafeMath.sol\":2592:2600  return 0 */\n      swap1\n      pop\n      jump(tag_267)\n        /* \"SafeMath.sol\":2566:2611  if (a == 0) {... */\n    tag_268:\n        /* \"SafeMath.sol\":2621:2630  uint256 c */\n      0x00\n        /* \"SafeMath.sol\":2637:2638  b */\n      dup3\n        /* \"SafeMath.sol\":2633:2634  a */\n      dup5\n        /* \"SafeMath.sol\":2633:2638  a * b */\n      mul\n        /* \"SafeMath.sol\":2621:2638  uint256 c = a * b */\n      swap1\n      pop\n        /* \"SafeMath.sol\":2665:2666  b */\n      dup3\n        /* \"SafeMath.sol\":2660:2661  a */\n      dup5\n        /* \"SafeMath.sol\":2656:2657  c */\n      dup3\n        /* \"SafeMath.sol\":2656:2661  c / a */\n      dup2\n      tag_269\n      jumpi\n      invalid\n    tag_269:\n      div\n        /* \"SafeMath.sol\":2656:2666  c / a == b */\n      eq\n        /* \"SafeMath.sol\":2648:2704  require(c / a == b, \"SafeMath: multiplication overflow\") */\n      tag_270\n      jumpi\n      mload(0x40)\n      0x08c379a000000000000000000000000000000000000000000000000000000000\n      dup2\n      mstore\n      0x04\n      add\n      dup1\n      dup1\n      0x20\n      add\n      dup3\n      dup2\n      sub\n      dup3\n      mstore\n      0x21\n      dup2\n      mstore\n      0x20\n      add\n      dup1\n      data_9113bb53c2876a3805b2c9242029423fc540a728243ce887ab24c82cf119fba3\n      0x21\n      swap2\n      codecopy\n      0x40\n      add\n      swap2\n      pop\n      pop\n      mload(0x40)\n      dup1\n      swap2\n      sub\n      swap1\n      revert\n    tag_270:\n        /* \"SafeMath.sol\":2722:2723  c */\n      dup1\n        /* \"SafeMath.sol\":2715:2723  return c */\n      swap2\n      pop\n      pop\n        /* \"SafeMath.sol\":2271:2730  function mul(uint256 a, uint256 b) internal pure returns (uint256) {... */\n    tag_267:\n      swap3\n      swap2\n      pop\n      pop\n      jump\t// out\n        /* \"SafeMath.sol\":3185:3315  function div(uint256 a, uint256 b) internal pure returns (uint256) {... */\n    tag_156:\n        /* \"SafeMath.sol\":3243:3250  uint256 */\n      0x00\n        /* \"SafeMath.sol\":3269:3308  div(a, b, \"SafeMath: division by zero\") */\n      tag_272\n        /* \"SafeMath.sol\":3273:3274  a */\n      dup4\n        /* \"SafeMath.sol\":3276:3277  b */\n      dup4\n        /* \"SafeMath.sol\":3269:3308  div(a, b, \"SafeMath: division by zero\") */\n      mload(0x40)\n      dup1\n      0x40\n      add\n      0x40\n      mstore\n      dup1\n      0x1a\n      dup2\n      mstore\n      0x20\n      add\n      0x536166654d6174683a206469766973696f6e206279207a65726f000000000000\n      dup2\n      mstore\n      pop\n        /* \"SafeMath.sol\":3269:3272  div */\n      tag_273\n        /* \"SafeMath.sol\":3269:3308  div(a, b, \"SafeMath: division by zero\") */\n      jump\t// in\n    tag_272:\n        /* \"SafeMath.sol\":3262:3308  return div(a, b, \"SafeMath: division by zero\") */\n      swap1\n      pop\n        /* \"SafeMath.sol\":3185:3315  function div(uint256 a, uint256 b) internal pure returns (uint256) {... */\n      swap3\n      swap2\n      pop\n      pop\n      jump\t// out\n        /* \"SafeMath.sol\":834:1010  function add(uint256 a, uint256 b) internal pure returns (uint256) {... */\n    tag_157:\n        /* \"SafeMath.sol\":892:899  uint256 */\n      0x00\n        /* \"SafeMath.sol\":911:920  uint256 c */\n      dup1\n        /* \"SafeMath.sol\":927:928  b */\n      dup3\n        /* \"SafeMath.sol\":923:924  a */\n      dup5\n        /* \"SafeMath.sol\":923:928  a + b */\n      add\n        /* \"SafeMath.sol\":911:928  uint256 c = a + b */\n      swap1\n      pop\n        /* \"SafeMath.sol\":951:952  a */\n      dup4\n        /* \"SafeMath.sol\":946:947  c */\n      dup2\n        /* \"SafeMath.sol\":946:952  c >= a */\n      lt\n      iszero\n        /* \"SafeMath.sol\":938:984  require(c >= a, \"SafeMath: addition overflow\") */\n      tag_275\n      jumpi\n      mload(0x40)\n      0x08c379a000000000000000000000000000000000000000000000000000000000\n      dup2\n      mstore\n      0x04\n      add\n      dup1\n      dup1\n      0x20\n      add\n      dup3\n      dup2\n      sub\n      dup3\n      mstore\n      0x1b\n      dup2\n      mstore\n      0x20\n      add\n      dup1\n      0x536166654d6174683a206164646974696f6e206f766572666c6f770000000000\n      dup2\n      mstore\n      pop\n      0x20\n      add\n      swap2\n      pop\n      pop\n      mload(0x40)\n      dup1\n      swap2\n      sub\n      swap1\n      revert\n    tag_275:\n        /* \"SafeMath.sol\":1002:1003  c */\n      dup1\n        /* \"SafeMath.sol\":995:1003  return c */\n      swap2\n      pop\n      pop\n        /* \"SafeMath.sol\":834:1010  function add(uint256 a, uint256 b) internal pure returns (uint256) {... */\n      swap3\n      swap2\n      pop\n      pop\n      jump\t// out\n        /* \"SafeMath.sol\":1844:2031  function sub(uint256 a, uint256 b, string memory errorMessage) internal pure returns (uint256) {... */\n    tag_266:\n        /* \"SafeMath.sol\":1930:1937  uint256 */\n      0x00\n        /* \"SafeMath.sol\":1962:1963  a */\n      dup4\n        /* \"SafeMath.sol\":1957:1958  b */\n      dup4\n        /* \"SafeMath.sol\":1957:1963  b <= a */\n      gt\n      iszero\n        /* \"SafeMath.sol\":1965:1977  errorMessage */\n      dup3\n        /* \"SafeMath.sol\":1949:1978  require(b <= a, errorMessage) */\n      swap1\n      tag_277\n      jumpi\n      mload(0x40)\n      0x08c379a000000000000000000000000000000000000000000000000000000000\n      dup2\n      mstore\n      0x04\n      add\n      dup1\n      dup1\n      0x20\n      add\n      dup3\n      dup2\n      sub\n      dup3\n      mstore\n      dup4\n      dup2\n      dup2\n      mload\n      dup2\n      mstore\n      0x20\n      add\n      swap2\n      pop\n      dup1\n      mload\n      swap1\n      0x20\n      add\n      swap1\n      dup1\n      dup4\n      dup4\n        /* \"--CODEGEN--\":23:24   */\n      0x00\n        /* \"--CODEGEN--\":8:108   */\n    tag_278:\n        /* \"--CODEGEN--\":33:36   */\n      dup4\n        /* \"--CODEGEN--\":30:31   */\n      dup2\n        /* \"--CODEGEN--\":27:37   */\n      lt\n        /* \"--CODEGEN--\":8:108   */\n      iszero\n      tag_280\n      jumpi\n        /* \"--CODEGEN--\":99:100   */\n      dup1\n        /* \"--CODEGEN--\":94:97   */\n      dup3\n        /* \"--CODEGEN--\":90:101   */\n      add\n        /* \"--CODEGEN--\":84:102   */\n      mload\n        /* \"--CODEGEN--\":80:81   */\n      dup2\n        /* \"--CODEGEN--\":75:78   */\n      dup5\n        /* \"--CODEGEN--\":71:82   */\n      add\n        /* \"--CODEGEN--\":64:103   */\n      mstore\n        /* \"--CODEGEN--\":52:54   */\n      0x20\n        /* \"--CODEGEN--\":49:50   */\n      dup2\n        /* \"--CODEGEN--\":45:55   */\n      add\n        /* \"--CODEGEN--\":40:55   */\n      swap1\n      pop\n        /* \"--CODEGEN--\":8:108   */\n      jump(tag_278)\n    tag_280:\n        /* \"--CODEGEN--\":12:26   */\n      pop\n        /* \"SafeMath.sol\":1949:1978  require(b <= a, errorMessage) */\n      pop\n      pop\n      pop\n      swap1\n      pop\n      swap1\n      dup2\n      add\n      swap1\n      0x1f\n      and\n      dup1\n      iszero\n      tag_281\n      jumpi\n      dup1\n      dup3\n      sub\n      dup1\n      mload\n      0x01\n      dup4\n      0x20\n      sub\n      0x0100\n      exp\n      sub\n      not\n      and\n      dup2\n      mstore\n      0x20\n      add\n      swap2\n      pop\n    tag_281:\n      pop\n      swap3\n      pop\n      pop\n      pop\n      mload(0x40)\n      dup1\n      swap2\n      sub\n      swap1\n      revert\n    tag_277:\n      pop\n        /* \"SafeMath.sol\":1988:1997  uint256 c */\n      0x00\n        /* \"SafeMath.sol\":2004:2005  b */\n      dup4\n        /* \"SafeMath.sol\":2000:2001  a */\n      dup6\n        /* \"SafeMath.sol\":2000:2005  a - b */\n      sub\n        /* \"SafeMath.sol\":1988:2005  uint256 c = a - b */\n      swap1\n      pop\n        /* \"SafeMath.sol\":2023:2024  c */\n      dup1\n        /* \"SafeMath.sol\":2016:2024  return c */\n      swap2\n      pop\n      pop\n        /* \"SafeMath.sol\":1844:2031  function sub(uint256 a, uint256 b, string memory errorMessage) internal pure returns (uint256) {... */\n      swap4\n      swap3\n      pop\n      pop\n      pop\n      jump\t// out\n        /* \"SafeMath.sol\":3936:4274  function div(uint256 a, uint256 b, string memory errorMessage) internal pure returns (uint256) {... */\n    tag_273:\n        /* \"SafeMath.sol\":4022:4029  uint256 */\n      0x00\n        /* \"SafeMath.sol\":4119:4120  0 */\n      dup1\n        /* \"SafeMath.sol\":4115:4116  b */\n      dup4\n        /* \"SafeMath.sol\":4115:4120  b > 0 */\n      gt\n        /* \"SafeMath.sol\":4122:4134  errorMessage */\n      dup3\n        /* \"SafeMath.sol\":4107:4135  require(b > 0, errorMessage) */\n      swap1\n      tag_283\n      jumpi\n      mload(0x40)\n      0x08c379a000000000000000000000000000000000000000000000000000000000\n      dup2\n      mstore\n      0x04\n      add\n      dup1\n      dup1\n      0x20\n      add\n      dup3\n      dup2\n      sub\n      dup3\n      mstore\n      dup4\n      dup2\n      dup2\n      mload\n      dup2\n      mstore\n      0x20\n      add\n      swap2\n      pop\n      dup1\n      mload\n      swap1\n      0x20\n      add\n      swap1\n      dup1\n      dup4\n      dup4\n        /* \"--CODEGEN--\":23:24   */\n      0x00\n        /* \"--CODEGEN--\":8:108   */\n    tag_284:\n        /* \"--CODEGEN--\":33:36   */\n      dup4\n        /* \"--CODEGEN--\":30:31   */\n      dup2\n        /* \"--CODEGEN--\":27:37   */\n      lt\n        /* \"--CODEGEN--\":8:108   */\n      iszero\n      tag_286\n      jumpi\n        /* \"--CODEGEN--\":99:100   */\n      dup1\n        /* \"--CODEGEN--\":94:97   */\n      dup3\n        /* \"--CODEGEN--\":90:101   */\n      add\n        /* \"--CODEGEN--\":84:102   */\n      mload\n        /* \"--CODEGEN--\":80:81   */\n      dup2\n        /* \"--CODEGEN--\":75:78   */\n      dup5\n        /* \"--CODEGEN--\":71:82   */\n      add\n        /* \"--CODEGEN--\":64:103   */\n      mstore\n        /* \"--CODEGEN--\":52:54   */\n      0x20\n        /* \"--CODEGEN--\":49:50   */\n      dup2\n        /* \"--CODEGEN--\":45:55   */\n      add\n        /* \"--CODEGEN--\":40:55   */\n      swap1\n      pop\n        /* \"--CODEGEN--\":8:108   */\n      jump(tag_284)\n    tag_286:\n        /* \"--CODEGEN--\":12:26   */\n      pop\n        /* \"SafeMath.sol\":4107:4135  require(b > 0, errorMessage) */\n      pop\n      pop\n      pop\n      swap1\n      pop\n      swap1\n      dup2\n      add\n      swap1\n      0x1f\n      and\n      dup1\n      iszero\n      tag_287\n      jumpi\n      dup1\n      dup3\n      sub\n      dup1\n      mload\n      0x01\n      dup4\n      0x20\n      sub\n      0x0100\n      exp\n      sub\n      not\n      and\n      dup2\n      mstore\n      0x20\n      add\n      swap2\n      pop\n    tag_287:\n      pop\n      swap3\n      pop\n      pop\n      pop\n      mload(0x40)\n      dup1\n      swap2\n      sub\n      swap1\n      revert\n    tag_283:\n      pop\n        /* \"SafeMath.sol\":4145:4154  uint256 c */\n      0x00\n        /* \"SafeMath.sol\":4161:4162  b */\n      dup4\n        /* \"SafeMath.sol\":4157:4158  a */\n      dup6\n        /* \"SafeMath.sol\":4157:4162  a / b */\n      dup2\n      tag_288\n      jumpi\n      invalid\n    tag_288:\n      div\n        /* \"SafeMath.sol\":4145:4162  uint256 c = a / b */\n      swap1\n      pop\n        /* \"SafeMath.sol\":4266:4267  c */\n      dup1\n        /* \"SafeMath.sol\":4259:4267  return c */\n      swap2\n      pop\n      pop\n        /* \"SafeMath.sol\":3936:4274  function div(uint256 a, uint256 b, string memory errorMessage) internal pure returns (uint256) {... */\n      swap4\n      swap3\n      pop\n      pop\n      pop\n      jump\t// out\n    stop\n    data_03fd12cc1e83f0add881327c75791a0246e8ebc9eefe5c518ed172fe66fc682c 677261636520706572696f6420656c6170736564206f7220746f6f206561726c79\n    data_9113bb53c2876a3805b2c9242029423fc540a728243ce887ab24c82cf119fba3 536166654d6174683a206d756c7469706c69636174696f6e206f766572666c6f77\n    data_9c5671fbe7325ac18b46fc94e6063ecafd5a4a15681b363f5d37ce08ea0b8f61 6465706f7369742063616e6e6f74206265206c657373207468616e20636f6d6d69746d656e74\n\n    auxdata: 0xa265627a7a723158201acf3c97f0e85fe259baad1f916c8cb808c44f2f4bcf611e6cfd614ae4a598ed64736f6c634300050c0032\n}\n","bytecode":{"linkReferences":{},"object":"60806040526228207060025534801561001757600080fd5b50604051612ffc380380612ffc8339818101604052602081101561003a57600080fd5b8101908080519060200190929190505050336000806101000a81548173ffffffffffffffffffffffffffffffffffffffff021916908373ffffffffffffffffffffffffffffffffffffffff16021790555080600160006101000a81548173ffffffffffffffffffffffffffffffffffffffff021916908373ffffffffffffffffffffffffffffffffffffffff16021790555050612f20806100dc6000396000f3fe608060405234801561001057600080fd5b50600436106101375760003560e01c8063557ed1ba116100b85780639b3017c11161007c5780639b3017c11461058e578063be99970514610606578063ef4ffe5714610634578063f29de4c3146106ab578063f926b17a14610717578063fc0c546a146107b157610137565b8063557ed1ba146103ec5780637f13c7a11461040a5780638da5cb5b1461046c57806394bb9064146104b6578063983b4b6e1461052257610137565b80632393768d116100ff5780632393768d1461025857806326d9767b14610276578063295226c5146102c45780632e9721b61461032e57806353c0fb47146103b457610137565b806307f711491461013c5780630ce57b46146101945780631272d8d4146101ee57806313dcc4521461020c578063155dd5ee1461022a575b600080fd5b6101926004803603606081101561015257600080fd5b81019080803573ffffffffffffffffffffffffffffffffffffffff16906020019092919080359060200190929190803590602001909291905050506107fb565b005b6101ec600480360360608110156101aa57600080fd5b8101908080359060200190929190803573ffffffffffffffffffffffffffffffffffffffff169060200190929190803515159060200190929190505050610bb7565b005b6101f6610cd6565b6040518082815260200191505060405180910390f35b610214610cdc565b6040518082815260200191505060405180910390f35b6102566004803603602081101561024057600080fd5b8101908080359060200190929190505050610ce2565b005b610260610f6a565b6040518082815260200191505060405180910390f35b6102c26004803603604081101561028c57600080fd5b81019080803573ffffffffffffffffffffffffffffffffffffffff16906020019092919080359060200190929190505050610f70565b005b61032c600480360360e08110156102da57600080fd5b8101908080359060200190929190803590602001909291908035906020019092919080359060200190929190803590602001909291908035906020019092919080359060200190929190505050611457565b005b61039a6004803603606081101561034457600080fd5b81019080803573ffffffffffffffffffffffffffffffffffffffff16906020019092919080359060200190929190803573ffffffffffffffffffffffffffffffffffffffff1690602001909291905050506115f5565b604051808215151515815260200191505060405180910390f35b6103ea600480360360408110156103ca57600080fd5b8101908080359060200190929190803590602001909291905050506116a6565b005b6103f4611c7d565b6040518082815260200191505060405180910390f35b61046a6004803603608081101561042057600080fd5b81019080803573ffffffffffffffffffffffffffffffffffffffff169060200190929190803590602001909291908035906020019092919080359060200190929190505050611c85565b005b610474612219565b604051808273ffffffffffffffffffffffffffffffffffffffff1673ffffffffffffffffffffffffffffffffffffffff16815260200191505060405180910390f35b61050c600480360360608110156104cc57600080fd5b81019080803573ffffffffffffffffffffffffffffffffffffffff169060200190929190803590602001909291908035906020019092919050505061223e565b6040518082815260200191505060405180910390f35b6105786004803603606081101561053857600080fd5b81019080803573ffffffffffffffffffffffffffffffffffffffff16906020019092919080359060200190929190803590602001909291905050506123b7565b6040518082815260200191505060405180910390f35b6105f0600480360360808110156105a457600080fd5b81019080803573ffffffffffffffffffffffffffffffffffffffff1690602001909291908035906020019092919080359060200190929190803515159060200190929190505050612588565b6040518082815260200191505060405180910390f35b6106326004803603602081101561061c57600080fd5b810190808035906020019092919050505061287d565b005b6106606004803603602081101561064a57600080fd5b81019080803590602001909291905050506129f3565b60405180891515151581526020018881526020018781526020018681526020018581526020018481526020018381526020018281526020019850505050505050505060405180910390f35b610701600480360360608110156106c157600080fd5b81019080803573ffffffffffffffffffffffffffffffffffffffff1690602001909291908035906020019092919080359060200190929190505050612a55565b6040518082815260200191505060405180910390f35b6107636004803603604081101561072d57600080fd5b81019080803573ffffffffffffffffffffffffffffffffffffffff16906020019092919080359060200190929190505050612acd565b604051808a8152602001898152602001888152602001878152602001868152602001858152602001848152602001838152602001828152602001995050505050505050505060405180910390f35b6107b9612b35565b604051808273ffffffffffffffffffffffffffffffffffffffff1673ffffffffffffffffffffffffffffffffffffffff16815260200191505060405180910390f35b82826000600660008473ffffffffffffffffffffffffffffffffffffffff1673ffffffffffffffffffffffffffffffffffffffff168152602001908152602001600020828154811061084957fe5b90600052602060002090600c020190508273ffffffffffffffffffffffffffffffffffffffff163373ffffffffffffffffffffffffffffffffffffffff161461094e5780600a0160003373ffffffffffffffffffffffffffffffffffffffff1673ffffffffffffffffffffffffffffffffffffffff16815260200190815260200160002060009054906101000a900460ff1661094d576040517f08c379a000000000000000000000000000000000000000000000000000000000815260040180806020018281038252601a8152602001807f6e6f6d696e6174696f6e2073686f756c6420626520746865726500000000000081525060200191505060405180910390fd5b5b600061098b8787878a73ffffffffffffffffffffffffffffffffffffffff163373ffffffffffffffffffffffffffffffffffffffff161415612588565b90506000600660008973ffffffffffffffffffffffffffffffffffffffff1673ffffffffffffffffffffffffffffffffffffffff16815260200190815260200160002087815481106109d957fe5b90600052602060002090600c02019050600081600501549050868260050181905550610a1083600354612b5b90919063ffffffff16565b600381905550610a2b83600454612b5b90919063ffffffff16565b600481905550600160009054906101000a900473ffffffffffffffffffffffffffffffffffffffff1673ffffffffffffffffffffffffffffffffffffffff1663a9059cbb33856040518363ffffffff1660e01b8152600401808373ffffffffffffffffffffffffffffffffffffffff1673ffffffffffffffffffffffffffffffffffffffff16815260200182815260200192505050602060405180830381600087803b158015610ada57600080fd5b505af1158015610aee573d6000803e3d6000fd5b505050506040513d6020811015610b0457600080fd5b810190808051906020019092919050505050878973ffffffffffffffffffffffffffffffffffffffff167f8f4915db3c6bafb045a8ca029a06c4d1638daddb07e111ed35abf34f81b6a855600184018a8733604051808581526020018481526020018381526020018273ffffffffffffffffffffffffffffffffffffffff1673ffffffffffffffffffffffffffffffffffffffff16815260200194505050505060405180910390a3505050505050505050565b80600660003373ffffffffffffffffffffffffffffffffffffffff1673ffffffffffffffffffffffffffffffffffffffff1681526020019081526020016000208481548110610c0257fe5b90600052602060002090600c0201600a0160008473ffffffffffffffffffffffffffffffffffffffff1673ffffffffffffffffffffffffffffffffffffffff16815260200190815260200160002060006101000a81548160ff0219169083151502179055508173ffffffffffffffffffffffffffffffffffffffff16833373ffffffffffffffffffffffffffffffffffffffff167f90e4568f920d8bb093366a04150aa0d04957a471196f5e1cdfb0db3cb83cc5b084604051808215151515815260200191505060405180910390a4505050565b60025481565b60045481565b6000809054906101000a900473ffffffffffffffffffffffffffffffffffffffff1673ffffffffffffffffffffffffffffffffffffffff163373ffffffffffffffffffffffffffffffffffffffff1614610da4576040517f08c379a00000000000000000000000000000000000000000000000000000000081526004018080602001828103825260168152602001807f6f6e6c79206465706c6f7965722063616e2063616c6c0000000000000000000081525060200191505060405180910390fd5b80610dbc600354600454612b5b90919063ffffffff16565b1015610e30576040517f08c379a000000000000000000000000000000000000000000000000000000000815260040180806020018281038252601c8152602001807f63616e6e6f74207769746864726177206578636573732066756e64730000000081525060200191505060405180910390fd5b610e4581600454612b5b90919063ffffffff16565b600481905550600160009054906101000a900473ffffffffffffffffffffffffffffffffffffffff1673ffffffffffffffffffffffffffffffffffffffff1663a9059cbb33836040518363ffffffff1660e01b8152600401808373ffffffffffffffffffffffffffffffffffffffff1673ffffffffffffffffffffffffffffffffffffffff16815260200182815260200192505050602060405180830381600087803b158015610ef457600080fd5b505af1158015610f08573d6000803e3d6000fd5b505050506040513d6020811015610f1e57600080fd5b8101908080519060200190929190505050507f4a37b25aab49761ecf63117fe82b98d750917451133cf797507bc9fb5b96044a816040518082815260200191505060405180910390a150565b60035481565b81816000600660008473ffffffffffffffffffffffffffffffffffffffff1673ffffffffffffffffffffffffffffffffffffffff1681526020019081526020016000208281548110610fbe57fe5b90600052602060002090600c020190508273ffffffffffffffffffffffffffffffffffffffff163373ffffffffffffffffffffffffffffffffffffffff16146110c35780600a0160003373ffffffffffffffffffffffffffffffffffffffff1673ffffffffffffffffffffffffffffffffffffffff16815260200190815260200160002060009054906101000a900460ff166110c2576040517f08c379a000000000000000000000000000000000000000000000000000000000815260040180806020018281038252601a8152602001807f6e6f6d696e6174696f6e2073686f756c6420626520746865726500000000000081525060200191505060405180910390fd5b5b6000600660008773ffffffffffffffffffffffffffffffffffffffff1673ffffffffffffffffffffffffffffffffffffffff168152602001908152602001600020858154811061110f57fe5b90600052602060002090600c020190506003816006015410611199576040517f08c379a00000000000000000000000000000000000000000000000000000000081526004018080602001828103825260158152602001807f6f6e6c79203320706f77657220626f6f7374657273000000000000000000000081525060200191505060405180910390fd5b6000600182600601540190506000600254600383600254600c60058860000154815481106111c357fe5b906000526020600020906008020160030154020202816111df57fe5b0460025460058660000154815481106111f457fe5b90600052602060002090600802016002015402856002015401010390508773ffffffffffffffffffffffffffffffffffffffff163373ffffffffffffffffffffffffffffffffffffffff161461124f57600c60025402810190505b8042116112c4576040517f08c379a00000000000000000000000000000000000000000000000000000000081526004018080602001828103825260158152602001807f63616e6e6f74207769746864726177206561726c79000000000000000000000081525060200191505060405180910390fd5b60006112d18989856123b7565b9050828460060181905550600160009054906101000a900473ffffffffffffffffffffffffffffffffffffffff1673ffffffffffffffffffffffffffffffffffffffff1663a9059cbb33836040518363ffffffff1660e01b8152600401808373ffffffffffffffffffffffffffffffffffffffff1673ffffffffffffffffffffffffffffffffffffffff16815260200182815260200192505050602060405180830381600087803b15801561138557600080fd5b505af1158015611399573d6000803e3d6000fd5b505050506040513d60208110156113af57600080fd5b810190808051906020019092919050505050878973ffffffffffffffffffffffffffffffffffffffff167fa1c568ef1602bc58c1e32ea2f1251b87874dce947f5d4f4df53677d06d5bf56d858433604051808481526020018381526020018273ffffffffffffffffffffffffffffffffffffffff1673ffffffffffffffffffffffffffffffffffffffff168152602001935050505060405180910390a3505050505050505050565b6000809054906101000a900473ffffffffffffffffffffffffffffffffffffffff1673ffffffffffffffffffffffffffffffffffffffff163373ffffffffffffffffffffffffffffffffffffffff1614611519576040517f08c379a00000000000000000000000000000000000000000000000000000000081526004018080602001828103825260168152602001807f6f6e6c79206465706c6f7965722063616e2063616c6c0000000000000000000081525060200191505060405180910390fd5b6005604051806101000160405280600115158152602001898152602001888152602001878152602001868152602001858152602001848152602001838152509080600181540180825580915050906001820390600052602060002090600802016000909192909190915060008201518160000160006101000a81548160ff0219169083151502179055506020820151816001015560408201518160020155606082015181600301556080820151816004015560a0820151816005015560c0820151816006015560e0820151816007015550505050505050505050565b6000600660008573ffffffffffffffffffffffffffffffffffffffff1673ffffffffffffffffffffffffffffffffffffffff168152602001908152602001600020838154811061164157fe5b90600052602060002090600c0201600a0160008373ffffffffffffffffffffffffffffffffffffffff1673ffffffffffffffffffffffffffffffffffffffff16815260200190815260200160002060009054906101000a900460ff1690509392505050565b600582815481106116b357fe5b90600052602060002090600802016001015481101561173a576040517f08c379a00000000000000000000000000000000000000000000000000000000081526004018080602001828103825260208152602001807f616d6f756e742073686f756c642062652061746c65617374206d696e696d756d81525060200191505060405180910390fd5b600160009054906101000a900473ffffffffffffffffffffffffffffffffffffffff1673ffffffffffffffffffffffffffffffffffffffff166323b872dd3330846040518463ffffffff1660e01b8152600401808473ffffffffffffffffffffffffffffffffffffffff1673ffffffffffffffffffffffffffffffffffffffff1681526020018373ffffffffffffffffffffffffffffffffffffffff1673ffffffffffffffffffffffffffffffffffffffff1681526020018281526020019350505050602060405180830381600087803b15801561181757600080fd5b505af115801561182b573d6000803e3d6000fd5b505050506040513d602081101561184157600080fd5b810190808051906020019092919050505061185b57600080fd5b600660003373ffffffffffffffffffffffffffffffffffffffff1673ffffffffffffffffffffffffffffffffffffffff1681526020019081526020016000206040518061012001604052808481526020016001815260200142815260200183815260200183815260200160008152602001600081526020016000815260200160008152509080600181540180825580915050906001820390600052602060002090600c020160009091929091909150600082015181600001556020820151816001015560408201518160020155606082015181600301556080820151816004015560a0820151816005015560c0820151816006015560e0820151816007015561010082015181600801555050506119f16119e06005848154811061197b57fe5b9060005260206000209060080201600301546119d26103e86119c4600588815481106119a357fe5b90600052602060002090600802016005015487612ba590919063ffffffff16565b612c2b90919063ffffffff16565b612ba590919063ffffffff16565b600354612c7590919063ffffffff16565b60038190555060006001600660003373ffffffffffffffffffffffffffffffffffffffff1673ffffffffffffffffffffffffffffffffffffffff168152602001908152602001600020805490500390506002600660003373ffffffffffffffffffffffffffffffffffffffff1673ffffffffffffffffffffffffffffffffffffffff1681526020019081526020016000208281548110611a8d57fe5b90600052602060002090600c0201600901600060018152602001908152602001600020819055506000611b2b60058581548110611ac657fe5b906000526020600020906008020160030154611b1d6103e8611b0f60058981548110611aee57fe5b90600052602060002090600802016005015488612ba590919063ffffffff16565b612c2b90919063ffffffff16565b612ba590919063ffffffff16565b9050611b4281600354612c7590919063ffffffff16565b6003819055503373ffffffffffffffffffffffffffffffffffffffff167f1dec97fc36aa6dfa81b208ec37b3ac8dae30717f0622f9cfb2e7223dc95326ec6001600660003373ffffffffffffffffffffffffffffffffffffffff1673ffffffffffffffffffffffffffffffffffffffff168152602001908152602001600020805490500385604051808381526020018281526020019250505060405180910390a2813373ffffffffffffffffffffffffffffffffffffffff167fbaf4c88598102708c4215d5d3767268130627355850b7ece9bdfdc32fd2941f06001868533604051808581526020018481526020018381526020018273ffffffffffffffffffffffffffffffffffffffff1673ffffffffffffffffffffffffffffffffffffffff16815260200194505050505060405180910390a350505050565b600042905090565b83836000600660008473ffffffffffffffffffffffffffffffffffffffff1673ffffffffffffffffffffffffffffffffffffffff1681526020019081526020016000208281548110611cd357fe5b90600052602060002090600c020190508273ffffffffffffffffffffffffffffffffffffffff163373ffffffffffffffffffffffffffffffffffffffff1614611dd85780600a0160003373ffffffffffffffffffffffffffffffffffffffff1673ffffffffffffffffffffffffffffffffffffffff16815260200190815260200160002060009054906101000a900460ff16611dd7576040517f08c379a000000000000000000000000000000000000000000000000000000000815260040180806020018281038252601a8152602001807f6e6f6d696e6174696f6e2073686f756c6420626520746865726500000000000081525060200191505060405180910390fd5b5b6000600660008973ffffffffffffffffffffffffffffffffffffffff1673ffffffffffffffffffffffffffffffffffffffff1681526020019081526020016000208781548110611e2457fe5b90600052602060002090600c020190508060030154861015611e91576040517f08c379a0000000000000000000000000000000000000000000000000000000008152600401808060200182810382526026815260200180612ec66026913960400191505060405180910390fd5b60008160090160008781526020019081526020016000205414611f1c576040517f08c379a00000000000000000000000000000000000000000000000000000000081526004018080602001828103825260148152602001807f63616e6e6f74206465706f73697420616761696e00000000000000000000000081525060200191505060405180910390fd5b600160009054906101000a900473ffffffffffffffffffffffffffffffffffffffff1673ffffffffffffffffffffffffffffffffffffffff166323b872dd3330896040518463ffffffff1660e01b8152600401808473ffffffffffffffffffffffffffffffffffffffff1673ffffffffffffffffffffffffffffffffffffffff1681526020018373ffffffffffffffffffffffffffffffffffffffff1673ffffffffffffffffffffffffffffffffffffffff1681526020018281526020019350505050602060405180830381600087803b158015611ff957600080fd5b505af115801561200d573d6000803e3d6000fd5b505050506040513d602081101561202357600080fd5b810190808051906020019092919050505061203d57600080fd5b600061204a89898861223e565b9050600081116120a5576040517f08c379a0000000000000000000000000000000000000000000000000000000008152600401808060200182810382526021815260200180612e846021913960400191505060405180910390fd5b80826009016000888152602001908152602001600020819055506120d6878360040154612c7590919063ffffffff16565b8260040181905550600061215d60058460000154815481106120f457fe5b90600052602060002090600802016003015461214f6103e8612141600588600001548154811061212057fe5b9060005260206000209060080201600501548d612ba590919063ffffffff16565b612c2b90919063ffffffff16565b612ba590919063ffffffff16565b905061217481600354612c7590919063ffffffff16565b600381905550888a73ffffffffffffffffffffffffffffffffffffffff167fbaf4c88598102708c4215d5d3767268130627355850b7ece9bdfdc32fd2941f0898b8533604051808581526020018481526020018381526020018273ffffffffffffffffffffffffffffffffffffffff1673ffffffffffffffffffffffffffffffffffffffff16815260200194505050505060405180910390a350505050505050505050565b6000809054906101000a900473ffffffffffffffffffffffffffffffffffffffff1681565b600080600660008673ffffffffffffffffffffffffffffffffffffffff1673ffffffffffffffffffffffffffffffffffffffff168152602001908152602001600020848154811061228b57fe5b90600052602060002090600c02019050600183101580156122ce575060058160000154815481106122b857fe5b9060005260206000209060080201600201548311155b612340576040517f08c379a00000000000000000000000000000000000000000000000000000000081526004018080602001828103825260158152602001807f696e76616c6964206465706f736974206d6f6e7468000000000000000000000081525060200191505060405180910390fd5b600083600254028260020154019050428110158015612363575060025481034210155b15612373576002925050506123b0565b42600583600001548154811061238557fe5b9060005260206000209060080201600401548201106123a9576001925050506123b0565b6000925050505b9392505050565b600080600660008673ffffffffffffffffffffffffffffffffffffffff1673ffffffffffffffffffffffffffffffffffffffff168152602001908152602001600020848154811061240457fe5b90600052602060002090600c0201905060006124626003612454600585600001548154811061242f57fe5b9060005260206000209060080201600201548560030154612ba590919063ffffffff16565b612c2b90919063ffffffff16565b9050600184141561257c57600080600190505b600584600001548154811061248657fe5b906000526020600020906008020160020154811161253c5760008460090160008381526020019081526020016000205414156124e85760058460000154815481106124cd57fe5b9060005260206000209060080201600701548201915061252f565b600184600901600083815260200190815260200160002054141561252e57600584600001548154811061251757fe5b906000526020600020906008020160060154820191505b5b8080600101915050612475565b506125786103e861256a61255b846103e8612b5b90919063ffffffff16565b85612ba590919063ffffffff16565b612c2b90919063ffffffff16565b9150505b80925050509392505050565b600080600660008773ffffffffffffffffffffffffffffffffffffffff1673ffffffffffffffffffffffffffffffffffffffff16815260200190815260200160002085815481106125d557fe5b90600052602060002090600c02019050600060018560058460000154815481106125fb57fe5b9060005260206000209060080201600201540103600254028260020154019050831561262c57600c60025402810190505b816005015485116126a5576040517f08c379a00000000000000000000000000000000000000000000000000000000081526004018080602001828103825260158152602001807f63616e6e6f7420776974686472617720616761696e000000000000000000000081525060200191505060405180910390fd5b600c60058360000154815481106126b857fe5b90600052602060002090600802016003015402851115612740576040517f08c379a00000000000000000000000000000000000000000000000000000000081526004018080602001828103825260178152602001807f7769746864726177206d6f6e746820657863656564656400000000000000000081525060200191505060405180910390fd5b804210156127b6576040517f08c379a00000000000000000000000000000000000000000000000000000000081526004018080602001828103825260158152602001807f63616e6e6f74207769746864726177206561726c79000000000000000000000081525060200191505060405180910390fd5b60006127f160058460000154815481106127cc57fe5b9060005260206000209060080201600201548460040154612c2b90919063ffffffff16565b9050600061283e6103e8612830600587600001548154811061280f57fe5b90600052602060002090600802016005015485612ba590919063ffffffff16565b612c2b90919063ffffffff16565b9050600061286b61285c86600501548a612b5b90919063ffffffff16565b83612ba590919063ffffffff16565b90508095505050505050949350505050565b600160009054906101000a900473ffffffffffffffffffffffffffffffffffffffff1673ffffffffffffffffffffffffffffffffffffffff166323b872dd3330846040518463ffffffff1660e01b8152600401808473ffffffffffffffffffffffffffffffffffffffff1673ffffffffffffffffffffffffffffffffffffffff1681526020018373ffffffffffffffffffffffffffffffffffffffff1673ffffffffffffffffffffffffffffffffffffffff1681526020018281526020019350505050602060405180830381600087803b15801561295a57600080fd5b505af115801561296e573d6000803e3d6000fd5b505050506040513d602081101561298457600080fd5b810190808051906020019092919050505061299e57600080fd5b6129b381600454612c7590919063ffffffff16565b6004819055507f7cb5d45c1071f219bd2da1ea101758715bd52f23f2a707f2d9a0387dea18d906816040518082815260200191505060405180910390a150565b60058181548110612a0057fe5b90600052602060002090600802016000915090508060000160009054906101000a900460ff16908060010154908060020154908060030154908060040154908060050154908060060154908060070154905088565b6000600660008573ffffffffffffffffffffffffffffffffffffffff1673ffffffffffffffffffffffffffffffffffffffff1681526020019081526020016000208381548110612aa157fe5b90600052602060002090600c020160090160008381526020019081526020016000205490509392505050565b60066020528160005260406000208181548110612ae657fe5b90600052602060002090600c0201600091509150508060000154908060010154908060020154908060030154908060040154908060050154908060060154908060070154908060080154905089565b600160009054906101000a900473ffffffffffffffffffffffffffffffffffffffff1681565b6000612b9d83836040518060400160405280601e81526020017f536166654d6174683a207375627472616374696f6e206f766572666c6f770000815250612cfd565b905092915050565b600080831415612bb85760009050612c25565b6000828402905082848281612bc957fe5b0414612c20576040517f08c379a0000000000000000000000000000000000000000000000000000000008152600401808060200182810382526021815260200180612ea56021913960400191505060405180910390fd5b809150505b92915050565b6000612c6d83836040518060400160405280601a81526020017f536166654d6174683a206469766973696f6e206279207a65726f000000000000815250612dbd565b905092915050565b600080828401905083811015612cf3576040517f08c379a000000000000000000000000000000000000000000000000000000000815260040180806020018281038252601b8152602001807f536166654d6174683a206164646974696f6e206f766572666c6f77000000000081525060200191505060405180910390fd5b8091505092915050565b6000838311158290612daa576040517f08c379a00000000000000000000000000000000000000000000000000000000081526004018080602001828103825283818151815260200191508051906020019080838360005b83811015612d6f578082015181840152602081019050612d54565b50505050905090810190601f168015612d9c5780820380516001836020036101000a031916815260200191505b509250505060405180910390fd5b5060008385039050809150509392505050565b60008083118290612e69576040517f08c379a00000000000000000000000000000000000000000000000000000000081526004018080602001828103825283818151815260200191508051906020019080838360005b83811015612e2e578082015181840152602081019050612e13565b50505050905090810190601f168015612e5b5780820380516001836020036101000a031916815260200191505b509250505060405180910390fd5b506000838581612e7557fe5b04905080915050939250505056fe677261636520706572696f6420656c6170736564206f7220746f6f206561726c79536166654d6174683a206d756c7469706c69636174696f6e206f766572666c6f776465706f7369742063616e6e6f74206265206c657373207468616e20636f6d6d69746d656e74a265627a7a723158201acf3c97f0e85fe259baad1f916c8cb808c44f2f4bcf611e6cfd614ae4a598ed64736f6c634300050c0032","opcodes":"PUSH1 0x80 PUSH1 0x40 MSTORE PUSH3 0x282070 PUSH1 0x2 SSTORE CALLVALUE DUP1 ISZERO PUSH2 0x17 JUMPI PUSH1 0x0 DUP1 REVERT JUMPDEST POP PUSH1 0x40 MLOAD PUSH2 0x2FFC CODESIZE SUB DUP1 PUSH2 0x2FFC DUP4 CODECOPY DUP2 DUP2 ADD PUSH1 0x40 MSTORE PUSH1 0x20 DUP2 LT ISZERO PUSH2 0x3A JUMPI PUSH1 0x0 DUP1 REVERT JUMPDEST DUP2 ADD SWAP1 DUP1 DUP1 MLOAD SWAP1 PUSH1 0x20 ADD SWAP1 SWAP3 SWAP2 SWAP1 POP POP POP CALLER PUSH1 0x0 DUP1 PUSH2 0x100 EXP DUP2 SLOAD DUP2 PUSH20 0xFFFFFFFFFFFFFFFFFFFFFFFFFFFFFFFFFFFFFFFF MUL NOT AND SWAP1 DUP4 PUSH20 0xFFFFFFFFFFFFFFFFFFFFFFFFFFFFFFFFFFFFFFFF AND MUL OR SWAP1 SSTORE POP DUP1 PUSH1 0x1 PUSH1 0x0 PUSH2 0x100 EXP DUP2 SLOAD DUP2 PUSH20 0xFFFFFFFFFFFFFFFFFFFFFFFFFFFFFFFFFFFFFFFF MUL NOT AND SWAP1 DUP4 PUSH20 0xFFFFFFFFFFFFFFFFFFFFFFFFFFFFFFFFFFFFFFFF AND MUL OR SWAP1 SSTORE POP POP PUSH2 0x2F20 DUP1 PUSH2 0xDC PUSH1 0x0 CODECOPY PUSH1 0x0 RETURN INVALID PUSH1 0x80 PUSH1 0x40 MSTORE CALLVALUE DUP1 ISZERO PUSH2 0x10 JUMPI PUSH1 0x0 DUP1 REVERT JUMPDEST POP PUSH1 0x4 CALLDATASIZE LT PUSH2 0x137 JUMPI PUSH1 0x0 CALLDATALOAD PUSH1 0xE0 SHR DUP1 PUSH4 0x557ED1BA GT PUSH2 0xB8 JUMPI DUP1 PUSH4 0x9B3017C1 GT PUSH2 0x7C JUMPI DUP1 PUSH4 0x9B3017C1 EQ PUSH2 0x58E JUMPI DUP1 PUSH4 0xBE999705 EQ PUSH2 0x606 JUMPI DUP1 PUSH4 0xEF4FFE57 EQ PUSH2 0x634 JUMPI DUP1 PUSH4 0xF29DE4C3 EQ PUSH2 0x6AB JUMPI DUP1 PUSH4 0xF926B17A EQ PUSH2 0x717 JUMPI DUP1 PUSH4 0xFC0C546A EQ PUSH2 0x7B1 JUMPI PUSH2 0x137 JUMP JUMPDEST DUP1 PUSH4 0x557ED1BA EQ PUSH2 0x3EC JUMPI DUP1 PUSH4 0x7F13C7A1 EQ PUSH2 0x40A JUMPI DUP1 PUSH4 0x8DA5CB5B EQ PUSH2 0x46C JUMPI DUP1 PUSH4 0x94BB9064 EQ PUSH2 0x4B6 JUMPI DUP1 PUSH4 0x983B4B6E EQ PUSH2 0x522 JUMPI PUSH2 0x137 JUMP JUMPDEST DUP1 PUSH4 0x2393768D GT PUSH2 0xFF JUMPI DUP1 PUSH4 0x2393768D EQ PUSH2 0x258 JUMPI DUP1 PUSH4 0x26D9767B EQ PUSH2 0x276 JUMPI DUP1 PUSH4 0x295226C5 EQ PUSH2 0x2C4 JUMPI DUP1 PUSH4 0x2E9721B6 EQ PUSH2 0x32E JUMPI DUP1 PUSH4 0x53C0FB47 EQ PUSH2 0x3B4 JUMPI PUSH2 0x137 JUMP JUMPDEST DUP1 PUSH4 0x7F71149 EQ PUSH2 0x13C JUMPI DUP1 PUSH4 0xCE57B46 EQ PUSH2 0x194 JUMPI DUP1 PUSH4 0x1272D8D4 EQ PUSH2 0x1EE JUMPI DUP1 PUSH4 0x13DCC452 EQ PUSH2 0x20C JUMPI DUP1 PUSH4 0x155DD5EE EQ PUSH2 0x22A JUMPI JUMPDEST PUSH1 0x0 DUP1 REVERT JUMPDEST PUSH2 0x192 PUSH1 0x4 DUP1 CALLDATASIZE SUB PUSH1 0x60 DUP2 LT ISZERO PUSH2 0x152 JUMPI PUSH1 0x0 DUP1 REVERT JUMPDEST DUP2 ADD SWAP1 DUP1 DUP1 CALLDATALOAD PUSH20 0xFFFFFFFFFFFFFFFFFFFFFFFFFFFFFFFFFFFFFFFF AND SWAP1 PUSH1 0x20 ADD SWAP1 SWAP3 SWAP2 SWAP1 DUP1 CALLDATALOAD SWAP1 PUSH1 0x20 ADD SWAP1 SWAP3 SWAP2 SWAP1 DUP1 CALLDATALOAD SWAP1 PUSH1 0x20 ADD SWAP1 SWAP3 SWAP2 SWAP1 POP POP POP PUSH2 0x7FB JUMP JUMPDEST STOP JUMPDEST PUSH2 0x1EC PUSH1 0x4 DUP1 CALLDATASIZE SUB PUSH1 0x60 DUP2 LT ISZERO PUSH2 0x1AA JUMPI PUSH1 0x0 DUP1 REVERT JUMPDEST DUP2 ADD SWAP1 DUP1 DUP1 CALLDATALOAD SWAP1 PUSH1 0x20 ADD SWAP1 SWAP3 SWAP2 SWAP1 DUP1 CALLDATALOAD PUSH20 0xFFFFFFFFFFFFFFFFFFFFFFFFFFFFFFFFFFFFFFFF AND SWAP1 PUSH1 0x20 ADD SWAP1 SWAP3 SWAP2 SWAP1 DUP1 CALLDATALOAD ISZERO ISZERO SWAP1 PUSH1 0x20 ADD SWAP1 SWAP3 SWAP2 SWAP1 POP POP POP PUSH2 0xBB7 JUMP JUMPDEST STOP JUMPDEST PUSH2 0x1F6 PUSH2 0xCD6 JUMP JUMPDEST PUSH1 0x40 MLOAD DUP1 DUP3 DUP2 MSTORE PUSH1 0x20 ADD SWAP2 POP POP PUSH1 0x40 MLOAD DUP1 SWAP2 SUB SWAP1 RETURN JUMPDEST PUSH2 0x214 PUSH2 0xCDC JUMP JUMPDEST PUSH1 0x40 MLOAD DUP1 DUP3 DUP2 MSTORE PUSH1 0x20 ADD SWAP2 POP POP PUSH1 0x40 MLOAD DUP1 SWAP2 SUB SWAP1 RETURN JUMPDEST PUSH2 0x256 PUSH1 0x4 DUP1 CALLDATASIZE SUB PUSH1 0x20 DUP2 LT ISZERO PUSH2 0x240 JUMPI PUSH1 0x0 DUP1 REVERT JUMPDEST DUP2 ADD SWAP1 DUP1 DUP1 CALLDATALOAD SWAP1 PUSH1 0x20 ADD SWAP1 SWAP3 SWAP2 SWAP1 POP POP POP PUSH2 0xCE2 JUMP JUMPDEST STOP JUMPDEST PUSH2 0x260 PUSH2 0xF6A JUMP JUMPDEST PUSH1 0x40 MLOAD DUP1 DUP3 DUP2 MSTORE PUSH1 0x20 ADD SWAP2 POP POP PUSH1 0x40 MLOAD DUP1 SWAP2 SUB SWAP1 RETURN JUMPDEST PUSH2 0x2C2 PUSH1 0x4 DUP1 CALLDATASIZE SUB PUSH1 0x40 DUP2 LT ISZERO PUSH2 0x28C JUMPI PUSH1 0x0 DUP1 REVERT JUMPDEST DUP2 ADD SWAP1 DUP1 DUP1 CALLDATALOAD PUSH20 0xFFFFFFFFFFFFFFFFFFFFFFFFFFFFFFFFFFFFFFFF AND SWAP1 PUSH1 0x20 ADD SWAP1 SWAP3 SWAP2 SWAP1 DUP1 CALLDATALOAD SWAP1 PUSH1 0x20 ADD SWAP1 SWAP3 SWAP2 SWAP1 POP POP POP PUSH2 0xF70 JUMP JUMPDEST STOP JUMPDEST PUSH2 0x32C PUSH1 0x4 DUP1 CALLDATASIZE SUB PUSH1 0xE0 DUP2 LT ISZERO PUSH2 0x2DA JUMPI PUSH1 0x0 DUP1 REVERT JUMPDEST DUP2 ADD SWAP1 DUP1 DUP1 CALLDATALOAD SWAP1 PUSH1 0x20 ADD SWAP1 SWAP3 SWAP2 SWAP1 DUP1 CALLDATALOAD SWAP1 PUSH1 0x20 ADD SWAP1 SWAP3 SWAP2 SWAP1 DUP1 CALLDATALOAD SWAP1 PUSH1 0x20 ADD SWAP1 SWAP3 SWAP2 SWAP1 DUP1 CALLDATALOAD SWAP1 PUSH1 0x20 ADD SWAP1 SWAP3 SWAP2 SWAP1 DUP1 CALLDATALOAD SWAP1 PUSH1 0x20 ADD SWAP1 SWAP3 SWAP2 SWAP1 DUP1 CALLDATALOAD SWAP1 PUSH1 0x20 ADD SWAP1 SWAP3 SWAP2 SWAP1 DUP1 CALLDATALOAD SWAP1 PUSH1 0x20 ADD SWAP1 SWAP3 SWAP2 SWAP1 POP POP POP PUSH2 0x1457 JUMP JUMPDEST STOP JUMPDEST PUSH2 0x39A PUSH1 0x4 DUP1 CALLDATASIZE SUB PUSH1 0x60 DUP2 LT ISZERO PUSH2 0x344 JUMPI PUSH1 0x0 DUP1 REVERT JUMPDEST DUP2 ADD SWAP1 DUP1 DUP1 CALLDATALOAD PUSH20 0xFFFFFFFFFFFFFFFFFFFFFFFFFFFFFFFFFFFFFFFF AND SWAP1 PUSH1 0x20 ADD SWAP1 SWAP3 SWAP2 SWAP1 DUP1 CALLDATALOAD SWAP1 PUSH1 0x20 ADD SWAP1 SWAP3 SWAP2 SWAP1 DUP1 CALLDATALOAD PUSH20 0xFFFFFFFFFFFFFFFFFFFFFFFFFFFFFFFFFFFFFFFF AND SWAP1 PUSH1 0x20 ADD SWAP1 SWAP3 SWAP2 SWAP1 POP POP POP PUSH2 0x15F5 JUMP JUMPDEST PUSH1 0x40 MLOAD DUP1 DUP3 ISZERO ISZERO ISZERO ISZERO DUP2 MSTORE PUSH1 0x20 ADD SWAP2 POP POP PUSH1 0x40 MLOAD DUP1 SWAP2 SUB SWAP1 RETURN JUMPDEST PUSH2 0x3EA PUSH1 0x4 DUP1 CALLDATASIZE SUB PUSH1 0x40 DUP2 LT ISZERO PUSH2 0x3CA JUMPI PUSH1 0x0 DUP1 REVERT JUMPDEST DUP2 ADD SWAP1 DUP1 DUP1 CALLDATALOAD SWAP1 PUSH1 0x20 ADD SWAP1 SWAP3 SWAP2 SWAP1 DUP1 CALLDATALOAD SWAP1 PUSH1 0x20 ADD SWAP1 SWAP3 SWAP2 SWAP1 POP POP POP PUSH2 0x16A6 JUMP JUMPDEST STOP JUMPDEST PUSH2 0x3F4 PUSH2 0x1C7D JUMP JUMPDEST PUSH1 0x40 MLOAD DUP1 DUP3 DUP2 MSTORE PUSH1 0x20 ADD SWAP2 POP POP PUSH1 0x40 MLOAD DUP1 SWAP2 SUB SWAP1 RETURN JUMPDEST PUSH2 0x46A PUSH1 0x4 DUP1 CALLDATASIZE SUB PUSH1 0x80 DUP2 LT ISZERO PUSH2 0x420 JUMPI PUSH1 0x0 DUP1 REVERT JUMPDEST DUP2 ADD SWAP1 DUP1 DUP1 CALLDATALOAD PUSH20 0xFFFFFFFFFFFFFFFFFFFFFFFFFFFFFFFFFFFFFFFF AND SWAP1 PUSH1 0x20 ADD SWAP1 SWAP3 SWAP2 SWAP1 DUP1 CALLDATALOAD SWAP1 PUSH1 0x20 ADD SWAP1 SWAP3 SWAP2 SWAP1 DUP1 CALLDATALOAD SWAP1 PUSH1 0x20 ADD SWAP1 SWAP3 SWAP2 SWAP1 DUP1 CALLDATALOAD SWAP1 PUSH1 0x20 ADD SWAP1 SWAP3 SWAP2 SWAP1 POP POP POP PUSH2 0x1C85 JUMP JUMPDEST STOP JUMPDEST PUSH2 0x474 PUSH2 0x2219 JUMP JUMPDEST PUSH1 0x40 MLOAD DUP1 DUP3 PUSH20 0xFFFFFFFFFFFFFFFFFFFFFFFFFFFFFFFFFFFFFFFF AND PUSH20 0xFFFFFFFFFFFFFFFFFFFFFFFFFFFFFFFFFFFFFFFF AND DUP2 MSTORE PUSH1 0x20 ADD SWAP2 POP POP PUSH1 0x40 MLOAD DUP1 SWAP2 SUB SWAP1 RETURN JUMPDEST PUSH2 0x50C PUSH1 0x4 DUP1 CALLDATASIZE SUB PUSH1 0x60 DUP2 LT ISZERO PUSH2 0x4CC JUMPI PUSH1 0x0 DUP1 REVERT JUMPDEST DUP2 ADD SWAP1 DUP1 DUP1 CALLDATALOAD PUSH20 0xFFFFFFFFFFFFFFFFFFFFFFFFFFFFFFFFFFFFFFFF AND SWAP1 PUSH1 0x20 ADD SWAP1 SWAP3 SWAP2 SWAP1 DUP1 CALLDATALOAD SWAP1 PUSH1 0x20 ADD SWAP1 SWAP3 SWAP2 SWAP1 DUP1 CALLDATALOAD SWAP1 PUSH1 0x20 ADD SWAP1 SWAP3 SWAP2 SWAP1 POP POP POP PUSH2 0x223E JUMP JUMPDEST PUSH1 0x40 MLOAD DUP1 DUP3 DUP2 MSTORE PUSH1 0x20 ADD SWAP2 POP POP PUSH1 0x40 MLOAD DUP1 SWAP2 SUB SWAP1 RETURN JUMPDEST PUSH2 0x578 PUSH1 0x4 DUP1 CALLDATASIZE SUB PUSH1 0x60 DUP2 LT ISZERO PUSH2 0x538 JUMPI PUSH1 0x0 DUP1 REVERT JUMPDEST DUP2 ADD SWAP1 DUP1 DUP1 CALLDATALOAD PUSH20 0xFFFFFFFFFFFFFFFFFFFFFFFFFFFFFFFFFFFFFFFF AND SWAP1 PUSH1 0x20 ADD SWAP1 SWAP3 SWAP2 SWAP1 DUP1 CALLDATALOAD SWAP1 PUSH1 0x20 ADD SWAP1 SWAP3 SWAP2 SWAP1 DUP1 CALLDATALOAD SWAP1 PUSH1 0x20 ADD SWAP1 SWAP3 SWAP2 SWAP1 POP POP POP PUSH2 0x23B7 JUMP JUMPDEST PUSH1 0x40 MLOAD DUP1 DUP3 DUP2 MSTORE PUSH1 0x20 ADD SWAP2 POP POP PUSH1 0x40 MLOAD DUP1 SWAP2 SUB SWAP1 RETURN JUMPDEST PUSH2 0x5F0 PUSH1 0x4 DUP1 CALLDATASIZE SUB PUSH1 0x80 DUP2 LT ISZERO PUSH2 0x5A4 JUMPI PUSH1 0x0 DUP1 REVERT JUMPDEST DUP2 ADD SWAP1 DUP1 DUP1 CALLDATALOAD PUSH20 0xFFFFFFFFFFFFFFFFFFFFFFFFFFFFFFFFFFFFFFFF AND SWAP1 PUSH1 0x20 ADD SWAP1 SWAP3 SWAP2 SWAP1 DUP1 CALLDATALOAD SWAP1 PUSH1 0x20 ADD SWAP1 SWAP3 SWAP2 SWAP1 DUP1 CALLDATALOAD SWAP1 PUSH1 0x20 ADD SWAP1 SWAP3 SWAP2 SWAP1 DUP1 CALLDATALOAD ISZERO ISZERO SWAP1 PUSH1 0x20 ADD SWAP1 SWAP3 SWAP2 SWAP1 POP POP POP PUSH2 0x2588 JUMP JUMPDEST PUSH1 0x40 MLOAD DUP1 DUP3 DUP2 MSTORE PUSH1 0x20 ADD SWAP2 POP POP PUSH1 0x40 MLOAD DUP1 SWAP2 SUB SWAP1 RETURN JUMPDEST PUSH2 0x632 PUSH1 0x4 DUP1 CALLDATASIZE SUB PUSH1 0x20 DUP2 LT ISZERO PUSH2 0x61C JUMPI PUSH1 0x0 DUP1 REVERT JUMPDEST DUP2 ADD SWAP1 DUP1 DUP1 CALLDATALOAD SWAP1 PUSH1 0x20 ADD SWAP1 SWAP3 SWAP2 SWAP1 POP POP POP PUSH2 0x287D JUMP JUMPDEST STOP JUMPDEST PUSH2 0x660 PUSH1 0x4 DUP1 CALLDATASIZE SUB PUSH1 0x20 DUP2 LT ISZERO PUSH2 0x64A JUMPI PUSH1 0x0 DUP1 REVERT JUMPDEST DUP2 ADD SWAP1 DUP1 DUP1 CALLDATALOAD SWAP1 PUSH1 0x20 ADD SWAP1 SWAP3 SWAP2 SWAP1 POP POP POP PUSH2 0x29F3 JUMP JUMPDEST PUSH1 0x40 MLOAD DUP1 DUP10 ISZERO ISZERO ISZERO ISZERO DUP2 MSTORE PUSH1 0x20 ADD DUP9 DUP2 MSTORE PUSH1 0x20 ADD DUP8 DUP2 MSTORE PUSH1 0x20 ADD DUP7 DUP2 MSTORE PUSH1 0x20 ADD DUP6 DUP2 MSTORE PUSH1 0x20 ADD DUP5 DUP2 MSTORE PUSH1 0x20 ADD DUP4 DUP2 MSTORE PUSH1 0x20 ADD DUP3 DUP2 MSTORE PUSH1 0x20 ADD SWAP9 POP POP POP POP POP POP POP POP POP PUSH1 0x40 MLOAD DUP1 SWAP2 SUB SWAP1 RETURN JUMPDEST PUSH2 0x701 PUSH1 0x4 DUP1 CALLDATASIZE SUB PUSH1 0x60 DUP2 LT ISZERO PUSH2 0x6C1 JUMPI PUSH1 0x0 DUP1 REVERT JUMPDEST DUP2 ADD SWAP1 DUP1 DUP1 CALLDATALOAD PUSH20 0xFFFFFFFFFFFFFFFFFFFFFFFFFFFFFFFFFFFFFFFF AND SWAP1 PUSH1 0x20 ADD SWAP1 SWAP3 SWAP2 SWAP1 DUP1 CALLDATALOAD SWAP1 PUSH1 0x20 ADD SWAP1 SWAP3 SWAP2 SWAP1 DUP1 CALLDATALOAD SWAP1 PUSH1 0x20 ADD SWAP1 SWAP3 SWAP2 SWAP1 POP POP POP PUSH2 0x2A55 JUMP JUMPDEST PUSH1 0x40 MLOAD DUP1 DUP3 DUP2 MSTORE PUSH1 0x20 ADD SWAP2 POP POP PUSH1 0x40 MLOAD DUP1 SWAP2 SUB SWAP1 RETURN JUMPDEST PUSH2 0x763 PUSH1 0x4 DUP1 CALLDATASIZE SUB PUSH1 0x40 DUP2 LT ISZERO PUSH2 0x72D JUMPI PUSH1 0x0 DUP1 REVERT JUMPDEST DUP2 ADD SWAP1 DUP1 DUP1 CALLDATALOAD PUSH20 0xFFFFFFFFFFFFFFFFFFFFFFFFFFFFFFFFFFFFFFFF AND SWAP1 PUSH1 0x20 ADD SWAP1 SWAP3 SWAP2 SWAP1 DUP1 CALLDATALOAD SWAP1 PUSH1 0x20 ADD SWAP1 SWAP3 SWAP2 SWAP1 POP POP POP PUSH2 0x2ACD JUMP JUMPDEST PUSH1 0x40 MLOAD DUP1 DUP11 DUP2 MSTORE PUSH1 0x20 ADD DUP10 DUP2 MSTORE PUSH1 0x20 ADD DUP9 DUP2 MSTORE PUSH1 0x20 ADD DUP8 DUP2 MSTORE PUSH1 0x20 ADD DUP7 DUP2 MSTORE PUSH1 0x20 ADD DUP6 DUP2 MSTORE PUSH1 0x20 ADD DUP5 DUP2 MSTORE PUSH1 0x20 ADD DUP4 DUP2 MSTORE PUSH1 0x20 ADD DUP3 DUP2 MSTORE PUSH1 0x20 ADD SWAP10 POP POP POP POP POP POP POP POP POP POP PUSH1 0x40 MLOAD DUP1 SWAP2 SUB SWAP1 RETURN JUMPDEST PUSH2 0x7B9 PUSH2 0x2B35 JUMP JUMPDEST PUSH1 0x40 MLOAD DUP1 DUP3 PUSH20 0xFFFFFFFFFFFFFFFFFFFFFFFFFFFFFFFFFFFFFFFF AND PUSH20 0xFFFFFFFFFFFFFFFFFFFFFFFFFFFFFFFFFFFFFFFF AND DUP2 MSTORE PUSH1 0x20 ADD SWAP2 POP POP PUSH1 0x40 MLOAD DUP1 SWAP2 SUB SWAP1 RETURN JUMPDEST DUP3 DUP3 PUSH1 0x0 PUSH1 0x6 PUSH1 0x0 DUP5 PUSH20 0xFFFFFFFFFFFFFFFFFFFFFFFFFFFFFFFFFFFFFFFF AND PUSH20 0xFFFFFFFFFFFFFFFFFFFFFFFFFFFFFFFFFFFFFFFF AND DUP2 MSTORE PUSH1 0x20 ADD SWAP1 DUP2 MSTORE PUSH1 0x20 ADD PUSH1 0x0 KECCAK256 DUP3 DUP2 SLOAD DUP2 LT PUSH2 0x849 JUMPI INVALID JUMPDEST SWAP1 PUSH1 0x0 MSTORE PUSH1 0x20 PUSH1 0x0 KECCAK256 SWAP1 PUSH1 0xC MUL ADD SWAP1 POP DUP3 PUSH20 0xFFFFFFFFFFFFFFFFFFFFFFFFFFFFFFFFFFFFFFFF AND CALLER PUSH20 0xFFFFFFFFFFFFFFFFFFFFFFFFFFFFFFFFFFFFFFFF AND EQ PUSH2 0x94E JUMPI DUP1 PUSH1 0xA ADD PUSH1 0x0 CALLER PUSH20 0xFFFFFFFFFFFFFFFFFFFFFFFFFFFFFFFFFFFFFFFF AND PUSH20 0xFFFFFFFFFFFFFFFFFFFFFFFFFFFFFFFFFFFFFFFF AND DUP2 MSTORE PUSH1 0x20 ADD SWAP1 DUP2 MSTORE PUSH1 0x20 ADD PUSH1 0x0 KECCAK256 PUSH1 0x0 SWAP1 SLOAD SWAP1 PUSH2 0x100 EXP SWAP1 DIV PUSH1 0xFF AND PUSH2 0x94D JUMPI PUSH1 0x40 MLOAD PUSH32 0x8C379A000000000000000000000000000000000000000000000000000000000 DUP2 MSTORE PUSH1 0x4 ADD DUP1 DUP1 PUSH1 0x20 ADD DUP3 DUP2 SUB DUP3 MSTORE PUSH1 0x1A DUP2 MSTORE PUSH1 0x20 ADD DUP1 PUSH32 0x6E6F6D696E6174696F6E2073686F756C64206265207468657265000000000000 DUP2 MSTORE POP PUSH1 0x20 ADD SWAP2 POP POP PUSH1 0x40 MLOAD DUP1 SWAP2 SUB SWAP1 REVERT JUMPDEST JUMPDEST PUSH1 0x0 PUSH2 0x98B DUP8 DUP8 DUP8 DUP11 PUSH20 0xFFFFFFFFFFFFFFFFFFFFFFFFFFFFFFFFFFFFFFFF AND CALLER PUSH20 0xFFFFFFFFFFFFFFFFFFFFFFFFFFFFFFFFFFFFFFFF AND EQ ISZERO PUSH2 0x2588 JUMP JUMPDEST SWAP1 POP PUSH1 0x0 PUSH1 0x6 PUSH1 0x0 DUP10 PUSH20 0xFFFFFFFFFFFFFFFFFFFFFFFFFFFFFFFFFFFFFFFF AND PUSH20 0xFFFFFFFFFFFFFFFFFFFFFFFFFFFFFFFFFFFFFFFF AND DUP2 MSTORE PUSH1 0x20 ADD SWAP1 DUP2 MSTORE PUSH1 0x20 ADD PUSH1 0x0 KECCAK256 DUP8 DUP2 SLOAD DUP2 LT PUSH2 0x9D9 JUMPI INVALID JUMPDEST SWAP1 PUSH1 0x0 MSTORE PUSH1 0x20 PUSH1 0x0 KECCAK256 SWAP1 PUSH1 0xC MUL ADD SWAP1 POP PUSH1 0x0 DUP2 PUSH1 0x5 ADD SLOAD SWAP1 POP DUP7 DUP3 PUSH1 0x5 ADD DUP2 SWAP1 SSTORE POP PUSH2 0xA10 DUP4 PUSH1 0x3 SLOAD PUSH2 0x2B5B SWAP1 SWAP2 SWAP1 PUSH4 0xFFFFFFFF AND JUMP JUMPDEST PUSH1 0x3 DUP2 SWAP1 SSTORE POP PUSH2 0xA2B DUP4 PUSH1 0x4 SLOAD PUSH2 0x2B5B SWAP1 SWAP2 SWAP1 PUSH4 0xFFFFFFFF AND JUMP JUMPDEST PUSH1 0x4 DUP2 SWAP1 SSTORE POP PUSH1 0x1 PUSH1 0x0 SWAP1 SLOAD SWAP1 PUSH2 0x100 EXP SWAP1 DIV PUSH20 0xFFFFFFFFFFFFFFFFFFFFFFFFFFFFFFFFFFFFFFFF AND PUSH20 0xFFFFFFFFFFFFFFFFFFFFFFFFFFFFFFFFFFFFFFFF AND PUSH4 0xA9059CBB CALLER DUP6 PUSH1 0x40 MLOAD DUP4 PUSH4 0xFFFFFFFF AND PUSH1 0xE0 SHL DUP2 MSTORE PUSH1 0x4 ADD DUP1 DUP4 PUSH20 0xFFFFFFFFFFFFFFFFFFFFFFFFFFFFFFFFFFFFFFFF AND PUSH20 0xFFFFFFFFFFFFFFFFFFFFFFFFFFFFFFFFFFFFFFFF AND DUP2 MSTORE PUSH1 0x20 ADD DUP3 DUP2 MSTORE PUSH1 0x20 ADD SWAP3 POP POP POP PUSH1 0x20 PUSH1 0x40 MLOAD DUP1 DUP4 SUB DUP2 PUSH1 0x0 DUP8 DUP1 EXTCODESIZE ISZERO DUP1 ISZERO PUSH2 0xADA JUMPI PUSH1 0x0 DUP1 REVERT JUMPDEST POP GAS CALL ISZERO DUP1 ISZERO PUSH2 0xAEE JUMPI RETURNDATASIZE PUSH1 0x0 DUP1 RETURNDATACOPY RETURNDATASIZE PUSH1 0x0 REVERT JUMPDEST POP POP POP POP PUSH1 0x40 MLOAD RETURNDATASIZE PUSH1 0x20 DUP2 LT ISZERO PUSH2 0xB04 JUMPI PUSH1 0x0 DUP1 REVERT JUMPDEST DUP2 ADD SWAP1 DUP1 DUP1 MLOAD SWAP1 PUSH1 0x20 ADD SWAP1 SWAP3 SWAP2 SWAP1 POP POP POP POP DUP8 DUP10 PUSH20 0xFFFFFFFFFFFFFFFFFFFFFFFFFFFFFFFFFFFFFFFF AND PUSH32 0x8F4915DB3C6BAFB045A8CA029A06C4D1638DADDB07E111ED35ABF34F81B6A855 PUSH1 0x1 DUP5 ADD DUP11 DUP8 CALLER PUSH1 0x40 MLOAD DUP1 DUP6 DUP2 MSTORE PUSH1 0x20 ADD DUP5 DUP2 MSTORE PUSH1 0x20 ADD DUP4 DUP2 MSTORE PUSH1 0x20 ADD DUP3 PUSH20 0xFFFFFFFFFFFFFFFFFFFFFFFFFFFFFFFFFFFFFFFF AND PUSH20 0xFFFFFFFFFFFFFFFFFFFFFFFFFFFFFFFFFFFFFFFF AND DUP2 MSTORE PUSH1 0x20 ADD SWAP5 POP POP POP POP POP PUSH1 0x40 MLOAD DUP1 SWAP2 SUB SWAP1 LOG3 POP POP POP POP POP POP POP POP POP JUMP JUMPDEST DUP1 PUSH1 0x6 PUSH1 0x0 CALLER PUSH20 0xFFFFFFFFFFFFFFFFFFFFFFFFFFFFFFFFFFFFFFFF AND PUSH20 0xFFFFFFFFFFFFFFFFFFFFFFFFFFFFFFFFFFFFFFFF AND DUP2 MSTORE PUSH1 0x20 ADD SWAP1 DUP2 MSTORE PUSH1 0x20 ADD PUSH1 0x0 KECCAK256 DUP5 DUP2 SLOAD DUP2 LT PUSH2 0xC02 JUMPI INVALID JUMPDEST SWAP1 PUSH1 0x0 MSTORE PUSH1 0x20 PUSH1 0x0 KECCAK256 SWAP1 PUSH1 0xC MUL ADD PUSH1 0xA ADD PUSH1 0x0 DUP5 PUSH20 0xFFFFFFFFFFFFFFFFFFFFFFFFFFFFFFFFFFFFFFFF AND PUSH20 0xFFFFFFFFFFFFFFFFFFFFFFFFFFFFFFFFFFFFFFFF AND DUP2 MSTORE PUSH1 0x20 ADD SWAP1 DUP2 MSTORE PUSH1 0x20 ADD PUSH1 0x0 KECCAK256 PUSH1 0x0 PUSH2 0x100 EXP DUP2 SLOAD DUP2 PUSH1 0xFF MUL NOT AND SWAP1 DUP4 ISZERO ISZERO MUL OR SWAP1 SSTORE POP DUP2 PUSH20 0xFFFFFFFFFFFFFFFFFFFFFFFFFFFFFFFFFFFFFFFF AND DUP4 CALLER PUSH20 0xFFFFFFFFFFFFFFFFFFFFFFFFFFFFFFFFFFFFFFFF AND PUSH32 0x90E4568F920D8BB093366A04150AA0D04957A471196F5E1CDFB0DB3CB83CC5B0 DUP5 PUSH1 0x40 MLOAD DUP1 DUP3 ISZERO ISZERO ISZERO ISZERO DUP2 MSTORE PUSH1 0x20 ADD SWAP2 POP POP PUSH1 0x40 MLOAD DUP1 SWAP2 SUB SWAP1 LOG4 POP POP POP JUMP JUMPDEST PUSH1 0x2 SLOAD DUP2 JUMP JUMPDEST PUSH1 0x4 SLOAD DUP2 JUMP JUMPDEST PUSH1 0x0 DUP1 SWAP1 SLOAD SWAP1 PUSH2 0x100 EXP SWAP1 DIV PUSH20 0xFFFFFFFFFFFFFFFFFFFFFFFFFFFFFFFFFFFFFFFF AND PUSH20 0xFFFFFFFFFFFFFFFFFFFFFFFFFFFFFFFFFFFFFFFF AND CALLER PUSH20 0xFFFFFFFFFFFFFFFFFFFFFFFFFFFFFFFFFFFFFFFF AND EQ PUSH2 0xDA4 JUMPI PUSH1 0x40 MLOAD PUSH32 0x8C379A000000000000000000000000000000000000000000000000000000000 DUP2 MSTORE PUSH1 0x4 ADD DUP1 DUP1 PUSH1 0x20 ADD DUP3 DUP2 SUB DUP3 MSTORE PUSH1 0x16 DUP2 MSTORE PUSH1 0x20 ADD DUP1 PUSH32 0x6F6E6C79206465706C6F7965722063616E2063616C6C00000000000000000000 DUP2 MSTORE POP PUSH1 0x20 ADD SWAP2 POP POP PUSH1 0x40 MLOAD DUP1 SWAP2 SUB SWAP1 REVERT JUMPDEST DUP1 PUSH2 0xDBC PUSH1 0x3 SLOAD PUSH1 0x4 SLOAD PUSH2 0x2B5B SWAP1 SWAP2 SWAP1 PUSH4 0xFFFFFFFF AND JUMP JUMPDEST LT ISZERO PUSH2 0xE30 JUMPI PUSH1 0x40 MLOAD PUSH32 0x8C379A000000000000000000000000000000000000000000000000000000000 DUP2 MSTORE PUSH1 0x4 ADD DUP1 DUP1 PUSH1 0x20 ADD DUP3 DUP2 SUB DUP3 MSTORE PUSH1 0x1C DUP2 MSTORE PUSH1 0x20 ADD DUP1 PUSH32 0x63616E6E6F74207769746864726177206578636573732066756E647300000000 DUP2 MSTORE POP PUSH1 0x20 ADD SWAP2 POP POP PUSH1 0x40 MLOAD DUP1 SWAP2 SUB SWAP1 REVERT JUMPDEST PUSH2 0xE45 DUP2 PUSH1 0x4 SLOAD PUSH2 0x2B5B SWAP1 SWAP2 SWAP1 PUSH4 0xFFFFFFFF AND JUMP JUMPDEST PUSH1 0x4 DUP2 SWAP1 SSTORE POP PUSH1 0x1 PUSH1 0x0 SWAP1 SLOAD SWAP1 PUSH2 0x100 EXP SWAP1 DIV PUSH20 0xFFFFFFFFFFFFFFFFFFFFFFFFFFFFFFFFFFFFFFFF AND PUSH20 0xFFFFFFFFFFFFFFFFFFFFFFFFFFFFFFFFFFFFFFFF AND PUSH4 0xA9059CBB CALLER DUP4 PUSH1 0x40 MLOAD DUP4 PUSH4 0xFFFFFFFF AND PUSH1 0xE0 SHL DUP2 MSTORE PUSH1 0x4 ADD DUP1 DUP4 PUSH20 0xFFFFFFFFFFFFFFFFFFFFFFFFFFFFFFFFFFFFFFFF AND PUSH20 0xFFFFFFFFFFFFFFFFFFFFFFFFFFFFFFFFFFFFFFFF AND DUP2 MSTORE PUSH1 0x20 ADD DUP3 DUP2 MSTORE PUSH1 0x20 ADD SWAP3 POP POP POP PUSH1 0x20 PUSH1 0x40 MLOAD DUP1 DUP4 SUB DUP2 PUSH1 0x0 DUP8 DUP1 EXTCODESIZE ISZERO DUP1 ISZERO PUSH2 0xEF4 JUMPI PUSH1 0x0 DUP1 REVERT JUMPDEST POP GAS CALL ISZERO DUP1 ISZERO PUSH2 0xF08 JUMPI RETURNDATASIZE PUSH1 0x0 DUP1 RETURNDATACOPY RETURNDATASIZE PUSH1 0x0 REVERT JUMPDEST POP POP POP POP PUSH1 0x40 MLOAD RETURNDATASIZE PUSH1 0x20 DUP2 LT ISZERO PUSH2 0xF1E JUMPI PUSH1 0x0 DUP1 REVERT JUMPDEST DUP2 ADD SWAP1 DUP1 DUP1 MLOAD SWAP1 PUSH1 0x20 ADD SWAP1 SWAP3 SWAP2 SWAP1 POP POP POP POP PUSH32 0x4A37B25AAB49761ECF63117FE82B98D750917451133CF797507BC9FB5B96044A DUP2 PUSH1 0x40 MLOAD DUP1 DUP3 DUP2 MSTORE PUSH1 0x20 ADD SWAP2 POP POP PUSH1 0x40 MLOAD DUP1 SWAP2 SUB SWAP1 LOG1 POP JUMP JUMPDEST PUSH1 0x3 SLOAD DUP2 JUMP JUMPDEST DUP2 DUP2 PUSH1 0x0 PUSH1 0x6 PUSH1 0x0 DUP5 PUSH20 0xFFFFFFFFFFFFFFFFFFFFFFFFFFFFFFFFFFFFFFFF AND PUSH20 0xFFFFFFFFFFFFFFFFFFFFFFFFFFFFFFFFFFFFFFFF AND DUP2 MSTORE PUSH1 0x20 ADD SWAP1 DUP2 MSTORE PUSH1 0x20 ADD PUSH1 0x0 KECCAK256 DUP3 DUP2 SLOAD DUP2 LT PUSH2 0xFBE JUMPI INVALID JUMPDEST SWAP1 PUSH1 0x0 MSTORE PUSH1 0x20 PUSH1 0x0 KECCAK256 SWAP1 PUSH1 0xC MUL ADD SWAP1 POP DUP3 PUSH20 0xFFFFFFFFFFFFFFFFFFFFFFFFFFFFFFFFFFFFFFFF AND CALLER PUSH20 0xFFFFFFFFFFFFFFFFFFFFFFFFFFFFFFFFFFFFFFFF AND EQ PUSH2 0x10C3 JUMPI DUP1 PUSH1 0xA ADD PUSH1 0x0 CALLER PUSH20 0xFFFFFFFFFFFFFFFFFFFFFFFFFFFFFFFFFFFFFFFF AND PUSH20 0xFFFFFFFFFFFFFFFFFFFFFFFFFFFFFFFFFFFFFFFF AND DUP2 MSTORE PUSH1 0x20 ADD SWAP1 DUP2 MSTORE PUSH1 0x20 ADD PUSH1 0x0 KECCAK256 PUSH1 0x0 SWAP1 SLOAD SWAP1 PUSH2 0x100 EXP SWAP1 DIV PUSH1 0xFF AND PUSH2 0x10C2 JUMPI PUSH1 0x40 MLOAD PUSH32 0x8C379A000000000000000000000000000000000000000000000000000000000 DUP2 MSTORE PUSH1 0x4 ADD DUP1 DUP1 PUSH1 0x20 ADD DUP3 DUP2 SUB DUP3 MSTORE PUSH1 0x1A DUP2 MSTORE PUSH1 0x20 ADD DUP1 PUSH32 0x6E6F6D696E6174696F6E2073686F756C64206265207468657265000000000000 DUP2 MSTORE POP PUSH1 0x20 ADD SWAP2 POP POP PUSH1 0x40 MLOAD DUP1 SWAP2 SUB SWAP1 REVERT JUMPDEST JUMPDEST PUSH1 0x0 PUSH1 0x6 PUSH1 0x0 DUP8 PUSH20 0xFFFFFFFFFFFFFFFFFFFFFFFFFFFFFFFFFFFFFFFF AND PUSH20 0xFFFFFFFFFFFFFFFFFFFFFFFFFFFFFFFFFFFFFFFF AND DUP2 MSTORE PUSH1 0x20 ADD SWAP1 DUP2 MSTORE PUSH1 0x20 ADD PUSH1 0x0 KECCAK256 DUP6 DUP2 SLOAD DUP2 LT PUSH2 0x110F JUMPI INVALID JUMPDEST SWAP1 PUSH1 0x0 MSTORE PUSH1 0x20 PUSH1 0x0 KECCAK256 SWAP1 PUSH1 0xC MUL ADD SWAP1 POP PUSH1 0x3 DUP2 PUSH1 0x6 ADD SLOAD LT PUSH2 0x1199 JUMPI PUSH1 0x40 MLOAD PUSH32 0x8C379A000000000000000000000000000000000000000000000000000000000 DUP2 MSTORE PUSH1 0x4 ADD DUP1 DUP1 PUSH1 0x20 ADD DUP3 DUP2 SUB DUP3 MSTORE PUSH1 0x15 DUP2 MSTORE PUSH1 0x20 ADD DUP1 PUSH32 0x6F6E6C79203320706F77657220626F6F73746572730000000000000000000000 DUP2 MSTORE POP PUSH1 0x20 ADD SWAP2 POP POP PUSH1 0x40 MLOAD DUP1 SWAP2 SUB SWAP1 REVERT JUMPDEST PUSH1 0x0 PUSH1 0x1 DUP3 PUSH1 0x6 ADD SLOAD ADD SWAP1 POP PUSH1 0x0 PUSH1 0x2 SLOAD PUSH1 0x3 DUP4 PUSH1 0x2 SLOAD PUSH1 0xC PUSH1 0x5 DUP9 PUSH1 0x0 ADD SLOAD DUP2 SLOAD DUP2 LT PUSH2 0x11C3 JUMPI INVALID JUMPDEST SWAP1 PUSH1 0x0 MSTORE PUSH1 0x20 PUSH1 0x0 KECCAK256 SWAP1 PUSH1 0x8 MUL ADD PUSH1 0x3 ADD SLOAD MUL MUL MUL DUP2 PUSH2 0x11DF JUMPI INVALID JUMPDEST DIV PUSH1 0x2 SLOAD PUSH1 0x5 DUP7 PUSH1 0x0 ADD SLOAD DUP2 SLOAD DUP2 LT PUSH2 0x11F4 JUMPI INVALID JUMPDEST SWAP1 PUSH1 0x0 MSTORE PUSH1 0x20 PUSH1 0x0 KECCAK256 SWAP1 PUSH1 0x8 MUL ADD PUSH1 0x2 ADD SLOAD MUL DUP6 PUSH1 0x2 ADD SLOAD ADD ADD SUB SWAP1 POP DUP8 PUSH20 0xFFFFFFFFFFFFFFFFFFFFFFFFFFFFFFFFFFFFFFFF AND CALLER PUSH20 0xFFFFFFFFFFFFFFFFFFFFFFFFFFFFFFFFFFFFFFFF AND EQ PUSH2 0x124F JUMPI PUSH1 0xC PUSH1 0x2 SLOAD MUL DUP2 ADD SWAP1 POP JUMPDEST DUP1 TIMESTAMP GT PUSH2 0x12C4 JUMPI PUSH1 0x40 MLOAD PUSH32 0x8C379A000000000000000000000000000000000000000000000000000000000 DUP2 MSTORE PUSH1 0x4 ADD DUP1 DUP1 PUSH1 0x20 ADD DUP3 DUP2 SUB DUP3 MSTORE PUSH1 0x15 DUP2 MSTORE PUSH1 0x20 ADD DUP1 PUSH32 0x63616E6E6F74207769746864726177206561726C790000000000000000000000 DUP2 MSTORE POP PUSH1 0x20 ADD SWAP2 POP POP PUSH1 0x40 MLOAD DUP1 SWAP2 SUB SWAP1 REVERT JUMPDEST PUSH1 0x0 PUSH2 0x12D1 DUP10 DUP10 DUP6 PUSH2 0x23B7 JUMP JUMPDEST SWAP1 POP DUP3 DUP5 PUSH1 0x6 ADD DUP2 SWAP1 SSTORE POP PUSH1 0x1 PUSH1 0x0 SWAP1 SLOAD SWAP1 PUSH2 0x100 EXP SWAP1 DIV PUSH20 0xFFFFFFFFFFFFFFFFFFFFFFFFFFFFFFFFFFFFFFFF AND PUSH20 0xFFFFFFFFFFFFFFFFFFFFFFFFFFFFFFFFFFFFFFFF AND PUSH4 0xA9059CBB CALLER DUP4 PUSH1 0x40 MLOAD DUP4 PUSH4 0xFFFFFFFF AND PUSH1 0xE0 SHL DUP2 MSTORE PUSH1 0x4 ADD DUP1 DUP4 PUSH20 0xFFFFFFFFFFFFFFFFFFFFFFFFFFFFFFFFFFFFFFFF AND PUSH20 0xFFFFFFFFFFFFFFFFFFFFFFFFFFFFFFFFFFFFFFFF AND DUP2 MSTORE PUSH1 0x20 ADD DUP3 DUP2 MSTORE PUSH1 0x20 ADD SWAP3 POP POP POP PUSH1 0x20 PUSH1 0x40 MLOAD DUP1 DUP4 SUB DUP2 PUSH1 0x0 DUP8 DUP1 EXTCODESIZE ISZERO DUP1 ISZERO PUSH2 0x1385 JUMPI PUSH1 0x0 DUP1 REVERT JUMPDEST POP GAS CALL ISZERO DUP1 ISZERO PUSH2 0x1399 JUMPI RETURNDATASIZE PUSH1 0x0 DUP1 RETURNDATACOPY RETURNDATASIZE PUSH1 0x0 REVERT JUMPDEST POP POP POP POP PUSH1 0x40 MLOAD RETURNDATASIZE PUSH1 0x20 DUP2 LT ISZERO PUSH2 0x13AF JUMPI PUSH1 0x0 DUP1 REVERT JUMPDEST DUP2 ADD SWAP1 DUP1 DUP1 MLOAD SWAP1 PUSH1 0x20 ADD SWAP1 SWAP3 SWAP2 SWAP1 POP POP POP POP DUP8 DUP10 PUSH20 0xFFFFFFFFFFFFFFFFFFFFFFFFFFFFFFFFFFFFFFFF AND PUSH32 0xA1C568EF1602BC58C1E32EA2F1251B87874DCE947F5D4F4DF53677D06D5BF56D DUP6 DUP5 CALLER PUSH1 0x40 MLOAD DUP1 DUP5 DUP2 MSTORE PUSH1 0x20 ADD DUP4 DUP2 MSTORE PUSH1 0x20 ADD DUP3 PUSH20 0xFFFFFFFFFFFFFFFFFFFFFFFFFFFFFFFFFFFFFFFF AND PUSH20 0xFFFFFFFFFFFFFFFFFFFFFFFFFFFFFFFFFFFFFFFF AND DUP2 MSTORE PUSH1 0x20 ADD SWAP4 POP POP POP POP PUSH1 0x40 MLOAD DUP1 SWAP2 SUB SWAP1 LOG3 POP POP POP POP POP POP POP POP POP JUMP JUMPDEST PUSH1 0x0 DUP1 SWAP1 SLOAD SWAP1 PUSH2 0x100 EXP SWAP1 DIV PUSH20 0xFFFFFFFFFFFFFFFFFFFFFFFFFFFFFFFFFFFFFFFF AND PUSH20 0xFFFFFFFFFFFFFFFFFFFFFFFFFFFFFFFFFFFFFFFF AND CALLER PUSH20 0xFFFFFFFFFFFFFFFFFFFFFFFFFFFFFFFFFFFFFFFF AND EQ PUSH2 0x1519 JUMPI PUSH1 0x40 MLOAD PUSH32 0x8C379A000000000000000000000000000000000000000000000000000000000 DUP2 MSTORE PUSH1 0x4 ADD DUP1 DUP1 PUSH1 0x20 ADD DUP3 DUP2 SUB DUP3 MSTORE PUSH1 0x16 DUP2 MSTORE PUSH1 0x20 ADD DUP1 PUSH32 0x6F6E6C79206465706C6F7965722063616E2063616C6C00000000000000000000 DUP2 MSTORE POP PUSH1 0x20 ADD SWAP2 POP POP PUSH1 0x40 MLOAD DUP1 SWAP2 SUB SWAP1 REVERT JUMPDEST PUSH1 0x5 PUSH1 0x40 MLOAD DUP1 PUSH2 0x100 ADD PUSH1 0x40 MSTORE DUP1 PUSH1 0x1 ISZERO ISZERO DUP2 MSTORE PUSH1 0x20 ADD DUP10 DUP2 MSTORE PUSH1 0x20 ADD DUP9 DUP2 MSTORE PUSH1 0x20 ADD DUP8 DUP2 MSTORE PUSH1 0x20 ADD DUP7 DUP2 MSTORE PUSH1 0x20 ADD DUP6 DUP2 MSTORE PUSH1 0x20 ADD DUP5 DUP2 MSTORE PUSH1 0x20 ADD DUP4 DUP2 MSTORE POP SWAP1 DUP1 PUSH1 0x1 DUP2 SLOAD ADD DUP1 DUP3 SSTORE DUP1 SWAP2 POP POP SWAP1 PUSH1 0x1 DUP3 SUB SWAP1 PUSH1 0x0 MSTORE PUSH1 0x20 PUSH1 0x0 KECCAK256 SWAP1 PUSH1 0x8 MUL ADD PUSH1 0x0 SWAP1 SWAP2 SWAP3 SWAP1 SWAP2 SWAP1 SWAP2 POP PUSH1 0x0 DUP3 ADD MLOAD DUP2 PUSH1 0x0 ADD PUSH1 0x0 PUSH2 0x100 EXP DUP2 SLOAD DUP2 PUSH1 0xFF MUL NOT AND SWAP1 DUP4 ISZERO ISZERO MUL OR SWAP1 SSTORE POP PUSH1 0x20 DUP3 ADD MLOAD DUP2 PUSH1 0x1 ADD SSTORE PUSH1 0x40 DUP3 ADD MLOAD DUP2 PUSH1 0x2 ADD SSTORE PUSH1 0x60 DUP3 ADD MLOAD DUP2 PUSH1 0x3 ADD SSTORE PUSH1 0x80 DUP3 ADD MLOAD DUP2 PUSH1 0x4 ADD SSTORE PUSH1 0xA0 DUP3 ADD MLOAD DUP2 PUSH1 0x5 ADD SSTORE PUSH1 0xC0 DUP3 ADD MLOAD DUP2 PUSH1 0x6 ADD SSTORE PUSH1 0xE0 DUP3 ADD MLOAD DUP2 PUSH1 0x7 ADD SSTORE POP POP POP POP POP POP POP POP POP POP JUMP JUMPDEST PUSH1 0x0 PUSH1 0x6 PUSH1 0x0 DUP6 PUSH20 0xFFFFFFFFFFFFFFFFFFFFFFFFFFFFFFFFFFFFFFFF AND PUSH20 0xFFFFFFFFFFFFFFFFFFFFFFFFFFFFFFFFFFFFFFFF AND DUP2 MSTORE PUSH1 0x20 ADD SWAP1 DUP2 MSTORE PUSH1 0x20 ADD PUSH1 0x0 KECCAK256 DUP4 DUP2 SLOAD DUP2 LT PUSH2 0x1641 JUMPI INVALID JUMPDEST SWAP1 PUSH1 0x0 MSTORE PUSH1 0x20 PUSH1 0x0 KECCAK256 SWAP1 PUSH1 0xC MUL ADD PUSH1 0xA ADD PUSH1 0x0 DUP4 PUSH20 0xFFFFFFFFFFFFFFFFFFFFFFFFFFFFFFFFFFFFFFFF AND PUSH20 0xFFFFFFFFFFFFFFFFFFFFFFFFFFFFFFFFFFFFFFFF AND DUP2 MSTORE PUSH1 0x20 ADD SWAP1 DUP2 MSTORE PUSH1 0x20 ADD PUSH1 0x0 KECCAK256 PUSH1 0x0 SWAP1 SLOAD SWAP1 PUSH2 0x100 EXP SWAP1 DIV PUSH1 0xFF AND SWAP1 POP SWAP4 SWAP3 POP POP POP JUMP JUMPDEST PUSH1 0x5 DUP3 DUP2 SLOAD DUP2 LT PUSH2 0x16B3 JUMPI INVALID JUMPDEST SWAP1 PUSH1 0x0 MSTORE PUSH1 0x20 PUSH1 0x0 KECCAK256 SWAP1 PUSH1 0x8 MUL ADD PUSH1 0x1 ADD SLOAD DUP2 LT ISZERO PUSH2 0x173A JUMPI PUSH1 0x40 MLOAD PUSH32 0x8C379A000000000000000000000000000000000000000000000000000000000 DUP2 MSTORE PUSH1 0x4 ADD DUP1 DUP1 PUSH1 0x20 ADD DUP3 DUP2 SUB DUP3 MSTORE PUSH1 0x20 DUP2 MSTORE PUSH1 0x20 ADD DUP1 PUSH32 0x616D6F756E742073686F756C642062652061746C65617374206D696E696D756D DUP2 MSTORE POP PUSH1 0x20 ADD SWAP2 POP POP PUSH1 0x40 MLOAD DUP1 SWAP2 SUB SWAP1 REVERT JUMPDEST PUSH1 0x1 PUSH1 0x0 SWAP1 SLOAD SWAP1 PUSH2 0x100 EXP SWAP1 DIV PUSH20 0xFFFFFFFFFFFFFFFFFFFFFFFFFFFFFFFFFFFFFFFF AND PUSH20 0xFFFFFFFFFFFFFFFFFFFFFFFFFFFFFFFFFFFFFFFF AND PUSH4 0x23B872DD CALLER ADDRESS DUP5 PUSH1 0x40 MLOAD DUP5 PUSH4 0xFFFFFFFF AND PUSH1 0xE0 SHL DUP2 MSTORE PUSH1 0x4 ADD DUP1 DUP5 PUSH20 0xFFFFFFFFFFFFFFFFFFFFFFFFFFFFFFFFFFFFFFFF AND PUSH20 0xFFFFFFFFFFFFFFFFFFFFFFFFFFFFFFFFFFFFFFFF AND DUP2 MSTORE PUSH1 0x20 ADD DUP4 PUSH20 0xFFFFFFFFFFFFFFFFFFFFFFFFFFFFFFFFFFFFFFFF AND PUSH20 0xFFFFFFFFFFFFFFFFFFFFFFFFFFFFFFFFFFFFFFFF AND DUP2 MSTORE PUSH1 0x20 ADD DUP3 DUP2 MSTORE PUSH1 0x20 ADD SWAP4 POP POP POP POP PUSH1 0x20 PUSH1 0x40 MLOAD DUP1 DUP4 SUB DUP2 PUSH1 0x0 DUP8 DUP1 EXTCODESIZE ISZERO DUP1 ISZERO PUSH2 0x1817 JUMPI PUSH1 0x0 DUP1 REVERT JUMPDEST POP GAS CALL ISZERO DUP1 ISZERO PUSH2 0x182B JUMPI RETURNDATASIZE PUSH1 0x0 DUP1 RETURNDATACOPY RETURNDATASIZE PUSH1 0x0 REVERT JUMPDEST POP POP POP POP PUSH1 0x40 MLOAD RETURNDATASIZE PUSH1 0x20 DUP2 LT ISZERO PUSH2 0x1841 JUMPI PUSH1 0x0 DUP1 REVERT JUMPDEST DUP2 ADD SWAP1 DUP1 DUP1 MLOAD SWAP1 PUSH1 0x20 ADD SWAP1 SWAP3 SWAP2 SWAP1 POP POP POP PUSH2 0x185B JUMPI PUSH1 0x0 DUP1 REVERT JUMPDEST PUSH1 0x6 PUSH1 0x0 CALLER PUSH20 0xFFFFFFFFFFFFFFFFFFFFFFFFFFFFFFFFFFFFFFFF AND PUSH20 0xFFFFFFFFFFFFFFFFFFFFFFFFFFFFFFFFFFFFFFFF AND DUP2 MSTORE PUSH1 0x20 ADD SWAP1 DUP2 MSTORE PUSH1 0x20 ADD PUSH1 0x0 KECCAK256 PUSH1 0x40 MLOAD DUP1 PUSH2 0x120 ADD PUSH1 0x40 MSTORE DUP1 DUP5 DUP2 MSTORE PUSH1 0x20 ADD PUSH1 0x1 DUP2 MSTORE PUSH1 0x20 ADD TIMESTAMP DUP2 MSTORE PUSH1 0x20 ADD DUP4 DUP2 MSTORE PUSH1 0x20 ADD DUP4 DUP2 MSTORE PUSH1 0x20 ADD PUSH1 0x0 DUP2 MSTORE PUSH1 0x20 ADD PUSH1 0x0 DUP2 MSTORE PUSH1 0x20 ADD PUSH1 0x0 DUP2 MSTORE PUSH1 0x20 ADD PUSH1 0x0 DUP2 MSTORE POP SWAP1 DUP1 PUSH1 0x1 DUP2 SLOAD ADD DUP1 DUP3 SSTORE DUP1 SWAP2 POP POP SWAP1 PUSH1 0x1 DUP3 SUB SWAP1 PUSH1 0x0 MSTORE PUSH1 0x20 PUSH1 0x0 KECCAK256 SWAP1 PUSH1 0xC MUL ADD PUSH1 0x0 SWAP1 SWAP2 SWAP3 SWAP1 SWAP2 SWAP1 SWAP2 POP PUSH1 0x0 DUP3 ADD MLOAD DUP2 PUSH1 0x0 ADD SSTORE PUSH1 0x20 DUP3 ADD MLOAD DUP2 PUSH1 0x1 ADD SSTORE PUSH1 0x40 DUP3 ADD MLOAD DUP2 PUSH1 0x2 ADD SSTORE PUSH1 0x60 DUP3 ADD MLOAD DUP2 PUSH1 0x3 ADD SSTORE PUSH1 0x80 DUP3 ADD MLOAD DUP2 PUSH1 0x4 ADD SSTORE PUSH1 0xA0 DUP3 ADD MLOAD DUP2 PUSH1 0x5 ADD SSTORE PUSH1 0xC0 DUP3 ADD MLOAD DUP2 PUSH1 0x6 ADD SSTORE PUSH1 0xE0 DUP3 ADD MLOAD DUP2 PUSH1 0x7 ADD SSTORE PUSH2 0x100 DUP3 ADD MLOAD DUP2 PUSH1 0x8 ADD SSTORE POP POP POP PUSH2 0x19F1 PUSH2 0x19E0 PUSH1 0x5 DUP5 DUP2 SLOAD DUP2 LT PUSH2 0x197B JUMPI INVALID JUMPDEST SWAP1 PUSH1 0x0 MSTORE PUSH1 0x20 PUSH1 0x0 KECCAK256 SWAP1 PUSH1 0x8 MUL ADD PUSH1 0x3 ADD SLOAD PUSH2 0x19D2 PUSH2 0x3E8 PUSH2 0x19C4 PUSH1 0x5 DUP9 DUP2 SLOAD DUP2 LT PUSH2 0x19A3 JUMPI INVALID JUMPDEST SWAP1 PUSH1 0x0 MSTORE PUSH1 0x20 PUSH1 0x0 KECCAK256 SWAP1 PUSH1 0x8 MUL ADD PUSH1 0x5 ADD SLOAD DUP8 PUSH2 0x2BA5 SWAP1 SWAP2 SWAP1 PUSH4 0xFFFFFFFF AND JUMP JUMPDEST PUSH2 0x2C2B SWAP1 SWAP2 SWAP1 PUSH4 0xFFFFFFFF AND JUMP JUMPDEST PUSH2 0x2BA5 SWAP1 SWAP2 SWAP1 PUSH4 0xFFFFFFFF AND JUMP JUMPDEST PUSH1 0x3 SLOAD PUSH2 0x2C75 SWAP1 SWAP2 SWAP1 PUSH4 0xFFFFFFFF AND JUMP JUMPDEST PUSH1 0x3 DUP2 SWAP1 SSTORE POP PUSH1 0x0 PUSH1 0x1 PUSH1 0x6 PUSH1 0x0 CALLER PUSH20 0xFFFFFFFFFFFFFFFFFFFFFFFFFFFFFFFFFFFFFFFF AND PUSH20 0xFFFFFFFFFFFFFFFFFFFFFFFFFFFFFFFFFFFFFFFF AND DUP2 MSTORE PUSH1 0x20 ADD SWAP1 DUP2 MSTORE PUSH1 0x20 ADD PUSH1 0x0 KECCAK256 DUP1 SLOAD SWAP1 POP SUB SWAP1 POP PUSH1 0x2 PUSH1 0x6 PUSH1 0x0 CALLER PUSH20 0xFFFFFFFFFFFFFFFFFFFFFFFFFFFFFFFFFFFFFFFF AND PUSH20 0xFFFFFFFFFFFFFFFFFFFFFFFFFFFFFFFFFFFFFFFF AND DUP2 MSTORE PUSH1 0x20 ADD SWAP1 DUP2 MSTORE PUSH1 0x20 ADD PUSH1 0x0 KECCAK256 DUP3 DUP2 SLOAD DUP2 LT PUSH2 0x1A8D JUMPI INVALID JUMPDEST SWAP1 PUSH1 0x0 MSTORE PUSH1 0x20 PUSH1 0x0 KECCAK256 SWAP1 PUSH1 0xC MUL ADD PUSH1 0x9 ADD PUSH1 0x0 PUSH1 0x1 DUP2 MSTORE PUSH1 0x20 ADD SWAP1 DUP2 MSTORE PUSH1 0x20 ADD PUSH1 0x0 KECCAK256 DUP2 SWAP1 SSTORE POP PUSH1 0x0 PUSH2 0x1B2B PUSH1 0x5 DUP6 DUP2 SLOAD DUP2 LT PUSH2 0x1AC6 JUMPI INVALID JUMPDEST SWAP1 PUSH1 0x0 MSTORE PUSH1 0x20 PUSH1 0x0 KECCAK256 SWAP1 PUSH1 0x8 MUL ADD PUSH1 0x3 ADD SLOAD PUSH2 0x1B1D PUSH2 0x3E8 PUSH2 0x1B0F PUSH1 0x5 DUP10 DUP2 SLOAD DUP2 LT PUSH2 0x1AEE JUMPI INVALID JUMPDEST SWAP1 PUSH1 0x0 MSTORE PUSH1 0x20 PUSH1 0x0 KECCAK256 SWAP1 PUSH1 0x8 MUL ADD PUSH1 0x5 ADD SLOAD DUP9 PUSH2 0x2BA5 SWAP1 SWAP2 SWAP1 PUSH4 0xFFFFFFFF AND JUMP JUMPDEST PUSH2 0x2C2B SWAP1 SWAP2 SWAP1 PUSH4 0xFFFFFFFF AND JUMP JUMPDEST PUSH2 0x2BA5 SWAP1 SWAP2 SWAP1 PUSH4 0xFFFFFFFF AND JUMP JUMPDEST SWAP1 POP PUSH2 0x1B42 DUP2 PUSH1 0x3 SLOAD PUSH2 0x2C75 SWAP1 SWAP2 SWAP1 PUSH4 0xFFFFFFFF AND JUMP JUMPDEST PUSH1 0x3 DUP2 SWAP1 SSTORE POP CALLER PUSH20 0xFFFFFFFFFFFFFFFFFFFFFFFFFFFFFFFFFFFFFFFF AND PUSH32 0x1DEC97FC36AA6DFA81B208EC37B3AC8DAE30717F0622F9CFB2E7223DC95326EC PUSH1 0x1 PUSH1 0x6 PUSH1 0x0 CALLER PUSH20 0xFFFFFFFFFFFFFFFFFFFFFFFFFFFFFFFFFFFFFFFF AND PUSH20 0xFFFFFFFFFFFFFFFFFFFFFFFFFFFFFFFFFFFFFFFF AND DUP2 MSTORE PUSH1 0x20 ADD SWAP1 DUP2 MSTORE PUSH1 0x20 ADD PUSH1 0x0 KECCAK256 DUP1 SLOAD SWAP1 POP SUB DUP6 PUSH1 0x40 MLOAD DUP1 DUP4 DUP2 MSTORE PUSH1 0x20 ADD DUP3 DUP2 MSTORE PUSH1 0x20 ADD SWAP3 POP POP POP PUSH1 0x40 MLOAD DUP1 SWAP2 SUB SWAP1 LOG2 DUP2 CALLER PUSH20 0xFFFFFFFFFFFFFFFFFFFFFFFFFFFFFFFFFFFFFFFF AND PUSH32 0xBAF4C88598102708C4215D5D3767268130627355850B7ECE9BDFDC32FD2941F0 PUSH1 0x1 DUP7 DUP6 CALLER PUSH1 0x40 MLOAD DUP1 DUP6 DUP2 MSTORE PUSH1 0x20 ADD DUP5 DUP2 MSTORE PUSH1 0x20 ADD DUP4 DUP2 MSTORE PUSH1 0x20 ADD DUP3 PUSH20 0xFFFFFFFFFFFFFFFFFFFFFFFFFFFFFFFFFFFFFFFF AND PUSH20 0xFFFFFFFFFFFFFFFFFFFFFFFFFFFFFFFFFFFFFFFF AND DUP2 MSTORE PUSH1 0x20 ADD SWAP5 POP POP POP POP POP PUSH1 0x40 MLOAD DUP1 SWAP2 SUB SWAP1 LOG3 POP POP POP POP JUMP JUMPDEST PUSH1 0x0 TIMESTAMP SWAP1 POP SWAP1 JUMP JUMPDEST DUP4 DUP4 PUSH1 0x0 PUSH1 0x6 PUSH1 0x0 DUP5 PUSH20 0xFFFFFFFFFFFFFFFFFFFFFFFFFFFFFFFFFFFFFFFF AND PUSH20 0xFFFFFFFFFFFFFFFFFFFFFFFFFFFFFFFFFFFFFFFF AND DUP2 MSTORE PUSH1 0x20 ADD SWAP1 DUP2 MSTORE PUSH1 0x20 ADD PUSH1 0x0 KECCAK256 DUP3 DUP2 SLOAD DUP2 LT PUSH2 0x1CD3 JUMPI INVALID JUMPDEST SWAP1 PUSH1 0x0 MSTORE PUSH1 0x20 PUSH1 0x0 KECCAK256 SWAP1 PUSH1 0xC MUL ADD SWAP1 POP DUP3 PUSH20 0xFFFFFFFFFFFFFFFFFFFFFFFFFFFFFFFFFFFFFFFF AND CALLER PUSH20 0xFFFFFFFFFFFFFFFFFFFFFFFFFFFFFFFFFFFFFFFF AND EQ PUSH2 0x1DD8 JUMPI DUP1 PUSH1 0xA ADD PUSH1 0x0 CALLER PUSH20 0xFFFFFFFFFFFFFFFFFFFFFFFFFFFFFFFFFFFFFFFF AND PUSH20 0xFFFFFFFFFFFFFFFFFFFFFFFFFFFFFFFFFFFFFFFF AND DUP2 MSTORE PUSH1 0x20 ADD SWAP1 DUP2 MSTORE PUSH1 0x20 ADD PUSH1 0x0 KECCAK256 PUSH1 0x0 SWAP1 SLOAD SWAP1 PUSH2 0x100 EXP SWAP1 DIV PUSH1 0xFF AND PUSH2 0x1DD7 JUMPI PUSH1 0x40 MLOAD PUSH32 0x8C379A000000000000000000000000000000000000000000000000000000000 DUP2 MSTORE PUSH1 0x4 ADD DUP1 DUP1 PUSH1 0x20 ADD DUP3 DUP2 SUB DUP3 MSTORE PUSH1 0x1A DUP2 MSTORE PUSH1 0x20 ADD DUP1 PUSH32 0x6E6F6D696E6174696F6E2073686F756C64206265207468657265000000000000 DUP2 MSTORE POP PUSH1 0x20 ADD SWAP2 POP POP PUSH1 0x40 MLOAD DUP1 SWAP2 SUB SWAP1 REVERT JUMPDEST JUMPDEST PUSH1 0x0 PUSH1 0x6 PUSH1 0x0 DUP10 PUSH20 0xFFFFFFFFFFFFFFFFFFFFFFFFFFFFFFFFFFFFFFFF AND PUSH20 0xFFFFFFFFFFFFFFFFFFFFFFFFFFFFFFFFFFFFFFFF AND DUP2 MSTORE PUSH1 0x20 ADD SWAP1 DUP2 MSTORE PUSH1 0x20 ADD PUSH1 0x0 KECCAK256 DUP8 DUP2 SLOAD DUP2 LT PUSH2 0x1E24 JUMPI INVALID JUMPDEST SWAP1 PUSH1 0x0 MSTORE PUSH1 0x20 PUSH1 0x0 KECCAK256 SWAP1 PUSH1 0xC MUL ADD SWAP1 POP DUP1 PUSH1 0x3 ADD SLOAD DUP7 LT ISZERO PUSH2 0x1E91 JUMPI PUSH1 0x40 MLOAD PUSH32 0x8C379A000000000000000000000000000000000000000000000000000000000 DUP2 MSTORE PUSH1 0x4 ADD DUP1 DUP1 PUSH1 0x20 ADD DUP3 DUP2 SUB DUP3 MSTORE PUSH1 0x26 DUP2 MSTORE PUSH1 0x20 ADD DUP1 PUSH2 0x2EC6 PUSH1 0x26 SWAP2 CODECOPY PUSH1 0x40 ADD SWAP2 POP POP PUSH1 0x40 MLOAD DUP1 SWAP2 SUB SWAP1 REVERT JUMPDEST PUSH1 0x0 DUP2 PUSH1 0x9 ADD PUSH1 0x0 DUP8 DUP2 MSTORE PUSH1 0x20 ADD SWAP1 DUP2 MSTORE PUSH1 0x20 ADD PUSH1 0x0 KECCAK256 SLOAD EQ PUSH2 0x1F1C JUMPI PUSH1 0x40 MLOAD PUSH32 0x8C379A000000000000000000000000000000000000000000000000000000000 DUP2 MSTORE PUSH1 0x4 ADD DUP1 DUP1 PUSH1 0x20 ADD DUP3 DUP2 SUB DUP3 MSTORE PUSH1 0x14 DUP2 MSTORE PUSH1 0x20 ADD DUP1 PUSH32 0x63616E6E6F74206465706F73697420616761696E000000000000000000000000 DUP2 MSTORE POP PUSH1 0x20 ADD SWAP2 POP POP PUSH1 0x40 MLOAD DUP1 SWAP2 SUB SWAP1 REVERT JUMPDEST PUSH1 0x1 PUSH1 0x0 SWAP1 SLOAD SWAP1 PUSH2 0x100 EXP SWAP1 DIV PUSH20 0xFFFFFFFFFFFFFFFFFFFFFFFFFFFFFFFFFFFFFFFF AND PUSH20 0xFFFFFFFFFFFFFFFFFFFFFFFFFFFFFFFFFFFFFFFF AND PUSH4 0x23B872DD CALLER ADDRESS DUP10 PUSH1 0x40 MLOAD DUP5 PUSH4 0xFFFFFFFF AND PUSH1 0xE0 SHL DUP2 MSTORE PUSH1 0x4 ADD DUP1 DUP5 PUSH20 0xFFFFFFFFFFFFFFFFFFFFFFFFFFFFFFFFFFFFFFFF AND PUSH20 0xFFFFFFFFFFFFFFFFFFFFFFFFFFFFFFFFFFFFFFFF AND DUP2 MSTORE PUSH1 0x20 ADD DUP4 PUSH20 0xFFFFFFFFFFFFFFFFFFFFFFFFFFFFFFFFFFFFFFFF AND PUSH20 0xFFFFFFFFFFFFFFFFFFFFFFFFFFFFFFFFFFFFFFFF AND DUP2 MSTORE PUSH1 0x20 ADD DUP3 DUP2 MSTORE PUSH1 0x20 ADD SWAP4 POP POP POP POP PUSH1 0x20 PUSH1 0x40 MLOAD DUP1 DUP4 SUB DUP2 PUSH1 0x0 DUP8 DUP1 EXTCODESIZE ISZERO DUP1 ISZERO PUSH2 0x1FF9 JUMPI PUSH1 0x0 DUP1 REVERT JUMPDEST POP GAS CALL ISZERO DUP1 ISZERO PUSH2 0x200D JUMPI RETURNDATASIZE PUSH1 0x0 DUP1 RETURNDATACOPY RETURNDATASIZE PUSH1 0x0 REVERT JUMPDEST POP POP POP POP PUSH1 0x40 MLOAD RETURNDATASIZE PUSH1 0x20 DUP2 LT ISZERO PUSH2 0x2023 JUMPI PUSH1 0x0 DUP1 REVERT JUMPDEST DUP2 ADD SWAP1 DUP1 DUP1 MLOAD SWAP1 PUSH1 0x20 ADD SWAP1 SWAP3 SWAP2 SWAP1 POP POP POP PUSH2 0x203D JUMPI PUSH1 0x0 DUP1 REVERT JUMPDEST PUSH1 0x0 PUSH2 0x204A DUP10 DUP10 DUP9 PUSH2 0x223E JUMP JUMPDEST SWAP1 POP PUSH1 0x0 DUP2 GT PUSH2 0x20A5 JUMPI PUSH1 0x40 MLOAD PUSH32 0x8C379A000000000000000000000000000000000000000000000000000000000 DUP2 MSTORE PUSH1 0x4 ADD DUP1 DUP1 PUSH1 0x20 ADD DUP3 DUP2 SUB DUP3 MSTORE PUSH1 0x21 DUP2 MSTORE PUSH1 0x20 ADD DUP1 PUSH2 0x2E84 PUSH1 0x21 SWAP2 CODECOPY PUSH1 0x40 ADD SWAP2 POP POP PUSH1 0x40 MLOAD DUP1 SWAP2 SUB SWAP1 REVERT JUMPDEST DUP1 DUP3 PUSH1 0x9 ADD PUSH1 0x0 DUP9 DUP2 MSTORE PUSH1 0x20 ADD SWAP1 DUP2 MSTORE PUSH1 0x20 ADD PUSH1 0x0 KECCAK256 DUP2 SWAP1 SSTORE POP PUSH2 0x20D6 DUP8 DUP4 PUSH1 0x4 ADD SLOAD PUSH2 0x2C75 SWAP1 SWAP2 SWAP1 PUSH4 0xFFFFFFFF AND JUMP JUMPDEST DUP3 PUSH1 0x4 ADD DUP2 SWAP1 SSTORE POP PUSH1 0x0 PUSH2 0x215D PUSH1 0x5 DUP5 PUSH1 0x0 ADD SLOAD DUP2 SLOAD DUP2 LT PUSH2 0x20F4 JUMPI INVALID JUMPDEST SWAP1 PUSH1 0x0 MSTORE PUSH1 0x20 PUSH1 0x0 KECCAK256 SWAP1 PUSH1 0x8 MUL ADD PUSH1 0x3 ADD SLOAD PUSH2 0x214F PUSH2 0x3E8 PUSH2 0x2141 PUSH1 0x5 DUP9 PUSH1 0x0 ADD SLOAD DUP2 SLOAD DUP2 LT PUSH2 0x2120 JUMPI INVALID JUMPDEST SWAP1 PUSH1 0x0 MSTORE PUSH1 0x20 PUSH1 0x0 KECCAK256 SWAP1 PUSH1 0x8 MUL ADD PUSH1 0x5 ADD SLOAD DUP14 PUSH2 0x2BA5 SWAP1 SWAP2 SWAP1 PUSH4 0xFFFFFFFF AND JUMP JUMPDEST PUSH2 0x2C2B SWAP1 SWAP2 SWAP1 PUSH4 0xFFFFFFFF AND JUMP JUMPDEST PUSH2 0x2BA5 SWAP1 SWAP2 SWAP1 PUSH4 0xFFFFFFFF AND JUMP JUMPDEST SWAP1 POP PUSH2 0x2174 DUP2 PUSH1 0x3 SLOAD PUSH2 0x2C75 SWAP1 SWAP2 SWAP1 PUSH4 0xFFFFFFFF AND JUMP JUMPDEST PUSH1 0x3 DUP2 SWAP1 SSTORE POP DUP9 DUP11 PUSH20 0xFFFFFFFFFFFFFFFFFFFFFFFFFFFFFFFFFFFFFFFF AND PUSH32 0xBAF4C88598102708C4215D5D3767268130627355850B7ECE9BDFDC32FD2941F0 DUP10 DUP12 DUP6 CALLER PUSH1 0x40 MLOAD DUP1 DUP6 DUP2 MSTORE PUSH1 0x20 ADD DUP5 DUP2 MSTORE PUSH1 0x20 ADD DUP4 DUP2 MSTORE PUSH1 0x20 ADD DUP3 PUSH20 0xFFFFFFFFFFFFFFFFFFFFFFFFFFFFFFFFFFFFFFFF AND PUSH20 0xFFFFFFFFFFFFFFFFFFFFFFFFFFFFFFFFFFFFFFFF AND DUP2 MSTORE PUSH1 0x20 ADD SWAP5 POP POP POP POP POP PUSH1 0x40 MLOAD DUP1 SWAP2 SUB SWAP1 LOG3 POP POP POP POP POP POP POP POP POP POP JUMP JUMPDEST PUSH1 0x0 DUP1 SWAP1 SLOAD SWAP1 PUSH2 0x100 EXP SWAP1 DIV PUSH20 0xFFFFFFFFFFFFFFFFFFFFFFFFFFFFFFFFFFFFFFFF AND DUP2 JUMP JUMPDEST PUSH1 0x0 DUP1 PUSH1 0x6 PUSH1 0x0 DUP7 PUSH20 0xFFFFFFFFFFFFFFFFFFFFFFFFFFFFFFFFFFFFFFFF AND PUSH20 0xFFFFFFFFFFFFFFFFFFFFFFFFFFFFFFFFFFFFFFFF AND DUP2 MSTORE PUSH1 0x20 ADD SWAP1 DUP2 MSTORE PUSH1 0x20 ADD PUSH1 0x0 KECCAK256 DUP5 DUP2 SLOAD DUP2 LT PUSH2 0x228B JUMPI INVALID JUMPDEST SWAP1 PUSH1 0x0 MSTORE PUSH1 0x20 PUSH1 0x0 KECCAK256 SWAP1 PUSH1 0xC MUL ADD SWAP1 POP PUSH1 0x1 DUP4 LT ISZERO DUP1 ISZERO PUSH2 0x22CE JUMPI POP PUSH1 0x5 DUP2 PUSH1 0x0 ADD SLOAD DUP2 SLOAD DUP2 LT PUSH2 0x22B8 JUMPI INVALID JUMPDEST SWAP1 PUSH1 0x0 MSTORE PUSH1 0x20 PUSH1 0x0 KECCAK256 SWAP1 PUSH1 0x8 MUL ADD PUSH1 0x2 ADD SLOAD DUP4 GT ISZERO JUMPDEST PUSH2 0x2340 JUMPI PUSH1 0x40 MLOAD PUSH32 0x8C379A000000000000000000000000000000000000000000000000000000000 DUP2 MSTORE PUSH1 0x4 ADD DUP1 DUP1 PUSH1 0x20 ADD DUP3 DUP2 SUB DUP3 MSTORE PUSH1 0x15 DUP2 MSTORE PUSH1 0x20 ADD DUP1 PUSH32 0x696E76616C6964206465706F736974206D6F6E74680000000000000000000000 DUP2 MSTORE POP PUSH1 0x20 ADD SWAP2 POP POP PUSH1 0x40 MLOAD DUP1 SWAP2 SUB SWAP1 REVERT JUMPDEST PUSH1 0x0 DUP4 PUSH1 0x2 SLOAD MUL DUP3 PUSH1 0x2 ADD SLOAD ADD SWAP1 POP TIMESTAMP DUP2 LT ISZERO DUP1 ISZERO PUSH2 0x2363 JUMPI POP PUSH1 0x2 SLOAD DUP2 SUB TIMESTAMP LT ISZERO JUMPDEST ISZERO PUSH2 0x2373 JUMPI PUSH1 0x2 SWAP3 POP POP POP PUSH2 0x23B0 JUMP JUMPDEST TIMESTAMP PUSH1 0x5 DUP4 PUSH1 0x0 ADD SLOAD DUP2 SLOAD DUP2 LT PUSH2 0x2385 JUMPI INVALID JUMPDEST SWAP1 PUSH1 0x0 MSTORE PUSH1 0x20 PUSH1 0x0 KECCAK256 SWAP1 PUSH1 0x8 MUL ADD PUSH1 0x4 ADD SLOAD DUP3 ADD LT PUSH2 0x23A9 JUMPI PUSH1 0x1 SWAP3 POP POP POP PUSH2 0x23B0 JUMP JUMPDEST PUSH1 0x0 SWAP3 POP POP POP JUMPDEST SWAP4 SWAP3 POP POP POP JUMP JUMPDEST PUSH1 0x0 DUP1 PUSH1 0x6 PUSH1 0x0 DUP7 PUSH20 0xFFFFFFFFFFFFFFFFFFFFFFFFFFFFFFFFFFFFFFFF AND PUSH20 0xFFFFFFFFFFFFFFFFFFFFFFFFFFFFFFFFFFFFFFFF AND DUP2 MSTORE PUSH1 0x20 ADD SWAP1 DUP2 MSTORE PUSH1 0x20 ADD PUSH1 0x0 KECCAK256 DUP5 DUP2 SLOAD DUP2 LT PUSH2 0x2404 JUMPI INVALID JUMPDEST SWAP1 PUSH1 0x0 MSTORE PUSH1 0x20 PUSH1 0x0 KECCAK256 SWAP1 PUSH1 0xC MUL ADD SWAP1 POP PUSH1 0x0 PUSH2 0x2462 PUSH1 0x3 PUSH2 0x2454 PUSH1 0x5 DUP6 PUSH1 0x0 ADD SLOAD DUP2 SLOAD DUP2 LT PUSH2 0x242F JUMPI INVALID JUMPDEST SWAP1 PUSH1 0x0 MSTORE PUSH1 0x20 PUSH1 0x0 KECCAK256 SWAP1 PUSH1 0x8 MUL ADD PUSH1 0x2 ADD SLOAD DUP6 PUSH1 0x3 ADD SLOAD PUSH2 0x2BA5 SWAP1 SWAP2 SWAP1 PUSH4 0xFFFFFFFF AND JUMP JUMPDEST PUSH2 0x2C2B SWAP1 SWAP2 SWAP1 PUSH4 0xFFFFFFFF AND JUMP JUMPDEST SWAP1 POP PUSH1 0x1 DUP5 EQ ISZERO PUSH2 0x257C JUMPI PUSH1 0x0 DUP1 PUSH1 0x1 SWAP1 POP JUMPDEST PUSH1 0x5 DUP5 PUSH1 0x0 ADD SLOAD DUP2 SLOAD DUP2 LT PUSH2 0x2486 JUMPI INVALID JUMPDEST SWAP1 PUSH1 0x0 MSTORE PUSH1 0x20 PUSH1 0x0 KECCAK256 SWAP1 PUSH1 0x8 MUL ADD PUSH1 0x2 ADD SLOAD DUP2 GT PUSH2 0x253C JUMPI PUSH1 0x0 DUP5 PUSH1 0x9 ADD PUSH1 0x0 DUP4 DUP2 MSTORE PUSH1 0x20 ADD SWAP1 DUP2 MSTORE PUSH1 0x20 ADD PUSH1 0x0 KECCAK256 SLOAD EQ ISZERO PUSH2 0x24E8 JUMPI PUSH1 0x5 DUP5 PUSH1 0x0 ADD SLOAD DUP2 SLOAD DUP2 LT PUSH2 0x24CD JUMPI INVALID JUMPDEST SWAP1 PUSH1 0x0 MSTORE PUSH1 0x20 PUSH1 0x0 KECCAK256 SWAP1 PUSH1 0x8 MUL ADD PUSH1 0x7 ADD SLOAD DUP3 ADD SWAP2 POP PUSH2 0x252F JUMP JUMPDEST PUSH1 0x1 DUP5 PUSH1 0x9 ADD PUSH1 0x0 DUP4 DUP2 MSTORE PUSH1 0x20 ADD SWAP1 DUP2 MSTORE PUSH1 0x20 ADD PUSH1 0x0 KECCAK256 SLOAD EQ ISZERO PUSH2 0x252E JUMPI PUSH1 0x5 DUP5 PUSH1 0x0 ADD SLOAD DUP2 SLOAD DUP2 LT PUSH2 0x2517 JUMPI INVALID JUMPDEST SWAP1 PUSH1 0x0 MSTORE PUSH1 0x20 PUSH1 0x0 KECCAK256 SWAP1 PUSH1 0x8 MUL ADD PUSH1 0x6 ADD SLOAD DUP3 ADD SWAP2 POP JUMPDEST JUMPDEST DUP1 DUP1 PUSH1 0x1 ADD SWAP2 POP POP PUSH2 0x2475 JUMP JUMPDEST POP PUSH2 0x2578 PUSH2 0x3E8 PUSH2 0x256A PUSH2 0x255B DUP5 PUSH2 0x3E8 PUSH2 0x2B5B SWAP1 SWAP2 SWAP1 PUSH4 0xFFFFFFFF AND JUMP JUMPDEST DUP6 PUSH2 0x2BA5 SWAP1 SWAP2 SWAP1 PUSH4 0xFFFFFFFF AND JUMP JUMPDEST PUSH2 0x2C2B SWAP1 SWAP2 SWAP1 PUSH4 0xFFFFFFFF AND JUMP JUMPDEST SWAP2 POP POP JUMPDEST DUP1 SWAP3 POP POP POP SWAP4 SWAP3 POP POP POP JUMP JUMPDEST PUSH1 0x0 DUP1 PUSH1 0x6 PUSH1 0x0 DUP8 PUSH20 0xFFFFFFFFFFFFFFFFFFFFFFFFFFFFFFFFFFFFFFFF AND PUSH20 0xFFFFFFFFFFFFFFFFFFFFFFFFFFFFFFFFFFFFFFFF AND DUP2 MSTORE PUSH1 0x20 ADD SWAP1 DUP2 MSTORE PUSH1 0x20 ADD PUSH1 0x0 KECCAK256 DUP6 DUP2 SLOAD DUP2 LT PUSH2 0x25D5 JUMPI INVALID JUMPDEST SWAP1 PUSH1 0x0 MSTORE PUSH1 0x20 PUSH1 0x0 KECCAK256 SWAP1 PUSH1 0xC MUL ADD SWAP1 POP PUSH1 0x0 PUSH1 0x1 DUP6 PUSH1 0x5 DUP5 PUSH1 0x0 ADD SLOAD DUP2 SLOAD DUP2 LT PUSH2 0x25FB JUMPI INVALID JUMPDEST SWAP1 PUSH1 0x0 MSTORE PUSH1 0x20 PUSH1 0x0 KECCAK256 SWAP1 PUSH1 0x8 MUL ADD PUSH1 0x2 ADD SLOAD ADD SUB PUSH1 0x2 SLOAD MUL DUP3 PUSH1 0x2 ADD SLOAD ADD SWAP1 POP DUP4 ISZERO PUSH2 0x262C JUMPI PUSH1 0xC PUSH1 0x2 SLOAD MUL DUP2 ADD SWAP1 POP JUMPDEST DUP2 PUSH1 0x5 ADD SLOAD DUP6 GT PUSH2 0x26A5 JUMPI PUSH1 0x40 MLOAD PUSH32 0x8C379A000000000000000000000000000000000000000000000000000000000 DUP2 MSTORE PUSH1 0x4 ADD DUP1 DUP1 PUSH1 0x20 ADD DUP3 DUP2 SUB DUP3 MSTORE PUSH1 0x15 DUP2 MSTORE PUSH1 0x20 ADD DUP1 PUSH32 0x63616E6E6F7420776974686472617720616761696E0000000000000000000000 DUP2 MSTORE POP PUSH1 0x20 ADD SWAP2 POP POP PUSH1 0x40 MLOAD DUP1 SWAP2 SUB SWAP1 REVERT JUMPDEST PUSH1 0xC PUSH1 0x5 DUP4 PUSH1 0x0 ADD SLOAD DUP2 SLOAD DUP2 LT PUSH2 0x26B8 JUMPI INVALID JUMPDEST SWAP1 PUSH1 0x0 MSTORE PUSH1 0x20 PUSH1 0x0 KECCAK256 SWAP1 PUSH1 0x8 MUL ADD PUSH1 0x3 ADD SLOAD MUL DUP6 GT ISZERO PUSH2 0x2740 JUMPI PUSH1 0x40 MLOAD PUSH32 0x8C379A000000000000000000000000000000000000000000000000000000000 DUP2 MSTORE PUSH1 0x4 ADD DUP1 DUP1 PUSH1 0x20 ADD DUP3 DUP2 SUB DUP3 MSTORE PUSH1 0x17 DUP2 MSTORE PUSH1 0x20 ADD DUP1 PUSH32 0x7769746864726177206D6F6E7468206578636565646564000000000000000000 DUP2 MSTORE POP PUSH1 0x20 ADD SWAP2 POP POP PUSH1 0x40 MLOAD DUP1 SWAP2 SUB SWAP1 REVERT JUMPDEST DUP1 TIMESTAMP LT ISZERO PUSH2 0x27B6 JUMPI PUSH1 0x40 MLOAD PUSH32 0x8C379A000000000000000000000000000000000000000000000000000000000 DUP2 MSTORE PUSH1 0x4 ADD DUP1 DUP1 PUSH1 0x20 ADD DUP3 DUP2 SUB DUP3 MSTORE PUSH1 0x15 DUP2 MSTORE PUSH1 0x20 ADD DUP1 PUSH32 0x63616E6E6F74207769746864726177206561726C790000000000000000000000 DUP2 MSTORE POP PUSH1 0x20 ADD SWAP2 POP POP PUSH1 0x40 MLOAD DUP1 SWAP2 SUB SWAP1 REVERT JUMPDEST PUSH1 0x0 PUSH2 0x27F1 PUSH1 0x5 DUP5 PUSH1 0x0 ADD SLOAD DUP2 SLOAD DUP2 LT PUSH2 0x27CC JUMPI INVALID JUMPDEST SWAP1 PUSH1 0x0 MSTORE PUSH1 0x20 PUSH1 0x0 KECCAK256 SWAP1 PUSH1 0x8 MUL ADD PUSH1 0x2 ADD SLOAD DUP5 PUSH1 0x4 ADD SLOAD PUSH2 0x2C2B SWAP1 SWAP2 SWAP1 PUSH4 0xFFFFFFFF AND JUMP JUMPDEST SWAP1 POP PUSH1 0x0 PUSH2 0x283E PUSH2 0x3E8 PUSH2 0x2830 PUSH1 0x5 DUP8 PUSH1 0x0 ADD SLOAD DUP2 SLOAD DUP2 LT PUSH2 0x280F JUMPI INVALID JUMPDEST SWAP1 PUSH1 0x0 MSTORE PUSH1 0x20 PUSH1 0x0 KECCAK256 SWAP1 PUSH1 0x8 MUL ADD PUSH1 0x5 ADD SLOAD DUP6 PUSH2 0x2BA5 SWAP1 SWAP2 SWAP1 PUSH4 0xFFFFFFFF AND JUMP JUMPDEST PUSH2 0x2C2B SWAP1 SWAP2 SWAP1 PUSH4 0xFFFFFFFF AND JUMP JUMPDEST SWAP1 POP PUSH1 0x0 PUSH2 0x286B PUSH2 0x285C DUP7 PUSH1 0x5 ADD SLOAD DUP11 PUSH2 0x2B5B SWAP1 SWAP2 SWAP1 PUSH4 0xFFFFFFFF AND JUMP JUMPDEST DUP4 PUSH2 0x2BA5 SWAP1 SWAP2 SWAP1 PUSH4 0xFFFFFFFF AND JUMP JUMPDEST SWAP1 POP DUP1 SWAP6 POP POP POP POP POP POP SWAP5 SWAP4 POP POP POP POP JUMP JUMPDEST PUSH1 0x1 PUSH1 0x0 SWAP1 SLOAD SWAP1 PUSH2 0x100 EXP SWAP1 DIV PUSH20 0xFFFFFFFFFFFFFFFFFFFFFFFFFFFFFFFFFFFFFFFF AND PUSH20 0xFFFFFFFFFFFFFFFFFFFFFFFFFFFFFFFFFFFFFFFF AND PUSH4 0x23B872DD CALLER ADDRESS DUP5 PUSH1 0x40 MLOAD DUP5 PUSH4 0xFFFFFFFF AND PUSH1 0xE0 SHL DUP2 MSTORE PUSH1 0x4 ADD DUP1 DUP5 PUSH20 0xFFFFFFFFFFFFFFFFFFFFFFFFFFFFFFFFFFFFFFFF AND PUSH20 0xFFFFFFFFFFFFFFFFFFFFFFFFFFFFFFFFFFFFFFFF AND DUP2 MSTORE PUSH1 0x20 ADD DUP4 PUSH20 0xFFFFFFFFFFFFFFFFFFFFFFFFFFFFFFFFFFFFFFFF AND PUSH20 0xFFFFFFFFFFFFFFFFFFFFFFFFFFFFFFFFFFFFFFFF AND DUP2 MSTORE PUSH1 0x20 ADD DUP3 DUP2 MSTORE PUSH1 0x20 ADD SWAP4 POP POP POP POP PUSH1 0x20 PUSH1 0x40 MLOAD DUP1 DUP4 SUB DUP2 PUSH1 0x0 DUP8 DUP1 EXTCODESIZE ISZERO DUP1 ISZERO PUSH2 0x295A JUMPI PUSH1 0x0 DUP1 REVERT JUMPDEST POP GAS CALL ISZERO DUP1 ISZERO PUSH2 0x296E JUMPI RETURNDATASIZE PUSH1 0x0 DUP1 RETURNDATACOPY RETURNDATASIZE PUSH1 0x0 REVERT JUMPDEST POP POP POP POP PUSH1 0x40 MLOAD RETURNDATASIZE PUSH1 0x20 DUP2 LT ISZERO PUSH2 0x2984 JUMPI PUSH1 0x0 DUP1 REVERT JUMPDEST DUP2 ADD SWAP1 DUP1 DUP1 MLOAD SWAP1 PUSH1 0x20 ADD SWAP1 SWAP3 SWAP2 SWAP1 POP POP POP PUSH2 0x299E JUMPI PUSH1 0x0 DUP1 REVERT JUMPDEST PUSH2 0x29B3 DUP2 PUSH1 0x4 SLOAD PUSH2 0x2C75 SWAP1 SWAP2 SWAP1 PUSH4 0xFFFFFFFF AND JUMP JUMPDEST PUSH1 0x4 DUP2 SWAP1 SSTORE POP PUSH32 0x7CB5D45C1071F219BD2DA1EA101758715BD52F23F2A707F2D9A0387DEA18D906 DUP2 PUSH1 0x40 MLOAD DUP1 DUP3 DUP2 MSTORE PUSH1 0x20 ADD SWAP2 POP POP PUSH1 0x40 MLOAD DUP1 SWAP2 SUB SWAP1 LOG1 POP JUMP JUMPDEST PUSH1 0x5 DUP2 DUP2 SLOAD DUP2 LT PUSH2 0x2A00 JUMPI INVALID JUMPDEST SWAP1 PUSH1 0x0 MSTORE PUSH1 0x20 PUSH1 0x0 KECCAK256 SWAP1 PUSH1 0x8 MUL ADD PUSH1 0x0 SWAP2 POP SWAP1 POP DUP1 PUSH1 0x0 ADD PUSH1 0x0 SWAP1 SLOAD SWAP1 PUSH2 0x100 EXP SWAP1 DIV PUSH1 0xFF AND SWAP1 DUP1 PUSH1 0x1 ADD SLOAD SWAP1 DUP1 PUSH1 0x2 ADD SLOAD SWAP1 DUP1 PUSH1 0x3 ADD SLOAD SWAP1 DUP1 PUSH1 0x4 ADD SLOAD SWAP1 DUP1 PUSH1 0x5 ADD SLOAD SWAP1 DUP1 PUSH1 0x6 ADD SLOAD SWAP1 DUP1 PUSH1 0x7 ADD SLOAD SWAP1 POP DUP9 JUMP JUMPDEST PUSH1 0x0 PUSH1 0x6 PUSH1 0x0 DUP6 PUSH20 0xFFFFFFFFFFFFFFFFFFFFFFFFFFFFFFFFFFFFFFFF AND PUSH20 0xFFFFFFFFFFFFFFFFFFFFFFFFFFFFFFFFFFFFFFFF AND DUP2 MSTORE PUSH1 0x20 ADD SWAP1 DUP2 MSTORE PUSH1 0x20 ADD PUSH1 0x0 KECCAK256 DUP4 DUP2 SLOAD DUP2 LT PUSH2 0x2AA1 JUMPI INVALID JUMPDEST SWAP1 PUSH1 0x0 MSTORE PUSH1 0x20 PUSH1 0x0 KECCAK256 SWAP1 PUSH1 0xC MUL ADD PUSH1 0x9 ADD PUSH1 0x0 DUP4 DUP2 MSTORE PUSH1 0x20 ADD SWAP1 DUP2 MSTORE PUSH1 0x20 ADD PUSH1 0x0 KECCAK256 SLOAD SWAP1 POP SWAP4 SWAP3 POP POP POP JUMP JUMPDEST PUSH1 0x6 PUSH1 0x20 MSTORE DUP2 PUSH1 0x0 MSTORE PUSH1 0x40 PUSH1 0x0 KECCAK256 DUP2 DUP2 SLOAD DUP2 LT PUSH2 0x2AE6 JUMPI INVALID JUMPDEST SWAP1 PUSH1 0x0 MSTORE PUSH1 0x20 PUSH1 0x0 KECCAK256 SWAP1 PUSH1 0xC MUL ADD PUSH1 0x0 SWAP2 POP SWAP2 POP POP DUP1 PUSH1 0x0 ADD SLOAD SWAP1 DUP1 PUSH1 0x1 ADD SLOAD SWAP1 DUP1 PUSH1 0x2 ADD SLOAD SWAP1 DUP1 PUSH1 0x3 ADD SLOAD SWAP1 DUP1 PUSH1 0x4 ADD SLOAD SWAP1 DUP1 PUSH1 0x5 ADD SLOAD SWAP1 DUP1 PUSH1 0x6 ADD SLOAD SWAP1 DUP1 PUSH1 0x7 ADD SLOAD SWAP1 DUP1 PUSH1 0x8 ADD SLOAD SWAP1 POP DUP10 JUMP JUMPDEST PUSH1 0x1 PUSH1 0x0 SWAP1 SLOAD SWAP1 PUSH2 0x100 EXP SWAP1 DIV PUSH20 0xFFFFFFFFFFFFFFFFFFFFFFFFFFFFFFFFFFFFFFFF AND DUP2 JUMP JUMPDEST PUSH1 0x0 PUSH2 0x2B9D DUP4 DUP4 PUSH1 0x40 MLOAD DUP1 PUSH1 0x40 ADD PUSH1 0x40 MSTORE DUP1 PUSH1 0x1E DUP2 MSTORE PUSH1 0x20 ADD PUSH32 0x536166654D6174683A207375627472616374696F6E206F766572666C6F770000 DUP2 MSTORE POP PUSH2 0x2CFD JUMP JUMPDEST SWAP1 POP SWAP3 SWAP2 POP POP JUMP JUMPDEST PUSH1 0x0 DUP1 DUP4 EQ ISZERO PUSH2 0x2BB8 JUMPI PUSH1 0x0 SWAP1 POP PUSH2 0x2C25 JUMP JUMPDEST PUSH1 0x0 DUP3 DUP5 MUL SWAP1 POP DUP3 DUP5 DUP3 DUP2 PUSH2 0x2BC9 JUMPI INVALID JUMPDEST DIV EQ PUSH2 0x2C20 JUMPI PUSH1 0x40 MLOAD PUSH32 0x8C379A000000000000000000000000000000000000000000000000000000000 DUP2 MSTORE PUSH1 0x4 ADD DUP1 DUP1 PUSH1 0x20 ADD DUP3 DUP2 SUB DUP3 MSTORE PUSH1 0x21 DUP2 MSTORE PUSH1 0x20 ADD DUP1 PUSH2 0x2EA5 PUSH1 0x21 SWAP2 CODECOPY PUSH1 0x40 ADD SWAP2 POP POP PUSH1 0x40 MLOAD DUP1 SWAP2 SUB SWAP1 REVERT JUMPDEST DUP1 SWAP2 POP POP JUMPDEST SWAP3 SWAP2 POP POP JUMP JUMPDEST PUSH1 0x0 PUSH2 0x2C6D DUP4 DUP4 PUSH1 0x40 MLOAD DUP1 PUSH1 0x40 ADD PUSH1 0x40 MSTORE DUP1 PUSH1 0x1A DUP2 MSTORE PUSH1 0x20 ADD PUSH32 0x536166654D6174683A206469766973696F6E206279207A65726F000000000000 DUP2 MSTORE POP PUSH2 0x2DBD JUMP JUMPDEST SWAP1 POP SWAP3 SWAP2 POP POP JUMP JUMPDEST PUSH1 0x0 DUP1 DUP3 DUP5 ADD SWAP1 POP DUP4 DUP2 LT ISZERO PUSH2 0x2CF3 JUMPI PUSH1 0x40 MLOAD PUSH32 0x8C379A000000000000000000000000000000000000000000000000000000000 DUP2 MSTORE PUSH1 0x4 ADD DUP1 DUP1 PUSH1 0x20 ADD DUP3 DUP2 SUB DUP3 MSTORE PUSH1 0x1B DUP2 MSTORE PUSH1 0x20 ADD DUP1 PUSH32 0x536166654D6174683A206164646974696F6E206F766572666C6F770000000000 DUP2 MSTORE POP PUSH1 0x20 ADD SWAP2 POP POP PUSH1 0x40 MLOAD DUP1 SWAP2 SUB SWAP1 REVERT JUMPDEST DUP1 SWAP2 POP POP SWAP3 SWAP2 POP POP JUMP JUMPDEST PUSH1 0x0 DUP4 DUP4 GT ISZERO DUP3 SWAP1 PUSH2 0x2DAA JUMPI PUSH1 0x40 MLOAD PUSH32 0x8C379A000000000000000000000000000000000000000000000000000000000 DUP2 MSTORE PUSH1 0x4 ADD DUP1 DUP1 PUSH1 0x20 ADD DUP3 DUP2 SUB DUP3 MSTORE DUP4 DUP2 DUP2 MLOAD DUP2 MSTORE PUSH1 0x20 ADD SWAP2 POP DUP1 MLOAD SWAP1 PUSH1 0x20 ADD SWAP1 DUP1 DUP4 DUP4 PUSH1 0x0 JUMPDEST DUP4 DUP2 LT ISZERO PUSH2 0x2D6F JUMPI DUP1 DUP3 ADD MLOAD DUP2 DUP5 ADD MSTORE PUSH1 0x20 DUP2 ADD SWAP1 POP PUSH2 0x2D54 JUMP JUMPDEST POP POP POP POP SWAP1 POP SWAP1 DUP2 ADD SWAP1 PUSH1 0x1F AND DUP1 ISZERO PUSH2 0x2D9C JUMPI DUP1 DUP3 SUB DUP1 MLOAD PUSH1 0x1 DUP4 PUSH1 0x20 SUB PUSH2 0x100 EXP SUB NOT AND DUP2 MSTORE PUSH1 0x20 ADD SWAP2 POP JUMPDEST POP SWAP3 POP POP POP PUSH1 0x40 MLOAD DUP1 SWAP2 SUB SWAP1 REVERT JUMPDEST POP PUSH1 0x0 DUP4 DUP6 SUB SWAP1 POP DUP1 SWAP2 POP POP SWAP4 SWAP3 POP POP POP JUMP JUMPDEST PUSH1 0x0 DUP1 DUP4 GT DUP3 SWAP1 PUSH2 0x2E69 JUMPI PUSH1 0x40 MLOAD PUSH32 0x8C379A000000000000000000000000000000000000000000000000000000000 DUP2 MSTORE PUSH1 0x4 ADD DUP1 DUP1 PUSH1 0x20 ADD DUP3 DUP2 SUB DUP3 MSTORE DUP4 DUP2 DUP2 MLOAD DUP2 MSTORE PUSH1 0x20 ADD SWAP2 POP DUP1 MLOAD SWAP1 PUSH1 0x20 ADD SWAP1 DUP1 DUP4 DUP4 PUSH1 0x0 JUMPDEST DUP4 DUP2 LT ISZERO PUSH2 0x2E2E JUMPI DUP1 DUP3 ADD MLOAD DUP2 DUP5 ADD MSTORE PUSH1 0x20 DUP2 ADD SWAP1 POP PUSH2 0x2E13 JUMP JUMPDEST POP POP POP POP SWAP1 POP SWAP1 DUP2 ADD SWAP1 PUSH1 0x1F AND DUP1 ISZERO PUSH2 0x2E5B JUMPI DUP1 DUP3 SUB DUP1 MLOAD PUSH1 0x1 DUP4 PUSH1 0x20 SUB PUSH2 0x100 EXP SUB NOT AND DUP2 MSTORE PUSH1 0x20 ADD SWAP2 POP JUMPDEST POP SWAP3 POP POP POP PUSH1 0x40 MLOAD DUP1 SWAP2 SUB SWAP1 REVERT JUMPDEST POP PUSH1 0x0 DUP4 DUP6 DUP2 PUSH2 0x2E75 JUMPI INVALID JUMPDEST DIV SWAP1 POP DUP1 SWAP2 POP POP SWAP4 SWAP3 POP POP POP JUMP INVALID PUSH8 0x7261636520706572 PUSH10 0x6F6420656C6170736564 KECCAK256 PUSH16 0x7220746F6F206561726C79536166654D PUSH2 0x7468 GASPRICE KECCAK256 PUSH14 0x756C7469706C69636174696F6E20 PUSH16 0x766572666C6F776465706F7369742063 PUSH2 0x6E6E PUSH16 0x74206265206C657373207468616E2063 PUSH16 0x6D6D69746D656E74A265627A7A723158 KECCAK256 BYTE 0xcf EXTCODECOPY SWAP8 CREATE 0xe8 0x5f 0xe2 MSIZE 0xba 0xad 0x1f SWAP2 PUSH13 0x8CB808C44F2F4BCF611E6CFD61 0x4a 0xe4 0xa5 SWAP9 0xed PUSH5 0x736F6C6343 STOP SDIV 0xc STOP ORIGIN "},"gasEstimates":{"creation":{"codeDepositCost":"2412800","executionCost":"infinite","totalCost":"infinite"},"external":{"EARTH_SECONDS_IN_MONTH()":"473","addFunds(uint256)":"infinite","calculatePowerBooster(address,uint256,uint256)":"infinite","createSIPPlan(uint256,uint256,uint256,uint256,uint256,uint256,uint256)":"181684","fundsDeposit()":"495","getDepositDoneStatus(address,uint256,uint256)":"1117","getDepositStatus(address,uint256,uint256)":"3052","getPendingWithdrawlAmount(address,uint256,uint256,bool)":"infinite","getTime()":"235","monthlyDeposit(address,uint256,uint256,uint256)":"infinite","newSIP(uint256,uint256)":"infinite","owner()":"520","pendingBenefitAmountOfAllStakers()":"428","sipPlans(uint256)":"2543","sips(address,uint256)":"2869","token()":"585","toogleNominee(uint256,address,bool)":"23311","viewNomination(address,uint256,address)":"1184","withdrawBenefit(address,uint256,uint256)":"infinite","withdrawFunds(uint256)":"infinite","withdrawPowerBooster(address,uint256)":"infinite"}},"methodIdentifiers":{"EARTH_SECONDS_IN_MONTH()":"1272d8d4","addFunds(uint256)":"be999705","calculatePowerBooster(address,uint256,uint256)":"983b4b6e","createSIPPlan(uint256,uint256,uint256,uint256,uint256,uint256,uint256)":"295226c5","fundsDeposit()":"13dcc452","getDepositDoneStatus(address,uint256,uint256)":"f29de4c3","getDepositStatus(address,uint256,uint256)":"94bb9064","getPendingWithdrawlAmount(address,uint256,uint256,bool)":"9b3017c1","getTime()":"557ed1ba","monthlyDeposit(address,uint256,uint256,uint256)":"7f13c7a1","newSIP(uint256,uint256)":"53c0fb47","owner()":"8da5cb5b","pendingBenefitAmountOfAllStakers()":"2393768d","sipPlans(uint256)":"ef4ffe57","sips(address,uint256)":"f926b17a","token()":"fc0c546a","toogleNominee(uint256,address,bool)":"0ce57b46","viewNomination(address,uint256,address)":"2e9721b6","withdrawBenefit(address,uint256,uint256)":"07f71149","withdrawFunds(uint256)":"155dd5ee","withdrawPowerBooster(address,uint256)":"26d9767b"}},"userdoc":{"methods":{},"notice":"24 oct 19:38 in last moment im changing panther to cheetah. this might give bugs. pls check work on add power booster withdrawl - compare a different withdrawl with one transaction withdrawl - power booster only on commitment remove status from sip struct - might be required for nomineeWithdraw make gas estimation report nominee can withdraw benefit after one year do this add multisig trustee / appointee power booster deduction to be sent to owner address create get methods for all struct mappings make option to make plan inactivw add condition of cap in new users creating SIP. ensure SIP storage _sip everywhere check for DAO type vulnerabilities*"}}